:020000040000FA
:0600000002010A02201CAF
:03002B0002228925
:03003B000222AAF4
:0300430002223462
:03005300022092F6
:03006B0002225A14
:10008300021ECBE5C754F84401F5C77901220000ED
:100093000080FB120086B900030200F4E4791A78A9
:1000A30002B800028004F709D8FCE4791C7802B88E
:1000B30000028004F709D8FCE4900281787A790F72
:1000C3008002F0A3D8FCD9FA9010FAAA82AB8390ED
:1000D300013A78D779018015E493A3AC82AD838A82
:1000E300828B83F0A3AA82AB838C828D83D8E9D9D8
:1000F300E77582457583C4740312011C758291757B
:100103008300740012011C75D00075813F7518813E
:10011300751902759F00020096C09FF59FE473D086
:100123009F22D083D082C09FE493C0E0740193C028
:10013300E0740293F59F229C03AE03D803A203FF4E
:100143000000B4000028002800283075A000A0009B
:10015300A000A00000080008E001F000100010005B
:10016300100010001000100050005000500010004C
:100173001000D0070000000000000F000100050080
:10018300307507001000010081FF00000000FF022E
:100193000202DD90010000D09002D99001000052CC
:1001A3001102D590010000B20202D9900100005360
:1001B3001102D390010000C802FFFF0100FF2002DB
:1001C300DD90010000CD9002D99001000081110261
:1001D300DB90000000000002D790030000A5038815
:1001E3000B880B880B880B880B880B880B880B8874
:1001F3000B880B880B880B880B9E0DBC0D980DFF8D
:10020300FF01E803053F10020AFF00FEFF1201256C
:1002130024BB031201253ABB0312012569BB031258
:1002230001259FBB03120125B6BB03120125CDBBDC
:100233000312012504BC0312012557BC0312012537
:100243006EBC0312012597B403120125AEB4031249
:100253000125DFB4031201251AB50312012544B5A4
:10026300031201256EB50312012585B5031201257D
:100273009CB503120125B3B503120125DCB50312A6
:100283000125EFB50312012505B6031201252FB68B
:1002930003120125F6F101120125FAF201120125DB
:1002A30027F3011201257DF301120125A0F30112A9
:1002B3000125B4F301120125B6F301120125D9F387
:1002C30001120125E8F401120125ACF50112012503
:1002D30081F601120125F2F6011201257EF70112C2
:1002E300012581F70112012509F80112012544F8BE
:1002F30001120125ABF801120125AEF80112012507
:10030300E5F8011201250EF901120125B9F90112CF
:10031300012543FA0112012592FA011201259FFAE0
:1003230001120125A2FA0112012502FB0112012586
:100333000DFB011201258CFB011201258FFB01121C
:100343000125A2FB01120125A5FB0112012534FCA5
:10035300011201254EFC011201255EFC011201254B
:100363008EFC011201259BFC011201259EFC01124A
:1003730001251FFD011201250DFE01120125BFFEFE
:100383000112012518B00212012510B10212012534
:1003930044B102120125C6B102120125E6B10212CF
:1003A30001252EB20212012581B202120125E5B206
:1003B3000212012572B3021201252CB40212012587
:1003C3003BB702120125C6B802120125E9B8021291
:1003D30001259A95031201253797031201259B974F
:1003E30003120125FA970312012508980312012528
:1003F3003198031201250DF50212012535F502127C
:10040300012563F5021201259AF502120125F8F57B
:100413000212012543F6021201258EF6021201256E
:10042300CEF60212012514F70212012542F7021239
:100433000125FFF70212012509F80212012516F81A
:100443000212012549F80212012515F902120125AC
:1004530021F90212012539F90212012543F9021289
:100463000125C1F902120125F7C10312012505C2B5
:10047300031201251DC20312012535C203120125F2
:100483004DC2031201257BD50112012527D6011286
:100493000125A2D601120125C3D701120125FFD7D9
:1004A30001120125A8D8011201258FD901120125B6
:1004B300F3DA011201254ADB01120125CBDB01121C
:1004C3000125BBDC0112012508DD011201258EDDAA
:1004D30001120125C0DD01120125D4DF011201251E
:1004E30016E00112012534E001120125D6E00112C4
:1004F30001259EE101120125ABE301120125459976
:10050300031201255B990312012581990312012529
:100513009D9A03120125A79A03120125DC9B03125E
:100523000125D49C03120125C984031201256D857D
:1005330003120125A08503120125EA850312012573
:10054300AD870312012596A4011201250FA50112FF
:1005530001251FA5011201250DA60112012517A6CC
:10056300011201253CA60112012547A6011201250E
:1005730031A70112012594A7011201254AA80112EE
:10058300012531AA01120125EAAB01120125C6ACEE
:10059300011201257AAD01120125B7B0011201251F
:1005A30065B101120125D4B20112012554B401121F
:1005B3000125FBB40112012544B5011201257BB5C8
:1005C3000112012518B601120125A3B60112012556
:1005D30080B701120125D5B70112012534B90112E3
:1005E300012544B90112012571B901120125C8B9C8
:1005F3000112012571BA0112012578BB01120125EF
:1006030042BC01120125A2BD01120125E5BD011263
:1006130001258ABE01120125B0BE01120125BEC00B
:1006230001120125C3C001120125C8C2011201250F
:1006330015C30112012588C301120125BBC3011291
:1006430001255DC40112012506C5011201253EC520
:100653000112012541C50112012589C50112012598
:10066300CBC50112012522C60112012558AA031286
:1006730001256BAA0312012579AA03120125C1AA38
:1006830003120125D7AA031201251EAB031201256C
:1006930032AC03120125BFAC031201250AAD0312CC
:1006A30001251C23001201252C23001201258F2371
:1006B30000120125D423001201258A2400120125EA
:1006C3006525001201258E2500120125BE25001285
:1006D3000125FE2700120125E52900120125BD2B66
:1006E30000120125012D00120125682F001201259A
:1006F300763000120125C83100120125D2320012D2
:1007030001251433001201254C33001201256E33E9
:1007130000120125D133001201259338001201255F
:100723002839001201257C3900120125A339001252
:100733000125E13900120125003A001201255A3A38
:10074300001201255A3B00120125DF3B001201254F
:1007530039EF0212012543EF02120125EBEF0212DA
:1007630001252EF00212012549F002120125D9F0CC
:100773000212012501F10212012539F102120125AC
:1007830070F10212012599F102120125D3F102122F
:100793000125E8F102120125B5F202120125D8F272
:1007A30002120125FAF2021201250FF302120125AA
:1007B30095F302120125CFF30212012547F4021229
:1007C300012590F402120125BAF402120125E5F481
:1007D30002120125D8BD03120125C4E3011201252C
:1007E300F2E3011201254DE5011201252DE6011267
:1007F30001254CE601120125C9E6011201250CE78A
:100803000112012587E801120125F6E801120125ED
:1008130021EB01120125A5ED0112012556EE01126E
:1008230001254CEF01120125ECEF01120125EAF03D
:100833000112012575F10112012585BC0312012561
:10084300EEBC0312012542BD0312012571BD031243
:10085300012592BD031201254A8903120125B78997
:1008630003120125FE8903120125168B03120125AC
:10087300128C03120125F58C03120125C5DB02122C
:10088300012507DC02120125E0DC02120125DADD75
:1008930002120125BCDE0212012525DF0212012509
:1008A30041E002120125ADE002120125B0E002127F
:1008B3000125D9E00212012553E102120125F8E1D5
:1008C300021201250DE20212012553E20212012553
:1008D3006CE2021201256FE202120125DE9C031273
:1008E30001251A9D03120125589D03120125229EFD
:1008F30003120125919E03120125CC9E03120125AB
:100903000A9F031201253A9F03120125619F0312D7
:100913000125CF9F0312012511A003120125CD6AE2
:1009230000120125906C001201255B6E0012012557
:10093300976E00120125C46E00120125866F001206
:100943000125CD6F001201251170001201252370BE
:100953000012012563700012012590700012012519
:10096300DE70001201251871001201253B7100127F
:1009730001258D71001201251B7200120125F172F0
:1009830000120125DB7300120125AA75001201254F
:10099300AB7A00120125FA7A00120125417B00127D
:1009A3000125747D0012012500B00312012572B0E8
:1009B30003120125C8B0031201250CB1031201254E
:1009C3002CB10312012579B103120125C1B1031220
:1009D300012514B20312012565B203120125463C19
:1009E300001201258F3C00120125BC3C0012012599
:1009F300EF3C00120125FF3C001201250B3D0012C4
:100A030001251C3D00120125033E00120125613E14
:100A130000120125963E00120125D93F001201253F
:100A23002B40001201257B4000120125CE4000120D
:100A33000125CD41001201254843001201251F4421
:100A4300001201252F4400120125514400120125F3
:100A5300544400120125224500120125F3450012DA
:100A63000125C246001201251647001201257647CB
:100A730000120125DA47001201258B4800120125D7
:100A8300564900120125F849001201256D4A00124A
:100A93000125D94A001201252E4B001201255F4B77
:100AA30000120125FA4B00120125DE4D001201252B
:100AB3002D4E00120125704E00120125F24E001238
:100AC3000125904F00120125D74F00120125FB4F3E
:100AD3000012012542500012012570500012012519
:100AE300B85000120125325100120125765100122F
:100AF300012583520012012532530012012593531D
:100B030000120125EF53001201250854001201259C
:100B130014BA0212012567BA0212012573BA02122E
:100B2300012548BB021201256FBB02120125AABB96
:100B33000212012516BC0212012552BC0212012524
:100B43008BBC02120125A3BC02120125F8BC0212C0
:100B5300012511BD021201255ABD021201256DBDE9
:100B63000212012587BD021201259DBD0212012536
:100B7300D0BE0212012517C00212012519C10212AB
:100B8300012513C202120125FB7F0012012549FA38
:100B930002120125B8FD02120125F1FE0212012500
:100BA3002F8E02120125A59002120125AB9002128D
:100BB30001251393021201257A9502120125008063
:100BC300031201259680031201254D81031201258D
:100BD3007781031201256A8303120125928403128C
:100BE3000125F29001120125269101120125139B83
:100BF30001120125679C01120125729D0112012535
:100C0300F29E01120125D39F011201250DA00112AD
:100C1300012530A00112012572A001120125BCA0FB
:100C230001120125C6A00112012570A1011201259F
:100C330049A2011201259DA201120125FFA2011261
:100C4300012552A30112012581A301120125BEA38F
:100C5300011201252FA703120125A5A703120125C0
:100C6300BBA703120125FCA70312012536A8031213
:100C73000125AFA803120125EAA8031201255DA9E6
:100C8300031201259BA903120125A4A9031201251F
:100C9300B0A903120125CCA903120125F7A9031258
:100CA300012528AA0312012593E202120125A6E2D7
:100CB30002120125C0E202120125E9E20212012516
:100CC3002CE3021201256BE302120125A9E30212B0
:100CD30001250EE40212012523E4021201253AE460
:100CE3000212012548E40212012557E402120125EC
:100CF3006CE40212012581E4021201258CE4021244
:100D0300012598E402120125A5E402120125B8E4A5
:100D130002120125C3E402120125E8E402120125AF
:100D23008FE502120125A4E502120125B9E502129D
:100D33000125D3E502120125EEE5021201250BE69A
:100D43000212012516E602120125D2E6021201253E
:100D5300BEE702120125E3E702120125EEE70212C4
:100D6300012503E80212012517E80212012578E89C
:100D7300021201257EE80212012584E802120125F0
:100D83008AE802120125A2E802120125D5E802121F
:100D93000125C2A502120125E4A502120125C4A65C
:100DA300021201259BA902120125C7AA02120125DD
:100DB300EBAB021201259DAC021201253EAD0212DE
:100DC300012505800212012589800212012538813F
:100DD30002120125978202120125B884021201250D
:100DE300A48502120125D98502120125FB85021271
:100DF3000125AA8602120125A28802120125CB88A9
:100E0300021201255D89021201258F890212012533
:100E13009C8902120125F38902120125198A021203
:100E23000125868C02120125898D02120125E18D8F
:100E3300021201250FC70112012519C8011201254C
:100E430000C9011201250AC9011201252CC9011289
:100E5300012538C901120125D1CA0112012500CB90
:100E6300011201251CCC0112012575CC01120125AB
:100E7300DBCD01120125BACE0112012516CF0112D5
:100E8300012583CF01120125BECF01120125FDCF1C
:100E930001120125B6D201120125D0D2011201257A
:100EA3005CD3011201256AD301120125C3D30112B8
:100EB3000125D1D30112012544D401120125A8D45F
:100EC30001120125F2D40112012541B603120125B5
:100ED30066B603120125D8B60312012579D402128E
:100EE300012582D4021201258BD40212012562D579
:100EF3000212012513D70212012549D70212012537
:100F030083D702120125B9D702120125F3D70212A2
:100F1300012527D80212012553D8021201259CD896
:100F230002120125D6D8021201251FD9021201256A
:100F330077D902120125ACD90212012507DA021270
:100F4300012541DA0212012592DA02120125C8DADB
:100F53000212012502DB0212012525DB0212012503
:100F630030FF011201255CFF01120125B7FF0112B9
:100F73000125C1FF01120125D1FF01120125DEC3A5
:100F830002120125E8C30212012526C4021201251B
:100F93006FC402120125A9C40212012503C502125E
:100FA300012524C502120125FCC70212012505C82B
:100FB3000212012552C8021201257BC80212012523
:100FC30085C802120125F1C80212012583C9021244
:100FD3000125CDC90212012503CA021201258FCAB8
:100FE30002120125D0CA0212012507CB02120125E4
:100FF30019CB0212012538CB0212012541CB021273
:10100300012509CC0212012500C103120125A6B254
:1010130003120125DCB20312012512B303120125C9
:101023005DB4031201257CC30312012592C303128D
:1010330001259CC303120125B78D03120125CC8D15
:10104300031201257F8E03120125BF8E0312012592
:10105300D88E03120125138F03120125608F03120B
:101063000125928F03120125D48F03120125DF91ED
:1010730003120125E6C30312012588B903120125D2
:10108300B1B903120125E0B90312012578BA03129D
:10109300012590BA03120125D2BA0312012552E9A0
:1010A3000212012594E90212012516EA0212012512
:1010B3002BEA021201257CEA02120125D0EA021270
:1010C300012515EB0212012524EB02120125D8EBB1
:1010D3000212012533EC0212012582EC02120125D2
:1010E300D8EC02120125CDED02120125C4EE021245
:1010F300012501EF02120125797F001201253A54DF
:1011030000120125BB560012012555580012012576
:101113000959001201259C5900120125215A001278
:101123000125465A00120125985A001201254D5EE9
:1011330000120125D35E001201250660001201256D
:101143004060001201257560001201253262001211
:101153000125666200120125C362001201250C639A
:1011630000120125736300120125EC6300120125AF
:101173001B64001201253364001201257C650012F3
:1011830001258C6500120125AA6600120125CC6693
:1011930000120125026700120125B1680012012522
:1011A3003E69001201257D6900120125966A00122D
:1011B3000125D9FF0212012598C403120125D7C4C2
:1011C30003120125E87F001201253CFF02120125CD
:1011D3004CFF0212012567FF02120125CFFF021205
:1011E3000125FCBF0312012581C003120125E7C0BD
:1011F30003120125F1BE0312012518BF03120125B5
:101203006EBF03120125BEBF03120125C5A303123E
:101213000125DAA3031201251EA5031201259AA5B0
:10122300031201250EA60312012528A60312012588
:101233003FA60312012552A6031201256CA6031231
:10124300012583A603120125A9A603120125FAA6E7
:1012530003120125EC9103120125009203120125CB
:101263007A92031201255E93031201253595031229
:10127300012559A003120125E9A00312012575A137
:10128300031201250EA2031201259FA203120125B9
:10129300A8A20312012526A30312012539A30312D1
:1012A30001254FA303120125AFA303120125C2A3F6
:1012B30003120125E6C20312012556C303120125B9
:1012C30061C30312012571C303120125E6B703129B
:1012D300012538B803120125C2B80312012529B923
:1012E3000312012534AD031201255EAD031201255E
:1012F3002CAE0312012507AF031201258EAF031293
:10130300012537CC02120125FECC0212012535CD71
:10131300021201255FCD02120125BFCD0212012564
:1013230015CE021201257ACE0212012512CF021226
:10133300012521D002120125B8D10212012545D27F
:1013430002120125ACD202120125C3D202120125D9
:10135300DDD3021201251BD402120125049A0212C5
:101363000125209B021201252A9C02120125989C2B
:1013730002120125669D021201258E9D021201258E
:10138300FD9F021201254FA002120125EDA00212BA
:101393000125FDA102120125A2A20212012524A307
:1013A3000212012517C503120125E1C40312012509
:1013B30043C503120125DBFF01E066701008A3E0BB
:1013C30066700A08A3E066700408A3E06622C3E718
:1013D300960809E7960809E7960809E79622C3E005
:1013E3009608A3E09608A3E09608A3E09622C00817
:1013F300C3E096F50808A3E096420808A3E09642E6
:101403000808A3E09645087001D3D008220808080D
:10141300EAC0E0EBC0E086F0E7A4FA180986F0E73B
:10142300A42AFA180986F0E7A42AFA180986F0E72D
:10143300A42AFA1986F0E7A4FBE5F02AFA1908862C
:10144300F0E7A42BFBE5F03AFA190886F0E7A42BA2
:10145300FBE5F03AFA18180986F0E7A4C5F02BFB70
:10146300E43AFA1908E7C5F0C6A426F6E5F03BFB13
:10147300E43AFA1886F0E7A4F6E5F00826F6E43B2A
:1014830008F6E43A08F6D0E0FBD0E0FA22E4CFC055
:10149300E0E4CEC0E0E4CDC0E0E4CCC0E075F020F1
:1014A300C3E633F608E633F608E633F608E633F622
:1014B300181818EC33FCED33FDEE33FEEF33FFC3A6
:1014C300EC9709ED9709EE9709EF97191919400F52
:1014D300FFEC97FC09ED97FD09EE97FE191906D568
:1014E300F0BEECF709EDF709EEF709EFF719191953
:1014F300D0E0FCD0E0FDD0E0FED0E0FF2260160893
:101503000808C6C313C618C613C618C613C618C61A
:1015130013C6D5E0EA2270090808082260161818D5
:1015230018C6C333C608C633C608C633C608C6338F
:10153300C6D5E0EA22E627F60809E637F60809E603
:1015430037F60809E637F622E026F608A3E036F672
:1015530008A3E036F608A3E036F622E026F008A357
:10156300E036F008A3E036F008A3E036F022C3E645
:1015730097F60809E697F60809E697F60809E69745
:10158300F622C3E096F008A3E096F008A3E096F0F5
:1015930008A3E096F022E657F60809E657F608098D
:1015A300E657F60809E657F622E056F608A3E05692
:1015B300F608A3E056F608A3E056F622E056F00834
:1015C300A3E056F008A3E056F008A3E056F022E0AB
:1015D30066F608A3E066F608A3E066F608A3E066ED
:1015E300F622E0F608A3E0F608A3E0F608A3E0F687
:1015F30022E6F008A3E6F008A3E6F008A3E6F0224B
:10160300E0FAA3E0FBA3E0FCA3E0FD22EAF0A3EBF6
:10161300F0A3ECF0A3EDF022CAC0E0E6F0A308DAF1
:10162300FAD0E0FA22CAC0E0E0A3C582CCC582C5E5
:1016330083CDC583F0A3C582CCC582C583CDC583C5
:10164300DAE6D0E0CA22C3E498F8E499F912168ADC
:101653008026C3E49AFAE49BFBE920E7E912168AA1
:10166300E498F8E499F922C3E498F8E499F9121696
:101673008AE498F8E499F9C3E49AFAE49BFB22EB31
:1016830020E7CFE920E7E0B90010BB0008E88AF0C3
:1016930084F8AAF022E4FBC8FA22EB70227B10C87C
:1016A30033C8C933C9335007C39AC3DBF280069AE0
:1016B30050012ADBEAC833F4C8C933F4C9FA2275E6
:1016C300F008E4C833C8C933C933C99AC99B500465
:1016D300C92AC93BD5F0ECFBC833F4C8E4C9FA22E4
:1016E300600D08C6A2E713C618C613C6D5E0F322D9
:1016F300600C08C6C313C618C613C6D5E0F422701F
:101703000422600D18C6C333C608C633C6D5E0F439
:101713001822251810AF08F518400215198008F58E
:101723001840021519D2AF22C0D0251810AF08F502
:1017330018500205198008F51850020519D2AFD0C8
:10174300D0222518F58210AF08F51840021519802C
:1017530008F51840021519D2AF851983222518F50B
:1017630082E43519F58322E4732518C582C0E0E5C8
:101773001934FFC583C0E0E518C3958224F810AF80
:10178300088583198582188008858319858218D274
:10179300AFCEF0A3E520F0A37808E608F0A3DEFAC5
:1017A300EFF0A3E58124FAF8E608F0A3E608F0A336
:1017B300E608F0A30808E608F0A3E608F0A31581FD
:1017C3001581D0E0FED0E0F8158115811581E8C0C0
:1017D300E0EEC0E0222518C582C0E0E51934FFC55C
:1017E30083C0E0E518C3958224F910AF08858319F7
:1017F3008582188008858319858218D2AFCEF0A31D
:10180300E520F0A37808E608F0A3DEFAEFF0A3E5FD
:101813008124FBF8E608F0A3E608F0A30808E6082D
:10182300F0A3E608F0A315811581D0E0FED0E0F81F
:1018330015811581E8C0E0EEC0E022851983851883
:1018430082E0A3FEE0A3F5207808E0A3F608DFFA20
:10185300E0A3FFE0A3C0E0E0A3C0E0E0A3C0E0E0BA
:10186300A3C0E0E0A3C0E010AF0885821885831908
:101873008008858218858319D2AFD083D082020174
:1018830022851983851882E0A3FEE0A3F52078085A
:10189300E0A3F608DFFAE0A3FFE0A3C0E0E0A3C003
:1018A300E0E0A3C0E0E0A3C0E010AF0885821885A4
:1018B30083198008858218858319D2AFD083D0829B
:1018C30022C0D02518C582C0E0E51934FFC583C006
:1018D300E0E518C3958224F310AF08858319858248
:1018E300188008858319858218D2AFC8F0A3E9F060
:1018F300A3EAF0A3EBF0A37908E709F0A3D8FAEC85
:10190300F0A3EDF0A3EEF0A3EFF0A3D0E0F0A3D0AB
:10191300E0F0A3D0E0F0A3E520F0A3E5F0F0A322EC
:10192300851983851882E0C0E0A3E0F9A3E0FAA358
:10193300E0FBA37808E0F608A3DFFAE0FCA3E0FDF0
:10194300A3E0FEA3E0FFA3E0C0E0A3E0C0E0A3E0C8
:10195300F5D0A3E0F520A3E0A3F5F010AF0885834D
:10196300198582188008858319858218D2AFD082A1
:10197300D083D0E0F8D0E032740480067402800291
:101983007401C0E0F404121745D0E012161B227450
:1019930004800474028000CCC0E0EDC0E0E518C30D
:1019A3009CCCAD1950011D10AF068C188D19800603
:1019B3008C188D19D2AF121628D0E0FDD0E0FC228E
:1019C300D083D082E9C0E0E493A3C386F0C5F09549
:1019D300F0F908E493A386F0C5F095F0700BE49357
:1019E300A3C3994005E9048002A3E475F002A4258A
:1019F30082F582E5F03583F583D0E0F9E493A3C063
:101A0300E0E493C0E022D083D082ECC0E0EDC0E0FC
:101A1300E493A3FCE493A3FDED4C600D121A55EC83
:101A230024FFFCED34FFFD80EFE493A3FCE493A3D8
:101A3300FDED4C600D121A94EC24FFFCED34FFFD18
:101A430080EFD0E0FDD0E0FCE493A3C0E0E493C0DA
:101A5300E022C0E0C3E49396087401939618400F04
:101A6300E49366700808740193661870007019A3F4
:101A7300A3C3E49396087401939618A3A3400DD0CF
:101A8300E0D0E0D0E0021A45A3A3A3A3A3A3D0E030
:101A930022C0E0C0F088F0E49366700808740193F4
:101AA30066187000A8F0A3A3700BD0F0D0E0D0E0CC
:0C1AB300D0E0021A45A3A3D0F0D0E0223E
:101AC00074F51217D8EAFEEBFFEE2434F8EF340079
:101AD000F988088909EE2435121BECF8EE24371238
:101AE0001BECF50AEC850AF0A4FCAAF0850AF0EDDF
:101AF000A42AFDE82CF8E43DF97A257B0012168A29
:101B0000EA850882850983F074075AF87401B800E1
:101B1000028004C333D8FCFBEA131313541FF8EEFE
:101B200028F8EF3400F9E8245DF582E9121BEF5B39
:101B30006003EA801CEE2436121BECF5F0EA84A860
:101B4000F0EE28F8EF3400F9E82438F582E9121BAA
:101B5000EFF97F0402188474F51217D8EAFEEBFF40
:101B6000EE2434121BECC0E0EE2435F582EF340095
:101B7000F583D0E0F08E828F83A3A3A3A3A3E0FA22
:101B8000A3E0FB8E828F83A3A3A3A3A3A3A3E0FC64
:101B9000A3E0FDECC39AF50AED9BF50BEE247FF56F
:101BA00008EF3400F509850882F583E06401702BA5
:101BB000EE2480F582EF3400F583121996121BF59E
:101BC000740212172BE960137CBF7D07EEFAEFFB5E
:101BD000120A9E850882850983E4F0AC0AAD0BEEFB
:101BE000FAEFFB121AC0122220021B52F582EF34C8
:101BF00000F583E022C082C083851882851983E0C6
:101C0000F8A3E0F9C3EA9CEB9D5010C3EC98ED9962
:101C1000401BC3EA98EB995014800EC3EA98EB99E5
:101C20004007C3EC98ED994004790180027900D017
:101C300083D0822274ED1217D8900479E064086092
:101C400005E06407702C9061C8E060269004A7E06E
:101C5000F874FF68601CE875F005A4C8AAF02AF9BA
:101C600074A928FE740439FF8E828F83A3A3A3E096
:101C700070057900021DD4EE2468F510EF3400F5EC
:101C800011906060E0851082851183F0750AFB7504
:101C90000B07750800750900E5D914F50EE5D95450
:101CA00003F50F601CEE2482F50CEF3400F50D7483
:101CB00003650F6058E50E6013EE2467121BEC708D
:101CC0000B793DEEFAEFFB120AC880A69007F6E00A
:101CD00064016026850C82850D83E06004780480B1
:101CE000027800850E08E508C398FA95E0FB120912
:101CF000308A088B09EA45097006120D74021C72BD
:101D0000850C82850D83E070048A0A8B0B78008035
:101D100016E5D9C0E08812E50A2512F582E50B34F4
:101D200000F583D0E0F008E8C3950E40E4850C820E
:101D3000850D83E0602874FC250EF50E780A1219D3
:101D40007FAC0EA90FEEFAEFFB120B827402121792
:101D50002BE9700AAA08AB091212D2021CC1740343
:101D6000650F6058850E0C750D00780C12197FAC4C
:101D70000AAD0BAA08AB09120B46740212172B8589
:101D80001082851183E0F87480687005750C7F807F
:101D900002880CE50CF50A780A121983E50FF50A9A
:101DA000780A121983A90EAC08AD099004A7E0FACD
:101DB0007B001207D4740212172B8013900479E071
:101DC0006408700BAC0AAD0BEEFAEFFB120BB2120B
:101DD0000D8079017F0C02188474F31217D874FCFB
:101DE000121715EAFEEBFF8908A2AFE433F509C22A
:101DF000AFEE2463F50AEF3400F50B8010AA0AABAE
:101E00000B120AFE1212D29007C6E004F0850A8275
:101E1000850B83E0F8A3E0F9E849602FE82402FA93
:101E2000E93400FBEA2402F50CEB3400F50D780CE4
:101E300012197F8A828B83E0FCA3E0F9EEFAEFFBB4
:101E4000120AF2740212172BE960B29007C6E06022
:101E5000579007C7E0F89007C6E0C398500C74028B
:101E6000650870449007C8E0603E8E828F83A3A30C
:101E7000A3A3E0851882851983121EB87402121775
:101E800060E8121EB89007C5E028F07402121760CF
:101E9000AC82AD83851882851983AA82AB837901D0
:101EA0001207E09007C6E4F0E509A2E092AF7404DF
:101EB00012172B7F06021884F0A3E4F09007C6E007
:101EC000F8220000851A87851BC622C0E074EF1235
:101ED00018C4A2AFE433FEC2AF759B00906182E0EC
:101EE000A2E05012E591A2E0500C7591FE740165DC
:101EF0001A7003121C34E0A2E55051E591A2E5509E
:101F00004B7591DF900479E064076005E064087028
:101F1000237401651A703579019004A7E0FA75F011
:101F200005A4CAA8F028FB74A92AFA74043BFB1282
:101F30001DD98018E0640D701390049BE004F064D8
:101F4000287002E4F07A00E0F9120D86906182E0D8
:101F5000A2E64003021FF2E591A2E64003021FF24F
:101F60007591BF900479E064057008120C84120C1E
:101F7000908003120C8A751A00120CF6E990047A0C
:101F8000F07900120CD8120A027A017B00900478D2
:101F9000E0F9120FDE907803E0644270559007FA82
:101FA000E014F0704DC2AF121FAA00781DD0E0F609
:101FB00018D0E0F6E59F540770057509FF8003759A
:101FC000097FC4C0E0781CE6F50808E65509F50964
:101FD000740B78081216F3D0E02508F8906270E0D0
:101FE000A2E740F8E8C333906272F0906270E0D2EA
:101FF000E0F0906181E0A2E35009E5E9A2E350033B
:1020000075E9F7A3E0A2E75009E591A2E75003754F
:10201000917FEEA2E092AF7F04021923C0E0C0D00E
:10202000C082C083906183E0A2E05009E5BFA2E0D6
:10203000500375BFFEE0A2E15009E5BFA2E15003E5
:1020400075BFFDE0A2E25009E5BFA2E2500375BFF3
:10205000FBE0A2E35009E5BFA2E3500375BFF7E040
:10206000A2E45009E5BFA2E4500375BFEFE0A2E58A
:102070005009E5BFA2E5500375BFDFE0A2E65009B5
:10208000E5BFA2E6500375BFBFD083D082D0D0D0C9
:10209000E032C0E074F21218C4E5A7A2E4500FE5E4
:1020A000A1A2E4500953A7EF75A1EF1220E6E5A71E
:1020B000A2E5500CE5A1A2E5500653A7DF75A1DF0C
:1020C000E5A7A2E15009E5A1A2E1500375A1FDE554
:1020D000A7A2E2500CE5A1A2E2500653A7FB75A10E
:1020E000FB7F0102192374F81217D8751A019004A6
:1020F00079E0640670077A007B00120C6CA2AFE4F2
:1021000033FED2AF90047FE0640170187A207B0028
:10211000900478E0F912105C7A207B00900478E05B
:10212000F9120FE4906182E0D2E6F09007F7E060E8
:102130002185C61B801690047EE064017008E5C608
:1021400054F84405F5C653BEFC121EC47401651A4A
:1021500060E4EEA2E092AF7F0102188474F11217DE
:10216000D88A088B098C0A8D0B9090657808121517
:10217000AC740F121760780C1215E5909065780C0E
:102180001215AC7808790C1213D19090AD501078DC
:1021900008790C12157178081213F14014800E782A
:1021A0000C7908121571780C1213F1500479018022
:1021B0000279007F0802188474ED1217D88A088B00
:1021C000098C0A8D0B90906578081215AC74131267
:1021D0001760780C1215E5909065780C1215AC78A4
:1021E0000C79081213D140117808790C121571AAD4
:1021F00008AB09AC0AAD0B80227510007511007593
:1022000012007513017810790C1215717810790885
:10221000121538AA10AB11AC12AD137F0C02188442
:10222000C082C083E9906000F0D083D08222C2AF28
:1022300002000022C0E074F21218C4A2AFE433FE20
:10224000D2AFC2C0E5D1A2E4500653D1EF1212AE14
:10225000EEA2E092AF7F01021923C0E074F21218DF
:10226000C4A2AFE433FED2AFE589A2E04006E5891F
:10227000A2E15003121206758900758900C2C5EEED
:10228000A2E092AF7F01021923C0E0C0D0E8C0E015
:10229000E9C0E0E5A8D2AFC2C7A2E7A2E792AFD0FB
:1022A000E0F9D0E0F8D0D0D0E032C0E0C0D0E8C053
:1022B000E0E9C0E0C008C009C082C083A2AFE43337
:1022C000F9D2AF901052E0F8A3E0687008539AFB7F
:1022D000A374018026C2E9901052E0F5087401252C
:1022E00008F074D22508F582740F3400F583E0F508
:1022F000C1901052E0C394804002E4F0E9A2E09261
:10230000AFD083D082D009D008D0E0F9D0E0F8D0A7
:10231000D0D0E032FFFFFFFFFFFFFFFFC082C0838E
:10232000E9901180F0D083D08202012274F6121756
:102330006CE9900365F07CA57D037AFF7BFF1207B3
:102340002C7A008A08750900740278081217027442
:10235000662508F87403350912237BA3F00AEAC343
:10236000940340DF79051206BA900365E0F912057F
:10237000DC7A447B071208E2023977F98882898384
:1023800074FF122388E4F022F0A3123822A32274EF
:10239000F412176C8A088B09EB5480603090036547
:1023A000E0F9120FC68A0A8B0BAE0AAF0BEE4F6034
:1023B000138E828F83E064B070031206CCEEFAEFC6
:1023C000FB120FB4AA08E5096480FB80047A007B45
:1023D0000002256074F212176C74FC121715EAFEE5
:1023E000EBFFEE4F60387402121760EEF0A3EF12AD
:1023F00027E5ECF0A3ED1227E5AA82AB831205D600
:10240000E9F508707174121217601233C9E50A45B4
:102410000B60638E828F83122480EE4F70057508E7
:102420000280537A067B0012101A8A0C8B0DA80CBE
:10243000A90DE8497005750813803B88828983E4FB
:10244000122388EEF0A3EF12386AE50AF0A3E50B39
:10245000F09003731225589003736017E0FCA3E01B
:102460008003EAFCEBFD8C828D8312255870F38C7F
:10247000828D831232CCA908740412172B023A55AC
:10248000A3A3A3A3E0FEA3E0FF2274F212176C89BA
:102490000AE975F045A4FEAFF0900372E4F09003F2
:1024A00068122558602812102079008908750900E3
:1024B0007402780812170274682508F582740335CF
:1024C00009F583E4F0A3F009E9C3940340DDEEFAD3
:1024D000EFFB12101A8A088B09EA45096075EEFCB9
:1024E000EFFD7900120F9C7D008D0C750D007402BC
:1024F000780C1217027468250CF87403350DF9E591
:102500000AF5F0EDA475F017A4FAABF0E5082AFA85
:10251000E5093BFB88828983EAF0A3EBF07E00802B
:102520001BEE75F017A4FAABF088828983E02AFCD1
:10253000A3E03B8C82F583E4F0A3F00EEEC3950A92
:1025400040DF0DEDC3940340A0E50A900372F079DB
:102550000080027913023A55E0FAA3E0FBEA4B222D
:102560007F0402183E74F412176C7900EAA2E0505E
:102570001B750843750990780812197F7C047D004B
:102580007A827B111206B4740212172B80D2C08299
:10259000C08390037312385C49601C88828983A3CE
:1025A000A3E06A7003A3E06B8882898370E7A3A32A
:1025B000A3A312307080047A007B0002232574EEFE
:1025C00012176C74FC121715EAFEEBFF8518828552
:1025D0001983E4F0A3F0EE24021232B7EE240512C0
:1025E00027D3EE2404F50EEF122BAFE024FE603962
:1025F00024FC604624FE605224FE605E24FE7003CC
:102600000226D824FE700302275024FE70030227FE
:102610005F24FE700302276E24FC700302277D24D2
:10262000FE700302278C0227C990038C7417F0A355
:10263000E41227ED12024C0227C9851882851983FE
:10264000AC82AD831206D202279985188285198340
:10265000AC82AD831206D8022799850C08850D0936
:102660007402121760AC82AD8385088285098312DB
:1026700030701205FA8A0C8B0DAC0CAD0DEC4D6070
:1026800042E4F50CF50D780C12197F750C8C750D64
:1026900003780C12197F750C8D750D03780C1219C7
:1026A0007F7408121760121996791612306A120791
:1026B00014740812172BE9F50C700B123066120215
:1026C00064800F750C018508828509831227DB124F
:1026D00032CC850C0802279C7402121760AC82ADC4
:1026E00083850C82850D831230701205FA8A108B57
:1026F00011AC10AD11EC4D6043850C82850D83A3A8
:10270000A312199675108C751103781012197F7524
:10271000108D751103781012197F7408121760124A
:102720001996791612306A120714740812172BE9D9
:10273000F509700B12306612026A800F7509018567
:102740000C82850D831227DB1232CC850908804C60
:10275000851882851983AC82AD831206DE803A85A6
:102760001882851983AC82AD831206E4802B85180C
:1027700082851983AC82AD831206EA801C8518829B
:10278000851983AC82AD831206F0800D8518828591
:102790001983AC82AD831206F6E9F508E5086029D5
:1027A0008E828F83A3E06414601F850E82850F8361
:1027B000E090038C1227E5123B2490038D1232CC5B
:1027C000E508A31227ED120246EEFAEFFB12067897
:1027D0000231BEF50CEF3400F50D22123B288518AE
:1027E0008285198322F085188285198322F07C8CDA
:1027F0007D03850A82850B83E0FAA3E0FB2274EE59
:1028000012176C74FC1217158A0A8B0B8C0E8D0F25
:10281000EA2405F508EB3400F5097C157D00790004
:102820007A8C7B03120F9CE5082402F50CE5091253
:1028300027D68518828519838582108583117810A3
:1028400012197F850882850983A3A3A3A3122CF8FC
:1028500012197FE5082405F510E5093400F5117813
:102860001012197F850C82850D8312305A12307038
:102870001205F4740612172B8A108B11AE10AF11CB
:10288000E50A2402F50AE50B1232BAEE4F70030294
:1028900029C78017740212176012307088828983EA
:1028A000EAF0A3EBF090038CE004F090038CE0C31B
:1028B000940540030229C7E4F510F51178101219A8
:1028C0007F751075751103781012197F7510767564
:1028D0001103781012197F74061217601219967975
:1028E00010EEFCEFFD12306A120714740812172B59
:1028F000E9705E850882850983A3A3A3A3A3A3A38C
:10290000E0F8900375E0687048122CF812197F7C8B
:10291000767D03E5082408FAE5093400FB120F96DA
:10292000740212172BE960298E828F83A3A3A3A3BD
:1029300012307090038CE0F51074027810121702B8
:10294000748D2510F58274033511F583EAF0A3EB3D
:10295000F0740212176085821085831178101219A5
:102960007F7402121760121996850C82850D8312EE
:102970003B39120600740412172B8A108B11AE100B
:10298000AF1190038CE0F5107511007402781012ED
:102990001702748C2510F874033511F98882898325
:1029A000A3122558700302288BE82403F8E93400A9
:1029B000F9EE4F60030228948882898374FFF0A3A4
:1029C000F090038CE004F090038CE0600A12306613
:1029D0001202587900800B8508828509831232C360
:1029E000790A0231BE74EA12176C74FE1217158C44
:1029F000128D13EA2405F50CEB123B431224847567
:102A00000800750900EA2402F510EB3400F5118581
:102A1000188285198385820A85830B780A12197FAB
:102A2000850C82850D83A3A3A3A3122BB912197F52
:102A3000E50C2405F50AE50D1232BA780A12197F61
:102A4000850C82850D83123B371205F4740612172C
:102A50002B8A0A8B0BEA450B7003022B7AEA2404BB
:102A6000F50EEB122BAF1224848A828B83A3A3A3CF
:102A7000E0F98510828511831230701205E2E9F5C4
:102A8000096003022B7AE4F514F515781412197F06
:102A9000751475751503781412197F7514767515EC
:102AA00003781412197F740612176012199679139D
:102AB000AC0AAD0B85108285118312307012071499
:102AC000740812172BE9F5096003022B7A9003753D
:102AD000E0F8E5087009E0240290038DF08017907B
:102AE000038DE0FCE82402FAE43400FBEA6C700198
:102AF000EB6003022B7E850882AA82122CEF9414CD
:102B0000122CE75075850E82850F83E0C0E0122FEE
:102B100026D0E0F00508850E82850F83A3E0C0E093
:102B200085080A748E250AF58274033400F583D073
:102B3000E0F00508900375122BB912197F7C767DA1
:102B40000385080A748E250AFA74033400FB120FF9
:102B500084740212172B900375E02508F50874FFA2
:102B60006E700374FF6F6012EE24010EEF3400FFED
:102B7000E508C394145003022A0FE5086013122FCE
:102B80004C85108285118312307012025E790080AC
:102B900014E509700375090A851282851383EEF026
:102BA000A3EFF0A909740212172B7F0E02183E340E
:102BB00000F50F850E82F583221238792274EE1209
:102BC000176C74FE1217158C0E8D0FEA2405F50C88
:102BD000EB1227D6750B0090038CE4F0F50AEA247B
:102BE00002F508EB3400F509804990038CE0FA9077
:102BF0000375E0F8122CEF9417122CE7400D9003A8
:102C00008CE0F87416C398900375F0122CF8121922
:102C10007F7C767D03748D2AFA74033400FB120FD7
:102C200084740212172B900375E0F890038CE0284F
:102C3000F0050AE50C2416F582E50D3400F583E075
:102C4000F8E50AC3984003022CD090038CE0C394AB
:102C500016507DE50AC333F8E433F9E50C28FEE5A8
:102C60000D39FF851882851983AC82AD838E828FE2
:102C7000831230701205FA8A108B11AC10AD11EC72
:102C80004D7005750B018043E4F510F511781012B5
:102C9000197F751075751103781012197F751076EC
:102CA000751103781012197F7406121760121996A5
:102CB000791685088285098312307012071474080A
:102CC00012172BE9F50B7003022BEA1232BF8010AA
:102CD0007C8C7D0385088285098312307012027016
:102CE000A90B74020231C0E99400C365D03322EA13
:102CF00028F8E43400F9E822E0F5107511007810A6
:102D00002274EA12176C74FC1217158A0C8B0D8C46
:102D1000128D13EA2405F50AEB1232BA7508007514
:102D20000900E50A2402F510E50B3400F5117402E0
:102D300012176085820E85830F780E12197F850A1F
:102D400082850B83A3A3A3A312382912197FE50A56
:102D50002405F50EE50B3400F50F780E12197F856A
:102D600010828511831231B812306A1205F474068C
:102D700012172B8A0E8B0FAE0EAF0FE50C2402F547
:102D80000EE50D3400F50F80408882898374FFF0D2
:102D90000508122F3274FFF00508900375E0F50C5A
:102DA000750D00780C12197F7C767D0385080C74F4
:102DB0008E250CFA74033400FB120F847402121770
:102DC0002B900375E02508F508EE4F60718E828F19
:102DD00083A3A3A3E0F9850E82850F8312307012BE
:102DE00005E2E9F509EE24041227D3E97044E4F57D
:102DF00014F515781412197F751475751503781468
:102E000012197F751476751503781412197F7408DA
:102E10001217601219967911EEFCEFFD850E82856E
:102E20000F83123070120714740812172BE9F5097A
:102E30006027850C82850D83122F421232CCE50863
:102E40007003022F0C122F4C850E82850F831230D7
:102E5000701202767900022F21850882AA82EA90F8
:102E600003757009E0240490038DF08022E0F8904F
:102E7000038DE0F514E82404FCE43400FDEC651453
:102E80007001ED70C0122CEF9412122CE750B68531
:102E90000C82850D83E0C0E0122F26D0E0F00508FB
:102EA000850C82850D83A3E0C0E0122F32D0E012A2
:102EB0002F5E85820C85830D780C12197F740412A5
:102EC0001760121996851082851183123B391206FC
:102ED00000740412172B8A0C8B0DAE0CAF0D8508F5
:102EE0000C748E250CF874033400F9EE4F70030255
:102EF0002D89851882851983E088828983122F5E47
:102F0000A3E0C0E0122F32D0E0022D97E509700354
:102F100075090A850A82850B83122F421232CCA9C9
:102F2000097404022BA7748E2AF58274033400F509
:102F3000832285080C748E250CF58274033400F509
:102F40008322123B288512828513832290038DE011
:102F5000F5F0E5088490038CF07C8C7D0322F0056D
:102F6000088518828519832274EC12176C74FE127E
:102F700017158A088B098C0E8D0FEA2405FEEB3499
:102F800000FF851882851983AC82AD838E828F8382
:102F90001230701205FA8A0A8B0BEE24181227D30E
:102FA000EA450B70030230351231A0503285188289
:102FB0008519831230701207088A108B11EA4511A7
:102FC000606E7912AC0AAD0B8508828509831230D8
:102FD0007085108285118312176AE9F50A705BE427
:102FE000F50AF50B780A12197F8E828F83A3A3E06E
:102FF000F50A780A12197FEE24031232B7780A1202
:10300000197F8E828F8312305A12307012071A7411
:103010000612172BE9F50A7021850C82850D83E0D5
:10302000701F85088285098312307012027C80111E
:10303000750A0E8009750A018004E50A60031232E0
:10304000BF850C82850D83E0600479008002A90AA7
:10305000740212172B7F0C02183EE0FCA3E0FD85E2
:103060000882850983227C8C7D03850A82850B83F7
:10307000E0FAA3E0FB2274EE12176C74FE1217152F
:103080008A088B098C0C8D0DEA2405FEEB3400FFB9
:10309000750E00851882851983AC82AD838E828F70
:1030A000831230701205FA8A0A8B0BEA450B700303
:1030B00002318C1231A05035851882851983123067
:1030C000701207088A0E8B0FEA450F605E7912AC0A
:1030D0000AAD0B850882850983123070850E8285C2
:1030E0000F8312176AE9F50E600302318F8508829B
:1030F0008509831233C9AA0AFB1206FC8A108B11B8
:10310000A810A911E849701E7AFF7BFF1206FC8AFD
:10311000108B11A810A911E849606C88828983E599
:103120000AF0A3E50BF0750A008007750E0E805FAC
:10313000050A900372E0FAE50AC39A504AE50A7557
:10314000F017A4FAABF088828983A3A3E02AFAA33C
:10315000E03BFB8A828B831231B8EC4D70D2750A4A
:1031600017750B00780A12197FEEFCEFFD120F8421
:10317000740212172BEEFCEFFD850882850983127D
:1031800030701202828014750E098003750E0112D0
:103190003B20850C82850D831232CCA90E022CE2D5
:1031A000E5082402F508E5093400F5098A828B83D5
:1031B000A3A3A3E0A2E522A3E0FCA3E0FD22740404
:1031C00012172B7F0A02183E74EC12176C8C108DAC
:1031D00011EA2405F50CEB1227D6750F00EA24023C
:1031E000F50AEB1232BA850A82F5831230701206A4
:1031F000FC8A088B09EA450970030232AC750E009F
:103200008071850C82850D83E06401704F8E828F02
:1032100083A3A31219968E828F83A3A3A3A3E0F5A1
:1032200012751300781212197FEE2405F512EF348F
:1032300000F513781212197F12306A12071A7406F9
:1032400012172BE9F50F6014850C82850D83E4F0CD
:10325000123B208510828511831232CC7C177D00B1
:103260007900EEFAEFFB120F9C8E828F83E4F0A3BD
:10327000F0050E900372E0F8E50EC398501FE50EBE
:1032800075F017A4F8A9F0850882850983A3A31215
:103290003B4DFCA3E0FDEC4D600302320285088249
:1032A00085098374FFF0A3F0E50F700612306A12EF
:1032B0000288A90F023055F50AEF3400F50B228E73
:1032C000828F83123B28850E82850F83E8F0A3E965
:1032D000F02274F612176C7C008C087509007402D9
:1032E00078081217021233046A7003A3E06B7006A9
:1032F000E8FAE9FB800B0CECC3940340DC7A007B1A
:103300000002397774662508F874033509F9888254
:103310008983E02274F712176C7F00EF75F003A425
:10332000F8A9F0EC28F8ED39F988828983E06A7011
:1033300003A3E06B7006E8FAE9FB800B0FEFC39480
:103340000440D87A007B007F0102183E74F6121701
:103350006C1206C68A828B83E582458370067A00EA
:103360007B008007A3A3A3A312307002397774F205
:1033700012176CE9FE740E1217601233C974101222
:1033800017601238448C828D83E064027036A31279
:103390003B2EF50CA3E0F9A80C74026870037429A5
:1033A000697021750C02750D00780C12197F780870
:1033B00012197F780A12197FEEF912073E7406126D
:1033C000172B80027901023A55E0F50AA3E0F50BCC
:1033D0002274E812176C74FB121715E985188285A0
:1033E0001983F08A168B17ECFEEDFF751000741D23
:1033F000121760123B24741D1217601232CC8E8299
:103400008F83A3A3A3E0A2E4502D741D12176012B2
:1034100030701207088A828B83E58245837003022D
:103420003813790AEEFCEFFDAA16AB1712176AE9FA
:10343000F5106003023816741F12176012384474B6
:10344000211217601233C97423121760E0F50EA31E
:10345000E0F50F8E828F83E0640260030237C1A320
:10346000123B24850882850983A3858212858313F4
:10347000EE24061227D388828983E0FAA3E0F9EAD2
:103480002400F514E439F5157814121A0901000026
:10349000280128B534070002287A350328E73400CC
:1034A00029B1360129DC3602297D360329B13604DB
:1034B000295B37C137E50E450F60030237BC850C29
:1034C00082850D8312385CFAE9FB8A828B83E08562
:1034D0000A82850B8312387012197F8A828B83A32C
:1034E000E0FCA3E0023745E50E450F60030237BC60
:1034F000850A82850B837401F012384C8508828519
:103500000983F07C007D008E828F83A3A3A3A3E0B8
:103510002401FAA3E03400FB1205FAEA4B60418A69
:10352000828B83E02402F8850A82850B83E028F0F1
:10353000EA2404F8EB3400F988828983E08512825A
:1035400085138312388212387012197F8A828B8316
:103550001231B7E5082403FAE5093400FB02374AC3
:10356000850A82850B83E02404F07C047D007900C9
:10357000AA12AB13120F9C023816E50E450F60031A
:103580000237BC12384CFEA3E0FF850A82850B830C
:103590007404F0EE850882850983F0EF8512828538
:1035A0001383F07403121760AC82AD83EEFAEFFB65
:1035B0001205FA8A0C8B0DEA450D700302365E8AFD
:1035C000828B83A3A3122480740112176085820E5C
:1035D00085830F780E12197F7405121760121996E1
:1035E0007CFF7DFF120600740412172B8B0FEA4537
:1035F0000F7033850C82850D8312382912197F854F
:103600000C82850D83A31219967C027D007AE57BDE
:1036100090120378740412172BE9700A74011217C0
:103620006074FFF0A3F08E828F83E06402703975BE
:103630000C02750D00780C12197F8E828F83123167
:10364000B7E5082404FAE5093400FB120F8474027C
:1036500012172B850A82850B83E0240280097401EE
:10366000121760EEF0A3EFF0740112176012383AEF
:10367000F07401121760A31238320237B6E50E4516
:103680000F60030237BC850C82850D831231B8AA06
:1036900016AB17120732850A82850B837402F0EA93
:1036A000850882850983F0851282851383EB0237B2
:1036B000B9E50E450F60030237BC12384CF8A3E0A1
:1036C000F9850A82850B837402F0E88508828509F2
:1036D00083F0E98512828513830237B9850C8285D0
:1036E0000D83123070120F7EEAFC8C82A882C39583
:1036F0000EE4950F405FE8650E7002E50F70047CE4
:10370000008022851882851983E0FAE50E2AFAE501
:103710000F3400FBC3EA98EB94005003E08005E50A
:103720000ECCC39CFCEC850A82850B83F08C0A7559
:103730000B00780A12197F850C82850D83E0250E17
:10374000FCA3E0350FFDAA08AB09120F8474021226
:10375000172B023816751007023816E50E450F7044
:103760005B850C82850D83123B24850A82850B8341
:103770007407F088828983123832123822E0851269
:1037800082851383F0E82402FAE93400FB8A828BF5
:103790008312383212386112383AA312386A12385A
:1037A0003EF0E82405F8E93400F98882898312386C
:1037B0003EA3123882A3A3A3A3F0805A75100B80F6
:1037C00055741D1217601230701206C68A828B83E0
:1037D000E5824583603D123B24880C890DE8450D48
:1037E0006031780E12197F780A12197F7808121941
:1037F0007F7406121760E0F9EEFCEFFDAA16AB1716
:10380000850C82850D8312176A740612172BE9F551
:1038100010800375100EA910740512172B7F10026B
:10382000183EF088828983A322E0F50E750F007898
:103830000E22E085088285098322123889221238F7
:1038400089A3A322E0F508A3E0F50922850C82856F
:103850000D83E0F8A3E0F5838882E022123B28E89C
:1038600022A3A3F08A828B83A32212238AA3A322FA
:10387000F08A828B8312387922E0F50A750B007882
:103880000A2212382212388922E0850882850983AB
:10389000A3A32274EE12176C74FE1217158A0A8BFA
:1038A0000BECFAEDFB7414121760E0F510A3E0F5D1
:1038B000117416121760E0FE7418121760E0F50E0E
:1038C000A3E0F50F851882851983AC82AD831205BC
:1038D000FA8A0C8B0DEA450D60498518828519839B
:1038E0001230701206C68A828B83E5824583602F70
:1038F000A3A3123844E50845096024780E12197F05
:10390000781012197FEEF9AC0CAD0DAA0AAB0B853D
:10391000088285098312176A740412172B800679AE
:103920000E80027901022CE274F612176C74FE12FA
:103930001715740C12176012385C8518828519836C
:10394000F07401121760E9F0E4F508F5097808123F
:10395000197F750802780812197F740412176085A0
:103960008208858309780812197F12071A740612D3
:10397000172B740212172B7F0202183E74F71217CE
:103980006CEAFEEBFF89087CA57D03120732EA543E
:1039900002600BA908EEFAEFFB1205EE8002790136
:1039A00002334774F612176C74FF6A700374FF6B6E
:1039B000701B7B00EB75F003A4F8A9F0EC28F8ED80
:1039C0003912237B0BEBC39404501480E7120702D7
:1039D0008A088B09A808A909E849600312237C809A
:1039E0009674F612176C1207028A828B83E5824561
:1039F000836006A3A3E0FA80027A007B0002397795
:103A000074F212176C8A088B09ECFEEDFF740E122B
:103A10001760E0F50A1207028A0C8B0DA80CA90D9D
:103A2000E8497026EEFCEFFD7AFF7BFF1207028A61
:103A30000C8B0DA80CA90DE849700479118016882B
:103A4000828983E508F0A3E509F088828983A3A32E
:103A5000E50AF079007F0602183E74EE12176CEA50
:103A6000FEEBFF8C088D09890C7414121760123B51
:103A7000247416121760123070750D00E849600347
:103A8000023B187402650C6003023B137412121798
:103A900060123B2EFCA3E0F9EC2400F50EE439F5AE
:103AA0000FEAF4F8EBF4F9EC58F8E50F59F9E849A6
:103AB000705CE5082406F8ED3400F9880A890B8863
:103AC00082F583123B391207328A108B11E50E659D
:103AD000107004E50F65116042780E12197F850A97
:103AE00082850B83123B39120738740212172BE9B7
:103AF000F50D7027780E12197F850882850983A33A
:103B0000A3123B3712074A740212172B800D750D52
:103B1000808008750D0D8003750D0BA90D0231C352
:103B20008E828F83123B2822E0F8A3E0F922123B19
:103B30002888828983E022A3A3E0FCA3E0FDEEFABB
:103B4000EFFB223400F50D850C82F58322E028FE80
:103B5000A3E039FF8E828F83E02274F212176CEAA1
:103B6000FEEBFF890B7401650B600E7402650B7030
:103B70006B7901120900E97063EEFAEFFB1206FCA3
:103B80008A088B09EA45096048750A00800B7C1792
:103B90007D007900120F9C050A900372E0F8E50A97
:103BA000C3985022E50A75F017A4F8A9F085088299
:103BB000850983A3A3E028FAA3E039FB8A828B83DB
:103BC00012385C4970C885088285098374FFF0A3A8
:103BD000F07CA57D03EEFAEFFB12072C023A557438
:103BE000F212176C8A088B09ECFEEDFF740E1217A7
:103BF000601233C9901180E0F4603D7A097B0012B5
:103C00000FAEEA4B60328A828B8374B1F0A3E41268
:103C10003863A3123861A3E508F0A3E509123C3B21
:103C2000EEF0A3EF123C3BA3A3E50AF0A3E50BF0F3
:103C3000901180E0F9120FBA023A55F08A828B8314
:103C4000A3A3A3A3A322C082C0839061907404F0B5
:103C5000A37448F0A3E4F09061807440F09061BCDC
:103C60007407F09061877469F09061B67416F0790A
:103C700000120A087902120A0E902314E493F460E9
:103C800006E493F91209E47905120D68024067C051
:103C900082C083E9540FF9906185E0696012E5C63E
:103CA00054804449F5C6E59E547F644970F8E9F0B4
:103CB00053C680E59E547F70FA02406774F712176E
:103CC0006CE5A8FE53A87E1209F0C2BA539AFEC250
:103CD00089759B00C2C21209F675A91175B9051242
:103CE00009FCD2BA439A0174805E42A8024F8BC08D
:103CF00082C083906181E4F0A3F0A3F00240677575
:103D0000E90075910075BF00020122C082C0839056
:103D10006181E4F0A374C0F0A3E480DFC082C083BB
:103D200074F812171590047B1253DA7003023DFBEE
:103D300090047BE0544060237908851882851983BC
:103D4000AA82AB83120B1C851882851983AA82ABC9
:103D5000831207BC90047BE054BFF0E054806010F5
:103D6000790C7A1B7B08120B1C90047BE0547FF0CB
:103D7000E0A2E0500F7900120A081207C290047BFB
:103D8000E054FEF0E05402600F7901120A081207B5
:103D9000C290047BE054FDF0E05404600F790012FF
:103DA0000A0E1207C890047BE054FBF0E054086050
:103DB0000F7901120A0E1207C890047BE054F7F045
:103DC000E05410600F7902120A0E1207C890047BAB
:103DD000E054EFF0E05420600F7903120A0E12074E
:103DE000C890047BE054DFF0A3E05401600D120A98
:103DF0001A1207CE90047CE054FEF0740812172BC0
:103E0000024067C082C083E9600514602A804F9039
:103E1000619A7433F0A37455F09061A0743AF090F5
:103E200007F5E064017009C29190047D7467802DEC
:103E300090047D7461802690619A743FF0A3745A57
:103E4000F09061A0747FF09007F5E064017009D2F2
:103E50009190047D7471800590047D746AF0024035
:103E600067C082C083E9600B14600D146017146092
:103E70000C8020902318801590231980109007F54E
:103E8000E06401700590231A800390231BE4939053
:103E90006186F002406774EE12176C74F412171505
:103EA000851882851983AC82AD83758390758255A0
:103EB000740412162890231893F46003023FC090F4
:103EC0007808E0C394025003023FA0740412176004
:103ED000AC82AD837583907582207408121628FC1D
:103EE0007EFF7FFF8E0C7D008C8285820E800F749A
:103EF000086D606D74096D6068740A6D60638D088B
:103F000075090074027808121702123FCA1215E5EB
:103F1000A909E50AC9F8881074187808121500E58F
:103F2000104508FAE9FBE50EC333F8E433F97404ED
:103F3000121760E58228F582E583391246BCC3E892
:103F40009AE99B4008E8C39AF8E99B8006EAC3987F
:103F5000F8EB99F9C3E89EE99F5006E8FEE9FF8D6A
:103F60000C0DEDC39413408774FF6E700374FF6FE4
:103F70006024850C0874027808121702123FCA12D6
:103F800015E5851882851983E582250EF582E5837E
:103F9000124AD5E508F00CECC394045003023EE04D
:103FA000750801750900780812197F7402121760EC
:103FB000AC82AD837AC67B081211E8740212172B0B
:103FC000740C12172B7F0A02183E74482508F582DC
:103FD00074783509F583780822C082C083906186A1
:103FE000E0F890231BE49368700990231AE49390FF
:103FF0006186F09061AE7468F0A3746AF0906245D7
:1040000074FBF0A304F053F4FD43FE029007F57433
:1040100001F09061A0E0643A7004790080027901B7
:10402000120A080240677F0402183EC082C08390D3
:1040300007D3E0640170139007D9E0F87401686059
:1040400019E87006A3E0640160109007EAE06401DB
:10405000700C9007F0E064017004790C8002790024
:104060008005E0F9122220D083D08202012212477B
:1040700062940622E0C4333354C022C082C08390CD
:1040800007DD7425F09007DB7401F0A3E4F07A01FA
:10409000FB120CE41240C72416F582E8124AD574CC
:1040A0003EF0A3740AF09007DAE0640170169007FE
:1040B000D9E070107901120D44120D14120D3E79E1
:1040C00000120D500240679007C912444B2274F64B
:1040D00012176C74FA1217159007D2E06401700879
:1040E000120A269007D2E4F075E1F11240C72415B8
:1040F000F582E8124AD57401F09007D4E0640170AB
:104100005390904FC082851882851983AC82AD830D
:10411000758390D082740612162875D90D9007CB3E
:104120001240744403F5D97800880874CC125064A6
:10413000740712406E40F27800880885188285194D
:1041400083E582125064E58312406E40EC75E19580
:10415000790180027900120CEA9011A21241C47414
:10416000C4F0A3740BF0A31241C41241C41243184B
:1041700074CAF0A3740B12432D9007CBE0F97ACCEC
:104180007B07120CC69007DDE0F91222207901129C
:104190000CF0909059121603120D089090A9121667
:1041A00003120CD27900120D5C1240C72414F58260
:1041B000E8124AD57416F09004797405F0041217C9
:1041C0002B0247CC74BEF0A3740BF0A32274F4123C
:1041D000176C8908A808124ED09007E2E0F97AE33C
:1041E0007B07120CC69007F0E0701A7900120D26BA
:1041F0009007B8E070047900800279017AB97B07F2
:10420000120CCC80057901120D2675E1F175D923C8
:104210009007E21240744405F5D97800880A74E3E7
:10422000250AF582740712406E40F175D90075D9E0
:104230000075D90075D90075D90075D9007A0012BA
:104240005326242212467B40F67A00125326242657
:10425000F582E91247D40AEAC3940340EEEE242B18
:104260001247D17A00125326242C12468140F67A46
:1042700000125326242E12468140F67A001253264D
:10428000243012468140F67A001253262432124618
:104290008140F67A008A0AEE250AF8EF124BED12F9
:1042A000468D940540EFEE2437F582EF124E2454EC
:1042B0001FF8EE242AF582EF124E24C43354E0484E
:1042C000F5D975E1959011A2748EF0A3740BF0A34B
:1042D0007494F0A3740B12430F749AF0A3740B122E
:1042E000432D9007EFE0F912222090905912160307
:1042F000120D089090A9121603120CD290600DE4D2
:10430000F07901120D5C9004797406F0024026F0F9
:10431000A31243181243182212431C227488F0A3DC
:10432000740BF0A37488F0A3740BF0A32212433132
:1043300022F09011B012433DA312433D2212431CC0
:104340007488F0A3740BF02274EC12176C9007E0E1
:10435000124EE778101215E59007F1E0FAF875F0C3
:1043600005A4C8ACF02CF974D728F582740439F58B
:1043700083E0FEA3E0FFEEC333FEEF33FF8E0CF5C8
:104380000D750E00750F0085100885110985120A3C
:1043900085130B909071780812154B780812197BD1
:1043A00085100885110985120A85130B7808790C88
:1043B0001215387810790C121490E4F50EF50F7878
:1043C00008790C1215718A0C750D007403780C12A3
:1043D00017027808790C1215389090657808121534
:1043E000ACAA08AB09AC0AAD0B1221B874041217C1
:1043F0002B8A088B09A808A909C3EE98EF995006E3
:10440000E82EF8E93FF9E890600EF0E9A3F0EEA39A
:10441000F0EFA3F090600D74C1F07F0C02183EC065
:1044200082C0839007C912443F9007DD024062C0FA
:1044300082C0839007E012443F9007EF024062126F
:10444000444B2406F582E812486D22E0F8A3E0C848
:104450002202012274F212176C1245BEF50AEF1205
:10446000494B6004780480027800E8240EF8EAC31F
:1044700098500302451B75080C9007FBE4F0EE24EE
:1044800076F582EF124E249007FCF07902EE247745
:10449000FCEF3400FD7AFD7B07120B0A7902EE2453
:1044A00079FCEF3400FD120B0A7902EE247BFCEF5D
:1044B0003400FD120B0A7902EE247DFCEF3400FD7E
:1044C000120B0AEE24741245D4120B0A850A828557
:1044D0000B83E0601E7508FB750907780812197FC9
:1044E0007C0C7903EEFAEFFB120B7C740212172B93
:1044F00075081074012508F5D975D903780080096D
:10450000880A74FB250A1245B3E8C3950840F17583
:10451000E1957904120D0E7901800279007F06027F
:10452000183E74F212176C1245BEF508EF3400F510
:1045300009850882F583E06004780480027800E849
:10454000240AF8EAC3984060750A089007FB7401D2
:10455000F079057CBF7D077AFC7B07120B0AEE24FD
:10456000801245D4120B0A850882850983E0601EFB
:104570007508FB750907780812197F7C087903EE26
:10458000FAEFFB120B7C740212172B750A0C1248FF
:104590004A80031245ADE8C3950A40F775E1957965
:1045A00004120D0E79018002790002451D880874FD
:1045B000FB2508F5827407124E28F5D9082212450A
:1045C000C222EAFEEBFF9061D0E0F87480C398FA53
:1045D000EE248222FCEF3400FD8E828F83A3A3A3FE
:1045E000A3A31253E98C828D83E028F0A3E039F075
:1045F00079022274F612176CEAFEEBFF9061D0E0AC
:10460000707475D91875D90375D9037A008A08EEC4
:10461000250812532B249B12469440F17A008A08F5
:10462000EE250812532B24A312468140F17A008A0A
:1046300008EE250812532B249312469440F17A0079
:104640008A08EE250812532B248712467B40F17509
:10465000E1957908EE2493FAEF3400FB120B107900
:1046600004EE2487FAEF3400FB120B107904120DCC
:104670000E12469D800279000247CC1246879404B0
:1046800022124687940222F582E9124F80E0F5D982
:104690000AEAC32212468794082275E195EE246F38
:1046A000F582EF124F7C1253E9EE2471F582EF127E
:1046B0004F7CE8F0A3E9F07901223400F58312532E
:1046C000E92274F612176CEAFEEBFF9007FB740602
:1046D00012476C12197F7C017903120B7C74021251
:1046E000172B75D90675D903780012475240FB7510
:1046F000E195900479E064087017EE246FF582EF7D
:104700001246BAEE2471F582EF124AD5E8F0A3E919
:10471000F079010247CC74F612176CEAFEEBFF90B9
:1047200061D0E070299007FB740A12476C12197F60
:104730007C017903120B7C740212172B75D9067554
:10474000D903780012475240FB12469A8002790042
:10475000807A880874FB2508F582740712476294F2
:104760000522124F80E0F5D908E8C322F07508FB56
:1047700075090778082274F612176CEAFEEBFF90B1
:1047800061D0E0704279019007FB740BF0900479DE
:10479000E0640770197508FB750907780812197F1E
:1047A0007C010909120B7C740212172B7905740124
:1047B00029F5D975D903780080031245ADE8C3996E
:1047C00040F812469A800279008001F07F020218B8
:1047D0003EF582EF124E28F5D92274F512176C12AD
:1047E00048756004780480027800E8240BF8EAC376
:1047F000984052750A099007FB7408F0F912485660
:10480000120B0A850882850983E0601E7508FB7516
:104810000907780812197F7C097903EEFAEFFB1279
:104820000B7C740212172B750A0D12484A80031272
:1048300045ADE8C3950A40F775E1957904120D0E70
:1048400012469D80027900024ACB7401250AF5D9EF
:1048500075D903780022EE24E4FCEF3400FD7AFCE5
:104860007B0722EE241DF582EF12486D22124F8045
:10487000E4F0A3F0221245C2F8EF12487E22340081
:10488000F9880889098882F583E02274F312176C8D
:104890008A088B091249E1FAE5082482F50AEB122D
:1048A000494B6004780480027800E82408F8EAC3E1
:1048B000985003024944750C069007FB740CF09065
:1048C0000496E09007FCF07402C0E0F97C977D0448
:1048D0007AFD7B07120B0AD0E0F97C997D04120B5C
:1048E0000A850A82850B83E0601E750AFB750B073B
:1048F000780A12197F7C067903AA08AB09120B7C8F
:10490000740212172B750C0A7401250CF5D975D990
:104910000378008009880A74FB250A1245B3E8C3AE
:10492000950C40F175E1957904120D0EE508246FA0
:10493000F582E5091246BAE5082471F582E5091207
:1049400046AF800279007F0502183E3400F50B85E2
:104950000A82F583E02274F612176CEAFEEBFF126E
:1049600049E1FCEE2482F8EF124A6460047A048084
:10497000027A00EA2404FAECC39A40607A029007B3
:10498000FBEAF0EE24F6F582EF1249EB601B7508A6
:10499000FB750907780812197F7C027903EEFA1279
:1049A0000B7C740212172B7A0674012AF5D975D97B
:1049B00003780080031245ADE8C39A40F875E1958D
:1049C000EE2473125069EE247F1250691248637905
:1049D00004120D0EEE240D1246A08002790002474B
:1049E000CC9061D0E0F87480C39822124E289007D2
:1049F000FCF088828983E02274F612176C1249E178
:104A0000FEEA2482F8EB124A6460047C0480027C93
:104A100000EC2404FCEEC39C40457C029007FB7430
:104A200007F0EA24F7F582EB1249EB60177508FBF3
:104A3000750907780812197F7903120B7C7402122A
:104A4000172B7C0674012CF5D975D90378008003E7
:104A50001245ADE8C39C40F875E195790180027973
:104A6000000247CC3400F988828983E02274F51271
:104A7000176CE9FEA2AFE433F50AC2AF7F00EA2467
:104A80006EF8EB3400F980010F88828983E0F50825
:104A9000EFC3950850188F08EA2508FCEB3400FD99
:104AA000EC246AF582ED124E246E70DC8017EA2544
:104AB00008FAEB3400FBEA246AF582EB124AD5EEE1
:104AC0001249F104F0E50AA2E092AF7F0302183E1A
:104AD000246AF582E9124F7C2274F612176CA2AF99
:104AE000E433FFC2AFEA246EF8EB125118E014F081
:104AF0007E0080198E08EA2508F8EB12532D246BEE
:104B0000124E21C0E0E8124AD0D0E0F00E8C828D27
:104B100083E0F8EEC39840DCEA246DF582EB124A9C
:104B2000D574FF124B4EEFA2E092AF0247CCC08289
:104B3000C083E5A8F8C2AFEA246AF582EB124AD531
:104B4000E9124B4EE8A2E7A2E792AF024067F0EA13
:104B50002469124B5622F582EB124F80E4F0227446
:104B6000F212176C8C828D83A3A3A3A3E0541FF0D1
:104B7000EA243612510E8E828F83E4F0F50C850CF8
:104B80008285820AEC250AF8ED12487EC0E0EA250B
:104B90000AF8EB124BEDD0E0F0750D008508828528
:104BA0000983E0F50A750B00E50D780A1216E3E5B6
:104BB0000AA2E05023E50C33333354F8250DC0E04E
:104BC0008E828F83E0F8124DC12438124AD2D0E091
:104BD000F08E828F83E004F0050DE50DC39408404C
:104BE000BB050CE50CC39405409402451D3400F947
:104BF000E8245DF582E9124F7C2274F412176C9060
:104C000004A5E064037003024DA77E00EEF875F082
:104C100005A4C8AAF02AF974AB28F582740439F502
:104C200083E06003024D9D74A928FA740439FB8A5D
:104C3000828B83A3A37401125380A3A3A3E4F0EA9D
:104C40002404F8EB12532DFCE9FDEE8C828D83F0E9
:104C5000EA2462124DAE2467F582EB124AD5740144
:104C6000124DD3E4F0A3124DD3A3A3124DCE240FC3
:104C7000124DAE2435F582EB12506CF508F509F5AE
:104C80000AF50BEA2418124DB61215F4EA241C1288
:104C90004DBC241D124DCA247F124DBC2473124DED
:104CA000BC2468F582EB124AD57480124B4EEA247C
:104CB0006E124DBC24EC124DBC24ED124DBC24EE02
:104CC000124DBC24EF124DBC24F0124DCA24F21236
:104CD0004DCA24F5124DBC2482124DBC24D2124D73
:104CE000BC24D3124DBC24D4124DB61215F4EA24C0
:104CF000D8124DB61215F4EA24DE124DBC24E0128F
:104D00004DBC24DC124DBC24E1124DBC24E2124DFA
:104D1000BC24F8124DCA24FA124DCA24FC124DCA02
:104D200024FEF582EB124869FE8E08EA2508F8EBAE
:104D300012532D124AD074FFF00EEEC3940440E9D2
:104D40007E008E82A88274BF28F5827407124E24DA
:104D5000C0E0124DC1245D124AD2D0E0F00EEEC385
:104D6000940540DE7E008E82A882748D28F58274C0
:104D700004124E24C0E0124DC124E4124AD2D0E005
:104D8000F00EEEC3940840DE9004A5E004F0640148
:104D900070198C828D83E09004A7F0800E0EEEC314
:104DA00094035003024C0C7A007B00024026124F01
:104DB000797401F0EA22124F79780822124B56EAF0
:104DC00022EA28F8EB3400F9E822124F79E4F0A344
:104DD000F0EA22F08A828B83A3A3A3A3A322C0823A
:104DE000C083EA2403F582EB124E246008E4F090BD
:104DF00004A6E014F09004A5E014F070069004A757
:104E000074FFF08A828B83A3A3E4F09007C4E07060
:104E10000D9004A6E0640170057900120CD80240E0
:104E200067F582E9124E2822124F80E022C082C02C
:104E3000837B00EBF875F005A4C8AAF02AF974A5E5
:104E400028F87404125038A3A3A3A3E4F08882893D
:104E500083A3A3A3A3A3A3F00BEBC3940340D49019
:104E600004A5E4F0A3F0A374FFF075E1F10240673C
:104E700074F512176C750800750900750A00A80A08
:104E8000124ED08E828F83A3A3A3E0602BE508454A
:104E900009601D850882850983124EE71219921256
:104EA0004EE312160312215C740412172BE97008EA
:104EB000EEF8EFF988088909050AE50AC39403406A
:104EC000BD850882850983A3A3A3A3E0F9024ACB89
:104ED000E875F005A4C8AAF02AF974A928FE74049C
:104EE00039FF228E828F83E0F8A3E0F5838882A3C6
:104EF000A32274F712176C78FF79FF7F00EFFC751F
:104F0000F005A4CCAEF02EFD74A92CFC74043DFD7C
:104F10008C828D83A3A3A3E0603EEC2473F582ED25
:104F2000124E24FE74FF68700374FF6970077401E9
:104F30006E701C800D74016E700DEC2479124F6C34
:104F40005016EC2479800BEC242E124F6C5009EC97
:104F5000242EF582ED1246BA0FEFC39403409EC390
:104F6000EA98EB994004E8FAE9FB801FF582ED121C
:104F70004F7CC3E098A3E09922F582EB124F802288
:104F80003400F58322A2E092AF79007F0102183E3F
:104F900074F612176CEAFEEBFFEE2463F508EF34AB
:104FA00000F5098016AA08AB09120AFE1212D29067
:104FB00007C5E004F09007C6E004F0850882850983
:104FC000831253DA70DFEEFAEFFB120AAAEEFAEF61
:104FD000FB120C060247CC74F712176CEAFEEBFFCB
:104FE0008E828F83A3A3A3A3E0FA7B00120816EEA0
:104FF000FAEFFB120AC2120BE88090C082C0837BDA
:1050000000EBF875F005A4C8AAF02AF974A928F8ED
:105010007404125038E06014E8246E124E21600CC3
:10502000E8246A124E217004790180090BEBC394C5
:105030000340CE790002406739F988828983A3A3AF
:10504000A32274F612176C78008808748D125064CD
:10505000740412506C08E8C3940840ED90048D74F9
:10506000010247CB2508F58222F582EF124B592227
:1050700074F712176C74FC12171585188285198342
:10508000E4F0A3F0A3F0A3F0120B16E985188285D3
:105090001983F0120B167401121760E9F0120B1647
:1050A0007402121760E9F0851882851983121603BD
:1050B000740412172B024F8B74F612176CEA240D2E
:1050C00012510EEC2403F8ED3400F988088909EC3C
:1050D0002407F8ED1251181246BE8508828509830F
:1050E000E0FAA3E0FB12168A8E828F83E8F0A3E930
:1050F0001253E0850882850983E0FAA3E0FB1216CB
:105100008A8B09EA450960031251240247CCF8EB67
:105110003400F9E8FEE9FF223400F9E8FCE9FD8CEF
:10512000828D83228E828F83E02401F0A3E03400FD
:10513000F02274F612176CEA242EF582EB124E243C
:10514000FCA3E0FDEA246F12510E780079FAECFA24
:10515000EDFB12168A8E828F83E8F0A3E9F07800C7
:1051600079FAECFAEDFB12168A8B09EA450960031D
:105170001251240247CC74F012176CEAFEEBFF7454
:105180001012176078081215E5120C9C8A0C8B0D12
:105190008C0E8D0F9090A5780C12154B9090657821
:1051A0000C1215AC780C12197B124EE31216031276
:1051B000215C740412172BE9600302525E8E828F09
:1051C00083E02402F8A3E012532DFAE9FB8A828BD4
:1051D00083780812155E90906578081215E58A822A
:1051E0008B8378081215BFEE240BF582EF124AD597
:1051F000C082C0838E828F83A3A3A3A3A3E02401D4
:10520000F8A3E03400F9D083D082E0687003A3E013
:1052100069700479018049EE2407F8EF3400F988B9
:10522000828983125128EE24731252657014EE2481
:105230007412526E7003A3E06D70078A828B831222
:105240005128EE247F1252657014EE248012526EA3
:105250007003A3E06D70078A828B83125128790056
:105260007F0802183EF582EF124E28640122FAEF01
:105270003400FB8A828B83E0FCA3E0FD8882898373
:10528000E06C2274F312176CE9FEECFFEA2462F57D
:1052900082EB12526860030253219061D0E0F5085E
:1052A000EA2482F582EB124E24F50C600478048027
:1052B0000278007480C39508FC95E0FDEF28F8E4BF
:1052C00012532D2402F8E93400F9EC98ED99A2D29A
:1052D00065D0334048740D121760E0F50AA3E0F57D
:1052E0000BE50C6015780A12197FEFFCEEF9120B32
:1052F0007C740212172B74042FFF74012FF5D98EC2
:10530000D97800800C8808E50A125064E50B124534
:10531000B7E8C39F40EF75E1957900800679078073
:105320000279FF0249468A0AEE250AF8EF3400F9AD
:10533000E82274F712176CA2AFE433F508C2AFEAA3
:105340002402F8EB3400F98A828B83E0FEA3E0FFAD
:10535000EE4F600E88828983E0FAA3E0F5838A82AB
:1053600080048A828B83ECF0A3EDF088828983121B
:105370005386F0E508024F858C828D83E8F0A3E91F
:10538000F08A828B8322ECF0A3EDF08C828D83E493
:10539000F0A32274F712176CEAFCEBFD7A007B0095
:1053A000A2AFE433FEC2AF8C828D831253DA602247
:1053B000E8FAE9FB8A828B831246BE125378E4F046
:1053C000A31253E0E849700A8C828D83A3A3E4F012
:1053D000A3F0EEA2E092AF024F8B1253E9E849220C
:1053E000F08C828D831253E922E0F8A3E0F922C009
:1053F00082C083800312541DE9F874FF28190470D9
:10540000F4ECFAEDFB024067C082C08380031254C3
:105410001DE9F874FF28190470F40240678C828D2E
:1054200083E08A828B83F08C828D83A3AC82AD83F0
:105430008A828B83A3AA82AB832274F012176C74C6
:10544000FA121715890BECFEEDFF750A008A088B1E
:105450000978081219C300041084567D549B54B572
:1054600054CD54EB54035526553E5552557C5504A6
:105470005615562C564656845667569255740165F5
:105480000B600302567F8E828F83E0F8C394034043
:105490000302567FE89011C402567C7402650B60CB
:1054A0000302567F8E828F83125E3C9011C5E8F016
:1054B000A3E902567C7401650B600302567F125605
:1054C000B1400302567FE8900DBF02567C7401651F
:1054D0000B600302567F8E828F83E0F8C3940540F1
:1054E0000302567FE8900DC002567C7401650B6084
:1054F0000302567F1256B1400302567FE8900DC159
:1055000002567C7410650B600302567F7508107597
:105510000900780812197F7AC27B0D120F84740279
:1055200012172B0256A57401650B600302567F12F9
:1055300056B1400302567FE8900DD202567C7401AA
:10554000650B600302567F8E828F83E09011C80244
:10555000567C7404650B600302567F8E828F8378BD
:105560000C1215E590906D780C1213F15003025651
:105570007F900DD4780C1215F40256A5E960030251
:10558000567F120510E970051211708060900E6749
:10559000806E7407650B600302567F7508067509F7
:1055A00000780812197F8E828F83A3AC82AD83743A
:1055B00002121760AA82AB83120F8A740212172B91
:1055C0007C007D00851882851983AA82AB838E8238
:1055D0008F83E0F912110AE9F508C3940A40030227
:1055E00056A2120510E9700CA90812117679501212
:1055F0001356806E74682508F582740E3400F583A6
:10560000740180787401650B70751256B15070E8A2
:10561000900DD380677401650B70648E828F83E078
:10562000F8C3940A5059E89011C780507401650B73
:10563000704D8E828F83E0F874F928C3940A503F2E
:10564000E89011C980367401650B7033900E66E0E6
:10565000F88E828F83E0900E66F0E87048E0640177
:105660007043121164803E7401650B70128E828F3C
:1056700083E0F8C394045007E89011CAF0802675BF
:105680000A188021C3EA9427EB9400501574026530
:105690000B700F8E828F8312622C1203F6E9F50ACB
:1056A0008003750A02A90A740612172B7F080218D4
:1056B0003E8E828F83E0F8C394022274F212176C3C
:1056C00074DA121715890AECFEEDFF7420121760C8
:1056D000AC82AD8375839075823774061216287478
:1056E00020121760AC82AD8312110AE9F5087434F8
:1056F000121760E0F50BE9C3940A40030258161232
:10570000114CE9F5099011C4E06402700474018041
:1057100001E4F50C780C121983AD0BAC09A908EE65
:10572000FAEFFB12119A740112172B7C147D007989
:1057300000740C121760AA82AB83120F9C75F006DE
:10574000E508A4F50B740C121760AC82AD837A10D7
:105750007424250BF9121350E9703D7C1079FF7405
:105760000C121760AA82AB83121002E9702A741C13
:10577000121760AC82AD837A047425250BF91213DD
:1057800050740C121760AC82AD83E509A2E0E433DB
:10579000F9EEFAEFFB12048C851882851983AC822E
:1057A000AD837A0C74702508F9121350E970538593
:1057B0001882851983AA82AB83121140750800E50F
:1057C0000875F003A4F8A9F0851882851983E5828D
:1057D00028F8E583126039126226601D8882898369
:1057E000A3A3E0F50C750D00780C12197FEEFAEF0B
:1057F000FB120720740212172B0508E508C3940456
:1058000040BDE509A2E15046900DBEE0F9EEFAEF89
:10581000FB12072680387408650B70329011C4E0C3
:105820006402702A7C007D00A90AEEFAEFFB1211D7
:1058300094126ABB6018125E4188828983E58245B2
:1058400083600B7C007900EEFAEFFB12176A790097
:10585000742602620274F012176CEAFEEBFF8C08E9
:105860008D09750A0AE9600C146009146037146028
:1058700079025904121158E9F50AC3940A40030247
:105880005904E5084509607C750E06750F00780E11
:1058900012197FEEFCEFFDAA08AB09120F84740207
:1058A00012172B805F750B00750E06750F00780EB2
:1058B00012197FEEFCEFFDE50B75F00EA4F8A9F0D0
:1058C00074E028FA740D39FB120F96740212172B2C
:1058D000E9600C850B0AE50AC3940A502780160577
:1058E0000BE50BC3940A501C80BE12115EE9F50A49
:1058F000C3940A500FE50845096009AA08AB09A935
:105900000A121152A90A0256AC74F412176C8908D3
:1059100075091574FF6A700374FF6B70277E00AC05
:10592000087A027B00EEF912112EE9600375090076
:105930000EEEC3940A40E8E50860537A887B1112A2
:105940000912804A1208F48A0A8B0BAE0AAF0BEEDA
:105950004F60387C007D00EE2405FAEF3400FB8EAA
:10596000828F83A3A3A3A3E0F912110AE9C3940AC7
:10597000500CAC087A027B0012112E750900E50864
:10598000600CEEFAEFFB1211888003750914A90967
:105990008005740E12172B7F0402183E74F2121742
:1059A0006CECFEEDFF750815740E121760E0F50A39
:1059B000A3E0F50B74FF6A700374FF6B7021750927
:1059C00000AC0AAD0BEEFAEFFBA909121134E96045
:1059D000037508000509E509C3940A503F80E212E7
:1059E00008F48A828B83E5824583602D7C007D00EC
:1059F000E5822405FAE5833400FBA3A3A3A3E0F921
:105A000012110AE9C3940A5013AC0AAD0BEEFAEF77
:105A1000FB1211347508008003750814A90802628E
:105A200005C082C083900DD8EAF0A3EBF0900DBEC4
:105A3000E0FC7D007A267B001203F6900DBEE0F9B3
:105A40001206A20266FB74EC12176C8A088B09E935
:105A5000FE7414121760780C1215E57F00EE702E9C
:105A6000780812197F90906D78101215E5780C79EE
:105A700010121490AA10AB11AC12AD1312049E7444
:105A80000212172BE9FF60097901AA08AB09120479
:105A900098EFF97F0C02183E74F012176C74EC1238
:105AA0001715EAFEEBFFEE240CF50EEF3400F50FB0
:105AB0008E828F83A385820A85830BEE2403F508EB
:105AC000EF3400F5098E828F83A3A3E024FA7003DC
:105AD000025DDD24FD7003025CF4147003025B7050
:105AE000146010147003025D2824FE7003025C6CC5
:105AF000025E35EE2409F50AEF3400F50B126ABB9D
:105B00006043E0F5838882125E3C880C890DE8458D
:105B10000D6032850E82850F83E0F50E780E121926
:105B200083EE240BF582EF126000F9850A82850B63
