:020000040000FA
:0600000002010A022018B3
:03002B0002228529
:03003B000222A6F8
:0300430002223066
:0300530002208EFA
:03006B0002225618
:10008300021EC7E5C754F84401F5C77901220000F1
:100093000080FB120086B900030200F4E4791A78A9
:1000A30002B800028004F709D8FCE4791C7802B88E
:1000B30000028004F709D8FCE4900281787A790F72
:1000C3008002F0A3D8FCD9FA9010FAAA82AB8390ED
:1000D300013A78D779018015E493A3AC82AD838A82
:1000E300828B83F0A3AA82AB838C828D83D8E9D9D8
:1000F300E77582C97583C3740312011C75829175F8
:100103008300740012011C75D00075813F7518813E
:10011300751902759F00020096C09FF59FE473D086
:100123009F22D083D082C09FE493C0E0740193C028
:10013300E0740293F59F229C03AE03D803A203FF4E
:100143000000B4000028002800283075A000A0009B
:10015300A000A00000080008E001F000100010005B
:10016300100010001000100050005000500010004C
:100173001000D0070000000000000F000100050080
:10018300307507001000010081FF00000000FF022E
:100193000202E590010000D89002E19001000052B4
:1001A3001102DD90010000B20202E1900100005350
:1001B3001102DB90010000C802FFFF0100FF2002D3
:1001C300E590010000D59002E19001000081110249
:1001D300E390000000000002DF90030000A5038805
:1001E3000B880B880B880B880B880B880B880B8874
:1001F3000B880B880B880B880B9E0DBC0D980DFF8D
:10020300FF01E803053F10020AFF00FEFF1201256C
:1002130024BB031201253ABB0312012569BB031258
:1002230001259FBB03120125B6BB03120125CDBBDC
:100233000312012504BC0312012557BC0312012537
:100243006EBC0312012597B403120125AEB4031249
:100253000125DFB4031201251AB50312012544B5A4
:10026300031201256EB50312012585B5031201257D
:100273009CB503120125B3B503120125DCB50312A6
:100283000125EFB50312012505B6031201252FB68B
:1002930003120125FEF10112012502F301120125CA
:1002A3002FF30112012585F301120125A8F3011291
:1002B3000125BCF301120125BEF301120125E1F36F
:1002C30001120125F0F401120125B4F501120125F3
:1002D30089F601120125FAF60112012586F70112AA
:1002E300012589F70112012511F8011201254CF8A6
:1002F30001120125B3F801120125B6F801120125F7
:10030300EDF80112012516F901120125C1F90112B7
:1003130001254BFA011201259AFA01120125A7FAC8
:1003230001120125AAFA011201250AFB0112012576
:1003330015FB0112012594FB0112012597FB011204
:100343000125AAFB01120125ADFB011201253CFC8D
:100353000112012556FC0112012566FC011201253B
:1003630096FC01120125A3FC01120125A6FC011232
:10037300012527FD0112012515FE01120125C7FEE6
:1003830001120125BBAF02120125B3B002120125F0
:10039300E7B00212012569B10212012589B10212E7
:1003A3000125D1B10212012524B20212012588B21E
:1003B3000212012515B302120125CFB30212012542
:1003C300DEB60212012569B8021201258CB80212A9
:1003D30001259A95031201253797031201259B974F
:1003E30003120125FA970312012508980312012528
:1003F300319803120125B0F402120125D8F4021238
:10040300012506F5021201253DF5021201259BF592
:1004130002120125E6F50212012531F60212012529
:1004230071F602120125B7F602120125E5F6021252
:100433000125A2F702120125ACF702120125B9F733
:1004430002120125ECF702120125B8F80212012568
:10045300C4F802120125DCF802120125E6F80212A3
:10046300012564F902120125DEC003120125ECC047
:100473000312012504C1031201251CC10312012526
:1004830034C10312012583D5011201252FD6011290
:100493000125AAD601120125CBD70112012507D8C0
:1004A30001120125B0D80112012597D901120125A6
:1004B300FBDA0112012552DB01120125D3DB011204
:1004C3000125C3DC0112012510DD0112012596DD92
:1004D30001120125C8DD01120125DCDF011201250E
:1004E3001EE0011201253CE001120125DEE00112AC
:1004F3000125A6E101120125B3E301120125459966
:10050300031201255B990312012581990312012529
:100513009D9A03120125A79A03120125DC9B03125E
:100523000125D49C03120125C984031201256D857D
:1005330003120125A08503120125EA850312012573
:10054300AD87031201259EA40112012517A50112EF
:10055300012527A50112012515A6011201251FA6B4
:100563000112012544A6011201254FA601120125FE
:1005730039A7011201259CA70112012552A80112D6
:10058300012539AA01120125F2AB01120125CEACD6
:100593000112012582AD01120125BFB0011201250F
:1005A3006DB101120125DCB2011201255CB4011207
:1005B300012503B5011201254CB50112012583B5AF
:1005C3000112012520B601120125ABB60112012546
:1005D30088B701120125DDB7011201253CB90112CB
:1005E30001254CB90112012579B901120125D0B9B0
:1005F3000112012579BA0112012580BB01120125DF
:100603004ABC01120125AABD01120125EDBD01124B
:10061300012592BE01120125B8BE01120125C6C0F3
:1006230001120125CBC001120125D0C201120125FF
:100633001DC30112012590C301120125C3C3011279
:10064300012565C4011201250EC50112012546C508
:100653000112012549C50112012591C50112012588
:10066300D3C5011201252AC60112012558AA031276
:1006730001256BAA0312012579AA03120125C1AA38
:1006830003120125D7AA031201251EAB031201256C
:1006930032AC03120125BFAC031201250AAD0312CC
:1006A30001251823001201252823001201258B237D
:1006B30000120125D02300120125862400120125F2
:1006C3006125001201258A2500120125BA25001291
:1006D3000125FA2700120125E12900120125B92B72
:1006E30000120125FD2C00120125642F00120125A3
:1006F300723000120125C43100120125CE320012DE
:1007030001251033001201254833001201256A33F5
:1007130000120125CD33001201258F380012012567
:100723002439001201257839001201259F3900125E
:100733000125DD3900120125FC3900120125563A45
:1007430000120125563B00120125DB3B0012012557
:10075300DCEE02120125E6EE021201258EEF0212F3
:100763000125D1EF02120125ECEF021201257CF0E5
:1007730002120125A4F002120125DCF00212012568
:1007830013F1021201253CF10212012576F1021246
:1007930001258BF10212012558F2021201257BF289
:1007A300021201259DF202120125B2F20212012565
:1007B30038F30212012572F302120125EAF3021241
:1007C300012533F4021201255DF40212012588F498
:1007D30002120125DFFE02120125CCE301120125DD
:1007E300FAE30112012555E50112012535E601124F
:1007F300012554E601120125D1E60112012514E772
:10080300011201258FE801120125FEE801120125DD
:1008130029EB01120125ADED011201255EEE011256
:10082300012554EF01120125F4EF01120125F2F025
:10083300011201257DF10112012585BC0312012559
:10084300EEBC0312012542BD0312012571BD031243
:10085300012592BD031201254A8903120125B78997
:1008630003120125FE8903120125168B03120125AC
:10087300128C03120125F58C0312012568DB021289
:100883000125AADB0212012583DC021201257DDD8D
:10089300021201255FDE02120125C8DE02120125C4
:1008A300E4DF0212012550E00212012553E0021297
:1008B30001257CE002120125F6E0021201259BE1ED
:1008C30002120125B0E102120125F6E1021201250F
:1008D3000FE20212012512E202120125DE9C03122D
:1008E30001251A9D03120125589D03120125229EFD
:1008F30003120125919E03120125CC9E03120125AB
:100903000A9F031201253A9F03120125619F0312D7
:100913000125CF9F0312012511A003120125C96AE6
:10092300001201258C6C00120125576E001201255F
:10093300936E00120125C06E00120125826F001212
:100943000125C96F001201250D70001201251F70CA
:10095300001201255F70001201258C700012012521
:10096300DA7000120125147100120125377100128B
:100973000125897100120125177200120125ED72FC
:1009830000120125D77300120125A6750012012557
:10099300A77A00120125F67A001201253D7B001289
:1009A3000125707D0012012500B00312012572B0EC
:1009B30003120125C8B0031201250CB1031201254E
:1009C3002CB10312012579B103120125C1B1031220
:1009D300012514B20312012565B203120125423C1D
:1009E300001201258B3C00120125B83C00120125A1
:1009F300EB3C00120125FB3C00120125073D0012D0
:100A03000125183D00120125FF3D001201255D3E21
:100A130000120125923E00120125D53F0012012547
:100A2300274000120125774000120125CA40001219
:100A33000125C941001201254443001201251B442D
:100A4300001201252B44001201254D4400120125FB
:100A53005044001201251E4500120125EF450012E6
:100A63000125BE46001201251247001201257247D7
:100A730000120125D64700120125874800120125DF
:100A8300524900120125F44900120125694A001256
:100A93000125D54A001201252A4B001201255B4B83
:100AA30000120125F64B00120125DA4D0012012533
:100AB300294E001201256C4E00120125EE4E001244
:100AC30001258C4F00120125D34F00120125F74F4A
:100AD300001201253E50001201256C500012012521
:100AE300B450001201252E5100120125725100123B
:100AF30001257F52001201252E53001201258F5329
:100B030000120125EB5300120125045400120125A4
:100B1300B7B9021201250ABA0212012516BA021246
:100B23000125EBBA0212012512BB021201254DBBAE
:100B330002120125B9BB02120125F5BB02120125E0
:100B43002EBC0212012546BC021201259BBC0212D7
:100B53000125B4BC02120125FDBC0212012510BD02
:100B6300021201252ABD0212012540BD02120125F0
:100B730073BE02120125BABF02120125BCC00212C4
:100B83000125B6C102120125F77F00120125ECF9F8
:100B9300021201255BFD0212012594FE02120125BA
:100BA3002F8E02120125A59002120125AB9002128D
:100BB30001251393021201257A9502120125008063
:100BC300031201259680031201254D81031201258D
:100BD3007781031201256A8303120125928403128C
:100BE3000125FA90011201252E91011201251B9B6B
:100BF300011201256F9C011201257A9D0112012525
:100C0300FA9E01120125DB9F0112012515A0011295
:100C1300012538A0011201257AA001120125C4A0E3
:100C230001120125CEA00112012578A1011201258F
:100C330051A201120125A5A20112012507A3011248
:100C430001255AA30112012589A301120125C6A377
:100C5300011201252FA703120125A5A703120125C0
:100C6300BBA703120125FCA70312012536A8031213
:100C73000125AFA803120125EAA8031201255DA9E6
:100C8300031201259BA903120125A4A9031201251F
:100C9300B0A903120125CCA903120125F7A9031258
:100CA300012528AA0312012536E20212012549E291
:100CB3000212012563E2021201258CE202120125D0
:100CC300CFE2021201250EE3021201254CE30212C8
:100CD3000125B1E302120125C6E302120125DDE37A
:100CE30002120125EBE302120125FAE302120125A8
:100CF3000FE40212012524E4021201252FE402125B
:100D030001253BE40212012548E4021201255BE4BC
:100D13000212012566E4021201258BE40212012569
:100D230032E50212012547E5021201255CE50212B4
:100D3300012576E50212012591E502120125AEE5B2
:100D430002120125B9E50212012575E602120125F9
:100D530061E70212012586E70212012591E70212DB
:100D63000125A6E702120125BAE7021201251BE8B5
:100D73000212012521E80212012527E802120125AA
:100D83002DE80212012545E80212012578E8021236
:100D9300012565A50212012587A50212012567A673
:100DA300021201253EA9021201256AAA0212012597
:100DB3008EAB0212012540AC02120125E1AC0212F6
:100DC300012505800212012589800212012538813F
:100DD30002120125978202120125B884021201250D
:100DE300A48502120125D98502120125FB85021271
:100DF3000125AA8602120125A28802120125CB88A9
:100E0300021201255D89021201258F890212012533
:100E13009C8902120125F38902120125198A021203
:100E23000125868C02120125898D02120125E18D8F
:100E33000212012517C70112012521C8011201253C
:100E430008C90112012512C90112012534C9011271
:100E5300012540C901120125D9CA0112012508CB78
:100E63000112012524CC011201257DCC011201259B
:100E7300E3CD01120125C2CE011201251ECF0112BD
:100E830001258BCF01120125C6CF0112012505D003
:100E930001120125BED201120125D8D2011201256A
:100EA30064D30112012572D301120125CBD30112A0
:100EB3000125D9D3011201254CD401120125B0D447
:100EC30001120125FAD40112012541B603120125AD
:100ED30066B603120125D8B6031201251CD40212EB
:100EE300012525D4021201252ED40212012505D590
:100EF30002120125B6D602120125ECD602120125F3
:100F030026D7021201255CD70212012596D70212B9
:100F13000125CAD702120125F6D7021201253FD8AF
:100F23000212012579D802120125C2D80212012525
:100F33001AD9021201254FD902120125AAD9021288
:100F43000125E4D90212012535DA021201256BDAF3
:100F530002120125A5DA02120125C8DA02120125BF
:100F630038FF0112012564FF01120125BFFF0112A1
:100F73000125C9FF01120125D9FF0112012581C3F2
:100F8300021201258BC302120125C9C302120125D6
:100F930012C4021201254CC402120125A6C4021276
:100FA3000125C7C4021201259FC702120125A8C744
:100FB30002120125F5C7021201251EC802120125DE
:100FC30028C80212012594C80212012526C902125B
:100FD300012570C902120125A6C90212012532CAD0
:100FE3000212012573CA02120125AACA021201259F
:100FF300BCCA02120125DBCA02120125E4CA02128D
:101003000125ACCB02120125E7BF03120125A6B2CD
:1010130003120125DCB20312012512B303120125C9
:101023005DB40312012500C30312012516C3031285
:10103300012520C303120125B78D03120125CC8D91
:10104300031201257F8E03120125BF8E0312012592
:10105300D88E03120125138F03120125608F03120B
:101063000125928F03120125D48F03120125DF91ED
:10107300031201256AC30312012588B9031201254E
:10108300B1B903120125E0B90312012578BA03129D
:10109300012590BA03120125D2BA03120125F5E8FE
:1010A3000212012537E902120125B9E902120125CD
:1010B300CEE9021201251FEA0212012573EA021288
:1010C3000125B8EA02120125C7EA021201257BEBCA
:1010D30002120125D6EB0212012525EC021201258D
:1010E3007BEC0212012570ED0212012567EE02125C
:1010F3000125A4EE02120125757F00120125365445
:1011030000120125B756001201255158001201257E
:101113000559001201259859001201251D5A001284
:101123000125425A00120125945A00120125495EF5
:1011330000120125CF5E0012012502600012012575
:101143003C60001201257160001201252E6200121D
:101153000125626200120125BF62001201250863A6
:10116300001201256F6300120125E86300120125B7
:101173001764001201252F640012012578650012FF
:101183000125886500120125A66600120125C8669F
:1011930000120125FE6600120125AD68001201252B
:1011A3003A6900120125796900120125926A001239
:1011B3000125E3FF011201251CC4031201255BC4B1
:1011C30003120125E47F00120125CDC1031201257D
:1011D300DDC103120125F8C10312012560C2031208
:1011E3000125E3BE0312012568BF03120125CEBF0B
:1011F30003120125D8BD03120125FFBD03120125EA
:1012030055BE03120125A5BE03120125C5A3031272
:101213000125DAA3031201251EA5031201259AA5B0
:10122300031201250EA60312012528A60312012588
:101233003FA60312012552A6031201256CA6031231
:10124300012583A603120125A9A603120125FAA6E7
:1012530003120125EC9103120125009203120125CB
:101263007A92031201255E93031201253595031229
:10127300012559A003120125E9A00312012575A137
:10128300031201250EA2031201259FA203120125B9
:10129300A8A20312012526A30312012539A30312D1
:1012A30001254FA303120125AFA303120125C2A3F6
:1012B300031201256AC203120125DAC203120125B2
:1012C300E5C203120125F5C203120125E6B7031295
:1012D300012538B803120125C2B80312012529B923
:1012E3000312012534AD031201255EAD031201255E
:1012F3002CAE0312012507AF031201258EAF031293
:101303000125DACB02120125A1CC02120125D8CC8A
:101313000212012502CD0212012562CD021201251E
:10132300B8CD021201251DCE02120125B5CE02123F
:101333000125C4CF021201255BD102120125E8D198
:10134300021201254FD20212012566D20212012593
:1013530080D302120125BED302120125049A021280
:101363000125209B021201253F9C021201250D9DA0
:1013730002120125309D02120125AB9F02120125A5
:10138300FD9F021201259BA002120125B3A10212A7
:10139300012558A202120125DAA2021201259BC4DB
:1013A3000312012565C403120125C7C403120125D5
:1013B300EFC403E066701008A3E066700A08A3E0B8
:1013C30066700408A3E06622C3E7960809E7960857
:1013D30009E7960809E79622C3E09608A3E0960872
:1013E300A3E09608A3E09622C008C3E096F5080898
:1013F300A3E096420808A3E096420808A3E09645B6
:10140300087001D3D00822080808EAC0E0EBC0E066
:1014130086F0E7A4FA180986F0E7A42AFA180986E1
:10142300F0E7A42AFA180986F0E7A42AFA1986F045
:10143300E7A4FBE5F02AFA190886F0E7A42BFBE5FD
:10144300F03AFA190886F0E7A42BFBE5F03AFA180C
:10145300180986F0E7A4C5F02BFBE43AFA1908E76C
:10146300C5F0C6A426F6E5F03BFBE43AFA1886F08D
:10147300E7A4F6E5F00826F6E43B08F6E43A08F6B6
:10148300D0E0FBD0E0FA22E4CFC0E0E4CEC0E0E459
:10149300CDC0E0E4CCC0E075F020C3E633F608E647
:1014A30033F608E633F608E633F6181818EC33FC7F
:1014B300ED33FDEE33FEEF33FFC3EC9709ED9709F0
:1014C300EE9709EF97191919400FFFEC97FC09EDF7
:1014D30097FD09EE97FE191906D5F0BEECF709ED55
:1014E300F709EEF709EFF7191919D0E0FCD0E0FD81
:1014F300D0E0FED0E0FF226016080808C6C313C67A
:1015030018C613C618C613C618C613C6D5E0EA22F2
:101513007009080808226016181818C6C333C608CD
:10152300C633C608C633C608C633C6D5E0EA22E6C4
:1015330027F60809E637F60809E637F60809E63715
:10154300F622E026F608A3E036F608A3E036F6080E
:10155300A3E036F622E026F008A3E036F008A3E085
:1015630036F008A3E036F022C3E697F60809E697BB
:10157300F60809E697F60809E697F622C3E096F01F
:1015830008A3E096F008A3E096F008A3E096F02203
:10159300E657F60809E657F60809E657F60809E696
:1015A30057F622E056F608A3E056F608A3E056F6EF
:1015B30008A3E056F622E056F008A3E056F008A38D
:1015C300E056F008A3E056F022E066F608A3E066D2
:1015D300F608A3E066F608A3E066F622E0F608A3A1
:1015E300E0F608A3E0F608A3E0F622E6F008A3E697
:1015F300F008A3E6F008A3E6F022E0FAA3E0FBA3D9
:10160300E0FCA3E0FD22EAF0A3EBF0A3ECF0A3EDF2
:10161300F022CAC0E0E6F0A308DAFAD0E0FA22CA60
:10162300C0E0E0A3C582CCC582C583CDC583F0A34A
:10163300C582CCC582C583CDC583DAE6D0E0CA2294
:10164300C3E498F8E499F91216848026C3E49AFA5D
:10165300E49BFBE920E7E9121684E498F8E499F99E
:1016630022C3E498F8E499F9121684E498F8E4990B
:10167300F9C3E49AFAE49BFB22EB20E7CFE920E7E6
:10168300E0B90010BB0008E88AF084F8AAF022E46D
:10169300FBC8FA22EB70227B10C833C8C933C933A5
:1016A3005007C39AC3DBF280069A50012ADBEAC8CB
:1016B30033F4C8C933F4C9FA2275F008E4C833C84F
:1016C300C933C933C99AC99B5004C92AC93BD5F048
:1016D300ECFBC833F4C8E4C9FA22600D08C6A2E7DC
:1016E30013C618C613C6D5E0F322600C08C6C3138D
:1016F300C618C613C6D5E0F422700422600D18C6BE
:10170300C333C608C633C6D5E0F41822251810AF74
:1017130008F518400215198008F51840021519D26A
:10172300AF22C0D0251810AF08F518500205198054
:1017330008F51850020519D2AFD0D0222518F5822A
:1017430010AF08F518400215198008F51840021566
:1017530019D2AF851983222518F582E43519F5834B
:1017630022E4732518C582C0E0E51934FFC583C0A0
:10177300E0E518C3958224F810AF088583198582A4
:10178300188008858319858218D2AFCEF0A3E5208F
:10179300F0A37808E608F0A3DEFAEFF0A3E58124CE
:1017A300FAF8E608F0A3E608F0A3E608F0A30808B1
:1017B300E608F0A3E608F0A315811581D0E0FED07A
:1017C300E0F8158115811581E8C0E0EEC0E022251F
:1017D30018C582C0E0E51934FFC583C0E0E518C32E
:1017E300958224F910AF08858319858218800885AE
:1017F3008319858218D2AFCEF0A3E520F0A3780831
:10180300E608F0A3DEFAEFF0A3E58124FBF8E6088F
:10181300F0A3E608F0A30808E608F0A3E608F0A39F
:1018230015811581D0E0FED0E0F815811581E8C05F
:10183300E0EEC0E022851983851882E0A3FEE0A3D1
:10184300F5207808E0A3F608DFFAE0A3FFE0A3C0E1
:10185300E0E0A3C0E0E0A3C0E0E0A3C0E0E0A3C0F9
:10186300E010AF0885821885831980088582188562
:101873008319D2AFD083D0820201228519838518C0
:1018830082E0A3FEE0A3F5207808E0A3F608DFFAE0
:10189300E0A3FFE0A3C0E0E0A3C0E0E0A3C0E0E07A
:1018A300A3C0E010AF08858218858319800885825C
:1018B30018858319D2AFD083D08222C0D02518C512
:1018C30082C0E0E51934FFC583C0E0E518C3958203
:1018D30024F310AF0885831985821880088583193E
:1018E300858218D2AFC8F0A3E9F0A3EAF0A3EBF026
:1018F300A37908E709F0A3D8FAECF0A3EDF0A3EE7F
:10190300F0A3EFF0A3D0E0F0A3D0E0F0A3D0E0F099
:10191300A3E520F0A3E5F0F0A322851983851882BF
:10192300E0C0E0A3E0F9A3E0FAA3E0FBA37808E0BA
:10193300F608A3DFFAE0FCA3E0FDA3E0FEA3E0FFCB
:10194300A3E0C0E0A3E0C0E0A3E0F5D0A3E0F5206E
:10195300A3E0A3F5F010AF088583198582188008EA
:10196300858319858218D2AFD082D083D0E0F8D096
:10197300E03274048006740280027401C0E0F4044F
:1019830012173FD0E01216152274048004740280EB
:1019930000CCC0E0EDC0E0E518C39CCCAD1950010C
:1019A3001D10AF068C188D1980068C188D19D2AFB7
:1019B300121622D0E0FDD0E0FC22D083D082E9C011
:1019C300E0E493A3C386F0C5F095F0F908E493A38C
:1019D30086F0C5F095F0700BE493A3C3994005E935
:1019E300048002A3E475F002A42582F582E5F035B4
:1019F30083F583D0E0F9E493A3C0E0E493C0E0224D
:101A0300D083D082ECC0E0EDC0E0E493A3FCE49388
:101A1300A3FDED4C600D121A4FEC24FFFCED34FFD7
:101A2300FD80EFE493A3FCE493A3FDED4C600D1262
:101A33001A8EEC24FFFCED34FFFD80EFD0E0FDD0E7
:101A4300E0FCE493A3C0E0E493C0E022C0E0C3E47D
:101A53009396087401939618400FE49366700808F0
:101A6300740193661870007019A3A3C3E4939608D6
:101A73007401939618A3A3400DD0E0D0E0D0E00208
:101A83001A3FA3A3A3A3A3A3D0E022C0E0C0F0887E
:101A9300F0E4936670080874019366187000A8F068
:101AA300A3A3700BD0F0D0E0D0E0D0E0021A3FA3A4
:061AB300A3D0F0D0E022F8
:101ABC0074F51217D2EAFEEBFFEE2434F8EF340083
:101ACC00F988088909EE2435121BE8F8EE24371240
:101ADC001BE8F50AEC850AF0A4FCAAF0850AF0EDE7
:101AEC00A42AFDE82CF8E43DF97A257B0012168433
:101AFC00EA850882850983F074075AF87401B800E6
:101B0C00028004C333D8FCFBEA131313541FF8EE02
:101B1C0028F8EF3400F9E8245DF582E9121BEB5B41
:101B2C006003EA801CEE2436121BE8F5F0EA84A868
:101B3C00F0EE28F8EF3400F9E82438F582E9121BAE
:101B4C00EBF97F0402187E74F51217D2EAFEEBFF54
:101B5C00EE2434121BE8C0E0EE2435F582EF34009D
:101B6C00F583D0E0F08E828F83A3A3A3A3A3E0FA26
:101B7C00A3E0FB8E828F83A3A3A3A3A3A3A3E0FC68
:101B8C00A3E0FDECC39AF50AED9BF50BEE247FF573
:101B9C0008EF3400F509850882F583E06401702BA9
:101BAC00EE2480F582EF3400F583121990121BF1AC
:101BBC007402121725E960137CBF7D07EEFAEFFB68
:101BCC00120A9E850882850983E4F0AC0AAD0BEEFF
:101BDC00FAEFFB121ABC12221C021B4EF582EF34D8
:101BEC0000F583E022C082C083851882851983E0CA
:101BFC00F8A3E0F9C3EA9CEB9D5010C3EC98ED9967
:101C0C00401BC3EA98EB995014800EC3EA98EB99E9
:101C1C004007C3EC98ED994004790180027900D01B
:101C2C0083D0822274ED1217D2900479E06408609C
:101C3C0005E06407702C9061C8E060269004A7E072
:101C4C00F874FF68601CE875F005A4C8AAF02AF9BE
:101C5C0074A928FE740439FF8E828F83A3A3A3E09A
:101C6C0070057900021DD0EE2468F510EF3400F5F4
:101C7C0011906060E0851082851183F0750AFB7508
:101C8C000B07750800750900E5D914F50EE5D95454
:101C9C0003F50F601CEE2482F50CEF3400F50D7487
:101CAC0003650F6058E50E6013EE2467121BE87095
:101CBC000B793DEEFAEFFB120AC880A69007F6E00E
:101CCC0064016026850C82850D83E06004780480B5
:101CDC00027800850E08E508C398FA95E0FB120916
:101CEC00308A088B09EA45097006120D74021C6EC5
:101CFC00850C82850D83E070048A0A8B0B7800803A
:101D0C0016E5D9C0E08812E50A2512F582E50B34F8
:101D1C0000F583D0E0F008E8C3950E40E4850C8212
:101D2C00850D83E0602874FC250EF50E780A1219D7
:101D3C0079AC0EA90FEEFAEFFB120B82740212179C
:101D4C0025E9700AAA08AB091212D2021CBD740351
:101D5C00650F6058850E0C750D00780C121979AC56
:101D6C000AAD0BAA08AB09120B4674021217258593
:101D7C001082851183E0F87480687005750C7F8083
:101D8C0002880CE50CF50A780A12197DE50FF50AA4
:101D9C00780A12197DA90EAC08AD099004A7E0FAD7
:101DAC007B001207D474021217258013900479E07B
:101DBC006408700BAC0AAD0BEEFAEFFB120BB2120F
:101DCC000D8079017F0C02187E74F31217D274FC0B
:101DDC0012170FEAFEEBFF8908A2AFE433F509C234
:101DEC00AFEE2463F50AEF3400F50B8010AA0AABB2
:101DFC000B120AFE1212D29007C6E004F0850A827A
:101E0C00850B83E0F8A3E0F9E849602FE82402FA97
:101E1C00E93400FBEA2402F50CEB3400F50D780CE8
:101E2C001219798A828B83E0FCA3E0F9EEFAEFFBBE
:101E3C00120AF27402121725E960B29007C6E0602C
:101E4C00579007C7E0F89007C6E0C398500C74028F
:101E5C00650870449007C8E0603E8E828F83A3A310
:101E6C00A3A3E0851882851983121EB4740212177D
:101E7C005AE8121EB49007C5E028F0740212175AE3
:101E8C00AC82AD83851882851983AA82AB837901D4
:101E9C001207E09007C6E4F0E509A2E092AF7404E3
:101EAC001217257F0602187EF0A3E4F09007C6E017
:101EBC00F8220000851A87851BC622C0E074EF1239
:101ECC0018BEA2AFE433FEC2AF759B00906182E0F6
:101EDC00A2E05012E591A2E0500C7591FE740165E0
:101EEC001A7003121C30E0A2E55051E591A2E550A6
:101EFC004B7591DF900479E064076005E06408702D
:101F0C00237401651A703579019004A7E0FA75F015
:101F1C0005A4CAA8F028FB74A92AFA74043BFB1286
:101F2C001DD58018E0640D701390049BE004F064E0
:101F3C00287002E4F07A00E0F9120D86906182E0DC
:101F4C00A2E64003021FEEE591A2E64003021FEE5B
:101F5C007591BF900479E064057008120C84120C22
:101F6C00908003120C8A751A00120CF6E990047A10
:101F7C00F07900120CD8120A027A017B00900478D6
:101F8C00E0F9120FDE907803E0644270559007FA86
:101F9C00E014F0704DC2AF121FA600781DD0E0F611
:101FAC0018D0E0F6E59F540770057509FF8003759E
:101FBC00097FC4C0E0781CE6F50808E65509F50968
:101FCC00740B78081216EDD0E02508F8906270E0DA
:101FDC00A2E740F8E8C333906272F0906270E0D2EE
:101FEC00E0F0906181E0A2E35009E5E9A2E350033F
:101FFC0075E9F7A3E0A2E75009E591A2E750037554
:10200C00917FEEA2E092AF7F0402191DC0E0C0D018
:10201C00C082C083906183E0A2E05009E5BFA2E0DA
:10202C00500375BFFEE0A2E15009E5BFA2E15003E9
:10203C0075BFFDE0A2E25009E5BFA2E2500375BFF7
:10204C00FBE0A2E35009E5BFA2E3500375BFF7E044
:10205C00A2E45009E5BFA2E4500375BFEFE0A2E58E
:10206C005009E5BFA2E5500375BFDFE0A2E65009B9
:10207C00E5BFA2E6500375BFBFD083D082D0D0D0CD
:10208C00E032C0E074F21218BEE5A7A2E4500FE5EE
:10209C00A1A2E4500953A7EF75A1EF1220E2E5A726
:1020AC00A2E5500CE5A1A2E5500653A7DF75A1DF10
:1020BC00E5A7A2E15009E5A1A2E1500375A1FDE558
:1020CC00A7A2E2500CE5A1A2E2500653A7FB75A112
:1020DC00FB7F0102191D74F81217D2751A019004B6
:1020EC0079E0640670077A007B00120C6CA2AFE4F6
:1020FC0033FED2AF90047FE0640170187A207B002D
:10210C00900478E0F912105C7A207B00900478E05F
:10211C00F9120FE4906182E0D2E6F09007F7E060EC
:10212C002185C61B801690047EE064017008E5C60C
:10213C0054F84405F5C653BEFC121EC07401651A52
:10214C0060E4EEA2E092AF7F0102187E74F11217E8
:10215C00D28A088B098C0A8D0B9090C578081215C1
:10216C00A6740F12175A780C1215DF9090C5780CC4
:10217C001215A67808790C1213CB9090B5501078E4
:10218C0008790C12156B78081213EB4014800E783A
:10219C000C790812156B780C1213EB500479018032
:1021AC000279007F0802187E74ED1217D28A088B10
:1021BC00098C0A8D0B9090C578081215A674131211
:1021CC00175A780C1215DF9090C5780C1215A6785A
:1021DC000C79081213CB40117808790C12156BAAE4
:1021EC0008AB09AC0AAD0B80227510007511007597
:1021FC0012007513017810790C12156B7810790890
:10220C00121532AA10AB11AC12AD137F0C02187E52
:10221C00C082C083E9906000F0D083D08222C2AF2C
:10222C0002000022C0E074F21218BEA2AFE433FE2A
:10223C00D2AFC2C0E5D1A2E4500653D1EF1212AE18
:10224C00EEA2E092AF7F0102191DC0E074F21218E9
:10225C00BEA2AFE433FED2AFE589A2E04006E58929
:10226C00A2E15003121206758900758900C2C5EEF1
:10227C00A2E092AF7F0102191DC0E0C0D0E8C0E01F
:10228C00E9C0E0E5A8D2AFC2C7A2E7A2E792AFD0FF
:10229C00E0F9D0E0F8D0D0D0E032C0E0C0D0E8C057
:1022AC00E0E9C0E0C008C009C082C083A2AFE4333B
:1022BC00F9D2AF901052E0F8A3E0687008539AFB83
:1022CC00A374018026C2E9901052E0F50874012530
:1022DC0008F074D22508F582740F3400F583E0F50C
:1022EC00C1901052E0C394804002E4F0E9A2E09265
:1022FC00AFD083D082D009D008D0E0F9D0E0F8D0AC
:10230C00D0D0E032FFFFFFFFFFFFFFFFC082C08392
:10231C00E9901180F0D083D08202012274F612175A
:10232C0066E9900365F07CA57D037AFF7BFF1207BD
:10233C002C7A008A08750900740278081216FC744D
:10234C00662508F874033509122377A3F00AEAC34B
:10235C00940340DF79051206BA900365E0F9120583
:10236C00DC7A447B071208E2023973F9888289838C
:10237C0074FF122384E4F022F0A312381EA32274FB
:10238C00F41217668A088B09EB5480603090036551
:10239C00E0F9120FC68A0A8B0BAE0AAF0BEE4F6038
:1023AC00138E828F83E064B070031206CCEEFAEFCA
:1023BC00FB120FB4AA08E5096480FB80047A007B49
:1023CC000002255C74F212176674FC12170FEAFEF9
:1023DC00EBFFEE4F6038740212175AEEF0A3EF12B7
:1023EC0027E1ECF0A3ED1227E1AA82AB831205D60C
:1023FC00E9F5087071741212175A1233C5E50A45C3
:10240C000B60638E828F8312247CEE4F70057508EF
:10241C000280537A067B0012101A8A0C8B0DA80CC2
:10242C00A90DE8497005750813803B88828983E4FF
:10243C00122384EEF0A3EF123866E50AF0A3E50B45
:10244C00F09003731225549003736017E0FCA3E023
:10245C008003EAFCEBFD8C828D8312255470F38C87
:10246C00828D831232C8A9087404121725023A51BE
:10247C00A3A3A3A3E0FEA3E0FF2274F212176689C4
:10248C000AE975F045A4FEAFF0900372E4F09003F6
:10249C0068122554602812102079008908750900EB
:1024AC00740278081216FC74682508F582740335DA
:1024BC0009F583E4F0A3F009E9C3940340DDEEFAD7
:1024CC00EFFB12101A8A088B09EA45096075EEFCBD
:1024DC00EFFD7900120F9C7D008D0C750D007402C0
:1024EC00780C1216FC7468250CF87403350DF9E59C
:1024FC000AF5F0EDA475F017A4FAABF0E5082AFA8A
:10250C00E5093BFB88828983EAF0A3EBF07E00802F
:10251C001BEE75F017A4FAABF088828983E02AFCD5
:10252C00A3E03B8C82F583E4F0A3F00EEEC3950A96
:10253C0040DF0DEDC3940340A0E50A900372F079DF
:10254C000080027913023A51E0FAA3E0FBEA4B2235
:10255C007F0402183874F41217667900EAA2E0506E
:10256C001B75085775099078081219797C047D0041
:10257C007A827B111206B4740212172580D2C082A3
:10258C00C08390037312385849601C88828983A3D6
:10259C00A3E06A7003A3E06B8882898370E7A3A32E
:1025AC00A3A312306C80047A007B0002232174EE0A
:1025BC0012176674FC12170FEAFEEBFF8518828562
:1025CC001983E4F0A3F0EE24021232B3EE240512C8
:1025DC0027CFEE2404F50EEF122BABE024FE60396E
:1025EC0024FC604624FE605224FE605E24FE7003D0
:1025FC000226D424FE700302274C24FE700302270B
:10260C005B24FE700302276A24FC700302277924E2
:10261C00FE70030227880227C590038C7417F0A361
:10262C00E41227E912024C0227C58518828519830A
:10263C00AC82AD831206D202279585188285198348
:10264C00AC82AD831206D8022795850C08850D093E
:10265C00740212175AAC82AD8385088285098312E5
:10266C00306C1205FA8A0C8B0DAC0CAD0DEC4D6078
:10267C0042E4F50CF50D780C121979750C8C750D6E
:10268C0003780C121979750C8D750D03780C1219D1
:10269C0079740812175A12199079161230661207AB
:1026AC00147408121725E9F50C700B123062120223
:1026BC0064800F750C018508828509831227D71257
:1026CC0032C8850C08022798740212175AAC82ADD6
:1026DC0083850C82850D8312306C1205FA8A108B5F
:1026EC0011AC10AD11EC4D6043850C82850D83A3AC
:1026FC00A312199075108C75110378101219797535
:10270C00108D7511037810121979740812175A125A
:10271C00199079161230661207147408121725E9ED
:10272C00F509700B12306212026A800F750901856F
:10273C000C82850D831227D71232C8850908804C6C
:10274C00851882851983AC82AD831206DE803A85AA
:10275C001882851983AC82AD831206E4802B851810
:10276C0082851983AC82AD831206EA801C8518829F
:10277C00851983AC82AD831206F0800D8518828595
:10278C001983AC82AD831206F6E9F508E5086029D9
:10279C008E828F83A3E06414601F850E82850F8365
:1027AC00E090038C1227E1123B2090038D1232C86B
:1027BC00E508A31227E9120246EEFAEFFB1206789F
:1027CC000231BAF50CEF3400F50D22123B248518BA
:1027DC008285198322F085188285198322F07C8CDE
:1027EC007D03850A82850B83E0FAA3E0FB2274EE5D
:1027FC0012176674FC12170F8A0A8B0B8C0E8D0F36
:10280C00EA2405F508EB3400F5097C157D00790008
:10281C007A8C7B03120F9CE5082402F50CE5091257
:10282C0027D28518828519838582108583117810AB
:10283C00121979850882850983A3A3A3A3122CF40A
:10284C00121979E5082405F510E5093400F511781D
:10285C0010121979850C82850D8312305612306C4A
:10286C001205F474061217258A108B11AE10AF11D5
:10287C00E50A2402F50AE50B1232B6EE4F7003029C
:10288C0029C38017740212175A12306C88828983FC
:10289C00EAF0A3EBF090038CE004F090038CE0C31F
:1028AC00940540030229C3E4F510F51178101219B0
:1028BC007975107575110378101219797510767574
:1028CC0011037810121979740612175A121990798B
:1028DC0010EEFCEFFD123066120714740812172567
:1028EC00E9705E850882850983A3A3A3A3A3A3A390
:1028FC00E0F8900375E0687048122CF41219797C9A
:10290C00767D03E5082408FAE5093400FB120F96DE
:10291C007402121725E960298E828F83A3A3A3A3C7
:10292C0012306C90038CE0F510740278101216FCC7
:10293C00748D2510F58274033511F583EAF0A3EB41
:10294C00F0740212175A85821085831178101219AF
:10295C0079740212175A121990850C82850D831204
:10296C003B3512060074041217258A108B11AE1019
:10297C00AF1190038CE0F5107511007402781012F1
:10298C0016FC748C2510F874033511F98882898330
:10299C00A31225547003022887E82403F8E93400B5
:1029AC00F9EE4F60030228908882898374FFF0A3AC
:1029BC00F090038CE004F090038CE0600A1230621B
:1029CC001202587900800B8508828509831232BF68
:1029DC00790A0231BA74EA12176674FE12170F8C58
:1029EC00128D13EA2405F50CEB123B3F1224807573
:1029FC000800750900EA2402F510EB3400F5118586
:102A0C00188285198385820A85830B780A121979B5
:102A1C00850C82850D83A3A3A3A3122BB512197960
:102A2C00E50C2405F50AE50D1232B6780A1219796F
:102A3C00850C82850D83123B331205F47406121734
:102A4C00258A0A8B0BEA450B7003022B76EA2404C9
:102A5C00F50EEB122BAB1224808A828B83A3A3A3DB
:102A6C00E0F985108285118312306C1205E2E9F5CC
:102A7C00096003022B76E4F514F515781412197914
:102A8C0075147575150378141219797514767515F6
:102A9C00037814121979740612175A1219907913B3
:102AAC00AC0AAD0B85108285118312306C120714A1
:102ABC007408121725E9F5096003022B769003754B
:102ACC00E0F8E5087009E0240290038DF08017907F
:102ADC00038DE0FCE82402FAE43400FBEA6C70019C
:102AEC00EB6003022B7A850882AA82122CEB9414D9
:102AFC00122CE35075850E82850F83E0C0E0122FF7
:102B0C0022D0E0F00508850E82850F83A3E0C0E09B
:102B1C0085080A748E250AF58274033400F583D077
:102B2C00E0F00508900375122BB51219797C767DAF
:102B3C000385080A748E250AFA74033400FB120FFD
:102B4C00847402121725900375E02508F50874FFAC
:102B5C006E700374FF6F6012EE24010EEF3400FFF1
:102B6C00E508C394145003022A0BE5086013122FD6
:102B7C004885108285118312306C12025E790080B8
:102B8C0014E509700375090A851282851383EEF02A
:102B9C00A3EFF0A90974021217257F0E021838341E
:102BAC0000F50F850E82F583221238752274EE1211
:102BBC00176674FE12170F8C0E8D0FEA2405F50C98
:102BCC00EB1227D2750B0090038CE4F0F50AEA2483
:102BDC0002F508EB3400F509804990038CE0FA907B
:102BEC000375E0F8122CEB9417122CE3400D9003B4
:102BFC008CE0F87416C398900375F0122CF412192B
:102C0C00797C767D03748D2AFA74033400FB120FE1
:102C1C00847402121725900375E0F890038CE02859
:102C2C00F0050AE50C2416F582E50D3400F583E079
:102C3C00F8E50AC3984003022CCC90038CE0C394B3
:102C4C0016507DE50AC333F8E433F9E50C28FEE5AC
:102C5C000D39FF851882851983AC82AD838E828FE6
:102C6C008312306C1205FA8A108B11AC10AD11EC7A
:102C7C004D7005750B018043E4F510F511781012B9
:102C8C0019797510757511037810121979751076FC
:102C9C007511037810121979740612175A121990BB
:102CAC00791685088285098312306C120714740812
:102CBC00121725E9F50B7003022BE61232BB8010BC
:102CCC007C8C7D0385088285098312306C1202701E
:102CDC00A90B74020231BCE99400C365D03322EA1B
:102CEC0028F8E43400F9E822E0F5107511007810AA
:102CFC002274EA12176674FC12170F8A0C8B0D8C57
:102D0C00128D13EA2405F50AEB1232B6750800751C
:102D1C000900E50A2402F510E50B3400F5117402E4
:102D2C0012175A85820E85830F780E121979850A2F
:102D3C0082850B83A3A3A3A3123825121979E50A64
:102D4C002405F50EE50B3400F50F780E1219798574
:102D5C0010828511831231B41230661205F4740698
:102D6C001217258A0E8B0FAE0EAF0FE50C2402F551
:102D7C000EE50D3400F50F80408882898374FFF0D6
:102D8C000508122F2E74FFF00508900375E0F50C62
:102D9C00750D00780C1219797C767D0385080C74FE
:102DAC008E250CFA74033400FB120F847402121774
:102DBC0025900375E02508F508EE4F60718E828F23
:102DCC0083A3A3A3E0F9850E82850F8312306C12C6
:102DDC0005E2E9F509EE24041227CFE97044E4F585
:102DEC0014F5157814121979751475751503781472
:102DFC0012197975147675150378141219797408EB
:102E0C0012175A1219907911EEFCEFFD850E82857E
:102E1C000F8312306C1207147408121725E9F50988
:102E2C006027850C82850D83122F3E1232C8E5086F
:102E3C007003022F08122F48850E82850F831230E3
:102E4C006C1202767900022F1D850882AA82EA9004
:102E5C0003757009E0240490038DF08022E0F89053
:102E6C00038DE0F514E82404FCE43400FDEC651457
:102E7C007001ED70C0122CEB9412122CE350B6853D
:102E8C000C82850D83E0C0E0122F22D0E0F0050803
:102E9C00850C82850D83A3E0C0E0122F2ED0E012AA
:102EAC002F5A85820C85830D780C121979740412B3
:102EBC00175A121990851082851183123B35120610
:102ECC000074041217258A0C8B0DAE0CAF0D8508FF
:102EDC000C748E250CF874033400F9EE4F70030259
:102EEC002D85851882851983E088828983122F5A53
:102EFC00A3E0C0E0122F2ED0E0022D93E509700361
:102F0C0075090A850A82850B83122F3E1232C8A9D5
:102F1C00097404022BA3748E2AF58274033400F511
:102F2C00832285080C748E250CF58274033400F50D
:102F3C008322123B248512828513832290038DE019
:102F4C00F5F0E5088490038CF07C8C7D0322F00571
:102F5C00088518828519832274EC12176674FE1288
:102F6C00170F8A088B098C0E8D0FEA2405FEEB34A3
:102F7C0000FF851882851983AC82AD838E828F8386
:102F8C0012306C1205FA8A0A8B0BEE24181227CF1A
:102F9C00EA450B700302303112319C503285188295
:102FAC0085198312306C1207088A108B11EA4511AF
:102FBC00606E7912AC0AAD0B8508828509831230DC
:102FCC006C851082851183121764E9F50A705BE435
:102FDC00F50AF50B780A1219798E828F83A3A3E078
:102FEC00F50A780A121979EE24031232B3780A1210
:102FFC0019798E828F8312305612306C12071A7424
:10300C0006121725E9F50A7021850C82850D83E0DF
:10301C00701F85088285098312306C12027C801126
:10302C00750A0E8009750A018004E50A60031232E4
:10303C00BB850C82850D83E0600479008002A90AAF
:10304C0074021217257F0C021838E0FCA3E0FD85F2
:10305C000882850983227C8C7D03850A82850B83FB
:10306C00E0FAA3E0FB2274EE12176674FE12170F3F
:10307C008A088B098C0C8D0DEA2405FEEB3400FFBD
:10308C00750E00851882851983AC82AD838E828F74
:10309C008312306C1205FA8A0A8B0BEA450B70030B
:1030AC0002318812319C5035851882851983123073
:1030BC006C1207088A0E8B0FEA450F605E7912AC12
:1030CC000AAD0B85088285098312306C850E8285CA
:1030DC000F83121764E9F50E600302318B850882A9
:1030EC008509831233C5AA0AFB1206FC8A108B11C0
:1030FC00A810A911E849701E7AFF7BFF1206FC8A02
:10310C00108B11A810A911E849606C88828983E59D
:10311C000AF0A3E50BF0750A008007750E0E805FB0
:10312C00050A900372E0FAE50AC39A504AE50A755B
:10313C00F017A4FAABF088828983A3A3E02AFAA340
:10314C00E03BFB8A828B831231B4EC4D70D2750A52
:10315C0017750B00780A121979EEFCEFFD120F842B
:10316C007402121725EEFCEFFD8508828509831287
:10317C00306C1202828014750E098003750E0112D8
:10318C003B1C850C82850D831232C8A90E022CDEE5
:10319C00E5082402F508E5093400F5098A828B83D9
:1031AC00A3A3A3E0A2E522A3E0FCA3E0FD22740408
:1031BC001217257F0A02183874EC1217668C108DC2
:1031CC0011EA2405F50CEB1227D2750F00EA240244
:1031DC00F50AEB1232B6850A82F58312306C1206B0
:1031EC00FC8A088B09EA450970030232A8750E00A7
:1031FC008071850C82850D83E06401704F8E828F07
:10320C0083A3A31219908E828F83A3A3A3A3E0F5AB
:10321C00127513007812121979EE2405F512EF3499
:10322C0000F513781212197912306612071A740607
:10323C00121725E9F50F6014850C82850D83E4F0D7
:10324C00123B1C8510828511831232C87C177D00BD
:10325C007900EEFAEFFB120F9C8E828F83E4F0A3C1
:10326C00F0050E900372E0F8E50EC398501FE50EC2
:10327C0075F017A4F8A9F0850882850983A3A31219
:10328C003B49FCA3E0FDEC4D60030231FE85088256
:10329C0085098374FFF0A3F0E50F700612306612F7
:1032AC000288A90F023051F50AEF3400F50B228E7B
:1032BC00828F83123B24850E82850F83E8F0A3E96D
:1032CC00F02274F61217667C008C087509007402E3
:1032DC0078081216FC1233006A7003A3E06B7006B8
:1032EC00E8FAE9FB800B0CECC3940340DC7A007B1E
:1032FC000002397374662508F874033509F988825D
:10330C008983E02274F71217667F00EF75F003A42F
:10331C00F8A9F0EC28F8ED39F988828983E06A7015
:10332C0003A3E06B7006E8FAE9FB800B0FEFC39484
:10333C000440D87A007B007F0102183874F612170B
:10334C00661206C68A828B83E582458370067A00F4
:10335C007B008007A3A3A3A312306C02397374F211
:10336C00121766E9FE740E12175A1233C574101236
:10337C00175A1238408C828D83E064027036A31287
:10338C003B2AF50CA3E0F9A80C74026870037429AD
:10339C00697021750C02750D00780C12197978087A
:1033AC00121979780A121979EEF912073E7406127D
:1033BC00172580027901023A51E0F50AA3E0F50BDA
:1033CC002274E812176674FB12170FE985188285B0
:1033DC001983F08A168B17ECFEEDFF751000741D27
:1033EC0012175A123B20741D12175A1232C88E82B1
:1033FC008F83A3A3A3E0A2E4502D741D12175A12BD
:10340C00306C1207088A828B83E582458370030235
:10341C00380F790AEEFCEFFDAA16AB17121764E908
:10342C00F5106003023812741F12175A12384074C8
:10343C002112175A1233C5742312175AE0F50EA332
:10344C00E0F50F8E828F83E0640260030237BDA328
:10345C00123B20850882850983A3858212858313FC
:10346C00EE24061227CF88828983E0FAA3E0F9EADA
:10347C002400F514E439F5157814121A0301000030
:10348C00280128B1340700022876350328E33400DC
:10349C0029AD360129D836022979360329AD3604EF
:1034AC00295737BD37E50E450F60030237B8850C39
:1034BC0082850D83123858FAE9FB8A828B83E0856A
:1034CC000A82850B8312386C1219798A828B83A33A
:1034DC00E0FCA3E0023741E50E450F60030237B86C
:1034EC00850A82850B837401F01238488508828521
:1034FC000983F07C007D008E828F83A3A3A3A3E0BD
:10350C002401FAA3E03400FB1205FAEA4B60418A6D
:10351C00828B83E02402F8850A82850B83E028F0F5
:10352C00EA2404F8EB3400F988828983E08512825E
:10353C0085138312387E12386C1219798A828B8328
:10354C001231B3E5082403FAE5093400FB023746CF
:10355C00850A82850B83E02404F07C047D007900CD
:10356C00AA12AB13120F9C023812E50E450F600322
:10357C000237B8123848FEA3E0FF850A82850B8318
:10358C007404F0EE850882850983F0EF851282853C
:10359C001383F0740312175AAC82AD83EEFAEFFB6F
:1035AC001205FA8A0C8B0DEA450D700302365A8A05
:1035BC00828B83A3A312247C740112175A85820E6A
:1035CC0085830F780E121979740512175A121990F7
:1035DC007CFF7DFF12060074041217258B0FEA4541
:1035EC000F7033850C82850D83123825121979855D
:1035FC000C82850D83A31219907C027D007AED7BE1
:10360C00901203787404121725E9700A74011217CA
:10361C005A74FFF0A3F08E828F83E06402703975C8
:10362C000C02750D00780C1219798E828F83123171
:10363C00B3E5082404FAE5093400FB120F84740284
:10364C00121725850A82850B83E0240280097401F8
:10365C0012175AEEF0A3EFF0740112175A12383603
:10366C00F0740112175AA312382E0237B2E50E4528
:10367C000F60030237B8850C82850D831231B4AA12
:10368C0016AB17120732850A82850B837402F0EA97
:10369C00850882850983F0851282851383EB0237B6
:1036AC00B5E50E450F60030237B8123848F8A3E0B1
:1036BC00F9850A82850B837402F0E88508828509F6
:1036CC0083F0E98512828513830237B5850C8285D8
:1036DC000D8312306C120F7EEAFC8C82A882C3958B
:1036EC000EE4950F405FE8650E7002E50F70047CE8
:1036FC00008022851882851983E0FAE50E2AFAE506
:10370C000F3400FBC3EA98EB94005003E08005E50E
:10371C000ECCC39CFCEC850A82850B83F08C0A755D
:10372C000B00780A121979850C82850D83E0250E21
:10373C00FCA3E0350FFDAA08AB09120F847402122A
:10374C001725023812751007023812E50E450F7056
:10375C005B850C82850D83123B20850A82850B8349
:10376C007407F08882898312382E12381EE0851275
:10377C0082851383F0E82402FAE93400FB8A828BF9
:10378C008312382E12385D123836A312386612386E
:10379C003AF0E82405F8E93400F988828983123874
:1037AC003AA312387EA3A3A3A3F0805A75100B8002
:1037BC0055741D12175A12306C1206C68A828B83EE
:1037CC00E5824583603D123B20880C890DE8450D50
:1037DC006031780E121979780A1219797808121951
:1037EC0079740612175AE0F9EEFCEFFDAA16AB1726
:1037FC00850C82850D831217647406121725E9F562
:10380C0010800375100EA91074051217257F100275
:10381C001838F088828983A322E0F50E750F0078A2
:10382C000E22E085088285098322123885221238FF
:10383C0085A3A322E0F508A3E0F50922850C828577
:10384C000D83E0F8A3E0F5838882E022123B24E8A4
:10385C0022A3A3F08A828B83A322122386A3A32202
:10386C00F08A828B8312387522E0F50A750B00788A
:10387C000A2212381E12388522E0850882850983B7
:10388C00A3A32274EE12176674FE12170F8A0A8B0A
:10389C000BECFAEDFB741412175AE0F510A3E0F5DB
:1038AC0011741612175AE0FE741812175AE0F50E1E
:1038BC00A3E0F50F851882851983AC82AD831205C0
:1038CC00FA8A0C8B0DEA450D60498518828519839F
:1038DC0012306C1206C68A828B83E5824583602F78
:1038EC00A3A3123840E50845096024780E12197913
:1038FC007810121979EEF9AC0CAD0DAA0AAB0B8548
:10390C0008828509831217647404121725800679BE
:10391C000E80027901022CDE74F612176674FE1208
:10392C00170F740C12175A12385885188285198380
:10393C00F0740112175AE9F0E4F508F50978081249
:10394C0019797508027808121979740412175A85B6
:10395C008208858309780812197912071A740612DD
:10396C00172574021217257F0202183874F71217E4
:10397C0066EAFEEBFF89087CA57D03120732EA5448
:10398C0002600BA908EEFAEFFB1205EE800279013A
:10399C0002334374F612176674FF6A700374FF6B7C
:1039AC00701B7B00EB75F003A4F8A9F0EC28F8ED84
:1039BC00391223770BEBC39404501480E7120702DF
:1039CC008A088B09A808A909E849600312237880A2
:1039DC009674F61217661207028A828B83E582456B
:1039EC00836006A3A3E0FA80027A007B000239739D
:1039FC0074F21217668A088B09ECFEEDFF740E1236
:103A0C00175AE0F50A1207028A0C8B0DA80CA90DA7
:103A1C00E8497026EEFCEFFD7AFF7BFF1207028A65
:103A2C000C8B0DA80CA90DE849700479118016882F
:103A3C00828983E508F0A3E509F088828983A3A332
:103A4C00E50AF079007F0602183874EE121766EA60
:103A5C00FEEBFF8C088D09890C741412175A123B5B
:103A6C0020741612175A12306C750D00E849600359
:103A7C00023B147402650C6003023B0F74121217A4
:103A8C005A123B2AFCA3E0F9EC2400F50EE439F5BC
:103A9C000FEAF4F8EBF4F9EC58F8E50F59F9E849AA
:103AAC00705CE5082406F8ED3400F9880A890B8867
:103ABC0082F583123B351207328A108B11E50E65A5
:103ACC00107004E50F65116042780E121979850AA1
:103ADC0082850B83123B351207387402121725E9C5
:103AEC00F50D7027780E121979850882850983A344
:103AFC00A3123B3312074A7402121725800D750D61
:103B0C00808008750D0D8003750D0BA90D0231BF5A
:103B1C008E828F83123B2422E0F8A3E0F922123B21
:103B2C002488828983E022A3A3E0FCA3E0FDEEFAC3
:103B3C00EFFB223400F50D850C82F58322E028FE84
:103B4C00A3E039FF8E828F83E02274F2121766EAAB
:103B5C00FEEBFF890B7401650B600E7402650B7034
:103B6C006B7901120900E97063EEFAEFFB1206FCA7
:103B7C008A088B09EA45096048750A00800B7C1796
:103B8C007D007900120F9C050A900372E0F8E50A9B
:103B9C00C3985022E50A75F017A4F8A9F08508829D
:103BAC00850983A3A3E028FAA3E039FB8A828B83DF
:103BBC001238584970C885088285098374FFF0A3B0
:103BCC00F07CA57D03EEFAEFFB12072C023A517440
:103BDC00F21217668A088B09ECFEEDFF740E1217B1
:103BEC005A1233C5901180E0F4603D7A097B0012C3
:103BFC000FAEEA4B60328A828B8374B1F0A3E4126D
:103C0C00385FA312385DA3E508F0A3E509123C3731
:103C1C00EEF0A3EF123C37A3A3E50AF0A3E50BF0FB
:103C2C00901180E0F9120FBA023A51F08A828B831C
:103C3C00A3A3A3A3A322C082C0839061907404F0B9
:103C4C00A37448F0A3E4F09061807440F09061BCE0
:103C5C007407F09061877469F09061B67416F0790E
:103C6C0000120A087902120A0E902310E493F460F1
:103C7C0006E493F91209E47905120D68024063C059
:103C8C0082C083E9540FF9906185E0696012E5C642
:103C9C0054804449F5C6E59E547F644970F8E9F0B8
:103CAC0053C680E59E547F70FA02406374F7121776
:103CBC0066E5A8FE53A87E1209F0C2BA539AFEC25A
:103CCC0089759B00C2C21209F675A91175B9051246
:103CDC0009FCD2BA439A0174805E42A8024F87C095
:103CEC0082C083906181E4F0A3F0A3F0024063757D
:103CFC00E90075910075BF00020122C082C083905B
:103D0C006181E4F0A374C0F0A3E480DFC082C083BF
:103D1C0074F812170F90047B1253D67003023DF700
:103D2C0090047BE0544060237908851882851983C0
:103D3C00AA82AB83120B1C851882851983AA82ABCD
:103D4C00831207BC90047BE054BFF0E054806010F9
:103D5C00790C7A1B7B08120B1C90047BE0547FF0CF
:103D6C00E0A2E0500F7900120A081207C290047BFF
:103D7C00E054FEF0E05402600F7901120A081207B9
:103D8C00C290047BE054FDF0E05404600F79001203
:103D9C000A0E1207C890047BE054FBF0E054086054
:103DAC000F7901120A0E1207C890047BE054F7F049
:103DBC00E05410600F7902120A0E1207C890047BAF
:103DCC00E054EFF0E05420600F7903120A0E120752
:103DDC00C890047BE054DFF0A3E05401600D120A9C
:103DEC001A1207CE90047CE054FEF07408121725CA
:103DFC00024063C082C083E9600514602A804F9042
:103E0C00619A7433F0A37455F09061A0743AF090F9
:103E1C0007F5E064017009C29190047D7467802DF0
:103E2C0090047D7461802690619A743FF0A3745A5B
:103E3C00F09061A0747FF09007F5E064017009D2F6
:103E4C009190047D7471800590047D746AF0024039
:103E5C0063C082C083E9600B14600D14601714609A
:103E6C000C8020902314801590231580109007F55A
:103E7C00E0640170059023168003902317E493905F
:103E8C006186F002406374EE12176674F412170F19
:103E9C00851882851983AC82AD8375839075827980
:103EAC00740412162290231493F46003023FBC9006
:103EBC007808E0C394025003023F9C740412175A12
:103ECC00AC82AD837583907582307408121622FC17
:103EDC007EFF7FFF8E0C7D008C8285820E800F749E
:103EEC00086D606D74096D6068740A6D60638D088F
:103EFC00750900740278081216FC123FC61215DF01
:103F0C00A909E50AC9F88810741878081214FAE59A
:103F1C00104508FAE9FBE50EC333F8E433F97404F1
:103F2C0012175AE58228F582E583391246B8C3E8A0
:103F3C009AE99B4008E8C39AF8E99B8006EAC39883
:103F4C00F8EB99F9C3E89EE99F5006E8FEE9FF8D6E
:103F5C000C0DEDC39413408774FF6E700374FF6FE8
:103F6C006024850C08740278081216FC123FC612E5
:103F7C0015DF851882851983E582250EF582E58388
:103F8C00124AD1E508F00CECC394045003023EDC59
:103F9C007508017509007808121979740212175AFC
:103FAC00AC82AD837AC57B081211E8740212172516
:103FBC00740C1217257F0A02183874482508F582EC
:103FCC0074783509F583780822C082C083906186A5
:103FDC00E0F8902317E493687009902316E493900B
:103FEC006186F09061AE7468F0A3746AF0906245DB
:103FFC0074FBF0A304F053F4FD43FE029007F57438
:10400C0001F09061A0E0643A7004790080027901BB
:10401C00120A080240637F04021838C082C08390E1
:10402C0007D3E0640170139007D9E0F8740168605D
:10403C0019E87006A3E0640160109007EAE06401DF
:10404C00700C9007F0E064017004790C8002790028
:10405C008005E0F912221CD083D082020122124783
:10406C005E940622E0C4333354C022C082C08390D5
:10407C0007DD7425F09007DB7401F0A3E4F07A01FE
:10408C00FB120CE41240C32416F582E8124AD174D8
:10409C003EF0A3740AF09007DAE064017016900702
:1040AC00D9E070107901120D44120D14120D3E79E5
:1040BC0000120D500240639007C91244472274F657
:1040CC0012176674FA12170F9007D2E06401700889
:1040DC00120A269007D2E4F075E1F11240C32415C0
:1040EC00F582E8124AD17401F09007D4E0640170B3
:1040FC0053909051C082851882851983AC82AD8310
:10410C00758390D082740612162275D90D9007CB48
:10411C001240704403F5D97800880874CC125060B2
:10412C00740712406A40F278008808851882851955
:10413C0083E582125060E58312406A40EC75E1958C
:10414C00790180027900120CEA9011A21241C0741C
:10415C00C4F0A3740BF0A31241C01241C01243145B
:10416C0074CAF0A3740B1243299007CBE0F97ACCF4
:10417C007B07120CC69007DDE0F912221C790112A4
:10418C000CF090905D1215FD120D089090AD12156B
:10419C00FD120CD27900120D5C1240C32414F5826E
:1041AC00E8124AD17416F09004797405F0041217D1
:1041BC00250247C874BEF0A3740BF0A32274F4124A
:1041CC0017668908A808124ECC9007E2E0F97AE34A
:1041DC007B07120CC69007F0E0701A7900120D26BE
:1041EC009007B8E070047900800279017AB97B07F6
:1041FC00120CCC80057901120D2675E1F175D923CD
:10420C009007E21240704405F5D97800880A74E3EF
:10421C00250AF582740712406A40F175D90075D9E8
:10422C000075D90075D90075D90075D9007A0012BE
:10423C005322242212467740F67A00125322242667
:10424C00F582E91247D00AEAC3940340EEEE242B20
:10425C001247CD7A00125322242C12467D40F67A56
:10426C0000125322242E12467D40F67A001253225D
:10427C00243012467D40F67A001253222432124624
:10428C007D40F67A008A0AEE250AF8EF124BE91205
:10429C004689940540EFEE2437F582EF124E2054F8
:1042AC001FF8EE242AF582EF124E20C43354E04856
:1042BC00F5D975E1959011A2748EF0A3740BF0A34F
:1042CC007494F0A3740B12430B749AF0A3740B1236
:1042DC0043299007EFE0F912221C90905D1215FD16
:1042EC00120D089090AD1215FD120CD290600DE4D9
:1042FC00F07901120D5C9004797406F0024022F002
:10430C00A312431412431422124318227488F0A3EC
:10431C00740BF0A37488F0A3740BF0A32212432D3A
:10432C0022F09011B0124339A312433922124318D0
:10433C007488F0A3740BF02274EC1217669007E0EB
:10434C00124EE378101215DF9007F1E0FAF875F0D1
:10435C0005A4C8ACF02CF974D728F582740439F58F
:10436C0083E0FEA3E0FFEEC333FEEF33FF8E0CF5CC
:10437C000D750E00750F0085100885110985120A40
:10438C0085130B90907178081215457808121975E1
:10439C0085100885110985120A85130B7808790C8C
:1043AC001215327810790C12148AE4F50EF50F7888
:1043BC0008790C12156B8A0C750D007403780C12AD
:1043CC0016FC7808790C1215329090C578081215E5
:1043DC00A6AA08AB09AC0AAD0B1221B474041217CF
:1043EC00258A088B09A808A909C3EE98EF995006ED
:1043FC00E82EF8E93FF9E890600EF0E9A3F0EEA39F
:10440C00F0EFA3F090600D74C1F07F0C021838C06F
:10441C0082C0839007C912443B9007DD02405EC006
:10442C0082C0839007E012443B9007EF02405E127B
:10443C0044472406F582E812486922E0F8A3E0C854
:10444C002202012274F21217661245BAF50AEF1213
:10445C0049476004780480027800E8240EF8EAC327
:10446C0098500302451775080C9007FBE4F0EE24F6
:10447C0076F582EF124E209007FCF07902EE24774D
:10448C00FCEF3400FD7AFD7B07120B0A7902EE2457
:10449C0079FCEF3400FD120B0A7902EE247BFCEF61
:1044AC003400FD120B0A7902EE247DFCEF3400FD82
:1044BC00120B0AEE24741245D0120B0A850A82855F
:1044CC000B83E0601E7508FB7509077808121979D3
:1044DC007C0C7903EEFAEFFB120B7C74021217259D
:1044EC0075081074012508F5D975D9037800800971
:1044FC00880A74FB250A1245AFE8C3950840F1758C
:10450C00E1957904120D0E7901800279007F060283
:10451C00183874F21217661245BAF508EF3400F524
:10452C0009850882F583E06004780480027800E84D
:10453C00240AF8EAC3984060750A089007FB7401D6
:10454C00F079057CBF7D077AFC7B07120B0AEE2401
:10455C00801245D0120B0A850882850983E0601E03
:10456C007508FB75090778081219797C087903EE30
:10457C00FAEFFB120B7C7402121725750A0C124809
:10458C004680031245A9E8C3950A40F775E1957971
:10459C0004120D0E79018002790002451988087405
:1045AC00FB2508F5827407124E24F5D90822124512
:1045BC00BE22EAFEEBFF9061D0E0F87480C398FA5B
:1045CC00EE248222FCEF3400FD8E828F83A3A3A302
:1045DC00A3A31253E58C828D83E028F0A3E039F07D
:1045EC0079022274F6121766EAFEEBFF9061D0E0B6
:1045FC00707475D91875D90375D9037A008A08EEC9
:10460C002508125327249B12469040F17A008A0801
:10461C00EE250812532724A312467D40F17A008A16
:10462C0008EE2508125327249312469040F17A0085
:10463C008A08EE2508125327248712467740F17515
:10464C00E1957908EE2493FAEF3400FB120B107904
:10465C0004EE2487FAEF3400FB120B107904120DD0
:10466C000E124699800279000247C81246839404C0
:10467C0022124683940222F582E9124F7CE0F5D98E
:10468C000AEAC32212468394082275E195EE246F40
:10469C00F582EF124F781253E5EE2471F582EF128A
:1046AC004F78E8F0A3E9F07901223400F583125336
:1046BC00E52274F6121766EAFEEBFF9007FB740610
:1046CC001247681219797C017903120B7C7402125F
:1046DC00172575D90675D903780012474E40FB751E
:1046EC00E195900479E064087017EE246FF582EF81
:1046FC001246B6EE2471F582EF124AD1E8F0A3E926
:10470C00F079010247C874F6121766EAFEEBFF90C7
:10471C0061D0E070299007FB740A1247681219796E
:10472C007C017903120B7C740212172575D906755E
:10473C00D903780012474E40FB124696800279004E
:10474C00807A880874FB2508F582740712475E94FA
:10475C000522124F7CE0F5D908E8C322F07508FB5E
:10476C0075090778082274F6121766EAFEEBFF90BB
:10477C0061D0E0704279019007FB740BF0900479E2
:10478C00E0640770197508FB750907780812197928
:10479C007C010909120B7C7402121725790574012E
:1047AC0029F5D975D903780080031245A9E8C39976
:1047BC0040F8124696800279008001F07F020218C0
:1047CC0038F582EF124E24F5D92274F512176612C1
:1047DC0048716004780480027800E8240BF8EAC37E
:1047EC00984052750A099007FB7408F0F912485268
:1047FC00120B0A850882850983E0601E7508FB751B
:10480C00090778081219797C097903EEFAEFFB1283
:10481C000B7C7402121725750A0D12484680031280
:10482C0045A9E8C3950A40F775E1957904120D0E78
:10483C0012469980027900024AC77401250AF5D9FB
:10484C0075D903780022EE24E4FCEF3400FD7AFCE9
:10485C007B0722EE241DF582EF12486922124F7C51
:10486C00E4F0A3F0221245BEF8EF12487A2234008D
:10487C00F9880889098882F583E02274F312176697
:10488C008A088B091249DDFAE5082482F50AEB1235
:10489C0049476004780480027800E82408F8EAC3E9
:1048AC00985003024940750C069007FB740CF0906D
:1048BC000496E09007FCF07402C0E0F97C977D044C
:1048CC007AFD7B07120B0AD0E0F97C997D04120B60
:1048DC000A850A82850B83E0601E750AFB750B073F
:1048EC00780A1219797C067903AA08AB09120B7C99
:1048FC007402121725750C0A7401250CF5D975D99B
:10490C000378008009880A74FB250A1245AFE8C3B6
:10491C00950C40F175E1957904120D0EE508246FA4
:10492C00F582E5091246B6E5082471F582E509120F
:10493C0046AB800279007F050218383400F50B85F0
:10494C000A82F583E02274F6121766EAFEEBFF1278
:10495C0049DDFCEE2482F8EF124A6060047A048090
:10496C00027A00EA2404FAECC39A40607A029007B7
:10497C00FBEAF0EE24F6F582EF1249E7601B7508AE
:10498C00FB75090778081219797C027903EEFA1283
:10499C000B7C74021217257A0674012AF5D975D985
:1049AC0003780080031245A9E8C39A40F875E19595
:1049BC00EE2473125065EE247F12506512485F7915
:1049CC0004120D0EEE240D12469C80027900024753
:1049DC00C89061D0E0F87480C39822124E249007DE
:1049EC00FCF088828983E02274F61217661249DD86
:1049FC00FEEA2482F8EB124A6060047C0480027C9C
:104A0C0000EC2404FCEEC39C40457C029007FB7434
:104A1C0007F0EA24F7F582EB1249E760177508FBFB
:104A2C0075090778081219797903120B7C74021234
:104A3C0017257C0674012CF5D975D90378008003F1
:104A4C001245A9E8C39C40F875E19579018002797B
:104A5C00000247C83400F988828983E02274F51279
:104A6C001766E9FEA2AFE433F50AC2AF7F00EA2471
:104A7C006EF8EB3400F980010F88828983E0F50829
:104A8C00EFC3950850188F08EA2508FCEB3400FD9D
:104A9C00EC246AF582ED124E206E70DC8017EA254C
:104AAC0008FAEB3400FBEA246AF582EB124AD1EEE9
:104ABC001249ED04F0E50AA2E092AF7F0302183828
:104ACC00246AF582E9124F782274F6121766A2AFA7
:104ADC00E433FFC2AFEA246EF8EB125114E014F089
:104AEC007E0080198E08EA2508F8EB125329246BF6
:104AFC00124E1DC0E0E8124ACCD0E0F00E8C828D34
:104B0C0083E0F8EEC39840DCEA246DF582EB124AA0
:104B1C00D174FF124B4AEFA2E092AF0247C8C08299
:104B2C00C083E5A8F8C2AFEA246AF582EB124AD139
:104B3C00E9124B4AE8A2E7A2E792AF024063F0EA1F
:104B4C002469124B5222F582EB124F7CE4F0227452
:104B5C00F21217668C828D83A3A3A3A3E0541FF0DB
:104B6C00EA243612510A8E828F83E4F0F50C850C00
:104B7C008285820AEC250AF8ED12487AC0E0EA2513
:104B8C000AF8EB124BE9D0E0F0750D008508828530
:104B9C000983E0F50A750B00E50D780A1216DDE5C0
:104BAC000AA2E05023E50C33333354F8250DC0E052
:104BBC008E828F83E0F8124DBD2438124ACED0E09D
:104BCC00F08E828F83E004F0050DE50DC394084050
:104BDC00BB050CE50CC3940540940245193400F94F
:104BEC00E8245DF582E9124F782274F4121766906E
:104BFC0004A5E064037003024DA37E00EEF875F08B
:104C0C0005A4C8AAF02AF974AB28F582740439F506
:104C1C0083E06003024D9974A928FA740439FB8A65
:104C2C00828B83A3A3740112537CA3A3A3E4F0EAA5
:104C3C002404F8EB125329FCE9FDEE8C828D83F0F1
:104C4C00EA2462124DAA2467F582EB124AD1740150
:104C5C00124DCFE4F0A3124DCFA3A3124DCA240FD3
:104C6C00124DAA2435F582EB125068F508F509F5BA
:104C7C000AF50BEA2418124DB21215EEEA241C1296
:104C8C004DB8241D124DC6247F124DB82473124DFD
:104C9C00B82468F582EB124AD17480124B4AEA248C
:104CAC006E124DB824EC124DB824ED124DB824EE12
:104CBC00124DB824EF124DB824F0124DC624F21246
:104CCC004DC624F5124DB82482124DB824D2124D83
:104CDC00B824D3124DB824D4124DB21215EEEA24D6
:104CEC00D8124DB21215EEEA24DE124DB824E012A1
:104CFC004DB824DC124DB824E1124DB824E2124D0B
:104D0C00B824F8124DC624FA124DC624FC124DC616
:104D1C0024FEF582EB124865FE8E08EA2508F8EBB6
:104D2C00125329124ACC74FFF00EEEC3940440E9DE
:104D3C007E008E82A88274BF28F5827407124E20E2
:104D4C00C0E0124DBD245D124ACED0E0F00EEEC391
:104D5C00940540DE7E008E82A882748D28F58274C4
:104D6C0004124E20C0E0124DBD24E4124ACED0E015
:104D7C00F00EEEC3940840DE9004A5E004F064014C
:104D8C0070198C828D83E09004A7F0800E0EEEC318
:104D9C0094035003024C087A007B00024022124F0D
:104DAC00757401F0EA22124F75780822124B52EA00
:104DBC0022EA28F8EB3400F9E822124F75E4F0A34C
:104DCC00F0EA22F08A828B83A3A3A3A3A322C0823E
:104DDC00C083EA2403F582EB124E206008E4F090C5
:104DEC0004A6E014F09004A5E014F070069004A75B
:104DFC0074FFF08A828B83A3A3E4F09007C4E07065
:104E0C000D9004A6E0640170057900120CD80240E4
:104E1C0063F582E9124E2422124F7CE022C082C03C
:104E2C00837B00EBF875F005A4C8AAF02AF974A5E9
:104E3C0028F87404125034A3A3A3A3E4F088828945
:104E4C0083A3A3A3A3A3A3F00BEBC3940340D4901D
:104E5C0004A5E4F0A3F0A374FFF075E1F102406344
:104E6C0074F5121766750800750900750A00A80A12
:104E7C00124ECC8E828F83A3A3A3E0602BE5084552
:104E8C0009601D850882850983124EE312198C1264
:104E9C004EDF1215FD1221587404121725E9700803
:104EAC00EEF8EFF988088909050AE50AC39403406E
:104EBC00BD850882850983A3A3A3A3E0F9024AC791
:104ECC00E875F005A4C8AAF02AF974A928FE7404A0
:104EDC0039FF228E828F83E0F8A3E0F5838882A3CA
:104EEC00A32274F712176678FF79FF7F00EFFC7529
:104EFC00F005A4CCAEF02EFD74A92CFC74043DFD81
:104F0C008C828D83A3A3A3E0603EEC2473F582ED29
:104F1C00124E20FE74FF68700374FF6970077401F1
:104F2C006E701C800D74016E700DEC2479124F683C
:104F3C005016EC2479800BEC242E124F685009EC9F
:104F4C00242EF582ED1246B60FEFC39403409EC398
:104F5C00EA98EB994004E8FAE9FB801FF582ED1220
:104F6C004F78C3E098A3E09922F582EB124F7C2294
:104F7C003400F58322A2E092AF79007F0102183849
:104F8C0074F6121766EAFEEBFFEE2463F508EF34B5
:104F9C0000F5098016AA08AB09120AFE1212D2906B
:104FAC0007C5E004F09007C6E004F0850882850987
:104FBC00831253D670DFEEFAEFFB120AAAEEFAEF69
:104FCC00FB120C060247C874F7121766EAFEEBFFD9
:104FDC008E828F83A3A3A3A3E0FA7B00120816EEA4
:104FEC00FAEFFB120AC2120BE88090C082C0837BDE
:104FFC0000EBF875F005A4C8AAF02AF974A928F8F2
:10500C007404125034E06014E8246E124E1D600CCF
:10501C00E8246A124E1D7004790180090BEBC394CD
:10502C000340CE790002406339F988828983A3A3B7
:10503C00A32274F612176678008808748D125060DB
:10504C00740412506808E8C3940840ED90048D7401
:10505C00010247C72508F58222F582EF124B552233
:10506C0074F712176674FC12170F85188285198352
:10507C00E4F0A3F0A3F0A3F0120B16E985188285D7
:10508C001983F0120B16740112175AE9F0120B1651
:10509C00740212175AE9F08518828519831215FDCE
:1050AC007404121725024F8774F6121766EA240D42
:1050BC0012510AEC2403F8ED3400F988088909EC44
:1050CC002407F8ED1251141246BA8508828509831B
:1050DC00E0FAA3E0FB1216848E828F83E8F0A3E93A
:1050EC001253DC850882850983E0FAA3E0FB1216D3
:1050FC00848B09EA450960031251200247C8F8EB7A
:10510C003400F9E8FEE9FF223400F9E8FCE9FD8CF3
:10511C00828D83228E828F83E02401F0A3E0340001
:10512C00F02274F6121766EA242EF582EB124E204A
:10513C00FCA3E0FDEA246F12510A780079FAECFA2C
:10514C00EDFB1216848E828F83E8F0A3E9F07800D1
:10515C0079FAECFAEDFB1216848B09EA4509600327
:10516C001251200247C874F0121766EAFEEBFF7466
:10517C001012175A78081215DF120C9C8A0C8B0D22
:10518C008C0E8D0F9090A9780C1215459090C578C7
:10519C000C1215A6780C121975124EDF1215FD1291
:1051AC0021587404121725E9600302525A8E828F1B
:1051BC0083E02402F8A3E0125329FAE9FB8A828BDC
:1051CC008378081215589090C578081215DF8A82DA
:1051DC008B8378081215B9EE240BF582EF124AD1A5
:1051EC00C082C0838E828F83A3A3A3A3A3E02401D8
:1051FC00F8A3E03400F9D083D082E0687003A3E018
:10520C0069700479018049EE2407F8EF3400F988BD
:10521C00828983125124EE24731252617014EE248D
:10522C007412526A7003A3E06D70078A828B83122A
:10523C005124EE247F1252617014EE248012526AB3
:10524C007003A3E06D70078A828B8312512479005E
:10525C007F08021838F582EF124E24640122FAEF0F
:10526C003400FB8A828B83E0FCA3E0FD8882898377
:10527C00E06C2274F3121766E9FEECFFEA2462F587
:10528C0082EB125264600302531D9061D0E0F5086A
:10529C00EA2482F582EB124E20F50C60047804802F
:1052AC000278007480C39508FC95E0FDEF28F8E4C3
:1052BC001253292402F8E93400F9EC98ED99A2D2A2
:1052CC0065D0334048740D12175AE0F50AA3E0F587
:1052DC000BE50C6015780A121979EFFCEEF9120B3C
:1052EC007C740212172574042FFF74012FF5D98ECC
:1052FC00D97800800C8808E50A125060E50B12453D
:10530C00B3E8C39F40EF75E195790080067907807B
:10531C000279FF0249428A0AEE250AF8EF3400F9B5
:10532C00E82274F7121766A2AFE433F508C2AFEAAD
:10533C002402F8EB3400F98A828B83E0FEA3E0FFB1
:10534C00EE4F600E88828983E0FAA3E0F5838A82AF
:10535C0080048A828B83ECF0A3EDF088828983121F
:10536C005382F0E508024F818C828D83E8F0A3E92B
:10537C00F08A828B8322ECF0A3EDF08C828D83E497
:10538C00F0A32274F7121766EAFCEBFD7A007B009F
:10539C00A2AFE433FEC2AF8C828D831253D660224F
:1053AC00E8FAE9FB8A828B831246BA125374E4F052
:1053BC00A31253DCE849700A8C828D83A3A3E4F01A
:1053CC00A3F0EEA2E092AF024F871253E5E8492218
:1053DC00F08C828D831253E522E0F8A3E0F922C011
:1053EC0082C0838003125419E9F874FF28190470E1
:1053FC00F4ECFAEDFB024063C082C08380031254CC
:10540C0019E9F874FF28190470F40240638C828D3A
:10541C0083E08A828B83F08C828D83A3AC82AD83F4
:10542C008A828B83A3AA82AB832274F012176674D0
:10543C00FA12170F890BECFEEDFF750A008A088B28
:10544C000978081219BD000410805679549754B18C
:10545C0054C954E754FF5422553A554E55785500CB
:10546C0056115628564256805663568E5574016511
:10547C000B600302567B8E828F83E0F8C39403404B
:10548C000302567BE89011C40256787402650B60D7
:10549C000302567B8E828F83125E389011C5E8F022
:1054AC00A3E90256787401650B600302567B125611
:1054BC00AD400302567BE8900DBF0256787401652F
:1054CC000B600302567B8E828F83E0F8C3940540F9
:1054DC000302567BE8900DC00256787401650B6090
:1054EC000302567B1256AD400302567BE8900DC169
:1054FC000256787410650B600302567B75081075A4
:10550C00090078081219797AC27B0D120F84740283
:10551C001217250256A17401650B600302567B120B
:10552C0056AD400302567BE8900DD20256787401BA
:10553C00650B600302567B8E828F83E09011C8024C
:10554C0056787404650B600302567B8E828F8378C9
:10555C000C1215DF909089780C1213EB5003025645
:10556C007B900DD4780C1215EE0256A1E960030263
:10557C00567B120510E970051211708060900E6751
:10558C00806E7407650B600302567B7508067509FF
:10559C000078081219798E828F83A3AC82AD837444
:1055AC000212175AAA82AB83120F8A7402121725A1
:1055BC007C007D00851882851983AA82AB838E823C
:1055CC008F83E0F912110AE9F508C3940A4003022B
:1055DC00569E120510E9700CA9081211767950121A
:1055EC001356806E74682508F582740E3400F583AA
:1055FC00740180787401650B70751256AD5070E8AB
:10560C00900DD380677401650B70648E828F83E07C
:10561C00F8C3940A5059E89011C780507401650B77
:10562C00704D8E828F83E0F874F928C3940A503F32
:10563C00E89011C980367401650B7033900E66E0EA
:10564C00F88E828F83E0900E66F0E87048E064017B
:10565C007043121164803E7401650B70128E828F40
:10566C0083E0F8C394045007E89011CAF0802675C3
:10567C000A188021C3EA9427EB9400501574026534
:10568C000B700F8E828F831262281203F6E9F50AD3
:10569C008003750A02A90A74061217257F080218DE
:1056AC00388E828F83E0F8C394022274F21217664C
:1056BC0074DA12170F890AECFEEDFF742012175AD8
:1056CC00AC82AD8375839075824B7406121622746E
:1056DC002012175AAC82AD8312110AE9F508743402
:1056EC0012175AE0F50BE9C3940A40030258121240
:1056FC00114CE9F5099011C4E06402700474018046
:10570C0001E4F50C780C12197DAD0BAC09A908EE6F
:10571C00FAEFFB12119A74011217257C147D007993
:10572C0000740C12175AAA82AB83120F9C75F006E8
:10573C00E508A4F50B740C12175AAC82AD837A10E1
:10574C007424250BF9121350E9703D7C1079FF7409
:10575C000C12175AAA82AB83121002E9702A741C1D
:10576C0012175AAC82AD837A047425250BF91213E7
:10577C0050740C12175AAC82AD83E509A2E0E433E5
:10578C00F9EEFAEFFB12048C851882851983AC8232
:10579C00AD837A0C74702508F9121350E970538597
:1057AC001882851983AA82AB83121140750800E513
:1057BC000875F003A4F8A9F0851882851983E58291
:1057CC0028F8E583126035126222601D8882898375
:1057DC00A3A3E0F50C750D00780C121979EEFAEF15
:1057EC00FB12072074021217250508E508C3940460
:1057FC0040BDE509A2E15046900DBEE0F9EEFAEF8E
:10580C00FB12072680387408650B70329011C4E0C7
:10581C006402702A7C007D00A90AEEFAEFFB1211DB
:10582C0094126AB76018125E3D88828983E58245BE
:10583C0083600B7C007900EEFAEFFB1217647900A1
:10584C0074260261FE74F0121766EAFEEBFF8C08F8
:10585C008D09750A0AE9600C14600914603714602C
:10586C0079025900121158E9F50AC3940A4003024F
:10587C005900E5084509607C750E06750F00780E19
:10588C00121979EEFCEFFDAA08AB09120F84740211
:10589C00121725805F750B00750E06750F00780EBC
:1058AC00121979EEFCEFFDE50B75F00EA4F8A9F0DA
:1058BC0074E028FA740D39FB120F96740212172536
:1058CC00E9600C850B0AE50AC3940A50278016057B
:1058DC000BE50BC3940A501C80BE12115EE9F50A4D
:1058EC00C3940A500FE50845096009AA08AB09A939
:1058FC000A121152A90A0256A874F41217668908E2
:10590C0075091574FF6A700374FF6B70277E00AC09
:10591C00087A027B00EEF912112EE960037509007A
:10592C000EEEC3940A40E8E50860537A887B1112A6
:10593C000912804A1208F48A0A8B0BAE0AAF0BEEDE
:10594C004F60387C007D00EE2405FAEF3400FB8EAE
:10595C00828F83A3A3A3A3E0F912110AE9C3940ACB
:10596C00500CAC087A027B0012112E750900E50868
:10597C00600CEEFAEFFB1211888003750914A9096B
:10598C008005740E1217257F0402183874F2121752
:10599C0066ECFEEDFF750815740E12175AE0F50A49
:1059AC00A3E0F50B74FF6A700374FF6B702175092B
:1059BC0000AC0AAD0BEEFAEFFBA909121134E96049
:1059CC00037508000509E509C3940A503F80E212EB
:1059DC0008F48A828B83E5824583602D7C007D00F0
:1059EC00E5822405FAE5833400FBA3A3A3A3E0F925
:1059FC0012110AE9C3940A5013AC0AAD0BEEFAEF7C
:105A0C00FB1211347508008003750814A908026292
:105A1C0001C082C083900DD8EAF0A3EBF0900DBECC
:105A2C00E0FC7D007A267B001203F6900DBEE0F9B7
:105A3C001206A20266F774EC1217668A088B09E943
:105A4C00FE741412175A780C1215DF7F00EE702EAC
:105A5C00780812197990908978101215DF780C79E2
:105A6C001012148AAA10AB11AC12AD1312049E744E
:105A7C0002121725E9FF60097901AA08AB09120483
:105A8C0098EFF97F0C02183874F012176674EC1248
:105A9C00170FEAFEEBFFEE240CF50EEF3400F50FBA
:105AAC008E828F83A385820A85830BEE2403F508EF
:105ABC00EF3400F5098E828F83A3A3E024FA7003E0
:105ACC00025DD924FD7003025CF0147003025B6C60
:105ADC00146010147003025D2424FE7003025C68D1
:105AEC00025E31EE2409F50AEF3400F50B126AB7A9
:105AFC006043E0F5838882125E38880C890DE84596
:105B0C000D6032850E82850F83E0F50E780E12192A
:105B1C007DEE240BF582EF125FFCF9850A82850B72
:105B2C00831262280A0A0AAB09850C82850D83123E
