:020000040000FA
:0600000002010A0220309B
:03002B0002229D11
:03003B000222BEE0
:030043000222484E
:030053000220A6E2
:03005B0002232855
:03006B0002226E00
:10008300021EDFE5C754F84401F5C77901220000D9
:100093000080FB120086B900030200F4E4791A78A9
:1000A30002B800028004F709D8FCE4791C7802B88E
:1000B30000028004F709D8FCE4900281787D790F6F
:1000C3008002F0A3D8FCD9FA9010FDAA82AB8390EA
:1000D300013A78EA79018015E493A3AC82AD838A6F
:1000E300828B83F0A3AA82AB838C828D83D8E9D9D8
:1000F300E77582867583FF740212011C7582917500
:100103008300740012011C75D00075813F7518813E
:10011300751902759F00020096C09FF59FE473D086
:100123009F22D083D082C09FE493C0E0740193C028
:10013300E0740293F59F22A903BB03E503AF03FF1A
:100143000000B4000028002800283075A000A0009B
:10015300A000A00000080008E001F000100010005B
:10016300100010001000100050005000500010004C
:100173001000D0070000000000000F000100050080
:10018300307507001000010081FF00000000FF022E
:1001930002021A910100000A910214910100005514
:1001A30011021091010000B20202149101000056E5
:1001B30011022A91010000C802FFFF0100FF200283
:1001C3001A910100000D91021491010000841102A3
:1001D30018910000000000021291030000A503958E
:1001E3000B950B950B950B950B950B950B950B950C
:1001F3000B950B950B950B950BAB0DC90DA50DFF32
:10020300FF01E803053F10020AFF00FEFF010B7C1C
:100213000CD78138F3102C02E2900A7C0CD781377B
:100223001201251DBB0312012533BB0312012562F5
:10023300BB0312012598BB03120125AFBB031201B7
:1002430025C6BB03120125FDBB0312012550BC03C8
:1002530012012567BC0312012590B403120125A7DF
:10026300B403120125D8B40312012513B5031201F7
:10027300253DB50312012567B5031201257EB5039C
:1002830012012595B503120125ACB503120125D53D
:10029300B503120125E8B503120125FEB5031201CA
:1002A3002528B6031201252F8E02120125338F0252
:1002B300120125608F02120125B68F02120125D982
:1002C3008F02120125ED8F02120125EF8F02120119
:1002D30025129002120125219102120125E59102B6
:1002E300120125BA92021201252B9302120125B79E
:1002F3009302120125BA93021201254294021201BC
:10030300257D9402120125E49402120125E794024B
:100313001201251E9502120125479502120125F2AD
:1003230095021201257C9602120125CB9602120139
:1003330025D89602120125DB96021201253B97026E
:10034300120125469702120125C59702120125C8FD
:100353009702120125DB9702120125DE9702120193
:10036300256D98021201258798021201259798029C
:10037300120125C79802120125D49802120125D72C
:100383009802120125589902120125469A02120178
:1003930025F89A0212012594B10212012591B202A5
:1003A30012012513B30212012533B3021201257B77
:1003B300B302120125CEB30212012532B402120197
:1003C30025BFB40212012579B50212012588B802AE
:1003D30012012513BA0212012536BA02120125931E
:1003E30095031201253097031201259497031201F7
:1003F30025F397031201250198031201252A980377
:1004030012012573F0021201259BF002120125C986
:10041300F00212012500F1021201255EF102120120
:1004230025A9F102120125F4F10212012534F20289
:100433001201257AF202120125A8F20212012565A2
:10044300F3021201256FF3021201257CF30212015C
:1004530025AFF3021201257BF40212012587F40272
:100463001201259FF402120125A9F4021201252786
:10047300F50212012524C30312012532C30312011D
:10048300254AC30312012562C3031201257AC3035C
:10049300120125B9D50112012565D601120125E006
:1004A300D60112012501D8011201253DD8011201FF
:1004B30025E6D801120125CDD90112012531DB0131
:1004C30012012588DB0112012509DC01120125F93E
:1004D300DC0112012546DD01120125CCDD011201EB
:1004E30025FEDD0112012512E00112012554E00170
:1004F30012012572E00112012514E101120125DC2C
:10050300E101120125E9E3011201253E99031201DC
:10051300255499031201257A9903120125969A030A
:10052300120125A09A03120125D59B03120125CDA3
:100533009C03120125C2840312012566850312015F
:1005430025998503120125E38503120125A6870357
:10055300120125D4A4011201254DA5011201255D27
:10056300A5011201254BA60112012555A601120171
:10057300257AA60112012585A6011201256FA7017F
:10058300120125D2A70112012588A8011201256FA6
:10059300AA0112012528AC0112012504AD011201A3
:1005A30025B8AD01120125F5B001120125A3B10152
:1005B30012012512B30112012592B401120125394A
:1005C300B50112012582B501120125B9B501120148
:1005D3002556B601120125E1B601120125BEB70168
:1005E30012012513B80112012572B90112012582E6
:1005F300B901120125AFB90112012506BA01120191
:1006030025AFBA01120125B6BB0112012580BC0139
:10061300120125E0BD0112012523BE01120125C8E7
:10062300BE01120125EEBE01120125FCC00112011B
:100633002501C10112012506C30112012553C3017E
:10064300120125C6C301120125F9C3011201259B1D
:10065300C40112012544C5011201257CC501120103
:10066300257FC501120125C7C50112012509C60150
:1006730012012560C60112012551AA031201256446
:10068300AA0312012572AA03120125BAAA031201B1
:1006930025D0AA0312012517AB031201252BAC03A6
:1006A300120125B8AC0312012503AD0312012594F1
:1006B3002300120125A4230012012507240012019F
:1006C300254C2400120125022500120125DD2500F9
:1006D3001201250626001201253626001201257671
:1006E30028001201255D2A00120125352C00120174
:1006F30025792D00120125E02F00120125EE30008F
:100703001201254032001201254A33001201258CC3
:100713003300120125C43300120125E63300120110
:10072300254934001201250B3900120125A0390097
:10073300120125F439001201251B3A001201255933
:100743003A00120125783A00120125D23A0012012B
:1007530025D23B00120125573C001201259FEA02D6
:10076300120125A9EA0212012551EB021201259477
:10077300EB02120125AFEB021201253FEC0212013D
:100783002567EC021201259FEC02120125D6EC022B
:10079300120125FFEC0212012539ED021201254E4B
:1007A300ED021201251BEE021201253EEE0212019B
:1007B3002560EE0212012575EE02120125FBEE0201
:1007C30012012535EF02120125ADEF02120125F6C4
:1007D300EF0212012520F0021201254BF002120153
:1007E3002505BF0312012502E40112012530E401AE
:1007F3001201258BE5011201256BE6011201258A01
:10080300E60112012507E7011201254AE70112015A
:1008130025C5E80112012534E9011201255FEB0129
:10082300120125E3ED0112012594EE011201258A3F
:10083300EF011201252AF00112012528F10112010D
:1008430025B3F1011201257EBC03120125E7BC0388
:100853001201253BBD031201256ABD031201258B3D
:10086300BD03120125438903120125B08903120137
:1008730025F789031201250F8B031201250B8C0326
:10088300120125EE8C0312012512DD0212012554FB
:10089300DD021201252DDE0212012527DF021201DE
:1008A3002509E00212012572E0021201258EE10200
:1008B300120125FAE102120125FDE10212012526AA
:1008C300E202120125A0E20212012545E302120110
:1008D300255AE302120125A0E302120125B9E3021E
:1008E300120125BCE302120125D79C031201251333
:1008F3009D03120125519D031201251B9E03120125
:10090300258A9E03120125C59E03120125039F0319
:10091300120125339F031201255A9F03120125C893
:100923009F031201250AA003120125456B00120142
:1009330025086D00120125D36E001201250F6F00EB
:100943001201253C6F00120125FE6F00120125459F
:1009530070001201258970001201259B700012019D
:1009630025DB700012012508710012012556710064
:10097300120125907100120125B3710012012505A2
:10098300720012012593720012012569730012018E
:1009930025537400120125227600120125237B00C2
:1009A300120125727B00120125B97B00120125EC8F
:1009B3007D00120125F9AF031201256BB00312016B
:1009C30025C1B00312012505B10312012525B10389
:1009D30012012572B103120125BAB1031201250DCB
:1009E300B2031201255EB203120125BE3C001201BF
:1009F30025073D00120125343D00120125673D0006
:100A0300120125773D00120125833D001201259433
:100A13003D001201257B3E00120125D93E00120143
:100A2300250E3F00120125514000120125A340006D
:100A3300120125F34000120125464100120125450C
:100A43004200120125C04300120125974400120100
:100A530025A74400120125C94400120125CC4400F6
:100A63001201259A45001201256B46001201253A11
:100A730047001201258E4700120125EE470012019F
:100A830025524800120125034900120125CE4900D1
:100A9300120125704A00120125E54A001201255171
:100AA3004B00120125A64B00120125D74B00120162
:100AB30025724C00120125564E00120125A54E0049
:100AC300120125E84E001201256A4F001201250884
:100AD30050001201254F50001201257350001201DE
:100AE30025BA5000120125E85000120125305100AB
:100AF300120125AA5100120125EE5100120125FB16
:100B03005200120125AA53001201250B54001201B1
:100B13002567540012012580540012012561BB0290
:100B2300120125B4BB02120125C0BB021201259597
:100B3300BC02120125BCBC02120125F7BC02120142
:100B43002563BD021201259FBD02120125D8BD02F6
:100B5300120125F0BD0212012545BE021201255ED8
:100B6300BE02120125A7BE02120125BABE0212015E
:100B730025D4BE02120125EABE021201251DC002C0
:100B830012012564C10212012566C2021201256009
:100B9300C302120125F17F00120125AFF5021201F4
:100BA300251EF90212012557FA02120125699B023B
:100BB300120125DF9D02120125E59D021201254D3B
:100BC300A002120125B4A202120125A2FA02120107
:100BD3002538FB02120125EFFB0212012519FC0245
:100BE3001201250CFE0212012534FF0212012530E9
:100BF3009101120125649101120125519B011201FA
:100C030025A59C01120125B09D01120125309F01EC
:100C130012012511A0011201254BA0011201256E1D
:100C2300A001120125B0A001120125FAA0011201B1
:100C33002504A101120125AEA10112012587A201FC
:100C4300120125DBA2011201253DA301120125900A
:100C5300A301120125BFA301120125FCA301120167
:100C63002528A7031201259EA703120125B4A70374
:100C7300120125F5A7031201252FA803120125A8A8
:100C8300A803120125E3A80312012556A9031201A3
:100C93002594A9031201259DA903120125A9A903DE
:100CA300120125C5A903120125F0A903120125216B
:100CB300AA03120125E0E302120125F3E302120164
:100CC300250DE40212012536E40212012579E4021E
:100CD300120125B8E402120125F6E4021201255B94
:100CE300E50212012570E50212012587E5021201D2
:100CF3002595E502120125A4E502120125B9E502B5
:100D0300120125CEE502120125D9E502120125E5DE
:100D1300E502120125F2E50212012505E6021201A0
:100D23002510E60212012535E602120125DCE60252
:100D3300120125F1E60212012506E7021201252020
:100D4300E7021201253BE70212012558E7021201CF
:100D53002563E7021201251FE8021201250BE902B0
:100D630012012530E9021201253BE9021201255047
:100D7300E90212012564E902120125C5E902120103
:100D830025CBE902120125D1E902120125D7E90297
:100D9300120125EFE90212012522EA021201253E82
:100DA300A70212012560A70212012540A802120121
:100DB3002517AB0212012543AC0212012567AD02D0
:100DC30012012519AE02120125BAAE021201250540
:100DD3008002120125898002120125388102120145
:100DE30025978202120125B88402120125A48502E7
:100DF300120125D98502120125FB8502120125AABC
:100E03008602120125A28802120125CB8802120153
:100E1300255D89021201258F89021201259C890211
:100E2300120125F38902120125198A02120125866E
:100E33008C02120125898D02120125E18D02120116
:100E4300254DC70112012557C8011201253EC901CD
:100E530012012548C9011201256AC901120125762B
:100E6300C9011201250FCB011201253ECB0112014D
:100E7300255ACC01120125B3CC0112012519CE014B
:100E8300120125F8CE0112012554CF01120125C10B
:100E9300CF01120125FCCF011201253BD001120124
:100EA30025F4D2011201250ED3011201259AD30193
:100EB300120125A8D30112012501D4011201250F26
:100EC300D40112012582D401120125E6D4011201B5
:100ED3002530D5011201253AB6031201255FB60369
:100EE300120125D1B603120125C6D502120125CF61
:100EF300D502120125D8D502120125AFD60212015F
:100F03002560D80212012596D802120125D0D802F5
:100F130012012506D90212012540D90212012574B6
:100F2300D902120125A0D902120125E9D902120121
:100F33002523DA021201256CDA02120125C4DA0232
:100F4300120125F9DA0212012554DB021201258E62
:100F5300DB02120125DFDB0212012515DC0212017F
:100F6300254FDC0212012572DC0212012513C40392
:100F73001201253FC4031201259AC403120125A4BB
:100F8300C403120125B4C4031201252BC5021201A7
:100F93002535C50212012573C502120125BCC50200
:100FA300120125F6C50212012550C6021201257150
:100FB300C60212012549C90212012552C9021201B2
:100FC300259FC902120125C8C902120125D2C902EF
:100FD3001201253ECA02120125D0CA021201251AA6
:100FE300CB0212012550CB02120125DCCB021201E8
:100FF300251DCC0212012554CC0212012566CC0218
:1010030012012585CC021201258ECC021201255630
:10101300CD021201252DC2031201259FB203120135
:1010230025D5B2031201250BB30312012556B403D0
:10103300120125CAC503120125E0C503120125EAE1
:10104300C503120125B08D03120125C58D031201BD
:1010530025788E03120125B88E03120125D18E0344
:101063001201250C8F03120125598F031201258BC1
:101073008F03120125CD8F03120125D8910312018D
:101083002534C60312012581B903120125AAB90328
:10109300120125D9B90312012571BA031201258959
:1010A300BA03120125CBBA031201250080031201F2
:1010B30025428003120125CB80031201251C8103E5
:1010C300120125618103120125BC81031201250B45
:1010D3008203120125618203120125568303120143
:1010E300254D84031201258A84031201255BC50360
:1010F300120125B25400120125335700120125CDE8
:101103005800120125815900120125145A001201B9
:1011130025995A00120125BE5A00120125105B00C1
:10112300120125C55E001201254B5F001201257EC9
:101133006000120125B86000120125ED6000120164
:1011430025AA6200120125DE62001201253B63001D
:10115300120125846300120125EB6300120125644B
:101163006400120125936400120125AB640012018F
:1011730025F465001201250466001201252267008B
:101183001201254467001201257A670012012529FF
:101193006900120125B66900120125F569001201E3
:1011A300250E6B0012012579C70312012593C6038F
:1011B300120125D2C60312012566C703120125BEFB
:1011C300C403120125CEC403120125E9C40312018D
:1011D3002551C50312012529C103120125AEC103FF
:1011E30012012514C2031201251EC0031201254555
:1011F300C0031201259BC003120125EBC00312019A
:1012030025BEA303120125D3A30312012517A503AA
:1012130012012593A50312012507A6031201252117
:10122300A60312012538A6031201254BA6031201BA
:101233002565A6031201257CA603120125A2A60398
:10124300120125F3A603120125E59103120125F9E5
:10125300910312012573920312012557930312017F
:10126300252E950312012552A003120125E2A003A6
:101273001201256EA10312012507A203120125986D
:10128300A203120125A1A2031201251FA303120128
:101293002532A30312012548A303120125A8A303A2
:1012A300120125BBA303120125D1BD031201254160
:1012B300BE031201254CBE031201255CBE031201BD
:1012C3002567BE0312012583BE03120125DFB70381
:1012D30012012531B803120125BBB80312012522DF
:1012E300B9031201252DAD0312012557AD031201D8
:1012F3002525AE0312012500AF0312012587AF0395
:1013030012012584CD021201254BCE021201258242
:10131300CE02120125ACCE021201250CCF0212011E
:101323002562CF02120125C7CF021201255FD00229
:101333001201256ED10212012505D3021201259255
:10134300D302120125F9D30212012510D40212018E
:10135300252AD50212012568D50212012534F2018E
:1013630012012555F3011201256AF40112012587A3
:10137300F501120125ADF601120125D5F701120180
:1013830025F8F701120125A6FB01120125F8FB013F
:1013930012012596FC01120125DEFD0112012583B0
:1013A300FE0112012505FF011201256BFF02120147
:1013B3002573FF0212012512C703120125DCC603A0
:1013C3001201253EC703120125DFFF02E0667010FC
:1013D30008A3E066700A08A3E066700408A3E06649
:1013E30022C3E7960809E7960809E7960809E796EE
:1013F30022C3E09608A3E09608A3E09608A3E0962C
:1014030022C008C3E096F50808A3E096420808A3A3
:10141300E096420808A3E09645087001D3D008225D
:10142300080808EAC0E0EBC0E086F0E7A4FA180970
:1014330086F0E7A42AFA180986F0E7A42AFA18091D
:1014430086F0E7A42AFA1986F0E7A4FBE5F02AFA66
:10145300190886F0E7A42BFBE5F03AFA190886F0A1
:10146300E7A42BFBE5F03AFA18180986F0E7A4C5C0
:10147300F02BFBE43AFA1908E7C5F0C6A426F6E513
:10148300F03BFBE43AFA1886F0E7A4F6E5F0082609
:10149300F6E43B08F6E43A08F6D0E0FBD0E0FA22A3
:1014A300E4CFC0E0E4CEC0E0E4CDC0E0E4CCC0E0F3
:1014B30075F020C3E633F608E633F608E633F6089C
:1014C300E633F6181818EC33FCED33FDEE33FEEF7C
:1014D30033FFC3EC9709ED9709EE9709EF971919B5
:1014E30019400FFFEC97FC09ED97FD09EE97FE19E4
:1014F3001906D5F0BEECF709EDF709EEF709EFF79A
:10150300191919D0E0FCD0E0FDD0E0FED0E0FF22B5
:101513006016080808C6C313C618C613C618C61330
:10152300C618C613C6D5E0EA227009080808226067
:1015330016181818C6C333C608C633C608C633C63A
:1015430008C633C6D5E0EA22E627F60809E637F6E9
:101553000809E637F60809E637F622E026F608A377
:10156300E036F608A3E036F608A3E036F622E026D6
:10157300F008A3E036F008A3E036F008A3E036F065
:1015830022C3E697F60809E697F60809E697F608F0
:1015930009E697F622C3E096F008A3E096F008A3C5
:1015A300E096F008A3E096F022E657F60809E6571E
:1015B300F60809E657F60809E657F622E056F60854
:1015C300A3E056F608A3E056F608A3E056F622E099
:1015D30056F008A3E056F008A3E056F008A3E0563F
:1015E300F022E066F608A3E066F608A3E066F608D4
:1015F300A3E066F622E0F608A3E0F608A3E0F60807
:10160300A3E0F622E6F008A3E6F008A3E6F008A3B9
:10161300E6F022E0FAA3E0FBA3E0FCA3E0FD22EA6C
:10162300F0A3EBF0A3ECF0A3EDF022CAC0E0E6F0E8
:10163300A308DAFAD0E0FA22CAC0E0E0A3C582CC5C
:10164300C582C583CDC583F0A3C582CCC582C583BE
:10165300CDC583DAE6D0E0CA22C3E498F8E499F969
:1016630012169D8026C3E49AFAE49BFBE920E7E97E
:1016730012169DE498F8E499F922C3E498F8E499E2
:10168300F912169DE498F8E499F9C3E49AFAE49BF5
:10169300FB22EB20E7CFE920E7E0B90010BB00080D
:1016A300E88AF084F8AAF022E4FBC8FA22EB70225D
:1016B3007B10C833C8C933C9335007C39AC3DBF29D
:1016C30080069A50012ADBEAC833F4C8C933F4C947
:1016D300FA2275F008E4C833C8C933C933C99AC9B3
:1016E3009B5004C92AC93BD5F0ECFBC833F4C8E4CA
:1016F300C9FA22600D08C6A2E713C618C613C6D5D9
:10170300E0F322600C08C6C313C618C613C6D5E09F
:10171300F422700422600D18C6C333C608C633C64C
:10172300D5E0F41822251810AF08F5184002151952
:101733008008F51840021519D2AF22C0D025181021
:10174300AF08F518500205198008F518500205195D
:10175300D2AFD0D0222518F58210AF08F518400279
:1017630015198008F51840021519D2AF851983227F
:101773002518F582E43519F58322E4732518C5820B
:10178300C0E0E51934FFC583C0E0E518C3958224A2
:10179300F810AF0885831985821880088583198519
:1017A3008218D2AFCEF0A3E520F0A37808E608F0C4
:1017B300A3DEFAEFF0A3E58124FAF8E608F0A3E646
:1017C30008F0A3E608F0A30808E608F0A3E608F08B
:1017D300A315811581D0E0FED0E0F81581158115A0
:1017E30081E8C0E0EEC0E0222518C582C0E0E5191B
:1017F30034FFC583C0E0E518C3958224F910AF0810
:101803008583198582188008858319858218D2AF4C
:10181300CEF0A3E520F0A37808E608F0A3DEFAEF04
:10182300F0A3E58124FBF8E608F0A3E608F0A3089B
:1018330008E608F0A3E608F0A315811581D0E0FEC1
:10184300D0E0F815811581E8C0E0EEC0E0228519EB
:1018530083851882E0A3FEE0A3F5207808E0A3F6D1
:1018630008DFFAE0A3FFE0A3C0E0E0A3C0E0E0A349
:10187300C0E0E0A3C0E0E0A3C0E010AF0885821899
:101883008583198008858218858319D2AFD083D0C8
:1018930082020122851983851882E0A3FEE0A3F565
:1018A300207808E0A3F608DFFAE0A3FFE0A3C0E096
:1018B300E0A3C0E0E0A3C0E0E0A3C0E010AF088570
:1018C30082188583198008858218858319D2AFD041
:1018D30083D08222C0D02518C582C0E0E51934FF29
:1018E300C583C0E0E518C3958224F310AF08858350
:1018F300198582188008858319858218D2AFC8F0AC
:10190300A3E9F0A3EAF0A3EBF0A37908E709F0A3B6
:10191300D8FAECF0A3EDF0A3EEF0A3EFF0A3D0E040
:10192300F0A3D0E0F0A3D0E0F0A3E520F0A3E5F02E
:10193300F0A322851983851882E0C0E0A3E0F9A310
:10194300E0FAA3E0FBA37808E0F608A3DFFAE0FCE3
:10195300A3E0FDA3E0FEA3E0FFA3E0C0E0A3E0C09B
:10196300E0A3E0F5D0A3E0F520A3E0A3F5F010AFEA
:10197300088583198582188008858319858218D282
:10198300AFD082D083D0E0F8D0E032740480067404
:101993000280027401C0E0F404121758D0E012165A
:1019A3002E227404800474028000CCC0E0EDC0E0F9
:1019B300E518C39CCCAD1950011D10AF068C188DD2
:1019C3001980068C188D19D2AF12163BD0E0FDD0CA
:1019D300E0FC22D083D082E9C0E0E493A3C386F085
:1019E300C5F095F0F908E493A386F0C5F095F0707F
:1019F3000BE493A3C3994005E9048002A3E475F0C3
:101A030002A42582F582E5F03583F583D0E0F9E47D
:101A130093A3C0E0E493C0E022D083D082ECC0E083
:101A2300EDC0E0E493A3FCE493A3FDED4C600D1241
:101A33001A68EC24FFFCED34FFFD80EFE493A3FC74
:101A4300E493A3FDED4C600D121AA7EC24FFFCED0B
:101A530034FFFD80EFD0E0FDD0E0FCE493A3C0E0D1
:101A6300E493C0E022C0E0C3E49396087401939624
:101A730018400FE4936670080874019366187000A9
:101A83007019A3A3C3E49396087401939618A3A3B0
:101A9300400DD0E0D0E0D0E0021A58A3A3A3A3A343
:101AA300A3D0E022C0E0C0F088F0E4936670080899
:101AB30074019366187000A8F0A3A3700BD0F0D044
:0F1AC300E0D0E0D0E0021A58A3A3D0F0D0E02288
:101AD40074F51217EBEAFEEBFFEE2434F8EF340052
:101AE400F988088909EE2435121C00F8EE2437120F
:101AF4001C00F50AEC850AF0A4FCAAF0850AF0EDB6
:101B0400A42AFDE82CF8E43DF97A257B0012169D01
:101B1400EA850882850983F074075AF87401B800CD
:101B2400028004C333D8FCFBEA131313541FF8EEEA
:101B340028F8EF3400F9E8245DF582E9121C035B10
:101B44006003EA801CEE2436121C00F5F0EA84A837
:101B5400F0EE28F8EF3400F9E82438F582E9121C95
:101B640003F97F0402189774F51217EBEAFEEBFFF2
:101B7400EE2434121C00C0E0EE2435F582EF34006C
:101B8400F583D0E0F08E828F83A3A3A3A3A3E0FA0E
:101B9400A3E0FB8E828F83A3A3A3A3A3A3A3E0FC50
:101BA400A3E0FDECC39AF50AED9BF50BEE247FF55B
:101BB40008EF3400F509850882F583E06401702B91
:101BC400EE2480F582EF3400F5831219A9121C0962
:101BD400740212173EE960137CBF7D07EEFAEFFB37
:101BE400120AAB850882850983E4F0AC0AAD0BEEDA
:101BF400FAEFFB121AD4122234021B66F582EF3478
:101C040000F583E022C082C083851882851983E0B1
:101C1400F8A3E0F9C3EA9CEB9D5010C3EC98ED994E
:101C2400401BC3EA98EB995014800EC3EA98EB99D1
:101C34004007C3EC98ED994004790180027900D003
:101C440083D0822274ED1217EB900479E06408606B
:101C540005E06407702C9061C8E060269004A7E05A
:101C6400F874FF68601CE875F005A4C8AAF02AF9A6
:101C740074A928FE740439FF8E828F83A3A3A3E082
:101C840070057900021DE8EE2468F510EF3400F5C4
:101C940011906060E0851082851183F0750AFB75F0
:101CA4000B07750800750900E5D914F50EE5D9543C
:101CB40003F50F601CEE2482F50CEF3400F50D746F
:101CC40003650F6058E50E6013EE2467121C007064
:101CD4000B793DEEFAEFFB120AD580A69007F6E0E9
:101CE40064016026850C82850D83E060047804809D
:101CF400027800850E08E508C398FA95E0FB1209FE
:101D04003D8A088B09EA45097006120D81021C867A
:101D1400850C82850D83E070048A0A8B0B78008021
:101D240016E5D9C0E08812E50A2512F582E50B34E0
:101D340000F583D0E0F008E8C3950E40E4850C82FA
:101D4400850D83E0602874FC250EF50E780A1219BF
:101D540092AC0EA90FEEFAEFFB120B8F740212175E
:101D64003EE9700AAA08AB091212D3021CD5740307
:101D7400650F6058850E0C750D00780C121992AC25
:101D84000AAD0BAA08AB09120B53740212173E8555
:101D94001082851183E0F87480687005750C7F806B
:101DA40002880CE50CF50A780A121996E50FF50A73
:101DB400780A121996A90EAC08AD099004A7E0FAA6
:101DC4007B001207E1740212173E8013900479E03D
:101DD4006408700BAC0AAD0BEEFAEFFB120BBF12EA
:101DE4000D8D79017F0C02189774F31217EB74FCB4
:101DF400121728EAFEEBFF8908A2AFE433F509C203
:101E0400AFEE2463F50AEF3400F50B8010AA0AAB99
:101E14000B120B0B1212D39007C6E004F0850A8252
:101E2400850B83E0F8A3E0F9E849602FE82402FA7F
:101E3400E93400FBEA2402F50CEB3400F50D780CD0
:101E44001219928A828B83E0FCA3E0F9EEFAEFFB8D
:101E5400120AFF740212173EE960B29007C6E060EE
:101E6400579007C7E0F89007C6E0C398500C740277
:101E7400650870449007C8E0603E8E828F83A3A3F8
:101E8400A3A3E0851882851983121ECC740212174D
:101E940073E8121ECC9007C5E028F0740212177381
:101EA400AC82AD83851882851983AA82AB837901BC
:101EB4001207ED9007C6E4F0E509A2E092AF7404BE
:101EC40012173E7F06021897F0A3E4F09007C6E0CD
:101ED400F8220000851A87851BC622C0E074EF1221
:101EE40018D7A2AFE433FEC2AF759B00906182E0C5
:101EF400A2E05012E591A2E0500C7591FE740165C8
:101F04001A7003121C48E0A2E55051E591A2E55075
:101F14004B7591DF900479E064076005E064087014
:101F2400237401651A703579019004A7E0FA75F0FD
:101F340005A4CAA8F028FB74A92AFA74043BFB126E
:101F44001DED8018E0640D701390049BE004F064B0
:101F5400287002E4F07A00E0F9120D93906182E0B7
:101F6400A2E64003022006E591A2E6400302200611
:101F74007591BF900479E064057008120C91120CFD
:101F84009D8003120C97751A00120D03E990047AD0
:101F9400F07900120CE5120A0F7A017B00900478A4
:101FA400E0F9120FEB907803E0644270559007FA61
:101FB400E014F0704DC2AF121FBE00781DD0E0F6E1
:101FC40018D0E0F6E59F540770057509FF80037586
:101FD400097FC4C0E0781CE6F50808E65509F50950
:101FE400740B7808121706D0E02508F8906270E0A8
:101FF400A2E740F8E8C333906272F0906270E0D2D6
:10200400E0F0906181E0A2E35009E5E9A2E3500326
:1020140075E9F7A3E0A2E75009E591A2E75003753B
:10202400917FEEA2E092AF7F04021936C0E0C0D0E7
:10203400C082C083906183E0A2E05009E5BFA2E0C2
:10204400500375BFFEE0A2E15009E5BFA2E15003D1
:1020540075BFFDE0A2E25009E5BFA2E2500375BFDF
:10206400FBE0A2E35009E5BFA2E3500375BFF7E02C
:10207400A2E45009E5BFA2E4500375BFEFE0A2E576
:102084005009E5BFA2E5500375BFDFE0A2E65009A1
:10209400E5BFA2E6500375BFBFD083D082D0D0D0B5
:1020A400E032C0E074F21218D7E5A7A2E4500FE5BD
:1020B400A1A2E4500953A7EF75A1EF1220FAE5A7F6
:1020C400A2E5500CE5A1A2E5500653A7DF75A1DFF8
:1020D400E5A7A2E15009E5A1A2E1500375A1FDE540
:1020E400A7A2E2500CE5A1A2E2500653A7FB75A1FA
:1020F400FB7F0102193674F81217EB751A0190046C
:1021040079E0640670077A007B00120C79A2AFE4D0
:1021140033FED2AF90047FE0640170187A207B0014
:10212400900478E0F91210697A207B00900478E03A
:10213400F9120FF1906182E0D2E6F09007F7E060C7
:102144002185C61B801690047EE064017008E5C6F4
:1021540054F84405F5C653BEFC121ED87401651A22
:1021640060E4EEA2E092AF7F0102189774F11217B7
:10217400EB8A088B098C0A8D0B9090DB780812157A
:10218400BF740F121773780C1215F89090DB780C4B
:102194001215BF7808790C1213E4909087501078C8
:1021A40008790C12158478081214044014800E78EF
:1021B4000C7908121584780C1214045004790180E7
:1021C4000279007F0802189774ED1217EB8A088BC6
:1021D400098C0A8D0B9090DB78081215BF741312CA
:1021E4001773780C1215F89090DB780C1215BF78E1
:1021F4000C79081213E440117808790C121584AA9A
:1022040008AB09AC0AAD0B8022751000751100757E
:1022140012007513017810790C121584781079085E
:1022240012154BAA10AB11AC12AD137F0C02189708
:10223400C082C083E9906000F0D083D08222C2AF14
:1022440002000022C0E074F21218D7A2AFE433FEF9
:10225400D2AFC2C0E5D1A2E4500653D1EF1212A30B
:10226400EEA2E092AF7F01021936C0E074F21218B8
:10227400D7A2AFE433FED2AFE589A2E04006E589F8
:10228400A2E150031211FB758900758900C2C5EEE5
:10229400A2E092AF7F01021936C0E0C0D0E8C0E0EE
:1022A400E9C0E0E5A8D2AFC2C7A2E7A2E792AFD0E7
:1022B400E0F9D0E0F8D0D0D0E032C0E0C0D0E8C03F
:1022C400E0E9C0E0C008C009C082C083A2AFE43323
:1022D400F9D2AF901052E0F8A3E0687008539AFB6B
:1022E400A374018026C2E9901052E0F50874012518
:1022F40008F074D22508F582740F3400F583E0F5F4
:10230400C1901052E0C394804002E4F0E9A2E0924C
:10231400AFD083D082D009D008D0E0F9D0E0F8D093
:10232400D0D0E032C0E074F21218D775C00090101B
:10233400F9E0F8A3E0F9E82401FAE93400FB90108D
:10234400F9EAF0A3EBF0C3E89471E99417403390F1
:1023540010F9E4F0A3F09010FBE064017002A3E034
:102364007020A291D2F0A29130F001B3929190909A
:102374008F1219A57A047B00790B12105D74041274
:07238400173E7F010219362C
:10238C00FFFFFFFFFFFFFFFFC082C083E9901183B7
:10239C00F0D083D08202012274F612177FE99003E9
:1023AC0065F07CA57D037AFF7BFF1207397A008AE2
:1023BC00087509007402780812171574662508F858
:1023CC00740335091223F3A3F00AEAC3940340DF24
:1023DC0079051206C7900365E0F91205E97A517B7D
:1023EC00071208EF0239EFF98882898374FF1224EF
:1023FC0000E4F022F0A312389AA32274F412177F8F
:10240C008A088B09EB54806030900365E0F9120F59
:10241C00D38A0A8B0BAE0AAF0BEE4F60138E828FF2
:10242C0083E064B070031206D9EEFAEFFB120FC111
:10243C00AA08E5096480FB80047A007B000225D899
:10244C0074F212177F74FC121728EAFEEBFFEE4FA2
:10245C0060387402121773EEF0A3EF12285DECF0E3
:10246C00A3ED12285DAA82AB831205E3E9F508708F
:10247C00717412121773123441E50A450B60638EA6
:10248C00828F831224F8EE4F700575080280537A00
:10249C00067B001210278A0C8B0DA80CA90DE8499D
:1024AC007005750813803B88828983E4122400EE42
:1024BC00F0A3EF1238E2E50AF0A3E50BF0900373FA
:1024CC001225D09003736017E0FCA3E08003EAFCB4
:1024DC00EBFD8C828D831225D070F38C828D831250
:1024EC003344A908740412173E023ACDA3A3A3A344
:1024FC00E0FEA3E0FF2274F212177F890AE975F05F
:10250C0045A4FEAFF0900372E4F09003681225D05E
:10251C00602812102D79008908750900740278085A
:10252C0012171574682508F58274033509F583E4D0
:10253C00F0A3F009E9C3940340DDEEFAEFFB1210AF
:10254C00278A088B09EA45096075EEFCEFFD7900D6
:10255C00120FA97D008D0C750D007402780C1217EA
:10256C00157468250CF87403350DF9E50AF5F0EDD2
:10257C00A475F017A4FAABF0E5082AFAE5093BFBC1
:10258C0088828983EAF0A3EBF07E00801BEE75F065
:10259C0017A4FAABF088828983E02AFCA3E03B8C79
:1025AC0082F583E4F0A3F00EEEC3950A40DF0DED47
:1025BC00C3940340A0E50A900372F079008002797D
:1025CC0013023ACDE0FAA3E0FBEA4B227F04021897
:1025DC005174F412177F7900EAA2E0501B75086C55
:1025EC0075099078081219927C047D007A857B110C
:1025FC001206C1740212173E80D2C082C0839003AF
:10260C00731238D449601C88828983A3A3E06A7052
:10261C0003A3E06B8882898370E7A3A3A3A3123082
:10262C00E880047A007B0002239D74EE12177F74FD
:10263C00FC121728EAFEEBFF851882851983E4F05B
:10264C00A3F0EE240212332FEE240512284BEE24B5
:10265C0004F50EEF122C27E024FE603924FC6046B2
:10266C0024FE605224FE605E24FE70030227502478
:10267C00FE70030227C824FE70030227D724FE70C5
:10268C00030227E624FC70030227F524FE700302E4
:10269C00280402284190038C7417F0A3E4122865D7
:1026AC0012025F022841851882851983AC82AD83A2
:1026BC001206DF022811851882851983AC82AD833E
:1026CC001206E5022811850C08850D0974021217F3
:1026DC0073AC82AD838508828509831230E81206BB
:1026EC00078A0C8B0DAC0CAD0DEC4D6042E4F50C77
:1026FC00F50D780C121992750C8C750D03780C1263
:10270C001992750C8D750D03780C121992740812B0
:10271C0017731219A979161230E2120721740812D4
:10272C00173EE9F50C700B1230DE120277800F7534
:10273C000C01850882850983122853123344850CB9
:10274C00080228147402121773AC82AD83850C82B4
:10275C00850D831230E81206078A108B11AC10AD70
:10276C0011EC4D6043850C82850D83A3A31219A92E
:10277C0075108C751103781012199275108D7511D6
:10278C0003781012199274081217731219A979167A
:10279C001230E2120721740812173EE9F509700B8A
:1027AC001230DE12027D800F750901850C82850DB9
:1027BC0083122853123344850908804C851882856E
:1027CC001983AC82AD831206EB803A851882851989
:1027DC0083AC82AD831206F1802B85188285198318
:1027EC00AC82AD831206F7801C851882851983ACE8
:1027FC0082AD831206FD800D851882851983AC820B
:10280C00AD83120703E9F508E50860298E828F83F2
:10281C00A3E06414601F850E82850F83E090038C07
:10282C0012285D123B9C90038D123344E508A312D1
:10283C002865120259EEFAEFFB120685023236F5C4
:10284C000CEF3400F50D22123BA0851882851983FC
:10285C0022F085188285198322F07C8C7D03850AF1
:10286C0082850B83E0FAA3E0FB2274EE12177F74CF
:10287C00FC1217288A0A8B0B8C0E8D0FEA2405F597
:10288C0008EB3400F5097C157D0079007A8C7B030C
:10289C00120FA9E5082402F50CE50912284E85183B
:1028AC00828519838582108583117810121992857F
:1028BC000882850983A3A3A3A3122D70121992E594
:1028CC00082405F510E5093400F511781012199259
:1028DC00850C82850D831230D21230E812060174F9
:1028EC000612173E8A108B11AE10AF11E50A2402A6
:1028FC00F50AE50B123332EE4F7003022A3F8017B4
:10290C0074021217731230E888828983EAF0A3EB01
:10291C00F090038CE004F090038CE0C3940540032A
:10292C00022A3FE4F510F511781012199275107502
:10293C0075110378101219927510767511037810B1
:10294C0012199274061217731219A97910EEFCEF72
:10295C00FD1230E2120721740812173EE9705E85F1
:10296C000882850983A3A3A3A3A3A3A3E0F89003E0
:10297C0075E0687048122D701219927C767D03E513
:10298C00082408FAE5093400FB120FA3740212178D
:10299C003EE960298E828F83A3A3A3A31230E89013
:1029AC00038CE0F51074027810121715748D251035
:1029BC00F58274033511F583EAF0A3EBF07402127F
:1029CC001773858210858311781012199274021274
:1029DC0017731219A9850C82850D83123BB112064F
:1029EC000D740412173E8A108B11AE10AF119003A8
:1029FC008CE0F51075110074027810121715748C98
:102A0C002510F874033511F988828983A31225D017
:102A1C007003022903E82403F8E93400F9EE4F604F
:102A2C000302290C8882898374FFF0A3F090038C35
:102A3C00E004F090038CE0600A1230DE12026B7935
:102A4C0000800B85088285098312333B790A023298
:102A5C003674EA12177F74FE1217288C128D13EA43
:102A6C002405F50CEB123BBB1224FC750800750910
:102A7C0000EA2402F510EB3400F511851882851953
:102A8C008385820A85830B780A121992850C8285BC
:102A9C000D83A3A3A3A3122C31121992E50C2405C8
:102AAC00F50AE50D123332780A121992850C8285DB
:102ABC000D83123BAF120601740612173E8A0A8B65
:102ACC000BEA450B7003022BF2EA2404F50EEB1211
:102ADC002C271224FC8A828B83A3A3A3E0F98510F4
:102AEC00828511831230E81205EFE9F509600302C3
:102AFC002BF2E4F514F515781412199275147575FA
:102B0C00150378141219927514767515037814122E
:102B1C00199274061217731219A97913AC0AAD0B1A
:102B2C008510828511831230E81207217408121760
:102B3C003EE9F5096003022BF2900375E0F8E50815
:102B4C007009E0240290038DF0801790038DE0FC57
:102B5C00E82402FAE43400FBEA6C7001EB60030237
:102B6C002BF6850882AA82122D679414122D5F50C1
:102B7C0075850E82850F83E0C0E0122F9ED0E0F0A9
:102B8C000508850E82850F83A3E0C0E085080A74D2
:102B9C008E250AF58274033400F583D0E0F0050825
:102BAC00900375122C311219927C767D0385080ADC
:102BBC00748E250AFA74033400FB120F91740212FE
:102BCC00173E900375E02508F50874FF6E700374CA
:102BDC00FF6F6012EE24010EEF3400FFE508C39482
:102BEC00145003022A87E5086013122FC485108243
:102BFC008511831230E812027179008014E5097096
:102C0C000375090A851282851383EEF0A3EFF0A9F0
:102C1C0009740212173E7F0E0218513400F50F850D
:102C2C000E82F583221238F12274EE12177F74FE95
:102C3C001217288C0E8D0FEA2405F50CEB12284E7A
:102C4C00750B0090038CE4F0F50AEA2402F508EB0E
:102C5C003400F509804990038CE0FA900375E0F894
:102C6C00122D679417122D5F400D90038CE0F874B1
:102C7C0016C398900375F0122D701219927C767D04
:102C8C0003748D2AFA74033400FB120F9174021230
:102C9C00173E900375E0F890038CE028F0050AE5E8
:102CAC000C2416F582E50D3400F583E0F8E50AC333
:102CBC00984003022D4890038CE0C39416507DE598
:102CCC000AC333F8E433F9E50C28FEE50D39FF852A
:102CDC001882851983AC82AD838E828F831230E883
:102CEC001206078A108B11AC10AD11EC4D700575E6
:102CFC000B018043E4F510F5117810121992751040
:102D0C007575110378101219927510767511037878
:102D1C001012199274061217731219A979168508D4
:102D2C00828509831230E8120721740812173EE9D4
:102D3C00F50B7003022C6212333780107C8C7D03F0
:102D4C008508828509831230E8120283A90B74026C
:102D5C00023238E99400C365D03322EA28F8E4340F
:102D6C0000F9E822E0F51075110078102274EA12CF
:102D7C00177F74FC1217288A0C8B0D8C128D13EA9A
:102D8C002405F50AEB123332750800750900E50AC3
:102D9C002402F510E50B3400F5117402121773853B
:102DAC00820E85830F780E121992850A82850B8309
:102DBC00A3A3A3A31238A1121992E50A2405F50EB8
:102DCC00E50B3400F50F780E1219928510828511DF
:102DDC00831232301230E2120601740612173E8A48
:102DEC000E8B0FAE0EAF0FE50C2402F50EE50D3475
:102DFC0000F50F80408882898374FFF00508122F3C
:102E0C00AA74FFF00508900375E0F50C750D0078B9
:102E1C000C1219927C767D0385080C748E250CFAA5
:102E2C0074033400FB120F91740212173E90037559
:102E3C00E02508F508EE4F60718E828F83A3A3A363
:102E4C00E0F9850E82850F831230E81205EFE9F563
:102E5C0009EE240412284BE97044E4F514F51578B6
:102E6C00141219927514757515037814121992753C
:102E7C0014767515037814121992740812177312BC
:102E8C0019A97911EEFCEFFD850E82850F831230A6
:102E9C00E8120721740812173EE9F5096027850C22
:102EAC0082850D83122FBA123344E5087003022F6A
:102EBC0084122FC4850E82850F831230E81202898A
:102ECC007900022F99850882AA82EA90037570090D
:102EDC00E0240490038DF08022E0F890038DE0F55F
:102EEC0014E82404FCE43400FDEC65147001ED706E
:102EFC00C0122D679412122D5F50B6850C82850D71
:102F0C0083E0C0E0122F9ED0E0F00508850C82858E
:102F1C000D83A3E0C0E0122FAAD0E0122FD6858239
:102F2C000C85830D780C12199274041217731219F4
:102F3C00A9851082851183123BB112060D740412FF
:102F4C00173E8A0C8B0DAE0CAF0D85080C748E25BC
:102F5C000CF874033400F9EE4F7003022E0185183F
:102F6C0082851983E088828983122FD6A3E0C0E082
:102F7C00122FAAD0E0022E0FE509700375090A85FD
:102F8C000A82850B83122FBA123344A909740402E6
:102F9C002C1F748E2AF58274033400F58322850865
:102FAC000C748E250CF58274033400F58322123BCD
:102FBC00A08512828513832290038DE0F5F0E5083D
:102FCC008490038CF07C8C7D0322F005088518829C
:102FDC008519832274EC12177F74FE1217288A0845
:102FEC008B098C0E8D0FEA2405FEEB3400FF85183F
:102FFC0082851983AC82AD838E828F831230E81266
:10300C0006078A0A8B0BEE241812284BEA450B7024
:10301C00030230AD12321850328518828519831292
:10302C0030E81207158A108B11EA4511606E79127F
:10303C00AC0AAD0B8508828509831230E8851082B5
:10304C0085118312177DE9F50A705BE4F50AF50B1F
:10305C00780A1219928E828F83A3A3E0F50A780A5C
:10306C00121992EE240312332F780A1219928E82BF
:10307C008F831230D21230E8120727740612173ED3
:10308C00E9F50A7021850C82850D83E0701F850897
:10309C00828509831230E812028F8011750A0E8026
:1030AC0009750A018004E50A6003123337850C8226
:1030BC00850D83E0600479008002A90A740212175E
:1030CC003E7F0C021851E0FCA3E0FD8508828509C7
:1030DC0083227C8C7D03850A82850B83E0FAA3E036
:1030EC00FB2274EE12177F74FE1217288A088B09C4
:1030FC008C0C8D0DEA2405FEEB3400FF750E00855B
:10310C001882851983AC82AD838E828F831230E84E
:10311C001206078A0A8B0BEA450B70030232041263
:10312C00321850358518828519831230E81207152C
:10313C008A0E8B0FEA450F605E7912AC0AAD0B85D7
:10314C0008828509831230E8850E82850F83121759
:10315C007DE9F50E6003023207850882850983122A
:10316C003441AA0AFB1207098A108B11A810A91165
:10317C00E849701E7AFF7BFF1207098A108B11A891
:10318C0010A911E849606C88828983E50AF0A3E5EF
:10319C000BF0750A008007750E0E805F050A900310
:1031AC0072E0FAE50AC39A504AE50A75F017A4FAD8
:1031BC00ABF088828983A3A3E02AFAA3E03BFB8AC5
:1031CC00828B83123230EC4D70D2750A17750B005E
:1031DC00780A121992EEFCEFFD120F91740212177D
:1031EC003EEEFCEFFD8508828509831230E8120261
:1031FC00958014750E098003750E01123B98850C91
:10320C0082850D83123344A90E022D5AE50824023F
:10321C00F508E5093400F5098A828B83A3A3A3E0A2
:10322C00A2E522A3E0FCA3E0FD22740412173E7F6A
:10323C000A02185174EC12177F8C108D11EA2405B8
:10324C00F50CEB12284E750F00EA2402F50AEB126E
:10325C003332850A82F5831230E81207098A088B0B
:10326C0009EA45097003023324750E008071850C40
:10327C0082850D83E06401704F8E828F83A3A3122D
:10328C0019A98E828F83A3A3A3A3E0F51275130053
:10329C007812121992EE2405F512EF3400F513781A
:1032AC00121219921230E2120727740612173EE915
:1032BC00F50F6014850C82850D83E4F0123B988524
:1032CC0010828511831233447C177D007900EEFA4D
:1032DC00EFFB120FA98E828F83E4F0A3F0050E9002
:1032EC000372E0F8E50EC398501FE50E75F017A4B5
:1032FC00F8A9F0850882850983A3A3123BC5FCA31A
:10330C00E0FDEC4D600302327A85088285098374F6
:10331C00FFF0A3F0E50F70061230E212029BA90F2A
:10332C000230CDF50AEF3400F50B228E828F83121A
:10333C003BA0850E82850F83E8F0A3E9F02274F69A
:10334C0012177F7C008C087509007402780812171C
:10335C001512337C6A7003A3E06B7006E8FAE9FB84
:10336C00800B0CECC3940340DC7A007B000239EF39
:10337C0074662508F874033509F988828983E0227C
:10338C0074F712177F7F00EF75F003A4F8A9F0EC27
:10339C0028F8ED39F988828983E06A7003A3E06B21
:1033AC007006E8FAE9FB800B0FEFC3940440D87A5F
:1033BC00007B007F0102185174F612177F1206D39E
:1033CC008A828B83E582458370067A007B008007B6
:1033DC00A3A3A3A31230E80239EF74F212177FE90A
:1033EC00FE740E12177312344174101217731238C4
:1033FC00BC8C828D83E064027036A3123BA6F50C64
:10340C00A3E0F9A80C740268700374296970217523
:10341C000C02750D00780C1219927808121992781A
:10342C000A121992EEF912074B740612173E80021B
:10343C007901023ACDE0F50AA3E0F50B2274E8120B
:10344C00177F74FB121728E9851882851983F08A77
:10345C00168B17ECFEEDFF751000741D121773120E
:10346C003B9C741D1217731233448E828F83A3A35B
:10347C00A3E0A2E4502D741D1217731230E812074A
:10348C00158A828B83E5824583700302388B790A17
:10349C00EEFCEFFDAA16AB1712177DE9F5106003D1
:1034AC0002388E741F1217731238BC7421121773E2
:1034BC001234417423121773E0F50EA3E0F50F8E4E
:1034CC00828F83E064026003023839A3123B9C852F
:1034DC000882850983A3858212858313EE24061244
:1034EC00284B88828983E0FAA3E0F9EA2400F514DA
:1034FC00E439F5157814121A1C0100002801282D46
:10350C003507000228F23503285F350029293701D9
:10351C002954370229F536032929370429D3373999
:10352C0038E50E450F6003023834850C82850D8317
:10353C001238D4FAE9FB8A828B83E0850A82850BE8
:10354C00831238E81219928A828B83A3E0FCA3E0E1
:10355C000237BDE50E450F6003023834850A8285BB
:10356C000B837401F01238C4850882850983F07CC2
:10357C00007D008E828F83A3A3A3A3E02401FAA372
:10358C00E03400FB120607EA4B60418A828B83E031
:10359C002402F8850A82850B83E028F0EA2404F8DB
:1035AC00EB3400F988828983E085128285138312BB
:1035BC0038FA1238E81219928A828B8312322FE56C
:1035CC00082403FAE5093400FB0237C2850A828518
:1035DC000B83E02404F07C047D007900AA12AB1369
:1035EC00120FA902388EE50E450F60030238341213
:1035FC0038C4FEA3E0FF850A82850B837404F0EEC9
:10360C00850882850983F0EF851282851383F07417
:10361C0003121773AC82AD83EEFAEFFB1206078A26
:10362C000C8B0DEA450D70030236D68A828B83A370
:10363C00A31224F8740112177385820E85830F78F8
:10364C000E12199274051217731219A97CFF7DFFC3
:10365C0012060D740412173E8B0FEA450F7033855A
:10366C000C82850D831238A1121992850C82850D5E
:10367C0083A31219A97C027D007A267B9112038BFD
:10368C00740412173EE9700A740112177374FFF078
:10369C00A3F08E828F83E064027039750C02750D75
:1036AC0000780C1219928E828F8312322FE5082427
:1036BC0004FAE5093400FB120F91740212173E85CF
:1036CC000A82850B83E0240280097401121773EEC1
:1036DC00F0A3EFF074011217731238B2F0740112E8
:1036EC001773A31238AA02382EE50E450F60030299
:1036FC003834850C82850D83123230AA16AB171222
:10370C00073F850A82850B837402F0EA850882855F
:10371C000983F0851282851383EB023831E50E455F
:10372C000F60030238341238C4F8A3E0F9850A821A
:10373C00850B837402F0E8850882850983F0E9859E
:10374C001282851383023831850C82850D831230E9
:10375C00E8120F8BEAFC8C82A882C3950EE4950FBD
:10376C00405FE8650E7002E50F70047C00802285D6
:10377C001882851983E0FAE50E2AFAE50F3400FB6E
:10378C00C3EA98EB94005003E08005E50ECCC39C93
:10379C00FCEC850A82850B83F08C0A750B00780A89
:1037AC00121992850C82850D83E0250EFCA3E03561
:1037BC000FFDAA08AB09120F91740212173E0238C2
:1037CC008E75100702388EE50E450F705B850C82E6
:1037DC00850D83123B9C850A82850B837407F088C8
:1037EC008289831238AA12389AE085128285138353
:1037FC00F0E82402FAE93400FB8A828B831238AA9F
:10380C001238D91238B2A31238E21238B6F0E824C2
:10381C0005F8E93400F9888289831238B6A3123886
:10382C00FAA3A3A3A3F0805A75100B8055741D1234
:10383C0017731230E81206D38A828B83E582458394
:10384C00603D123B9C880C890DE8450D6031780E6B
:10385C00121992780A121992780812199274061297
:10386C001773E0F9EEFCEFFDAA16AB17850C8285F9
:10387C000D8312177D740612173EE9F5108003753F
:10388C00100EA910740512173E7F10021851F08803
:10389C00828983A322E0F50E750F00780E22E08555
:1038AC0008828509832212390122123901A3A3222D
:1038BC00E0F508A3E0F50922850C82850D83E0F87C
:1038CC00A3E0F5838882E022123BA0E822A3A3F0B8
:1038DC008A828B83A322122402A3A322F08A828BD6
:1038EC00831238F122E0F50A750B00780A2212389F
:1038FC009A12390122E0850882850983A3A32274D8
:10390C00EE12177F74FE1217288A0A8B0BECFAED55
:10391C00FB7414121773E0F510A3E0F51174161272
:10392C001773E0FE7418121773E0F50EA3E0F50F91
:10393C00851882851983AC82AD831206078A0C8B9D
:10394C000DEA450D60498518828519831230E812FD
:10395C0006D38A828B83E5824583602FA3A312381A
:10396C00BCE50845096024780E12199278101219DA
:10397C0092EEF9AC0CAD0DAA0AAB0B850882850949
:10398C008312177D740412173E8006790E8002791B
:10399C0001022D5A74F612177F74FE121728740C3C
:1039AC001217731238D4851882851983F07401129A
:1039BC001773E9F0E4F508F50978081219927508FF
:1039CC000278081219927404121773858208858381
:1039DC00097808121992120727740612173E7402FE
:1039EC0012173E7F0202185174F712177FEAFEEB92
:1039FC00FF89087CA57D0312073FEA5402600BA9DE
:103A0C0008EEFAEFFB1205FB800279010233BF745A
:103A1C00F612177F74FF6A700374FF6B701B7B00C8
:103A2C00EB75F003A4F8A9F0EC28F8ED391223F3A8
:103A3C000BEBC39404501480E712070F8A088B0910
:103A4C00A808A909E84960031223F4809674F612B9
:103A5C00177F12070F8A828B83E58245836006A34A
:103A6C00A3E0FA80027A007B000239EF74F212179D
:103A7C007F8A088B09ECFEEDFF740E121773E0F5CC
:103A8C000A12070F8A0C8B0DA80CA90DE849702699
:103A9C00EEFCEFFD7AFF7BFF12070F8A0C8B0DA853
:103AAC000CA90DE84970047911801688828983E588
:103ABC0008F0A3E509F088828983A3A3E50AF079CD
:103ACC00007F0602185174EE12177FEAFEEBFF8C92
:103ADC00088D09890C7414121773123B9C741612FE
:103AEC0017731230E8750D00E8496003023B9074BF
:103AFC0002650C6003023B8B7412121773123BA607
:103B0C00FCA3E0F9EC2400F50EE439F50FEAF4F827
:103B1C00EBF4F9EC58F8E50F59F9E849705CE50855
:103B2C002406F8ED3400F9880A890B8882F5831293
:103B3C003BB112073F8A108B11E50E65107004E53E
:103B4C000F65116042780E121992850A82850B83DB
:103B5C00123BB1120745740212173EE9F50D70279E
:103B6C00780E121992850882850983A3A3123BAFA4
:103B7C00120757740212173E800D750D8080087560
:103B8C000D0D8003750D0BA90D02323B8E828F83B8
:103B9C00123BA022E0F8A3E0F922123BA088828914
:103BAC0083E022A3A3E0FCA3E0FDEEFAEFFB2234BA
:103BBC0000F50D850C82F58322E028FEA3E039FF89
:103BCC008E828F83E02274F212177FEAFEEBFF895C
:103BDC000B7401650B600E7402650B706B7901122E
:103BEC00090DE97063EEFAEFFB1207098A088B09DD
:103BFC00EA45096048750A00800B7C177D00790046
:103C0C00120FA9050A900372E0F8E50AC398502236
:103C1C00E50A75F017A4F8A9F0850882850983A335
:103C2C00A3E028FAA3E039FB8A828B831238D449AB
:103C3C0070C885088285098374FFF0A3F07CA57D8C
:103C4C0003EEFAEFFB120739023ACD74F212177F2A
:103C5C008A088B09ECFEEDFF740E121773123441B7
:103C6C00901183E0F4603D7A097B00120FBBEA4BA4
:103C7C0060328A828B8374B1F0A3E41238DBA31216
:103C8C0038D9A3E508F0A3E509123CB3EEF0A3EF95
:103C9C00123CB3A3A3E50AF0A3E50BF0901183E06B
:103CAC00F9120FC7023ACDF08A828B83A3A3A3A388
:103CBC00A322C082C0839061907404F0A37448F076
:103CCC00A3E4F09061807440F09061BC7407F090B4
:103CDC0061877469F09061B67416F07900120A1558
:103CEC007902120A1B90238CE493F46006E493F996
:103CFC001209F17905120D750240DFC082C083E90B
:103D0C00540FF9906185E0696012E5C6548044490E
:103D1C00F5C6E59E547F644970F8E9F053C680E51A
:103D2C009E547F70FA0240DF74F712177FE5A8FEED
:103D3C0053A87E1209FDC2BA539AFEC289759B0024
:103D4C00C2C2120A0375A91175B905120A09D2BAB1
:103D5C00439A0174805E42A8025003C082C08390D3
:103D6C006181E4F0A3F0A3F00240DF75E9007591E6
:103D7C000075BF00020122C082C083906181E4F013
:103D8C00A374C0F0A3E480DFC082C08374F8121760
:103D9C002890047B1254527003023E7390047BE013
:103DAC00544060237908851882851983AA82AB83D5
:103DBC00120B29851882851983AA82AB831207C935
:103DCC0090047BE054BFF0E054806010790C7A1BB7
:103DDC007B08120B2990047BE0547FF0E0A2E050AA
:103DEC000F7900120A151207CF90047BE054FEF0F5
:103DFC00E05402600F7901120A151207CF90047B70
:103E0C00E054FDF0E05404600F7900120A1B120715
:103E1C00D590047BE054FBF0E05408600F7901125C
:103E2C000A1B1207D590047BE054F7F0E0541060A5
:103E3C000F7902120A1B1207D590047BE054EFF0A5
:103E4C00E05420600F7903120A1B1207D590047BF3
:103E5C00E054DFF0A3E05401600D120A271207DBD7
:103E6C0090047CE054FEF0740812173E0240DFC050
:103E7C0082C083E9600514602A804F90619A743384
:103E8C00F0A37455F09061A0743AF09007F5E064DB
:103E9C00017009C29190047D7467802D90047D742B
:103EAC0061802690619A743FF0A3745AF09061A0DF
:103EBC00747FF09007F5E064017009D29190047D55
:103ECC007471800590047D746AF00240DFC082C07A
:103EDC0083E9600B14600D14601714600C80209043
:103EEC002390801590239180109007F5E064017069
:103EFC00059023928003902393E493906186F002C3
:103F0C0040DF74EE12177F74F4121728851882851F
:103F1C001983AC82AD837583907582CF74041216AD
:103F2C003B90239093F46003024038907808E0C3F0
:103F3C00940250030240187404121773AC82AD83C0
:103F4C0075839075823B740812163BFC7EFF7FFFD5
:103F5C008E0C7D008C8285820E800F74086D606DD6
:103F6C0074096D6068740A6D60638D08750900745E
:103F7C000278081217151240421215F8A909E50A21
:103F8C00C9F8881074187808121513E5104508FA4A
:103F9C00E9FBE50EC333F8E433F97404121773E547
:103FAC008228F582E58339124734C3E89AE99B40AD
:103FBC0008E8C39AF8E99B8006EAC398F8EB99F9EC
:103FCC00C3E89EE99F5006E8FEE9FF8D0C0DEDC39A
:103FDC009413408774FF6E700374FF6F6024850C1C
:103FEC0008740278081217151240421215F8851839
:103FFC0082851983E582250EF582E583124B4DE50A
:10400C0008F00CECC394045003023F58750801757A
:10401C00090078081219927402121773AC82AD83DE
:10402C007AE47B081211DD740212173E740C12171D
:10403C003E7F0A02185174482508F58274783509B8
:10404C00F583780822C082C083906186E0F89023C3
:10405C0093E493687009902392E493906186F090B6
:10406C0061AE7468F0A3746AF090624574FBF0A3BF
:10407C0004F053F4FD43FE029007F57401F09061D7
:10408C00A0E0643A7004790080027901120A1502EA
:10409C0040DF7F04021851C082C0839007D3E064D4
:1040AC000170139007D9E0F87401686019E8700684
:1040BC00A3E0640160109007EAE06401700C9007C3
:1040CC00F0E064017004790C800279008005E0F95D
:1040DC00122234D083D0820201221247DA940622B3
:1040EC00E0C4333354C022C082C0839007DD7425F2
:1040FC00F09007DB7401F0A3E4F07A01FB120CF1F1
:10410C0012413F2416F582E8124B4D744BF0A37408
:10411C000AF09007DAE0640170169007D9E070108D
:10412C007901120D51120D21120D4B7900120D5DFA
:10413C000240DF9007C91244C32274F612177F7431
:10414C00FA1217289007D2E064017008120A339013
:10415C0007D2E4F075E1F112413F2415F582E81223
:10416C004B4D7401F09007D4E0640170539090664D
:10417C00C082851882851983AC82AD83758390D0FB
:10418C0082740612163B75D90D9007CB1240EC4485
:10419C0003F5D97800880874CC1250DC74071240EF
:1041AC00E640F278008808851882851983E582122A
:1041BC0050DCE5831240E640EC75E1957901800214
:1041CC007900120CF79011A512423C74D1F0A37433
:1041DC000BF0A312423C12423C12439074D7F0A352
:1041EC00740B1243A59007CBE0F97ACC7B07120C29
:1041FC00D39007DDE0F91222347901120CFD909076
:10420C00D3121616120D159090E7121616120CDF1B
:10421C007900120D6912413F2414F582E8124B4DBE
:10422C007416F09004797405F00412173E02484499
:10423C0074CBF0A3740BF0A32274F412177F8908CB
:10424C00A808124F489007E2E0F97AE37B07120CBA
:10425C00D39007F0E0701A7900120D339007B8E094
:10426C0070047900800279017AB97B07120CD9802D
:10427C00057901120D3375E1F175D9239007E2121E
:10428C0040EC4405F5D97800880A74E3250AF582D8
:10429C0074071240E640F175D90075D90075D90044
:1042AC0075D90075D90075D9007A0012539E242255
:1042BC001246F340F67A0012539E2426F582E91238
:1042CC00484C0AEAC3940340EEEE242B1248497A78
:1042DC000012539E242C1246F940F67A0012539E7B
:1042EC00242E1246F940F67A0012539E24301246C0
:1042FC00F940F67A0012539E24321246F940F67AAF
:10430C00008A0AEE250AF8EF124C6512470594054F
:10431C0040EFEE2437F582EF124E9C541FF8EE243A
:10432C002AF582EF124E9CC43354E048F5D975E15E
:10433C00959011A5749BF0A3740BF0A374A1F0A33A
:10434C00740B12438774A7F0A3740B1243A5900748
:10435C00EFE0F91222349090D3121616120D15902C
:10436C0090E7121616120CDF90600DE4F079011232
:10437C000D699004797406F002409EF0A3124390EC
:10438C0012439022124394227495F0A3740BF0A361
:10439C007495F0A3740BF0A3221243A922F0901190
:1043AC00B31243B5A31243B5221243947495F0A3F0
:1043BC00740BF02274EC12177F9007E0124F5F78A9
:1043CC00101215F89007F1E0FAF875F005A4C8ACD6
:1043DC00F02CF974D728F582740439F583E0FEA328
:1043EC00E0FFEEC333FEEF33FF8E0CF50D750E00C0
:1043FC00750F0085100885110985120A85130B901D
:10440C0090CB780812155E780812198E85100885E5
:10441C00110985120A85130B7808790C12154B7843
:10442C0010790C1214A3E4F50EF50F7808790C1220
:10443C0015848A0C750D007403780C121715780806
:10444C00790C12154B9090DB78081215BFAA08ABAB
:10445C0009AC0AAD0B1221CC740412173E8A088BDE
:10446C0009A808A909C3EE98EF995006E82EF8E9B7
:10447C003FF9E890600EF0E9A3F0EEA3F0EFA3F0A3
:10448C0090600D74C1F07F0C021851C082C08390F3
:10449C0007C91244B79007DD0240DAC082C083908E
:1044AC0007E01244B79007EF0240DA1244C3240627
:1044BC00F582E81248E522E0F8A3E0C822020122C6
:1044CC0074F212177F124636F50AEF1249C36004D4
:1044DC00780480027800E8240EF8EAC398500302AE
:1044EC00459375080C9007FBE4F0EE2476F582EF0B
:1044FC00124E9C9007FCF07902EE2477FCEF34000E
:10450C00FD7AFD7B07120B177902EE2479FCEF3450
:10451C0000FD120B177902EE247BFCEF3400FD1228
:10452C000B177902EE247DFCEF3400FD120B17EE15
:10453C00247412464C120B17850A82850B83E0609B
:10454C001E7508FB75090778081219927C0C790303
:10455C00EEFAEFFB120B89740212173E75081074F9
:10456C00012508F5D975D90378008009880A74FBF0
:10457C00250A12462BE8C3950840F175E19579049C
:10458C00120D1B7901800279007F0602185174F21A
:10459C0012177F124636F508EF3400F509850882AC
:1045AC00F583E06004780480027800E8240AF8EAD5
:1045BC00C3984060750A089007FB7401F079057C7C
:1045CC00BF7D077AFC7B07120B17EE248012464C3A
:1045DC00120B17850882850983E0601E7508FB7530
:1045EC00090778081219927C087903EEFAEFFB128E
:1045FC000B89740212173E750A0C1248C280031202
:10460C004625E8C3950A40F775E1957904120D1B10
:10461C00790180027900024595880874FB2508F51C
:10462C00827407124EA0F5D9082212463A22EAFEED
:10463C00EBFF9061D0E0F87480C398FAEE248222EC
:10464C00FCEF3400FD8E828F83A3A3A3A3A312548B
:10465C00618C828D83E028F0A3E039F0790222741A
:10466C00F612177FEAFEEBFF9061D0E0707475D9FB
:10467C001875D90375D9037A008A08EE25081253E8
:10468C00A3249B12470C40F17A008A08EE250812ED
:10469C0053A324A31246F940F17A008A08EE2508A8
:1046AC001253A3249312470C40F17A008A08EE258A
:1046BC00081253A324871246F340F175E19579084B
:1046CC00EE2493FAEF3400FB120B1D7904EE2487D1
:1046DC00FAEF3400FB120B1D7904120D1B12471557
:1046EC00800279000248441246FF9404221246FFCD
:1046FC00940222F582E9124FF8E0F5D90AEAC322B6
:10470C001246FF94082275E195EE246FF582EF12A4
:10471C004FF4125461EE2471F582EF124FF4E8F06D
:10472C00A3E9F07901223400F5831254612274F666
:10473C0012177FEAFEEBFF9007FB74061247E41298
:10474C0019927C017903120B89740212173E75D9E8
:10475C000675D90378001247CA40FB75E1959004A1
:10476C0079E064087017EE246FF582EF124732EE91
:10477C002471F582EF124B4DE8F0A3E9F0790102B8
:10478C00484474F612177FEAFEEBFF9061D0E0709C
:10479C00299007FB740A1247E41219927C017903E1
:1047AC00120B89740212173E75D90675D90378005D
:1047BC001247CA40FB12471280027900807A88089F
:1047CC0074FB2508F58274071247DA940522124F00
:1047DC00F8E0F5D908E8C322F07508FB75090778ED
:1047EC00082274F612177FEAFEEBFF9061D0E0709E
:1047FC004279019007FB740BF0900479E064077028
:10480C00197508FB75090778081219927C010909BA
:10481C00120B89740212173E7905740129F5D975AA
:10482C00D90378008003124625E8C39940F8124753
:10483C0012800279008001F07F02021851F582EF9C
:10484C00124EA0F5D92274F512177F1248ED6004B0
:10485C00780480027800E8240BF8EAC3984052757B
:10486C000A099007FB7408F0F91248CE120B178551
:10487C000882850983E0601E7508FB7509077808B6
:10488C001219927C097903EEFAEFFB120B89740270
:10489C0012173E750A0D1248C28003124625E8C352
:1048AC00950A40F775E1957904120D1B1247158096
:1048BC00027900024B437401250AF5D975D90378A6
:1048CC000022EE24E4FCEF3400FD7AFC7B0722EEA0
:1048DC00241DF582EF1248E522124FF8E4F0A3F004
:1048EC002212463AF8EF1248F6223400F988088969
:1048FC00098882F583E02274F312177F8A088B09EA
:10490C00124A59FAE5082482F50AEB1249C36004ED
:10491C00780480027800E82408F8EAC3985003026F
:10492C0049BC750C069007FB740CF0900496E09053
:10493C0007FCF07402C0E0F97C977D047AFD7B07DC
:10494C00120B17D0E0F97C997D04120B17850A82A3
:10495C00850B83E0601E750AFB750B07780A12192C
:10496C00927C067903AA08AB09120B897402121700
:10497C003E750C0A7401250CF5D975D903780080A5
:10498C0009880A74FB250A12462BE8C3950C40F1E2
:10499C0075E1957904120D1BE508246FF582E50984
:1049AC00124732E5082471F582E509124727800287
:1049BC0079007F050218513400F50B850A82F583C6
:1049CC00E02274F612177FEAFEEBFF124A59FCEE56
:1049DC002482F8EF124ADC60047A0480027A00EA3E
:1049EC002404FAECC39A40607A029007FBEAF0EEDA
:1049FC0024F6F582EF124A63601B7508FB750907F4
:104A0C0078081219927C027903EEFA120B8974025F
:104A1C0012173E7A0674012AF5D975D903780080ED
:104A2C0003124625E8C39A40F875E195EE247312FB
:104A3C0050E1EE247F1250E11248DB7904120D1B79
:104A4C00EE240D124718800279000248449061D080
:104A5C00E0F87480C39822124EA09007FCF0888274
:104A6C008983E02274F612177F124A59FEEA2482D7
:104A7C00F8EB124ADC60047C0480027C00EC240419
:104A8C00FCEEC39C40457C029007FB7407F0EA24C3
:104A9C00F7F582EB124A6360177508FB7509077806
:104AAC00081219927903120B89740212173E7C06B4
:104ABC0074012CF5D975D90378008003124625E8CA
:104ACC00C39C40F875E19579018002790002484455
:104ADC003400F988828983E02274F512177FE9FE8D
:104AEC00A2AFE433F50AC2AF7F00EA246EF8EB34D0
:104AFC0000F980010F88828983E0F508EFC39508DF
:104B0C0050188F08EA2508FCEB3400FDEC246AF5FC
:104B1C0082ED124E9C6E70DC8017EA2508FAEB349D
:104B2C0000FBEA246AF582EB124B4DEE124A690443
:104B3C00F0E50AA2E092AF7F03021851246AF582D5
:104B4C00E9124FF42274F612177FA2AFE433FFC2BE
:104B5C00AFEA246EF8EB125190E014F07E0080194D
:104B6C008E08EA2508F8EB1253A5246B124E99C057
:104B7C00E0E8124B48D0E0F00E8C828D83E0F8EE2A
:104B8C00C39840DCEA246DF582EB124B4D74FF1296
:104B9C004BC6EFA2E092AF024844C082C083E5A8A6
:104BAC00F8C2AFEA246AF582EB124B4DE9124BC600
:104BBC00E8A2E7A2E792AF0240DFF0EA2469124BC9
:104BCC00CE22F582EB124FF8E4F02274F212177F2A
:104BDC008C828D83A3A3A3A3E0541FF0EA24361286
:104BEC0051868E828F83E4F0F50C850C8285820AC7
:104BFC00EC250AF8ED1248F6C0E0EA250AF8EB12AB
:104C0C004C65D0E0F0750D00850882850983E0F5D0
:104C1C000A750B00E50D780A1216F6E50AA2E050AB
:104C2C0023E50C33333354F8250DC0E08E828F838B
:104C3C00E0F8124E392438124B4AD0E0F08E828FB5
:104C4C0083E004F0050DE50DC3940840BB050CE5AD
:104C5C000CC3940540940245953400F9E8245DF5A5
:104C6C0082E9124FF42274F412177F9004A5E064C9
:104C7C00037003024E1F7E00EEF875F005A4C8AA5F
:104C8C00F02AF974AB28F582740439F583E06003DB
:104C9C00024E1574A928FA740439FB8A828B83A3FB
:104CAC00A374011253F8A3A3A3E4F0EA2404F8EBD1
:104CBC001253A5FCE9FDEE8C828D83F0EA2462127E
:104CCC004E262467F582EB124B4D7401124E4BE4C9
:104CDC00F0A3124E4BA3A3124E46240F124E2624C1
:104CEC0035F582EB1250E4F508F509F50AF50BEAF7
:104CFC002418124E2E121607EA241C124E34241DB0
:104D0C00124E42247F124E342473124E342468F512
:104D1C0082EB124B4D7480124BC6EA246E124E3449
:104D2C0024EC124E3424ED124E3424EE124E342464
:104D3C00EF124E3424F0124E4224F2124E4224F55D
:104D4C00124E342482124E3424D2124E3424D312F6
:104D5C004E3424D4124E2E121607EA24D8124E2E9C
:104D6C00121607EA24DE124E3424E0124E3424DCF0
:104D7C00124E3424E1124E3424E2124E3424F81232
:104D8C004E4224FA124E4224FC124E4224FEF5826C
:104D9C00EB1248E1FE8E08EA2508F8EB1253A51237
:104DAC004B4874FFF00EEEC3940440E97E008E82F3
:104DBC00A88274BF28F5827407124E9CC0E0124E74
:104DCC0039245D124B4AD0E0F00EEEC3940540DE60
:104DDC007E008E82A882748D28F5827404124E9CFB
:104DEC00C0E0124E3924E4124B4AD0E0F00EEEC370
:104DFC00940840DE9004A5E004F0640170198C82E4
:104E0C008D83E09004A7F0800E0EEEC39403500344
:104E1C00024C847A007B0002409E124FF17401F028
:104E2C00EA22124FF1780822124BCEEA22EA28F835
:104E3C00EB3400F9E822124FF1E4F0A3F0EA22F08F
:104E4C008A828B83A3A3A3A3A322C082C083EA2458
:104E5C0003F582EB124E9C6008E4F09004A6E0147B
:104E6C00F09004A5E014F070069004A774FFF08A8B
:104E7C00828B83A3A3E4F09007C4E0700D9004A68A
:104E8C00E0640170057900120CE50240DFF582E95F
:104E9C00124EA022124FF8E022C082C0837B00EB9E
:104EAC00F875F005A4C8AAF02AF974A528F87404BA
:104EBC001250B0A3A3A3A3E4F088828983A3A3A375
:104ECC00A3A3A3F00BEBC3940340D49004A5E4F08C
:104EDC00A3F0A374FFF075E1F10240DF74F5121733
:104EEC007F750800750900750A00A80A124F488ED4
:104EFC00828F83A3A3A3E0602BE5084509601D8581
:104F0C000882850983124F5F1219A5124F5B121686
:104F1C0016122170740412173EE97008EEF8EFF9BE
:104F2C0088088909050AE50AC3940340BD850882EF
:104F3C00850983A3A3A3A3E0F9024B43E875F0050D
:104F4C00A4C8AAF02AF974A928FE740439FF228E89
:104F5C00828F83E0F8A3E0F5838882A3A32274F701
:104F6C0012177F78FF79FF7F00EFFC75F005A4CC5A
:104F7C00AEF02EFD74A92CFC74043DFD8C828D8347
:104F8C00A3A3A3E0603EEC2473F582ED124E9CFECD
:104F9C0074FF68700374FF69700774016E701C8075
:104FAC000D74016E700DEC2479124FE45016EC2444
:104FBC0079800BEC242E124FE45009EC242EF58250
:104FCC00ED1247320FEFC39403409EC3EA98EB995E
:104FDC004004E8FAE9FB801FF582ED124FF4C3E0C0
:104FEC0098A3E09922F582EB124FF8223400F58356
:104FFC0022A2E092AF79007F0102185174F61217C9
:10500C007FEAFEEBFFEE2463F508EF3400F5098030
:10501C0016AA08AB09120B0B1212D39007C5E004A9
:10502C00F09007C6E004F08508828509831254527B
:10503C0070DFEEFAEFFB120AB7EEFAEFFB120C136D
:10504C0002484474F712177FEAFEEBFF8E828F83BF
:10505C00A3A3A3A3E0FA7B00120823EEFAEFFB1242
:10506C000ACF120BF58090C082C0837B00EBF875E1
:10507C00F005A4C8AAF02AF974A928F874041250EF
:10508C00B0E06014E8246E124E99600CE8246A12A9
:10509C004E997004790180090BEBC3940340CE79CF
:1050AC00000240DF39F988828983A3A3A32274F616
:1050BC0012177F78008808748D1250DC740412501B
:1050CC00E408E8C3940840ED90048D740102484351
:1050DC002508F58222F582EF124BD12274F71217B4
:1050EC007F74FC121728851882851983E4F0A3F0CD
:1050FC00A3F0A3F0120B23E9851882851983F01213
:10510C000B237401121773E9F0120B23740212179C
:10511C0073E9F08518828519831216167404121718
:10512C003E02500374F612177FEA240D125186ECDE
:10513C002403F8ED3400F988088909EC2407F8ED0C
:10514C00125190124736850882850983E0FAA3E054
:10515C00FB12169D8E828F83E8F0A3E912545885BA
:10516C000882850983E0FAA3E0FB12169D8B09EAFD
:10517C004509600312519C024844F8EB3400F9E8ED
:10518C00FEE9FF223400F9E8FCE9FD8C828D8322D4
:10519C008E828F83E02401F0A3E03400F02274F6B9
:1051AC0012177FEA242EF582EB124E9CFCA3E0FD35
:1051BC00EA246F125186780079FAECFAEDFB12169C
:1051CC009D8E828F83E8F0A3E9F0780079FAECFAEF
:1051DC00EDFB12169D8B09EA4509600312519C02E6
:1051EC00484474F012177FEAFEEBFF741012177329
:1051FC0078081215F8120CA98A0C8B0D8C0E8D0FD9
:10520C009090C7780C12155E9090DB780C1215BF3D
:10521C00780C12198E124F5B121616122170740430
:10522C0012173EE960030252D68E828F83E024026D
:10523C00F8A3E01253A5FAE9FB8A828B8378081253
:10524C0015719090DB78081215F88A828B83780898
:10525C001215D2EE240BF582EF124B4DC082C08397
:10526C008E828F83A3A3A3A3A3E02401F8A3E0342D
:10527C0000F9D083D082E0687003A3E069700479F0
:10528C00018049EE2407F8EF3400F98882898312F3
:10529C0051A0EE24731252DD7014EE24741252E6F7
:1052AC007003A3E06D70078A828B831251A0EE24E9
:1052BC007F1252DD7014EE24801252E67003A3E0CC
:1052CC006D70078A828B831251A079007F080218B7
:1052DC0051F582EF124EA0640122FAEF3400FB8AE2
:1052EC00828B83E0FCA3E0FD88828983E06C2274CE
:1052FC00F312177FE9FEECFFEA2462F582EB1252FF
:10530C00E060030253999061D0E0F508EA2482F53D
:10531C0082EB124E9CF50C600478048002780074C9
:10532C0080C39508FC95E0FDEF28F8E41253A52402
:10533C0002F8E93400F9EC98ED99A2D265D033402B
:10534C0048740D121773E0F50AA3E0F50BE50C6039
:10535C0015780A121992EFFCEEF9120B89740212ED
:10536C00173E74042FFF74012FF5D98ED978008065
:10537C000C8808E50A1250DCE50B12462FE8C39F97
:10538C0040EF75E195790080067907800279FF027C
:10539C0049BE8A0AEE250AF8EF3400F9E82274F7C0
:1053AC0012177FA2AFE433F508C2AFEA2402F8EB80
:1053BC003400F98A828B83E0FEA3E0FFEE4F600E8F
:1053CC0088828983E0FAA3E0F5838A8280048A824A
:1053DC008B83ECF0A3EDF0888289831253FEF0E509
:1053EC0008024FFD8C828D83E8F0A3E9F08A828B52
:1053FC008322ECF0A3EDF08C828D83E4F0A3227475
:10540C00F712177FEAFCEBFD7A007B00A2AFE433C6
:10541C00FEC2AF8C828D831254526022E8FAE9FBF3
:10542C008A828B831247361253F0E4F0A31254583D
:10543C00E849700A8C828D83A3A3E4F0A3F0EEA25A
:10544C00E092AF025003125461E84922F08C828D35
:10545C008312546122E0F8A3E0F922C082C0838059
:10546C0003125495E9F874FF28190470F4ECFAED62
:10547C00FB0240DFC082C0838003125495E9F874AC
:10548C00FF28190470F40240DF8C828D83E08A823D
:10549C008B83F08C828D83A3AC82AD838A828B83C9
:1054AC00A3AA82AB832274F012177F74FA12172806
:1054BC00890BECFEEDFF750A008A088B097808123F
:1054CC0019D6000410FC56F55413552D554555634B
:1054DC00557B559E55B655CA55F4557C568D56A4DC
:1054EC0056BE56FC56DF560A567401650B60030215
:1054FC0056F78E828F83E0F8C3940340030256F76D
:10550C00E89011C70256F47402650B60030256F75B
:10551C008E828F83125EB49011C8E8F0A3E9025614
:10552C00F47401650B60030256F71257294003020D
:10553C0056F7E8900DBF0256F47401650B60030238
:10554C0056F78E828F83E0F8C3940540030256F71A
:10555C00E8900DC00256F47401650B60030256F717
:10556C0012572940030256F7E8900DC10256F47405
:10557C0010650B60030256F7750810750900780862
:10558C001219927AC27B0D120F91740212173E02FD
:10559C00571D7401650B60030256F712572940031F
:1055AC000256F7E8900DD20256F47401650B6003B5
:1055BC000256F78E828F83E09011CB0256F474045E
:1055CC00650B60030256F78E828F83780C1215F8E8
:1055DC00909103780C12140450030256F7900DD4DA
:1055EC00780C12160702571DE960030256F71205D4
:1055FC001DE970051211658060900E67806E74074E
:10560C00650B60030256F7750806750900780812D9
:10561C0019928E828F83A3AC82AD8374021217739E
:10562C00AA82AB83120F97740212173E7C007D0086
:10563C00851882851983AA82AB838E828F83E0F9C9
:10564C001210FFE9F508C3940A400302571A120519
:10565C001DE9700CA90812116B7950121357806E4A
:10566C0074682508F582740E3400F5837401807813
:10567C007401650B70751257295070E8900DD3802A
:10568C00677401650B70648E828F83E0F8C3940A93
:10569C005059E89011CA80507401650B704D8E8280
:1056AC008F83E0F874F928C3940A503FE89011CC2A
:1056BC0080367401650B7033900E66E0F88E828F25
:1056CC0083E0900E66F0E87048E0640170431211BC
:1056DC0059803E7401650B70128E828F83E0F8C383
:1056EC0094045007E89011CDF08026750A1880219B
:1056FC00C3EA9427EB940050157402650B700F8E5F
:10570C00828F831262A4120403E9F50A8003750ADE
:10571C0002A90A740612173E7F080218518E828F56
:10572C0083E0F8C394022274F212177F74DA121712
:10573C0028890AECFEEDFF7420121773AC82AD833E
:10574C00758390758272740612163B74201217734F
:10575C00AC82AD831210FFE9F5087434121773E0B4
:10576C00F50BE9C3940A400302588E121141E9F576
:10577C00099011C7E06402700474018001E4F50C17
:10578C00780C121996AD0BAC09A908EEFAEFFB12C6
:10579C00118F740112173E7C147D007900740C1269
:1057AC001773AA82AB83120FA975F006E508A4F54E
:1057BC000B740C121773AC82AD837A107424250B06
:1057CC00F9121351E9703D7C1079FF740C121773A8
:1057DC00AA82AB8312100FE9702A741C121773ACD7
:1057EC0082AD837A047425250BF9121351740C12B3
:1057FC001773AC82AD83E509A2E0E433F9EEFAEF5E
:10580C00FB120499851882851983AC82AD837A0CBE
:10581C0074702508F9121351E97053851882851993
:10582C0083AA82AB83121135750800E50875F00365
:10583C00A4F8A9F0851882851983E58228F8E583F8
:10584C001260B112629E601D88828983A3A3E0F569
:10585C000C750D00780C121992EEFAEFFB12072D55
:10586C00740212173E0508E508C3940440BDE5090F
:10587C00A2E15046900DBEE0F9EEFAEFFB120733B1
:10588C0080387408650B70329011C7E06402702A7E
:10589C007C007D00A90AEEFAEFFB121189126B3322
:1058AC006018125EB988828983E5824583600B7C1F
:1058BC00007900EEFAEFFB12177D79007426026274
:1058CC007A74F012177FEAFEEBFF8C088D09750ACB
:1058DC000AE9600C14600914603714607902597C71
:1058EC0012114DE9F50AC3940A400302597CE508EC
:1058FC004509607C750E06750F00780E121992EE34
:10590C00FCEFFDAA08AB09120F91740212173E802E
:10591C005F750B00750E06750F00780E121992EE5E
:10592C00FCEFFDE50B75F00EA4F8A9F074E028FA75
:10593C00740D39FB120FA3740212173EE9600C852B
:10594C000B0AE50AC3940A50278016050BE50BC316
:10595C00940A501C80BE121153E9F50AC3940A50E4
:10596C000FE50845096009AA08AB09A90A121147F5
:10597C00A90A02572474F412177F89087509157443
:10598C00FF6A700374FF6B70277E00AC087A027B91
:10599C0000EEF9121123E960037509000EEEC394B1
:1059AC000A40E8E50860537A7D7B1112091F804A92
:1059BC001209018A0A8B0BAE0AAF0BEE4F60387CD2
:1059CC00007D00EE2405FAEF3400FB8E828F83A35A
:1059DC00A3A3A3E0F91210FFE9C3940A500CAC087E
:1059EC007A027B00121123750900E508600CEEFAAF
:1059FC00EFFB12117D8003750914A9098005740E43
:105A0C0012173E7F0402185174F212177FECFEED50
:105A1C00FF750815740E121773E0F50AA3E0F50B69
:105A2C0074FF6A700374FF6B7021750900AC0AADCA
:105A3C000BEEFAEFFBA909121129E96003750800B6
:105A4C000509E509C3940A503F80E21209018A82D4
:105A5C008B83E5824583602D7C007D00E5822405E7
:105A6C00FAE5833400FBA3A3A3A3E0F91210FFE92A
:105A7C00C3940A5013AC0AAD0BEEFAEFFB121129CA
:105A8C007508008003750814A90802627DC082C0E5
:105A9C0083900DD8EAF0A3EBF0900DBEE0FC7D00F6
:105AAC007A267B00120403900DBEE0F91206AF02B9
:105ABC00677374EC12177F8A088B09E9FE74141251
:105ACC001773780C1215F87F00EE702E78081219E7
:105ADC009290910378101215F8780C79101214A387
:105AEC00AA10AB11AC12AD131204AB740212173E18
:105AFC00E9FF60097901AA08AB091204A5EFF97F47
:105B0C000C02185174F012177F74EC121728EAFE6D
:105B1C00EBFFEE240CF50EEF3400F50F8E828F8325
