:020000040000FA
:0600000002010A022018B3
:03002B0002228529
:03003B000222A6F8
:0300430002223066
:0300530002208EFA
:03005B000223106D
:03006B0002225618
:10008300021EC7E5C754F84401F5C77901220000F1
:100093000080FB120086B900030200F4E4791A78A9
:1000A30002B800028004F709D8FCE4791C7802B88E
:1000B30000028004F709D8FCE4900281787E790F6E
:1000C3008002F0A3D8FCD9FA9010FEAA82AB8390E9
:1000D300013A78EA79018015E493A3AC82AD838A6F
:1000E300828B83F0A3AA82AB838C828D83D8E9D9D8
:1000F300E77582567583C5740312011C7582917569
:100103008300740012011C75D00075813F7518813E
:10011300751902759F00020096C09FF59FE473D086
:100123009F22D083D082C09FE493C0E0740193C028
:10013300E0740293F59F229703A903D3039D03FF62
:100143000000B4000028002800283075A000A0009B
:10015300A000A00000080008E001F000100010005B
:10016300100010001000100050005000500010004C
:100173001000D0070000000000000F000100050080
:10018300307507001000010081FF00000000FF022E
:1001930002022B91010000129102199101000056F5
:1001A30011022591010000B20202199101000057CA
:1001B30011021591010000C802FFFF0100FF200298
:1001C3002B910100000F910219910100008511028A
:1001D3001F910000000000021791030000A50377A0
:1001E3000B770B770B770B770B770B770B770B77FC
:1001F3000B770B770B770B770B8D0DAB0D870DFF04
:10020300FF01E803053F10020AFF00FEFF010B7C1C
:100213000CD78138F3102C02E2900A7C0CD781377B
:10022300120125BFBB03120125D5BB03120125040F
:10023300BC031201253ABC0312012551BC03120170
:100243002588BC03120125DBBC03120125F2BC0384
:1002530012012532B50312012549B5031201257A8E
:10026300B503120125B5B503120125DFB50312014C
:100273002509B60312012520B60312012537B6035B
:100283001201254EB60312012577B6031201258A02
:10029300B603120125A0B603120125CAB603120143
:1002A3002509F3011201250DF4011201253AF40188
:1002B30012012590F401120125B3F401120125C79F
:1002C300F401120125C9F401120125ECF401120114
:1002D30025FBF501120125BFF60112012594F70153
:1002E30012012505F80112012591F8011201259447
:1002F300F8011201251CF90112012557F901120118
:1003030025BEF901120125F5F90112012583FA0130
:100313001201250DFB011201255CFB011201256968
:10032300FB011201256CFB01120125CCFB0112011B
:1003330025D7FB0112012556FC0112012559FC01A9
:100343001201256CFC011201256FFC01120125FE2F
:10035300FC0112012518FD0112012528FD011201DE
:100363002558FD0112012565FD0112012568FD01D6
:10037300120125E9FD01120125D7FE01120125898C
:10038300FF011201258CB20212012589B302120169
:10039300250BB4021201252BB40212012573B402FA
:1003A300120125C6B4021201252AB502120125B78E
:1003B300B50212012571B60212012580B90212019C
:1003C300250BBB021201252EBB0212012535960314
:1003D300120125D2970312012536980312012595A0
:1003E3009803120125A39803120125CC9803120147
:1003F300256BF10212012593F102120125C1F102CD
:10040300120125F8F10212012556F202120125A16B
:10041300F202120125ECF2021201252CF302120161
:100423002572F302120125A0F3021201255DF402E5
:1004330012012567F40212012574F402120125A7A3
:10044300F40212012573F5021201257FF502120150
:100453002597F502120125A1F5021201251FF602C7
:10046300120125AFC303120125BDC303120125D514
:10047300C303120125EDC30312012505C4031201B1
:1004830025C0E4011201256CE501120125E7E50110
:1004930012012508E70112012544E701120125EDA8
:1004A300E701120125D4E80112012538EA011201FE
:1004B300258FEA0112012510EB0112012500EC0141
:1004C3001201254DEC01120125D3EC011201250582
:1004D300ED0112012519EF011201255BEF01120154
:1004E3002579EF011201251BF001120125E3F0012B
:1004F300120125F0F201120125E09903120125F6FC
:1005030099031201251C9A03120125389B0312013A
:1005130025429B03120125779C031201256F9D033E
:100523001201259989031201253D8A0312012570C1
:100533008A03120125BA8A031201257D8C03120155
:1005430025E1A5011201255AA6011201256AA6017A
:1005530012012558A7011201257DA7011201258843
:10056300A70112012572A80112012528A901120170
:10057300250FAB01120125C8AC01120125A4AD0161
:1005830012012558AE0112012595B101120125432F
:10059300B201120125B2B30112012532B5011201D4
:1005A30025D9B50112012522B60112012559B6013B
:1005B300120125F6B60112012581B7011201255E4C
:1005C300B801120125B3B80112012512BA011201B3
:1005D3002522BA011201254FBA01120125A6BA013B
:1005E3001201254FBB0112012556BC011201252022
:1005F300BD0112012580BE01120125C3BE011201F6
:100603002568BF011201258EBF011201259CC1017E
:10061300120125A1C101120125A6C301120125F36F
:10062300C30112012566C40112012599C4011201F7
:10063300253BC501120125E4C5011201251CC60194
:100643001201251FC60112012567C601120125A942
:10065300C60112012500C701120125F3AA031201E5
:100663002506AB0312012514AB031201255CAB0372
:1006730012012572AB03120125B9AB03120125CD7B
:10068300AC031201255AAD03120125A5AD031201D6
:1006930025DC2300120125EC23001201254F240041
:1006A3001201259424001201254A25001201252553
:1006B30026001201254E26001201257E2600120176
:1006C30025BE2800120125A52A001201257D2C0034
:1006D300120125C12D0012012528300012012536F3
:1006E30031001201258832001201259233001201D4
:1006F30025D433001201250C34001201252E3400B9
:10070300120125913400120125533900120125E805
:1007130039001201253C3A00120125633A00120107
:1007230025A13A00120125C03A001201251A3B0007
:100733001201251A3C001201259F3C001201259746
:10074300EB02120125A1EB0212012549EC02120171
:10075300258CEC02120125A7EC0212012537ED02CC
:100763001201255FED0212012597ED02120125CE3C
:10077300ED02120125F7ED0212012531EE021201FD
:100783002546EE0212012513EF0212012536EF0270
:1007930012012558EF021201256DEF02120125F314
:1007A300EF021201252DF002120125A5F00212011C
:1007B30025EEF00212012518F10212012543F10280
:1007C30012012590BF031201250080021201252E7C
:1007D3008002120125898102120125698202120118
:1007E300258882021201250583021201254883020E
:1007F300120125C384021201253285021201255DEF
:100803008702120125E18902120125928A0212014F
:1008130025888B02120125288C02120125268D02C0
:10082300120125B18D0212012509BD0312012572A2
:10083300BD03120125C6BD03120125F5BD03120137
:100843002516BE031201251A8E03120125878E0376
:10085300120125CE8E03120125E68F03120125E234
:100863009003120125C591031201250ADE0212012C
:10087300254CDE0212012525DF021201251FE002AD
:1008830012012501E1021201256AE1021201258606
:10089300E202120125F2E202120125F5E20212013F
:1008A300251EE30212012598E3021201253DE4020D
:1008B30012012552E40212012598E402120125B126
:1008C300E402120125B4E402120125799D03120109
:1008D30025B59D03120125F39D03120125BD9E033A
:1008E3001201252C9F03120125679F03120125A5E1
:1008F3009F03120125D59F03120125FC9F031201BB
:10090300256AA003120125ACA0031201253591012C
:10091300120125F89201120125C39401120125FF4A
:1009230094011201252C9501120125EE9501120166
:10093300253596011201257996011201258B960121
:10094300120125CB9601120125F8960112012546C5
:100953009701120125809701120125A39701120126
:1009630025F5970112012583980112012559990153
:10097300120125439A01120125129C01120125132C
:10098300A10112012562A101120125A9A1011201F0
:1009930025DCA3011201259BB0031201250DB10330
:1009A30012012563B103120125A7B103120125C763
:1009B300B10312012514B2031201255CB203120123
:1009C30025AFB20312012500B303120125063D0032
:1009D3001201254F3D001201257C3D00120125AF78
:1009E3003D00120125BF3D00120125CB3D00120140
:1009F30025DC3D00120125C33E00120125213F00E5
:100A0300120125563F00120125994000120125EBE2
:100A130040001201253B41001201258E41001201C5
:100A2300258D4200120125084400120125DF4400F0
:100A3300120125EF4400120125114500120125146E
:100A43004500120125E24500120125B346001201BB
:100A530025824700120125D647001201253648009A
:100A63001201259A48001201254B4900120125164F
:100A73004A00120125B84A001201252D4B0012012C
:100A830025994B00120125EE4B001201251F4C0046
:100A9300120125BA4C001201259E4E00120125EDCC
:100AA3004E00120125304F00120125B24F001201F2
:100AB30025505000120125975000120125BB50000C
:100AC300120125025100120125305100120125782F
:100AD3005100120125F25100120125365200120174
:100AE30025435300120125F25300120125535400EC
:100AF300120125AF5400120125C8540012012559D3
:100B0300BC02120125ACBC02120125B8BC021201C1
:100B1300258DBD02120125B4BD02120125EFBD02D0
:100B23001201255BBE0212012597BE02120125D0D8
:100B3300BE02120125E8BE021201253DBF021201C9
:100B43002556BF021201259FBF02120125B2BF0223
:100B5300120125CCBF02120125E2BF0212012515A5
:100B6300C1021201255CC2021201255EC3021201F9
:100B73002558C402120125FA7F00120125A7F602A7
:100B830012012516FA021201254FFB0212012561FB
:100B93009C02120125D79E02120125DD9E0212013D
:100BA3002545A102120125ACA302120125D084031D
:100BB3001201256685031201251D860312012547AF
:100BC30086031201253A8803120125628903120163
:100BD300258D6B00120125C16B00120125AE750036
:100BE3001201250277001201250D78001201258DCF
:100BF30079001201256E7A00120125A87A001201EC
:100C030025CB7A001201250D7B00120125577B00AD
:100C1300120125617B001201250B7C00120125E4E2
:100C23007C00120125387D001201259A7D001201F6
:100C330025ED7D001201251C7E00120125597E0041
:100C4300120125CAA70312012540A8031201255644
:100C5300A80312012597A803120125D1A8031201A5
:100C6300254AA90312012585A903120125F8A90321
:100C730012012536AA031201253FAA031201254BAF
:100C8300AA0312012567AA0312012592AA031201DE
:100C930025C3AA03120125D8E402120125EBE402BD
:100CA30012012505E5021201252EE5021201257127
:100CB300E502120125B0E502120125EEE50212015B
:100CC3002553E60212012568E6021201257FE6029A
:100CD3001201258DE6021201259CE602120125B1BF
:100CE300E602120125C6E602120125D1E60212012F
:100CF30025DDE602120125EAE602120125FDE602E0
:100D030012012508E7021201252DE702120125D45D
:100D1300E702120125E9E702120125FEE7021201AB
:100D23002518E80212012533E80212012550E802D2
:100D33001201255BE80212012517E90212012503BE
:100D4300EA0212012528EA0212012533EA021201FE
:100D53002548EA021201255CEA02120125BDEA02D6
:100D6300120125C3EA02120125C9EA02120125CFA5
:100D7300EA02120125E7EA021201251AEB02120127
:100D83002536A80212012558A80212012538A90206
:100D93001201250FAC021201253BAD021201255FA2
:100DA300AE0212012511AF02120125B2AF021201E8
:100DB30025378E02120125BB8E021201256A8F028E
:100DC300120125C99002120125EA9202120125D6C9
:100DD30093021201250B94021201252D9402120194
:100DE30025DC9402120125D49602120125FD9602F8
:100DF3001201258F9702120125C19702120125CEF8
:100E030097021201252598021201254B980212011F
:100E130025B89A02120125BB9B02120125139C02DD
:100E2300120125EDC701120125F7C801120125DEC4
:100E3300C901120125E8C9011201250ACA011201DB
:100E43002516CA01120125AFCB01120125DECB0104
:100E5300120125FACC0112012553CD01120125B946
:100E6300CE0112012598CF01120125F4CF01120101
:100E73002561D0011201259CD001120125DBD0018F
:100E830012012594D301120125AED3011201253A93
:100E9300D40112012548D401120125A1D401120164
:100EA30025AFD40112012522D50112012586D501D2
:100EB300120125D0D501120125DCB603120125014B
:100EC300B70312012573B703120125BED60212011F
:100ED30025C7D602120125D0D602120125A7D702B3
:100EE30012012558D9021201258ED902120125C8F3
:100EF300D902120125FED90212012538DA021201A4
:100F0300256CDA0212012598DA02120125E1DA02D0
:100F13001201251BDB0212012564DB02120125BC31
:100F2300DB02120125F1DB021201254CDC02120166
:100F33002586DC02120125D7DC021201250DDD0214
:100F430012012547DD021201256ADD021201253156
:100F53007F001201255D7F00120125B87F00120179
:100F630025C27F00120125D27F0012012523C6026C
:100F73001201252DC6021201256BC602120125B4EA
:100F8300C602120125EEC60212012548C70212014C
:100F93002569C70212012541CA021201254ACA0264
:100FA30012012597CA02120125C0CA02120125CADD
:100FB300CA0212012536CB02120125C8CB02120147
:100FC3002512CC0212012548CC02120125D4CC02F1
:100FD30012012515CD021201254CCD021201255E09
:100FE300CD021201257DCD0212012586CD0212010B
:100FF300254ECE02120125B8C20312012541B303C7
:1010030012012577B303120125ADB303120125F8AD
:10101300B4031201251EC60312012534C6031201AF
:10102300253EC6031201259AFB02120125AFFB02DE
:1010330012012562FC02120125A2FC02120125BB4A
:10104300FC02120125F6FC0212012543FD021201E6
:101053002575FD02120125B7FD02120125C2FF020B
:1010630012012588C60312012523BA031201254C58
:10107300BA031201257BBA0312012513BB03120124
:10108300252BBB031201256DBB0312012500800331
:10109300120125428003120125C48003120125D9C0
:1010A30080031201252A81031201256F8103120196
:1010B30025CA81031201251982031201256F8203B8
:1010C3001201256483031201255B84031201259811
:1010D3008403120125AFC503120125FA540012013E
:1010E300257B5700120125155900120125C9590006
:1010F3001201255C5A00120125E15A00120125064E
:101103005B00120125585B001201250D5F001201DF
:1011130025935F00120125C66000120125006100BE
:10112300120125356100120125F262001201252604
:101133006300120125836300120125CC63001201B1
:1011430025336400120125AC6400120125DB640021
:10115300120125F364001201253C66001201254C9F
:1011630066001201256A67001201258C67001201CF
:1011730025C26700120125716900120125FE69006D
:101183001201253D6A00120125566B00120125A1AB
:10119300C703120125E7C60312012526C70312015F
:1011A300258EC7031201259EC403120125AEC40375
:1011B300120125C9C40312012531C503120125B447
:1011C300C10312012539C2031201259FC203120173
:1011D30025A9C003120125D0C00312012526C1038E
:1011E30012012576C10312012560A403120125759E
:1011F300A403120125B9A50312012535A603120183
:1012030025A9A603120125C3A603120125DAA60305
:10121300120125EDA60312012507A7031201251EBE
:10122300A70312012544A70312012595A703120161
:10123300258792031201259B92031201251593031F
:10124300120125F99303120125D09503120125F408
:10125300A00312012584A10312012510A203120188
:1012630025A9A2031201253AA30312012543A303CF
:10127300120125C1A303120125D4A303120125EAF8
:10128300A3031201254AA4031201255DA40312013D
:10129300255CBE03120125CCBE03120125D7BE0374
:1012A300120125E7BE03120125F2BE031201250E2A
:1012B300BF0312012581B803120125D3B80312011C
:1012C300255DB903120125C4B903120125CFAD036E
:1012D300120125F9AD03120125C7AE03120125A2A0
:1012E300AF0312012529B0031201257CCE0212019E
:1012F3002543CF021201257ACF02120125A4CF0282
:1013030012012504D0021201255AD002120125BF71
:10131300D00212012557D10212012566D202120111
:1013230025FDD3021201258AD402120125F1D4022C
:1013330012012508D50212012522D60212012560C9
:10134300D60212012559D6011201257AD7011201BD
:10135300258FD8011201250DDA0112012532DB0197
:1013630012012537DC011201255ADC011201257611
:10137300E001120125C8E00112012566E101120115
:1013830025A6E2011201254BE301120125CDE3015C
:101393001201253BC50312012543C503120125CFC5
:1013A300FF0212012530C70312012566C70312018C
:1013B30025DC7F00E066701008A3E066700A08A3CE
:1013C300E066700408A3E06622C3E7960809E7967F
:1013D3000809E7960809E79622C3E09608A3E09672
:1013E30008A3E09608A3E09622C008C3E096F50898
:1013F30008A3E096420808A3E096420808A3E096F3
:1014030045087001D3D00822080808EAC0E0EBC001
:10141300E086F0E7A4FA180986F0E7A42AFA180987
:1014230086F0E7A42AFA180986F0E7A42AFA1986AF
:10143300F0E7A4FBE5F02AFA190886F0E7A42BFBF2
:10144300E5F03AFA190886F0E7A42BFBE5F03AFA3F
:1014530018180986F0E7A4C5F02BFBE43AFA19083B
:10146300E7C5F0C6A426F6E5F03BFBE43AFA188696
:10147300F0E7A4F6E5F00826F6E43B08F6E43A08BC
:10148300F6D0E0FBD0E0FA22E4CFC0E0E4CEC0E047
:10149300E4CDC0E0E4CCC0E075F020C3E633F60849
:1014A300E633F608E633F608E633F6181818EC3395
:1014B300FCED33FDEE33FEEF33FFC3EC9709ED97FD
:1014C30009EE9709EF97191919400FFFEC97FC09DB
:1014D300ED97FD09EE97FE191906D5F0BEECF70955
:1014E300EDF709EEF709EFF7191919D0E0FCD0E091
:1014F300FDD0E0FED0E0FF226016080808C6C31343
:10150300C618C613C618C613C618C613C6D5E0EA4E
:10151300227009080808226016181818C6C333C6B3
:1015230008C633C608C633C608C633C6D5E0EA22A2
:10153300E627F60809E637F60809E637F60809E666
:1015430037F622E026F608A3E036F608A3E036F6DF
:1015530008A3E036F622E026F008A3E036F008A35D
:10156300E036F008A3E036F022C3E697F60809E672
:1015730097F60809E697F60809E697F622C3E09678
:10158300F008A3E096F008A3E096F008A3E096F035
:1015930022E657F60809E657F60809E657F608095A
:1015A300E657F622E056F608A3E056F608A3E056FF
:1015B300F608A3E056F622E056F008A3E056F0083A
:1015C300A3E056F008A3E056F022E066F608A3E095
:1015D30066F608A3E066F608A3E066F622E0F608DE
:1015E300A3E0F608A3E0F608A3E0F622E6F008A3DA
:1015F300E6F008A3E6F008A3E6F022E0FAA3E0FB96
:10160300A3E0FCA3E0FD22EAF0A3EBF0A3ECF0A33C
:10161300EDF022CAC0E0E6F0A308DAFAD0E0FA223D
:10162300CAC0E0E0A3C582CCC582C583CDC583F023
:10163300A3C582CCC582C583CDC583DAE6D0E0CA13
:1016430022C3E498F8E499F91216858026C3E49A34
:10165300FAE49BFBE920E7E9121685E498F8E4999C
:10166300F922C3E498F8E499F9121685E498F8E4AA
:1016730099F9C3E49AFAE49BFB22EB20E7CFE92034
:10168300E7E0B90010BB0008E88AF084F8AAF0226A
:10169300E4FBC8FA22EB70227B10C833C8C933C9F4
:1016A300335007C39AC3DBF280069A50012ADBEA60
:1016B300C833F4C8C933F4C9FA2275F008E4C8334F
:1016C300C8C933C933C99AC99B5004C92AC93BD570
:1016D300F0ECFBC833F4C8E4C9FA22600D08C6A2D3
:1016E300E713C618C613C6D5E0F322600C08C6C3B9
:1016F30013C618C613C6D5E0F422700422600D1871
:10170300C6C333C608C633C6D5E0F418222518105D
:10171300AF08F518400215198008F518400215198D
:10172300D2AF22C0D0251810AF08F5185002051902
:101733008008F51850020519D2AFD0D0222518F52C
:101743008210AF08F518400215198008F5184002F9
:101753001519D2AF851983222518F582E43519F5B9
:101763008322E4732518C582C0E0E51934FFC583DD
:10177300C0E0E518C3958224F810AF088583198566
:1017830082188008858319858218D2AFCEF0A3E52D
:1017930020F0A37808E608F0A3DEFAEFF0A3E581D2
:1017A30024FAF8E608F0A3E608F0A3E608F0A30895
:1017B30008E608F0A3E608F0A315811581D0E0FE42
:1017C300D0E0F8158115811581E8C0E0EEC0E02274
:1017D3002518C582C0E0E51934FFC583C0E0E518CC
:1017E300C3958224F910AF08858319858218800870
:1017F300858319858218D2AFCEF0A3E520F0A378B4
:1018030008E608F0A3DEFAEFF0A3E58124FBF8E68F
:1018130008F0A3E608F0A30808E608F0A3E608F03A
:10182300A315811581D0E0FED0E0F815811581E87C
:10183300C0E0EEC0E022851983851882E0A3FEE0B4
:10184300A3F5207808E0A3F608DFFAE0A3FFE0A3FE
:10185300C0E0E0A3C0E0E0A3C0E0E0A3C0E0E0A3F9
:10186300C0E010AF08858218858319800885821827
:10187300858319D2AFD083D0820201228519838553
:101883001882E0A3FEE0A3F5207808E0A3F608DFC2
:10189300FAE0A3FFE0A3C0E0E0A3C0E0E0A3C0E060
:1018A300E0A3C0E010AF08858218858319800885FE
:1018B3008218858319D2AFD083D08222C0D0251855
:1018C300C582C0E0E51934FFC583C0E0E518C395C0
:1018D3008224F310AF0885831985821880088583D5
:1018E30019858218D2AFC8F0A3E9F0A3EAF0A3EBFD
:1018F300F0A37908E709F0A3D8FAECF0A3EDF0A37D
:10190300EEF0A3EFF0A3D0E0F0A3D0E0F0A3D0E09B
:10191300F0A3E520F0A3E5F0F0A322851983851851
:1019230082E0C0E0A3E0F9A3E0FAA3E0FBA3780818
:10193300E0F608A3DFFAE0FCA3E0FDA3E0FEA3E0EA
:10194300FFA3E0C0E0A3E0C0E0A3E0F5D0A3E0F58F
:1019530020A3E0A3F5F010AF0885831985821880D2
:1019630008858319858218D2AFD082D083D0E0F85E
:10197300D0E03274048006740280027401C0E0F483
:1019830004121740D0E01216162274048004740265
:101993008000CCC0E0EDC0E0E518C39CCCAD19508D
:1019A300011D10AF068C188D1980068C188D19D265
:1019B300AF121623D0E0FDD0E0FC22D083D082E921
:1019C300C0E0E493A3C386F0C5F095F0F908E4936F
:1019D300A386F0C5F095F0700BE493A3C39940057B
:1019E300E9048002A3E475F002A42582F582E5F000
:1019F3003583F583D0E0F9E493A3C0E0E493C0E03A
:101A030022D083D082ECC0E0EDC0E0E493A3FCE4F9
:101A130093A3FDED4C600D121A50EC24FFFCED3442
:101A2300FFFD80EFE493A3FCE493A3FDED4C600D75
:101A3300121A8FEC24FFFCED34FFFD80EFD0E0FDA4
:101A4300D0E0FCE493A3C0E0E493C0E022C0E0C391
:101A5300E49396087401939618400FE49366700814
:101A630008740193661870007019A3A3C3E49396D6
:101A7300087401939618A3A3400DD0E0D0E0D0E002
:101A8300021A40A3A3A3A3A3A3D0E022C0E0C0F003
:101A930088F0E4936670080874019366187000A8D0
:101AA300F0A3A3700BD0F0D0E0D0E0D0E0021A4056
:071AB300A3A3D0F0D0E02254
:101ABC0074F51217D3EAFEEBFFEE2434F8EF340082
:101ACC00F988088909EE2435121BE8F8EE24371240
:101ADC001BE8F50AEC850AF0A4FCAAF0850AF0EDE7
:101AEC00A42AFDE82CF8E43DF97A257B0012168532
:101AFC00EA850882850983F074075AF87401B800E6
:101B0C00028004C333D8FCFBEA131313541FF8EE02
:101B1C0028F8EF3400F9E8245DF582E9121BEB5B41
:101B2C006003EA801CEE2436121BE8F5F0EA84A868
:101B3C00F0EE28F8EF3400F9E82438F582E9121BAE
:101B4C00EBF97F0402187F74F51217D3EAFEEBFF52
:101B5C00EE2434121BE8C0E0EE2435F582EF34009D
:101B6C00F583D0E0F08E828F83A3A3A3A3A3E0FA26
:101B7C00A3E0FB8E828F83A3A3A3A3A3A3A3E0FC68
:101B8C00A3E0FDECC39AF50AED9BF50BEE247FF573
:101B9C0008EF3400F509850882F583E06401702BA9
:101BAC00EE2480F582EF3400F583121991121BF1AB
:101BBC007402121726E960137CBF7D07EEFAEFFB67
:101BCC00120A8D850882850983E4F0AC0AAD0BEE10
:101BDC00FAEFFB121ABC12221C021B4EF582EF34D8
:101BEC0000F583E022C082C083851882851983E0CA
:101BFC00F8A3E0F9C3EA9CEB9D5010C3EC98ED9967
:101C0C00401BC3EA98EB995014800EC3EA98EB99E9
:101C1C004007C3EC98ED994004790180027900D01B
:101C2C0083D0822274ED1217D3900479E06408609B
:101C3C0005E06407702C9061C8E060269004A7E072
:101C4C00F874FF68601CE875F005A4C8AAF02AF9BE
:101C5C0074A928FE740439FF8E828F83A3A3A3E09A
:101C6C0070057900021DD0EE2468F510EF3400F5F4
:101C7C0011906060E0851082851183F0750AFB7508
:101C8C000B07750800750900E5D914F50EE5D95454
:101C9C0003F50F601CEE2482F50CEF3400F50D7487
:101CAC0003650F6058E50E6013EE2467121BE87095
:101CBC000B793DEEFAEFFB120AB780A69007F6E01F
:101CCC0064016026850C82850D83E06004780480B5
:101CDC00027800850E08E508C398FA95E0FB120916
:101CEC001F8A088B09EA45097006120D63021C6EE7
:101CFC00850C82850D83E070048A0A8B0B7800803A
:101D0C0016E5D9C0E08812E50A2512F582E50B34F8
:101D1C0000F583D0E0F008E8C3950E40E4850C8212
:101D2C00850D83E0602874FC250EF50E780A1219D7
:101D3C007AAC0EA90FEEFAEFFB120B7174021217AC
:101D4C0026E9700AAA08AB091212BB021CBD740367
:101D5C00650F6058850E0C750D00780C12197AAC55
:101D6C000AAD0BAA08AB09120B35740212172685A3
:101D7C001082851183E0F87480687005750C7F8083
:101D8C0002880CE50CF50A780A12197EE50FF50AA3
:101D9C00780A12197EA90EAC08AD099004A7E0FAD6
:101DAC007B001207C374021217268013900479E08B
:101DBC006408700BAC0AAD0BEEFAEFFB120BA11220
:101DCC000D6F79017F0C02187F74F31217D374FC1A
:101DDC00121710EAFEEBFF8908A2AFE433F509C233
:101DEC00AFEE2463F50AEF3400F50B8010AA0AABB2
:101DFC000B120AED1212BB9007C6E004F0850A82A2
:101E0C00850B83E0F8A3E0F9E849602FE82402FA97
:101E1C00E93400FBEA2402F50CEB3400F50D780CE8
:101E2C0012197A8A828B83E0FCA3E0F9EEFAEFFBBD
:101E3C00120AE17402121726E960B29007C6E0603C
:101E4C00579007C7E0F89007C6E0C398500C74028F
:101E5C00650870449007C8E0603E8E828F83A3A310
:101E6C00A3A3E0851882851983121EB4740212177D
:101E7C005BE8121EB49007C5E028F0740212175BE1
:101E8C00AC82AD83851882851983AA82AB837901D4
:101E9C001207CF9007C6E4F0E509A2E092AF7404F4
:101EAC001217267F0602187FF0A3E4F09007C6E015
:101EBC00F8220000851A87851BC622C0E074EF1239
:101ECC0018BFA2AFE433FEC2AF759B00906182E0F5
:101EDC00A2E05012E591A2E0500C7591FE740165E0
:101EEC001A7003121C30E0A2E55051E591A2E550A6
:101EFC004B7591DF900479E064076005E06408702D
:101F0C00237401651A703579019004A7E0FA75F015
:101F1C0005A4CAA8F028FB74A92AFA74043BFB1286
:101F2C001DD58018E0640D701390049BE004F064E0
:101F3C00287002E4F07A00E0F9120D75906182E0ED
:101F4C00A2E64003021FEEE591A2E64003021FEE5B
:101F5C007591BF900479E064057008120C73120C33
:101F6C007F8003120C79751A00120CE5E990047A43
:101F7C00F07900120CC71209F17A017B00900478F9
:101F8C00E0F9120FCD907803E0644270559007FA97
:101F9C00E014F0704DC2AF121FA600781DD0E0F611
:101FAC0018D0E0F6E59F540770057509FF8003759E
:101FBC00097FC4C0E0781CE6F50808E65509F50968
:101FCC00740B78081216EED0E02508F8906270E0D9
:101FDC00A2E740F8E8C333906272F0906270E0D2EE
:101FEC00E0F0906181E0A2E35009E5E9A2E350033F
:101FFC0075E9F7A3E0A2E75009E591A2E750037554
:10200C00917FEEA2E092AF7F0402191EC0E0C0D017
:10201C00C082C083906183E0A2E05009E5BFA2E0DA
:10202C00500375BFFEE0A2E15009E5BFA2E15003E9
:10203C0075BFFDE0A2E25009E5BFA2E2500375BFF7
:10204C00FBE0A2E35009E5BFA2E3500375BFF7E044
:10205C00A2E45009E5BFA2E4500375BFEFE0A2E58E
:10206C005009E5BFA2E5500375BFDFE0A2E65009B9
:10207C00E5BFA2E6500375BFBFD083D082D0D0D0CD
:10208C00E032C0E074F21218BFE5A7A2E4500FE5ED
:10209C00A1A2E4500953A7EF75A1EF1220E2E5A726
:1020AC00A2E5500CE5A1A2E5500653A7DF75A1DF10
:1020BC00E5A7A2E15009E5A1A2E1500375A1FDE558
:1020CC00A7A2E2500CE5A1A2E2500653A7FB75A112
:1020DC00FB7F0102191E74F81217D3751A019004B4
:1020EC0079E0640670077A007B00120C5BA2AFE407
:1020FC0033FED2AF90047FE0640170187A207B002D
:10210C00900478E0F912104B7A207B00900478E070
:10211C00F9120FD3906182E0D2E6F09007F7E060FD
:10212C002185C61B801690047EE064017008E5C60C
:10213C0054F84405F5C653BEFC121EC07401651A52
:10214C0060E4EEA2E092AF7F0102187F74F11217E7
:10215C00D38A088B098C0A8D0B90909B78081215EA
:10216C00A7740F12175B780C1215E090909B780CEB
:10217C001215A77808790C1213CC9090CB501078CC
:10218C0008790C12156C78081213EC4014800E7838
:10219C000C790812156C780C1213EC500479018030
:1021AC000279007F0802187F74ED1217D38A088B0E
:1021BC00098C0A8D0B90909B78081215A77413123A
:1021CC00175B780C1215E090909B780C1215A77881
:1021DC000C79081213CC40117808790C12156CAAE2
:1021EC0008AB09AC0AAD0B80227510007511007597
:1021FC0012007513017810790C12156C781079088F
:10220C00121533AA10AB11AC12AD137F0C02187F50
:10221C00C082C083E9906000F0D083D08222C2AF2C
:10222C0002000022C0E074F21218BFA2AFE433FE29
:10223C00D2AFC2C0E5D1A2E4500653D1EF12128B3B
:10224C00EEA2E092AF7F0102191EC0E074F21218E8
:10225C00BFA2AFE433FED2AFE589A2E04006E58928
:10226C00A2E150031211E3758900758900C2C5EE15
:10227C00A2E092AF7F0102191EC0E0C0D0E8C0E01E
:10228C00E9C0E0E5A8D2AFC2C7A2E7A2E792AFD0FF
:10229C00E0F9D0E0F8D0D0D0E032C0E0C0D0E8C057
:1022AC00E0E9C0E0C008C009C082C083A2AFE4333B
:1022BC00F9D2AF901052E0F8A3E0687008539AFB83
:1022CC00A374018026C2E9901052E0F50874012530
:1022DC0008F074D22508F582740F3400F583E0F50C
:1022EC00C1901052E0C394804002E4F0E9A2E09265
:1022FC00AFD083D082D009D008D0E0F9D0E0F8D0AC
:10230C00D0D0E032C0E074F11218BF75C00090104C
:10231C00EAE0F8A3E0F9E82401FAE93400FB9010B4
:10232C00EAEAF0A3EBF0C3E89441E9941F500302EE
:10233C0023CE9010EAE4F0A3F09010ECE06401706E
:10234C0002A3E0707D9010DDE0640160757A787B0B
:10235C00901212A99010EEE0640170149011D2E06A
:10236C00FAA3E0FB1210999011D274FEF0A304F0C2
:10237C007E008E08750900740378081216FD749D92
:10238C002508F874103509F9E8FAE9FB8A828B8381
:10239C00E4F0A3F07C06FDF9EA2402FAEB3400FB2E
:1023AC00120F8B0EEEC3940840C890109BE4F09073
:1023BC0010DD04F07B00FA79031210A59010EE7476
:0723CC0001F07F0202191E5F
:1023D400FFFFFFFFFFFFFFFFC082C083E99011846E
:1023E400F0D083D08202012274F6121767E99003B9
:1023F40065F07CA57D037AFF7BFF12071B7A008AB8
:1024040008750900740278081216FD74662508F828
:102414007403350912243BA3F00AEAC3940340DF92
:1024240079051206A9900365E0F91205CB7A337B8E
:10243400071208D1023A37F98882898374FF12247B
:1024440048E4F022F0A31238E2A32274F4121767CE
:102454008A088B09EB54806030900365E0F9120F11
:10246400B58A0A8B0BAE0AAF0BEE4F60138E828FC8
:1024740083E064B070031206BBEEFAEFFB120FA305
:10248400AA08E5096480FB80047A007B0002262008
:1024940074F212176774FC121710EAFEEBFFEE4F8A
:1024A4006038740212175BEEF0A3EF1228A5ECF06B
:1024B400A3ED1228A5AA82AB831205C5E9F508701D
:1024C40071741212175B123489E50A450B60638E2E
:1024D400828F83122540EE4F700575080280537A6F
:1024E400067B001210098A0C8B0DA80CA90DE84973
:1024F4007005750813803B88828983E4122448EEB2
:10250400F0A3EF12392AE50AF0A3E50BF090037368
:102514001226189003736017E0FCA3E08003EAFC22
:10252400EBFD8C828D8312261870F38C828D8312BE
:10253400338CA9087404121726023B15A3A3A3A382
:10254400E0FEA3E0FF2274F2121767890AE975F02E
:1025540045A4FEAFF0900372E4F0900368122618CD
:10256400602812100F790089087509007402780830
:102574001216FD74682508F58274033509F583E4A1
:10258400F0A3F009E9C3940340DDEEFAEFFB121067
:10259400098A088B09EA45096075EEFCEFFD7900AC
:1025A400120F8B7D008D0C750D007402780C1216C1
:1025B400FD7468250CF87403350DF9E50AF5F0EDA2
:1025C400A475F017A4FAABF0E5082AFAE5093BFB79
:1025D40088828983EAF0A3EBF07E00801BEE75F01D
:1025E40017A4FAABF088828983E02AFCA3E03B8C31
:1025F40082F583E4F0A3F00EEEC3950A40DF0DEDFF
:10260400C3940340A0E50A900372F0790080027934
:1026140013023B15E0FAA3E0FBEA4B227F04021805
:102624003974F41217677900EAA2E0501B75087E2A
:10263400750990780812197A7C047D007A867B11DA
:102644001206A3740212172680D2C082C08390039C
:102654007312391C49601C88828983A3A3E06A70C1
:1026640003A3E06B8882898370E7A3A3A3A3123139
:102674003080047A007B000223E574EE121767743D
:10268400FC121710EAFEEBFF851882851983E4F02B
:10269400A3F0EE2402123377EE2405122893EE24DD
:1026A40004F50EEF122C6FE024FE603924FC604622
:1026B40024FE605224FE605E24FE700302279824E8
:1026C400FE700302281024FE700302281F24FE70EB
:1026D4000302282E24FC700302283D24FE7003020A
:1026E400284C02288990038C7417F0A3E41228ADB7
:1026F400120259022889851882851983AC82AD8318
:102704001206C1022859851882851983AC82AD83CB
:102714001206C7022859850C08850D097402121780
:102724005BAC82AD83850882850983123130120542
:10273400E98A0C8B0DAC0CAD0DEC4D6042E4F50C4C
:10274400F50D780C12197A750C8C750D03780C1232
:10275400197A750C8D750D03780C12197A74081298
:10276400175B121991791612312A12070374081291
:102774001726E9F50C700B123126120271800F75C1
:102784000C0185088285098312289B12338C850CE1
:102794000802285C740212175BAC82AD83850C823C
:1027A400850D831231301205E98A108B11AC10ADFE
:1027B40011EC4D6043850C82850D83A3A3121991FE
:1027C40075108C751103781012197A75108D7511A6
:1027D40003781012197A740812175B12199179167A
:1027E40012312A1207037408121726E9F509700B2F
:1027F400123126120277800F750901850C82850D2E
:102804008312289B12338C850908804C8518828595
:102814001983AC82AD831206CD803A85188285195E
:1028240083AC82AD831206D3802B851882851983ED
:10283400AC82AD831206D9801C851882851983ACBD
:1028440082AD831206DF800D851882851983AC82E0
:10285400AD831206E5E9F508E50860298E828F83C9
:10286400A3E06414601F850E82850F83E090038CBF
:102874001228A5123BE490038D12338CE508A312B1
:1028840028AD120253EEFAEFFB12066702327EF510
:102894000CEF3400F50D22123BE88518828519836C
:1028A40022F085188285198322F07C8C7D03850AA9
:1028B40082850B83E0FAA3E0FB2274EE121767749F
:1028C400FC1217108A0A8B0B8C0E8D0FEA2405F567
:1028D40008EB3400F5097C157D0079007A8C7B03C4
:1028E400120F8BE5082402F50CE5091228968518C9
:1028F40082851983858210858311781012197A854F
:102904000882850983A3A3A3A3122DB812197AE51B
:10291400082405F510E5093400F511781012197A28
:10292400850C82850D8312311A1231301205E3743D
:10293400061217268A108B11AE10AF11E50A240275
:10294400F50AE50B12337AEE4F7003022A878017DB
:10295400740212175B12313088828983EAF0A3EB88
:10296400F090038CE004F090038CE0C394054003E2
:10297400022A87E4F510F511781012197A7510758A
:10298400751103781012197A751076751103781081
:1029940012197A740612175B1219917910EEFCEF72
:1029A400FD12312A1207037408121726E9705E8596
:1029B4000882850983A3A3A3A3A3A3A3E0F8900398
:1029C40075E0687048122DB812197A7C767D03E59B
:1029D400082408FAE5093400FB120F857402121763
:1029E40026E960298E828F83A3A3A3A3123130909A
:1029F400038CE0F510740278101216FD748D251006
:102A0400F58274033511F583EAF0A3EBF074021236
:102A1400175B858210858311781012197A7402125B
:102A2400175B121991850C82850D83123BF91205EF
:102A3400EF74041217268A108B11AE10AF11900395
:102A44008CE0F510751100740278101216FD748C68
:102A54002510F874033511F988828983A312261886
:102A6400700302294BE82403F8E93400F9EE4F60BF
:102A7400030229548882898374FFF0A3F090038CA5
:102A8400E004F090038CE0600A12312612026579AA
:102A940000800B850882850983123383790A023208
:102AA4007E74EA12176774FE1217108C128D13EAE3
:102AB4002405F50CEB123C03122544750800750936
:102AC40000EA2402F510EB3400F51185188285190B
:102AD4008385820A85830B780A12197A850C82858C
:102AE4000D83A3A3A3A3122C7912197AE50C240550
:102AF400F50AE50D12337A780A12197A850C828563
:102B04000D83123BF71205E374061217268A0A8B0B
:102B14000BEA450B7003022C3AEA2404F50EEB127F
:102B24002C6F1225448A828B83A3A3A3E0F985101A
:102B3400828511831231301205D1E9F5096003024F
:102B44002C3AE4F514F515781412197A7514757580
:102B54001503781412197A751476751503781412FE
:102B6400197A740612175B1219917913AC0AAD0B1A
:102B740085108285118312313012070374081217ED
:102B840026E9F5096003022C3A900375E0F8E5089C
:102B94007009E0240290038DF0801790038DE0FC0F
:102BA400E82402FAE43400FBEA6C7001EB600302EF
:102BB4002C3E850882AA82122DAF9414122DA750A0
:102BC40075850E82850F83E0C0E0122FE6D0E0F019
:102BD4000508850E82850F83A3E0C0E085080A748A
:102BE4008E250AF58274033400F583D0E0F00508DD
:102BF400900375122C7912197A7C767D0385080A64
:102C0400748E250AFA74033400FB120F73740212D3
:102C14001726900375E02508F50874FF6E70037499
:102C2400FF6F6012EE24010EEF3400FFE508C39439
:102C3400145003022ACFE508601312300C85108269
:102C440085118312313012026B79008014E509700A
:102C54000375090A851282851383EEF0A3EFF0A9A8
:102C64000974021217267F0E0218393400F50F85F5
:102C74000E82F583221239392274EE12176774FE1C
:102C84001217108C0E8D0FEA2405F50CEB12289602
:102C9400750B0090038CE4F0F50AEA2402F508EBC6
:102CA4003400F509804990038CE0FA900375E0F84C
:102CB400122DAF9417122DA7400D90038CE0F874D9
:102CC40016C398900375F0122DB812197A7C767D8C
:102CD40003748D2AFA74033400FB120F7374021206
:102CE4001726900375E0F890038CE028F0050AE5B8
:102CF4000C2416F582E50D3400F583E0F8E50AC3EB
:102D0400984003022D9090038CE0C39416507DE507
:102D14000AC333F8E433F9E50C28FEE50D39FF85E1
:102D24001882851983AC82AD838E828F83123130F1
:102D34001205E98A108B11AC10AD11EC4D700575BC
:102D44000B018043E4F510F511781012197A75100F
:102D540075751103781012197A7510767511037848
:102D64001012197A740612175B12199179168508D4
:102D7400828509831231301207037408121726E979
:102D8400F50B7003022CAA12337F80107C8C7D0318
:102D940085088285098312313012027DA90B7402E1
:102DA400023280E99400C365D03322EA28F8E4347F
:102DB40000F9E822E0F51075110078102274EA1287
:102DC400176774FC1217108A0C8B0D8C128D13EA82
:102DD4002405F50AEB12337A750800750900E50A33
:102DE4002402F510E50B3400F511740212175B850B
:102DF400820E85830F780E12197A850A82850B83D9
:102E0400A3A3A3A31238E912197AE50A2405F50E3F
:102E1400E50B3400F50F780E12197A8510828511AE
:102E24008312327812312A1205E374061217268AA5
:102E34000E8B0FAE0EAF0FE50C2402F50EE50D342C
:102E440000F50F80408882898374FFF00508122FF3
:102E5400F274FFF00508900375E0F50C750D007829
:102E64000C12197A7C767D0385080C748E250CFA75
:102E740074033400FB120F73740212172690037547
:102E8400E02508F508EE4F60718E828F83A3A3A31B
:102E9400E0F9850E82850F831231301205D1E9F5F0
:102EA40009EE2404122893E97044E4F514F5157826
:102EB4001412197A751475751503781412197A7524
:102EC4001476751503781412197A740812175B12A4
:102ED40019917911EEFCEFFD850E82850F83123175
:102EE400301207037408121726E9F5096027850CC8
:102EF40082850D8312300212338CE5087003022F91
:102F0400CC12300C850E82850F831231301202836D
:102F14007900022FE1850882AA82EA90037570097C
:102F2400E0240490038DF08022E0F890038DE0F516
:102F340014E82404FCE43400FDEC65147001ED7025
:102F4400C0122DAF9412122DA750B6850C82850D98
:102F540083E0C0E0122FE6D0E0F00508850C8285FE
:102F64000D83A3E0C0E0122FF2D0E012301E858260
:102F74000C85830D780C12197A740412175B1219DC
:102F840091851082851183123BF91205EF740412A6
:102F940017268A0C8B0DAE0CAF0D85080C748E258C
:102FA4000CF874033400F9EE4F7003022E498518AF
:102FB40082851983E08882898312301EA3E0C0E0F1
:102FC400122FF2D0E0022E57E509700375090A8525
:102FD4000A82850B8312300212338CA9097404020D
:102FE4002C67748E2AF58274033400F583228508D5
:102FF4000C748E250CF58274033400F58322123B85
:10300400E88512828513832290038DE0F5F0E508AC
:103014008490038CF07C8C7D0322F0050885188253
:103024008519832274EC12176774FE1217108A082C
:103034008B098C0E8D0FEA2405FEEB3400FF8518F6
:1030440082851983AC82AD838E828F8312313012D4
:1030540005E98A0A8B0BEE2418122893EA450B70B3
:10306400030230F5123260503285188285198312BA
:1030740031301206F78A108B11EA4511606E79120D
:10308400AC0AAD0B85088285098312313085108224
:10309400851183121765E9F50A705BE4F50AF50BEF
:1030A400780A12197A8E828F83A3A3E0F50A780A2C
:1030B40012197AEE2403123377780A12197A8E825F
:1030C4008F8312311A12313012070974061217262F
:1030D400E9F50A7021850C82850D83E0701F85084F
:1030E400828509831231301202898011750A0E809B
:1030F40009750A018004E50A600312337F850C8296
:10310400850D83E0600479008002A90A7402121715
:10311400267F0C021839E0FCA3E0FD8508828509AE
:1031240083227C8C7D03850A82850B83E0FAA3E0ED
:10313400FB2274EE12176774FE1217108A088B09AB
:103144008C0C8D0DEA2405FEEB3400FF750E008512
:103154001882851983AC82AD838E828F83123130BD
:103164001205E98A0A8B0BEA450B700302324C12F2
:10317400326050358518828519831231301206F772
:103184008A0E8B0FEA450F605E7912AC0AAD0B858F
:103194000882850983123130850E82850F831217C8
:1031A40065E9F50E600302324F85088285098312B2
:1031B4003489AA0AFB1206EB8A108B11A810A911F4
:1031C400E849701E7AFF7BFF1206EB8A108B11A868
:1031D40010A911E849606C88828983E50AF0A3E5A7
:1031E4000BF0750A008007750E0E805F050A9003C8
:1031F40072E0FAE50AC39A504AE50A75F017A4FA90
:10320400ABF088828983A3A3E02AFAA3E03BFB8A7C
:10321400828B83123278EC4D70D2750A17750B00CD
:10322400780A12197AEEFCEFFD120F73740212176A
:1032340026EEFCEFFD8508828509831231301202E7
:103244008F8014750E098003750E01123BE0850C06
:1032540082850D8312338CA90E022DA2E508240267
:10326400F508E5093400F5098A828B83A3A3A3E05A
:10327400A2E522A3E0FCA3E0FD2274041217267F3A
:103284000A02183974EC1217678C108D11EA2405A0
:10329400F50CEB122896750F00EA2402F50AEB12DE
:1032A400337A850A82F5831231301206EB8A088B51
:1032B40009EA4509700302336C750E008071850CB0
:1032C40082850D83E06401704F8E828F83A3A312E5
:1032D40019918E828F83A3A3A3A3E0F51275130023
:1032E400781212197AEE2405F512EF3400F51378EA
:1032F4001212197A12312A1207097406121726E9D2
:10330400F50F6014850C82850D83E4F0123BE08593
:10331400108285118312338C7C177D007900EEFABC
:10332400EFFB120F8B8E828F83E4F0A3F0050E90D7
:103334000372E0F8E50EC398501FE50E75F017A46C
:10334400F8A9F0850882850983A3A3123C0DFCA388
:10335400E0FDEC4D60030232C28508828509837466
:10336400FFF0A3F0E50F700612312A120295A90F9F
:10337400023115F50AEF3400F50B228E828F831289
:103384003BE8850E82850F83E8F0A3E9F02274F60A
:103394001217677C008C08750900740278081216ED
:1033A400FD1233C46A7003A3E06B7006E8FAE9FB0C
:1033B400800B0CECC3940340DC7A007B00023A37A8
:1033C40074662508F874033509F988828983E02234
:1033D40074F71217677F00EF75F003A4F8A9F0ECF7
:1033E40028F8ED39F988828983E06A7003A3E06BD9
:1033F4007006E8FAE9FB800B0FEFC3940440D87A17
:10340400007B007F0102183974F61217671206B5A3
:103414008A828B83E582458370067A007B0080076D
:10342400A3A3A3A3123130023A3774F2121767E947
:10343400FE740E12175B123489741012175B123962
:10344400048C828D83E064027036A3123BEEF50C8B
:10345400A3E0F9A80C7402687003742969702175DB
:103464000C02750D00780C12197A780812197A7802
:103474000A12197AEEF912072D7406121726800221
:103484007901023B15E0F50AA3E0F50B2274E8127A
:10349400176774FB121710E9851882851983F08A5F
:1034A400168B17ECFEEDFF751000741D12175B12DE
:1034B4003BE4741D12175B12338C8E828F83A3A39B
:1034C400A3E0A2E4502D741D12175B1231301206D2
:1034D400F78A828B83E582458370030238D3790AA5
:1034E400EEFCEFFDAA16AB17121765E9F5106003A1
:1034F4000238D6741F12175B123904742112175B39
:10350400123489742312175BE0F50EA3E0F50F8ED5
:10351400828F83E064026003023881A3123BE48556
:103524000882850983A3858212858313EE240612FB
:10353400289388828983E0FAA3E0F9EA2400F51449
:10354400E439F5157814121A0401000028012875CD
:1035540035070002283A360328A7350029713701B8
:10356400299C3702293D370329713704291B3881E7
:1035740038E50E450F600302387C850C82850D8387
:1035840012391CFAE9FB8A828B83E0850A82850B57
:103594008312393012197A8A828B83A3E0FCA3E068
:1035A400023805E50E450F600302387C850A8285E2
:1035B4000B837401F012390C850882850983F07C31
:1035C400007D008E828F83A3A3A3A3E02401FAA32A
:1035D400E03400FB1205E9EA4B60418A828B83E008
:1035E4002402F8850A82850B83E028F0EA2404F893
:1035F400EB3400F988828983E08512828513831273
:10360400394212393012197A8A828B83123277E561
:10361400082403FAE5093400FB02380A850A828586
:103624000B83E02404F07C047D007900AA12AB1320
:10363400120F8B0238D6E50E450F600302387C1258
:10364400390CFEA3E0FF850A82850B837404F0EE37
:10365400850882850983F0EF851282851383F074CF
:103664000312175BAC82AD83EEFAEFFB1205E98A15
:103674000C8B0DEA450D700302371E8A828B83A3DF
:10368400A3122540740112175B85820E85830F787F
:103694000E12197A740512175B1219917CFF7DFFC3
:1036A4001205EF74041217268B0FEA450F70338549
:1036B4000C82850D831238E912197A850C82850DE6
:1036C40083A31219917C027D007A1D7B91120379E8
:1036D4007404121726E9700A740112175B74FFF060
:1036E400A3F08E828F83E064027039750C02750D2D
:1036F40000780C12197A8E828F83123277E50824AF
:1037040004FAE5093400FB120F73740212172685BC
:103714000A82850B83E024028009740112175BEE90
:10372400F0A3EFF0740112175B1238FAF07401126F
:10373400175BA31238F2023876E50E450F600302D8
:10374400387C850C82850D83123278AA16AB171249
:103754000721850A82850B837402F0EA8508828535
:103764000983F0851282851383EB023879E50E45CF
:103774000F600302387C12390CF8A3E0F9850A8241
:10378400850B837402F0E8850882850983F0E98556
:103794001282851383023879850C82850D83123158
:1037A40030120F6DEAFC8C82A882C3950EE4950F4B
:1037B400405FE8650E7002E50F70047C008022858E
:1037C4001882851983E0FAE50E2AFAE50F3400FB26
:1037D400C3EA98EB94005003E08005E50ECCC39C4B
:1037E400FCEC850A82850B83F08C0A750B00780A41
:1037F40012197A850C82850D83E0250EFCA3E03531
:103804000FFDAA08AB09120F7374021217260238AF
:10381400D67510070238D6E50E450F705B850C820D
:10382400850D83123BE4850A82850B837407F08837
:103834008289831238F21238E2E08512828513837A
:10384400F0E82402FAE93400FB8A828B831238F20E
:103854001239211238FAA312392A1238FEF0E82458
:1038640005F8E93400F9888289831238FEA31239F5
:1038740042A3A3A3A3F0805A75100B8055741D12A4
:10388400175B1231301206B58A828B83E582458339
:10389400603D123BE4880C890DE8450D6031780EDB
:1038A40012197A780A12197A780812197A74061297
:1038B400175BE0F9EEFCEFFDAA16AB17850C8285C9
:1038C4000D831217657406121726E9F51080037527
:1038D400100EA91074051217267F10021839F088EB
:1038E400828983A322E0F50E750F00780E22E0850D
:1038F40008828509832212394922123949A3A32255
:10390400E0F508A3E0F50922850C82850D83E0F833
:10391400A3E0F5838882E022123BE8E822A3A3F027
:103924008A828B83A32212244AA3A322F08A828B45
:103934008312393922E0F50A750B00780A2212380D
:10394400E212394922E0850882850983A3A32274FF
:10395400EE12176774FE1217108A0A8B0BECFAED3D
:10396400FB741412175BE0F510A3E0F51174161242
:10397400175BE0FE741812175BE0F50EA3E0F50F79
:10398400851882851983AC82AD831205E98A0C8B74
:103994000DEA450D6049851882851983123130126C
:1039A40006B58A828B83E5824583602FA3A31239EF
:1039B40004E50845096024780E12197A7810121962
:1039C4007AEEF9AC0CAD0DAA0AAB0B850882850919
:1039D4008312176574041217268006790E80027903
:1039E40001022DA274F612176774FE121710740CDC
:1039F40012175B12391C851882851983F074011221
:103A0400175BE9F0E4F508F509780812197A7508E6
:103A140002780812197A740412175B858208858368
:103A240009780812197A1207097406121726740203
:103A34001217267F0202183974F7121767EAFEEB91
:103A4400FF89087CA57D03120721EA5402600BA9B3
:103A540008EEFAEFFB1205DD8002790102340774E7
:103A6400F612176774FF6A700374FF6B701B7B0098
:103A7400EB75F003A4F8A9F0EC28F8ED3912243B17
:103A84000BEBC39404501480E71206F18A088B09E7
:103A9400A808A909E849600312243C809674F61228
:103AA40017671206F18A828B83E58245836006A339
:103AB400A3E0FA80027A007B00023A3774F212170C
:103AC400678A088B09ECFEEDFF740E12175BE0F5B4
:103AD4000A1206F18A0C8B0DA80CA90DE849702670
:103AE400EEFCEFFD7AFF7BFF1206F18A0C8B0DA82A
:103AF4000CA90DE84970047911801688828983E540
:103B040008F0A3E509F088828983A3A3E50AF07984
:103B1400007F0602183974EE121767EAFEEBFF8C79
:103B2400088D09890C741412175B123BE474161285
:103B3400175B123130750D00E8496003023BD874FD
:103B440002650C6003023BD3741212175B123BEE46
:103B5400FCA3E0F9EC2400F50EE439F50FEAF4F8DF
:103B6400EBF4F9EC58F8E50F59F9E849705CE5080D
:103B74002406F8ED3400F9880A890B8882F583124B
:103B84003BF91207218A108B11E50E65107004E5CC
:103B94000F65116042780E12197A850A82850B83AB
:103BA400123BF91207277402121726E9F50D702744
:103BB400780E12197A850882850983A3A3123BF72C
:103BC4001207397402121726800D750D808008754E
:103BD4000D0D8003750D0BA90D0232838E828F8328
:103BE400123BE822E0F8A3E0F922123BE88882893C
:103BF40083E022A3A3E0FCA3E0FDEEFAEFFB223472
:103C040000F50D850C82F58322E028FEA3E039FF40
:103C14008E828F83E02274F2121767EAFEEBFF892B
:103C24000B7401650B600E7402650B706B790112E5
:103C340008EFE97063EEFAEFFB1206EB8A088B09D2
:103C4400EA45096048750A00800B7C177D007900FD
:103C5400120F8B050A900372E0F8E50AC39850220C
:103C6400E50A75F017A4F8A9F0850882850983A3ED
:103C7400A3E028FAA3E039FB8A828B8312391C491A
:103C840070C885088285098374FFF0A3F07CA57D44
:103C940003EEFAEFFB12071B023B1574F2121767CF
:103CA4008A088B09ECFEEDFF740E12175B1234893F
:103CB400901184E0F4603D7A097B00120F9DEA4B79
:103CC40060328A828B8374B1F0A3E4123923A31285
:103CD4003921A3E508F0A3E509123CFBEEF0A3EFBC
:103CE400123CFBA3A3E50AF0A3E50BF0901184E0DA
:103CF400F9120FA9023B15F08A828B83A3A3A3A315
:103D0400A322C082C0839061907404F0A37448F02D
:103D1400A3E4F09061807440F09061BC7407F0906B
:103D240061877469F09061B67416F079001209F72E
:103D340079021209FD9023D4E493F46006E493F924
:103D44001209D37905120D57024127C082C083E9B5
:103D5400540FF9906185E0696012E5C654804449C6
:103D6400F5C6E59E547F644970F8E9F053C680E5D2
:103D74009E547F70FA02412774F7121767E5A8FE74
:103D840053A87E1209DFC2BA539AFEC289759B00FA
:103D9400C2C21209E575A91175B9051209EBD2BAA7
:103DA400439A0174805E42A802504BC082C0839043
:103DB4006181E4F0A3F0A3F002412775E900759155
:103DC4000075BF00020122C082C083906181E4F0CB
:103DD400A374C0F0A3E480DFC082C08374F8121718
:103DE4001090047B12549A7003023EBB90047BE053
:103DF400544060237908851882851983AA82AB838D
:103E0400120B0B851882851983AA82AB831207AB28
:103E140090047BE054BFF0E054806010790C7A1B6E
:103E24007B08120B0B90047BE0547FF0E0A2E0507F
:103E34000F79001209F71207B190047BE054FEF0E9
:103E4400E05402600F79011209F71207B190047B64
:103E5400E054FDF0E05404600F79001209FD1207EC
:103E6400B790047BE054FBF0E05408600F79011232
:103E740009FD1207B790047BE054F7F0E05410609A
:103E84000F79021209FD1207B790047BE054EFF09A
:103E9400E05420600F79031209FD1207B790047BE8
:103EA400E054DFF0A3E05401600D120A091207BDCB
:103EB40090047CE054FEF07408121726024127C0D7
:103EC40082C083E9600514602A804F90619A74333C
:103ED400F0A37455F09061A0743AF09007F5E06493
:103EE400017009C29190047D7467802D90047D74E3
:103EF40061802690619A743FF0A3745AF09061A097
:103F0400747FF09007F5E064017009D29190047D0C
:103F14007471800590047D746AF0024127C082C0E8
:103F240083E9600B14600D14601714600C802090FA
:103F340023D880159023D980109007F5E064017090
:103F4400059023DA80039023DBE493906186F002EA
:103F5400412774EE12176774F412171085188285BE
:103F64001983AC82AD837583907582F37404121641
:103F7400239023D893F46003024080907808E0C330
:103F840094025003024060740412175BAC82AD8348
:103F94007583907582507408121623FC7EFF7FFF90
:103FA4008E0C7D008C8285820E800F74086D606D8E
:103FB40074096D6068740A6D60638D087509007416
:103FC4000278081216FD12408A1215E0A909E50AC2
:103FD400C9F88810741878081214FBE5104508FA1B
:103FE400E9FBE50EC333F8E433F9740412175BE517
:103FF4008228F582E5833912477CC3E89AE99B401D
:1040040008E8C39AF8E99B8006EAC398F8EB99F9A3
:10401400C3E89EE99F5006E8FEE9FF8D0C0DEDC351
:104024009413408774FF6E700374FF6F6024850CD3
:1040340008740278081216FD12408A1215E08518D9
:1040440082851983E582250EF582E583124B95E579
:1040540008F00CECC394045003023FA075080175EA
:104064000900780812197A740212175BAC82AD83C6
:104074007AF67B081211C57402121726740C1217F3
:10408400267F0A02183974482508F58274783509A0
:10409400F583780822C082C083906186E0F890237B
:1040A400DBE4936870099023DAE493906186F090DE
:1040B40061AE7468F0A3746AF090624574FBF0A377
:1040C40004F053F4FD43FE029007F57401F090618F
:1040D400A0E0643A70047900800279011209F702C1
:1040E40041277F04021839C082C0839007D3E0645B
:1040F4000170139007D9E0F87401686019E870063C
:10410400A3E0640160109007EAE06401700C90077A
:10411400F0E064017004790C800279008005E0F914
:1041240012221CD083D08202012212482294062239
:10413400E0C4333354C022C082C0839007DD7425A9
:10414400F09007DB7401F0A3E4F07A01FB120CD3C6
:104154001241872416F582E8124B95742DF0A3744E
:104164000AF09007DAE0640170169007D9E0701045
:104174007901120D33120D03120D2D7900120D3F2A
:104184000241279007C912450B2274F6121767746F
:10419400FA1217109007D2E064017008120A159001
:1041A40007D2E4F075E1F11241872415F582E81293
:1041B4004B957401F09007D4E064017053909072B1
:1041C400C082851882851983AC82AD83758390D0B3
:1041D40082740612162375D90D9007CB124134440C
:1041E40003F5D97800880874CC125124740712415D
:1041F4002E40F278008808851882851983E582129A
:104204005124E58312412E40EC75E1957901800239
:104214007900120CD99011A612428474B3F0A374DD
:104224000BF0A31242841242841243D874B9F0A34F
:10423400740B1243ED9007CBE0F97ACC7B07120C98
:10424400B59007DDE0F912221C7901120CDF909081
:10425400C71215FE120CF790908F1215FE120CC1A6
:104264007900120D4B1241872414F582E8124B9504
:104274007416F09004797405F00412172602488C21
:1042840074ADF0A3740BF0A32274F41217678908B9
:10429400A808124F909007E2E0F97AE37B07120C2A
:1042A400B59007F0E0701A7900120D159007B8E088
:1042B40070047900800279017AB97B07120CBB8003
:1042C400057901120D1575E1F175D9239007E212F4
:1042D40041344405F5D97800880A74E3250AF58247
:1042E400740712412E40F175D90075D90075D900B3
:1042F40075D90075D90075D9007A001253E62422C5
:1043040012473B40F67A001253E62426F582E9125E
:1043140048940AEAC3940340EEEE242B1248917A9F
:10432400001253E6242C12474140F67A001253E659
:10433400242E12474140F67A001253E624301247E5
:104344004140F67A001253E6243212474140F67A8D
:10435400008A0AEE250AF8EF124CAD12474D940577
:1043640040EFEE2437F582EF124EE4541FF8EE24AA
:104374002AF582EF124EE4C43354E048F5D975E1CE
:10438400959011A6747DF0A3740BF0A37483F0A32D
:10439400740B1243CF7489F0A3740B1243ED90078E
:1043A400EFE0F912221C9090C71215FE120CF79040
:1043B400908F1215FE120CC190600DE4F079011279
:1043C4000D4B9004797406F00240E6F0A31243D832
:1043D4001243D8221243DC227477F0A3740BF0A3A7
:1043E4007477F0A3740BF0A3221243F122F090111E
:1043F400B41243FDA31243FD221243DC7477F0A3ED
:10440400740BF02274EC1217679007E0124FA77830
:10441400101215E09007F1E0FAF875F005A4C8ACA5
:10442400F02CF974D728F582740439F583E0FEA3DF
:10443400E0FFEEC333FEEF33FF8E0CF50D750E0077
:10444400750F0085100885110985120A85130B90D4
:1044540090FB78081215467808121976851008859D
:10446400110985120A85130B7808790C1215337813
:1044740010790C12148BE4F50EF50F7808790C12F0
:10448400156C8A0C750D007403780C1216FD7808EF
:10449400790C12153390909B78081215A7AA08ABD3
:1044A40009AC0AAD0B1221B474041217268A088BC6
:1044B40009A808A909C3EE98EF995006E82EF8E96F
:1044C4003FF9E890600EF0E9A3F0EEA3F0EFA3F05B
:1044D40090600D74C1F07F0C021839C082C08390C3
:1044E40007C91244FF9007DD024122C082C08390B5
:1044F40007E01244FF9007EF02412212450B240605
:10450400F582E812492D22E0F8A3E0C82202012234
:1045140074F212176712467EF50AEF124A0B600412
:10452400780480027800E8240EF8EAC39850030265
:1045340045DB75080C9007FBE4F0EE2476F582EF7A
:10454400124EE49007FCF07902EE2477FCEF34007D
:10455400FD7AFD7B07120AF97902EE2479FCEF3427
:1045640000FD120AF97902EE247BFCEF3400FD12FF
:104574000AF97902EE247DFCEF3400FD120AF9EE0B
:104584002474124694120AF9850A82850B83E0602A
:104594001E7508FB750907780812197A7C0C7903D3
:1045A400EEFAEFFB120B6B740212172675081074E7
:1045B400012508F5D975D90378008009880A74FBA8
:1045C400250A124673E8C3950840F175E19579040C
:1045D400120CFD7901800279007F0602183974F209
:1045E40012176712467EF508EF3400F50985088234
:1045F400F583E06004780480027800E8240AF8EA8D
:10460400C3984060750A089007FB7401F079057C33
:10461400BF7D077AFC7B07120AF9EE2480124694C8
:10462400120AF9850882850983E0601E7508FB7506
:104634000907780812197A7C087903EEFAEFFB125D
:104644000B6B7402121726750A0C12490A800312A6
:10465400466DE8C3950A40F775E1957904120CFD9F
:104664007901800279000245DD880874FB2508F58C
:10467400827407124EE8F5D9082212468222EAFE15
:10468400EBFF9061D0E0F87480C398FAEE248222A4
:10469400FCEF3400FD8E828F83A3A3A3A3A3125443
:1046A400A98C828D83E028F0A3E039F0790222748A
:1046B400F6121767EAFEEBFF9061D0E0707475D9CB
:1046C4001875D90375D9037A008A08EE25081253A0
:1046D400EB249B12475440F17A008A08EE25081215
:1046E40053EB24A312474140F17A008A08EE2508CF
:1046F4001253EB249312475440F17A008A08EE25B2
:10470400081253EB248712473B40F175E195790871
:10471400EE2493FAEF3400FB120AFF7904EE2487A7
:10472400FAEF3400FB120AFF7904120CFD12475D04
:104734008002790002488C124747940422124747AA
:10474400940222F582E9125040E0F5D90AEAC32224
:1047540012474794082275E195EE246FF582EF1213
:10476400503C1254A9EE2471F582EF12503CE8F04B
:10477400A3E9F07901223400F5831254A92274F6D6
:10478400121767EAFEEBFF9007FB740612482C121F
:10479400197A7C017903120B6B740212172675D9EE
:1047A4000675D903780012481240FB75E195900410
:1047B40079E064087017EE246FF582EF12477AEE01
:1047C4002471F582EF124B95E8F0A3E9F079010228
:1047D400488C74F6121767EAFEEBFF9061D0E07024
:1047E400299007FB740A12482C12197A7C01790368
:1047F400120B6B740212172675D90675D90378004B
:1048040012481240FB12475A80027900807A8808C5
:1048140074FB2508F582740712482294052212506D
:1048240040E0F5D908E8C322F07508FB750907785C
:10483400082274F6121767EAFEEBFF9061D0E0706D
:104844004279019007FB740BF0900479E0640770DF
:10485400197508FB750907780812197A7C0109098A
:10486400120B6B74021217267905740129F5D97598
:10487400D9037800800312466DE8C39940F81247C3
:104884005A800279008001F07F02021839F582EF24
:10489400124EE8F5D92274F51217671249356004EF
:1048A400780480027800E8240BF8EAC39840527533
:1048B4000A099007FB7408F0F9124916120AF985DF
:1048C4000882850983E0601E7508FB75090778086E
:1048D40012197A7C097903EEFAEFFB120B6B74025E
:1048E400121726750A0D12490A800312466DE8C391
:1048F400950A40F775E1957904120CFD12475D8025
:10490400027900024B8B7401250AF5D975D9037815
:104914000022EE24E4FCEF3400FD7AFC7B0722EE57
:10492400241DF582EF12492D22125040E4F0A3F029
:1049340022124682F8EF12493E223400F98808898F
:10494400098882F583E02274F31217678A088B09B9
:10495400124AA1FAE5082482F50AEB124A0B600414
:10496400780480027800E82408F8EAC39850030227
:104974004A04750C069007FB740CF0900496E090C2
:1049840007FCF07402C0E0F97C977D047AFD7B0794
:10499400120AF9D0E0F97C997D04120AF9850A8299
:1049A400850B83E0601E750AFB750B07780A1219E4
:1049B4007A7C067903AA08AB09120B6B74021217EE
:1049C40026750C0A7401250CF5D975D90378008075
:1049D40009880A74FB250A124673E8C3950C40F152
:1049E40075E1957904120CFDE508246FF582E5095B
:1049F40012477AE5082471F582E50912476F8002AF
:104A040079007F050218393400F50B850A82F58395
:104A1400E02274F6121767EAFEEBFF124AA1FCEEDD
:104A24002482F8EF124B2460047A0480027A00EAAC
:104A34002404FAECC39A40607A029007FBEAF0EE91
:104A440024F6F582EF124AAB601B7508FB75090763
:104A5400780812197A7C027903EEFA120B6B74024D
:104A64001217267A0674012AF5D975D903780080BD
:104A74000312466DE8C39A40F875E195EE2473126B
:104A84005129EE247F1251291249237904120CFD75
:104A9400EE240D1247608002790002488C9061D0A8
:104AA400E0F87480C39822124EE89007FCF08882E4
:104AB4008983E02274F6121767124AA1FEEA24825F
:104AC400F8EB124B2460047C0480027C00EC240488
:104AD400FCEEC39C40457C029007FB7407F0EA247B
:104AE400F7F582EB124AAB60177508FB7509077876
:104AF4000812197A7903120B6B74021217267C06BA
:104B040074012CF5D975D9037800800312466DE839
:104B1400C39C40F875E19579018002790002488CC4
:104B24003400F988828983E02274F5121767E9FE5C
:104B3400A2AFE433F50AC2AF7F00EA246EF8EB3487
:104B440000F980010F88828983E0F508EFC3950896
:104B540050188F08EA2508FCEB3400FDEC246AF5B4
:104B640082ED124EE46E70DC8017EA2508FAEB340D
:104B740000FBEA246AF582EB124B95EE124AB1046B
:104B8400F0E50AA2E092AF7F03021839246AF582A5
:104B9400E912503C2274F6121767A2AFE433FFC245
:104BA400AFEA246EF8EB1251D8E014F07E008019BD
:104BB4008E08EA2508F8EB1253ED246B124EE1C07F
:104BC400E0E8124B90D0E0F00E8C828D83E0F8EE9A
:104BD400C39840DCEA246DF582EB124B9574FF1206
:104BE4004C0EEFA2E092AF02488CC082C083E5A8CD
:104BF400F8C2AFEA246AF582EB124B95E9124C0E27
:104C0400E8A2E7A2E792AF024127F0EA2469124C36
:104C14001622F582EB125040E4F02274F212176768
:104C24008C828D83A3A3A3A3E0541FF0EA2436123D
:104C340051CE8E828F83E4F0F50C850C8285820A36
:104C4400EC250AF8ED12493EC0E0EA250AF8EB1219
:104C54004CADD0E0F0750D00850882850983E0F540
:104C64000A750B00E50D780A1216DEE50AA2E0507B
:104C740023E50C33333354F8250DC0E08E828F8343
:104C8400E0F8124E812438124B92D0E0F08E828FDD
:104C940083E004F0050DE50DC3940840BB050CE565
:104CA4000CC3940540940245DD3400F9E8245DF515
:104CB40082E912503C2274F41217679004A5E06450
:104CC400037003024E677E00EEF875F005A4C8AACF
:104CD400F02AF974AB28F582740439F583E0600393
:104CE400024E5D74A928FA740439FB8A828B83A36B
:104CF400A37401125440A3A3A3E4F0EA2404F8EB40
:104D04001253EDFCE9FDEE8C828D83F0EA246212ED
:104D14004E6E2467F582EB124B957401124E93E4A8
:104D2400F0A3124E93A3A3124E8E240F124E6E24A0
:104D340035F582EB12512CF508F509F50AF50BEA65
:104D44002418124E761215EFEA241C124E7C241DF0
:104D5400124E8A247F124E7C2473124E7C2468F5F2
:104D640082EB124B957480124C0EEA246E124E7C28
:104D740024EC124E7C24ED124E7C24EE124E7C2444
:104D8400EF124E7C24F0124E8A24F2124E8A24F53D
:104D9400124E7C2482124E7C24D2124E7C24D312D6
:104DA4004E7C24D4124E761215EFEA24D8124E7695
:104DB4001215EFEA24DE124E7C24E0124E7C24DC31
:104DC400124E7C24E1124E7C24E2124E7C24F81212
:104DD4004E8A24FA124E8A24FC124E8A24FEF5824C
:104DE400EB124929FE8E08EA2508F8EB1253ED125E
:104DF4004B9074FFF00EEEC3940440E97E008E8263
:104E0400A88274BF28F5827407124EE4C0E0124EE3
:104E140081245D124B92D0E0F00EEEC3940540DE87
:104E24007E008E82A882748D28F5827404124EE46A
:104E3400C0E0124E8124E4124B92D0E0F00EEEC397
:104E4400940840DE9004A5E004F0640170198C829B
:104E54008D83E09004A7F0800E0EEEC394035003FC
:104E6400024CCC7A007B000240E61250397401F007
:104E7400EA22125039780822124C16EA22EA28F85B
:104E8400EB3400F9E822125039E4F0A3F0EA22F0FE
:104E94008A828B83A3A3A3A3A322C082C083EA2410
:104EA40003F582EB124EE46008E4F09004A6E014EB
:104EB400F09004A5E014F070069004A774FFF08A43
:104EC400828B83A3A3E4F09007C4E0700D9004A642
:104ED400E0640170057900120CC7024127F582E9EC
:104EE400124EE822125040E022C082C0837B00EBC5
:104EF400F875F005A4C8AAF02AF974A528F8740472
:104F04001250F8A3A3A3A3E4F088828983A3A3A3E4
:104F1400A3A3A3F00BEBC3940340D49004A5E4F043
:104F2400A3F0A374FFF075E1F102412774F51217A1
:104F340067750800750900750A00A80A124F908E5B
:104F4400828F83A3A3A3E0602BE5084509601D8538
:104F54000882850983124FA712198D124FA31215C7
:104F6400FE1221587404121726E97008EEF8EFF9BE
:104F740088088909050AE50AC3940340BD850882A7
:104F8400850983A3A3A3A3E0F9024B8BE875F0057D
:104F9400A4C8AAF02AF974A928FE740439FF228E41
:104FA400828F83E0F8A3E0F5838882A3A32274F7B9
:104FB40012176778FF79FF7F00EFFC75F005A4CC2A
:104FC400AEF02EFD74A92CFC74043DFD8C828D83FF
:104FD400A3A3A3E0603EEC2473F582ED124EE4FE3D
:104FE40074FF68700374FF69700774016E701C802D
:104FF4000D74016E700DEC247912502C5016EC24B3
:1050040079800BEC242E12502C5009EC242EF582BE
:10501400ED12477A0FEFC39403409EC3EA98EB99CD
:105024004004E8FAE9FB801FF582ED12503CC3E02E
:1050340098A3E09922F582EB125040223400F583C4
:1050440022A2E092AF79007F0102183974F6121798
:1050540067EAFEEBFFEE2463F508EF3400F5098000
:1050640016AA08AB09120AED1212BB9007C5E00498
:10507400F09007C6E004F085088285098312549AEB
:1050840070DFEEFAEFFB120A99EEFAEFFB120BF562
:1050940002488C74F7121767EAFEEBFF8E828F8347
:1050A400A3A3A3A3E0FA7B00120805EEFAEFFB1218
:1050B4000AB1120BD78090C082C0837B00EBF875D5
:1050C400F005A4C8AAF02AF974A928F874041250A7
:1050D400F8E06014E8246E124EE1600CE8246A12D1
:1050E4004EE17004790180090BEBC3940340CE793F
:1050F4000002412739F988828983A3A3A32274F685
:1051040012176778008808748D12512474041251A0
:105114002C08E8C3940840ED90048D740102488B78
:105124002508F58222F582EF124C192274F7121722
:105134006774FC121710851882851983E4F0A3F0B4
:10514400A3F0A3F0120B05E9851882851983F012E8
:105154000B05740112175BE9F0120B0574021217A8
:105164005BE9F08518828519831215FE7404121701
:105174002602504B74F6121767EA240D1251CEEC36
:105184002403F8ED3400F988088909EC2407F8EDC4
:105194001251D812477E850882850983E0FAA3E07C
:1051A400FB1216858E828F83E8F0A3E91254A08542
:1051B4000882850983E0FAA3E0FB1216858B09EACD
:1051C400450960031251E402488CF8EB3400F9E815
:1051D400FEE9FF223400F9E8FCE9FD8C828D83228C
:1051E4008E828F83E02401F0A3E03400F02274F671
:1051F400121767EA242EF582EB124EE4FCA3E0FDBD
:10520400EA246F1251CE780079FAECFAEDFB12160B
:10521400858E828F83E8F0A3E9F0780079FAECFABE
:10522400EDFB1216858B09EA450960031251E4026D
:10523400488C74F0121767EAFEEBFF741012175BC8
:1052440078081215E0120C8B8A0C8B0D8C0E8D0FC6
:105254009090F7780C12154690909B780C1215A735
:10526400780C121976124FA31215FE1221587404E9
:10527400121726E9600302531E8E828F83E02402F4
:10528400F8A3E01253EDFAE9FB8A828B83780812C3
:10529400155990909B78081215E08A828B837808C0
:1052A4001215BAEE240BF582EF124B95C082C0831F
:1052B4008E828F83A3A3A3A3A3E02401F8A3E034E5
:1052C40000F9D083D082E0687003A3E069700479A8
:1052D400018049EE2407F8EF3400F98882898312AB
:1052E40051E8EE24731253257014EE247412532ED5
:1052F4007003A3E06D70078A828B831251E8EE2459
:105304007F1253257014EE248012532E7003A3E0F1
:105314006D70078A828B831251E879007F08021826
:1053240039F582EF124EE8640122FAEF3400FB8A69
:10533400828B83E0FCA3E0FD88828983E06C227485
:10534400F3121767E9FEECFFEA2462F582EB1253CD
:105354002860030253E19061D0E0F508EA2482F565
:1053640082EB124EE4F50C60047804800278007439
:1053740080C39508FC95E0FDEF28F8E41253ED2472
:1053840002F8E93400F9EC98ED99A2D265D03340E3
:1053940048740D12175BE0F50AA3E0F50BE50C6009
:1053A40015780A12197AEFFCEEF9120B6B740212DB
:1053B400172674042FFF74012FF5D98ED978008035
:1053C4000C8808E50A125124E50B124677E8C39FBE
:1053D40040EF75E195790080067907800279FF0234
:1053E4004A068A0AEE250AF8EF3400F9E82274F72F
:1053F400121767A2AFE433F508C2AFEA2402F8EB50
:105404003400F98A828B83E0FEA3E0FFEE4F600E46
:1054140088828983E0FAA3E0F5838A8280048A8201
:105424008B83ECF0A3EDF088828983125446F0E577
:10543400080250458C828D83E8F0A3E9F08A828BC0
:105444008322ECF0A3EDF08C828D83E4F0A322742C
:10545400F7121767EAFCEBFD7A007B00A2AFE43396
:10546400FEC2AF8C828D8312549A6022E8FAE9FB63
:105474008A828B8312477E125438E4F0A31254A01C
:10548400E849700A8C828D83A3A3E4F0A3F0EEA212
:10549400E092AF02504B1254A9E84922F08C828D5D
:1054A400831254A922E0F8A3E0F922C082C08380C9
:1054B400031254DDE9F874FF28190470F4ECFAEDD2
:1054C400FB024127C082C08380031254DDE9F874D3
:1054D400FF28190470F40241278C828D83E08A82AC
:1054E4008B83F08C828D83A3AC82AD838A828B8381
:1054F400A3AA82AB832274F012176774FA121710EE
:10550400890BECFEEDFF750A008A088B09780812F6
:1055140019BE00041044573D555B5575558D55AB68
:1055240055C355E655FE5512563C56C456D556EC51
:105534005606574457275752567401650B600302A9
:10554400573F8E828F83E0F8C39403400302573F92
:10555400E89011C802573C7402650B600302573F80
:105564008E828F83125EFC9011C9E8F0A3E9025782
:105574003C7401650B600302573F125771400302EC
:10558400573FE8900DBF02573C7401650B6003025E
:10559400573F8E828F83E0F8C39405400302573F40
:1055A400E8900DC002573C7401650B600302573F3D
:1055B400125771400302573FE8900DC102573C74E3
:1055C40010650B600302573F7508107509007808D1
:1055D40012197A7AC27B0D120F7374021217260203
:1055E40057657401650B600302573F1257714003FE
:1055F40002573FE8900DD202573C7401650B6003DB
:1056040002573F8E828F83E09011CC02573C740482
:10561400650B600302573F8E828F83780C1215E06E
:10562400909107780C1213EC500302573F900DD45D
:10563400780C1215EF025765E9600302573F120513
:105644000BE9700512114D8060900E67806E74072F
:10565400650B600302573F75080675090078081248
:10566400197A8E828F83A3AC82AD83740212175B86
:10567400AA82AB83120F7974021217267C007D0074
:10568400851882851983AA82AB838E828F83E0F981
:105694001210E7E9F508C3940A40030257621205A1
:1056A4000BE9700CA908121153795012133F806E44
:1056B40074682508F582740E3400F58374018078CB
:1056C4007401650B70751257715070E8900DD3809A
:1056D400677401650B70648E828F83E0F8C3940A4B
:1056E4005059E89011CB80507401650B704D8E8237
:1056F4008F83E0F874F928C3940A503FE89011CDE1
:1057040080367401650B7033900E66E0F88E828FDC
:1057140083E0900E66F0E87048E064017043121173
:1057240041803E7401650B70128E828F83E0F8C352
:1057340094045007E89011CEF08026750A18802151
:10574400C3EA9427EB940050157402650B700F8E16
:10575400828F831262EC1203F1E9F50A8003750A61
:1057640002A90A74061217267F080218398E828F3E
:1057740083E0F8C394022274F212176774DA1217E2
:1057840010890AECFEEDFF742012175BAC82AD8326
:105794007583907582847406121623742012175B25
:1057A400AC82AD831210E7E9F508743412175BE09C
:1057B400F50BE9C3940A40030258D6121129E9F5FE
:1057C400099011C8E06402700474018001E4F50CCE
:1057D400780C12197EAD0BAC09A908EEFAEFFB1296
:1057E400117774011217267C147D007900740C1251
:1057F400175BAA82AB83120F8B75F006E508A4F53C
:105804000B740C12175BAC82AD837A107424250BD5
:10581400F9121339E9703D7C1079FF740C12175B8F
:10582400AA82AB83120FF1E9702A741C12175BACC5
:1058340082AD837A047425250BF9121339740C1282
:10584400175BAC82AD83E509A2E0E433F9EEFAEF2D
:10585400FB120487851882851983AC82AD837A0C88
:1058640074702508F9121339E97053851882851963
:1058740083AA82AB8312111D750800E50875F00335
:10588400A4F8A9F0851882851983E58228F8E583B0
:105894001260F91262E6601D88828983A3A3E0F591
:1058A4000C750D00780C12197AEEFAEFFB12070F43
:1058B40074021217260508E508C3940440BDE509DF
:1058C400A2E15046900DBEE0F9EEFAEFFB12071587
:1058D40080387408650B70329011C8E06402702A35
:1058E4007C007D00A90AEEFAEFFB121171126B7BAA
:1058F4006018125F0188828983E5824583600B7C8E
:10590400007900EEFAEFFB12176579007426026243
:10591400C274F0121767EAFEEBFF8C088D09750A52
:105924000AE9600C1460091460371460790259C4E0
:10593400121135E9F50AC3940A40030259C4E50873
:105944004509607C750E06750F00780E12197AEE03
:10595400FCEFFDAA08AB09120F737402121726801C
:105964005F750B00750E06750F00780E12197AEE2E
:10597400FCEFFDE50B75F00EA4F8A9F074E028FA2D
:10598400740D39FB120F857402121726E9600C8519
:105994000B0AE50AC3940A50278016050BE50BC3CE
:1059A400940A501C80BE12113BE9F50AC3940A50B4
:1059B4000FE50845096009AA08AB09A90A12112FC5
:1059C400A90A02576C74F4121767890875091574CB
:1059D400FF6A700374FF6B70277E00AC087A027B49
:1059E40000EEF912110BE960037509000EEEC39481
:1059F4000A40E8E50860537A657B11120901804A80
:105A04001208E38A0A8B0BAE0AAF0BEE4F60387CA8
:105A1400007D00EE2405FAEF3400FB8E828F83A311
:105A2400A3A3A3E0F91210E7E9C3940A500CAC084D
:105A34007A027B0012110B750900E508600CEEFA7E
:105A4400EFFB1211658003750914A9098005740E12
:105A54001217267F0402183974F2121767ECFEED50
:105A6400FF750815740E12175BE0F50AA3E0F50B39
:105A740074FF6A700374FF6B7021750900AC0AAD82
:105A84000BEEFAEFFBA909121111E9600375080086
:105A94000509E509C3940A503F80E21208E38A82AB
:105AA4008B83E5824583602D7C007D00E58224059F
:105AB400FAE5833400FBA3A3A3A3E0F91210E7E9FA
:105AC400C3940A5013AC0AAD0BEEFAEFFB1211119A
:105AD4007508008003750814A9080262C5C082C055
:105AE40083900DD8EAF0A3EBF0900DBEE0FC7D00AE
:105AF4007A267B001203F1900DBEE0F912069102A2
:105B040067BB74EC1217678A088B09E9FE741412D8
:105B1400175B780C1215E07F00EE702E78081219CE
:105B24007A90910778101215E0780C791012148B82
