:020000040000FA
:0600000002010A022014B7
:03002B000222812D
:03003B000222A2FC
:0300430002222C6A
:0300530002208AFE
:03005B0002230C71
:03006B000222521C
:10008300021EC3E5C754F84401F5C77901220000F5
:100093000080FB120086B900030200F4E4791A78A9
:1000A30002B800028004F709D8FCE4791C7802B88E
:1000B30000028004F709D8FCE4900281785A791091
:1000C3008002F0A3D8FCD9FA9011DAAA82AB83900C
:1000D300013A78E779018015E493A3AC82AD838A72
:1000E300828B83F0A3AA82AB838C828D83D8E9D9D8
:1000F300E77582807583C8740312011C758291753C
:100103008300740012011C75D00075813F7518813E
:10011300751902759F00020096C09FF59FE473D086
:100123009F22D083D082C09FE493C0E0740193C028
:10013300E0740293F59F22A603B803E203AC03FF26
:100143000000B4000028002800283075A000A0009B
:10015300A000A00000080008E001F000100010005B
:10016300100010001000100050005000500010004C
:100173001000D0070000000000000F000100050080
:10018300307507001000010081FF00000000FF022E
:100193000202EC91010000DA9102E69101000032C3
:1001A3001202E291010000B20202E6910100003363
:1001B3001202E091010000C802FFFF0100FF2002CC
:1001C300EC91010000DD9102E69101000061120251
:1001D300E891000000000002E491030000A50392EF
:1001E3000B920B920B920B920B920B920B920B9224
:1001F3000B920B920B920B920BA80DC60DA20DFF47
:10020300FF01E803053F10020AFF000B7C0CD781B6
:1002130038F3102C02E2900D152FDE033412012562
:1002230034BF031201254ABF0312012579BF03120C
:100233000125AFBF03120125C6BF03120125DDBF90
:100243000312012514C00312012567C003120125FF
:100253007EC003120125A7B803120125BEB80312FD
:100263000125EFB8031201252AB90312012554B958
:10027300031201257EB90312012595B90312012545
:10028300ACB903120125C3B903120125ECB903125A
:100293000125FFB90312012515BA031201253FBA3F
:1002A30003120125619C02120125659D021201259D
:1002B300929D02120125E89D021201250B9E021256
:1002C30001251F9E02120125219E02120125449E33
:1002D30002120125539F0212012517A002120125C4
:1002E300ECA0021201255DA102120125E9A102126F
:1002F3000125ECA10212012574A202120125AFA26D
:100303000212012516A30212012519A302120125C7
:1003130050A30212012579A30212012524A402127B
:100323000125AEA402120125FDA4021201250AA58E
:10033300021201250DA5021201256DA50212012548
:1003430078A502120125F7A502120125FAA50212CA
:1003530001250DA60212012510A6021201259FA652
:1003630002120125B9A602120125C9A6021201250E
:10037300F9A60212012506A70212012509A70212F6
:1003830001258AA70212012578A8021201252AA9AC
:10039300021201250AF60112012507F701120125B0
:1003A30089F701120125A9F701120125F1F70112BD
:1003B300012544F801120125A8F80112012535F998
:1003C30001120125EFF901120125FEFC011201259D
:1003D30089FE01120125ACFE011201255C9A03126C
:1003E3000125F99B031201255D9C03120125BC9C89
:1003F30003120125CA9C03120125F39C0312012554
:10040300D8F40212012500F5021201252EF502127D
:10041300012565F502120125C3F5021201250EF629
:100423000212012559F60212012599F6021201253D
:10043300DFF6021201250DF702120125CAF7021297
:100443000125D4F702120125E1F70212012514F860
:1004530002120125E0F802120125ECF8021201252F
:1004630004F9021201250EF9021201258CF9021278
:1004730001252EC6031201253CC60312012554C6CD
:10048300031201256CC60312012584C6031201253C
:10049300C1E7011201256DE801120125E8E8011207
:1004A300012509EA0112012545EA01120125EEEAB7
:1004B30001120125D5EB0112012539ED01120125A8
:1004C30090ED0112012511EE0112012501EF011238
:1004D30001254EEF01120125D4EF0112012506F08B
:1004E300011201251AF2011201255CF20112012504
:1004F3007AF2011201251CF301120125E4F3011222
:100503000125F1F501120125079E031201251D9E08
:1005130003120125439E031201255F9F0312012548
:10052300699F031201259EA00312012596A10312C0
:1005330001258B89031201252F8A03120125628A63
:1005430003120125AC8A031201256F8C03120125C6
:10055300A3A5011201251CA6011201252CA6011237
:1005630001251AA70112012524A70112012549A774
:100573000112012554A7011201253EA801120125EC
:10058300A1A80112012557A9011201253EAB0112B1
:100593000125F7AC01120125D3AD0112012587AE68
:1005A30001120125C4B10112012572B20112012504
:1005B300E1B30112012561B50112012508B601124B
:1005C300012551B60112012588B60112012525B76F
:1005D30001120125B0B701120125C6C90112012577
:1005E3001BCA011201257ACB011201258ACB011204
:1005F3000125B7CB011201250ECC01120125B7CC81
:1006030001120125BECD0112012588CE011201255B
:10061300E8CF011201252BD001120125D0D0011200
:100623000125F6D00112012504D30112012509D3B6
:10063300011201250ED5011201255BD501120125F9
:10064300CED50112012501D601120125A3D601122F
:1006530001254CD70112012584D70112012587D723
:1006630001120125CFD70112012511D8011201254D
:1006730068D801120125AEAB03120125C1AB0312E9
:100683000125CFAB0312012517AC031201252DACB5
:100693000312012574AC0312012588AD0312012551
:1006A30015AE0312012560AE031201257823001253
:1006B3000125882300120125EB2300120125302494
:1006C30000120125E62400120125C125001201258F
:1006D300EA25001201251A26001201255A280012C4
:1006E3000125412A00120125192C001201255D2D37
:1006F30000120125C42F00120125D230001201255A
:100703002432001201252E3300120125703300120A
:100713000125A83300120125CA33001201252D3407
:1007230000120125EF38001201258439001201253A
:10073300D83900120125FF39001201253D3A001274
:1007430001255C3A00120125B63A00120125B63B99
:10075300001201253B3C0012012504EF0212012582
:100763000EEF02120125B6EF02120125F9EF021274
:10077300012514F002120125A4F002120125CCF088
:100783000212012504F1021201253BF10212012597
:1007930064F1021201259EF102120125B3F1021246
:1007A300012580F202120125A3F202120125C5F2EE
:1007B30002120125DAF20212012560F30212012569
:1007C3009AF30212012512F4021201255BF40212BC
:1007D300012585F402120125B0F40212012506C396
:1007E300031201250080021201252E800212012529
:1007F300898102120125698202120125888202126F
:100803000125058302120125488302120125C384B1
:10081300021201253285021201255D87021201258C
:10082300E18902120125928A02120125888B0212A4
:100833000125288C02120125268D02120125B18D76
:100843000212012595C003120125FEC003120125E2
:1008530052C10312012581C103120125A2C1031252
:1008630001250C8E03120125798E03120125C08EFA
:1008730003120125D88F03120125D49003120125F9
:10088300B7910312012577E102120125B9E10212A2
:10089300012592E2021201258CE3021201256EE486
:1008A30002120125D7E402120125F3E50212012504
:1008B3005FE60212012562E6021201258BE60212AF
:1008C300012505E702120125AAE702120125BFE768
:1008D3000212012505E8021201251EE80212012574
:1008E30021E802120125A0A103120125DCA10312B4
:1008F30001251AA203120125E4A20312012553A321
:10090300031201258EA303120125CCA30312012593
:10091300FCA30312012523A40312012591A40312AE
:100923000125D3A403120125296B00120125EC6CC8
:1009330000120125B76E00120125F36E0012012586
:10094300206F00120125E26F0012012529700012A9
:1009530001256D70001201257F7000120125BF7003
:1009630000120125EC70001201253A7100120125D5
:10097300747100120125977100120125E9710012AB
:1009830001257772001201254D730012012537747A
:1009930000120125067600120125077B00120125AE
:1009A300567B001201259D7B00120125D07D00128C
:1009B300012510B40312012582B403120125D8B412
:1009C300031201251CB5031201253CB503120125B1
:1009D30089B503120125D1B50312012524B60312EB
:1009E300012575B603120125A23C00120125EB3C3B
:1009F30000120125183D001201254B3D001201256F
:100A03005B3D00120125673D00120125783D001270
:100A130001255F3E00120125BD3E00120125F23E75
:100A230000120125354000120125874000120125DF
:100A3300D740001201252A41001201252942001244
:100A43000125A443001201257B44001201258B4498
:100A530000120125AD4400120125B0440012012506
:100A63007E45001201254F46001201251E47001244
:100A73000125724700120125D2470012012536488D
:100A830000120125E74800120125B2490012012591
:100A9300544A00120125C94A00120125354B0012A0
:100AA30001258A4B00120125BB4B00120125564C30
:100AB300001201253A4E00120125894E001201252C
:100AC300CC4E001201254E4F00120125EC4F0012AF
:100AD30001253350001201255750001201259E5065
:100AE30000120125CC5000120125145100120125DA
:100AF3008E5100120125D25100120125DF5200123E
:100B030001258E5300120125EF53001201254B548A
:100B130000120125645400120125C6BF02120125EB
:100B230019C00212012525C002120125FAC00212C2
:100B3300012521C1021201255CC102120125C8C190
:100B43000212012504C2021201253DC2021201252F
:100B530055C202120125AAC202120125C3C2021202
:100B630001250CC3021201251FC30212012539C33B
:100B7300021201254FC30212012582C4021201256C
:100B8300C9C502120125CBC602120125C5C702122F
:100B93000125FD7F0012012514FA0212012583FDB0
:100BA30002120125BCFE021201259BA90212012596
:100BB30011AC0212012517AC021201257FAE0212FD
:100BC3000125E6B00212012500800312012596805B
:100BD300031201254D81031201257781031201259B
:100BE3006A8303120125928403120125FF910112E6
:100BF3000125339201120125209C01120125749DC8
:100C0300011201257F9E01120125FF9F011201257B
:100C1300E0A0011201251AA1011201253DA1011233
:100C230001257FA101120125C9A101120125D3A12B
:100C3300011201257DA20112012556A301120125EE
:100C4300AAA3011201250CA4011201255FA401121C
:100C530001258EA401120125CBA40112012585A82B
:100C630003120125FBA80312012511A90312012573
:100C730052A9031201258CA90312012505AA031207
:100C8300012540AA03120125B3AA03120125F1AAE3
:100C930003120125FAAA0312012506AB031201254B
:100CA30022AB031201254DAB031201257EAB0312C8
:100CB300012545E80212012558E80212012572E8D0
:100CC300021201259BE802120125DEE8021201252A
:100CD3001DE9021201255BE902120125C0E9021296
:100CE3000125D5E902120125ECE902120125FAE9F1
:100CF3000212012509EA021201251EEA0212012548
:100D030033EA021201253EEA021201254AEA0212DF
:100D1300012557EA021201256AEA0212012575EA42
:100D2300021201259AEA0212012541EB0212012562
:100D330056EB021201256BEB0212012585EB021221
:100D43000125A0EB02120125BDEB02120125C8EB20
:100D53000212012584EC0212012570ED0212012515
:100D630095ED02120125A0ED02120125B5ED021247
:100D73000125C9ED021201252AEE0212012530EEEA
:100D83000212012536EE021201253CEE0212012564
:100D930054EE0212012587EE0212012570B50212EC
:100DA300012592B50212012572B60212012549B935
:100DB3000212012575BA0212012599BB02120125FF
:100DC3004BBC02120125ECBC02120125378E021224
:100DD3000125BB8E021201256A8F02120125C990DB
:100DE30002120125EA9202120125D693021201256D
:100DF3000B94021201252D9402120125DC94021298
:100E03000125D49602120125FD96021201258F9722
:100E130002120125C19702120125CE970212012564
:100E23002598021201254B9802120125B89A021245
:100E33000125BB9B02120125139C0212012555D9E2
:100E4300011201255FDA0112012546DB011201259A
:100E530050DB0112012572DB011201257EDB011239
:100E6300012517DD0112012546DD0112012562DE90
:100E730001120125BBDE0112012521E0011201252A
:100E830000E1011201255CE101120125C9E1011212
:100E9300012504E20112012543E201120125FCE4CC
:100EA3000112012516E501120125A2E50112012512
:100EB300B0E50112012509E60112012517E6011229
:100EC30001258AE601120125EEE60112012538E724
:100ED3000112012551BA0312012576BA0312012525
:100EE300E8BA031201252BDA0212012534DA0212C1
:100EF30001253DDA0212012514DB02120125C5DCAE
:100F030002120125FBDC0212012535DD0212012547
:100F13006BDD02120125A5DD02120125D9DD0212C6
:100F2300012505DE021201254EDE0212012588DEAF
:100F330002120125D1DE0212012529DF0212012549
:100F43005EDF02120125B9DF02120125F3DF02126F
:100F5300012544E0021201257AE002120125B4E0E2
:100F630002120125D7E0021201251DC70312012534
:100F730049C703120125A4C703120125AEC70312F3
:100F83000125BEC70312012590C9021201259AC982
:100F930002120125D8C90212012521CA0212012514
:100FA3005BCA02120125B5CA02120125D6CA021272
:100FB3000125AECD02120125B7CD0212012504CEC3
:100FC300021201252DCE0212012537CE0212012570
:100FD300A3CE0212012535CF021201257FCF0212C3
:100FE3000125B5CF0212012541D00212012582D07D
:100FF30002120125B9D002120125CBD0021201251C
:10100300EAD002120125F3D002120125BBD102124C
:10101300012507FF02120125B6B603120125ECB61E
:101023000312012522B7031201256DB8031201250E
:1010330048C9031201255EC90312012568C90312B9
:1010430001257992031201258E9203120125419302
:10105300031201258193031201259A93031201259B
:10106300D5930312012522940312012554940312EC
:101073000125969403120125A19603120125B2C9F5
:101083000312012598BD03120125C1BD03120125D9
:10109300F0BD0312012588BE03120125A0BE031271
:1010A3000125E2BE03120125C984031201250B8524
:1010B30003120125948503120125E58503120125F9
:1010C3002A8603120125858603120125D48603127D
:1010D30001252A87031201251F880312012516897A
:1010E30003120125538903120125D9C803120125CF
:1010F300965400120125175700120125B15800120A
:101103000125655900120125F859001201257D5A60
:1011130000120125A25A00120125F45A00120125DA
:10112300A95E001201252F5F0012012562600012E3
:1011330001259C6000120125D160001201258E62F9
:1011430000120125C262001201251F63001201254E
:10115300686300120125CF63001201254864001261
:1011630001257764001201258F6400120125D865DB
:1011730000120125E865001201250667001201250A
:101183002867001201255E67001201250D69001210
:1011930001259A6900120125D96900120125F26A15
:1011A30000120125CFCA0312012511CA031201251A
:1011B30050CA03120125BCCA03120125C8C7031272
:1011C3000125D8C703120125F3C7031201255BC804
:1011D300031201252AC503120125AFC503120125F8
:1011E30015C6031201251FC40312012546C40312A9
:1011F30001259CC403120125ECC4031201251BA580
:101203000312012530A50312012574A6031201253B
:10121300F0A60312012564A7031201257EA703127A
:10122300012595A703120125A8A703120125C2A72B
:1012330003120125D9A703120125FFA703120125D4
:1012430050A803120125AE9603120125C29603127C
:1012530001253C9703120125209803120125F799D4
:101263000312012556B103120125E6B1031201252C
:101273007FB20312012510B30312012519B3031220
:10128300012597B303120125ADB3031201250DB454
:1012930003120125E8C10312012558C203120125D7
:1012A30068C20312012584C203120125F6BB03128F
:1012B300012548BC03120125D2BC0312012539BD07
:1012C300031201258AAE03120125B4AE03120125D0
:1012D30082AF031201255DB003120125E4B00312AE
:1012E3000125E9D102120125B0D202120125E7D26C
:1012F3000212012511D30212012571D30212012515
:10130300C7D3021201252CD402120125C4D4021220
:101313000125D3D5021201256AD702120125F7D779
:10132300021201255ED80212012575D80212012589
:101333008FD902120125CDD9021201258DB80112D0
:10134300012592B901120125E1BA0112012590BCD0
:101353000112012555BD011201254DBF01120125C1
:1013630070BF0112012549C4011201259DC4011258
:1013730001253BC50112012585C7011201252AC894
:1013830001120125ACC801120125AFC801120125C4
:1013930065C8031201256DC80312012590CA031203
:1013A30001255ACA03120125D57F00120125D7FF53
:1013B30001E066701008A3E066700A08A3E0667097
:1013C3000408A3E06622C3E7960809E7960809E73D
:1013D300960809E79622C3E09608A3E09608A3E0DF
:1013E3009608A3E09622C008C3E096F50808A3E098
:1013F30096420808A3E096420808A3E096450870C1
:1014030001D3D00822080808EAC0E0EBC0E086F068
:10141300E7A4FA180986F0E7A42AFA180986F0E780
:10142300A42AFA180986F0E7A42AFA1986F0E7A491
:10143300FBE5F02AFA190886F0E7A42BFBE5F03A5E
:10144300FA190886F0E7A42BFBE5F03AFA18180915
:1014530086F0E7A4C5F02BFBE43AFA1908E7C5F0D8
:10146300C6A426F6E5F03BFBE43AFA1886F0E7A4B7
:10147300F6E5F00826F6E43B08F6E43A08F6D0E091
:10148300FBD0E0FA22E4CFC0E0E4CEC0E0E4CDC07C
:10149300E0E4CCC0E075F020C3E633F608E633F6AB
:1014A30008E633F608E633F6181818EC33FCED3388
:1014B300FDEE33FEEF33FFC3EC9709ED9709EE978B
:1014C30009EF97191919400FFFEC97FC09ED97FDE8
:1014D30009EE97FE191906D5F0BEECF709EDF709E9
:1014E300EEF709EFF7191919D0E0FCD0E0FDD0E0D1
:1014F300FED0E0FF226016080808C6C313C618C64C
:1015030013C618C613C618C613C6D5E0EA22700957
:10151300080808226016181818C6C333C608C6334D
:10152300C608C633C608C633C6D5E0EA22E627F6A0
:101533000809E637F60809E637F60809E637F6221A
:10154300E026F608A3E036F608A3E036F608A3E0A3
:1015530036F622E026F008A3E036F008A3E036F0E2
:1015630008A3E036F022C3E697F60809E697F608E3
:1015730009E697F60809E697F622C3E096F008A372
:10158300E096F008A3E096F008A3E096F022E65771
:10159300F60809E657F60809E657F60809E657F686
:1015A30022E056F608A3E056F608A3E056F608A391
:1015B300E056F622E056F008A3E056F008A3E05602
:1015C300F008A3E056F022E066F608A3E066F6080A
:1015D300A3E066F608A3E066F622E0F608A3E0F6C9
:1015E30008A3E0F608A3E0F622E6F008A3E6F00875
:1015F300A3E6F008A3E6F022E0FAA3E0FBA3E0FCF5
:10160300A3E0FD22EAF0A3EBF0A3ECF0A3EDF022BC
:10161300CAC0E0E6F0A308DAFAD0E0FA22CAC0E0D2
:10162300E0A3C582CCC582C583CDC583F0A3C582A3
:10163300CCC582C583CDC583DAE6D0E0CA22C3E434
:1016430098F8E499F91216828026C3E49AFAE49B87
:10165300FBE920E7E9121682E498F8E499F922C33A
:10166300E498F8E499F9121682E498F8E499F9C336
:10167300E49AFAE49BFB22EB20E7CFE920E7E0B909
:101683000010BB0008E88AF084F8AAF022E4FBC843
:10169300FA22EB70227B10C833C8C933C933500711
:1016A300C39AC3DBF280069A50012ADBEAC833F4FB
:1016B300C8C933F4C9FA2275F008E4C833C8C9337A
:1016C300C933C99AC99B5004C92AC93BD5F0ECFB5D
:1016D300C833F4C8E4C9FA22600D08C6A2E713C6EA
:1016E30018C613C6D5E0F322600C08C6C313C61888
:1016F300C613C6D5E0F422700422600D18C6C333A6
:10170300C608C633C6D5E0F41822251810AF08F56D
:1017130018400215198008F51840021519D2AF2296
:10172300C0D0251810AF08F518500205198008F528
:101733001850020519D2AFD0D0222518F58210AF68
:1017430008F518400215198008F51840021519D23A
:10175300AF851983222518F582E43519F58322E430
:10176300732518C582C0E0E51934FFC583C0E0E5E1
:1017730018C3958224F810AF0885831985821880D1
:1017830008858319858218D2AFCEF0A3E520F0A394
:101793007808E608F0A3DEFAEFF0A3E58124FAF86F
:1017A300E608F0A3E608F0A3E608F0A30808E608B5
:1017B300F0A3E608F0A315811581D0E0FED0E0F890
:1017C300158115811581E8C0E0EEC0E0222518C51A
:1017D30082C0E0E51934FFC583C0E0E518C39582F4
:1017E30024F910AF08858319858218800885831929
:1017F300858218D2AFCEF0A3E520F0A37808E608DF
:10180300F0A3DEFAEFF0A3E58124FBF8E608F0A3EA
:10181300E608F0A30808E608F0A3E608F0A315819C
:101823001581D0E0FED0E0F815811581E8C0E0EE27
:10183300C0E022851983851882E0A3FEE0A3F5208A
:101843007808E0A3F608DFFAE0A3FFE0A3C0E0E036
:10185300A3C0E0E0A3C0E0E0A3C0E0E0A3C0E010C9
:10186300AF088582188583198008858218858319B6
:10187300D2AFD083D082020122851983851882E0FA
:10188300A3FEE0A3F5207808E0A3F608DFFAE0A3BF
:10189300FFE0A3C0E0E0A3C0E0E0A3C0E0E0A3C09A
:1018A300E010AF0885821885831980088582188522
:1018B3008319D2AFD083D08222C0D02518C582C06D
:1018C300E0E51934FFC583C0E0E518C3958224F32E
:1018D30010AF08858319858218800885831985824E
:1018E30018D2AFC8F0A3E9F0A3EAF0A3EBF0A37911
:1018F30008E709F0A3D8FAECF0A3EDF0A3EEF0A308
:10190300EFF0A3D0E0F0A3D0E0F0A3D0E0F0A3E5A4
:1019130020F0A3E5F0F0A322851983851882E0C0A7
:10192300E0A3E0F9A3E0FAA3E0FBA37808E0F6085C
:10193300A3DFFAE0FCA3E0FDA3E0FEA3E0FFA3E046
:10194300C0E0A3E0C0E0A3E0F5D0A3E0F520A3E06E
:10195300A3F5F010AF088583198582188008858365
:1019630019858218D2AFD082D083D0E0F8D0E0328C
:1019730074048006740280027401C0E0F404121738
:101983003DD0E0121613227404800474028000CC4C
:10199300C0E0EDC0E0E518C39CCCAD1950011D10AB
:1019A300AF068C188D1980068C188D19D2AF1216BC
:1019B30020D0E0FDD0E0FC22D083D082E9C0E0E477
:1019C30093A3C386F0C5F095F0F908E493A386F0DA
:1019D300C5F095F0700BE493A3C3994005E9048027
:1019E30002A3E475F002A42582F582E5F03583F5C0
:1019F30083D0E0F9E493A3C0E0E493C0E022D08372
:101A0300D082ECC0E0EDC0E0E493A3FCE493A3FD3B
:101A1300ED4C600D121A4DEC24FFFCED34FFFD80FC
:101A2300EFE493A3FCE493A3FDED4C600D121A8C39
:101A3300EC24FFFCED34FFFD80EFD0E0FDD0E0FCB3
:101A4300E493A3C0E0E493C0E022C0E0C3E4939630
:101A5300087401939618400FE493667008087401A4
:101A630093661870007019A3A3C3E49396087401D6
:101A7300939618A3A3400DD0E0D0E0D0E0021A3D26
:101A8300A3A3A3A3A3A3D0E022C0E0C0F088F0E403
:101A9300936670080874019366187000A8F0A3A3F6
:101AA300700BD0F0D0E0D0E0D0E0021A3DA3A3D079
:041AB300F0D0E0226D
:101AB80074F51217D0EAFEEBFFEE2434F8EF340089
:101AC800F988088909EE2435121BE4F8EE24371248
:101AD8001BE4F50AEC850AF0A4FCAAF0850AF0EDEF
:101AE800A42AFDE82CF8E43DF97A257B0012168239
:101AF800EA850882850983F074075AF87401B800EA
:101B0800028004C333D8FCFBEA131313541FF8EE06
:101B180028F8EF3400F9E8245DF582E9121BE75B49
:101B28006003EA801CEE2436121BE4F5F0EA84A870
:101B3800F0EE28F8EF3400F9E82438F582E9121BB2
:101B4800E7F97F0402187C74F51217D0EAFEEBFF60
:101B5800EE2434121BE4C0E0EE2435F582EF3400A5
:101B6800F583D0E0F08E828F83A3A3A3A3A3E0FA2A
:101B7800A3E0FB8E828F83A3A3A3A3A3A3A3E0FC6C
:101B8800A3E0FDECC39AF50AED9BF50BEE247FF577
:101B980008EF3400F509850882F583E06401702BAD
:101BA800EE2480F582EF3400F58312198E121BEDB6
:101BB8007402121723E960137CBF7D07EEFAEFFB6E
:101BC800120AA8850882850983E4F0AC0AAD0BEEF9
:101BD800FAEFFB121AB8122218021B4AF582EF34E8
:101BE80000F583E022C082C083851882851983E0CE
:101BF800F8A3E0F9C3EA9CEB9D5010C3EC98ED996B
:101C0800401BC3EA98EB995014800EC3EA98EB99ED
:101C18004007C3EC98ED994004790180027900D01F
:101C280083D0822274ED1217D0900479E0640860A2
:101C380005E06407702C9061C8E060269004A7E076
:101C4800F874FF68601CE875F005A4C8AAF02AF9C2
:101C580074A928FE740439FF8E828F83A3A3A3E09E
:101C680070057900021DCCEE2468F510EF3400F5FC
:101C780011906060E0851082851183F0750AFB750C
:101C88000B07750800750900E5D914F50EE5D95458
:101C980003F50F601CEE2482F50CEF3400F50D748B
:101CA80003650F6058E50E6013EE2467121BE4709D
:101CB8000B793DEEFAEFFB120AD280A69007F6E008
:101CC80064016026850C82850D83E06004780480B9
:101CD800027800850E08E508C398FA95E0FB12091A
:101CE8003A8A088B09EA45097006120D7E021C6AB9
:101CF800850C82850D83E070048A0A8B0B7800803E
:101D080016E5D9C0E08812E50A2512F582E50B34FC
:101D180000F583D0E0F008E8C3950E40E4850C8216
:101D2800850D83E0602874FC250EF50E780A1219DB
:101D380077AC0EA90FEEFAEFFB120B8C7402121798
:101D480023E9700AAA08AB091212B2021CB974037B
:101D5800650F6058850E0C750D00780C121977AC5C
:101D68000AAD0BAA08AB09120B507402121723858F
:101D78001082851183E0F87480687005750C7F8087
:101D880002880CE50CF50A780A12197BE50FF50AAA
:101D9800780A12197BA90EAC08AD099004A7E0FADD
:101DA8007B001207DE74021217238013900479E077
:101DB8006408700BAC0AAD0BEEFAEFFB120BBC1209
:101DC8000D8A79017F0C02187C74F31217D074FC09
:101DD80012170DEAFEEBFF8908A2AFE433F509C23A
:101DE800AFEE2463F50AEF3400F50B8010AA0AABB6
:101DF8000B120B081212B29007C6E004F0850A8293
:101E0800850B83E0F8A3E0F9E849602FE82402FA9B
:101E1800E93400FBEA2402F50CEB3400F50D780CEC
:101E28001219778A828B83E0FCA3E0F9EEFAEFFBC4
:101E3800120AFC7402121723E960B29007C6E06028
:101E4800579007C7E0F89007C6E0C398500C740293
:101E5800650870449007C8E0603E8E828F83A3A314
:101E6800A3A3E0851882851983121EB07402121785
:101E780058E8121EB09007C5E028F07402121758EF
:101E8800AC82AD83851882851983AA82AB837901D8
:101E98001207EA9007C6E4F0E509A2E092AF7404DD
:101EA8001217237F0602187CF0A3E4F09007C6E01F
:101EB800F8220000851A87851BC622C0E074EF123D
:101EC80018BCA2AFE433FEC2AF759B00906182E0FC
:101ED800A2E05012E591A2E0500C7591FE740165E4
:101EE8001A7003121C2CE0A2E55051E591A2E550AE
:101EF8004B7591DF900479E064076005E064087031
:101F0800237401651A703579019004A7E0FA75F019
:101F180005A4CAA8F028FB74A92AFA74043BFB128A
:101F28001DD18018E0640D701390049BE004F064E8
:101F3800287002E4F07A00E0F9120D90906182E0D6
:101F4800A2E64003021FEAE591A2E64003021FEA67
:101F58007591BF900479E064057008120C8E120C1C
:101F68009A8003120C94751A00120D00E990047AF5
:101F7800F07900120CE2120A0C7A017B00900478C6
:101F8800E0F9120FE8907803E0644270559007FA80
:101F9800E014F0704DC2AF121FA200781DD0E0F619
:101FA80018D0E0F6E59F540770057509FF800375A2
:101FB800097FC4C0E0781CE6F50808E65509F5096C
:101FC800740B78081216EBD0E02508F8906270E0E0
:101FD800A2E740F8E8C333906272F0906270E0D2F2
:101FE800E0F0906181E0A2E35009E5E9A2E3500343
:101FF80075E9F7A3E0A2E75009E591A2E750037558
:10200800917FEEA2E092AF7F0402191BC0E0C0D01E
:10201800C082C083906183E0A2E05009E5BFA2E0DE
:10202800500375BFFEE0A2E15009E5BFA2E15003ED
:1020380075BFFDE0A2E25009E5BFA2E2500375BFFB
:10204800FBE0A2E35009E5BFA2E3500375BFF7E048
:10205800A2E45009E5BFA2E4500375BFEFE0A2E592
:102068005009E5BFA2E5500375BFDFE0A2E65009BD
:10207800E5BFA2E6500375BFBFD083D082D0D0D0D1
:10208800E032C0E074F21218BCE5A7A2E4500FE5F4
:10209800A1A2E4500953A7EF75A1EF1220DEE5A72E
:1020A800A2E5500CE5A1A2E5500653A7DF75A1DF14
:1020B800E5A7A2E15009E5A1A2E1500375A1FDE55C
:1020C800A7A2E2500CE5A1A2E2500653A7FB75A116
:1020D800FB7F0102191B74F81217D0751A019004BE
:1020E80079E0640670077A007B00120C76A2AFE4F0
:1020F80033FED2AF90047FE0640170187A207B0031
:10210800900478E0F91210667A207B00900478E059
:10211800F9120FEE906182E0D2E6F09007F7E060E6
:102128002185C61B801690047EE064017008E5C610
:1021380054F84405F5C653BEFC121EBC7401651A5A
:1021480060E4EEA2E092AF7F0102187C74F11217EE
:10215800D08A088B098C0A8D0B9091837808121508
:10216800A4740F121758780C1215DD909183780C0F
:102178001215A47808790C1213C99091D3501078CD
:1021880008790C12156978081213E94014800E7842
:102198000C7908121569780C1213E950047901803A
:1021A8000279007F0802187C74ED1217D08A088B18
:1021B800098C0A8D0B90918378081215A474131258
:1021C8001758780C1215DD909183780C1215A478A5
:1021D8000C79081213C940117808790C121569AAEC
:1021E80008AB09AC0AAD0B8022751000751100759B
:1021F80012007513017810790C1215697810790896
:10220800121530AA10AB11AC12AD137F0C02187C5A
:10221800C082C083E9906000F0D083D08222C2AF30
:1022280002000022C0E074F21218BCA2AFE433FE30
:10223800D2AFC2C0E5D1A2E4500653D1EF12128E3C
:10224800EEA2E092AF7F0102191BC0E074F21218EF
:10225800BCA2AFE433FED2AFE589A2E04006E5892F
:10226800A2E150031211F8758900758900C2C5EE04
:10227800A2E092AF7F0102191BC0E0C0D0E8C0E025
:10228800E9C0E0E5A8D2AFC2C7A2E7A2E792AFD003
:10229800E0F9D0E0F8D0D0D0E032C0E0C0D0E8C05B
:1022A800E0E9C0E0C008C009C082C083A2AFE4333F
:1022B800F9D2AF901052E0F8A3E0687008539AFB87
:1022C800A374018026C2E9901052E0F50874012534
:1022D80008F074D22508F582740F3400F583E0F510
:1022E800C1901052E0C394804002E4F0E9A2E09269
:1022F800AFD083D082D009D008D0E0F9D0E0F8D0B0
:10230800D0D0E032C0E074F21218BC75C000901151
:10231800C7E0F8A3E0F9E82401FAE93400FB9011DA
:10232800C7EAF0A3EBF0C3E89459E9941B40329054
:1023380011C7E4F0A3F09011C9E064017002A3E0B2
:10234800701F9010DDE070197A507B911212A090E6
:10235800109BE4F09010DD04F07B00FA7903121072
:06236800BA7F0102191BFF
:10237000FFFFFFFFFFFFFFFFC082C083E9901260F5
:10238000F0D083D08202012274F6121764E9900320
:1023900065F07CA57D037AFF7BFF1207367A008A01
:1023A00008750900740278081216FA74662508F890
:1023B000740335091223D7A3F00AEAC3940340DF5C
:1023C00079051206C4900365E0F91205E67A4E7BA2
:1023D000071208EC0239D3F98882898374FF12232B
:1023E000E4E4F022F0A312387EA32274F4121764FE
:1023F0008A088B09EB54806030900365E0F9120F76
:10240000D08A0A8B0BAE0AAF0BEE4F60138E828F11
:1024100083E064B070031206D6EEFAEFFB120FBE33
:10242000AA08E5096480FB80047A007B000225BCD1
:1024300074F212176474FC12170DEAFEEBFFEE4FF4
:1024400060387402121758EEF0A3EF122841ECF036
:10245000A3ED122841AA82AB831205E0E9F50870CA
:10246000717412121758123425E50A450B60638EF9
:10247000828F831224DCEE4F700575080280537A38
:10248000067B001210248A0C8B0DA80CA90DE849BC
:102490007005750813803B88828983E41223E4EE7B
:1024A000F0A3EF1238C6E50AF0A3E50BF090037332
:1024B0001225B49003736017E0FCA3E08003EAFCEC
:1024C000EBFD8C828D831225B470F38C828D831288
:1024D0003328A9087404121723023AB1A3A3A3A3B3
:1024E000E0FEA3E0FF2274F2121764890AE975F096
:1024F00045A4FEAFF0900372E4F09003681225B497
:10250000602812102A790089087509007402780879
:102510001216FA74682508F58274033509F583E408
:10252000F0A3F009E9C3940340DDEEFAEFFB1210CB
:10253000248A088B09EA45096075EEFCEFFD7900F5
:10254000120FA67D008D0C750D007402780C12160A
:10255000FA7468250CF87403350DF9E50AF5F0ED09
:10256000A475F017A4FAABF0E5082AFAE5093BFBDD
:1025700088828983EAF0A3EBF07E00801BEE75F081
:1025800017A4FAABF088828983E02AFCA3E03B8C95
:1025900082F583E4F0A3F00EEEC3950A40DF0DED63
:1025A000C3940340A0E50A900372F0790080027999
:1025B00013023AB1E0FAA3E0FBEA4B227F040218CF
:1025C0003674F41217647900EAA2E0501B750832E1
:1025D00075099178081219777C047D007A627B1264
:1025E0001206BE740212172380D2C082C0839003E9
:1025F000731238B849601C88828983A3A3E06A708B
:1026000003A3E06B8882898370E7A3A3A3A312309E
:10261000CC80047A007B0002238174EE121764746C
:10262000FC12170DEAFEEBFF851882851983E4F092
:10263000A3F0EE2402123313EE240512282FEE2409
:1026400004F50EEF122C0BE024FE603924FC6046EA
:1026500024FE605224FE605E24FE700302273424B0
:10266000FE70030227AC24FE70030227BB24FE7019
:10267000030227CA24FC70030227D924FE70030238
:1026800027E802282590038C7417F0A3E412284948
:1026900012025C022825851882851983AC82AD83DD
:1026A0001206DC0227F5851882851983AC82AD837A
:1026B0001206E20227F5850C08850D09740212172F
:1026C00058AC82AD838508828509831230CC12060E
:1026D000048A0C8B0DAC0CAD0DEC4D6042E4F50C96
:1026E000F50D780C121977750C8C750D03780C129A
:1026F0001977750C8D750D03780C12197774081203
:10270000175812198E79161230C612071E74081245
:102710001723E9F50C700B1230C2120274800F758A
:102720000C01850882850983122837123328850C0D
:10273000080227F87402121758AC82AD83850C8208
:10274000850D831230CC1206048A108B11AC10ADAB
:1027500011EC4D6043850C82850D83A3A312198E65
:1027600075108C751103781012197775108D75110D
:10277000037810121977740812175812198E7916E7
:102780001230C612071E7408121723E9F509700BE0
:102790001230C212027A800F750901850C82850DF4
:1027A00083122837123328850908804C85188285C2
:1027B0001983AC82AD831206E8803A8518828519A8
:1027C00083AC82AD831206EE802B85188285198337
:1027D000AC82AD831206F4801C851882851983AC07
:1027E00082AD831206FA800D851882851983AC822A
:1027F000AD83120700E9F508E50860298E828F8312
:10280000A3E06414601F850E82850F83E090038C23
:10281000122841123B8090038D123328E508A31241
:102820002849120256EEFAEFFB12068202321AF51E
:102830000CEF3400F50D22123B8485188285198334
:1028400022F085188285198322F07C8C7D03850A0D
:1028500082850B83E0FAA3E0FB2274EE1217647406
:10286000FC12170D8A0A8B0B8C0E8D0FEA2405F5CE
:1028700008EB3400F5097C157D0079007A8C7B0328
:10288000120FA6E5082402F50CE509122832851876
:1028900082851983858210858311781012197785B6
:1028A0000882850983A3A3A3A3122D54121977E5E7
:1028B000082405F510E5093400F511781012197790
:1028C000850C82850D831230B61230CC1205FE7451
:1028D000061217238A108B11AE10AF11E50A2402DD
:1028E000F50AE50B123316EE4F7003022A23801708
:1028F00074021217581230CC88828983EAF0A3EB55
:10290000F090038CE004F090038CE0C39405400346
:10291000022A23E4F510F511781012197775107555
:1029200075110378101219777510767511037810E8
:10293000121977740612175812198E7910EEFCEFDF
:10294000FD1230C612071E7408121723E9705E8547
:102950000882850983A3A3A3A3A3A3A3E0F89003FC
:1029600075E0687048122D541219777C767D03E566
:10297000082408FAE5093400FB120FA074021217AC
:1029800023E960298E828F83A3A3A3A31230CC9066
:10299000038CE0F510740278101216FA748D25106D
:1029A000F58274033511F583EAF0A3EBF07402129B
:1029B00017588582108583117810121977740212C6
:1029C000175812198E850C82850D83123B951206BD
:1029D0000A74041217238A108B11AE10AF119003E2
:1029E0008CE0F510751100740278101216FA748CD0
:1029F0002510F874033511F988828983A31225B450
:102A000070030228E7E82403F8E93400F9EE4F6088
:102A1000030228F08882898374FFF0A3F090038C6E
:102A2000E004F090038CE0600A1230C21202687970
:102A300000800B85088285098312331F790A0232D0
:102A40001A74EA12176474FE12170D8C128D13EAB1
:102A50002405F50CEB123B9F1224E0750800750964
:102A600000EA2402F510EB3400F51185188285196F
:102A70008385820A85830B780A121977850C8285F3
:102A80000D83A3A3A3A3122C15121977E50C24051B
:102A9000F50AE50D123316780A121977850C82852E
:102AA0000D83123B931205FE74061217238A0A8BBC
:102AB0000BEA450B7003022BD6EA2404F50EEB1249
:102AC0002C0B1224E08A828B83A3A3A3E0F9851048
:102AD000828511831230CC1205ECE9F509600302FE
:102AE0002BD6E4F514F5157814121977751475754D
:102AF0001503781412197775147675150378141266
:102B00001977740612175812198E7913AC0AAD0B87
:102B10008510828511831230CC12071E740812179B
:102B200023E9F5096003022BD6900375E0F8E50868
:102B30007009E0240290038DF0801790038DE0FC73
:102B4000E82402FAE43400FBEA6C7001EB60030253
:102B50002BDA850882AA82122D4B9414122D435031
:102B600075850E82850F83E0C0E0122F82D0E0F0E1
:102B70000508850E82850F83A3E0C0E085080A74EE
:102B80008E250AF58274033400F583D0E0F0050841
:102B9000900375122C151219777C767D0385080A2F
:102BA000748E250AFA74033400FB120F8E7402121D
:102BB0001723900375E02508F50874FF6E70037401
:102BC000FF6F6012EE24010EEF3400FFE508C3949E
:102BD000145003022A6BE5086013122FA885108297
:102BE0008511831230CC12026E79008014E50970D1
:102BF0000375090A851282851383EEF0A3EFF0A90D
:102C00000974021217237F0E0218363400F50F855F
:102C10000E82F583221238D52274EE12176474FEE8
:102C200012170D8C0E8D0FEA2405F50CEB122832CD
:102C3000750B0090038CE4F0F50AEA2402F508EB2A
:102C40003400F509804990038CE0FA900375E0F8B0
:102C5000122D4B9417122D43400D90038CE0F87405
:102C600016C398900375F0122D541219777C767D57
:102C700003748D2AFA74033400FB120F8E7402124F
:102C80001723900375E0F890038CE028F0050AE51F
:102C90000C2416F582E50D3400F583E0F8E50AC34F
:102CA000984003022D2C90038CE0C39416507DE5D0
:102CB0000AC333F8E433F9E50C28FEE50D39FF8546
:102CC0001882851983AC82AD838E828F831230CCBB
:102CD0001206048A108B11AC10AD11EC4D70057505
:102CE0000B018043E4F510F5117810121977751077
:102CF00075751103781012197775107675110378B0
:102D000010121977740612175812198E7916850841
:102D1000828509831230CC12071E7408121723E92A
:102D2000F50B7003022C4612331B80107C8C7D0344
:102D30008508828509831230CC120280A90B7402A7
:102D400002321CE99400C365D03322EA28F8E43447
:102D500000F9E822E0F51075110078102274EA12EB
:102D6000176474FC12170D8A0C8B0D8C128D13EAEC
:102D70002405F50AEB123316750800750900E50AFB
:102D80002402F510E50B3400F51174021217588572
:102D9000820E85830F780E121977850A82850B8340
:102DA000A3A3A3A3123885121977E50A2405F50E0B
:102DB000E50B3400F50F780E121977851082851116
:102DC000831232141230C61205FE74061217238ABB
:102DD0000E8B0FAE0EAF0FE50C2402F50EE50D3491
:102DE00000F50F80408882898374FFF00508122F58
:102DF0008E74FFF00508900375E0F50C750D0078F2
:102E00000C1219777C767D0385080C748E250CFADC
:102E100074033400FB120F8E740212172390037593
:102E2000E02508F508EE4F60718E828F83A3A3A37F
:102E3000E0F9850E82850F831230CC1205ECE9F59E
:102E400009EE240412282FE97044E4F514F51578EE
:102E5000141219777514757515037814121977758E
:102E6000147675150378141219777408121758120E
:102E7000198E7911EEFCEFFD850E82850F831230DD
:102E8000CC12071E7408121723E9F5096027850C78
:102E900082850D83122F9E123328E5087003022FBE
:102EA00068122FA8850E82850F831230CC120286FD
:102EB0007900022F7D850882AA82EA900375700945
:102EC000E0240490038DF08022E0F890038DE0F57B
:102ED00014E82404FCE43400FDEC65147001ED708A
:102EE000C0122D4B9412122D4350B6850C82850DC5
:102EF00083E0C0E0122F82D0E0F00508850C8285C7
:102F00000D83A3E0C0E0122F8ED0E0122FBA85828D
:102F10000C85830D780C1219777404121758121946
:102F20008E851082851183123B9512060A74041255
:102F300017238A0C8B0DAE0CAF0D85080C748E25F3
:102F40000CF874033400F9EE4F7003022DE5851878
:102F500082851983E088828983122FBAA3E0C0E0BA
:102F6000122F8ED0E0022DF3E509700375090A8552
:102F70000A82850B83122F9E123328A9097404023A
:102F80002C03748E2AF58274033400F5832285089D
:102F90000C748E250CF58274033400F58322123BE9
:102FA000848512828513832290038DE0F5F0E50875
:102FB0008490038CF07C8C7D0322F00508851882B8
:102FC0008519832274EC12176474FE12170D8A0897
:102FD0008B098C0E8D0FEA2405FEEB3400FF85185B
:102FE00082851983AC82AD838E828F831230CC129E
:102FF00006048A0A8B0BEE241812282FEA450B7060
:10300000030230911231FC503285188285198312E7
:1030100030CC1207128A108B11EA4511606E7912BA
:10302000AC0AAD0B8508828509831230CC851082ED
:10303000851183121762E9F50A705BE4F50AF50B56
:10304000780A1219778E828F83A3A3E0F50A780A93
:10305000121977EE2403123313780A1219778E822D
:103060008F831230B61230CC120724740612172345
:10307000E9F50A7021850C82850D83E0701F8508B3
:10308000828509831230CC12028C8011750A0E8061
:1030900009750A018004E50A600312331B850C825E
:1030A000850D83E0600479008002A90A740212177A
:1030B000237F0C021836E0FCA3E0FD850882850919
:1030C00083227C8C7D03850A82850B83E0FAA3E052
:1030D000FB2274EE12176474FE12170D8A088B0916
:1030E0008C0C8D0DEA2405FEEB3400FF750E008577
:1030F0001882851983AC82AD838E828F831230CC87
:103100001206048A0A8B0BEA450B70030231E8129F
:1031100031FC50358518828519831230CC12071284
:103120008A0E8B0FEA450F605E7912AC0AAD0B85F3
:1031300008828509831230CC850E82850F83121791
:1031400062E9F50E60030231EB850882850983127E
:103150003425AA0AFB1207068A108B11A810A911A0
:10316000E849701E7AFF7BFF1207068A108B11A8B0
:1031700010A911E849606C88828983E50AF0A3E50B
:103180000BF0750A008007750E0E805F050A90032C
:1031900072E0FAE50AC39A504AE50A75F017A4FAF4
:1031A000ABF088828983A3A3E02AFAA3E03BFB8AE1
:1031B000828B83123214EC4D70D2750A17750B0096
:1031C000780A121977EEFCEFFD120F8E74021217B7
:1031D00023EEFCEFFD8508828509831230CC1202B4
:1031E000928014750E098003750E01123B7C850CCC
:1031F00082850D83123328A90E022D3EE508240294
:10320000F508E5093400F5098A828B83A3A3A3E0BE
:10321000A2E522A3E0FCA3E0FD2274041217237FA1
:103220000A02183674EC1217648C108D11EA24050A
:10323000F50CEB122832750F00EA2402F50AEB12A6
:103240003316850A82F5831230CC1207068A088B62
:1032500009EA45097003023308750E008071850C78
:1032600082850D83E06401704F8E828F83A3A31249
:10327000198E8E828F83A3A3A3A3E0F5127513008A
:103280007812121977EE2405F512EF3400F5137851
:10329000121219771230C61207247406121723E986
:1032A000F50F6014850C82850D83E4F0123B7C855C
:1032B00010828511831233287C177D007900EEFA85
:1032C000EFFB120FA68E828F83E4F0A3F0050E9021
:1032D0000372E0F8E50EC398501FE50E75F017A4D1
:1032E000F8A9F0850882850983A3A3123BA9FCA352
:1032F000E0FDEC4D600302325E850882850983742F
:10330000FFF0A3F0E50F70061230C6120298A90F65
:103310000230B1F50AEF3400F50B228E828F831252
:103320003B84850E82850F83E8F0A3E9F02274F6D2
:103330001217647C008C0875090074027808121654
:10334000FA1233606A7003A3E06B7006E8FAE9FBD7
:10335000800B0CECC3940340DC7A007B000239D371
:1033600074662508F874033509F988828983E02298
:1033700074F71217647F00EF75F003A4F8A9F0EC5E
:1033800028F8ED39F988828983E06A7003A3E06B3D
:103390007006E8FAE9FB800B0FEFC3940440D87A7B
:1033A000007B007F0102183674F61217641206D0F3
:1033B0008A828B83E582458370067A007B008007D2
:1033C000A3A3A3A31230CC0239D374F2121764E979
:1033D000FE740E1217581234257410121758123832
:1033E000A08C828D83E064027036A3123B8AF50CB8
:1033F000A3E0F9A80C740268700374296970217540
:103400000C02750D00780C1219777808121977786C
:103410000A121977EEF91207487406121723800270
:103420007901023AB1E0F50AA3E0F50B2274E81243
:10343000176474FB12170DE9851882851983F08AC9
:10344000168B17ECFEEDFF751000741D1217581245
:103450003B80741D1217581233288E828F83A3A3CA
:10346000A3E0A2E4502D741D1217581230CC12079D
:10347000128A828B83E5824583700302386F790A52
:10348000EEFCEFFDAA16AB17121762E9F510600308
:10349000023872741F1217581238A074211217586C
:1034A0001234257423121758E0F50EA3E0F50F8EA1
:1034B000828F83E06402600302381DA3123B808583
:1034C0000882850983A3858212858313EE24061260
:1034D000282F88828983E0FAA3E0F9EA2400F51412
:1034E000E439F5157814121A010100002801281199
:1034F0003507000228D6350328433500290D37014A
:103500002938370229D93603290D370429B7371D41
:1035100038E50E450F6003023818850C82850D834F
:103520001238B8FAE9FB8A828B83E0850A82850B20
:10353000831238CC1219778A828B83A3E0FCA3E034
:103540000237A1E50E450F6003023818850A82850F
:103550000B837401F01238A8850882850983F07CFA
:10356000007D008E828F83A3A3A3A3E02401FAA38E
:10357000E03400FB120604EA4B60418A828B83E050
:103580002402F8850A82850B83E028F0EA2404F8F7
:10359000EB3400F988828983E085128285138312D7
:1035A00038DE1238CC1219778A828B83123213E5F7
:1035B000082403FAE5093400FB0237A6850A828550
:1035C0000B83E02404F07C047D007900AA12AB1385
:1035D000120FA6023872E50E450F6003023818126A
:1035E00038A8FEA3E0FF850A82850B837404F0EE01
:1035F000850882850983F0EF851282851383F07434
:1036000003121758AC82AD83EEFAEFFB1206048A60
:103610000C8B0DEA450D70030236BA8A828B83A3A8
:10362000A31224DC740112175885820E85830F784B
:103630000E121977740512175812198E7CFF7DFF30
:1036400012060A74041217238B0FEA450F70338594
:103650000C82850D83123885121977850C82850DB1
:1036600083A312198E7C027D007AEA7B9112038873
:103670007404121723E9700A740112175874FFF0CA
:10368000A3F08E828F83E064027039750C02750D91
:1036900000780C1219778E828F83123213E508247A
:1036A00004FAE5093400FB120F8E74021217238509
:1036B0000A82850B83E0240280097401121758EEF8
:1036C000F0A3EFF07401121758123896F07401123B
:1036D0001758A312388E023812E50E450F60030208
:1036E0003818850C82850D83123214AA16AB171276
:1036F000073C850A82850B837402F0EA850882857F
:103700000983F0851282851383EB023815E50E4597
:103710000F60030238181238A8F8A3E0F9850A826E
:10372000850B837402F0E8850882850983F0E985BA
:103730001282851383023815850C82850D83123021
:10374000CC120F88EAFC8C82A882C3950EE4950FF8
:10375000405FE8650E7002E50F70047C00802285F2
:103760001882851983E0FAE50E2AFAE50F3400FB8A
:10377000C3EA98EB94005003E08005E50ECCC39CAF
:10378000FCEC850A82850B83F08C0A750B00780AA5
:10379000121977850C82850D83E0250EFCA3E03598
:1037A0000FFDAA08AB09120F8E74021217230238FC
:1037B00072751007023872E50E450F705B850C823A
:1037C000850D83123B80850A82850B837407F08800
:1037D00082898312388E12387EE0851282851383A7
:1037E000F0E82402FAE93400FB8A828B8312388ED7
:1037F0001238BD123896A31238C612389AF0E8244F
:1038000005F8E93400F98882898312389AA31238BE
:10381000DEA3A3A3A3F0805A75100B8055741D126C
:1038200017581230CC1206D08A828B83E5824583EA
:10383000603D123B80880C890DE8450D6031780EA3
:10384000121977780A121977780812197774061204
:103850001758E0F9EEFCEFFDAA16AB17850C828530
:103860000D831217627406121723E9F51080037591
:10387000100EA91074051217237F10021836F08855
:10388000828983A322E0F50E750F00780E22E08571
:103890000882850983221238E5221238E5A3A32283
:1038A000E0F508A3E0F50922850C82850D83E0F898
:1038B000A3E0F5838882E022123B84E822A3A3F0F0
:1038C0008A828B83A3221223E6A3A322F08A828B0F
:1038D000831238D522E0F50A750B00780A221238D7
:1038E0007E1238E522E0850882850983A3A322742D
:1038F000EE12176474FE12170D8A0A8B0BECFAEDA8
:10390000FB7414121758E0F510A3E0F511741612A9
:103910001758E0FE7418121758E0F50EA3E0F50FE3
:10392000851882851983AC82AD831206048A0C8BBC
:103930000DEA450D60498518828519831230CC1235
:1039400006D08A828B83E5824583602FA3A3123839
:10395000A0E50845096024780E121977781012192D
:1039600077EEF9AC0CAD0DAA0AAB0B850882850980
:103970008312176274041217238006790E8002796D
:1039800001022D3E74F612176474FE12170D740CAA
:103990001217581238B8851882851983F0740112ED
:1039A0001758E9F0E4F508F5097808121977750851
:1039B00002780812197774041217588582088583D3
:1039C0000978081219771207247406121723740253
:1039D0001217237F0202183674F7121764EAFEEBFF
:1039E000FF89087CA57D0312073CEA5402600BA9FD
:1039F00008EEFAEFFB1205F8800279010233A37496
:103A0000F612176474FF6A700374FF6B701B7B00FF
:103A1000EB75F003A4F8A9F0EC28F8ED391223D7E0
:103A20000BEBC39404501480E712070C8A088B092F
:103A3000A808A909E84960031223D8809674F612F1
:103A4000176412070C8A828B83E58245836006A384
:103A5000A3E0FA80027A007B000239D374F21217D5
:103A6000648A088B09ECFEEDFF740E121758E0F51E
:103A70000A12070C8A0C8B0DA80CA90DE8497026B8
:103A8000EEFCEFFD7AFF7BFF12070C8A0C8B0DA872
:103A90000CA90DE84970047911801688828983E5A4
:103AA00008F0A3E509F088828983A3A3E50AF079E9
:103AB000007F0602183674EE121764EAFEEBFF8CE4
:103AC000088D09890C7414121758123B8074161251
:103AD00017581230CC750D00E8496003023B74742E
:103AE00002650C6003023B6F7412121758123B8A76
:103AF000FCA3E0F9EC2400F50EE439F50FEAF4F844
:103B0000EBF4F9EC58F8E50F59F9E849705CE50871
:103B10002406F8ED3400F9880A890B8882F58312AF
:103B20003B9512073C8A108B11E50E65107004E579
:103B30000F65116042780E121977850A82850B8312
:103B4000123B951207427402121723E9F50D7027F4
:103B5000780E121977850882850983A3A3123B93F7
:103B60001207547402121723800D750D808008759A
:103B70000D0D8003750D0BA90D02321F8E828F83F0
:103B8000123B8422E0F8A3E0F922123B8488828968
:103B900083E022A3A3E0FCA3E0FDEEFAEFFB2234D6
:103BA00000F50D850C82F58322E028FEA3E039FFA5
:103BB0008E828F83E02274F2121764EAFEEBFF8993
:103BC0000B7401650B600E7402650B706B7901124A
:103BD000090AE97063EEFAEFFB1207068A088B09FF
:103BE000EA45096048750A00800B7C177D00790062
:103BF000120FA6050A900372E0F8E50AC398502256
:103C0000E50A75F017A4F8A9F0850882850983A351
:103C1000A3E028FAA3E039FB8A828B831238B849E3
:103C200070C885088285098374FFF0A3F07CA57DA8
:103C300003EEFAEFFB120736023AB174F212176480
:103C40008A088B09ECFEEDFF740E1217581234250A
:103C5000901260E0F4603D7A097B00120FB8EA4BE5
:103C600060328A828B8374B1F0A3E41238BFA3124E
:103C700038BDA3E508F0A3E509123C97EEF0A3EFE9
:103C8000123C97A3A3E50AF0A3E50BF0901260E0C5
:103C9000F9120FC4023AB1F08A828B83A3A3A3A3C3
:103CA000A322C082C0839061907404F0A37448F092
:103CB000A3E4F09061807440F09061BC7407F090D0
:103CC00061877469F09061B67416F07900120A1277
:103CD0007902120A18902370E493F46006E493F9D1
:103CE0001209EE7905120D720240C3C082C083E949
:103CF000540FF9906185E0696012E5C6548044492B
:103D0000F5C6E59E547F644970F8E9F053C680E536
:103D10009E547F70FA0240C374F7121764E5A8FE40
:103D200053A87E1209FAC2BA539AFEC289759B0043
:103D3000C2C2120A0075A91175B905120A06D2BAD3
:103D4000439A0174805E42A8024FE7C082C083900C
:103D50006181E4F0A3F0A3F00240C375E90075911E
:103D60000075BF00020122C082C083906181E4F02F
:103D7000A374C0F0A3E480DFC082C08374F812177C
:103D80000D90047B1254367003023E5790047BE082
:103D9000544060237908851882851983AA82AB83F1
:103DA000120B26851882851983AA82AB831207C657
:103DB00090047BE054BFF0E054806010790C7A1BD3
:103DC0007B08120B2690047BE0547FF0E0A2E050C9
:103DD0000F7900120A121207CC90047BE054FEF017
:103DE000E05402600F7901120A121207CC90047B92
:103DF000E054FDF0E05404600F7900120A18120735
:103E0000D290047BE054FBF0E05408600F7901127B
:103E10000A181207D290047BE054F7F0E0541060C7
:103E20000F7902120A181207D290047BE054EFF0C7
:103E3000E05420600F7903120A181207D290047B15
:103E4000E054DFF0A3E05401600D120A241207D8F9
:103E500090047CE054FEF074081217230240C3C0A3
:103E600082C083E9600514602A804F90619A7433A0
:103E7000F0A37455F09061A0743AF09007F5E064F7
:103E8000017009C29190047D7467802D90047D7447
:103E900061802690619A743FF0A3745AF09061A0FB
:103EA000747FF09007F5E064017009D29190047D71
:103EB0007471800590047D746AF00240C3C082C0B2
:103EC00083E9600B14600D14601714600C8020905F
:103ED0002374801590237580109007F5E0640170BD
:103EE000059023768003902377E493906186F00217
:103EF00040C374EE12176474F412170D851882858E
:103F00001983AC82AD8375839175825F7404121638
:103F10002090237493F4600302401C907808E0C35F
:103F200094025003023FFC7404121758AC82AD8314
:103F300075839175820C7408121620FC7EFF7FFF3A
:103F40008E0C7D008C8285820E800F74086D606DF2
:103F500074096D6068740A6D60638D08750900747A
:103F60000278081216FA1240261215DDA909E50A90
:103F7000C9F88810741878081214F8E5104508FA82
:103F8000E9FBE50EC333F8E433F97404121758E57E
:103F90008228F582E58339124718C3E89AE99B40E5
:103FA00008E8C39AF8E99B8006EAC398F8EB99F908
:103FB000C3E89EE99F5006E8FEE9FF8D0C0DEDC3B6
:103FC0009413408774FF6E700374FF6F6024850C38
:103FD00008740278081216FA1240261215DD8518A8
:103FE00082851983E582250EF582E583124B31E542
:103FF00008F00CECC394045003023F3C75080175B3
:10400000090078081219777402121758AC82AD8330
:104010007ADD7B081211DA7402121723740C12175E
:10402000237F0A02183674482508F582747835090A
:10403000F583780822C082C083906186E0F89023DF
:1040400077E493687009902376E493906186F0900A
:1040500061AE7468F0A3746AF090624574FBF0A3DB
:1040600004F053F4FD43FE029007F57401F09061F3
:10407000A0E0643A7004790080027901120A120209
:1040800040C37F04021836C082C0839007D3E06427
:104090000170139007D9E0F87401686019E87006A0
:1040A000A3E0640160109007EAE06401700C9007DF
:1040B000F0E064017004790C800279008005E0F979
:1040C000122218D083D0820201221247BE94062207
:1040D000E0C4333354C022C082C0839007DD74250E
:1040E000F09007DB7401F0A3E4F07A01FB120CEE10
:1040F0001241232416F582E8124B317448F0A37460
:104100000AF09007DAE0640170169007D9E07010A9
:104110007901120D4E120D1E120D487900120D5A22
:104120000240C39007C91244A72274F612176474A0
:10413000FA12170D9007D2E064017008120A30904D
:1041400007D2E4F075E1F11241232415F582E8125B
:104150004B317401F09007D4E06401705390914AA0
:10416000C082851882851983AC82AD83758391D016
:1041700082740612162075D90D9007CB1240D044D8
:1041800003F5D97800880874CC1250C07407124027
:10419000CA40F278008808851882851983E5821262
:1041A00050C0E5831240CA40EC75E1957901800268
:1041B0007900120CF490128212422074CEF0A37493
:1041C0000BF0A312422012422012437474D4F0A3C5
:1041D000740B1243899007CBE0F97ACC7B07120C61
:1041E000D09007DDE0F91222187901120CFA9091B3
:1041F0006F1215FB120D129091931215FB120CDC2D
:104200007900120D661241232414F582E8124B3115
:104210007416F09004797405F004121723024828EC
:1042200074C8F0A3740BF0A32274F4121764890805
:10423000A808124F2C9007E2E0F97AE37B07120CF2
:10424000D09007F0E0701A7900120D309007B8E0B6
:1042500070047900800279017AB97B07120CD6804C
:10426000057901120D3075E1F175D9239007E2123D
:1042700040D04405F5D97800880A74E3250AF58210
:1042800074071240CA40F175D90075D90075D9007C
:1042900075D90075D90075D9007A0012538224228D
:1042A0001246D740F67A001253822426F582E9128C
:1042B00048300AEAC3940340EEEE242B12482D7ACC
:1042C00000125382242C1246DD40F67A00125382EB
:1042D000242E1246DD40F67A001253822430124614
:1042E000DD40F67A0012538224321246DD40F67A1F
:1042F000008A0AEE250AF8EF124C491246E99405A5
:1043000040EFEE2437F582EF124E80541FF8EE2472
:104310002AF582EF124E80C43354E048F5D975E196
:10432000959012827498F0A3740BF0A3749EF0A37E
:10433000740B12436B74A4F0A3740B12438990079F
:10434000EFE0F912221890916F1215FB120D1290E6
:1043500091931215FB120CDC90600DE4F0790112C0
:104360000D669004797406F0024082F0A312437443
:1043700012437422124378227492F0A3740BF0A3B8
:104380007492F0A3740BF0A32212438D22F09012CA
:1043900090124399A3124399221243787492F0A386
:1043A000740BF02274EC1217649007E0124F4378FC
:1043B000101215DD9007F1E0FAF875F005A4C8AC0D
:1043C000F02CF974D728F582740439F583E0FEA344
:1043D000E0FFEEC333FEEF33FF8E0CF50D750E00DC
:1043E000750F0085100885110985120A85130B9039
:1043F00091BF780812154378081219738510088543
:10440000110985120A85130B7808790C121530787A
:1044100010790C121488E4F50EF50F7808790C1257
:1044200015698A0C750D007403780C1216FA780859
:10443000790C12153090918378081215A4AA08AB54
:1044400009AC0AAD0B1221B074041217238A088B31
:1044500009A808A909C3EE98EF995006E82EF8E9D3
:104460003FF9E890600EF0E9A3F0EEA3F0EFA3F0BF
:1044700090600D74C1F07F0C021836C082C083902A
:1044800007C912449B9007DD0240BEC082C08390E2
:1044900007E012449B9007EF0240BE1244A7240697
:1044A000F582E81248C922E0F8A3E0C822020122FE
:1044B00074F212176412461AF50AEF1249A7600443
:1044C000780480027800E8240EF8EAC398500302CA
:1044D000457775080C9007FBE4F0EE2476F582EF43
:1044E000124E809007FCF07902EE2477FCEF340046
:1044F000FD7AFD7B07120B147902EE2479FCEF3470
:1045000000FD120B147902EE247BFCEF3400FD1247
:104510000B147902EE247DFCEF3400FD120B14EE37
:104520002474124630120B14850A82850B83E060D6
:104530001E7508FB75090778081219777C0C79033A
:10454000EEFAEFFB120B8674021217237508107433
:10455000012508F5D975D90378008009880A74FB0C
:10456000250A12460FE8C3950840F175E1957904D4
:10457000120D187901800279007F0602183674F254
:1045800012176412461AF508EF3400F509850882FF
:10459000F583E06004780480027800E8240AF8EAF1
:1045A000C3984060750A089007FB7401F079057C98
:1045B000BF7D077AFC7B07120B14EE248012463075
:1045C000120B14850882850983E0601E7508FB754F
:1045D000090778081219777C087903EEFAEFFB12C5
:1045E0000B867402121723750A0C1248A680031258
:1045F0004609E8C3950A40F775E1957904120D184C
:10460000790180027900024579880874FB2508F554
:10461000827407124E84F5D9082212461E22EAFE41
:10462000EBFF9061D0E0F87480C398FAEE24822208
:10463000FCEF3400FD8E828F83A3A3A3A3A31254A7
:10464000458C828D83E028F0A3E039F07902227452
:10465000F6121764EAFEEBFF9061D0E0707475D932
:104660001875D90375D9037A008A08EE2508125304
:1046700087249B1246F040F17A008A08EE25081242
:10468000538724A31246DD40F17A008A08EE2508FC
:1046900012538724931246F040F17A008A08EE25DF
:1046A0000812538724871246D740F175E19579089F
:1046B000EE2493FAEF3400FB120B1A7904EE2487F0
:1046C000FAEF3400FB120B1A7904120D181246F996
:1046D000800279000248281246E39404221246E33D
:1046E000940222F582E9124FDCE0F5D90AEAC322EE
:1046F0001246E394082275E195EE246FF582EF12DD
:104700004FD8125445EE2471F582EF124FD8E8F0DD
:10471000A3E9F07901223400F5831254452274F69E
:10472000121764EAFEEBFF9007FB74061247C812EB
:1047300019777C017903120B86740212172375D93D
:104740000675D90378001247AE40FB75E1959004D9
:1047500079E064087017EE246FF582EF124716EEC9
:104760002471F582EF124B31E8F0A3E9F0790102F0
:10477000482874F6121764EAFEEBFF9061D0E070EF
:10478000299007FB740A1247C81219777C01790334
:10479000120B86740212172375D90675D903780097
:1047A0001247AE40FB1246F680027900807A8808F4
:1047B00074FB2508F58274071247BE940522124F38
:1047C000DCE0F5D908E8C322F07508FB7509077825
:1047D000082274F6121764EAFEEBFF9061D0E070D5
:1047E0004279019007FB740BF0900479E064077044
:1047F000197508FB75090778081219777C010909F2
:10480000120B8674021217237905740129F5D975E4
:10481000D90378008003124609E8C39940F812468C
:10482000F6800279008001F07F02021836F582EFEF
:10483000124E84F5D92274F51217641248D160041F
:10484000780480027800E8240BF8EAC39840527597
:104850000A099007FB7408F0F91248B2120B14858C
:104860000882850983E0601E7508FB7509077808D2
:104870001219777C097903EEFAEFFB120B867402AA
:10488000121723750A0D1248A68003124609E8C3C1
:10489000950A40F775E1957904120D181246F980D2
:1048A000027900024B277401250AF5D975D90378DE
:1048B0000022EE24E4FCEF3400FD7AFC7B0722EEBC
:1048C000241DF582EF1248C922124FDCE4F0A3F058
:1048D0002212461EF8EF1248DA223400F9880889BD
:1048E000098882F583E02274F31217648A088B0921
:1048F000124A3DFAE5082482F50AEB1249A7600442
:10490000780480027800E82408F8EAC3985003028B
:1049100049A0750C069007FB740CF0900496E0908B
:1049200007FCF07402C0E0F97C977D047AFD7B07F8
:10493000120B14D0E0F97C997D04120B14850A82C5
:10494000850B83E0601E750AFB750B07780A121948
:10495000777C067903AA08AB09120B86740212173A
:1049600023750C0A7401250CF5D975D903780080DC
:1049700009880A74FB250A12460FE8C3950C40F11A
:1049800075E1957904120D18E508246FF582E509A3
:10499000124716E5082471F582E50912470B8002DB
:1049A00079007F050218363400F50B850A82F583FD
:1049B000E02274F6121764EAFEEBFF124A3DFCEEA9
:1049C0002482F8EF124AC060047A0480027A00EA76
:1049D0002404FAECC39A40607A029007FBEAF0EEF6
:1049E00024F6F582EF124A47601B7508FB7509072C
:1049F00078081219777C027903EEFA120B8674029A
:104A00001217237A0674012AF5D975D90378008024
:104A100003124609E8C39A40F875E195EE24731233
:104A200050C5EE247F1250C51248BF7904120D18EC
:104A3000EE240D1246FC800279000248289061D0D5
:104A4000E0F87480C39822124E849007FCF08882AC
:104A50008983E02274F6121764124A3DFEEA24822A
:104A6000F8EB124AC060047C0480027C00EC240451
:104A7000FCEEC39C40457C029007FB7407F0EA24DF
:104A8000F7F582EB124A4760177508FB750907783E
:104A9000081219777903120B8674021217237C0609
:104AA00074012CF5D975D90378008003124609E802
:104AB000C39C40F875E1957901800279000248288D
:104AC0003400F988828983E02274F5121764E9FEC4
:104AD000A2AFE433F50AC2AF7F00EA246EF8EB34EC
:104AE00000F980010F88828983E0F508EFC39508FB
:104AF00050188F08EA2508FCEB3400FDEC246AF519
:104B000082ED124E806E70DC8017EA2508FAEB34D5
:104B100000FBEA246AF582EB124B31EE124A4D0497
:104B2000F0E50AA2E092AF7F03021836246AF5820C
:104B3000E9124FD82274F6121764A2AFE433FFC211
:104B4000AFEA246EF8EB125174E014F07E00801985
:104B50008E08EA2508F8EB125389246B124E7DC0AB
:104B6000E0E8124B2CD0E0F00E8C828D83E0F8EE62
:104B7000C39840DCEA246DF582EB124B3174FF12CE
:104B80004BAAEFA2E092AF024828C082C083E5A8FA
:104B9000F8C2AFEA246AF582EB124B31E9124BAA54
:104BA000E8A2E7A2E792AF0240C3F0EA2469124B01
:104BB000B222F582EB124FDCE4F02274F212176499
:104BC0008C828D83A3A3A3A3E0541FF0EA243612A2
:104BD000516A8E828F83E4F0F50C850C8285820AFF
:104BE000EC250AF8ED1248DAC0E0EA250AF8EB12E3
:104BF0004C49D0E0F0750D00850882850983E0F509
:104C00000A750B00E50D780A1216DBE50AA2E050E2
:104C100023E50C33333354F8250DC0E08E828F83A7
:104C2000E0F8124E1D2438124B2ED0E0F08E828F09
:104C300083E004F0050DE50DC3940840BB050CE5C9
:104C40000CC3940540940245793400F9E8245DF5DD
:104C500082E9124FD82274F41217649004A5E0641C
:104C6000037003024E037E00EEF875F005A4C8AA97
:104C7000F02AF974AB28F582740439F583E06003F7
:104C8000024DF974A928FA740439FB8A828B83A334
:104C9000A374011253DCA3A3A3E4F0EA2404F8EB09
:104CA000125389FCE9FDEE8C828D83F0EA246212B6
:104CB0004E0A2467F582EB124B317401124E2FE439
:104CC000F0A3124E2FA3A3124E2A240F124E0A2431
:104CD00035F582EB1250C8F508F509F50AF50BEA2F
:104CE0002418124E121215ECEA241C124E18241D20
:104CF000124E26247F124E182473124E182468F583
:104D000082EB124B317480124BAAEA246E124E18B9
:104D100024EC124E1824ED124E1824EE124E1824D4
:104D2000EF124E1824F0124E2624F2124E2624F5CD
:104D3000124E182482124E1824D2124E1824D31266
:104D40004E1824D4124E121215ECEA24D8124E1228
:104D50001215ECEA24DE124E1824E0124E1824DC60
:104D6000124E1824E1124E1824E2124E1824F812A2
:104D70004E2624FA124E2624FC124E2624FEF582DC
:104D8000EB1248C5FE8E08EA2508F8EB125389128B
:104D90004B2C74FFF00EEEC3940440E97E008E822B
:104DA000A88274BF28F5827407124E80C0E0124EAC
:104DB0001D245D124B2ED0E0F00EEEC3940540DEB4
:104DC0007E008E82A882748D28F5827404124E8033
:104DD000C0E0124E1D24E4124B2ED0E0F00EEEC3C4
:104DE000940840DE9004A5E004F0640170198C8200
:104DF0008D83E09004A7F0800E0EEEC39403500361
:104E0000024C687A007B00024082124FD57401F098
:104E1000EA22124FD5780822124BB2EA22EA28F889
:104E2000EB3400F9E822124FD5E4F0A3F0EA22F0C7
:104E30008A828B83A3A3A3A3A322C082C083EA2474
:104E400003F582EB124E806008E4F09004A6E014B3
:104E5000F09004A5E014F070069004A774FFF08AA7
:104E6000828B83A3A3E4F09007C4E0700D9004A6A6
:104E7000E0640170057900120CE20240C3F582E99A
:104E8000124E8422124FDCE022C082C0837B00EBF2
:104E9000F875F005A4C8AAF02AF974A528F87404D6
:104EA000125094A3A3A3A3E4F088828983A3A3A3AD
:104EB000A3A3A3F00BEBC3940340D49004A5E4F0A8
:104EC000A3F0A374FFF075E1F10240C374F512176B
:104ED00064750800750900750A00A80A124F2C8E27
:104EE000828F83A3A3A3E0602BE5084509601D859D
:104EF0000882850983124F4312198A124F3F1215F7
:104F0000FB1221547404121723E97008EEF8EFF92C
:104F100088088909050AE50AC3940340BD8508820B
:104F2000850983A3A3A3A3E0F9024B27E875F00545
:104F3000A4C8AAF02AF974A928FE740439FF228EA5
:104F4000828F83E0F8A3E0F5838882A3A32274F71D
:104F500012176478FF79FF7F00EFFC75F005A4CC91
:104F6000AEF02EFD74A92CFC74043DFD8C828D8363
:104F7000A3A3A3E0603EEC2473F582ED124E80FE05
:104F800074FF68700374FF69700774016E701C8091
:104F90000D74016E700DEC2479124FC85016EC247C
:104FA00079800BEC242E124FC85009EC242EF58288
:104FB000ED1247160FEFC39403409EC3EA98EB9996
:104FC0004004E8FAE9FB801FF582ED124FD8C3E0F8
:104FD00098A3E09922F582EB124FDC223400F5838E
:104FE00022A2E092AF79007F0102183674F6121700
:104FF00064EAFEEBFFEE2463F508EF3400F5098068
:1050000016AA08AB09120B081212B29007C5E004E9
:10501000F09007C6E004F0850882850983125436B3
:1050200070DFEEFAEFFB120AB4EEFAEFFB120C108F
:1050300002482874F7121764EAFEEBFF8E828F8312
:10504000A3A3A3A3E0FA7B00120820EEFAEFFB1261
:105050000ACC120BF28090C082C0837B00EBF87503
:10506000F005A4C8AAF02AF974A928F8740412500B
:1050700094E06014E8246E124E7D600CE8246A12FD
:105080004E7D7004790180090BEBC3940340CE7907
:10509000000240C339F988828983A3A3A32274F64E
:1050A00012176478008808748D1250C0740412506E
:1050B000C808E8C3940840ED90048D7401024827A5
:1050C0002508F58222F582EF124BB52274F71217EC
:1050D0006474FC12170D851882851983E4F0A3F01F
:1050E000A3F0A3F0120B20E9851882851983F01232
:1050F0000B207401121758E9F0120B2074021217DA
:1051000058E9F08518828519831215FB740412176B
:1051100023024FE774F6121764EA240D12516AEC69
:105120002403F8ED3400F988088909EC2407F8ED28
:1051300012517412471A850882850983E0FAA3E0A8
:10514000FB1216828E828F83E8F0A3E912543C850D
:105150000882850983E0FAA3E0FB1216828B09EA34
:1051600045096003125180024828F8EB3400F9E841
:10517000FEE9FF223400F9E8FCE9FD8C828D8322F0
:105180008E828F83E02401F0A3E03400F02274F6D5
:10519000121764EA242EF582EB124E80FCA3E0FD88
:1051A000EA246F12516A780079FAECFAEDFB1216D4
:1051B000828E828F83E8F0A3E9F0780079FAECFA26
:1051C000EDFB1216828B09EA450960031251800239
:1051D000482874F0121764EAFEEBFF741012175897
:1051E00078081215DD120CA68A0C8B0D8C0E8D0F13
:1051F0009091A7780C121543909183780C1215A406
:10520000780C121973124F3F1215FB1221547404BB
:10521000121723E960030252BA8E828F83E02402C0
:10522000F8A3E0125389FAE9FB8A828B837808128B
:10523000155690918378081215DD8A828B83780841
:105240001215B7EE240BF582EF124B31C082C083EA
:105250008E828F83A3A3A3A3A3E02401F8A3E03449
:1052600000F9D083D082E0687003A3E0697004790C
:10527000018049EE2407F8EF3400F988828983120F
:105280005184EE24731252C17014EE24741252CA67
:105290007003A3E06D70078A828B83125184EE2421
:1052A0007F1252C17014EE24801252CA7003A3E020
:1052B0006D70078A828B8312518479007F080218EF
:1052C00036F582EF124E84640122FAEF3400FB8A35
:1052D000828B83E0FCA3E0FD88828983E06C2274EA
:1052E000F3121764E9FEECFFEA2462F582EB125236
:1052F000C4600302537D9061D0E0F508EA2482F592
:1053000082EB124E80F50C60047804800278007401
:1053100080C39508FC95E0FDEF28F8E4125389243A
:1053200002F8E93400F9EC98ED99A2D265D0334047
:1053300048740D121758E0F50AA3E0F50BE50C6070
:1053400015780A121977EFFCEEF9120B8674021227
:10535000172374042FFF74012FF5D98ED97800809C
:105360000C8808E50A1250C0E50B124613E8C39FEB
:1053700040EF75E195790080067907800279FF0298
:1053800049A28A0AEE250AF8EF3400F9E82274F7F8
:10539000121764A2AFE433F508C2AFEA2402F8EBB7
:1053A0003400F98A828B83E0FEA3E0FFEE4F600EAB
:1053B00088828983E0FAA3E0F5838A8280048A8266
:1053C0008B83ECF0A3EDF0888289831253E2F0E541
:1053D00008024FE18C828D83E8F0A3E9F08A828B8A
:1053E0008322ECF0A3EDF08C828D83E4F0A3227491
:1053F000F7121764EAFCEBFD7A007B00A2AFE433FE
:10540000FEC2AF8C828D831254366022E8FAE9FB2B
:105410008A828B8312471A1253D4E4F0A312543CAD
:10542000E849700A8C828D83A3A3E4F0A3F0EEA276
:10543000E092AF024FE7125445E84922F08C828D8A
:105440008312544522E0F8A3E0F922C082C0838091
:1054500003125479E9F874FF28190470F4ECFAED9A
:10546000FB0240C3C082C0838003125479E9F87400
:10547000FF28190470F40240C38C828D83E08A8275
:105480008B83F08C828D83A3AC82AD838A828B83E5
:10549000A3AA82AB832274F012176474FA12170D58
:1054A000890BECFEEDFF750A008A088B097808125B
:1054B00019BB000410E056D954F75411552955472B
:1054C000555F5582559A55AE55D8556056715688D8
:1054D00056A256E056C356EE557401650B600302A2
:1054E00056DB8E828F83E0F8C3940340030256DBC1
:1054F000E89012A40256D87402650B60030256DBD2
:105500008E828F83125E989012A5E8F0A3E902566E
:10551000D87401650B60030256DB12570D4003027D
:1055200056DBE8900DBF0256D87401650B6003028C
:1055300056DB8E828F83E0F8C3940540030256DB6E
:10554000E8900DC00256D87401650B60030256DB6B
:1055500012570D40030256DBE8900DC10256D87475
:1055600010650B60030256DB75081075090078089A
:105570001219777AC27B0D120F8E74021217230252
:1055800057017401650B60030256DB12570D40038F
:105590000256DBE8900DD20256D87401650B600309
:1055A0000256DB8E828F83E09012A80256D87404D4
:1055B000650B60030256DB8E828F83780C1215DD3B
:1055C00090918B780C1213E950030256DB900DD4A6
:1055D000780C1215EC025701E960030256DB120544
:1055E0001AE970051211628060900E67806E740770
:1055F000650B60030256DB75080675090078081212
:1056000019778E828F83A3AC82AD837402121758F0
:10561000AA82AB83120F9474021217237C007D00C0
:10562000851882851983AA82AB838E828F83E0F9E5
:105630001210FCE9F508C3940A40030256FE120555
:105640001AE9700CA9081211687950121336806E8D
:1056500074682508F582740E3400F583740180782F
:105660007401650B707512570D5070E8900DD38062
:10567000677401650B70648E828F83E0F8C3940AAF
:105680005059E89012A780507401650B704D8E82BE
:105690008F83E0F874F928C3940A503FE89012A968
:1056A00080367401650B7033900E66E0F88E828F41
:1056B00083E0900E66F0E87048E0640170431211D8
:1056C00056803E7401650B70128E828F83E0F8C3A2
:1056D00094045007E89012AAF08026750A188021D9
:1056E000C3EA9427EB940050157402650B700F8E7B
:1056F000828F83126288120400E9F50A8003750A1A
:1057000002A90A74061217237F080218368E828FA8
:1057100083E0F8C394022274F212176474DA121749
:105720000D890AECFEEDFF7420121758AC82AD8390
:1057300075839175823874061216207420121758DA
:10574000AC82AD831210FCE9F5087434121758E0EE
:10575000F50BE9C3940A400302587212113EE9F5B1
:10576000099012A4E06402700474018001E4F50C55
:10577000780C12197BAD0BAC09A908EEFAEFFB12FD
:10578000118C74011217237C147D007900740C12A3
:105790001758AA82AB83120FA675F006E508A4F588
:1057A0000B740C121758AC82AD837A107424250B3D
:1057B000F9121330E9703D7C1079FF740C12175800
:1057C000AA82AB8312100CE9702A741C121758AC11
:1057D00082AD837A047425250BF9121330740C12F0
:1057E0001758AC82AD83E509A2E0E433F9EEFAEF95
:1057F000FB120496851882851983AC82AD837A0CDE
:1058000074702508F9121330E970538518828519D0
:1058100083AA82AB83121132750800E50875F00384
:10582000A4F8A9F0851882851983E58228F8E58314
:10583000126095126282601D88828983A3A3E0F5BD
:105840000C750D00780C121977EEFAEFFB12072A8F
:1058500074021217230508E508C3940440BDE50946
:10586000A2E15046900DBEE0F9EEFAEFFB120730D0
:1058700080387408650B70329012A4E06402702ABC
:105880007C007D00A90AEEFAEFFB121186126B175D
:105890006018125E9D88828983E5824583600B7C57
:1058A000007900EEFAEFFB121762790074260262AB
:1058B0005E74F0121764EAFEEBFF8C088D09750A1E
:1058C0000AE9600C146009146037146079025960A9
:1058D00012114AE9F50AC3940A4003025960E50827
:1058E0004509607C750E06750F00780E121977EE6B
:1058F000FCEFFDAA08AB09120F8E74021217238069
:105900005F750B00750E06750F00780E121977EE95
:10591000FCEFFDE50B75F00EA4F8A9F074E028FA91
:10592000740D39FB120FA07402121723E9600C8565
:105930000B0AE50AC3940A50278016050BE50BC332
:10594000940A501C80BE121150E9F50AC3940A5003
:105950000FE50845096009AA08AB09A90A12114414
:10596000A90A02570874F412176489087509157496
:10597000FF6A700374FF6B70277E00AC087A027BAD
:1059800000EEF9121120E960037509000EEEC394D0
:105990000A40E8E50860537A7A7B1112091C804AB4
:1059A0001208FE8A0A8B0BAE0AAF0BEE4F60387CF2
:1059B000007D00EE2405FAEF3400FB8E828F83A376
:1059C000A3A3A3E0F91210FCE9C3940A500CAC089D
:1059D0007A027B00121120750900E508600CEEFACE
:1059E000EFFB12117A8003750914A9098005740E62
:1059F0001217237F0402183674F2121764ECFEEDBE
:105A0000FF750815740E121758E0F50AA3E0F50BA0
:105A100074FF6A700374FF6B7021750900AC0AADE6
:105A20000BEEFAEFFBA909121126E96003750800D5
:105A30000509E509C3940A503F80E21208FE8A82F4
:105A40008B83E5824583602D7C007D00E582240503
:105A5000FAE5833400FBA3A3A3A3E0F91210FCE949
:105A6000C3940A5013AC0AAD0BEEFAEFFB121126E9
:105A70007508008003750814A908026261C082C01D
:105A800083900DD8EAF0A3EBF0900DBEE0FC7D0012
:105A90007A267B00120400900DBEE0F91206AC02DB
:105AA000675774EC1217648A088B09E9FE741412A4
:105AB0001758780C1215DD7F00EE702E7808121939
:105AC0007790918B78101215DD780C79101214886C
:105AD000AA10AB11AC12AD131204A8740212172352
:105AE000E9FF60097901AA08AB091204A2EFF97F66
:105AF0000C02183674F012176474EC12170DEAFEDB
:105B0000EBFFEE240CF50EEF3400F50F8E828F8341
:105B1000A385820A85830BEE2403F508EF3400F594
:105B2000098E828F83A3A3E024FA7003025E3924D6
