:020000040000FA
:0600000002010A022018B3
:03002B0002228529
:03003B000222A6F8
:0300430002223066
:0300530002208EFA
:03005B000223106D
:03006B0002225618
:10008300021EC7E5C754F84401F5C77901220000F1
:100093000080FB120086B900030200F4E4791A78A9
:1000A30002B800028004F709D8FCE4791C7802B88E
:1000B30000028004F709D8FCE4900281787E790F6E
:1000C3008002F0A3D8FCD9FA9010FEAA82AB8390E9
:1000D300013A78EA79018015E493A3AC82AD838A6F
:1000E300828B83F0A3AA82AB838C828D83D8E9D9D8
:1000F300E775826C7583C5740312011C7582917553
:100103008300740012011C75D00075813F7518813E
:10011300751902759F00020096C09FF59FE473D086
:100123009F22D083D082C09FE493C0E0740193C028
:10013300E0740293F59F229703A903D3039D03FF62
:100143000000B4000028002800283075A000A0009B
:10015300A000A00000080008E001F000100010005B
:10016300100010001000100050005000500010004C
:100173001000D0070000000000000F000100050080
:10018300307507001000010081FF00000000FF022E
:1001930002023C910100002391022A9101000056C2
:1001A30011022691010000B202022A9101000057B8
:1001B30011023691010000C802FFFF0100FF200277
:1001C3003C910100002091022A9101000085110257
:1001D30030910000000000022891030000A503777E
:1001E3000B770B770B770B770B770B770B770B77FC
:1001F3000B770B770B770B770B8D0DAB0D870DFF04
:10020300FF01E803053F10020AFF00FEFF010B7C1C
:100213000CD78138F3102C02E2900A7C0CD781377B
:10022300120125CBBC03120125E1BC0312012510E9
:10023300BD0312012546BD031201255DBD03120155
:100243002594BD03120125E7BD03120125FEBD035D
:100253001201253EB60312012555B6031201258668
:10026300B603120125C1B603120125EBB603120131
:100273002515B7031201252CB70312012543B70334
:100283001201255AB70312012583B70312012596DC
:10029300B703120125ACB703120125D6B703120128
:1002A30025619C02120125659D02120125929D0282
:1002B300120125E89D021201250B9E021201251F42
:1002C3009E02120125219E02120125449E02120163
:1002D30025539F0212012517A002120125ECA0024B
:1002E3001201255DA102120125E9A102120125ECEB
:1002F300A10212012574A202120125AFA20212016A
:100303002516A3021201254DA302120125DBA30228
:1003130012012565A402120125B4A402120125C10C
:10032300A402120125C4A40212012524A50212016C
:10033300252FA502120125AEA502120125B1A502A2
:10034300120125C4A502120125C7A50212012556D3
:10035300A60212012570A60212012580A60212012F
:1003630025B0A602120125BDA602120125C0A602D0
:1003730012012541A7021201252FA802120125E12E
:10038300A802120125A8B302120125A5B402120185
:100393002527B50212012547B5021201258FB502A3
:1003A300120125E2B50212012546B602120125D338
:1003B300B6021201258DB7021201259CBA02120161
:1003C3002527BC021201254ABC021201256A9A03A1
:1003D300120125079C031201256B9C03120125CAF8
:1003E3009C03120125D89C03120125019D031201D0
:1003F3002587F202120125AFF202120125DDF20276
:1004030012012514F30212012572F302120125BD14
:10041300F30212012508F40212012548F402120125
:10042300258EF402120125BCF40212012579F5028E
:1004330012012583F50212012590F502120125C34D
:10044300F5021201258FF6021201259BF602120115
:1004530025B3F602120125BDF6021201253BF70270
:10046300120125B7C303120125C5C303120125DDFC
:10047300C303120125F5C3031201250DC4031201A1
:1004830025D9E40112012585E50112012500E601C4
:1004930012012521E7011201255DE701120125065D
:1004A300E801120125EDE80112012551EA011201CB
:1004B30025A8EA0112012529EB0112012519EC01F6
:1004C30012012566EC01120125ECEC011201251E37
:1004D300ED0112012532EF0112012574EF01120122
:1004E3002592EF0112012534F001120125FCF001E0
:1004F30012012509F301120125159E031201252B73
:100503009E03120125519E031201256D9F031201C3
:1005130025779F03120125ACA003120125A4A10393
:100523001201259989031201253D8A0312012570C1
:100533008A03120125BA8A031201257D8C03120155
:1005430025F2A5011201256BA6011201257BA60147
:1005530012012569A7011201258EA7011201259910
:10056300A70112012583A80112012539A90112014E
:100573002520AB01120125D9AC01120125B5AD012E
:1005830012012569AE01120125A6B10112012554FC
:10059300B201120125C3B30112012543B5011201B2
:1005A30025EAB50112012533B6011201256AB60108
:1005B30012012507B70112012592B7011201256F18
:1005C300B801120125C4B80112012523BA01120191
:1005D3002533BA0112012560BA01120125B7BA0108
:1005E30012012560BB0112012567BC0112012531EF
:1005F300BD0112012591BE01120125D4BE011201D4
:100603002579BF011201259FBF01120125ADC1014B
:10061300120125B2C101120125B7C301120125043C
:10062300C40112012577C401120125AAC4011201D4
:10063300254CC501120125F5C5011201252DC60161
:1006430012012530C60112012578C601120125BA0F
:10065300C60112012511C701120125FFAB031201C7
:100663002512AC0312012520AC0312012568AC034B
:100673001201257EAC03120125C5AC03120125D955
:10068300AD0312012566AE03120125B1AE031201BB
:10069300250824001201251824001201257B2400BB
:1006A300120125C0240012012576250012012551CF
:1006B30026001201257A2600120125AA260012011E
:1006C30025EA2800120125D12A00120125A92C00B0
:1006D300120125ED2D00120125543000120125626F
:1006E3003100120125B43200120125BE330012017C
:1006F300250034001201253834001201255A340034
:10070300120125BD34001201257F39001201251481
:100713003A00120125683A001201258F3A001201AE
:1007230025CD3A00120125EC3A00120125463B0083
:10073300120125463C00120125CB3C00120125B3D2
:10074300EC02120125BDEC0212012565ED02120136
:1007530025A8ED02120125C3ED0212012553EE0275
:100763001201257BEE02120125B3EE02120125EAE6
:10077300EE0212012513EF021201254DEF021201C1
:100783002562EF021201252FF00212012552F00219
:1007930012012574F00212012589F0021201250FBE
:1007A300F10212012549F102120125C1F1021201E0
:1007B300250AF20212012534F2021201255FF20228
:1007C3001201259CC0031201250080021201252E6F
:1007D3008002120125898102120125698202120118
:1007E300258882021201250583021201254883020E
:1007F300120125C384021201253285021201255DEF
:100803008702120125E18902120125928A0212014F
:1008130025888B02120125288C02120125268D02C0
:10082300120125B18D0212012515BE031201257E89
:10083300BE03120125D2BE0312012501BF0312011B
:100843002522BF031201251A8E03120125878E0369
:10085300120125CE8E03120125E68F03120125E234
:100863009003120125C5910312012526DF0212010F
:100873002568DF0212012541E0021201253BE10256
:100883001201251DE20212012586E202120125A2B0
:10089300E3021201250EE40212012511E402120102
:1008A300253AE402120125B4E40212012559E502B6
:1008B3001201256EE502120125B4E502120125CDD0
:1008C300E502120125D0E502120125AEA1031201B2
:1008D30025EAA10312012528A203120125F2A2038E
:1008E30012012561A3031201259CA303120125DA3A
:1008F300A3031201250AA40312012531A403120143
:10090300259FA403120125E1A403120125469101A9
:10091300120125099301120125D494011201251016
:1009230095011201253D9501120125FF9501120143
:10093300254696011201258A96011201259C9601EE
:10094300120125DC96011201250997011201255791
:100953009701120125919701120125B49701120104
:10096300250698011201259498011201256A99011F
:10097300120125549A01120125239C0112012524F9
:10098300A10112012573A101120125BAA1011201CE
:1009930025EDA301120125A7B10312012519B20305
:1009A3001201256FB203120125B3B203120125D33D
:1009B300B20312012520B30312012568B303120108
:1009C30025BBB3031201250CB403120125323D00EC
:1009D3001201257B3D00120125A83D00120125DBF4
:1009E3003D00120125EB3D00120125F73D001201E8
:1009F30025083E00120125EF3E001201254D3F0060
:100A0300120125823F00120125C54000120125175E
:100A13004100120125674100120125BA410012016C
:100A230025B942001201253444001201250B45006B
:100A33001201251B45001201253D450012012540E9
:100A430045001201250E4600120125DF4600120162
:100A530025AE470012012502480012012562480015
:100A6300120125C6480012012577490012012542CB
:100A73004A00120125E44A00120125594B001201D4
:100A830025C54B001201251A4C001201254B4C00C1
:100A9300120125E64C00120125CA4E001201251948
:100AA3004F001201255C4F00120125DE4F00120199
:100AB300257C5000120125C35000120125E7500088
:100AC3001201252E51001201255C5100120125A4AB
:100AD30051001201251E520012012562520012011B
:100AE300256F53001201251E54001201257F540067
:100AF300120125DB5400120125F45400120125755F
:100B0300BD02120125C8BD02120125D4BD02120186
:100B130025A9BE02120125D0BE021201250BBF0278
:100B230012012577BF02120125B3BF02120125EC82
:100B3300BF0212012504C00212012559C00212018D
:100B43002572C002120125BBC002120125CEC002CC
:100B5300120125E8C002120125FEC002120125314F
:100B6300C20212012578C3021201257AC4021201BE
:100B73002574C502120125FA7F00120125C3F7026D
:100B830012012532FB021201256BFC021201252200
:100B9300F30112012598F5011201259EF5011201B9
:100BA3002506F8011201256DFA01120125D08403EF
:100BB3001201256685031201251D860312012547AF
:100BC30086031201253A8803120125628903120163
:100BD30025B96B00120125ED6B00120125DA7500B2
:100BE3001201252E7700120125397800120125B94B
:100BF30079001201259A7A00120125D47A00120194
:100C030025F77A00120125397B00120125837B0029
:100C13001201258D7B00120125377C00120125105E
:100C23007D00120125647D00120125C67D0012019D
:100C330025197E00120125487E00120125857E00BC
:100C4300120125B6FC021201252CFD0212012542D8
:100C5300FD0212012583FD02120125BDFD021201D1
:100C63002536FE0212012571FE02120125E4FE0261
:100C730012012522FF021201252BFF021201253743
:100C8300FF0212012553FF021201257EFF0212010A
:100C930025AFFF02120125F4E50212012507E60242
:100CA30012012521E6021201254AE6021201258DD1
:100CB300E602120125CCE6021201250AE70212011F
:100CC300256FE70212012584E7021201259BE70243
:100CD300120125A9E702120125B8E702120125CD69
:100CE300E702120125E2E702120125EDE7021201F4
:100CF30025F9E70212012506E80212012519E80287
:100D030012012524E80212012549E802120125F007
:100D1300E80212012505E9021201251AE90212016E
:100D23002534E9021201254FE9021201256CE9027B
:100D330012012577E90212012533EA021201251F68
:100D4300EB0212012544EB021201254FEB021201C3
:100D53002564EB0212012578EB02120125D9EB027F
:100D6300120125DFEB02120125E5EB02120125EB4F
:100D7300EB0212012503EC0212012536EC021201EB
:100D83002552A90212012574A90212012554AA02AF
:100D93001201252BAD0212012557AE021201257B4C
:100DA300AF021201252DB002120125CEB0021201AD
:100DB30025378E02120125BB8E021201256A8F028E
:100DC300120125C99002120125EA9202120125D6C9
:100DD30093021201250B94021201252D9402120194
:100DE30025DC9402120125D49602120125FD9602F8
:100DF3001201258F9702120125C19702120125CEF8
:100E030097021201252598021201254B980212011F
:100E130025B89A02120125BB9B02120125139C02DD
:100E23001201256DD60112012577D7011201255E26
:100E3300D80112012568D8011201258AD8011201AF
:100E43002596D8011201252FDA011201255EDA0158
:100E53001201257ADB01120125D3DB0112012539A9
:100E6300DD0112012518DE0112012574DE011201D4
:100E730025E1DE011201251CDF011201255BDF01E3
:100E830012012514E2011201252EE201120125BAF5
:100E9300E201120125C8E20112012521E301120139
:100EA300252FE301120125A2E30112012506E40126
:100EB30012012550E401120125E8B7031201250DA3
:100EC300B8031201257FB803120125DAD7021201F4
:100ED30025E3D702120125ECD702120125C3D8025C
:100EE30012012574DA02120125AADA02120125E49D
:100EF300DA021201251ADB0212012554DB02120168
:100F03002588DB02120125B4DB02120125FDDB0279
:100F130012012537DC0212012580DC02120125D8DB
:100F2300DC021201250DDD0212012568DD0212012A
:100F330025A2DD02120125F3DD0212012529DE02BD
:100F430012012563DE0212012586DE02120125A6A7
:100F5300C403120125D2C4031201252DC5031201B6
:100F63002537C50312012547C5031201253FC702D3
:100F730012012549C70212012587C702120125D094
:100F8300C7021201250AC80212012564C802120110
:100F93002585C8021201255DCB0212012566CB020D
:100FA300120125B3CB02120125DCCB02120125E687
:100FB300CB0212012552CC02120125E4CC0212010C
:100FC300252ECD0212012564CD02120125F0CD029A
:100FD30012012531CE0212012568CE021201257AB3
:100FE300CE0212012599CE02120125A2CE021201D0
:100FF300256ACF02120125C0C2031201254DB40395
:1010030012012583B403120125B9B4031201250487
:10101300B60312012534C6031201254AC603120181
:101023002554C6031201258792031201259C9203BE
:101033001201254F93031201258F9303120125A853
:101043009303120125E39303120125309403120144
:1010530025629403120125A49403120125AF96037C
:101063001201259EC6031201252FBB031201255829
:10107300BB0312012587BB031201251FBC03120109
:101083002537BC0312012579BC0312012500800317
:10109300120125428003120125C48003120125D9C0
:1010A30080031201252A81031201256F8103120196
:1010B30025CA81031201251982031201256F8203B8
:1010C3001201256483031201255B84031201259811
:1010D3008403120125C5C5031201252655001201FB
:1010E30025A75700120125415900120125F5590082
:1010F300120125885A001201250D5B0012012532C9
:101103005B00120125845B00120125395F00120187
:1011130025BF5F00120125F260001201252C61003A
:101123001201256161001201251E6300120125527F
:101133006300120125AF6300120125F86300120159
:10114300255F6400120125D864001201250765009C
:101153001201251F6500120125686600120125781A
:101163006600120125966700120125B86700120177
:1011730025EE67001201259D69001201252A6A00E8
:10118300120125696A00120125826B00120125E311
:10119300C703120125FDC6031201253CC703120133
:1011A30025D0C7031201255D7F001201256D7F0045
:1011B300120125887F00120125F07F00120125F717
:1011C300FE011201257CFF01120125E2FF0112013C
:1011D30025B5C103120125DCC10312012532C20367
:1011E30012012582C20312012595A803120125AA23
:1011F300A803120125EEA9031201256AAA0312010D
:1012030025DEAA03120125F8AA031201250FAB0359
:1012130012012522AB031201253CAB031201255316
:10122300AB0312012579AB03120125CAAB031201EB
:1012330025BC9603120125D096031201254A970374
:101243001201252E9803120125059A03120125295F
:10125300A503120125B9A50312012545A603120111
:1012630025DEA6031201256FA70312012578A70324
:10127300120125F6A70312012509A8031201251F50
:10128300A8031201257FA80312012592A8031201C6
:101293002568BF03120125D8BF03120125E3BF034D
:1012A300120125F3BF03120125FEBF031201251A04
:1012B300C0031201258DB903120125DFB903120101
:1012C3002569BA03120125D0BA03120125DBAE0347
:1012D30012012505AF03120125D3AF03120125AE79
:1012E300B00312012535B10312012598CF02120173
:1012F300255FD00212012596D002120125C0D0022B
:1013030012012520D10212012576D102120125DB1B
:10131300D10212012573D20212012582D3021201D6
:101323002519D502120125A6D5021201250DD602D3
:1013330012012524D6021201253ED7021201257C73
:10134300D702120125FEC7011201251FC90112018F
:101353002534CA01120125A3CB01120125C8CC01F2
:10136300120125EBCD011201250ECE011201252C10
:10137300D2011201257ED2011201251CD3011201D3
:101383002553D401120125F8D4011201257AD50180
:1013930012012551C50312012559C5031201257CEC
:1013A300C70312012546C703120125A8C70312016B
:1013B30025DFFF02E066701008A3E066700A08A349
:1013C300E066700408A3E06622C3E7960809E7967F
:1013D3000809E7960809E79622C3E09608A3E09672
:1013E30008A3E09608A3E09622C008C3E096F50898
:1013F30008A3E096420808A3E096420808A3E096F3
:1014030045087001D3D00822080808EAC0E0EBC001
:10141300E086F0E7A4FA180986F0E7A42AFA180987
:1014230086F0E7A42AFA180986F0E7A42AFA1986AF
:10143300F0E7A4FBE5F02AFA190886F0E7A42BFBF2
:10144300E5F03AFA190886F0E7A42BFBE5F03AFA3F
:1014530018180986F0E7A4C5F02BFBE43AFA19083B
:10146300E7C5F0C6A426F6E5F03BFBE43AFA188696
:10147300F0E7A4F6E5F00826F6E43B08F6E43A08BC
:10148300F6D0E0FBD0E0FA22E4CFC0E0E4CEC0E047
:10149300E4CDC0E0E4CCC0E075F020C3E633F60849
:1014A300E633F608E633F608E633F6181818EC3395
:1014B300FCED33FDEE33FEEF33FFC3EC9709ED97FD
:1014C30009EE9709EF97191919400FFFEC97FC09DB
:1014D300ED97FD09EE97FE191906D5F0BEECF70955
:1014E300EDF709EEF709EFF7191919D0E0FCD0E091
:1014F300FDD0E0FED0E0FF226016080808C6C31343
:10150300C618C613C618C613C618C613C6D5E0EA4E
:10151300227009080808226016181818C6C333C6B3
:1015230008C633C608C633C608C633C6D5E0EA22A2
:10153300E627F60809E637F60809E637F60809E666
:1015430037F622E026F608A3E036F608A3E036F6DF
:1015530008A3E036F622E026F008A3E036F008A35D
:10156300E036F008A3E036F022C3E697F60809E672
:1015730097F60809E697F60809E697F622C3E09678
:10158300F008A3E096F008A3E096F008A3E096F035
:1015930022E657F60809E657F60809E657F608095A
:1015A300E657F622E056F608A3E056F608A3E056FF
:1015B300F608A3E056F622E056F008A3E056F0083A
:1015C300A3E056F008A3E056F022E066F608A3E095
:1015D30066F608A3E066F608A3E066F622E0F608DE
:1015E300A3E0F608A3E0F608A3E0F622E6F008A3DA
:1015F300E6F008A3E6F008A3E6F022E0FAA3E0FB96
:10160300A3E0FCA3E0FD22EAF0A3EBF0A3ECF0A33C
:10161300EDF022CAC0E0E6F0A308DAFAD0E0FA223D
:10162300CAC0E0E0A3C582CCC582C583CDC583F023
:10163300A3C582CCC582C583CDC583DAE6D0E0CA13
:1016430022C3E498F8E499F91216858026C3E49A34
:10165300FAE49BFBE920E7E9121685E498F8E4999C
:10166300F922C3E498F8E499F9121685E498F8E4AA
:1016730099F9C3E49AFAE49BFB22EB20E7CFE92034
:10168300E7E0B90010BB0008E88AF084F8AAF0226A
:10169300E4FBC8FA22EB70227B10C833C8C933C9F4
:1016A300335007C39AC3DBF280069A50012ADBEA60
:1016B300C833F4C8C933F4C9FA2275F008E4C8334F
:1016C300C8C933C933C99AC99B5004C92AC93BD570
:1016D300F0ECFBC833F4C8E4C9FA22600D08C6A2D3
:1016E300E713C618C613C6D5E0F322600C08C6C3B9
:1016F30013C618C613C6D5E0F422700422600D1871
:10170300C6C333C608C633C6D5E0F418222518105D
:10171300AF08F518400215198008F518400215198D
:10172300D2AF22C0D0251810AF08F5185002051902
:101733008008F51850020519D2AFD0D0222518F52C
:101743008210AF08F518400215198008F5184002F9
:101753001519D2AF851983222518F582E43519F5B9
:101763008322E4732518C582C0E0E51934FFC583DD
:10177300C0E0E518C3958224F810AF088583198566
:1017830082188008858319858218D2AFCEF0A3E52D
:1017930020F0A37808E608F0A3DEFAEFF0A3E581D2
:1017A30024FAF8E608F0A3E608F0A3E608F0A30895
:1017B30008E608F0A3E608F0A315811581D0E0FE42
:1017C300D0E0F8158115811581E8C0E0EEC0E02274
:1017D3002518C582C0E0E51934FFC583C0E0E518CC
:1017E300C3958224F910AF08858319858218800870
:1017F300858319858218D2AFCEF0A3E520F0A378B4
:1018030008E608F0A3DEFAEFF0A3E58124FBF8E68F
:1018130008F0A3E608F0A30808E608F0A3E608F03A
:10182300A315811581D0E0FED0E0F815811581E87C
:10183300C0E0EEC0E022851983851882E0A3FEE0B4
:10184300A3F5207808E0A3F608DFFAE0A3FFE0A3FE
:10185300C0E0E0A3C0E0E0A3C0E0E0A3C0E0E0A3F9
:10186300C0E010AF08858218858319800885821827
:10187300858319D2AFD083D0820201228519838553
:101883001882E0A3FEE0A3F5207808E0A3F608DFC2
:10189300FAE0A3FFE0A3C0E0E0A3C0E0E0A3C0E060
:1018A300E0A3C0E010AF08858218858319800885FE
:1018B3008218858319D2AFD083D08222C0D0251855
:1018C300C582C0E0E51934FFC583C0E0E518C395C0
:1018D3008224F310AF0885831985821880088583D5
:1018E30019858218D2AFC8F0A3E9F0A3EAF0A3EBFD
:1018F300F0A37908E709F0A3D8FAECF0A3EDF0A37D
:10190300EEF0A3EFF0A3D0E0F0A3D0E0F0A3D0E09B
:10191300F0A3E520F0A3E5F0F0A322851983851851
:1019230082E0C0E0A3E0F9A3E0FAA3E0FBA3780818
:10193300E0F608A3DFFAE0FCA3E0FDA3E0FEA3E0EA
:10194300FFA3E0C0E0A3E0C0E0A3E0F5D0A3E0F58F
:1019530020A3E0A3F5F010AF0885831985821880D2
:1019630008858319858218D2AFD082D083D0E0F85E
:10197300D0E03274048006740280027401C0E0F483
:1019830004121740D0E01216162274048004740265
:101993008000CCC0E0EDC0E0E518C39CCCAD19508D
:1019A300011D10AF068C188D1980068C188D19D265
:1019B300AF121623D0E0FDD0E0FC22D083D082E921
:1019C300C0E0E493A3C386F0C5F095F0F908E4936F
:1019D300A386F0C5F095F0700BE493A3C39940057B
:1019E300E9048002A3E475F002A42582F582E5F000
:1019F3003583F583D0E0F9E493A3C0E0E493C0E03A
:101A030022D083D082ECC0E0EDC0E0E493A3FCE4F9
:101A130093A3FDED4C600D121A50EC24FFFCED3442
:101A2300FFFD80EFE493A3FCE493A3FDED4C600D75
:101A3300121A8FEC24FFFCED34FFFD80EFD0E0FDA4
:101A4300D0E0FCE493A3C0E0E493C0E022C0E0C391
:101A5300E49396087401939618400FE49366700814
:101A630008740193661870007019A3A3C3E49396D6
:101A7300087401939618A3A3400DD0E0D0E0D0E002
:101A8300021A40A3A3A3A3A3A3D0E022C0E0C0F003
:101A930088F0E4936670080874019366187000A8D0
:101AA300F0A3A3700BD0F0D0E0D0E0D0E0021A4056
:071AB300A3A3D0F0D0E02254
:101ABC0074F51217D3EAFEEBFFEE2434F8EF340082
:101ACC00F988088909EE2435121BE8F8EE24371240
:101ADC001BE8F50AEC850AF0A4FCAAF0850AF0EDE7
:101AEC00A42AFDE82CF8E43DF97A257B0012168532
:101AFC00EA850882850983F074075AF87401B800E6
:101B0C00028004C333D8FCFBEA131313541FF8EE02
:101B1C0028F8EF3400F9E8245DF582E9121BEB5B41
:101B2C006003EA801CEE2436121BE8F5F0EA84A868
:101B3C00F0EE28F8EF3400F9E82438F582E9121BAE
:101B4C00EBF97F0402187F74F51217D3EAFEEBFF52
:101B5C00EE2434121BE8C0E0EE2435F582EF34009D
:101B6C00F583D0E0F08E828F83A3A3A3A3A3E0FA26
:101B7C00A3E0FB8E828F83A3A3A3A3A3A3A3E0FC68
:101B8C00A3E0FDECC39AF50AED9BF50BEE247FF573
:101B9C0008EF3400F509850882F583E06401702BA9
:101BAC00EE2480F582EF3400F583121991121BF1AB
:101BBC007402121726E960137CBF7D07EEFAEFFB67
:101BCC00120A8D850882850983E4F0AC0AAD0BEE10
:101BDC00FAEFFB121ABC12221C021B4EF582EF34D8
:101BEC0000F583E022C082C083851882851983E0CA
:101BFC00F8A3E0F9C3EA9CEB9D5010C3EC98ED9967
:101C0C00401BC3EA98EB995014800EC3EA98EB99E9
:101C1C004007C3EC98ED994004790180027900D01B
:101C2C0083D0822274ED1217D3900479E06408609B
:101C3C0005E06407702C9061C8E060269004A7E072
:101C4C00F874FF68601CE875F005A4C8AAF02AF9BE
:101C5C0074A928FE740439FF8E828F83A3A3A3E09A
:101C6C0070057900021DD0EE2468F510EF3400F5F4
:101C7C0011906060E0851082851183F0750AFB7508
:101C8C000B07750800750900E5D914F50EE5D95454
:101C9C0003F50F601CEE2482F50CEF3400F50D7487
:101CAC0003650F6058E50E6013EE2467121BE87095
:101CBC000B793DEEFAEFFB120AB780A69007F6E01F
:101CCC0064016026850C82850D83E06004780480B5
:101CDC00027800850E08E508C398FA95E0FB120916
:101CEC001F8A088B09EA45097006120D63021C6EE7
:101CFC00850C82850D83E070048A0A8B0B7800803A
:101D0C0016E5D9C0E08812E50A2512F582E50B34F8
:101D1C0000F583D0E0F008E8C3950E40E4850C8212
:101D2C00850D83E0602874FC250EF50E780A1219D7
:101D3C007AAC0EA90FEEFAEFFB120B7174021217AC
:101D4C0026E9700AAA08AB091212BB021CBD740367
:101D5C00650F6058850E0C750D00780C12197AAC55
:101D6C000AAD0BAA08AB09120B35740212172685A3
:101D7C001082851183E0F87480687005750C7F8083
:101D8C0002880CE50CF50A780A12197EE50FF50AA3
:101D9C00780A12197EA90EAC08AD099004A7E0FAD6
:101DAC007B001207C374021217268013900479E08B
:101DBC006408700BAC0AAD0BEEFAEFFB120BA11220
:101DCC000D6F79017F0C02187F74F31217D374FC1A
:101DDC00121710EAFEEBFF8908A2AFE433F509C233
:101DEC00AFEE2463F50AEF3400F50B8010AA0AABB2
:101DFC000B120AED1212BB9007C6E004F0850A82A2
:101E0C00850B83E0F8A3E0F9E849602FE82402FA97
:101E1C00E93400FBEA2402F50CEB3400F50D780CE8
:101E2C0012197A8A828B83E0FCA3E0F9EEFAEFFBBD
:101E3C00120AE17402121726E960B29007C6E0603C
:101E4C00579007C7E0F89007C6E0C398500C74028F
:101E5C00650870449007C8E0603E8E828F83A3A310
:101E6C00A3A3E0851882851983121EB4740212177D
:101E7C005BE8121EB49007C5E028F0740212175BE1
:101E8C00AC82AD83851882851983AA82AB837901D4
:101E9C001207CF9007C6E4F0E509A2E092AF7404F4
:101EAC001217267F0602187FF0A3E4F09007C6E015
:101EBC00F8220000851A87851BC622C0E074EF1239
:101ECC0018BFA2AFE433FEC2AF759B00906182E0F5
:101EDC00A2E05012E591A2E0500C7591FE740165E0
:101EEC001A7003121C30E0A2E55051E591A2E550A6
:101EFC004B7591DF900479E064076005E06408702D
:101F0C00237401651A703579019004A7E0FA75F015
:101F1C0005A4CAA8F028FB74A92AFA74043BFB1286
:101F2C001DD58018E0640D701390049BE004F064E0
:101F3C00287002E4F07A00E0F9120D75906182E0ED
:101F4C00A2E64003021FEEE591A2E64003021FEE5B
:101F5C007591BF900479E064057008120C73120C33
:101F6C007F8003120C79751A00120CE5E990047A43
:101F7C00F07900120CC71209F17A017B00900478F9
:101F8C00E0F9120FCD907803E0644270559007FA97
:101F9C00E014F0704DC2AF121FA600781DD0E0F611
:101FAC0018D0E0F6E59F540770057509FF8003759E
:101FBC00097FC4C0E0781CE6F50808E65509F50968
:101FCC00740B78081216EED0E02508F8906270E0D9
:101FDC00A2E740F8E8C333906272F0906270E0D2EE
:101FEC00E0F0906181E0A2E35009E5E9A2E350033F
:101FFC0075E9F7A3E0A2E75009E591A2E750037554
:10200C00917FEEA2E092AF7F0402191EC0E0C0D017
:10201C00C082C083906183E0A2E05009E5BFA2E0DA
:10202C00500375BFFEE0A2E15009E5BFA2E15003E9
:10203C0075BFFDE0A2E25009E5BFA2E2500375BFF7
:10204C00FBE0A2E35009E5BFA2E3500375BFF7E044
:10205C00A2E45009E5BFA2E4500375BFEFE0A2E58E
:10206C005009E5BFA2E5500375BFDFE0A2E65009B9
:10207C00E5BFA2E6500375BFBFD083D082D0D0D0CD
:10208C00E032C0E074F21218BFE5A7A2E4500FE5ED
:10209C00A1A2E4500953A7EF75A1EF1220E2E5A726
:1020AC00A2E5500CE5A1A2E5500653A7DF75A1DF10
:1020BC00E5A7A2E15009E5A1A2E1500375A1FDE558
:1020CC00A7A2E2500CE5A1A2E2500653A7FB75A112
:1020DC00FB7F0102191E74F81217D3751A019004B4
:1020EC0079E0640670077A007B00120C5BA2AFE407
:1020FC0033FED2AF90047FE0640170187A207B002D
:10210C00900478E0F912104B7A207B00900478E070
:10211C00F9120FD3906182E0D2E6F09007F7E060FD
:10212C002185C61B801690047EE064017008E5C60C
:10213C0054F84405F5C653BEFC121EC07401651A52
:10214C0060E4EEA2E092AF7F0102187F74F11217E7
:10215C00D38A088B098C0A8D0B9090A878081215DD
:10216C00A7740F12175B780C1215E09090A8780CDE
:10217C001215A77808790C1213CC9090E8501078AF
:10218C0008790C12156C78081213EC4014800E7838
:10219C000C790812156C780C1213EC500479018030
:1021AC000279007F0802187F74ED1217D38A088B0E
:1021BC00098C0A8D0B9090A878081215A77413122D
:1021CC00175B780C1215E09090A8780C1215A77874
:1021DC000C79081213CC40117808790C12156CAAE2
:1021EC0008AB09AC0AAD0B80227510007511007597
:1021FC0012007513017810790C12156C781079088F
:10220C00121533AA10AB11AC12AD137F0C02187F50
:10221C00C082C083E9906000F0D083D08222C2AF2C
:10222C0002000022C0E074F21218BFA2AFE433FE29
:10223C00D2AFC2C0E5D1A2E4500653D1EF12128B3B
:10224C00EEA2E092AF7F0102191EC0E074F21218E8
:10225C00BFA2AFE433FED2AFE589A2E04006E58928
:10226C00A2E150031211E3758900758900C2C5EE15
:10227C00A2E092AF7F0102191EC0E0C0D0E8C0E01E
:10228C00E9C0E0E5A8D2AFC2C7A2E7A2E792AFD0FF
:10229C00E0F9D0E0F8D0D0D0E032C0E0C0D0E8C057
:1022AC00E0E9C0E0C008C009C082C083A2AFE4333B
:1022BC00F9D2AF901052E0F8A3E0687008539AFB83
:1022CC00A374018026C2E9901052E0F50874012530
:1022DC0008F074D22508F582740F3400F583E0F50C
:1022EC00C1901052E0C394804002E4F0E9A2E09265
:1022FC00AFD083D082D009D008D0E0F9D0E0F8D0AC
:10230C00D0D0E032C0E074F11218BF74E61217108E
:10231C0075C0009010EAE0F8A3E0F9E82401FAE9AE
:10232C003400FB9010EAEAF0A3EBF0C3E89441E927
:10233C00941F50030223F59010EAE4F0A3F09010E0
:10234C00ECE064017002A3E060030223F59010EE50
:10235C00E0640170219011D2E064FE7003A3E0F4FC
:10236C0060149011D2E0FAA3E0FB1210999011D2F4
:10237C0074FEF0A304F0740112175B7425F0A3E44F
:10238C00F0740312175B7401F0741812175BE4F00D
:10239C00741912175BE4F08518828519837408F0A0
:1023AC00750801750900780812197A740212175B06
:1023BC00AC82AD83740612175BAA82AB83120F73C7
:1023CC00740212172690109AE0F9740112175BAC84
:1023DC0082AD837A007B001205597B007A01790368
:1023EC001210A59010EE7401F0741A1217267F02C9
:0323FC0002191EA5
:10240000FFFFFFFFFFFFFFFFC082C083E990118441
:10241000F0D083D08202012274F6121767E990038C
:1024200065F07CA57D037AFF7BFF12071B7A008A8B
:1024300008750900740278081216FD74662508F8FC
:1024400074033509122467A3F00AEAC3940340DF3A
:1024500079051206A9900365E0F91205CB7A337B62
:10246000071208D1023A63F98882898374FF122423
:1024700074E4F022F0A312390EA32274F412176749
:102480008A088B09EB54806030900365E0F9120FE5
:10249000B58A0A8B0BAE0AAF0BEE4F60138E828F9C
:1024A00083E064B070031206BBEEFAEFFB120FA3D9
:1024B000AA08E5096480FB80047A007B0002264CB0
:1024C00074F212176774FC121710EAFEEBFFEE4F5E
:1024D0006038740212175BEEF0A3EF1228D1ECF013
:1024E000A3ED1228D1AA82AB831205C5E9F50870C5
:1024F00071741212175B1234B5E50A450B60638ED6
:10250000828F8312256CEE4F700575080280537A16
:10251000067B001210098A0C8B0DA80CA90DE84946
:102520007005750813803B88828983E4122474EE59
:10253000F0A3EF123956E50AF0A3E50BF090037310
:102540001226449003736017E0FCA3E08003EAFCCA
:10255000EBFD8C828D8312264470F38C828D831266
:1025600033B8A9087404121726023B41A3A3A3A3FE
:10257000E0FEA3E0FF2274F2121767890AE975F002
:1025800045A4FEAFF0900372E4F090036812264475
:10259000602812100F790089087509007402780804
:1025A0001216FD74682508F58274033509F583E475
:1025B000F0A3F009E9C3940340DDEEFAEFFB12103B
:1025C000098A088B09EA45096075EEFCEFFD790080
:1025D000120F8B7D008D0C750D007402780C121695
:1025E000FD7468250CF87403350DF9E50AF5F0ED76
:1025F000A475F017A4FAABF0E5082AFAE5093BFB4D
:1026000088828983EAF0A3EBF07E00801BEE75F0F0
:1026100017A4FAABF088828983E02AFCA3E03B8C04
:1026200082F583E4F0A3F00EEEC3950A40DF0DEDD2
:10263000C3940340A0E50A900372F0790080027908
:1026400013023B41E0FAA3E0FBEA4B227F040218AD
:102650003974F41217677900EAA2E0501B75088BF1
:10266000750990780812197A7C047D007A867B11AE
:102670001206A3740212172680D2C082C083900370
:102680007312394849601C88828983A3A3E06A7069
:1026900003A3E06B8882898370E7A3A3A3A312310D
:1026A0005C80047A007B0002241174EE12176774B8
:1026B000FC121710EAFEEBFF851882851983E4F0FF
:1026C000A3F0EE24021233A3EE24051228BFEE2459
:1026D00004F50EEF122C9BE024FE603924FC6046CA
:1026E00024FE605224FE605E24FE70030227C42490
:1026F000FE700302283C24FE700302284B24FE7067
:102700000302285A24FC700302286924FE70030285
:1027100028780228B590038C7417F0A3E41228D906
:102720001202590228B5851882851983AC82AD83BF
:102730001206C1022885851882851983AC82AD8373
:102740001206C7022885850C08850D097402121728
:102750005BAC82AD8385088285098312315C1205EA
:10276000E98A0C8B0DAC0CAD0DEC4D6042E4F50C20
:10277000F50D780C12197A750C8C750D03780C1206
:10278000197A750C8D750D03780C12197A7408126C
:10279000175B121991791612315612070374081239
:1027A0001726E9F50C700B123152120271800F7569
:1027B0000C018508828509831228C71233B8850C5D
:1027C00008022888740212175BAC82AD83850C82E4
:1027D000850D8312315C1205E98A108B11AC10ADA6
:1027E00011EC4D6043850C82850D83A3A3121991D2
:1027F00075108C751103781012197A75108D75117A
:1028000003781012197A740812175B12199179164D
:102810001231561207037408121726E9F509700BD6
:10282000123152120277800F750901850C82850DD5
:10283000831228C71233B8850908804C8518828511
:102840001983AC82AD831206CD803A851882851932
:1028500083AC82AD831206D3802B851882851983C1
:10286000AC82AD831206D9801C851882851983AC91
:1028700082AD831206DF800D851882851983AC82B4
:10288000AD831206E5E9F508E50860298E828F839D
:10289000A3E06414601F850E82850F83E090038C93
:1028A0001228D1123C1090038D1233B8E508A31200
:1028B00028D9120253EEFAEFFB1206670232AAF58C
:1028C0000CEF3400F50D22123C1485188285198313
:1028D00022F085188285198322F07C8C7D03850A7D
:1028E00082850B83E0FAA3E0FB2274EE1217677473
:1028F000FC1217108A0A8B0B8C0E8D0FEA2405F53B
:1029000008EB3400F5097C157D0079007A8C7B0397
:10291000120F8BE5082402F50CE5091228C2851870
:1029200082851983858210858311781012197A8522
:102930000882850983A3A3A3A3122DE412197AE5C3
:10294000082405F510E5093400F511781012197AFC
:10295000850C82850D8312314612315C1205E374B9
:10296000061217268A108B11AE10AF11E50A240249
:10297000F50AE50B1233A6EE4F7003022AB3801757
:10298000740212175B12315C88828983EAF0A3EB30
:10299000F090038CE004F090038CE0C394054003B6
:1029A000022AB3E4F510F511781012197A75107532
:1029B000751103781012197A751076751103781055
:1029C00012197A740612175B1219917910EEFCEF46
:1029D000FD1231561207037408121726E9705E853E
:1029E0000882850983A3A3A3A3A3A3A3E0F890036C
:1029F00075E0687048122DE412197A7C767D03E543
:102A0000082408FAE5093400FB120F857402121736
:102A100026E960298E828F83A3A3A3A312315C9041
:102A2000038CE0F510740278101216FD748D2510D9
:102A3000F58274033511F583EAF0A3EBF07402120A
:102A4000175B858210858311781012197A7402122F
:102A5000175B121991850C82850D83123C25120596
:102A6000EF74041217268A108B11AE10AF11900369
:102A70008CE0F510751100740278101216FD748C3C
:102A80002510F874033511F988828983A31226442E
:102A90007003022977E82403F8E93400F9EE4F6067
:102AA000030229808882898374FFF0A3F090038C4D
:102AB000E004F090038CE0600A1231521202657952
:102AC00000800B8508828509831233AF790A0232B0
:102AD000AA74EA12176774FE1217108C128D13EA8B
:102AE0002405F50CEB123C2F1225707508007509B2
:102AF00000EA2402F510EB3400F5118518828519DF
:102B00008385820A85830B780A12197A850C82855F
:102B10000D83A3A3A3A3122CA512197AE50C2405F7
:102B2000F50AE50D1233A6780A12197A850C82850A
:102B30000D83123C231205E374061217268A0A8BB2
:102B40000BEA450B7003022C66EA2404F50EEB1227
:102B50002C9B1225708A828B83A3A3A3E0F9851096
:102B60008285118312315C1205D1E9F509600302F7
:102B70002C66E4F514F515781412197A7514757528
:102B80001503781412197A751476751503781412D2
:102B9000197A740612175B1219917913AC0AAD0BEE
:102BA00085108285118312315C1207037408121795
:102BB00026E9F5096003022C66900375E0F8E50844
:102BC0007009E0240290038DF0801790038DE0FCE3
:102BD000E82402FAE43400FBEA6C7001EB600302C3
:102BE0002C6A850882AA82122DDB9414122DD350F0
:102BF00075850E82850F83E0C0E0123012D0E0F0C0
:102C00000508850E82850F83A3E0C0E085080A745D
:102C10008E250AF58274033400F583D0E0F00508B0
:102C2000900375122CA512197A7C767D0385080A0B
:102C3000748E250AFA74033400FB120F73740212A7
:102C40001726900375E02508F50874FF6E7003746D
:102C5000FF6F6012EE24010EEF3400FFE508C3940D
:102C6000145003022AFBE5086013123038851082E5
:102C700085118312315C12026B79008014E50970B2
:102C80000375090A851282851383EEF0A3EFF0A97C
:102C90000974021217267F0E0218393400F50F85C9
:102CA0000E82F583221239652274EE12176774FEC4
:102CB0001217108C0E8D0FEA2405F50CEB1228C2AA
:102CC000750B0090038CE4F0F50AEA2402F508EB9A
:102CD0003400F509804990038CE0FA900375E0F820
:102CE000122DDB9417122DD3400D90038CE0F87455
:102CF00016C398900375F0122DE412197A7C767D34
:102D000003748D2AFA74033400FB120F73740212D9
:102D10001726900375E0F890038CE028F0050AE58B
:102D20000C2416F582E50D3400F583E0F8E50AC3BE
:102D3000984003022DBC90038CE0C39416507DE5AF
:102D40000AC333F8E433F9E50C28FEE50D39FF85B5
:102D50001882851983AC82AD838E828F8312315C99
:102D60001205E98A108B11AC10AD11EC4D70057590
:102D70000B018043E4F510F511781012197A7510E3
:102D800075751103781012197A751076751103781C
:102D90001012197A740612175B12199179168508A8
:102DA0008285098312315C1207037408121726E921
:102DB000F50B7003022CD61233AB80107C8C7D0394
:102DC00085088285098312315C12027DA90B740289
:102DD0000232ACE99400C365D03322EA28F8E43427
:102DE00000F9E822E0F51075110078102274EA125B
:102DF000176774FC1217108A0C8B0D8C128D13EA56
:102E00002405F50AEB1233A6750800750900E50ADA
:102E10002402F510E50B3400F511740212175B85DE
:102E2000820E85830F780E12197A850A82850B83AC
:102E3000A3A3A3A312391512197AE50A2405F50EE6
:102E4000E50B3400F50F780E12197A851082851182
:102E5000831232A41231561205E374061217268A21
:102E60000E8B0FAE0EAF0FE50C2402F50EE50D3400
:102E700000F50F80408882898374FFF005081230C6
:102E80001E74FFF00508900375E0F50C750D0078D1
:102E90000C12197A7C767D0385080C748E250CFA49
:102EA00074033400FB120F7374021217269003751B
:102EB000E02508F508EE4F60718E828F83A3A3A3EF
:102EC000E0F9850E82850F8312315C1205D1E9F598
:102ED00009EE24041228BFE97044E4F514F51578CE
:102EE0001412197A751475751503781412197A75F8
:102EF0001476751503781412197A740812175B1278
:102F000019917911EEFCEFFD850E82850F83123148
:102F10005C1207037408121726E9F5096027850C6F
:102F200082850D8312302E1233B8E5087003022F0C
:102F3000F8123038850E82850F8312315C120283BD
:102F4000790002300D850882AA82EA900375700923
:102F5000E0240490038DF08022E0F890038DE0F5EA
:102F600014E82404FCE43400FDEC65147001ED70F9
:102F7000C0122DDB9412122DD350B6850C82850D14
:102F800083E0C0E0123012D0E0F00508850C8285A5
:102F90000D83A3E0C0E012301ED0E012304A8582DB
:102FA0000C85830D780C12197A740412175B1219B0
:102FB00091851082851183123C251205EF7404124D
:102FC00017268A0C8B0DAE0CAF0D85080C748E2560
:102FD0000CF874033400F9EE4F7003022E75851857
:102FE00082851983E08882898312304AA3E0C0E099
:102FF00012301ED0E0022E83E509700375090A85A0
:103000000A82850B8312302E1233B8A90974040288
:103010002C93748E2AF58274033400F5832285087C
:103020000C748E250CF58274033400F58322123C57
:10303000148512828513832290038DE0F5F0E50854
:103040008490038CF07C8C7D0322F0050885188227
:103050008519832274EC12176774FE1217108A0800
:103060008B098C0E8D0FEA2405FEEB3400FF8518CA
:1030700082851983AC82AD838E828F8312315C127C
:1030800005E98A0A8B0BEE24181228BFEA450B705B
:103090000302312112328C50328518828519831235
:1030A000315C1206F78A108B11EA4511606E7912B5
:1030B000AC0AAD0B85088285098312315C851082CC
:1030C000851183121765E9F50A705BE4F50AF50BC3
:1030D000780A12197A8E828F83A3A3E0F50A780A00
:1030E00012197AEE24031233A3780A12197A8E8207
:1030F0008F8312314612315C1207097406121726AB
:10310000E9F50A7021850C82850D83E0701F850822
:103110008285098312315C1202898011750A0E8042
:1031200009750A018004E50A60031233AB850C823D
:10313000850D83E0600479008002A90A74021217E9
:10314000267F0C021839E0FCA3E0FD850882850982
:1031500083227C8C7D03850A82850B83E0FAA3E0C1
:10316000FB2274EE12176774FE1217108A088B097F
:103170008C0C8D0DEA2405FEEB3400FF750E0085E6
:103180001882851983AC82AD838E828F8312315C65
:103190001205E98A0A8B0BEA450B7003023278129A
:1031A000328C503585188285198312315C1206F7EE
:1031B0008A0E8B0FEA450F605E7912AC0AAD0B8563
:1031C000088285098312315C850E82850F83121770
:1031D00065E9F50E600302327B850882850983125A
:1031E00034B5AA0AFB1206EB8A108B11A810A9119C
:1031F000E849701E7AFF7BFF1206EB8A108B11A83C
:1032000010A911E849606C88828983E50AF0A3E57A
:103210000BF0750A008007750E0E805F050A90039B
:1032200072E0FAE50AC39A504AE50A75F017A4FA63
:10323000ABF088828983A3A3E02AFAA3E03BFB8A50
:10324000828B831232A4EC4D70D2750A17750B0075
:10325000780A12197AEEFCEFFD120F73740212173E
:1032600026EEFCEFFD85088285098312315C12028F
:103270008F8014750E098003750E01123C0C850CAD
:1032800082850D831233B8A90E022DCEE5082402E3
:10329000F508E5093400F5098A828B83A3A3A3E02E
:1032A000A2E522A3E0FCA3E0FD2274041217267F0E
:1032B0000A02183974EC1217678C108D11EA240574
:1032C000F50CEB1228C2750F00EA2402F50AEB1286
:1032D00033A6850A82F58312315C1206EB8A088BCD
:1032E00009EA45097003023398750E008071850C58
:1032F00082850D83E06401704F8E828F83A3A312B9
:1033000019918E828F83A3A3A3A3E0F512751300F6
:10331000781212197AEE2405F512EF3400F51378BD
:103320001212197A1231561207097406121726E979
:10333000F50F6014850C82850D83E4F0123C0C853A
:1033400010828511831233B87C177D007900EEFA64
:10335000EFFB120F8B8E828F83E4F0A3F0050E90AB
:103360000372E0F8E50EC398501FE50E75F017A440
:10337000F8A9F0850882850983A3A3123C39FCA330
:10338000E0FDEC4D60030232EE850882850983740E
:10339000FFF0A3F0E50F7006123156120295A90F47
:1033A000023141F50AEF3400F50B228E828F831231
:1033B0003C14850E82850F83E8F0A3E9F02274F6B1
:1033C0001217677C008C08750900740278081216C1
:1033D000FD1233F06A7003A3E06B7006E8FAE9FBB4
:1033E000800B0CECC3940340DC7A007B00023A6350
:1033F00074662508F874033509F988828983E02208
:1034000074F71217677F00EF75F003A4F8A9F0ECCA
:1034100028F8ED39F988828983E06A7003A3E06BAC
:103420007006E8FAE9FB800B0FEFC3940440D87AEA
:10343000007B007F0102183974F61217671206B577
:103440008A828B83E582458370067A007B00800741
:10345000A3A3A3A312315C023A6374F2121767E9C3
:10346000FE740E12175B1234B5741012175B12390A
:10347000308C828D83E064027036A3123C1AF50C06
:10348000A3E0F9A80C7402687003742969702175AF
:103490000C02750D00780C12197A780812197A78D6
:1034A0000A12197AEEF912072D74061217268002F5
:1034B0007901023B41E0F50AA3E0F50B2274E81222
:1034C000176774FB121710E9851882851983F08A33
:1034D000168B17ECFEEDFF751000741D12175B12B2
:1034E0003C10741D12175B1233B88E828F83A3A316
:1034F000A3E0A2E4502D741D12175B12315C12067A
:10350000F78A828B83E582458370030238FF790A4C
:10351000EEFCEFFDAA16AB17121765E9F510600374
:10352000023902741F12175B123930742112175BB3
:103530001234B5742312175BE0F50EA3E0F50F8E7D
:10354000828F83E0640260030238ADA3123C1085D1
:103550000882850983A3858212858313EE240612CF
:1035600028BF88828983E0FAA3E0F9EA2400F514F1
:10357000E439F5157814121A04010000280128A175
:10358000350700022866360328D33500299D370108
:1035900029C8370229693703299D3704294738ADDF
:1035A00038E50E450F60030238A8850C82850D832F
:1035B000123948FAE9FB8A828B83E0850A82850BFF
:1035C0008312395C12197A8A828B83A3E0FCA3E010
:1035D000023831E50E450F60030238A8850A82855E
:1035E0000B837401F0123938850882850983F07CD9
:1035F000007D008E828F83A3A3A3A3E02401FAA3FE
:10360000E03400FB1205E9EA4B60418A828B83E0DB
:103610002402F8850A82850B83E028F0EA2404F866
:10362000EB3400F988828983E08512828513831246
:10363000396E12395C12197A8A828B831232A3E5B1
:10364000082403FAE5093400FB023836850A82852E
:103650000B83E02404F07C047D007900AA12AB13F4
:10366000120F8B023902E50E450F60030238A812D3
:103670003938FEA3E0FF850A82850B837404F0EEDF
:10368000850882850983F0EF851282851383F074A3
:103690000312175BAC82AD83EEFAEFFB1205E98AE9
:1036A0000C8B0DEA450D700302374A8A828B83A387
:1036B000A312256C740112175B85820E85830F7827
:1036C0000E12197A740512175B1219917CFF7DFF97
:1036D0001205EF74041217268B0FEA450F7033851D
:1036E0000C82850D8312391512197A850C82850D8D
:1036F00083A31219917C027D007A2E7B91120379AB
:103700007404121726E9700A740112175B74FFF033
:10371000A3F08E828F83E064027039750C02750D00
:1037200000780C12197A8E828F831232A3E5082456
:1037300004FAE5093400FB120F7374021217268590
:103740000A82850B83E024028009740112175BEE64
:10375000F0A3EFF0740112175B123926F074011216
:10376000175BA312391E0238A2E50E450F60030253
:1037700038A8850C82850D831232A4AA16AB1712C5
:103780000721850A82850B837402F0EA8508828509
:103790000983F0851282851383EB0238A5E50E4577
:1037A0000F60030238A8123938F8A3E0F9850A82BD
:1037B000850B837402F0E8850882850983F0E9852A
:1037C00012828513830238A5850C82850D83123100
:1037D0005C120F6DEAFC8C82A882C3950EE4950FF3
:1037E000405FE8650E7002E50F70047C0080228562
:1037F0001882851983E0FAE50E2AFAE50F3400FBFA
:10380000C3EA98EB94005003E08005E50ECCC39C1E
:10381000FCEC850A82850B83F08C0A750B00780A14
:1038200012197A850C82850D83E0250EFCA3E03504
:103830000FFDAA08AB09120F737402121726023982
:1038400002751007023902E50E450F705B850C8288
:10385000850D83123C10850A82850B837407F088DE
:1038600082898312391E12390EE0851282851383F4
:10387000F0E82402FAE93400FB8A828B8312391EB5
:1038800012394D123926A312395612392AF0E8247A
:1038900005F8E93400F98882898312392AA312399C
:1038A0006EA3A3A3A3F0805A75100B8055741D124C
:1038B000175B12315C1206B58A828B83E5824583E1
:1038C000603D123C10880C890DE8450D6031780E82
:1038D00012197A780A12197A780812197A7406126B
:1038E000175BE0F9EEFCEFFDAA16AB17850C82859D
:1038F0000D831217657406121726E9F510800375FB
:10390000100EA91074051217267F10021839F088BE
:10391000828983A322E0F50E750F00780E22E085E0
:1039200008828509832212397522123975A3A322D0
:10393000E0F508A3E0F50922850C82850D83E0F807
:10394000A3E0F5838882E022123C14E822A3A3F0CE
:103950008A828B83A322122476A3A322F08A828BED
:103960008312396522E0F50A750B00780A221239B4
:103970000E12397522E0850882850983A3A322747B
:10398000EE12176774FE1217108A0A8B0BECFAED11
:10399000FB741412175BE0F510A3E0F51174161216
:1039A000175BE0FE741812175BE0F50EA3E0F50F4D
:1039B000851882851983AC82AD831205E98A0C8B48
:1039C0000DEA450D604985188285198312315C1214
:1039D00006B58A828B83E5824583602FA3A31239C3
:1039E00030E50845096024780E12197A781012190A
:1039F0007AEEF9AC0CAD0DAA0AAB0B8508828509ED
:103A00008312176574041217268006790E800279D6
:103A100001022DCE74F612176774FE121710740C83
:103A200012175B123948851882851983F0740112C8
:103A3000175BE9F0E4F508F509780812197A7508BA
:103A400002780812197A740412175B85820885833C
:103A500009780812197A12070974061217267402D7
:103A60001217267F0202183974F7121767EAFEEB65
:103A7000FF89087CA57D03120721EA5402600BA987
:103A800008EEFAEFFB1205DD80027901023433748F
:103A9000F612176774FF6A700374FF6B701B7B006C
:103AA000EB75F003A4F8A9F0EC28F8ED39122467BF
:103AB0000BEBC39404501480E71206F18A088B09BB
:103AC000A808A909E8496003122468809674F612D0
:103AD00017671206F18A828B83E58245836006A30D
:103AE000A3E0FA80027A007B00023A6374F21217B4
:103AF000678A088B09ECFEEDFF740E12175BE0F588
:103B00000A1206F18A0C8B0DA80CA90DE849702643
:103B1000EEFCEFFD7AFF7BFF1206F18A0C8B0DA8FD
:103B20000CA90DE84970047911801688828983E513
:103B300008F0A3E509F088828983A3A3E50AF07958
:103B4000007F0602183974EE121767EAFEEBFF8C4D
:103B5000088D09890C741412175B123C107416122C
:103B6000175B12315C750D00E8496003023C047478
:103B700002650C6003023BFF741212175B123C1AC1
:103B8000FCA3E0F9EC2400F50EE439F50FEAF4F8B3
:103B9000EBF4F9EC58F8E50F59F9E849705CE508E1
:103BA0002406F8ED3400F9880A890B8882F583121F
:103BB0003C251207218A108B11E50E65107004E573
:103BC0000F65116042780E12197A850A82850B837F
:103BD000123C251207277402121726E9F50D7027EB
:103BE000780E12197A850882850983A3A3123C23D3
:103BF0001207397402121726800D750D8080087522
:103C00000D0D8003750D0BA90D0232AF8E828F83CF
:103C1000123C1422E0F8A3E0F922123C14888289B5
:103C200083E022A3A3E0FCA3E0FDEEFAEFFB223445
:103C300000F50D850C82F58322E028FEA3E039FF14
:103C40008E828F83E02274F2121767EAFEEBFF89FF
:103C50000B7401650B600E7402650B706B790112B9
:103C600008EFE97063EEFAEFFB1206EB8A088B09A6
:103C7000EA45096048750A00800B7C177D007900D1
:103C8000120F8B050A900372E0F8E50AC3985022E0
:103C9000E50A75F017A4F8A9F0850882850983A3C1
:103CA000A3E028FAA3E039FB8A828B8312394849C2
:103CB00070C885088285098374FFF0A3F07CA57D18
:103CC00003EEFAEFFB12071B023B4174F212176777
:103CD0008A088B09ECFEEDFF740E12175B1234B5E7
:103CE000901184E0F4603D7A097B00120F9DEA4B4D
:103CF00060328A828B8374B1F0A3E412394FA3122D
:103D0000394DA3E508F0A3E509123D27EEF0A3EF36
:103D1000123D27A3A3E50AF0A3E50BF0901184E080
:103D2000F9120FA9023B41F08A828B83A3A3A3A3BC
:103D3000A322C082C0839061907404F0A37448F001
:103D4000A3E4F09061807440F09061BC7407F0903F
:103D500061877469F09061B67416F079001209F702
:103D600079021209FD902400E493F46006E493F9CB
:103D70001209D37905120D57024153C082C083E95D
:103D8000540FF9906185E0696012E5C6548044499A
:103D9000F5C6E59E547F644970F8E9F053C680E5A6
:103DA0009E547F70FA02415374F7121767E5A8FE1C
:103DB00053A87E1209DFC2BA539AFEC289759B00CE
:103DC000C2C21209E575A91175B9051209EBD2BA7B
:103DD000439A0174805E42A8025077C082C08390EB
:103DE0006181E4F0A3F0A3F002415375E9007591FD
:103DF0000075BF00020122C082C083906181E4F09F
:103E0000A374C0F0A3E480DFC082C08374F81217EB
:103E10001090047B1254C67003023EE790047BE0CE
:103E2000544060237908851882851983AA82AB8360
:103E3000120B0B851882851983AA82AB831207ABFC
:103E400090047BE054BFF0E054806010790C7A1B42
:103E50007B08120B0B90047BE0547FF0E0A2E05053
:103E60000F79001209F71207B190047BE054FEF0BD
:103E7000E05402600F79011209F71207B190047B38
:103E8000E054FDF0E05404600F79001209FD1207C0
:103E9000B790047BE054FBF0E05408600F79011206
:103EA00009FD1207B790047BE054F7F0E05410606E
:103EB0000F79021209FD1207B790047BE054EFF06E
:103EC000E05420600F79031209FD1207B790047BBC
:103ED000E054DFF0A3E05401600D120A091207BD9F
:103EE00090047CE054FEF07408121726024153C07F
:103EF00082C083E9600514602A804F90619A743310
:103F0000F0A37455F09061A0743AF09007F5E06466
:103F1000017009C29190047D7467802D90047D74B6
:103F200061802690619A743FF0A3745AF09061A06A
:103F3000747FF09007F5E064017009D29190047DE0
:103F40007471800590047D746AF0024153C082C090
:103F500083E9600B14600D14601714600C802090CE
:103F60002404801590240580109007F5E06401700A
:103F7000059024068003902407E493906186F00264
:103F8000415374EE12176774F41217108518828566
:103F90001983AC82AD837583907582E07404121628
:103FA0002390240493F460030240AC907808E0C3AB
:103FB0009402500302408C740412175BAC82AD83F0
:103FC0007583907582537408121623FC7EFF7FFF61
:103FD0008E0C7D008C8285820E800F74086D606D62
:103FE00074096D6068740A6D60638D0875090074EA
:103FF0000278081216FD1240B61215E0A909E50A6A
:10400000C9F88810741878081214FBE5104508FAEE
:10401000E9FBE50EC333F8E433F9740412175BE5EA
:104020008228F582E583391247A8C3E89AE99B40C4
:1040300008E8C39AF8E99B8006EAC398F8EB99F977
:10404000C3E89EE99F5006E8FEE9FF8D0C0DEDC325
:104050009413408774FF6E700374FF6F6024850CA7
:1040600008740278081216FD1240B61215E0851881
:1040700082851983E582250EF582E583124BC1E521
:1040800008F00CECC394045003023FCC7508017592
:104090000900780812197A740212175BAC82AD839A
:1040A0007A017B091211C57402121726740C1217BB
:1040B000267F0A02183974482508F5827478350974
:1040C000F583780822C082C083906186E0F890244E
:1040D00007E493687009902406E493906186F09059
:1040E00061AE7468F0A3746AF090624574FBF0A34B
:1040F00004F053F4FD43FE029007F57401F0906163
:10410000A0E0643A70047900800279011209F70294
:1041100041537F04021839C082C0839007D3E06402
:104120000170139007D9E0F87401686019E870060F
:10413000A3E0640160109007EAE06401700C90074E
:10414000F0E064017004790C800279008005E0F9E8
:1041500012221CD083D08202012212484E940622E1
:10416000E0C4333354C022C082C0839007DD74257D
:10417000F09007DB7401F0A3E4F07A01FB120CD39A
:104180001241B32416F582E8124BC1742DF0A374CA
:104190000AF09007DAE0640170169007D9E0701019
:1041A0007901120D33120D03120D2D7900120D3FFE
:1041B0000241539007C91245372274F612176774EB
:1041C000FA1217109007D2E064017008120A1590D5
:1041D00007D2E4F075E1F11241B32415F582E8123B
:1041E0004BC17401F09007D4E06401705390907952
:1041F000C082851882851983AC82AD83758390D087
:1042000082740612162375D90D9007CB12416044B3
:1042100003F5D97800880874CC1251507407124104
:104220005A40F278008808851882851983E5821241
:104230005150E58312415A40EC75E19579018002B5
:104240007900120CD99011A61242B074B3F0A37485
:104250000BF0A31242B01242B012440474B9F0A39E
:10426000740B1244199007CBE0F97ACC7B07120C3F
:10427000B59007DDE0F912221C7901120CDF909055
:10428000D41215FE120CF79091141215FE120CC1E7
:104290007900120D4B1241B32414F582E8124BC180
:1042A0007416F09004797405F0041217260248B8C9
:1042B00074ADF0A3740BF0A32274F412176789088D
:1042C000A808124FBC9007E2E0F97AE37B07120CD2
:1042D000B59007F0E0701A7900120D159007B8E05C
:1042E00070047900800279017AB97B07120CBB80D7
:1042F000057901120D1575E1F175D9239007E212C8
:1043000041604405F5D97800880A74E3250AF582EE
:10431000740712415A40F175D90075D90075D9005A
:1043200075D90075D90075D9007A0012541224226B
:1043300012476740F67A001254122426F582E912D9
:1043400048C00AEAC3940340EEEE242B1248BD7A1B
:1043500000125412242C12476D40F67A00125412A7
:10436000242E12476D40F67A001254122430124760
:104370006D40F67A00125412243212476D40F67ADC
:10438000008A0AEE250AF8EF124CD91247799405F3
:1043900040EFEE2437F582EF124F10541FF8EE2451
:1043A0002AF582EF124F10C43354E048F5D975E175
:1043B000959011A6747DF0A3740BF0A37483F0A301
:1043C000740B1243FB7489F0A3740B124419900709
:1043D000EFE0F912221C9090D41215FE120CF79007
:1043E00091141215FE120CC190600DE4F0790112C7
:1043F0000D4B9004797406F0024112F0A3124404AC
:1044000012440422124408227477F0A3740BF0A320
:104410007477F0A3740BF0A32212441D22F09011C4
:10442000B4124429A3124429221244087477F0A339
:10443000740BF02274EC1217679007E0124FD378D8
:10444000101215E09007F1E0FAF875F005A4C8AC79
:10445000F02CF974D728F582740439F583E0FEA3B3
:10446000E0FFEEC333FEEF33FF8E0CF50D750E004B
:10447000750F0085100885110985120A85130B90A8
:1044800090E4780812154678081219768510088588
:10449000110985120A85130B7808790C12153378E7
:1044A00010790C12148BE4F50EF50F7808790C12C4
:1044B000156C8A0C750D007403780C1216FD7808C3
:1044C000790C1215339090A878081215A7AA08AB9A
:1044D00009AC0AAD0B1221B474041217268A088B9A
:1044E00009A808A909C3EE98EF995006E82EF8E943
:1044F0003FF9E890600EF0E9A3F0EEA3F0EFA3F02F
:1045000090600D74C1F07F0C021839C082C0839096
:1045100007C912452B9007DD02414EC082C083902F
:1045200007E012452B9007EF02414E124537240653
:10453000F582E812495922E0F8A3E0C822020122DC
:1045400074F21217671246AAF50AEF124A3760048E
:10455000780480027800E8240EF8EAC39850030239
:10456000460775080C9007FBE4F0EE2476F582EF21
:10457000124F109007FCF07902EE2477FCEF340024
:10458000FD7AFD7B07120AF97902EE2479FCEF34FB
:1045900000FD120AF97902EE247BFCEF3400FD12D3
:1045A0000AF97902EE247DFCEF3400FD120AF9EEDF
:1045B00024741246C0120AF9850A82850B83E060D2
:1045C0001E7508FB750907780812197A7C0C7903A7
:1045D000EEFAEFFB120B6B740212172675081074BB
:1045E000012508F5D975D90378008009880A74FB7C
:1045F000250A12469FE8C3950840F175E1957904B4
:10460000120CFD7901800279007F0602183974F2DC
:104610001217671246AAF508EF3400F509850882DB
:10462000F583E06004780480027800E8240AF8EA60
:10463000C3984060750A089007FB7401F079057C07
:10464000BF7D077AFC7B07120AF9EE24801246C070
:10465000120AF9850882850983E0601E7508FB75DA
:104660000907780812197A7C087903EEFAEFFB1231
:104670000B6B7402121726750A0C1249368003124E
:104680004699E8C3950A40F775E1957904120CFD47
:10469000790180027900024609880874FB2508F533
:1046A000827407124F14F5D908221246AE22EAFE90
:1046B000EBFF9061D0E0F87480C398FAEE24822278
:1046C000FCEF3400FD8E828F83A3A3A3A3A3125417
:1046D000D58C828D83E028F0A3E039F07902227432
:1046E000F6121767EAFEEBFF9061D0E0707475D99F
:1046F0001875D90375D9037A008A08EE2508125473
:1047000017249B12478040F17A008A08EE25081290
:10471000541724A312476D40F17A008A08EE250849
:10472000125417249312478040F17A008A08EE252C
:1047300008125417248712476740F175E1957908EC
:10474000EE2493FAEF3400FB120AFF7904EE24877B
:10475000FAEF3400FB120AFF7904120CFD124789AC
:10476000800279000248B8124773940422124773FA
:10477000940222F582E912506CE0F5D90AEAC322CC
:1047800012477394082275E195EE246FF582EF12BB
:1047900050681254D5EE2471F582EF125068E8F09B
:1047A000A3E9F07901223400F5831254D52274F67E
:1047B000121767EAFEEBFF9007FB740612485812C7
:1047C000197A7C017903120B6B740212172675D9C2
:1047D0000675D903780012483E40FB75E1959004B8
:1047E00079E064087017EE246FF582EF1247A6EEA9
:1047F0002471F582EF124BC1E8F0A3E9F0790102D0
:1048000048B874F6121767EAFEEBFF9061D0E070CB
:10481000299007FB740A12485812197A7C0179030F
:10482000120B6B740212172675D90675D90378001E
:1048300012483E40FB12478680027900807A880841
:1048400074FB2508F582740712484E940522125015
:104850006CE0F5D908E8C322F07508FB7509077804
:10486000082274F6121767EAFEEBFF9061D0E07041
:104870004279019007FB740BF0900479E0640770B3
:10488000197508FB750907780812197A7C0109095E
:10489000120B6B74021217267905740129F5D9756C
:1048A000D90378008003124699E8C39940F812476B
:1048B00086800279008001F07F02021839F582EFCC
:1048C000124F14F5D92274F512176712496160046A
:1048D000780480027800E8240BF8EAC39840527507
:1048E0000A099007FB7408F0F9124942120AF98587
:1048F0000882850983E0601E7508FB750907780842
:1049000012197A7C097903EEFAEFFB120B6B740231
:10491000121726750A0D1249368003124699E8C30C
:10492000950A40F775E1957904120CFD12478980CC
:10493000027900024BB77401250AF5D975D90378BD
:104940000022EE24E4FCEF3400FD7AFC7B0722EE2B
:10495000241DF582EF1249592212506CE4F0A3F0A5
:10496000221246AEF8EF12496A223400F98808890B
:10497000098882F583E02274F31217678A088B098D
:10498000124ACDFAE5082482F50AEB124A37600490
:10499000780480027800E82408F8EAC398500302FB
:1049A0004A30750C069007FB740CF0900496E0906A
:1049B00007FCF07402C0E0F97C977D047AFD7B0768
:1049C000120AF9D0E0F97C997D04120AF9850A826D
:1049D000850B83E0601E750AFB750B07780A1219B8
:1049E0007A7C067903AA08AB09120B6B74021217C2
:1049F00026750C0A7401250CF5D975D90378008049
:104A000009880A74FB250A12469FE8C3950C40F1F9
:104A100075E1957904120CFDE508246FF582E5092E
:104A20001247A6E5082471F582E50912479B80022A
:104A300079007F050218393400F50B850A82F58369
:104A4000E02274F6121767EAFEEBFF124ACDFCEE85
:104A50002482F8EF124B5060047A0480027A00EA54
:104A60002404FAECC39A40607A029007FBEAF0EE65
:104A700024F6F582EF124AD7601B7508FB7509070B
:104A8000780812197A7C027903EEFA120B6B740221
:104A90001217267A0674012AF5D975D90378008091
:104AA00003124699E8C39A40F875E195EE24731213
:104AB0005155EE247F12515512494F7904120CFDC5
:104AC000EE240D12478C800279000248B89061D024
:104AD000E0F87480C39822124F149007FCF088828B
:104AE0008983E02274F6121767124ACDFEEA248207
:104AF000F8EB124B5060047C0480027C00EC240430
:104B0000FCEEC39C40457C029007FB7407F0EA244E
:104B1000F7F582EB124AD760177508FB750907781D
:104B20000812197A7903120B6B74021217267C068D
:104B300074012CF5D975D90378008003124699E8E1
:104B4000C39C40F875E1957901800279000248B86C
:104B50003400F988828983E02274F5121767E9FE30
:104B6000A2AFE433F50AC2AF7F00EA246EF8EB345B
:104B700000F980010F88828983E0F508EFC395086A
:104B800050188F08EA2508FCEB3400FDEC246AF588
:104B900082ED124F106E70DC8017EA2508FAEB34B4
:104BA00000FBEA246AF582EB124BC1EE124ADD04E7
:104BB000F0E50AA2E092AF7F03021839246AF58279
:104BC000E91250682274F6121767A2AFE433FFC2ED
:104BD000AFEA246EF8EB125204E014F07E00801964
:104BE0008E08EA2508F8EB125419246B124F0DC0F9
:104BF000E0E8124BBCD0E0F00E8C828D83E0F8EE42
:104C0000C39840DCEA246DF582EB124BC174FF12AD
:104C10004C3AEFA2E092AF0248B8C082C083E5A848
:104C2000F8C2AFEA246AF582EB124BC1E9124C3AA2
:104C3000E8A2E7A2E792AF024153F0EA2469124CDE
:104C40004222F582EB12506CE4F02274F2121767E4
:104C50008C828D83A3A3A3A3E0541FF0EA24361211
:104C600051FA8E828F83E4F0F50C850C8285820ADE
:104C7000EC250AF8ED12496AC0E0EA250AF8EB12C1
:104C80004CD9D0E0F0750D00850882850983E0F5E8
:104C90000A750B00E50D780A1216DEE50AA2E0504F
:104CA00023E50C33333354F8250DC0E08E828F8317
:104CB000E0F8124EAD2438124BBED0E0F08E828F59
:104CC00083E004F0050DE50DC3940840BB050CE539
:104CD0000CC3940540940246093400F9E8245DF5BC
:104CE00082E91250682274F41217679004A5E064F8
:104CF000037003024E937E00EEF875F005A4C8AA77
:104D0000F02AF974AB28F582740439F583E0600366
:104D1000024E8974A928FA740439FB8A828B83A312
:104D2000A3740112546CA3A3A3E4F0EA2404F8EBE7
:104D3000125419FCE9FDEE8C828D83F0EA24621294
:104D40004E9A2467F582EB124BC17401124EBFE4F8
:104D5000F0A3124EBFA3A3124EBA240F124E9A24F0
:104D600035F582EB125158F508F509F50AF50BEA0D
:104D70002418124EA21215EFEA241C124EA8241D6C
:104D8000124EB6247F124EA82473124EA82468F542
:104D900082EB124BC17480124C3AEA246E124EA878
:104DA00024EC124EA824ED124EA824EE124EA82494
:104DB000EF124EA824F0124EB624F2124EB624F58D
:104DC000124EA82482124EA824D2124EA824D31226
:104DD0004EA824D4124EA21215EFEA24D8124EA2E5
:104DE0001215EFEA24DE124EA824E0124EA824DCAD
:104DF000124EA824E1124EA824E2124EA824F81262
:104E00004EB624FA124EB624FC124EB624FEF5829B
:104E1000EB124955FE8E08EA2508F8EB12541912D8
:104E20004BBC74FFF00EEEC3940440E97E008E820A
:104E3000A88274BF28F5827407124F10C0E0124E8A
:104E4000AD245D124BBED0E0F00EEEC3940540DE03
:104E50007E008E82A882748D28F5827404124F1011
:104E6000C0E0124EAD24E4124BBED0E0F00EEEC313
:104E7000940840DE9004A5E004F0640170198C826F
:104E80008D83E09004A7F0800E0EEEC394035003D0
:104E9000024CF87A007B000241121250657401F056
:104EA000EA22125065780822124C42EA22EA28F8D7
:104EB000EB3400F9E822125065E4F0A3F0EA22F0A6
:104EC0008A828B83A3A3A3A3A322C082C083EA24E4
:104ED00003F582EB124F106008E4F09004A6E01492
:104EE000F09004A5E014F070069004A774FFF08A17
:104EF000828B83A3A3E4F09007C4E0700D9004A616
:104F0000E0640170057900120CC7024153F582E993
:104F1000124F142212506CE022C082C0837B00EB3F
:104F2000F875F005A4C8AAF02AF974A528F8740445
:104F3000125124A3A3A3A3E4F088828983A3A3A38B
:104F4000A3A3A3F00BEBC3940340D49004A5E4F017
:104F5000A3F0A374FFF075E1F102415374F5121749
:104F600067750800750900750A00A80A124FBC8E03
:104F7000828F83A3A3A3E0602BE5084509601D850C
:104F80000882850983124FD312198D124FCF121543
:104F9000FE1221587404121726E97008EEF8EFF992
:104FA00088088909050AE50AC3940340BD8508827B
:104FB000850983A3A3A3A3E0F9024BB7E875F00525
:104FC000A4C8AAF02AF974A928FE740439FF228E15
:104FD000828F83E0F8A3E0F5838882A3A32274F78D
:104FE00012176778FF79FF7F00EFFC75F005A4CCFE
:104FF000AEF02EFD74A92CFC74043DFD8C828D83D3
:10500000A3A3A3E0603EEC2473F582ED124F10FEE3
:1050100074FF68700374FF69700774016E701C8000
:105020000D74016E700DEC24791250585016EC245A
:1050300079800BEC242E1250585009EC242EF58266
:10504000ED1247A60FEFC39403409EC3EA98EB9975
:105050004004E8FAE9FB801FF582ED125068C3E0D6
:1050600098A3E09922F582EB12506C223400F5836C
:1050700022A2E092AF79007F0102183974F612176C
:1050800067EAFEEBFFEE2463F508EF3400F50980D4
:1050900016AA08AB09120AED1212BB9007C5E0046C
:1050A000F09007C6E004F08508828509831254C693
:1050B00070DFEEFAEFFB120A99EEFAEFFB120BF536
:1050C0000248B874F7121767EAFEEBFF8E828F83EF
:1050D000A3A3A3A3E0FA7B00120805EEFAEFFB12EC
:1050E0000AB1120BD78090C082C0837B00EBF875A9
:1050F000F005A4C8AAF02AF974A928F8740412517A
:1051000024E06014E8246E124F0D600CE8246A124B
:105110004F0D7004790180090BEBC3940340CE79E5
:105120000002415339F988828983A3A3A32274F62C
:1051300012176778008808748D1251507404125148
:105140005808E8C3940840ED90048D74010248B7F4
:105150002508F58222F582EF124C452274F71217CA
:105160006774FC121710851882851983E4F0A3F088
:10517000A3F0A3F0120B05E9851882851983F012BC
:105180000B05740112175BE9F0120B05740212177C
:105190005BE9F08518828519831215FE74041217D5
:1051A0002602507774F6121767EA240D1251FAECB2
:1051B0002403F8ED3400F988088909EC2407F8ED98
:1051C0001252041247AA850882850983E0FAA3E0F7
:1051D000FB1216858E828F83E8F0A3E91254CC85EA
:1051E0000882850983E0FAA3E0FB1216858B09EAA1
:1051F000450960031252100248B8F8EB3400F9E890
:10520000FEE9FF223400F9E8FCE9FD8C828D83225F
:105210008E828F83E02401F0A3E03400F02274F644
:10522000121767EA242EF582EB124F10FCA3E0FD63
:10523000EA246F1251FA780079FAECFAEDFB1216B3
:10524000858E828F83E8F0A3E9F0780079FAECFA92
:10525000EDFB1216858B09EA450960031252100214
:1052600048B874F0121767EAFEEBFF741012175B70
:1052700078081215E0120C8B8A0C8B0D8C0E8D0F9A
:1052800090911C780C1215469090A8780C1215A7D6
:10529000780C121976124FCF1215FE122158740491
:1052A000121726E9600302534A8E828F83E024029C
:1052B000F8A3E0125419FAE9FB8A828B837808126A
:1052C00015599090A878081215E08A828B83780887
:1052D0001215BAEE240BF582EF124BC1C082C083C7
:1052E0008E828F83A3A3A3A3A3E02401F8A3E034B9
:1052F00000F9D083D082E0687003A3E0697004797C
:10530000018049EE2407F8EF3400F988828983127E
:105310005214EE24731253517014EE247412535A23
:105320007003A3E06D70078A828B83125214EE24FF
:105330007F1253517014EE248012535A7003A3E06D
:105340006D70078A828B8312521479007F080218CD
:1053500039F582EF124F14640122FAEF3400FB8A10
:10536000828B83E0FCA3E0FD88828983E06C227459
:10537000F3121767E9FEECFFEA2462F582EB1253A1
:1053800054600302540D9061D0E0F508EA2482F5E0
:1053900082EB124F10F50C600478048002780074E0
:1053A00080C39508FC95E0FDEF28F8E41254192419
:1053B00002F8E93400F9EC98ED99A2D265D03340B7
:1053C00048740D12175BE0F50AA3E0F50BE50C60DD
:1053D00015780A12197AEFFCEEF9120B6B740212AF
:1053E000172674042FFF74012FF5D98ED978008009
:1053F0000C8808E50A125150E50B1246A3E8C39F3A
:1054000040EF75E195790080067907800279FF0207
:105410004A328A0AEE250AF8EF3400F9E82274F7D6
:10542000121767A2AFE433F508C2AFEA2402F8EB23
:105430003400F98A828B83E0FEA3E0FFEE4F600E1A
:1054400088828983E0FAA3E0F5838A8280048A82D5
:105450008B83ECF0A3EDF088828983125472F0E51F
:10546000080250718C828D83E8F0A3E9F08A828B68
:105470008322ECF0A3EDF08C828D83E4F0A3227400
:10548000F7121767EAFCEBFD7A007B00A2AFE4336A
:10549000FEC2AF8C828D831254C66022E8FAE9FB0B
:1054A0008A828B831247AA125464E4F0A31254CC6C
:1054B000E849700A8C828D83A3A3E4F0A3F0EEA2E6
:1054C000E092AF0250771254D5E84922F08C828DD9
:1054D000831254D522E0F8A3E0F922C082C0838071
:1054E00003125509E9F874FF28190470F4ECFAED79
:1054F000FB024153C082C0838003125509E9F8744E
:10550000FF28190470F40241538C828D83E08A8253
:105510008B83F08C828D83A3AC82AD838A828B8354
:10552000A3AA82AB832274F012176774FA121710C1
:10553000890BECFEEDFF750A008A088B09780812CA
:1055400019BE000410705769558755A155B955D734
:1055500055EF5512562A563E566856F056015718C2
:10556000573257705753577E567401650B600302CC
:10557000576B8E828F83E0F8C39403400302576B0E
:10558000E89011C80257687402650B600302576BFC
:105590008E828F83125F289011C9E8F0A3E9025729
:1055A000687401650B600302576B12579D4003023C
:1055B000576BE8900DBF0257687401650B600302DA
:1055C000576B8E828F83E0F8C39405400302576BBC
:1055D000E8900DC00257687401650B600302576BB9
:1055E00012579D400302576BE8900DC10257687433
:1055F00010650B600302576B750810750900780879
:1056000012197A7AC27B0D120F73740212172602D6
:1056100057917401650B600302576B12579D40034D
:1056200002576BE8900DD20257687401650B600356
:1056300002576B8E828F83E09011CC0257687404FE
:10564000650B600302576B8E828F83780C1215E016
:1056500090909C780C1213EC500302576B900DD471
:10566000780C1215EF025791E9600302576B12058F
:105670000BE9700512114D8060900E67806E740703
:10568000650B600302576B750806750900780812F0
:10569000197A8E828F83A3AC82AD83740212175B5A
:1056A000AA82AB83120F7974021217267C007D0048
:1056B000851882851983AA82AB838E828F83E0F955
:1056C0001210E7E9F508C3940A400302578E120549
:1056D0000BE9700CA908121153795012133F806E18
:1056E00074682508F582740E3400F583740180789F
:1056F0007401650B707512579D5070E8900DD38042
:10570000677401650B70648E828F83E0F8C3940A1E
:105710005059E89011CB80507401650B704D8E820A
:105720008F83E0F874F928C3940A503FE89011CDB4
:1057300080367401650B7033900E66E0F88E828FB0
:1057400083E0900E66F0E87048E064017043121147
:1057500041803E7401650B70128E828F83E0F8C326
:1057600094045007E89011CEF08026750A18802125
:10577000C3EA9427EB940050157402650B700F8EEA
:10578000828F831263181203F1E9F50A8003750A08
:1057900002A90A74061217267F080218398E828F12
:1057A00083E0F8C394022274F212176774DA1217B6
:1057B00010890AECFEEDFF742012175BAC82AD83FA
:1057C0007583907582857406121623742012175BF8
:1057D000AC82AD831210E7E9F508743412175BE070
:1057E000F50BE9C3940A4003025902121129E9F5A5
:1057F000099011C8E06402700474018001E4F50CA2
:10580000780C12197EAD0BAC09A908EEFAEFFB1269
:10581000117774011217267C147D007900740C1224
:10582000175BAA82AB83120F8B75F006E508A4F50F
:105830000B740C12175BAC82AD837A107424250BA9
:10584000F9121339E9703D7C1079FF740C12175B63
:10585000AA82AB83120FF1E9702A741C12175BAC99
:1058600082AD837A047425250BF9121339740C1256
:10587000175BAC82AD83E509A2E0E433F9EEFAEF01
:10588000FB120487851882851983AC82AD837A0C5C
:1058900074702508F9121339E97053851882851937
:1058A00083AA82AB8312111D750800E50875F00309
:1058B000A4F8A9F0851882851983E58228F8E58384
:1058C000126125126312601D88828983A3A3E0F50B
:1058D0000C750D00780C12197AEEFAEFFB12070F17
:1058E00074021217260508E508C3940440BDE509B3
:1058F000A2E15046900DBEE0F9EEFAEFFB1207155B
:1059000080387408650B70329011C8E06402702A08
:105910007C007D00A90AEEFAEFFB121171126BA751
:105920006018125F2D88828983E5824583600B7C35
:10593000007900EEFAEFFB12176579007426026217
:10594000EE74F0121767EAFEEBFF8C088D09750AFA
:105950000AE9600C1460091460371460790259F088
:10596000121135E9F50AC3940A40030259F0E5081B
:105970004509607C750E06750F00780E12197AEED7
:10598000FCEFFDAA08AB09120F73740212172680F0
:105990005F750B00750E06750F00780E12197AEE02
:1059A000FCEFFDE50B75F00EA4F8A9F074E028FA01
:1059B000740D39FB120F857402121726E9600C85ED
:1059C0000B0AE50AC3940A50278016050BE50BC3A2
:1059D000940A501C80BE12113BE9F50AC3940A5088
:1059E0000FE50845096009AA08AB09A90A12112F99
:1059F000A90A02579874F412176789087509157473
:105A0000FF6A700374FF6B70277E00AC087A027B1C
:105A100000EEF912110BE960037509000EEEC39454
:105A20000A40E8E50860537A657B11120901804A53
:105A30001208E38A0A8B0BAE0AAF0BEE4F60387C7C
:105A4000007D00EE2405FAEF3400FB8E828F83A3E5
:105A5000A3A3A3E0F91210E7E9C3940A500CAC0821
:105A60007A027B0012110B750900E508600CEEFA52
:105A7000EFFB1211658003750914A9098005740EE6
:105A80001217267F0402183974F2121767ECFEED24
:105A9000FF750815740E12175BE0F50AA3E0F50B0D
:105AA00074FF6A700374FF6B7021750900AC0AAD56
:105AB0000BEEFAEFFBA909121111E960037508005A
:105AC0000509E509C3940A503F80E21208E38A827F
:105AD0008B83E5824583602D7C007D00E582240573
:105AE000FAE5833400FBA3A3A3A3E0F91210E7E9CE
:105AF000C3940A5013AC0AAD0BEEFAEFFB1211116E
:105B00007508008003750814A9080262F1C082C0FC
:105B100083900DD8EAF0A3EBF0900DBEE0FC7D0081
:105B20007A267B001203F1900DBEE0F91206910275
