:020000040000FA
:0600000002010A0220D0FB
:03002B000225307B
:03003B000225514A
:030043000224DBB9
:0300530002214641
:03006B000225016A
:10008300021F7FE5C754F84401F5C7790122000038
:100093000080FB120086B900030200F4E4792178A2
:1000A30008B800028004F709D8FCE479297802B87B
:1000B30000028004F709D8FCE490028178527909A0
:1000C3008002F0A3D8FCD9FA900AD2AA82AB83901B
:1000D300013A785E79048015E493A3AC82AD838AF8
:1000E300828B83F0A3AA82AB838C828D83D8E9D9D8
:1000F300E77582977583A3740312011C758291754A
:100103008300740012011C75D00075813F7518813E
:10011300751902759F00020096C09FF59FE473D086
:100123009F22D083D082C09FE493C0E0740193C028
:10013300E0740293F59F22FF0000B400002800281A
:1001430000283075A000A000A000A000000800084F
:10015300E001F0001000100010001000100010006B
:1001630050005000500010001000D00700000000A5
:1001730000000F00010005003075070010000100AA
:1001830081FF00000000FF9506B3069B06FF0202F5
:100193000208025000A0000000E80302E6900100FC
:1001A30000D69002E490010000290B02DE900100CA
:1001B30000B30202E4900100002A0B020E9001003A
:1001C30000C90202E4900100002B0B02E29001003F
:1001D30000CB0202E4900100002C0B020291080004
:1001E30000CC0202E4900100002D0B02EE9001000E
:1001F300002E0BFF0100FF2002E690010000D390C8
:1002030002E490010000920B02EC90000000000059
:1002130002E0900300001903C50CC50CC50CC50C06
:10022300C50CC50CC50CC50CC50CC50CC50CC50C43
:10023300C50C9B0FB30F950FFFFF020202020202D0
:10024300020202010D000000100102E6900100000D
:10025300D99002E490010000D50B02049101000043
:100263005D0702E490010000D60B0200910100003B
:10027300AC8F02E490010000D70B02FE9001000056
:10028300838F02E490010000D80B02FC9001000070
:10029300BE8E02E490010000D90B02FA9001000027
:1002A300AC8E02E490010000DA0B02F8900100002A
:1002B300D08E02E490010000DB0B02F690010000F7
:1002C300F48E02E490010000DC0B02F490010000C4
:1002D300918F02E490010000DD0B02F29001000017
:1002E300DE0B01E803053F100AFF0001307503022E
:1002F30001060000000000000000000000000000F4
:100303000000000000000000000000000000FFFFEC
:100313000600800CE803140953696D706C65424C48
:10032300455065726970686572616C051208000852
:1003330000020A000201060302F0FF53696D706CAC
:100343006520424C45205065726970686572616C26
:100353003314000039140A4368617261637465726F
:100363006973746963203100024368617261637465
:10037300657269737469632032000843686172614E
:100383006374657269737469632033001043686131
:100393007261637465726973746963203400024324
:1003A300686172616374657269737469632035008F
:1003B3000A43686172616374657269737469632067
:1003C300360010436861726163746572697374699E
:1003D3006320370002E690010000D09002E4900110
:1003E3000000F10C0216910300009F0A02F0900135
:1003F3000000F20C02E490010000030D02189101C9
:100403000000A00A02F090010000040D02E4900134
:100413000000150D021A91020000A10A02F09001DA
:100423000000160D02E490010000270D0212910056
:100433000000A20A02E090030000A30A02F0900168
:100443000000280D02E490010000390D0210910410
:100453000000A90A02F0900100003A0D02E49001A5
:1004630000004B0D020E91030000AE0A02F0900152
:1004730000004C0D02E4900100005D0D02089100A4
:100483000000BD0A02E090030000CC0A02F09001D4
:1004930000005E0D1201258A9303120125A1930327
:1004A300120125D293031201250D9403120125375E
:1004B3009403120125619403120125789403120118
:1004C300258F9403120125A69403120125CF9403CB
:1004D300120125E29403120125F894031201250B5E
:1004E3009503120125329503120125019802120189
:1004F300250599021201253D9902120125609902F1
:100503001201256B99021201258E99021201259D74
:100513009A02120125729B02120125ED9B02120120
:1005230025759C02120125B09C02120125E79C024D
:10053300120125759D021201254E9E02120125AE60
:100543009E02120125B99E02120125389F02120153
:10055300253B9F021201253E9F02120125CD9F02DA
:10056300120125D09F0212012500A0021201252AA3
:10057300A00212012518A102120125CAA10212012B
:10058300252CE20212012554E20212012582E20225
:10059300120125B9E20212012517E30212012562B5
:1005A300E302120125ADE302120125EDE30212017C
:1005B3002533E40212012561E4021201251EE5023E
:1005C30012012528E50212012535E50212012568ED
:1005D300E50212012534E60212012540E60212016A
:1005E3002558E60212012562E602120125C8A0037E
:1005F300120125D6A003120125EEA0031201250640
:10060300A1031201251AB101120125C6B10112017C
:100613002541B20112012562B3011201259EB301E6
:1006230012012547B4011201252EB50112012592AD
:10063300B601120125E9B6011201256AB7011201BB
:10064300255AB801120125A7B8011201252DB901B8
:100653001201255FB90112012573BB01120125B5F2
:10066300BB01120125D3BB0112012556BC011201A6
:10067300252ABD01120125F2BD01120125E2D50291
:10068300120125B5D6021201255ED702120125B14A
:10069300D70212012561D802120125EDD8021201F9
:1006A30025D9D90212012508DA021201251BDB0222
:1006B30012012563DB0212012538DC0212012574C5
:1006C300DC0212012590DC021201254AA203120169
:1006D30025D8F802120125EEF80212012514F902B9
:1006E30012012530FA021201253AFA021201256F8E
:1006F300FB0212012567FC0212012505DD0212012E
:100703002535DE0212012568DE02120125B2DE0262
:1007130012012579E0021201252BA1011201259571
:10072300A101120125F4A20112012504A301120162
:100733002531A30112012588A30112012531A4014A
:1007430012012538A50112012502A6011201256215
:10075300A701120125A5A7011201254AA80112012B
:100763002597A801120125BDA801120125CBAA01D5
:10077300120125D0AA01120125D5AC0112012522AF
:10078300AD0112012595AD01120125C8AD0112017C
:10079300256AAE0112012513AF011201254BAF01EA
:1007A3001201254EAF0112012596AF01120125D684
:1007B300AF011201252DB001120125B589031201E4
:1007C30025CD8903120125158A031201252B8A03DE
:1007D300120125728A03120125868B031201251348
:1007E3008C031201255E8C03120125C4250012011E
:1007F30025D025001201250B2600120125502600C5
:10080300120125102700120125962700120125FB4E
:100813002700120125272800120125602800120154
:10082300259E2A00120125822C00120125682E0024
:10083300120125AB2F00120125F931001201250BFE
:1008430033001201255634001201256635001201CA
:1008530025833500120125BE3500120125E0350040
:10086300120125433600120125043B00120125998C
:100873003B00120125EA3B00120125113C00120145
:1008830025633C00120125813C00120125DB3C005D
:10089300120125C43D001201253A3F00120125BE75
:1008A3003F001201259AEB02120125A4EB0212016B
:1008B30025E7EB0212012502EC0212012592EC025C
:1008C300120125BAEC02120125F7EC021201252EC2
:1008D300ED0212012557ED02120125CCED021201A2
:1008E30025E1ED02120125F6ED0212012527EE02A4
:1008F3001201253BEE0212012560EE021201259A38
:10090300EE02120125C6EE0212012552EF02120178
:10091300257DEF02120125C6EF02120125F0EF0239
:100923001201251BF002120125A99C0312012500C7
:1009330080021201252E80021201257C8102120100
:10094300255C82021201257B8202120125F88202B4
:100953001201253B830212012591840212012552C3
:100963008502120125D987021201257A8802120114
:10097300257089021201256D8A02120125C78B0297
:10098300120125528C021201251A9A0312012583A2
:100993009A03120125D79A03120125FE9A03120125
:1009A300252F9B0312012543F002120125B0F0020B
:1009B300120125F7F0021201250FF2021201250B95
:1009C300F302120125EEF3021201257EB502120194
:1009D30025C0B50212012592B6021201256BB7029A
:1009E30012012565B80212012547B902120125B08B
:1009F300B90212012566BA02120125DABA021201FE
:100A03002546BB021201256FBB02120125E9BB0279
:100A130012012582BC02120125E7BC02120125FC4A
:100A2300BC0212012542BD021201255BBD02120167
:100A330025C0BD02120125C3BD02120125BC8603D8
:100A4300120125E48603120125228703120125E002
:100A530087031201254788031201256388031201C6
:100A6300258B8803120125BB8803120125CA88033D
:100A73001201254789031201256D890312012523DC
:100A83009101120125C19201120125DC9401120189
:100A9300251895011201254595011201252A960174
:100AA300120125719601120125B59601120125C780
:100AB30096011201250797011201253497011201AE
:100AC300257F9701120125BF9701120125ED97019B
:100AD3001201253F9801120125CF98011201256DBE
:100AE3009B01120125839D01120125C19D01120164
:100AF30025529F01120125979F011201250EA00186
:100B030012012558A00112012500A101120125059A
:100B1300AC0212012584AC0212012546B202120175
:100B23002555B302120125BDB40212012554B502A5
:100B3300120125BB5500120125045600120125316F
:100B43005600120125645600120125715600120148
:100B5300257D56001201258F560012012576570078
:100B6300120125D457001201250958001201254C02
:100B73005900120125995900120125BD590012018E
:100B8300252A5A00120125E85A00120125A15B000B
:100B93001201250E5C00120125C05C00120125D054
:100BA3005C00120125575D00120125165E0012013B
:100BB30025435E00120125BC5E00120125195F006A
:100BC300120125635F00120125F95F00120125C49C
:100BD3006000120125796100120125EE6100120106
:100BE300254F6200120125B96200120125F262004D
:100BF300120125946300120125A46400120125E467
:100C0300640012012501650012012520650012010F
:100C1300256765001201258C6500120125B9650061
:100C2300120125336600120125746600120125980E
:100C330067001201254868001201259F6800120110
:100C4300250969001201252269001201253BA20230
:100C53001201258EA2021201259AA2021201256F0A
:100C6300A30212012596A302120125D1A3021201A8
:100C7300253DA40212012579A402120125B2A40282
:100C8300120125CAA4021201251FA502120125384B
:100C9300A50212012581A50212012594A5021201C4
:100CA30025AEA502120125C4A502120125F7A6024D
:100CB3001201253EA80212012540A9021201253A7C
:100CC300AA02120125FA7F00120125A5EA011201E9
:100CD30025D5EA011201259DEE01120125F4EF014C
:100CE300120125BDF0011201253DF2011201250E6D
:100CF300F3011201254BF3011201256EF3011201D9
:100D030025ACF301120125B5F301120125FFF3010F
:100D130012012509F401120125B3F4011201258CF6
:100D2300F501120125E0F50112012542F601120138
:100D33002595F601120125C4F60112012501F701DB
:100D4300120125546900120125BB6C00120125C153
:100D53006C00120125437200120125BC76001201BA
:100D630025927A001201256A8303120125E0830389
:100D7300120125F68303120125378403120125711D
:100D83008403120125EA8403120125258503120138
:100D930025988503120125D68503120125DF8503D6
:100DA300120125EB85031201250786031201253263
:100DB30086031201254886031201258C860312013E
:100DC30025E17A00120125F47A001201250E7B0039
:100DD300120125377B001201257A7B00120125B908
:100DE3007B00120125F77B001201255C7C001201B8
:100DF30025717C001201257C7C00120125897C0071
:100E0300120125A07C00120125AE7C00120125B938
:100E13007C00120125C57C00120125D87C0012013B
:100E230025E37C00120125067D00120125AD7D001E
:100E3300120125BD7D00120125D77D00120125F485
:100E43007D00120125107E00120125357E0012015E
:100E530025407E00120125557E00120125697E0082
:100E6300120125CA7E00120125D07E00120125D66B
:100E73007E00120125DC7E00120125F47E001201A2
:100E830025277F001201257CCE0112012500CF0109
:100E9300120125AFCF011201250ED1011201252F19
:100EA300D3011201251BD40112012550D4011201D3
:100EB3002572D40112012521D50112012519D7016B
:100EC30012012542D701120125D4D70112012506AB
:100ED300D80112012513D8011201256AD801120184
:100EE3002590D801120125FDDA0112012500DC014C
:100EF30012012558DC011201250BC0011201251531
:100F0300C101120125FCC10112012506C201120112
:100F13002528C20112012534C201120125CDC301C6
:100F2300120125FCC30112012518C5011201257107
:100F3300C501120125D7C601120125B6C701120149
:100F43002512C8011201257FC801120125BAC80163
:100F5300120125F9C801120125B2CB01120125CCDA
:100F6300CB0112012558CC0112012566CC011201D7
:100F730025BFCC01120125CDCC0112012540CD01A5
:100F8300120125A4CD01120125EECD01120125D3B5
:100F93008C02120125F58C021201251B8F0212010E
:100FA30025309202120125489302120125FB930278
:100FB300120125DD940212012544950312012569CE
:100FC3009503120125DB9503120125DCF7011201BC
:100FD30025E5F701120125EEF701120125C5F801F8
:100FE30012012576FA01120125ACFA01120125E658
:100FF300FA011201251CFB0112012556FB01120106
:10100300258AFB01120125B6FB01120125FFFB0115
:1010130012012539FC0112012582FC01120125DA96
:10102300FC011201250FFD011201256AFD011201C8
:1010330025A4FD01120125F5FD011201252BFE0159
:1010430012012565FE0112012593FE01120125B649
:10105300FE011201259FA103120125CBA103120159
:101063002526A20312012530A20312012540A20363
:10107300120125E7BD02120125F1BD021201252F40
:10108300BE0212012578BE02120125B2BE02120170
:10109300250CBF021201252DBF0212012505C20234
:1010A3001201250EC2021201255BC2021201258420
:1010B300C2021201258EC202120125FAC2021201D6
:1010C300258CC302120125D6C3021201250CC402CA
:1010D30012012598C402120125D9C4021201251058
:1010E300C50212012522C50212012541C5021201C2
:1010F300254AC50212012512C602120125D19F03FA
:10110300120125999103120125CF9103120125059F
:101113009203120125509303120125CEA20312015B
:1011230025E4A203120125EEA20312012538A3032D
:10113300120125B0F402120125C5F402120125782B
:10114300F502120125B8F502120125D1F5021201AB
:10115300250CF60212012559F6021201258BF6021F
:10116300120125CDF6021201258B9803120125B435
:101173009803120125E398031201257B99031201B9
:1011830025939903120125D59903120125888C0310
:10119300120125AD8C03120125D78C03120125A45E
:1011A3007F001201252540001201258A4200120109
:1011B300252B4400120125DF44001201257245004E
:1011C300120125F745001201251C46001201257264
:1011D3004900120125F849001201252B4B00120189
:1011E30025654B001201259A4B001201255A4D002B
:1011F300120125B74D00120125004E001201256B87
:101203004E00120125DC4E001201250E4F00120183
:1012130025264F001201256F50001201257F500033
:101223001201259A5100120125BC5100120125F229
:101233005100120125A65300120125335400120157
:1012430025725400120125965500120125EEFF0167
:10125300120125EAA30312012529A403120125BDC6
:10126300A40312012556FF0112012566FF01120195
:10127300257EFF01120125E4FF01120125CD9E0306
:10128300120125529F03120125B89F03120125C2A3
:101293009D03120125E99D031201253F9E031201BF
:1012A300258F9E031201250080031201251580035B
:1012B300120125598103120125D581031201254904
:1012C30082031201256382031201257A820312012C
:1012D300258D8203120125A78203120125BE8203F5
:1012E300120125E48203120125358303120125D05F
:1012F300A40312012571FC0212012501FD02120152
:10130300258DFD0212012526FE02120125B7FE02DC
:10131300120125C0FE021201253EFF0212012551D2
:10132300FF0212012567FF02120125C7FF02120106
:1013330025DAFF02120125759B03120125E59B03A4
:10134300120125F09B03120125009C031201250BBA
:101353009C03120125279C03120125E99603120120
:10136300253B9703120125C597031201252C9803EA
:10137300120125548F031201257E8F031201254C80
:10138300900312012527910312012540C602120181
:101393002507C7021201253EC70212012568C702AD
:1013A300120125C8C7021201251EC8021201258396
:1013B300C8021201251BC9021201252ACA02120101
:1013C30025C1CB021201254ECC02120125B5CC0258
:1013D300120125CCCC02120125E6CD0212012524EF
:1013E300CE02120125A6DC0112012527E00112011C
:1013F30025AFE10112012506E20112012525E201D3
:10140300120125A3E20112012539E4011201251E6F
:10141300E5011201252CE90112012502EA0112015D
:101423002582CE021201255ED10212012515D202B8
:10143300120125E0D20212012509D4021201250D61
:10144300D5021201258FD502120125E9E602120108
:101453002539E70212012556E7021201257EE8022B
:10146300120125F7E802120125CFE90212012561D5
:10147300EB0212012569A40312012533A40312010F
:101483002595A403120125DDFF02E066701008A371
:10149300E066700A08A3E066700408A3E06622C34E
:1014A300E7960809E7960809E7960809E79622C32D
:1014B300E09608A3E09608A3E09608A3E09622C06E
:1014C30008C3E096F50808A3E096420808A3E0964F
:1014D300420808A3E09645087001D3D00822080803
:1014E30008EAC0E0EBC0E086F0E7A4FA180986F04A
:1014F300E7A42AFA180986F0E7A42AFA180986F05D
:10150300E7A42AFA1986F0E7A4FBE5F02AFA1908FA
:1015130086F0E7A42BFBE5F03AFA190886F0E7A476
:101523002BFBE5F03AFA18180986F0E7A4C5F02B6F
:10153300FBE43AFA1908E7C5F0C6A426F6E5F03B42
:10154300FBE43AFA1886F0E7A4F6E5F00826F6E499
:101553003B08F6E43A08F6D0E0FBD0E0FA22E4CF09
:10156300C0E0E4CEC0E0E4CDC0E0E4CCC0E075F080
:1015730020C3E633F608E633F608E633F608E63327
:10158300F6181818EC33FCED33FDEE33FEEF33FFA2
:10159300C3EC9709ED9709EE9709EF9719191940CD
:1015A3000FFFEC97FC09ED97FD09EE97FE1919065D
:1015B300D5F0BEECF709EDF709EEF709EFF71919C6
:1015C30019D0E0FCD0E0FDD0E0FED0E0FF226016B1
:1015D300080808C6C313C618C613C618C613C61808
:1015E300C613C6D5E0EA2270090808082260161857
:1015F3001818C6C333C608C633C608C633C608C6DA
:1016030033C6D5E0EA22E627F60809E637F60809E5
:10161300E637F60809E637F622E026F608A3E036B1
:10162300F608A3E036F608A3E036F622E026F00833
:10163300A3E036F008A3E036F008A3E036F022C3B7
:10164300E697F60809E697F60809E697F60809E625
:1016530097F622C3E096F008A3E096F008A3E0967D
:10166300F008A3E096F022E056F608A3E056F60849
:10167300A3E056F608A3E056F622E056F008A3E0EE
:1016830056F008A3E056F008A3E056F022E0F6086F
:10169300A3E0F608A3E0F608A3E0F622E6F008A329
:1016A300E6F008A3E6F008A3E6F022E0FAA3E0FBE5
:1016B300A3E0FCA3E0FD22EAF0A3EBF0A3ECF0A38C
:1016C300EDF022CAC0E0E6F0A308DAFAD0E0FA228D
:1016D300CAC0E0E0A3C582CCC582C583CDC583F073
:1016E300A3C582CCC582C583CDC583DAE6D0E0CA63
:1016F30022C3E498F8E499F91217358026C3E49AD3
:10170300FAE49BFBE920E7E9121735E498F8E4993A
:10171300F922C3E498F8E499F9121735E498F8E448
:1017230099F9C3E49AFAE49BFB22EB20E7CFE92083
:10173300E7E0B90010BB0008E88AF084F8AAF022B9
:10174300E4FBC8FA22EB70227B10C833C8C933C943
:10175300335007C39AC3DBF280069A50012ADBEAAF
:10176300C833F4C8C933F4C9FA2275F008E4C8339E
:10177300C8C933C933C99AC99B5004C92AC93BD5BF
:10178300F0ECFBC833F4C8E4C9FA22600D08C6A222
:10179300E713C618C613C6D5E0F322600C08C6C308
:1017A30013C618C613C6D5E0F422700422600D18C0
:1017B300C6C333C608C633C6D5E0F41822251810AD
:1017C300AF08F518400215198008F51840021519DD
:1017D300D2AF22C0D0251810AF08F5185002051952
:1017E3008008F51850020519D2AFD0D0222518F57C
:1017F3008210AF08F518400215198008F518400249
:101803001519D2AF851983222518F582E43519F508
:101813008322E4732518C582C0E0E51934FFC5832C
:10182300C0E0E518C3958224F810AF0885831985B5
:1018330082188008858319858218D2AFCEF0A3E57C
:1018430020F0A37808E608F0A3DEFAEFF0A3E58121
:1018530024FAF8E608F0A3E608F0A3E608F0A308E4
:1018630008E608F0A3E608F0A315811581D0E0FE91
:10187300D0E0F8158115811581E8C0E0EEC0E022C3
:101883002518C582C0E0E51934FFC583C0E0E5181B
:10189300C3958224F910AF088583198582188008BF
:1018A300858319858218D2AFCEF0A3E520F0A37803
:1018B30008E608F0A3DEFAEFF0A3E58124FBF8E6DF
:1018C30008F0A3E608F0A30808E608F0A3E608F08A
:1018D300A315811581D0E0FED0E0F815811581E8CC
:1018E300C0E0EEC0E022851983851882E0A3FEE004
:1018F300A3F5207808E0A3F608DFFAE0A3FFE0A34E
:10190300C0E0E0A3C0E0E0A3C0E0E0A3C0E0E0A348
:10191300C0E010AF08858218858319800885821876
:10192300858319D2AFD083D08202012285198385A2
:101933001882E0A3FEE0A3F5207808E0A3F608DF11
:10194300FAE0A3FFE0A3C0E0E0A3C0E0E0A3C0E0AF
:10195300E0A3C0E010AF088582188583198008854D
:101963008218858319D2AFD083D08222C0D02518A4
:10197300C582C0E0E51934FFC583C0E0E518C3950F
:101983008224F310AF088583198582188008858324
:1019930019858218D2AFC8F0A3E9F0A3EAF0A3EB4C
:1019A300F0A37908E709F0A3D8FAECF0A3EDF0A3CC
:1019B300EEF0A3EFF0A3D0E0F0A3D0E0F0A3D0E0EB
:1019C300F0A3E520F0A3E5F0F0A3228519838518A1
:1019D30082E0C0E0A3E0F9A3E0FAA3E0FBA3780868
:1019E300E0F608A3DFFAE0FCA3E0FDA3E0FEA3E03A
:1019F300FFA3E0C0E0A3E0C0E0A3E0F5D0A3E0F5DF
:101A030020A3E0A3F5F010AF088583198582188021
:101A130008858319858218D2AFD082D083D0E0F8AD
:101A2300D0E03274048006740280027401C0E0F4D2
:101A3300041217F0D0E01216C62274048004740254
:101A43008000CCC0E0EDC0E0E518C39CCCAD1950DC
:101A5300011D10AF068C188D1980068C188D19D2B4
:101A6300AF1216D3D0E0FDD0E0FC22D083D082E9C0
:101A7300C0E0E493A3C386F0C5F095F0F908E493BE
:101A8300A386F0C5F095F0700BE493A3C3994005CA
:101A9300E9048002A3E475F002A42582F582E5F04F
:101AA3003583F583D0E0F9E493A3C0E0E493C0E089
:101AB30022D083D082ECC0E0EDC0E0E493A3FCE449
:101AC30093A3FDED4C600D121B00EC24FFFCED34E1
:101AD300FFFD80EFE493A3FCE493A3FDED4C600DC5
:101AE300121B3FEC24FFFCED34FFFD80EFD0E0FD43
:101AF300D0E0FCE493A3C0E0E493C0E022C0E0C3E1
:101B0300E49396087401939618400FE49366700863
:101B130008740193661870007019A3A3C3E4939625
:101B2300087401939618A3A3400DD0E0D0E0D0E051
:101B3300021AF0A3A3A3A3A3A3D0E022C0E0C0F0A2
:101B430088F0E4936670080874019366187000A81F
:101B5300F0A3A3700BD0F0D0E0D0E0D0E0021AF0F5
:071B6300A3A3D0F0D0E022A3
:101B6C0074F5121883EAFEEBFFEE2434F8EF340020
:101B7C00F988088909EE2435121C98F8EE243712DE
:101B8C001C98F50AEC850AF0A4FCAAF0850AF0ED85
:101B9C00A42AFDE82CF8E43DF97A257B00121735D0
:101BAC00EA850882850983F074075AF87401B80035
:101BBC00028004C333D8FCFBEA131313541FF8EE52
:101BCC0028F8EF3400F9E8245DF582E9121C9B5BE0
:101BDC006003EA801CEE2436121C98F5F0EA84A807
:101BEC00F0EE28F8EF3400F9E82438F582E9121CFD
:101BFC009BF97F0402192F74F5121883EAFEEBFF90
:101C0C00EE2434121C98C0E0EE2435F582EF34003B
:101C1C00F583D0E0F08E828F83A3A3A3A3A3E0FA75
:101C2C00A3E0FB8E828F83A3A3A3A3A3A3A3E0FCB7
:101C3C00A3E0FDECC39AF50AED9BF50BEE247FF5C2
:101C4C0008EF3400F509850882F583E06401702BF8
:101C5C00EE2480F582EF3400F583121A41121CA198
:101C6C0074021217D6E960137CDC7D04EEFAEFFBEC
:101C7C00120BED850882850983E4F0AC0AAD0BEEFE
:101C8C00FAEFFB121B6C1224C7021BFEF582EF3419
:101C9C0000F583E022C082C083851882851983E019
:101CAC00F8A3E0F9C3EA9CEB9D5010C3EC98ED99B6
:101CBC00401BC3EA98EB995014800EC3EA98EB9939
:101CCC004007C3EC98ED994004790180027900D06B
:101CDC0083D08222EAC39CFAEB9DFB2274ED12188E
:101CEC00839003A2E064086005E06407702C9061A7
:101CFC00C8E060269003D0E0F874FF68601CE875BB
:101D0C00F003A4C8AAF02AF974D228FE740339FF90
:101D1C008E828F83A3A3A3E070057900021E88EE48
:101D2C002468F510EF3400F511906060E0851082A6
:101D3C00851183F0750A45750B057508007509004A
:101D4C00E5D914F50EE5D95403F50F601CEE248289
:101D5C00F50CEF3400F50D7403650F6058E50E605B
:101D6C0013EE2467121C98700B793DEEFAEFFB1200
:101D7C000C1180A6900540E064016026850C8285DC
:101D8C000D83E06004780480027800850E08E50875
:101D9C00C398FA95E0FB120A918A088B09EA450967
:101DAC007006120E69021D26850C82850D83E0706B
:101DBC00048A0A8B0B78008016E5D9C0E08812E5FE
:101DCC000A2512F582E50B3400F583D0E0F008E823
:101DDC00C3950E40E4850C82850D83E0602874FC6D
:101DEC00250EF50E780A121A2AAC0EA90FEEFAEF90
:101DFC00FB120CBF74021217D6E9700AAA08AB09C1
:101E0C00121361021D757403650F6058850E0C75F5
:101E1C000D00780C121A2AAC0AAD0BAA08AB0912E9
:101E2C000C8374021217D6851082851183E0F87426
:101E3C0080687005750C7F8002880CE50CF50A78BB
:101E4C000A121A2EE50FF50A780A121A2EA90EACF0
:101E5C0008AD099003D0E0FA7B0012092974021234
:101E6C0017D680139003A2E06408600BAC0AAD0B8C
:101E7C00EEFAEFFB120D55120E7579017F0C02195B
:101E8C002F74F312188374FC1217C0EAFEEBFF894F
:101E9C0008A2AFE433F509C2AFEE2463F50AEF34C0
:101EAC0000F50B8010AA0AAB0B120C3B12136190BD
:101EBC0004E3E004F0850A82850B83E0F8A3E0F9E3
:101ECC00E849602FE82402FAE93400FBEA2402F521
:101EDC000CEB3400F50D780C121A2A8A828B83E0F5
:101EEC00FCA3E0F9EEFAEFFB120C2F74021217D6DA
:101EFC00E960B29004E3E060579004E4E0F89004E9
:101F0C00E3E0C398500C7402650870449004E5E05B
:101F1C00603E8E828F83A3A3A3A3E08518828519CC
:101F2C0083121F6C740212180BE8121F6C9004E2DF
:101F3C00E028F0740212180BAC82AD8385188285F0
:101F4C001983AA82AB8379011209359004E3E4F07A
:101F5C00E509A2E092AF74041217D67F0602192F7E
:101F6C00F0A3E4F09004E3E0F822000085218785DB
:101F7C0022C622C0E074EF12196FA2AFE433FEC286
:101F8C00AF759B00906182E0A2E05012E591A2E057
:101F9C00500C7591FE740165217003121CE8E0A2CF
:101FAC00E55051E591A2E5504B7591DF9003A2E00D
:101FBC0064076005E064087023740165217035794D
:101FCC00019003D0E0FA75F003A4CAA8F028FB74C2
:101FDC00D22AFA74033BFB121E8D8018E0640D703C
:101FEC00139003C4E004F064287002E4F07A00E07B
:101FFC00F9120E7B906182E0A2E640030220A6E576
:10200C0091A2E640030220A67591BF9003A2E06462
:10201C00057008120D97120DA38003120D9D7521EA
:10202C0000120E09E99003A3F07900120DFD120BBA
:10203C00577A017B009003A1E0F91210D39078033A
:10204C00E064427055900544E014F0704DC2AF123C
:10205C00205E00782AD0E0F618D0E0F6E59F540711
:10206C0070057509FF800375097FC4C0E07829E607
:10207C00F50808E65509F509740B780812179ED077
:10208C00E02508F8906270E0A2E740F8E8C33390CE
:10209C006272F0906270E0D2E0F0906181E0A2E3B5
:1020AC005009E5E9A2E3500375E9F7A3E0A2E75074
:1020BC0009E591A2E7500375917FEEA2E092AF7F04
:1020CC00040219CEC0E0C0D0C082C083906183E00E
:1020DC00A2E05009E5BFA2E0500375BFFEE0A2E10B
:1020EC005009E5BFA2E1500375BFFDE0A2E2500923
:1020FC00E5BFA2E2500375BFFBE0A2E35009E5BFC8
:10210C00A2E3500375BFF7E0A2E45009E5BFA2E4D7
:10211C00500375BFEFE0A2E55009E5BFA2E55003FF
:10212C0075BFDFE0A2E65009E5BFA2E6500375BF1C
:10213C00BFD083D082D0D0D0E032C0E074F212197C
:10214C006FE5A7A2E4500FE5A1A2E4500953A7EF55
:10215C0075A1EF12219AE5A7A2E5500CE5A1A2E525
:10216C00500653A7DF75A1DFE5A7A2E15009E5A151
:10217C00A2E1500375A1FDE5A7A2E2500CE5A1A2D6
:10218C00E2500653A7FB75A1FB7F010219CE74F830
:10219C001218837521019003A2E0640670077A007F
:1021AC007B00120D7FA2AFE433FED2AF9003A8E008
:1021BC00640170187A207B009003A1E0F91211578A
:1021CC007A207B009003A1E0F91210D9906182E093
:1021DC00D2E6F0900541E0602185C622801690037E
:1021EC00A7E064017008E5C654F84405F5C653BE73
:1021FC00FC121F787401652160E4EEA2E092AF7FBF
:10220C000102192F8E238F24858228858327851818
:10221C0082851983E0CEA3E0CF852882852783EBC6
:10222C00C9EAC8EDCBECCA75F010C3E833C8E93382
:10223C00C9EA33CAEB33CBC3EA9EF526EB9FF525EF
:10224C00B35004AB25AA26EC33CCED33CDD5F0DA64
:10225C00AE23AF242274F11218838A088B098C0ADE
:10226C008D0B90905C780812166A740F12180B780C
:10227C000C12169090905C780C12166A7808790CF7
:10228C001214A290907050107808790C12164278A3
:10229C00081214C24014800E780C79081216427879
:1022AC000C1214C250047901800279007F080219C3
:1022BC002F74ED1218838A088B098C0A8D0B909061
:1022CC005C780812166A741312180B780C1216909C
:1022DC0090905C780C12166A780C79081214A24053
:1022EC00117808790C121642AA08AB09AC0AAD0B8E
:1022FC00802275100075110075120075130178108D
:10230C00790C12164278107908121609AA10AB1122
:10231C00AC12AD137F0C02192F90905C780812163A
:10232C00908A828B83780812167D7F0402192F7491
:10233C00F51218838C828D8378081216908A828B02
:10234C0083780812165612238FC3E098F0A3E099F5
:10235C00122381401E9090BC78081216908A828BB2
:10236C0083780812162F8E828F83E02420F0A3E04E
:10237C00344EF080A4F08E828F83C3E09420A3E0CF
:10238C00944E22EA2404F8EB3400F9E8FEE9FF8CC1
:10239C00828D83A3A3A3A3E0F8A3E0F98E828F839D
:1023AC002274F5121883E9FE9004F7E0FAA3E0FB1F
:1023BC00EEC333F8E433F9741728F582748F39F5CA
:1023CC0083E02AF508A3E03BF5097808121A2A9055
:1023DC0090A41216AE12221074021217D68A088B11
:1023EC00098C0A8D0B741078081215D1AA08AB0948
:1023FC007F0402192F74F11218838A0C8B0D8C0E2A
:10240C008D0F740F12180BE0FAA3E0FB7411121865
:10241C000BE0F508A3E0F5097808121A2AEA240162
:10242C00F508EB3400F509E4F50AF50B780C79089E
:10243C001214E190906C7808121690780C790812AE
:10244C0014E1AA0CAB0DAC0EAD0F122210740212DB
:10245C0017D68B09EA450960047A0180027A00ECF0
:10246C002AFCED3400FD741312180BE0F8A3E0F90C
:10247C00E8FEE9FFECF8EDF97A717B02121735886A
:10248C00088909E4F50AF50B8E828F8378081216F9
:10249C009FECF8EDF97A717B021217358A088B09DB
:1024AC00740578081217AD8E828F83A3A3A3A3E5BE
:1024BC0008F0A3E509F07F0802192FC082C083E958
:1024CC00906000F0D083D08222C2AF02000022C004
:1024DC00E074F212196FA2AFE433FED2AFC2C0E5C2
:1024EC00D1A2E4500653D1EF121331EEA2E092AF19
:1024FC007F010219CEC0E074F212196FA2AFE4335F
:10250C00FED2AFE589A2E04006E589A2E1500312B4
:10251C0012A1758900758900C2C5EEA2E092AF7F49
:10252C00010219CEC0E0C0D0E8C0E0E9C0E0E5A8E7
:10253C00D2AFC2C7A2E7A2E792AFD0E0F9D0E0F8E1
:10254C00D0D0D0E032C0E0C0D0E8C0E0E9C0E0C0FC
:10255C0008C009C082C083A2AFE433F9D2AF90099E
:10256C00D3E0F8A3E0687008539AFBA374018026AB
:10257C00C2E99009D3E0F50874012508F0745325DD
:10258C0008F58274093400F583E0F5C19009D3E0B5
:10259C00C394804002E4F0E9A2E092AFD083D082F1
:0F25AC00D009D008D0E0F9D0E0F8D0D0D0E0329C
:1025BC00FFFFFFFFFFFFFFFFC082C083E9900B917D
:1025CC00F002285374F7121817E99002E1F07C1905
:1025DC007D037AFF7BFF12087B9002E274FFF0A36D
:1025EC00F0A3E4F0A3F079051208039002E1E0F9FE
:1025FC001207257A997B08120A437F010218E974A5
:10260C00F41218178A088B09EB548060309002E1A1
:10261C00E0F91210BB8A0A8B0BAE0AAF0BEE4F60BF
:10262C00138E828F83E064B0700312081BEEFAEFF6
:10263C00FB1210A9AA08E5096480FB80047A007BD0
:10264C000002282274F212181774FC1217C0EAFE4A
:10265C00EBFFEE4F6038740212180BEEF0A3EF1282
:10266C002A87ECF0A3ED122A87AA82AB8312071FEC
:10267C00E9F5087073741212180B12363BE50A4513
:10268C000B60658E828F831226FEEE4F70057508E7
:10269C000280557A067B0012110F8A0C8B0DA80C48
:1026AC00A90DE8497005750813803D88828983E47B
:1026BC00122708A3A3EEF0A3EF123AD4E50AF0A375
:1026CC00E50BF09002E71227909002E76017E0FC10
:1026DC00A3E08003EAFCEBFD8C828D8312279070C3
:1026EC00F38C828D83123560A90874041217D602FC
:1026FC003CD6A3A3A3A3E0FEA3E0FF22F0A3F088A3
:10270C008289832274F2121817890AE975F017A4CA
:10271C00FEAFF09002E6E4F09002E4122790600A1B
:10272C001211159002E4E4F0A3F0EEFAEFFB121193
:10273C000F8A088B09EA4509602FEEFCEFFD790042
:10274C001210919002E4E508F0A3E509F07B0080FB
:10275C000812277AE4F0A3F00BEBC3950A40F2E5DC
:10276C000A9002E6F0790080027913023CD6EB75F0
:10277C00F017A4F8A9F09002E4E028FAA3E0398A53
:10278C0082F583221232F6EA4B2274F41218177572
:10279C000800750900740C12180B123AA8FEE9FF18
:1027AC00800CE5082401F508E5093400F509C3E5BA
:1027BC00089CE5099D503285080A85090B7403783D
:1027CC000A1217ADEA250AF8EB350BF988828983D2
:1027DC00A3A3A3A3A3A312363BEE650A7003EF6574
:1027EC000B70BFE8FAE9FB80047A007B0080277449
:1027FC00F41218177900EAA2E0501B750846750907
:10280C00907808121A2A7C047D007A937B0B1207AD
:10281C00FD74021217D67F040218E9C082C083909F
:10282C0002E712285A601C88828983A3A3E06A708D
:10283C0003A3E06B8882898370E8A3A3A3A312325D
:10284C00F280047A007B00D083D082020122123DF8
:10285C00A9E8492274EE12181774FC1217C0EAFE8C
:10286C00EBFF851882851983E4F0A3F0EE240212A5
:10287C003544EE2405122A75EE2404F50EEF122EC3
:10288C005AE024FE603924FC604624FE605224FE8B
:10289C00605E24FE700302297A24FE70030229F282
:1028AC0024FE7003022A0124FE7003022A1024FC69
:1028BC007003022A1F24FE7003022A2E022A6B9038
:1028CC0003007417F0A3E4122A8F12049D022A6BE2
:1028DC00851882851983AC82AD83120821022A3BAC
:1028EC00851882851983AC82AD83120827022A3B96
:1028FC00850C08850D09740212180BAC82AD83850A
:10290C0008828509831232F21207438A0C8B0DACB4
:10291C000CAD0DEC4D6042E4F50CF50D780C121A73
:10292C002A750C00750D03780C121A2A750C01759A
:10293C000D03780C121A2A740812180B121A41790A
:10294C00161232EC12086374081217D6E9F50C70E3
:10295C000B1232E81204B5800F750C0185088285C4
:10296C000983122A7D123560850C08022A3E7402F6
:10297C0012180BAC82AD83850C82850D831232F25A
:10298C001207438A108B11AC10AD11EC4D604385CE
:10299C000C82850D83A3A3121A41751000751103C7
:1029AC007810121A2A7510017511037810121A2A50
:1029BC00740812180B121A4179161232EC120863B1
:1029CC0074081217D6E9F509700B1232E81204BB21
:1029DC00800F750901850C82850D83122A7D1235B5
:1029EC0060850908804C851882851983AC82AD837B
:1029FC0012082D803A851882851983AC82AD83121A
:102A0C000833802B851882851983AC82AD8312081C
:102A1C0039801C851882851983AC82AD8312083FDE
:102A2C00800D851882851983AC82AD83120845E927
:102A3C00F508E50860298E828F83A3E06414601F7B
:102A4C00850E82850F83E0900300122A87123DA524
:102A5C00900301123560E508A3122A8F120497EE39
:102A6C00FAEFFB1207C102344CF50CEF3400F50DF4
:102A7C0022123DA985188285198322F0851882853A
:102A8C00198322F07C007D03850A82850B83123228
:102A9C00F62274EE12181774FC1217C08A0A8B0BEC
:102AAC008C0E8D0FEA2405F508EB3400F5097C1526
:102ABC007D0079007A007B03121091E5082402F561
:102ACC000CE509122A788518828519838582108570
:102ADC0083117810121A2A850882850983A3A3A36F
:102AEC00A3122FA2121A2AE5082405F510E50934C1
:102AFC0000F5117810121A2A850C82850D8312327A
:102B0C00FC12073D74061217D68A108B11AE10AF4B
:102B1C0011E50A2402F50AE50B123547EE4F700356
:102B2C00022C648017740212180B1232F2888289FC
:102B3C0083EAF0A3EBF0900300E004F0900300E0D4
:102B4C00C394054003022C64E4F510F511781012BF
:102B5C001A2A7510E97511027810121A2A7510EAE2
:102B6C007511027810121A2A740612180B121A41D7
:102B7C007910EEFCEFFD1232EC1208637408121798
:102B8C00D6E9705E850882850983A3A3A3A3A3A3BA
:102B9C00A3E0F89002E9E0687048122FA2121A2AFA
:102BAC007CEA7D02E5082408FAE5093400FB1210E2
:102BBC008B74021217D6E960298E828F83A3A3A38C
:102BCC00A31232F2900300E0F51074027810121781
:102BDC00AD74012510F58274033511F583EAF0A369
:102BEC00EBF0740212180B85821085831178101289
:102BFC001A2A740212180B121A41850C82850D8345
:102C0C00123DBA12074974041217D68A108B11AEF2
:102C1C0010AF11900300E0F51075110074027810DC
:102C2C001217AD74002510F874033511F9888289D8
:102C3C0083A31227907003022B28E82403F8E934AD
:102C4C0000F9EE4F6003022B318882898374FFF008
:102C5C00A3F0900300E004F0900300E0600A12324D
:102C6C00E81204A97900800B850882850983123546
:102C7C0057790A02344C74EA12181774FE1217C0F2
:102C8C008C128D13EA2405F50CEB123F241227024B
:102C9C00750800750900EA2402F510EB3400F511F3
:102CAC0085188285198385820A85830B780A121A06
:102CBC002A850C82850D83A3A3A3A3122E64121A5A
:102CCC002AE50C2405F50AE50D123547780A121A87
:102CDC002A850C82850D83123DB812073D740612AD
:102CEC0017D68A0A8B0BEA450B7003022E15EA24C1
:102CFC0004F50EEB122E5A1227028A828B83A3A3A1
:102D0C00A3E0F98510828511831232F212072BE9A8
:102D1C00F5096003022E15E4F514F5157814121A52
:102D2C002A7514E97515027814121A2A7514EA75A5
:102D3C0015027814121A2A740612180B121A4179F9
:102D4C0013AC0AAD0B8510828511831232F2120876
:102D5C006374081217D6E9F5096003022E15900268
:102D6C00E9E0F8E5087009E02402900301F080170F
:102D7C00900301E0FCE82402FAE43400FBEA6C70F6
:102D8C0001EB6003022E19850882AA82122F9994F6
:102D9C0014122F915073850E82850F83E0C0E0745E
:102DAC00022A122E51D0E0F00508850E82850F8381
:102DBC00A3E0C0E085080A7402250A122E51D0E067
:102DCC00F005089002E9122E64121A2A7CEA7D02A0
:102DDC0085080A7402250AFA74033400FB12107970
:102DEC0074021217D69002E9E02508F50874FF6EFC
:102DFC00700374FF6F6012EE24010EEF3400FFE5D8
:102E0C0008C394145003022CACE50860131231DD96
:102E1C008510828511831232F21204AF790080146E
:102E2C00E509700375090A851282851383EEF0A3F8
:102E3C00EFF0A90974021217D67F0E0218E9850863
:102E4C000C7402250CF58274033400F583223400D3
:102E5C00F50F850E82F58322123AE72274EE1218D2
:102E6C001774FE1217C08C0E8D0FEA2405F50CEBAF
:102E7C00122A78750B00900300E4F0F50AEA24029C
:102E8C00F508EB3400F5098049900300E0FA900254
:102E9C00E9E0F8122F999417122F91400D9003002E
:102EAC00E0F87416C3989002E9F0122FA2121A2AB5
:102EBC007CEA7D0274012AFA74033400FB12107947
:102ECC0074021217D69002E9E0F8900300E028F0A3
:102EDC00050AE50C2416F582E50D122E55E0F8E5F1
:102EEC000AC3984003022F7A900300E0C394165053
:102EFC007DE50AC333F8E433F9E50C28FEE50D391A
:102F0C00FF851882851983AC82AD838E828F8312E4
:102F1C0032F21207438A108B11AC10AD11EC4D70CC
:102F2C0005750B018043E4F510F5117810121A2A7F
:102F3C007510E97511027810121A2A7510EA7511BC
:102F4C00027810121A2A740612180B121A417916EA
:102F5C008508828509831232F212086374081217ED
:102F6C00D6E9F50B7003022E9512355380107C00B8
:102F7C007D038508828509831232F21204C1A90BE4
:102F8C00740202344EE99400C365D03322EA28F867
:102F9C00E43400F9E822E0F5107511007810227481
:102FAC00EA12181774FC1217C08A0C8B0D8C128D38
:102FBC0013EA2405F50AEB1235477508007509006C
:102FCC00E50A2402F510E50B3400F5117402121811
:102FDC000B85820E85830F780E121A2A850A82853C
:102FEC000B83A3A3A3A3123A93121A2AE50A24056E
:102FFC00F50EE50B3400F50F780E121A2A851082A7
:10300C0085118312354D1232EC12073D74061217DE
:10301C00D68A0E8B0FAE0EAF0FE50C2402F50EE523
:10302C000D3400F50F80408882898374FFF0050809
:10303C00122E4A74FFF005089002E9E0F50C750DAC
:10304C0000780C121A2A7CEA7D0285080C74022581
:10305C000CFA74033400FB12107974021217D69018
:10306C0002E9E02508F508EE4F60718E828F83A38C
:10307C00A3A3E0F9850E82850F831232F212072B7F
:10308C00E9F509EE2404122A75E97044E4F514F507
:10309C00157814121A2A7514E97515027814121A77
:1030AC002A7514EA7515027814121A2A7408121863
:1030BC000B121A417911EEFCEFFD850E82850F8300
:1030CC001232F212086374081217D6E9F509602758
:1030DC00850C82850D831231D3123560E50870039F
:1030EC000231B91231DD850E82850F831232F21254
:1030FC0004C779000231CE850882AA82EA9002E9DF
:10310C007009E02404900301F08022E0F8900301A0
:10311C00E0F514E82404FCE43400FDEC65147001C3
:10312C00ED70C0122F999412122F9150B6850C820B
:10313C00850D83E0C0E074022A122E51D0E0F00518
:10314C0008850C82850D83A3E0C0E0122E4AD0E0E6
:10315C001231EF85820C85830D780C121A2A7404B7
:10316C0012180B121A41851082851183123DBA1266
:10317C00074974041217D68A0C8B0DAE0CAF0D8553
:10318C00080C7402250CF874033400F9EE4F70032C
:10319C00023033851882851983E088828983123145
:1031AC00EFA3E0C0E0122E4AD0E0023041E50970F6
:1031BC000375090A850A82850B831231D312356097
:1031CC00A9097404022E42123DA98512828513832B
:1031DC0022900301E0F5F0E50884900300F07C00F8
:1031EC007D0322F005088518828519832274EC1260
:1031FC00181774FE1217C08A088B098C0E8D0FEAF3
:10320C002405FEEB3400FF851882851983AC82AD52
:10321C00838E828F831232F21207438A0A8B0BEE53
:10322C002418122A75EA450B70030232C312343586
:10323C0050328518828519831232F21208578A107F
:10324C008B11EA4511606B7912AC0AAD0B850882C3
:10325C008509831232F2851082851183121815E9C3
:10326C00F50A7058E4F50AF50B780A121A2A8E82C0
:10327C008F83A3A3E0F50A780A121A2AEE2403120C
:10328C003544780A121A2A8E828F831232FC120865
:10329C006974061217D6E9F50A7021850C82850D22
:1032AC0083E0701F8508828509831232F21204CDE7
:1032BC008011750A0E8009750A018004E50A600305
:1032CC00123553850C82850D83E0600479008002F1
:1032DC00A90A74021217D67F0C0218E97C007D0330
:1032EC00850A82850B831232F622E0FAA3E0FB22D8
:1032FC00E0FCA3E0FD8508828509831232F6227476
:10330C00EE12181774FE1217C08A088B098C0C8DDC
:10331C000DEA2405FEEB3400FF750E00851882853E
:10332C001983AC82AD838E828F831232F2120743E3
:10333C008A0A8B0BEA450B70030234211234355088
:10334C00358518828519831232F21208578A0E8B32
:10335C000FEA450F605E7912AC0AAD0B85088285C9
:10336C0009831232F2850E82850F83121815E9F546
:10337C000E600302342485088285098312363BAA29
:10338C000AFB12084B8A108B11A810A911E849707E
:10339C001E7AFF7BFF12084B8A108B11A810A91103
:1033AC00E849606C88828983E50AF0A3E50BF07527
:1033BC000A008007750E0E805F050A9002E6E0FA9F
:1033CC00E50AC39A504AE50A75F017A4FAABF088DF
:1033DC00828983A3A3E02AFAA3E03BFB8A828B8336
:1033EC0012354DEC4D70D2750A17750B00780A1218
:1033FC001A2AEEFCEFFD12107974021217D6EEFCAD
:10340C00EFFD8508828509831232F21204D38014F1
:10341C00750E098003750E01123DA1850C82850D78
:10342C0083123560A90E022F8CE5082402F508E5FD
:10343C00093400F5098A828B83A3A3A3E0A2E522B9
:10344C0074041217D67F0A0218E974EC1218178C40
:10345C00108D11EA2405F50CEB122A78750F00EA91
:10346C002402F50AEB123547850A82F5831232F2F3
:10347C0012084B8A088B09EA450970030235397525
:10348C000E008071850C82850D83E06401704F8E77
:10349C00828F83A3A3121A418E828F83A3A3A3A32B
:1034AC00E0F5127513007812121A2AEE2405F512A3
:1034BC00EF3400F5137812121A2A1232EC12086942
:1034CC0074061217D6E9F50F6014850C82850D83EE
:1034DC00E4F0123DA18510828511831235607C17B2
:1034EC007D007900EEFAEFFB1210918E828F83E44F
:1034FC00F0A3F0050E9002E6E0F8E50EC398501E1E
:10350C00E50E75F017A4F8A9F0850882850983A348
:10351C00A3123F2E12354DEC4D60030234908508FA
:10352C008285098374FFF0A3F0E50F70061232EC6C
:10353C001204D9A90F0232E3F50AEF3400F50B227D
:10354C00A3E0FCA3E0FD228E828F83123DA9850EA1
:10355C0082850F83E8F0A3E9F022C082C083900239
:10356C00E2E06A7003A3E06B70067AE27B028004EF
:10357C007A007B00022853C082C08378008C828D35
:10358C0083E06A7003A3E06B7010E875F003A4F895
:10359C00A9F0EC28FAED39FB8015088C828D83A3F9
:1035AC00A3A3E06A7003A3E06B60DF7A007B0002E8
:1035BC00285374F61218171208158A828B83E58229
:1035CC00458370067A007B008007A3A3A3A3123265
:1035DC00F2023C5274F2121817E9FE740E12180B18
:1035EC0012363B741012180B123AB38C828D83E096
:1035FC0064027036A3123DAFF50CA3E0F9A80C746D
:10360C00026870037429697021750C02750D0078BD
:10361C000C121A2A7808121A2A780A121A2AEEF9A7
:10362C0012088D74061217D680027901023CD6E07E
:10363C00F50AA3E0F50B2274E812181774FB1217A5
:10364C00C0E9851882851983F08A168B17ECFEED7C
:10365C00FF751000741D12180B123DA5741D121865
:10366C000B1235608E828F83A3A3A3E0A2E4502DAE
:10367C00741D12180B1232F21208578A828B83E5D2
:10368C008245837003023A84790AEEFCEFFDAA1698
:10369C00AB17121815E9F5106003023A87741F1264
:1036AC00180B123AB3742112180B12363B742312F6
:1036BC00180BE0F50EA3E0F50F8E828F83E0640209
:1036CC006003023A32A3123DA5850882850983A3C3
:1036DC00858212858313EE2406122A7588828983CB
:1036EC00E0FAA3E0F9EA2400F514E439F5157814AE
:1036FC00121AB4010000280128273707000228EC11
:10370C0037032859370029233901294E390229EF6B
:10371C0038032923390429CD39323AE50E450F6097
:10372C0003023A2D850C82850D83123AA8FAE9FB27
:10373C008A828B83E0850A82850B83123ADE121A09
:10374C002A8A828B83A3E0FCA3E00239B7E50E45FD
:10375C000F6003023A2D850A82850B837401F012E7
:10376C003ABB850882850983F07C007D008E828FB0
:10377C0083A3A3A3A3E02401FAA3E03400FB120764
:10378C0043EA4B60418A828B83E02402F8850A82EB
:10379C00850B83E028F0EA2404F8EB3400F98882E6
:1037AC008983E0851282851383123AF0123ADE1275
:1037BC001A2A8A828B8312354CE5082403FAE50910
:1037CC003400FB0239BC850A82850B83E02404F0AB
:1037DC007C047D007900AA12AB13121091023A8777
:1037EC00E50E450F6003023A2D123ABBFEA3E0FF33
:1037FC00850A82850B837404F0EE85088285098323
:10380C00F0EF851282851383F0740312180BAC82CF
:10381C00AD83EEFAEFFB1207438A0C8B0DEA450DD4
:10382C0070030238D08A828B83A3A31226FE740104
:10383C0012180B85820E85830F780E121A2A7405C6
:10384C0012180B121A417CFF7DFF120749740412E7
:10385C0017D68B0FEA450F7033850C82850D8312BA
:10386C003A93121A2A850C82850D83A3121A417C75
:10387C00027D007A1C7B9112057574041217D6E92F
:10388C00700A740112180B74FFF0A3F08E828F83F0
:10389C00E064027039750C02750D00780C121A2A4E
:1038AC008E828F8312354CE5082404FAE509340026
:1038BC00FB12107974021217D6850A82850B83E0ED
:1038CC0024028009740112180BEEF0A3EFF07401BE
:1038DC0012180B123AA4F0740112180BA3123A9C92
:1038EC00023A27E50E450F6003023A2D850C8285BE
:1038FC000D8312354DAA16AB17120881850A8285E5
:10390C000B837402F0EA850882850983F0851282A4
:10391C00851383EB023A2AE50E450F6003023A2D1C
:10392C00123ABBF8A3E0F9850A82850B837402F086
:10393C00E8850882850983F0E98512828513830264
:10394C003A2A850C82850D831232F2121073EAFC2E
:10395C008C82A882C3950EE4950F405FE8650E70CB
:10396C0002E50F70047C008022851882851983E0A3
:10397C00FAE50E2AFAE50F3400FBC3EA98EB940043
:10398C005003E08005E50ECCC39CFCEC850A8285D7
:10399C000B83F08C0A750B00780A121A2A850C829C
:1039AC00850D83E0250EFCA3E0350FFDAA08AB09BD
:1039BC0012107974021217D6023A87751007023A60
:1039CC0087E50E450F705A850C82850D83123DA537
:1039DC00850A82850B83740712270A123A9C1227D8
:1039EC000AA3E0851282851383F0E82402FAE934F5
:1039FC0000FB8A828B83123A9C123ACB123AA4A314
:103A0C00123AD4123AADF0E82405F8E93400F988FA
:103A1C00828983123AADA3123AF0A3A3A3A3F08038
:103A2C005A75100B8055741D12180B1232F21208B5
:103A3C00158A828B83E5824583603D123DA5880CF7
:103A4C00890DE8450D6031780E121A2A780A121A7F
:103A5C002A7808121A2A740612180BE0F9EEFCEFF9
:103A6C00FDAA16AB17850C82850D831218157406EA
:103A7C001217D6E9F510800375100EA910740512F3
:103A8C0017D67F100218E9E0F50E750F00780E229C
:103A9C00E085088285098322123AFA22123DA9E8B0
:103AAC0022123AFAA3A322E0F508A3E0F509228535
:103ABC000C82850D83E0F8A3E0F5838882E022A3D5
:103ACC00A3F08A828B83A322F088828983A3A3A389
:103ADC00A322F08A828B83123AE722E0F50A750B57
:103AEC0000780A22F088828983A3123AFA22E085B0
:103AFC000882850983A3A32274EE12181774FE1290
:103B0C0017C08A0A8B0BECFAEDFB741412180BE03D
:103B1C00F510A3E0F511741612180BE0FE741812D0
:103B2C00180BE0F50EA3E0F50F851882851983AC10
:103B3C0082AD831207438A0C8B0DEA450D604985D3
:103B4C0018828519831232F21208158A828B83E54A
:103B5C00824583602FA3A3123AB3E508450960247C
:103B6C00780E121A2A7810121A2AEEF9AC0CAD0D36
:103B7C00AA0AAB0B850882850983121815740412E6
:103B8C0017D68006790E80027901022F8C74F612FA
:103B9C00181774FE1217C0740C12180B123AA88561
:103BAC001882851983F0740112180BE9F0E4F508FA
:103BBC00F5097808121A2A7508027808121A2A745C
:103BCC000412180B8582088583097808121A2A12A8
:103BDC00086974061217D674021217D6806874F727
:103BEC00121817EAFEEBFF89087C197D0312088175
:103BFC00EA5402600BA908EEFAEFFB1207378002B9
:103C0C00790102260674F612181774FF6A70037491
:103C1C00FF6B70168C828D83123C57E4F08C828D76
:103C2C0083A3A3A3123C57A380181208518A088BB4
:103C3C0009A808A909E849600D8882898374FF12D4
:103C4C002708A3A3E4F07F020218E974FFF0A3F0A5
:103C5C008C828D83A3A32274F61218171208518A32
:103C6C00828B83E58245836006A3A3E0FA80027A07
:103C7C00007B0080D174F21218178A088B09ECFEB5
:103C8C00EDFF740E12180BE0F50A1208518A0C8B1A
:103C9C000DA80CA90DE8497026EEFCEFFD7AFF7B10
:103CAC00FF1208518A0C8B0DA80CA90DE849700461
:103CBC007911801688828983E508F0A3E509F088DC
:103CCC00828983A3A3E50AF079007F060218E974C0
:103CDC00EE121817EAFEEBFF8C088D09890C741490
:103CEC0012180B123DA5741612180B1232F2750D28
:103CFC0000E8496003023D997402650C6003023DC3
:103D0C0094741212180B123DAFFCA3E0F9EC2400D2
:103D1C00F50EE439F50FEAF4F8EBF4F9EC58F8E5A4
:103D2C000F59F9E849705CE5082406F8ED3400F900
:103D3C00880A890B8882F583123DBA1208818A1091
:103D4C008B11E50E65107004E50F65116042780E5D
:103D5C00121A2A850A82850B83123DBA12088774BF
:103D6C00021217D6E9F50D7027780E121A2A85085B
:103D7C0082850983A3A3123DB812089F74021217FF
:103D8C00D6800D750D808008750D0D8003750D0B9B
:103D9C00A90D0234518E828F83123DA922E0F8A323
:103DAC00E0F922123DA988828983E022A3A3E0FCDA
:103DBC00A3E0FDEEFAEFFB2274E812181774E71279
:103DCC0017C0851882851983EAF0A3EBF08C168D49
:103DDC0017890E750800750900743112180BE0F57F
:103DEC0012A3E0F513743312180BE0F514A3E0F5ED
:103DFC0015743512180BE0F50FE50975F003A4F8EE
:103E0C00A9F0851882851983123F2EE0F47003A364
:103E1C00E0F47003023F11EE2402F50CEF123F2484
:103E2C00E07003023F1185160A85170B780A121AE7
:103E3C002AAC14AD15AA12AB13120809740212178E
:103E4C00D68A0A8B0BEA450B7003023F11E4F5107E
:103E5C00F5117810121A2A740612180B8582108527
:103E6C0083117810121A2A740912180B8582108586
:103E7C0083117810121A2A851282851383A3A3A3A7
:103E8C00A3121A417914AC0AAD0B8E828F831232B5
:103E9C00F212086374081217D6E97069850A8285D4
:103EAC000B83A3A3A3A3123DA5740212180B123506
:103EBC0060850C82850D83E0A2E05018A90E740277
:103ECC0012180BAC82AD838E828F831232F21207E2
:103EDC005BE94208850C82850D83E0A2E15026E562
:103EEC000FF50A780A121A2EA90E740312180BACCD
:103EFC0082AD838E828F831232F2120755740112B7
:103F0C0017D6E942080509E509C394025003023E9D
:103F1C0005A9087419023A8B3400F50D850C82F54D
:103F2C008322E028FEA3E039FF8E828F832274F275
:103F3C00121817EAFEEBFF890B7401650B600E7407
:103F4C0002650B706A7901120A61E97062EEFAEF90
:103F5C00FB12084B8A088B09EA45096047750A0071
:103F6C00800B7C177D007900121091050A9002E6F7
:103F7C00E0F8E50AC3985021E50A75F017A4F8A9F2
:103F8C00F0850882850983A3A3E028FAA3E039FB16
:103F9C008A828B8312285A70C9850882850983749A
:103FAC00FFF0A3F07C197D03EEFAEFFB12087B0205
:103FBC003CD674F21218178A088B09ECFEEDFF74CC
:103FCC000E12180B12363B900B91E0F4603D7A09FF
:103FDC007B001210A3EA4B60328A828B8374B1F09F
:103FEC00A3E4123ACDA3123ACBA3E508F0A3E5095A
:103FFC0012401AEEF0A3EF12401AA3A3E50AF0A3A5
:10400C00E50BF0900B91E0F91210AF023CD6F08A60
:10401C00828B83A3A3A3A3A32274F012181774FAA0
:10402C001217C0890BECFEEDFF750A008A088B098C
:10403C007808121A6E000410584268408640A0405E
:10404C00B840D640EE40114129413D416741EF4116
:10405C00004217423242584258427D417401650B6E
:10406C0060030242538E828F83E0F8C394034003B3
:10407C00024253E8900C7D02422F7402650B6003E0
:10408C000242538E828F83124955900C7EE8F0A326
:10409C00E902422F7401650B600302425312428005
:1040AC004003024253E890076602422F7401650BED
:1040BC0060030242538E828F83E0F8C39405400361
:1040CC00024253E890076702422F7401650B6003AC
:1040DC000242531242804003024253E890076802A6
:1040EC00422F7410650B600302425375081075095A
:1040FC00007808121A2A7A697B0712107974021256
:10410C0017D60242797401650B60030242531242C6
:10411C00804003024253E890077902422F740165F4
:10412C000B60030242538E828F83E0900C8102421B
:10413C002F7404650B60030242538E828F83780CBC
:10414C001216909090A4780C1214C2500302425391
:10415C0090077B780C12169F024279E960030242A9
:10416C00531206E3E9700512120B806090080E8062
:10417C006E7407650B6003024253750806750900DF
:10418C007808121A2A8E828F83A3AC82AD837402B4
:10419C0012180BAA82AB8312107F74021217D67CF2
:1041AC00007D00851882851983AA82AB838E828F4D
:1041BC0083E0F91211B1E9F508C3940A40030242F5
:1041CC00761206E3E9700CA9081212117950121339
:1041DC00DF806F740F2508F58274083400F5837442
:1041EC000180407401650B705E1242805059E8905A
:1041FC00077A802F7401650B704D8E828F83E0F8E7
:10420C00C3940A5042E8900C8080187401650B70BE
:10421C00368E828F83E0F874F928C3940A5028E80C
:10422C00900C82F080477401650B701B90080DE0B8
:10423C00F88E828F83E090080DF0E87030E0640116
:10424C00702B1211FF8026750A188021C3EA94275F
:10425C00EB940050157402650B700F8E828F8312D5
:10426C004D54120581E9F50A8003750A02A90A74F6
:10427C000602494A8E828F83E0F8C394022274F0BE
:10428C0012181774CC1217C08C0A8D0B74201218CC
:10429C000BAC82AD8375839075823474061216D381
:1042AC00742012180BAC82AD831211B1E9F50874AD
:1042BC004412180BE0FEE9C3940A40030243F8755C
:1042CC00F006E9A4F509742612180BAC82AD837ABA
:1042DC000E74202509F91213D9E9700974321218D9
:1042EC000BE0FF80027F00900C7DE0640270047490
:1042FC00018001E4F50D780D121A2EEEFDEFFCA9EC
:10430C0008AA0AAB0B12123574011217D67C147D55
:10431C00007900740C12180BAA82AB8312109174E2
:10432C000C12180BAC82AD837A1074242509F91287
:10433C0013D9E9703C7C1079FF740C12180BAA820B
:10434C00AB831210F7E97029741C12180BAC82ADF8
:10435C00837A0474252509F91213D9740C12180BDD
:10436C00AC82AD83EFA2E0E433F9AA0AAB0B1206E0
:10437C000B851882851983AC82AD837A0C747025F9
:10438C0008F91213D9E97053851882851983AA820A
:10439C00AB831211E1750800E50875F003A4F8A9C8
:1043AC00F0851882851983E58228F8E583124B5E27
:1043BC00124D4E601D88828983A3A3E0F50E750F04
:1043CC0000780E121A2AAA0AAB0B12086F7402128A
:1043DC0017D60508E508C3940440BDEFA2E1500CC4
:1043EC00900765E0F9AA0AAB0B12087574046E709D
:1043FC0027900C7DE06402701F7A00900779E060D2
:10440C00010A900766E06004780480027800E84AAC
:10441C00F9AA0AAB0B1206CB7900743402494A7420
:10442C00F0121817EAFEEBFF8C088D09750A0AE9E1
:10443C00600C1460091460371460790244DA1211AC
:10444C00F3E9F50AC3940A40030244DAE508450986
:10445C00607C750E06750F00780E121A2AEEFCEFB2
:10446C00FDAA08AB0912107974021217D6805F7579
:10447C000B00750E06750F00780E121A2AEEFCEF63
:10448C00FDE50B75F00EA4F8A9F0748728FA7407F3
:10449C0039FB12108B74021217D6E9600C850B0ACB
:1044AC00E50AC3940A50278016050BE50BC3940A42
:1044BC00501C80BE1211F9E9F50AC3940A500FE59D
:1044CC000845096009AA08AB09A90A1211EDA90A45
:1044DC0002494D74F4121817890875091574FF6A8E
:1044EC00700374FF6B70277E00AC087A027B00EEC1
:1044FC00F91211CFE960037509000EEEC3940A405E
:10450C00E8E50860537A237B12120A73804A120A78
:10451C00558A0A8B0BAE0AAF0BEE4F60387C007DD0
:10452C0000EE2405FAEF3400FB8E828F83A3A3A345
:10453C00A3E0F91211B1E9C3940A500CAC087A0249
:10454C007B001211CF750900E508600CEEFAEFFB49
:10455C001212238003750914A9098005740E121711
:10456C00D67F040218E974F2121817ECFEEDFF75F1
:10457C000815740E12180BE0F50AA3E0F50B74FF86
:10458C006A700374FF6B7021750900AC0AAD0BEEF9
:10459C00FAEFFBA9091211D5E960037508000509AA
:1045AC00E509C3940A503F80E2120A558A828B8334
:1045BC00E5824583602D7C007D00E5822405FAE5CB
:1045CC00833400FBA3A3A3A3E0F91211B1E9C394B4
:1045DC000A5013AC0AAD0BEEFAEFFB1211D57508AD
:1045EC00008003750814A908025390C082C0839000
:1045FC00077FEAF0A3EBF0900765E0FC7D007A26DC
:10460C007B00120581900765E0F91207EB0251EB74
:10461C0074F012181774EC1217C0EAFEEBFFEE24BC
:10462C000CF50CEF3400F50DEE2405F50EEF34000F
:10463C00F50FEE2409F50AEF3400F50BEE2403F523
:10464C0008EF3400F5098E828F83A3A3E024FA705F
:10465C00030248EE24FD700302480914700302465D
:10466C00F514601024FD70030247E0147003024837
:10467C003D02494612558B6048E0F5838882124909
:10468C0055880E890FE8450F6037850C82850D83A0
:10469C00E0F50C780C121A2EEE240BF582EF124B6F
:1046AC0025F9850A82850B83124D540A0A0AAB0937
:1046BC00850E82850F8312181574011217D60249C4
:1046CC0046850A82850B83121A4190077B1216AE1F
:1046DC0012061D74021217D6E970030249467901BD
:1046EC00850A82850B830248B98E828F83A38582CB
:1046FC000A85830BE060030247C3850E82850F8316
:10470C00E0A2E040030247C390081912558E6003E3
:10471C000247C37C0E7D007900851882851983AA17
:10472C0082AB83121091850C82850D831251B6EAEF
:10473C004B6010750C06750D00780C121A2AEA24C1
:10474C0010801B1251B0120A55EA4B7003024946F5
:10475C00750C06750D00780C121A2AEA2405FCEB70
:10476C003400FD740212180BAA82AB8312107974F8
:10477C00021217D6850E82850F83E0A2E25004D276
:10478C00F08002C2F0A2F0E433F8740C12180BE0C3
:10479C0048F0EEFCEFFD851882851983AA82AB8365
:1047AC001211E7E970117A027B00900765E0F912AB
:1047BC0010D3790002494812558B700302494612F6
:1047CC00495B7003024946850A82850B83E0FC79BC
:1047DC00010248E212558B70030249461249528974
:1047EC000BE8450B70030249468E828F83A3E0FCD5
:1047FC0079021251B08882850B830248E97C007DD6
:10480C0000EE2404FAEF3400FB850882850983E06E
:10481C00F91211B1E9F8C3940A4003024946EE2497
:10482C000AFCEF124D2AE8A42425F91213D30249ED
:10483C00461251B090077AE06007900C80E0F98046
:10484C006F900C7DE0700479058065120A558A0C16
:10485C008B0DA80CA90DE82404F50CE93400F50D1A
:10486C008E828F83A3A3A3A3A3A3A3E0A2E05046AD
:10487C00E8497003024946850C82850D83E0FE6091
:10488C0035850A82850B83E05410702A740E121839
:10489C000BAC82AD83E82405FAE93400FBEEF91287
:1048AC0011B1E9701179038508828509831251B61B
:1048BC00120617024946AC0EAD0F850C82850D838E
:1048CC00E0F91251B012122F12558B606D12495B28
:1048DC0060687C0079001251B08E828F831218159B
:1048EC0080581206E3E9705290080EE064017015CE
:1048FC0012120B90080EE4F07C0AFDF97A0F7B087B
:10490C00121091802D750A00850A08740F2508FE77
:10491C0074083400FF8E828F83E06401700BA90A47
:10492C001212118E828F83E4F0050AE50AC3940AF1
:10493C0040D679501213DF1211FF7901741412173B
:10494C00D67F080218E912496AE0F8A3E0F92212AE
:10495C00496AE0F8A3E0F9E8FEE9FFEE4F22E0F542
:10496C00838882A3A32274F412181774F21217C04E
:10497C00EAFE8C0B75F006E9A42420F50885188254
:10498C00851983AC82AD837A0EF91213D9E970576D
:10499C007C0679FF851882851983AA82AB83121055
:1049AC00F7E97043740C12180B124955E8F509E538
:1049BC000B6005EE42098004EEF45209850982AAC7
:1049CC0082E86A7001E9601B740C12180BEAF0A300
:1049DC00E4F0851882851983AC82AD837A0EA90820
:1049EC001213D379018002790002456874F212180F
:1049FC001774E61217C0890A8A088B09ECFEEDFFC2
:104A0C00740C12180BAC82AD837A0E75F006E9A407
:104A1C002420F91213D9E96003024B187C0679FFA4
:104A2C00740C12180BAA82AB831210F7E960030204
:104A3C004B187470250AF50B851882851983AC8286
:104A4C00AD837A0CF91213D9E96003024B14851863
:104A5C0082851983AA82AB831211E1E5084509709E
:104A6C002C7C0C7900851882851983AA82AB831261
:104A7C0010F7E96003024B147C0C7D00790085185B
:104A8C0082851983AA82AB83121091805D8518826E
:104A9C00851983AC82AD83AA08AB091211DB8A0C91
:104AAC008B0DA80CA90DE8497028EE4F605E851897
:104ABC0082851983AC82AD837A007B001211DBEA0C
:104ACC00F8EBF9EA4B604588828983E508F0A3E5A9
:104ADC0009F0124B1FFAEE6A7001EF602BEEF04FEB
:104AEC00700888828983E4F0A3F085188285198385
:104AFC00AA82AB831211E1851882851983AC82AD31
:104B0C00837A0CA90B1213D3790180027900741AE1
:104B1C0002538DE82402F582E93400F583E0227417
:104B2C00F71218177F00EF75F003A4F8A9F0EC2822
:104B3C00F8ED124B5EE06A7003A3E06B7006E8FAC6
:104B4C00E9FB800B0FEFC3940440DB7A007B00027F
:104B5C004F0939F9888289832274F71218177E005D
:104B6C00EE75F003A4F8A9F0EA28F8EB124B5EE01E
:104B7C00F4FCA3E0F4FD88828983ECF0A3EDF01241
:104B8C004B1FF4F00EEEC3940440D5024F0974F29F
:104B9C0012181774F41217C0EAFEEBFF8C088D097B
:104BAC0090081912558E7051EE4F7003024D23EC84
:104BBC0045097003024D231211F3E9900C83F0C3E5
:104BCC00940A4035750B007C0679FFE50B75F00EE9
:104BDC00A4FAABF074812AFA74073BFB1210F7E9C4
:104BEC006005850B0A800C050BE50BC3940A40D7B6
:104BFC00750A0AE50A900C83F0900C83E0C3940AC2
:104C0C004003024D2375F006E0A4FB9008191255E1
:104C1C008E706FEEFCEFFD7A0E74202BF91213D30D
:104C2C007C0C7D0079FF851882851983AA82AB8361
:104C3C00121091851882851983AC82AD837A0C9001
:104C4C000C83E02470F91213D3750C0E750D0078DB
:104C5C000C121A2AEEFCEFFD900C83E075F00EA4FA
:104C6C00F8A9F0748128FA740739FB1210797402D0
:104C7C001217D6900819E508F0A3E509F07900029F
:104C8C004D25E0C82406124D47601A7A1B74212B5F
:104C9C00F91213D3124D332406F582E83400F58350
:104CAC00E4F0A380D7124D33240A124D4760107ADA
:104CBC001B74222BF91213D3124D33240A80DA12EF
:104CCC004D33240C124D4760107A1074232BF912BB
:104CDC0013D3124D33240C80C0124D3C124D47603F
:104CEC002A7A1074242BF91213D3124D3CF582E856
:104CFC00124B252410FCA3E0124D2A900C83E0A447
:104D0C002425F91213D3124D3C808E90080DE060CF
:104D1C000312123B1212297901740C02538D3400C8
:104D2C00FD7A0475F00622900819E0F8A3E0C82279
:104D3C00900819E0F8A3E0C8240822F582E83400B2
:104D4C00F583124D54EC4D22E0FCA3E0FD2274F4EB
:104D5C0012181774F21217C0EAFEEBFFE9C3940A9B
:104D6C005004EE4F70047902803E851882851983B9
:104D7C00AC82AD837A0E75F006E9A42420F91213E7
:104D8C00D9E9F5087020750A06750B00780A121A15
:104D9C002A740212180BAC82AD83EEFAEFFB1210E0
:104DAC007974021217D6A90802456874F412181700
:104DBC00EAFEEBFF750800750A06750B00780A12FF
:104DCC001A2AEEFCEFFDE50875F00EA4F8A9F074B4
:104DDC008128FA740739FB12108B74021217D6E96A
:104DEC006004A908800B0508E508C3940A40C8793B
:104DFC000A02456D74F712181774F01217C0EAFE08
:104E0C00EBFF750800851882851983AC82AD837A17
:104E1C001075F006E508A42423F91213D9E9702CB7
:104E2C007C1079FF851882851983AA82AB831210B6
:104E3C00F7E97018EEFCEFFD851882851983AA82BC
:104E4C00AB831205EDE97004A908800B0508E50891
:104E5C00C3940A40B0790A74101217D6024F097421
:104E6C00F7121817750800E50875F00EA4F8A9F0EC
:104E7C00748128FE740739FFEEFCEFFD7A0E75F095
:104E8C0006E508A42420F91213D9E9602C7C067DD0
:104E9C000079FFEEFAEFFB1210917C067D0079FF92
:104EAC00EE2406FAEF3400FB121091EE240CF5827E
:104EBC00EF3400F583E4F0A3F00508E508C3940A89
:104ECC0040A590080DE0600312123B121229802DB0
:104EDC0074F71218177E007F007C0679FFEF75F0CF
:104EEC000EA4FAABF074812AFA74073BFB1210F78C
:104EFC00E970010E0FEFC3940A40DEEEF97F010258
:104F0C0018E974F71218177E00EEF91212110EEE52
:104F1C00C3940A5003E960F180E374F31218177418
:104F2C00CB1217C0E9FE900C83E06E701B7A017BEC
:104F3C0000900765E0F91210D97A027B00900765A2
:104F4C00E0F91210D912124775F006EEA4FF742086
:104F5C002FF508742712180BAC82AD837A0EA908B2
:104F6C001213D9E960030250607C0679FF74271292
:104F7C00180BAA82AB831210F7E960030250607C15
:104F8C000E7D0079FF742712180BAA82AB831210C6
:104F9C00917C1B7D0079FF740C12180BAA82AB83D9
:104FAC001210917C0C7D0079FF851882851983AADB
:104FBC0082AB83121091742712180BAC82AD837ADA
:104FCC000EA9081213D3E9F508740C12180BAC8255
:104FDC00AD837A1B74212FF91213D3E9F509740CE4
:104FEC0012180BAC82AD837A1B74222FF91213D3D7
:104FFC00E9F50A740C12180BAC82AD837A10742389
:10500C002FF91213D3E9F50B740C12180BAC82ADFB
:10501C00837A1074242FF91213D3E9F50C740C1243
:10502C00180BAC82AD837A0474252FF91213D3E9D3
:10503C00FF851882851983AC82AD837A0C74702E2F
:10504C00F91213D3E9F8E509450A450B450C4F480D
:10505C0042088003750800A90874351217D67F051D
:10506C000218E974F7121817E9900765F01211FF8E
:10507C00024F0974F4121817EAFEEBFF5480700308
:10508C00025117900765E0F91210BB8A088B09EAE8
:10509C004509607078018A828B83E02450603D144E
:1050AC00600624E1604F8052A3A3A3A3E0704E8A54
:1050BC00828B83A3A3A3A3A3A3A3121A418A828BDB
:1050CC0083A3A3A3A3A3124D548A828B83A3A312FD
:1050DC0051B61211BD74021217D68021A3A3A3A33B
:1050EC00E0641E701879008A828B83A3A31251B6D8
:1050FC001211B780081211C9E9F8E86007AA08ABC9
:10510C00091210A9EEFAEF64808065EE5402602358
:10511C007C007D007A007B001211E7E960117A01B6
:10512C007B00900765E0F91210D3EE6402803F7AA1
:10513C00028046EEA2E0503F12518A1251B6121272
:10514C0041E9602F12558B601F124952880889095A
:10515C00E8450960137C00790112518A1251B68519
:10516C000882850983121815121247EE6401FAEFB2
:10517C00FB80087A0180027A007B0002456D900862
:10518C0019E0F8A312496AA3227F020218E9C0822F
:10519C00C083900765E0F98A828B83A31251B61203
:1051AC000875803B850882850983E0FAA3E0FB2221
:1051BC00C082C08374FF1217C0121205E9C3940297
:1051CC00851882851983400474028002740AF0AC3D
:1051DC0082AD837A0179051206FB74011217D6D0C1
:1051EC0083D08202012274F212181774E81217C0CD
:1051FC00EAFEEBFF890A8C088D097C187D0079008A
:10520C00851882851983AA82AB8312109185188226
:10521C00851983EEF0A3EFF0900767E0C0E074020D
:10522C0012180BD0E0F0900768E0C0E0740312187D
:10523C000BD0E0F0900C82E0C0E0741712180BD089
:10524C00E0F0741512180BE054FEF8A3E0F9900C82
:10525C0081E0A2E0E433FAE84AF8741512180B1254
:10526C00539CA2E15004D2F08002C2F0E854FDFA43
:10527C00A2F0E43333F8EA48F8741512180B125301
:10528C009CA2E35004D2F08002C2F0E854F7FAA2D8
:10529C00F0E433F50C750D007403780C1217AD1295
:1052AC00539512180B12539CA2E45004D2F08002B6
:1052BC00C2F0E854EFFAA2F0E433F50C7404780C65
:1052CC001217AD12539512180B12539CA2E55004F1
:1052DC00D2F08002C2F0E854DFFAA2F0E433F50C0D
:1052EC007405780C1217AD12539512180B12539CAF
:1052FC00A2E25004D2F08002C2F0E854FBFAA2F011
:10530C00E433F50C7402780C1217AD125395121885
:10531C000BE8F0A3E9F0900768E0601D750C1078BD
:10532C000C121A2A7C697D07740612180BAA82AB20
:10533C008312107974021217D6900779E06011E588
:10534C000A6009741512180BE04402F0780180020F
:10535C007800741412180BE048F0900766E06004B3
:10536C00780480027800741412180BE048F0AC0832
:10537C00AD09851882851983AA82AB831206117434
:10538C00181217D67F060218E9EA450CF874152294
:10539C00E8F0A3E9F0900C81E02274F31218177472
:1053AC00E51217C0EAFEEBFF8C098D0A742812185F
:1053BC000BE0F50C75F006E9A4F87408650A7004A6
:1053CC0074228002742128F50B7C1B7D00790085EA
:1053DC001882851983AA82AB831210918518828555
:1053EC001983AC82AD837A1BA90B1213D9E97032E5
:1053FC00741A12180BE024F9C3940A5025E50CF525
:10540C000B780B121A2E740112180BAC82AD83E5BB
:10541C0009A2E0E433F9EEFAEFFB12062374011251
:10542C0017D6741B02506774F71218171208ED7513
:10543C000800E50875F00EA4F8A9F0748128FE7434
:10544C000739FF7C0679FFEEFAEFFB1210F7E970D3
:10545C0009EEFAEFFB79001208F30508E508C3948E
:10546C000A40CF024F0974F612181774FD1217C0B8
:10547C00EAFEEBFF90081B12558E703975081D75EE
:10548C0009087808121A2A7508027509007808129A
:10549C001A2A7508E07509907808121A2A7CFF7D83
:1054AC00FF7A017B0012073D74061217D690081B79
:1054BC00EAF0A3EBF090081B12558E7003025575A1
:1054CC00E4F508F5097808121A2A740412180B85E9
:1054DC0082088583097808121A2A740412180B851D
:1054EC0082088583097808121A2A90081D121A411D
:1054FC00790290081B12558312086374081217D690
:10550C00E97034851882851983E0FA740112180B3E
:10551C00E0F9EA2400F508E439F509EA45096017D1
:10552C007808121A2A90081B12518DA31255831257
:10553C0011BD74021217D6E4F508F5097808121A91
:10554C002A90081D121A417CFF7DFF90081B1251F6
:10555C00B612074974041217D690081BEAF0A3EB95
:10556C00F090081B12558E7004790180027900743A
:10557C00031217D6025195124D54EEFAEFFB2290FE
:10558C00077FE0F8A3E0F9E84922C082C0839008C5
:10559C001912558E60109008191251B61210A9905C
:1055AC000819E4F0A3F0900C83740AF00251EBC0DC
:1055BC0082C0839061907404F0A37448F0A3E4F06B
:1055CC009061807440F09061BC7407F090618774B6
:1055DC0069F09061B67416F07900120B5D790212C5
:1055EC000B639025BCE493F46006E493F9120B3939
:1055FC007905120E5D0259B6C082C083E9540FF9C9
:10560C00906185E0696012E5C654804449F5C6E5B1
:10561C009E547F644970F8E9F053C680E59E547F30
:10562C0070FA0259B674F7121817E5A8FE53A87E43
:10563C00120B45C2BA539AFEC289759B00C2C212A4
:10564C000B4B75A91175B905120B51D2BA439A01BE
:10565C0074805E42A8025F4DC082C083906181E479
:10566C00F0A30259B375E90075910075BF000201F2
:10567C0022C082C083906181E4F0A374C0F0A3E4E3
:10568C000259B5C082C08374F81217C09003A412DB
:10569C0068E6700302576E9003A4E05440602379CF
:1056AC0008851882851983AA82AB83120C59851838
:1056BC0082851983AA82AB831209119003A4E0544A
:1056CC00BFF0E054806010790C7A657B05120C59A0
:1056DC009003A4E0547FF0E0A2E0500F7900120B8D
:1056EC005D1209179003A4E054FEF0E05402600F21
:1056FC007901120B5D1209179003A4E054FDF0E040
:10570C005404600F7900120B6312091D9003A4E07E
:10571C0054FBF0E05408600F7901120B6312091D61
:10572C009003A4E054F7F0E05410600F7902120BD0
:10573C006312091D9003A4E054EFF0E05420600FB5
:10574C007903120B6312091D9003A4E054DFF0A33C
:10575C00E05401600D120B6F1209239003A5E05465
:10576C00FEF074081217D60259B6C082C083E960E5
:10577C000514602A804F90619A7433F0A37455F02D
:10578C009061A0743AF090053FE064017009C291F9
:10579C009003A67467802D9003A674618026906197
:1057AC009A743FF0A3745AF09061A0747FF0900546
:1057BC003FE064017009D2919003A674718005904A
:1057CC0003A6746AF00259B6C082C083E9600B1458
:1057DC00600D14601714600C80209025C08015900B
:1057EC0025C1801090053FE0640170059025C280B2
:1057FC00039025C3E493906186F00259B674EE12BF
:10580C00181774F41217C0851882851983AC82ADF1
:10581C008375839075826474041216D39025C0939B
:10582C00F46003025933907808E0C39402500302E9
:10583C005913740412180BAC82AD83758390758266
:10584C001674081216D3FC7EFF7FFF8E0C7D008C25
:10585C008285820E800F74086D606D74096D6068AE
:10586C00740A6D60638D087509007402780812174C
:10587C00AD12593D121690A909E50AC9F8881074A1
:10588C001878081215D1E5104508FAE9FBE50EC3A6
:10589C0033F8E433F9740412180BE58228F582E529
:1058AC008339125E3DC3E89AE99B4008E8C39AF835
:1058BC00E99B8006EAC398F8EB99F9C3E89EE99F47
:1058CC005006E8FEE9FF8D0C0DEDC3941340877470
:1058DC00FF6E700374FF6F6024850C0874027808E7
:1058EC001217AD12593D121690851882851983E551
:1058FC0082250EF582E5831262DCE508F00CECC320
:10590C009404500302585375080175090078081265
:10591C001A2A740212180BAC82AD837A707B0912AE
:10592C00128374021217D6740C1217D67F0A02183F
:10593C00E974482508F58274783509F583780822CE
:10594C00C082C083906186E0F89025C3E4936870B0
:10595C00099025C2E493906186F09061AE7468F072
:10596C00A3746AF090624574FBF0A304F053F4FD49
:10597C0043FE0290053F7401F09061A0E0643A7020
:10598C0004790080027901120B5D0259B6C082C005
:10599C00839004F1E06401700A9004F6E0600479ED
:1059AC000C800279008003F0A3F0D083D082020136
:1059BC0022C082C08375E1F19004F4E0604D146064
:1059CC0009146051146049147050120B819004EA50
:1059DC00E0F97AEB7B04120DDF9090981216AE1260
:1059EC000E159090901216AE120DEB9004F5E0F996
:1059FC00120DF77901120E51125AD924161262D9CE
:105A0C007499F0A3740BF07900809F120B8780BD02
:105A1C00120B8D80B8120B9380B3791280EB74F457
:105A2C0012181775D90D9004D5E0A2E0E4331313C6
:105A3C00F8125ACF484401F5D97800125B3C40FB70
:105A4C007800880874D612683C7404125B4640F2E5
:105A5C0075E1959004D5E0F97AD67B04120DE590AA
:105A6C000BB3740FF0A3740B125B4C125B90125BB4
:105A7C0087125CA49004F4E064019004E8700B12AB
:105A8C005AE21216909090B48009125AE2121690B3
:105A9C009090AC780812161C90905C780812166ADC
:105AAC00125AD9240E1262D9780812169F125AD99A
:105ABC0024141262D97413F09003A27402F07F04C0
:105ACC000218E99004EAE0C4333354C0229004E88D
:105ADC00E0F8A3E0C82212677478082274F6121852
:105AEC0017125C758AD97800125B3C40FB780080F9
:105AFC0006125BED125D2AE8C39940F5125C671241
:105B0C005B3C40FB780080081268387405125D2AF3
:105B1C00E8C39940F375E195900BB3741BF0A37433
:105B2C000B125B4C125B567412F09003A2025F11C5
