:020000040000FA
:0600000002010A0220C803
:03002B0002252883
:03003B0002254952
:030043000224D3C1
:0300530002213E49
:03006B000224F973
:10008300021F77E5C754F84401F5C7790122000040
:100093000080FB120086B900030200F4E4792178A2
:1000A30008B800028004F709D8FCE479297802B87B
:1000B30000028004F709D8FCE490028178527909A0
:1000C3008002F0A3D8FCD9FA900AD2AA82AB83901B
:1000D300013A785E79048015E493A3AC82AD838AF8
:1000E300828B83F0A3AA82AB838C828D83D8E9D9D8
:1000F300E77582427583A3740312011C758291759F
:100103008300740012011C75D00075813F7518813E
:10011300751902759F00020096C09FF59FE473D086
:100123009F22D083D082C09FE493C0E0740193C028
:10013300E0740293F59F22FF0000B400002800281A
:1001430000283075A000A000A000A000000800084F
:10015300E001F0001000100010001000100010006B
:1001630050005000500010001000D00700000000A5
:1001730000000F00010005003075070010000100AA
:1001830081FF00000000FF9506B3069B06FF0202F5
:100193000208025000A0000000E8030213910100CE
:1001A30000CB9002DB90010000290B02D3900100E9
:1001B30000B30202DB900100002A0B02D190010080
:1001C30000C90202DB900100002B0B02F990010031
:1001D30000CB0202DB900100002C0B02E59008002B
:1001E30000CC0202DB900100002D0B02E390010022
:1001F300002E0BFF0100FF20021391010000C890A5
:1002030002DB90010000920B02D990000000000075
:1002130002D7900300001903C50CC50CC50CC50C0F
:10022300C50CC50CC50CC50CC50CC50CC50CC50C43
:10023300C50C9B0FB30F950FFFFF020202020202D0
:10024300020202010D0000001001021391010000DF
:10025300CE9002DB90010000D50B02FB9001000061
:100263005D0702DB90010000D60B02F7900100004E
:100273009F8F02DB90010000D70B02F59001000075
:10028300838F02DB90010000D80B02F39001000082
:10029300BE8E02DB90010000D90B02F19001000039
:1002A300AC8E02DB90010000DA0B02EF900100003C
:1002B300F48E02DB90010000DB0B02ED90010000E5
:1002C300D08E02DB90010000DC0B02EB90010000FA
:1002D300918F02DB90010000DD0B02E99001000029
:1002E300DE0B01E803053F100AFF0001307503022E
:1002F30001060000000000000000000000000000F4
:100303000000000000000000000000000000FFFFEC
:100313000600800CE803140953696D706C65424C48
:10032300455065726970686572616C051208000852
:1003330000020A000201060302F0FF53696D706CAC
:100343006520424C45205065726970686572616C26
:100353002D14000033140A4368617261637465727B
:100363006973746963203100024368617261637465
:10037300657269737469632032000843686172614E
:100383006374657269737469632033001043686131
:100393007261637465726973746963203400024324
:1003A300686172616374657269737469632035008F
:1003B3000A43686172616374657269737469632067
:1003C300360010436861726163746572697374699E
:1003D30063203700021391010000059002DB9001B6
:1003E3000000F10C020D910300009F0A02E7900147
:1003F3000000F20C02DB90010000030D020F9101DB
:100403000000A00A02E790010000040D02DB900146
:100413000000150D021191020000A10A02E79001EC
:100423000000160D02DB90010000270D0209910068
:100433000000A20A02D790030000A30A02E790017A
:100443000000280D02DB90010000390D0207910422
:100453000000A90A02E7900100003A0D02DB9001B7
:1004630000004B0D020591030000AE0A02E7900164
:1004730000004C0D02DB900100005D0D02FF9000B7
:100483000000BD0A02D790030000CC0A02E79001E6
:1004930000005E0D1201258A9303120125A1930327
:1004A300120125D293031201250D9403120125375E
:1004B3009403120125619403120125789403120118
:1004C300258F9403120125A69403120125CF9403CB
:1004D300120125E29403120125F894031201250B5E
:1004E3009503120125329503120125019802120189
:1004F300250599021201253D9902120125609902F1
:100503001201256B99021201258E99021201259D74
:100513009A02120125729B02120125ED9B02120120
:1005230025759C02120125B09C02120125E79C024D
:10053300120125759D021201254E9E02120125AE60
:100543009E02120125B99E02120125389F02120153
:10055300253B9F021201253E9F02120125CD9F02DA
:10056300120125D09F0212012500A0021201252AA3
:10057300A00212012518A102120125CAA10212012B
:10058300259AE102120125C2E102120125F0E102DE
:1005930012012527E20212012585E202120125D06C
:1005A300E2021201251BE3021201255BE3021201A1
:1005B30025A1E302120125CFE3021201258CE402F7
:1005C30012012596E402120125A3E402120125D6A5
:1005D300E402120125A2E502120125AEE502120191
:1005E30025C6E502120125D0E502120125C8A003A4
:1005F300120125D6A003120125EEA0031201250640
:10060300A10312012511B101120125BDB10112018E
:100613002538B20112012559B30112012595B30101
:100623001201253EB40112012525B50112012589C8
:10063300B601120125E0B60112012561B7011201CD
:100643002551B8011201259EB80112012524B901D3
:1006530012012556B9011201256ABB01120125AC0D
:10066300BB01120125CABB011201254DBC011201B8
:100673002521BD01120125E9BD01120125B4D502D1
:1006830012012587D60212012530D70212012583D4
:10069300D70212012533D802120125BFD802120155
:1006A30025ABD902120125DAD902120125EDDA02AE
:1006B30012012535DB021201250ADC02120125464F
:1006C300DC0212012562DC021201259FA103120143
:1006D3002546F8021201255CF80212012582F80270
:1006E3001201259EF902120125A8F902120125DD46
:1006F300FA02120125D5FB02120125D97A00120153
:1007030025097C001201253C7C00120125867C0012
:100713001201254D7E0012012522A1011201258C13
:10072300A101120125EBA201120125FBA201120175
:100733002528A3011201257FA30112012528A40165
:100743001201252FA501120125F9A5011201255931
:10075300A7011201259CA70112012541A80112013D
:10076300258EA801120125B4A801120125C2AA01F0
:10077300120125C7AA01120125CCAC0112012519CA
:10078300AD011201258CAD01120125BFAD0112018E
:100793002561AE011201250AAF0112012542AF0105
:1007A30012012545AF011201258DAF01120125CD9F
:1007B300AF0112012524B001120125B589031201ED
:1007C30025CD8903120125158A031201252B8A03DE
:1007D300120125728A03120125868B031201251348
:1007E3008C031201255E8C03120125BC2500120126
:1007F30025C82500120125032600120125482600DD
:100803001201250827001201258E2700120125F366
:1008130027001201251F2800120125582800120164
:1008230025962A001201257A2C00120125602E003C
:10083300120125A32F00120125F131001201250316
:1008430033001201254E34001201255E35001201DA
:10085300257B3500120125B63500120125D8350058
:100863001201253B3600120125FC3A0012012591A5
:100873003B00120125E23B00120125093C00120155
:10088300255B3C00120125793C00120125D33C0075
:10089300120125BC3D00120125323F00120125B68D
:1008A3003F0012012508EB0212012512EB0212018F
:1008B3002555EB0212012570EB0212012500EC0213
:1008C30012012528EC0212012565EC021201259C78
:1008D300EC02120125C5EC021201253AED021201C8
:1008E300254FED0212012564ED0212012595ED025B
:1008F300120125A9ED02120125CEED0212012508F0
:10090300EE0212012534EE02120125C0EE0212019D
:1009130025EBEE0212012534EF021201255EEF02F0
:1009230012012589EF02120125A99C03120125005A
:1009330080021201252E80021201257C8102120100
:10094300255C82021201257B8202120125F88202B4
:100953001201253B830212012591840212012552C3
:100963008502120125D987021201257A8802120114
:10097300257089021201256D8A02120125C78B0297
:10098300120125528C021201251A9A0312012583A2
:100993009A03120125D79A03120125FE9A03120125
:1009A300252F9B03120125B1EF021201251EF00230
:1009B30012012565F0021201257DF102120125794C
:1009C300F2021201255CF3021201257EB502120127
:1009D30025C0B50212012592B6021201256BB7029A
:1009E30012012565B80212012547B902120125B08B
:1009F300B90212012566BA02120125DABA021201FE
:100A03002546BB021201256FBB02120125E9BB0279
:100A130012012582BC02120125E7BC02120125FC4A
:100A2300BC0212012542BD021201255BBD02120167
:100A330025C0BD02120125C3BD02120125BC8603D8
:100A4300120125E48603120125228703120125E002
:100A530087031201254788031201256388031201C6
:100A6300258B8803120125BB8803120125CA88033D
:100A73001201254789031201256D89031201251AE5
:100A83009101120125B89201120125D3940112019B
:100A9300250F95011201253C95011201252196018F
:100AA300120125689601120125AC9601120125BE9B
:100AB3009601120125FE96011201252B97011201C1
:100AC30025769701120125B69701120125E49701B6
:100AD300120125369801120125C6980112012564D9
:100AE3009B011201257A9D01120125B89D01120176
:100AF30025499F011201258E9F0112012505A001A1
:100B03001201254FA001120125F7A00112012505AD
:100B1300AC0212012584AC0212012546B202120175
:100B23002555B302120125BDB40212012554B502A5
:100B3300120125B35500120125FC55001201252988
:100B430056001201255C5600120125695600120158
:100B5300257556001201258756001201256E570090
:100B6300120125CC5700120125015800120125441A
:100B73005900120125915900120125B5590012019E
:100B830025225A00120125E05A00120125995B0023
:100B9300120125065C00120125B85C00120125C86C
:100BA3005C001201254F5D001201250E5E0012014B
:100BB300253B5E00120125B45E00120125115F0082
:100BC3001201255B5F00120125F15F00120125BCB4
:100BD3006000120125716100120125E66100120116
:100BE30025476200120125B16200120125EA620065
:100BF3001201258C63001201259C6400120125DC7F
:100C03006400120125F96400120125186500120120
:100C1300255F6500120125846500120125B1650079
:100C23001201252B66001201256C66001201259026
:100C33006700120125406800120125976800120120
:100C4300250169001201251A69001201253BA20240
:100C53001201258EA2021201259AA2021201256F0A
:100C6300A30212012596A302120125D1A3021201A8
:100C7300253DA40212012579A402120125B2A40282
:100C8300120125CAA4021201251FA502120125384B
:100C9300A50212012581A50212012594A5021201C4
:100CA30025AEA502120125C4A502120125F7A6024D
:100CB3001201253EA80212012540A9021201253A7C
:100CC300AA02120125F8FF011201259CEA01120173
:100CD30025CCEA0112012594EE01120125EBEF0167
:100CE300120125B4F00112012534F2011201250588
:100CF300F30112012542F30112012565F3011201EB
:100D030025A3F301120125ACF301120125F6F3012A
:100D130012012500F401120125AAF4011201258311
:100D2300F501120125D7F50112012539F60112014A
:100D3300258CF601120125BBF601120125F8F601F7
:100D43001201254C6900120125B36C00120125B96B
:100D53006C001201253B7200120125B476001201CA
:100D6300258A7A001201256A8303120125E0830391
:100D7300120125F68303120125378403120125711D
:100D83008403120125EA8403120125258503120138
:100D930025988503120125D68503120125DF8503D6
:100DA300120125EB85031201250786031201253263
:100DB30086031201254886031201258C860312013E
:100DC30025D7DC02120125EADC0212012504DD022B
:100DD3001201252DDD0212012570DD02120125AF5E
:100DE300DD02120125EDDD0212012552DE021201A0
:100DF3002567DE0212012572DE021201257FDE0263
:100E030012012596DE02120125A4DE02120125AF8E
:100E1300DE02120125BBDE02120125CEDE02120123
:100E230025D9DE02120125FCDE02120125A3DF0211
:100E3300120125B3DF02120125CDDF02120125EADB
:100E4300DF0212012506E0021201252BE002120146
:100E53002536E0021201254BE0021201255FE00274
:100E6300120125C0E002120125C6E002120125CCC1
:100E7300E002120125D2E002120125EAE00212018A
:100E8300251DE10212012573CE01120125F7CE01C2
:100E9300120125A6CF0112012505D1011201252634
:100EA300D30112012512D40112012547D4011201E5
:100EB3002569D40112012518D50112012510D70186
:100EC30012012539D701120125CBD701120125FDC6
:100ED300D7011201250AD80112012561D801120197
:100EE3002587D801120125F4DA01120125F7DB0168
:100EF3001201254FDC0112012502C0011201250C4C
:100F0300C101120125F3C101120125FDC101120125
:100F1300251FC2011201252BC201120125C4C301E1
:100F2300120125F3C3011201250FC5011201256822
:100F3300C501120125CEC601120125ADC70112015B
:100F43002509C80112012576C801120125B1C8017E
:100F5300120125F0C801120125A9CB01120125C3F5
:100F6300CB011201254FCC011201255DCC011201E9
:100F730025B6CC01120125C4CC0112012537CD01C0
:100F83001201259BCD01120125E5CD01120125D3C7
:100F93008C02120125F58C021201251B8F0212010E
:100FA30025309202120125489302120125FB930278
:100FB300120125DD940212012544950312012569CE
:100FC3009503120125DB9503120125D3F7011201C5
:100FD30025DCF701120125E5F701120125BCF80113
:100FE3001201256DFA01120125A3FA01120125DD73
:100FF300FA0112012513FB011201254DFB01120118
:101003002581FB01120125ADFB01120125F6FB0130
:1010130012012530FC0112012579FC01120125D1B1
:10102300FC0112012506FD0112012561FD011201DA
:10103300259BFD01120125ECFD0112012522FE0174
:101043001201255CFE011201258AFE01120125AD64
:10105300FE011201254DFF0112012579FF01120145
:1010630025D4FF01120125DEFF01120125EEFF0148
:10107300120125E7BD02120125F1BD021201252F40
:10108300BE0212012578BE02120125B2BE02120170
:10109300250CBF021201252DBF0212012505C20234
:1010A3001201250EC2021201255BC2021201258420
:1010B300C2021201258EC202120125FAC2021201D6
:1010C300258CC302120125D6C3021201250CC402CA
:1010D30012012598C402120125D9C4021201251058
:1010E300C50212012522C50212012541C5021201C2
:1010F300254AC50212012512C602120125D19F03FA
:10110300120125999103120125CF9103120125059F
:10111300920312012550930312012523A203120106
:101123002539A20312012543A2031201258DA2032F
:101133001201251EF40212012533F402120125E6E1
:10114300F40212012526F5021201253FF5021201D0
:10115300257AF502120125C7F502120125F9F502D8
:101163001201253BF6021201258B9803120125B4C7
:101173009803120125E398031201257B99031201B9
:1011830025939903120125D59903120125888C0310
:10119300120125AD8C03120125D78C03120125EC16
:1011A300A2031201251D40001201258242001201F3
:1011B30025234400120125D744001201256A450066
:1011C300120125EF45001201251446001201256A7C
:1011D3004900120125F04900120125234B00120199
:1011E300255D4B00120125924B00120125524D0043
:1011F300120125AF4D00120125F84D0012012563A0
:101203004E00120125D44E00120125064F00120193
:10121300251E4F001201256750001201257750004B
:10122300120125925100120125B45100120125EA41
:1012330051001201259E53001201252B5400120167
:10124300256A54001201258E550012012586A40338
:1012530012012595A303120125D4A303120125E34B
:10126300FF021201254BFF021201255BFF0212014F
:101273002573FF02120125D9FF02120125CD9E031A
:10128300120125529F03120125B89F03120125C2A3
:101293009D03120125E99D031201253F9E031201BF
:1012A300258F9E031201250080031201251580035B
:1012B300120125598103120125D581031201254904
:1012C30082031201256382031201257A820312012C
:1012D300258D8203120125A78203120125BE8203F5
:1012E300120125E482031201253583031201259798
:1012F300A403120125DFFB021201256FFC02120178
:1013030025FBFC0212012594FD0212012525FE0294
:101313001201252EFE02120125ACFE02120125BF89
:10132300FE02120125D5FE0212012535FF0212012C
:101333002548FF02120125759B03120125E59B0336
:10134300120125F09B03120125009C031201250BBA
:101353009C03120125279C03120125E99603120120
:10136300253B9703120125C597031201252C9803EA
:10137300120125548F031201257E8F031201254C80
:10138300900312012527910312012540C602120181
:101393002507C7021201253EC70212012568C702AD
:1013A300120125C8C7021201251EC8021201258396
:1013B300C8021201251BC9021201252ACA02120101
:1013C30025C1CB021201254ECC02120125B5CC0258
:1013D300120125CCCC02120125E6CD0212012524EF
:1013E300CE021201259DDC011201251EE00112012E
:1013F30025A6E101120125FDE1011201251CE201EF
:101403001201259AE20112012530E401120125158A
:10141300E50112012523E901120125F9E901120170
:101423002582CE021201255ED102120125B3D2021A
:10143300120125D7D302120125DBD4021201256242
:10144300D50212012557E602120125A7E602120171
:1014530025C4E602120125ECE70212012565E80224
:101463001201253DE902120125CFEA0212012514DA
:10147300A403120125DEA30312012540A4031201D4
:101483002568A403E066701008A3E066700A08A349
:10149300E066700408A3E06622C3E7960809E796AE
:1014A3000809E7960809E79622C3E09608A3E096A1
:1014B30008A3E09608A3E09622C008C3E096F508C7
:1014C30008A3E096420808A3E096420808A3E09622
:1014D30045087001D3D00822080808EAC0E0EBC031
:1014E300E086F0E7A4FA180986F0E7A42AFA1809B7
:1014F30086F0E7A42AFA180986F0E7A42AFA1986DF
:10150300F0E7A4FBE5F02AFA190886F0E7A42BFB21
:10151300E5F03AFA190886F0E7A42BFBE5F03AFA6E
:1015230018180986F0E7A4C5F02BFBE43AFA19086A
:10153300E7C5F0C6A426F6E5F03BFBE43AFA1886C5
:10154300F0E7A4F6E5F00826F6E43B08F6E43A08EB
:10155300F6D0E0FBD0E0FA22E4CFC0E0E4CEC0E076
:10156300E4CDC0E0E4CCC0E075F020C3E633F60878
:10157300E633F608E633F608E633F6181818EC33C4
:10158300FCED33FDEE33FEEF33FFC3EC9709ED972C
:1015930009EE9709EF97191919400FFFEC97FC090A
:1015A300ED97FD09EE97FE191906D5F0BEECF70984
:1015B300EDF709EEF709EFF7191919D0E0FCD0E0C0
:1015C300FDD0E0FED0E0FF226016080808C6C31372
:1015D300C618C613C618C613C618C613C6D5E0EA7E
:1015E300227009080808226016181818C6C333C6E3
:1015F30008C633C608C633C608C633C6D5E0EA22D2
:10160300E627F60809E637F60809E637F60809E695
:1016130037F622E026F608A3E036F608A3E036F60E
:1016230008A3E036F622E026F008A3E036F008A38C
:10163300E036F008A3E036F022C3E697F60809E6A1
:1016430097F60809E697F60809E697F622C3E096A7
:10165300F008A3E096F008A3E096F008A3E096F064
:1016630022E056F608A3E056F608A3E056F608A3D0
:10167300E056F622E056F008A3E056F008A3E05641
:10168300F008A3E056F022E0F608A3E0F608A3E092
:10169300F608A3E0F622E6F008A3E6F008A3E6F0D6
:1016A30008A3E6F022E0FAA3E0FBA3E0FCA3E0FD3D
:1016B30022EAF0A3EBF0A3ECF0A3EDF022CAC0E022
:1016C300E6F0A308DAFAD0E0FA22CAC0E0E0A3C544
:1016D30082CCC582C583CDC583F0A3C582CCC58228
:1016E300C583CDC583DAE6D0E0CA22C3E498F8E423
:1016F30099F912172F8026C3E49AFAE49BFBE92099
:10170300E7E912172FE498F8E499F922C3E498F86B
:10171300E499F912172FE498F8E499F9C3E49AFAD3
:10172300E49BFB22EB20E7CFE920E7E0B90010BB05
:101733000008E88AF084F8AAF022E4FBC8FA22EB56
:1017430070227B10C833C8C933C9335007C39AC347
:10175300DBF280069A50012ADBEAC833F4C8C933A6
:10176300F4C9FA2275F008E4C833C8C933C933C9C8
:101773009AC99B5004C92AC93BD5F0ECFBC833F482
:10178300C8E4C9FA22600D08C6A2E713C618C61337
:10179300C6D5E0F322600C08C6C313C618C613C629
:1017A300D5E0F422700422600D18C6C333C608C600
:1017B30033C6D5E0F41822251810AF08F5184002F7
:1017C30015198008F51840021519D2AF22C0D0258B
:1017D3001810AF08F518500205198008F5185002C3
:1017E3000519D2AFD0D0222518F58210AF08F5180D
:1017F300400215198008F51840021519D2AF851952
:1018030083222518F582E43519F58322E47325181C
:10181300C582C0E0E51934FFC583C0E0E518C39570
:101823008224F810AF088583198582188008858380
:1018330019858218D2AFCEF0A3E520F0A37808E68D
:1018430008F0A3DEFAEFF0A3E58124FAF8E608F046
:10185300A3E608F0A3E608F0A30808E608F0A3E669
:1018630008F0A315811581D0E0FED0E0F8158115AD
:10187300811581E8C0E0EEC0E0222518C582C0E0F2
:10188300E51934FFC583C0E0E518C3958224F91038
:10189300AF08858319858218800885831985821886
:1018A300D2AFCEF0A3E520F0A37808E608F0A3DEDC
:1018B300FAEFF0A3E58124FBF8E608F0A3E608F0CD
:1018C300A30808E608F0A3E608F0A315811581D064
:1018D300E0FED0E0F815811581E8C0E0EEC0E0221B
:1018E300851983851882E0A3FEE0A3F5207808E03C
:1018F300A3F608DFFAE0A3FFE0A3C0E0E0A3C0E0A3
:10190300E0A3C0E0E0A3C0E0E0A3C0E010AF08851F
:1019130082188583198008858218858319D2AFD0F0
:1019230083D082020122851983851882E0A3FEE019
:10193300A3F5207808E0A3F608DFFAE0A3FFE0A30D
:10194300C0E0E0A3C0E0E0A3C0E0E0A3C0E010AFCC
:10195300088582188583198008858218858319D2A2
:10196300AFD083D08222C0D02518C582C0E0E5194C
:1019730034FFC583C0E0E518C3958224F310AF0894
:101983008583198582188008858319858218D2AFCB
:10199300C8F0A3E9F0A3EAF0A3EBF0A37908E70901
:1019A300F0A3D8FAECF0A3EDF0A3EEF0A3EFF0A3CD
:1019B300D0E0F0A3D0E0F0A3D0E0F0A3E520F0A3C3
:1019C300E5F0F0A322851983851882E0C0E0A3E047
:1019D300F9A3E0FAA3E0FBA37808E0F608A3DFFA93
:1019E300E0FCA3E0FDA3E0FEA3E0FFA3E0C0E0A3CF
:1019F300E0C0E0A3E0F5D0A3E0F520A3E0A3F5F079
:101A030010AF08858319858218800885831985821C
:101A130018D2AFD082D083D0E0F8D0E03274048003
:101A230006740280027401C0E0F4041217EAD0E0E5
:101A33001216C0227404800474028000CCC0E0ED4E
:101A4300C0E0E518C39CCCAD1950011D10AF068C46
:101A5300188D1980068C188D19D2AF1216CDD0E0CF
:101A6300FDD0E0FC22D083D082E9C0E0E493A3C39D
:101A730086F0C5F095F0F908E493A386F0C5F095D8
:101A8300F0700BE493A3C3994005E9048002A3E437
:101A930075F002A42582F582E5F03583F583D0E065
:101AA300F9E493A3C0E0E493C0E022D083D082ECB6
:101AB300C0E0EDC0E0E493A3FCE493A3FDED4C6030
:101AC3000D121AFAEC24FFFCED34FFFD80EFE493D2
:101AD300A3FCE493A3FDED4C600D121B39EC24FF32
:101AE300FCED34FFFD80EFD0E0FDD0E0FCE493A3F8
:101AF300C0E0E493C0E022C0E0C3E493960874011D
:101B0300939618400FE4936670080874019366185F
:101B130070007019A3A3C3E49396087401939618F5
:101B2300A3A3400DD0E0D0E0D0E0021AEAA3A3A320
:101B3300A3A3A3D0E022C0E0C0F088F0E4936670D2
:101B4300080874019366187000A8F0A3A3700BD063
:101B5300F0D0E0D0E0D0E0021AEAA3A3D0F0D0E0C6
:101B63002274F512187DEAFEEBFFEE2434F8EF340D
:101B730000F988088909EE2435121C90F8EE243701
:101B8300121C90F50AEC850AF0A4FCAAF0850AF071
:101B9300EDA42AFDE82CF8E43DF97A257B00121721
:101BA3002FEA850882850983F074075AF87401B80F
:101BB30000028004C333D8FCFBEA131313541FF849
:101BC300EE28F8EF3400F9E8245DF582E9121C935E
:101BD3005B6003EA801CEE2436121C90F5F0EA8465
:101BE300A8F0EE28F8EF3400F9E82438F582E9127A
:101BF3001C93F97F0402192974F512187DEAFEEB90
:101C0300FFEE2434121C90C0E0EE2435F582EF344D
:101C130000F583D0E0F08E828F83A3A3A3A3A3E078
:101C2300FAA3E0FB8E828F83A3A3A3A3A3A3A3E0C2
:101C3300FCA3E0FDECC39AF50AED9BF50BEE247FC4
:101C4300F508EF3400F509850882F583E064017037
:101C53002BEE2480F582EF3400F583121A3B121C1D
:101C63009974021217D0E960137CDC7D04EEFAEF5D
:101C7300FB120BED850882850983E4F0AC0AAD0BFA
:101C8300EEFAEFFB121B641224BF021BF6F582EF80
:101C93003400F583E022C082C083851882851983CE
:101CA300E0F8A3E0F9C3EA9CEB9D5010C3EC98ED78
:101CB30099401BC3EA98EB995014800EC3EA98EB42
:101CC300994007C3EC98ED994004790180027900AB
:101CD300D083D08222EAC39CFAEB9DFB2274ED12DF
:101CE300187D9003A2E064086005E06407702C90FF
:101CF30061C8E060269003D0E0F874FF68601CE8D8
:101D030075F003A4C8AAF02AF974D228FE74033923
:101D1300FF8E828F83A3A3A3E070057900021E8048
:101D2300EE2468F510EF3400F511906060E0851043
:101D330082851183F0750A45750B057508007509D1
:101D430000E5D914F50EE5D95403F50F601CEE2414
:101D530082F50CEF3400F50D7403650F6058E50E42
:101D63006013EE2467121C90700B793DEEFAEFFBC3
:101D7300120C1180A6900540E064016026850C8258
:101D8300850D83E06004780480027800850E08E501
:101D930008C398FA95E0FB120A918A088B09EA4571
:101DA300097006120E69021D1E850C82850D83E0E3
:101DB30070048A0A8B0B78008016E5D9C0E088127C
:101DC300E50A2512F582E50B3400F583D0E0F0082F
:101DD300E8C3950E40E4850C82850D83E06028748A
:101DE300FC250EF50E780A121A24AC0EA90FEEFA92
:101DF300EFFB120CBF74021217D0E9700AAA08ABEA
:101E030009121361021D6D7403650F6058850E0C72
:101E1300750D00780C121A24AC0AAD0BAA08AB0995
:101E2300120C8374021217D0851082851183E0F897
:101E33007480687005750C7F8002880CE50CF50AC8
:101E4300780A121A28E50FF50A780A121A28A90E39
:101E5300AC08AD099003D0E0FA7B001209297402A3
:101E63001217D080139003A2E06408600BAC0AAD94
:101E73000BEEFAEFFB120D55120E7579017F0C0272
:101E8300192974F312187D74FC1217BAEAFEEBFFDA
:101E93008908A2AFE433F509C2AFEE2463F50AEF74
:101EA3003400F50B8010AA0AAB0B120C3B12136122
:101EB3009004E3E004F0850A82850B83E0F8A3E055
:101EC300F9E849602FE82402FAE93400FBEA240226
:101ED300F50CEB3400F50D780C121A248A828B83EF
:101EE300E0FCA3E0F9EEFAEFFB120C2F74021217D9
:101EF300D0E960B29004E3E060579004E4E0F89026
:101F030004E3E0C398500C7402650870449004E540
:101F1300E0603E8E828F83A3A3A3A3E0851882850E
:101F23001983121F647402121805E8121F649004C7
:101F3300E2E028F07402121805AC82AD83851882A2
:101F4300851983AA82AB8379011209359004E3E4EE
:101F5300F0E509A2E092AF74041217D07F060219CC
:101F630029F0A3E4F09004E3E0F822000085218740
:101F73008522C622C0E074EF121969A2AFE433FED2
:101F8300C2AF759B00906182E0A2E05012E591A27E
:101F9300E0500C7591FE740165217003121CE0E0A2
:101FA300A2E55051E591A2E5504B7591DF9003A254
:101FB300E064076005E064087023740165217035EF
:101FC30079019003D0E0FA75F003A4CAA8F028FBC6
:101FD30074D22AFA74033BFB121E858018E0640D49
:101FE30070139003C4E004F064287002E4F07A00F4
:101FF300E0F9120E7B906182E0A2E6400302209E8C
:10200300E591A2E6400302209E7591BF9003A2E0F2
:1020130064057008120D97120DA38003120D9D75B0
:102023002100120E09E99003A3F07900120DFD12AD
:102033000B577A017B009003A1E0F91210D390783B
:1020430003E064427055900544E014F0704DC2AF54
:1020530012205600782AD0E0F618D0E0F6E59F5417
:102063000770057509FF800375097FC4C0E07829EF
:10207300E6F50808E65509F509740B780812179870
:10208300D0E02508F8906270E0A2E740F8E8C33397
:10209300906272F0906270E0D2E0F0906181E0A211
:1020A300E35009E5E9A2E3500375E9F7A3E0A2E7EA
:1020B3005009E591A2E7500375917FEEA2E092AF3C
:1020C3007F040219C8C0E0C0D0C082C0839061837E
:1020D300E0A2E05009E5BFA2E0500375BFFEE0A215
:1020E300E15009E5BFA2E1500375BFFDE0A2E25054
:1020F30009E5BFA2E2500375BFFBE0A2E35009E587
:10210300BFA2E3500375BFF7E0A2E45009E5BFA205
:10211300E4500375BFEFE0A2E55009E5BFA2E55027
:102123000375BFDFE0A2E65009E5BFA2E6500375E1
:10213300BFBFD083D082D0D0D0E032C0E074F212DF
:102143001969E5A7A2E4500FE5A1A2E4500953A73A
:10215300EF75A1EF122192E5A7A2E5500CE5A1A22C
:10216300E5500653A7DF75A1DFE5A7A2E15009E516
:10217300A1A2E1500375A1FDE5A7A2E2500CE5A1E0
:10218300A2E2500653A7FB75A1FB7F010219C87495
:10219300F812187D7521019003A2E0640670077A96
:1021A300007B00120D7FA2AFE433FED2AF9003A8F1
:1021B300E0640170187A207B009003A1E0F912110A
:1021C300577A207B009003A1E0F91210D990618225
:1021D300E0D2E6F0900541E0602185C622801690AA
:1021E30003A7E064017008E5C654F84405F5C65337
:1021F300BEFC121F707401652160E4EEA2E092AF91
:102203007F010219298E238F2485822885832785C0
:102213001882851983E0CEA3E0CF852882852783A2
:10222300EBC9EAC8EDCBECCA75F010C3E833C8E9D3
:1022330033C9EA33CAEB33CBC3EA9EF526EB9FF5EA
:1022430025B35004AB25AA26EC33CCED33CDD5F022
:10225300DAAE23AF242274F112187D8A088B098C1D
:102263000A8D0B9090587808121664740F12180593
:10227300780C12168A909058780C121664780879A4
:102283000C12149C90906850107808790C12163C2C
:1022930078081214BC4014800E780C790812163C8E
:1022A300780C1214BC50047901800279007F080273
:1022B300192974ED12187D8A088B098C0A8D0B90ED
:1022C300905878081216647413121805780C1216B5
:1022D3008A909058780C121664780C790812149C22
:1022E30040117808790C12163CAA08AB09AC0AAD68
:1022F3000B8022751000751100751200751301789B
:1023030010790C12163C78107908121603AA10AB38
:1023130011AC12AD137F0C02192990905878081252
:10232300168A8A828B8378081216777F040219290A
:1023330074F512187D8C828D83780812168A8A822E
:102343008B837808121650122387C3E098F0A3E01A
:1023530099122379401E9090B4780812168A8A82C3
:102363008B8378081216298E828F83E02420F0A3B2
:10237300E0344EF080A4F08E828F83C3E09420A3D8
:10238300E0944E22EA2404F8EB3400F9E8FEE9FF76
:102393008C828D83A3A3A3A3E0F8A3E0F98E828F9D
:1023A300832274F512187DE9FE9004F7E0FAA3E0A6
:1023B300FBEEC333F8E433F9741728F582748F39CD
:1023C300F583E02AF508A3E03BF5097808121A24FF
:1023D3009090A01216A812220874021217D08A082D
:1023E3008B098C0A8D0B741078081215CBAA08ABD5
:1023F300097F0402192974F112187D8A0C8B0D8C44
:102403000E8D0F740F121805E0FAA3E0FB7411127E
:102413001805E0F508A3E0F5097808121A24EA2460
:1024230001F508EB3400F509E4F50AF50B780C79AE
:10243300081214DB909060780812168A780C7908D9
:102443001214DBAA0CAB0DAC0EAD0F1222087402F2
:102453001217D08B09EA450960047A0180027A00D9
:10246300EC2AFCED3400FD7413121805E0F8A3E028
:10247300F9E8FEE9FFECF8EDF97A717B0212172F08
:1024830088088909E4F50AF50B8E828F8378081290
:102493001699ECF8EDF97A717B0212172F8A088BE3
:1024A30009740578081217A78E828F83A3A3A3A3A9
:1024B300E508F0A3E509F07F08021929C082C0836B
:1024C300E9906000F0D083D08222C2AF02000022E4
:1024D300C0E074F2121969A2AFE433FED2AFC2C0F6
:1024E300E5D1A2E4500653D1EF121331EEA2E092EC
:1024F300AF7F010219C8C0E074F2121969A2AFE4F8
:1025030033FED2AFE589A2E04006E589A2E150039C
:102513001212A1758900758900C2C5EEA2E092AFBF
:102523007F010219C8C0E0C0D0E8C0E0E9C0E0E51F
:10253300A8D2AFC2C7A2E7A2E792AFD0E0F9D0E03A
:10254300F8D0D0D0E032C0E0C0D0E8C0E0E9C0E0CD
:10255300C008C009C082C083A2AFE433F9D2AF90F0
:1025630009D3E0F8A3E0687008539AFBA3740180D1
:1025730026C2E99009D3E0F50874012508F07453E5
:102583002508F58274093400F583E0F5C19009D379
:10259300E0C394804002E4F0E9A2E092AFD083D09C
:1025A30082D009D008D0E0F9D0E0F8D0D0D0E03222
:1025B400FFFFFFFFFFFFFFFFC082C083E9900B9185
:1025C400F002284B74F7121811E99002E1F07C191B
:1025D4007D037AFF7BFF12087B9002E274FFF0A375
:1025E400F0A3E4F0A3F079051208039002E1E0F906
:1025F4001207257A997B08120A437F010218E374B3
:10260400F41218118A088B09EB548060309002E1AF
:10261400E0F91210BB8A0A8B0BAE0AAF0BEE4F60C7
:10262400138E828F83E064B0700312081BEEFAEFFE
:10263400FB1210A9AA08E5096480FB80047A007BD8
:102644000002281A74F212181174FC1217BAEAFE66
:10265400EBFFEE4F60387402121805EEF0A3EF1290
:102664002A7FECF0A3ED122A7FAA82AB8312071F04
:10267400E9F50870737412121805123633E50A4529
:102684000B60658E828F831226F6EE4F70057508F7
:102694000280557A067B0012110F8A0C8B0DA80C50
:1026A400A90DE8497005750813803D88828983E483
:1026B400122700A3A3EEF0A3EF123ACCE50AF0A38D
:1026C400E50BF09002E71227889002E76017E0FC20
:1026D400A3E08003EAFCEBFD8C828D8312278870D3
:1026E400F38C828D83123558A90874041217D00212
:1026F4003CCEA3A3A3A3E0FEA3E0FF22F0A3F088B3
:102704008289832274F2121811890AE975F017A4D8
:10271400FEAFF09002E6E4F09002E4122788600A2B
:102724001211159002E4E4F0A3F0EEFAEFFB12119B
:102734000F8A088B09EA4509602FEEFCEFFD79004A
:102744001210919002E4E508F0A3E509F07B008003
:1027540008122772E4F0A3F00BEBC3950A40F2E5EC
:102764000A9002E6F0790080027913023CCEEB7500
:10277400F017A4F8A9F09002E4E028FAA3E0398A5B
:1027840082F583221232EEEA4B2274F41218117588
:102794000800750900740C121805123AA0FEE9FF2E
:1027A400800CE5082401F508E5093400F509C3E5C2
:1027B400089CE5099D503285080A85090B74037845
:1027C4000A1217A7EA250AF8EB350BF988828983E0
:1027D400A3A3A3A3A3A3123633EE650A7003EF6584
:1027E4000B70BFE8FAE9FB80047A007B0080277451
:1027F400F41218117900EAA2E0501B75083E75091D
:10280400907808121A247C047D007A937B0B1207BB
:10281400FD74021217D07F040218E3C082C08390B3
:1028240002E7122852601C88828983A3A3E06A709D
:1028340003A3E06B8882898370E8A3A3A3A3123265
:10284400EA80047A007B00D083D082020122123D08
:10285400A1E8492274EE12181174FC1217BAEAFEA8
:10286400EBFF851882851983E4F0A3F0EE240212AD
:10287400353CEE2405122A6DEE2404F50EEF122EDB
:1028840052E024FE603924FC604624FE605224FE9B
:10289400605E24FE700302297224FE70030229EA9A
:1028A40024FE70030229F924FE7003022A0824FC82
:1028B4007003022A1724FE7003022A26022A639058
:1028C40003007417F0A3E4122A8712049D022A63FA
:1028D400851882851983AC82AD83120821022A33BC
:1028E400851882851983AC82AD83120827022A33A6
:1028F400850C08850D097402121805AC82AD838518
:1029040008828509831232EA1207438A0C8B0DACC4
:102914000CAD0DEC4D6042E4F50CF50D780C121A7B
:1029240024750C00750D03780C121A24750C0175AE
:102934000D03780C121A247408121805121A3B7924
:10294400161232E412086374081217D0E9F50C70F9
:102954000B1232E01204B5800F750C0185088285D4
:102964000983122A75123558850C08022A36740216
:10297400121805AC82AD83850C82850D831232EA70
:102984001207438A108B11AC10AD11EC4D604385D6
:102994000C82850D83A3A3121A3B751000751103D5
:1029A4007810121A247510017511037810121A2464
:1029B4007408121805121A3B79161232E4120863CD
:1029C40074081217D0E9F509700B1232E01204BB37
:1029D400800F750901850C82850D83122A751235C5
:1029E40058850908804C851882851983AC82AD838B
:1029F40012082D803A851882851983AC82AD831222
:102A04000833802B851882851983AC82AD83120824
:102A140039801C851882851983AC82AD8312083FE6
:102A2400800D851882851983AC82AD83120845E92F
:102A3400F508E50860298E828F83A3E06414601F83
:102A4400850E82850F83E0900300122A7F123D9D3C
:102A5400900301123558E508A3122A87120497EE51
:102A6400FAEFFB1207C1023444F50CEF3400F50D04
:102A740022123DA185188285198322F0851882854A
:102A8400198322F07C007D03850A82850B83123230
:102A9400EE2274EE12181174FC1217BA8A0A8B0B08
:102AA4008C0E8D0FEA2405F508EB3400F5097C152E
:102AB4007D0079007A007B03121091E5082402F569
:102AC4000CE509122A708518828519838582108580
:102AD40083117810121A24850882850983A3A3A37D
:102AE400A3122F9A121A24E5082405F510E50934D7
:102AF40000F5117810121A24850C82850D83123288
:102B0400F412073D74061217D08A108B11AE10AF61
:102B140011E50A2402F50AE50B12353FEE4F700366
:102B2400022C5C801774021218051232EA8882891A
:102B340083EAF0A3EBF0900300E004F0900300E0DC
:102B4400C394054003022C5CE4F510F511781012CF
:102B54001A247510E97511027810121A247510EAF6
:102B64007511027810121A247406121805121A3BF1
:102B74007910EEFCEFFD1232E412086374081217A8
:102B8400D0E9705E850882850983A3A3A3A3A3A3C8
:102B9400A3E0F89002E9E0687048122F9A121A2410
:102BA4007CEA7D02E5082408FAE5093400FB1210EA
:102BB4008B74021217D0E960298E828F83A3A3A39A
:102BC400A31232EA900300E0F51074027810121791
:102BD400A774012510F58274033511F583EAF0A377
:102BE400EBF0740212180585821085831178101297
:102BF4001A247402121805121A3B850C82850D835F
:102C0400123DB212074974041217D08A108B11AE08
:102C140010AF11900300E0F51075110074027810E4
:102C24001217A774002510F874033511F9888289E6
:102C340083A31227887003022B20E82403F8E934C5
:102C440000F9EE4F6003022B298882898374FFF018
:102C5400A3F0900300E004F0900300E0600A123255
:102C6400E01204A97900800B850882850983123556
:102C74004F790A02344474EA12181174FE1217BA16
:102C84008C128D13EA2405F50CEB123F1C1226FA64
:102C9400750800750900EA2402F510EB3400F511FB
:102CA40085188285198385820A85830B780A121A0E
:102CB40024850C82850D83A3A3A3A3122E5C121A70
:102CC40024E50C2405F50AE50D12353F780A121A9D
:102CD40024850C82850D83123DB012073D740612C3
:102CE40017D08A0A8B0BEA450B7003022E0DEA24D7
:102CF40004F50EEB122E521226FA8A828B83A3A3BA
:102D0400A3E0F98510828511831232EA12072BE9B8
:102D1400F5096003022E0DE4F514F5157814121A62
:102D2400247514E97515027814121A247514EA75B9
:102D340015027814121A247406121805121A3B7913
:102D440013AC0AAD0B8510828511831232EA120886
:102D54006374081217D0E9F5096003022E0D90027E
:102D6400E9E0F8E5087009E02402900301F0801717
:102D7400900301E0FCE82402FAE43400FBEA6C70FE
:102D840001EB6003022E11850882AA82122F91940E
:102D940014122F895073850E82850F83E0C0E0746E
:102DA400022A122E49D0E0F00508850E82850F8391
:102DB400A3E0C0E085080A7402250A122E49D0E077
:102DC400F005089002E9122E5C121A247CEA7D02B6
:102DD40085080A7402250AFA74033400FB12107978
:102DE40074021217D09002E9E02508F50874FF6E0A
:102DF400700374FF6F6012EE24010EEF3400FFE5E0
:102E040008C394145003022CA4E50860131231D5AE
:102E14008510828511831232EA1204AF790080147E
:102E2400E509700375090A851282851383EEF0A300
:102E3400EFF0A90974021217D07F0E0218E3850877
:102E44000C7402250CF58274033400F583223400DB
:102E5400F50F850E82F58322123ADF2274EE1218E2
:102E64001174FE1217BA8C0E8D0FEA2405F50CEBC3
:102E7400122A70750B00900300E4F0F50AEA2402AC
:102E8400F508EB3400F5098049900300E0FA90025C
:102E9400E9E0F8122F919417122F89400D90030046
:102EA400E0F87416C3989002E9F0122F9A121A24CB
:102EB4007CEA7D0274012AFA74033400FB1210794F
:102EC40074021217D09002E9E0F8900300E028F0B1
:102ED400050AE50C2416F582E50D122E4DE0F8E501
:102EE4000AC3984003022F72900300E0C394165063
:102EF4007DE50AC333F8E433F9E50C28FEE50D3922
:102F0400FF851882851983AC82AD838E828F8312EC
:102F140032EA1207438A108B11AC10AD11EC4D70DC
:102F240005750B018043E4F510F5117810121A248D
:102F34007510E97511027810121A247510EA7511CA
:102F4400027810121A247406121805121A3B791604
:102F54008508828509831232EA12086374081217FD
:102F6400D0E9F50B7003022E8D12354B80107C00D6
:102F74007D038508828509831232EA1204C1A90BF4
:102F84007402023446E99400C365D03322EA28F877
:102F9400E43400F9E822E0F5107511007810227489
:102FA400EA12181174FC1217BA8A0C8B0D8C128D4C
:102FB40013EA2405F50AEB12353F7508007509007C
:102FC400E50A2402F510E50B3400F5117402121819
:102FD4000585820E85830F780E121A24850A828550
:102FE4000B83A3A3A3A3123A8B121A24E50A240584
:102FF400F50EE50B3400F50F780E121A24851082B5
:103004008511831235451232E412073D74061217F6
:10301400D08A0E8B0FAE0EAF0FE50C2402F50EE531
:103024000D3400F50F80408882898374FFF0050811
:10303400122E4274FFF005089002E9E0F50C750DBC
:1030440000780C121A247CEA7D0285080C7402258F
:103054000CFA74033400FB12107974021217D09026
:1030640002E9E02508F508EE4F60718E828F83A394
:10307400A3A3E0F9850E82850F831232EA12072B8F
:10308400E9F509EE2404122A6DE97044E4F514F517
:10309400157814121A247514E97515027814121A85
:1030A400247514EA7515027814121A247408121877
:1030B40005121A3B7911EEFCEFFD850E82850F8314
:1030C4001232EA12086374081217D0E9F50960276E
:1030D400850C82850D831231CB123558E5087003B7
:1030E4000231B11231D5850E82850F831232EA1274
:1030F40004C779000231C6850882AA82EA9002E9EF
:103104007009E02404900301F08022E0F8900301A8
:10311400E0F514E82404FCE43400FDEC65147001CB
:10312400ED70C0122F919412122F8950B6850C8223
:10313400850D83E0C0E074022A122E49D0E0F00528
:1031440008850C82850D83A3E0C0E0122E42D0E0F6
:103154001231E785820C85830D780C121A247404CD
:10316400121805121A3B851082851183123DB21282
:10317400074974041217D08A0C8B0DAE0CAF0D8561
:10318400080C7402250CF874033400F9EE4F700334
:1031940002302B851882851983E088828983123155
:1031A400E7A3E0C0E0122E42D0E0023039E5097016
:1031B4000375090A850A82850B831231CB123558AF
:1031C400A9097404022E3A123DA185128285138343
:1031D40022900301E0F5F0E50884900300F07C0000
:1031E4007D0322F005088518828519832274EC1268
:1031F400181174FE1217BA8A088B098C0E8D0FEA07
:103204002405FEEB3400FF851882851983AC82AD5A
:10321400838E828F831232EA1207438A0A8B0BEE63
:103224002418122A6DEA450B70030232BB12342DA6
:1032340050328518828519831232EA1208578A108F
:103244008B11EA4511606B7912AC0AAD0B850882CB
:103254008509831232EA85108285118312180FE9D9
:10326400F50A7058E4F50AF50B780A121A248E82CE
:103274008F83A3A3E0F50A780A121A24EE2403121A
:10328400353C780A121A248E828F831232F4120883
:103294006974061217D0E9F50A7021850C82850D30
:1032A40083E0701F8508828509831232EA1204CDF7
:1032B4008011750A0E8009750A018004E50A60030D
:1032C40012354B850C82850D83E060047900800201
:1032D400A90A74021217D07F0C0218E37C007D0344
:1032E400850A82850B831232EE22E0FAA3E0FB22E8
:1032F400E0FCA3E0FD8508828509831232EE227486
:10330400EE12181174FE1217BA8A088B098C0C8DF0
:103314000DEA2405FEEB3400FF750E008518828546
:103324001983AC82AD838E828F831232EA120743F3
:103334008A0A8B0BEA450B700302341912342D50A0
:10334400358518828519831232EA1208578A0E8B42
:103354000FEA450F605E7912AC0AAD0B85088285D1
:1033640009831232EA850E82850F8312180FE9F55C
:103374000E600302341C850882850983123633AA41
:103384000AFB12084B8A108B11A810A911E8497086
:103394001E7AFF7BFF12084B8A108B11A810A9110B
:1033A400E849606C88828983E50AF0A3E50BF0752F
:1033B4000A008007750E0E805F050A9002E6E0FAA7
:1033C400E50AC39A504AE50A75F017A4FAABF088E7
:1033D400828983A3A3E02AFAA3E03BFB8A828B833E
:1033E400123545EC4D70D2750A17750B00780A1228
:1033F4001A24EEFCEFFD12107974021217D0EEFCC1
:10340400EFFD8508828509831232EA1204D3801401
:10341400750E098003750E01123D99850C82850D88
:1034240083123558A90E022F84E5082402F508E515
:10343400093400F5098A828B83A3A3A3E0A2E522C1
:1034440074041217D07F0A0218E374EC1218118C5A
:10345400108D11EA2405F50CEB122A70750F00EAA1
:103464002402F50AEB12353F850A82F5831232EA0B
:1034740012084B8A088B09EA450970030235317535
:103484000E008071850C82850D83E06401704F8E7F
:10349400828F83A3A3121A3B8E828F83A3A3A3A339
:1034A400E0F5127513007812121A24EE2405F512B1
:1034B400EF3400F5137812121A241232E412086958
:1034C40074061217D0E9F50F6014850C82850D83FC
:1034D400E4F0123D998510828511831235587C17CA
:1034E4007D007900EEFAEFFB1210918E828F83E457
:1034F400F0A3F0050E9002E6E0F8E50EC398501E26
:10350400E50E75F017A4F8A9F0850882850983A350
:10351400A3123F26123545EC4D600302348885081A
:103524008285098374FFF0A3F0E50F70061232E47C
:103534001204D9A90F0232DBF50AEF3400F50B228D
:10354400A3E0FCA3E0FD228E828F83123DA1850EB1
:1035540082850F83E8F0A3E9F022C082C083900241
:10356400E2E06A7003A3E06B70067AE27B028004F7
:103574007A007B0002284BC082C08378008C828D45
:1035840083E06A7003A3E06B7010E875F003A4F89D
:10359400A9F0EC28FAED39FB8015088C828D83A301
:1035A400A3A3E06A7003A3E06B60DF7A007B0002F0
:1035B400284B74F61218111208158A828B83E5823F
:1035C400458370067A007B008007A3A3A3A312326D
:1035D400EA023C4A74F2121811E9FE740E1218053C
:1035E4001236337410121805123AAB8C828D83E0B4
:1035F40064027036A3123DA7F50CA3E0F9A80C747D
:10360400026870037429697021750C02750D0078C5
:103614000C121A247808121A24780A121A24EEF9C1
:1036240012088D74061217D080027901023CCEE094
:10363400F50AA3E0F50B2274E812181174FB1217B3
:10364400BAE9851882851983F08A168B17ECFEED8A
:10365400FF751000741D121805123D9D741D12187B
:10366400051235588E828F83A3A3A3E0A2E4502DC4
:10367400741D1218051232EA1208578A828B83E5E8
:103684008245837003023A7C790AEEFCEFFDAA16A8
:10369400AB1712180FE9F5106003023A7F741F127A
:1036A4001805123AAB74211218051236337423121A
:1036B4001805E0F50EA3E0F50F8E828F83E0640217
:1036C4006003023A2AA3123D9D850882850983A3DB
:1036D400858212858313EE2406122A6D88828983DB
:1036E400E0FAA3E0F9EA2400F514E439F5157814B6
:1036F400121AAE0100002801281F3707000228E42F
:10370400370328513700291B39012946390229E793
:103714003803291B390429C5392A3AE50E450F60B7
:1037240003023A25850C82850D83123AA0FAE9FB3F
:103734008A828B83E0850A82850B83123AD6121A19
:10374400248A828B83A3E0FCA3E00239AFE50E4513
:103754000F6003023A25850A82850B837401F012F7
:103764003AB3850882850983F07C007D008E828FC0
:1037740083A3A3A3A3E02401FAA3E03400FB12076C
:1037840043EA4B60418A828B83E02402F8850A82F3
:10379400850B83E028F0EA2404F8EB3400F98882EE
:1037A4008983E0851282851383123AE8123AD6128D
:1037B4001A248A828B83123544E5082403FAE50926
:1037C4003400FB0239B4850A82850B83E02404F0BB
:1037D4007C047D007900AA12AB13121091023A7F87
:1037E400E50E450F6003023A25123AB3FEA3E0FF4B
:1037F400850A82850B837404F0EE8508828509832B
:10380400F0EF851282851383F07403121805AC82DD
:10381400AD83EEFAEFFB1207438A0C8B0DEA450DDC
:1038240070030238C88A828B83A3A31226F674011C
:1038340012180585820E85830F780E121A247405DA
:10384400121805121A3B7CFF7DFF120749740412FB
:1038540017D08B0FEA450F7033850C82850D8312C8
:103864003A8B121A24850C82850D83A3121A3B7C91
:10387400027D007ADD7B9012057574041217D0E97D
:10388400700A740112180574FFF0A3F08E828F83FE
:10389400E064027039750C02750D00780C121A245C
:1038A4008E828F83123544E5082404FAE509340036
:1038B400FB12107974021217D0850A82850B83E0FB
:1038C400240280097401121805EEF0A3EFF07401CC
:1038D400121805123A9CF07401121805A3123A94B6
:1038E400023A1FE50E450F6003023A25850C8285D6
:1038F4000D83123545AA16AB17120881850A8285F5
:103904000B837402F0EA850882850983F0851282AC
:10391400851383EB023A22E50E450F6003023A2534
:10392400123AB3F8A3E0F9850A82850B837402F096
:10393400E8850882850983F0E9851282851383026C
:103944003A22850C82850D831232EA121073EAFC46
:103954008C82A882C3950EE4950F405FE8650E70D3
:1039640002E50F70047C008022851882851983E0AB
:10397400FAE50E2AFAE50F3400FBC3EA98EB94004B
:103984005003E08005E50ECCC39CFCEC850A8285DF
:103994000B83F08C0A750B00780A121A24850C82AA
:1039A400850D83E0250EFCA3E0350FFDAA08AB09C5
:1039B40012107974021217D0023A7F751007023A76
:1039C4007FE50E450F705A850C82850D83123D9D4F
:1039D400850A82850B837407122702123A941227F0
:1039E40002A3E0851282851383F0E82402FAE93405
:1039F40000FB8A828B83123A94123AC3123A9CA334
:103A0400123ACC123AA5F0E82405F8E93400F98812
:103A1400828983123AA5A3123AE8A3A3A3A3F08050
:103A24005A75100B8055741D1218051232EA1208CB
:103A3400158A828B83E5824583603D123D9D880C07
:103A4400890DE8450D6031780E121A24780A121A8D
:103A5400247808121A247406121805E0F9EEFCEF13
:103A6400FDAA16AB17850C82850D8312180F7406F8
:103A74001217D0E9F510800375100EA91074051201
:103A840017D07F100218E3E0F50E750F00780E22B0
:103A9400E085088285098322123AF222123DA1E8C8
:103AA40022123AF2A3A322E0F508A3E0F509228545
:103AB4000C82850D83E0F8A3E0F5838882E022A3DD
:103AC400A3F08A828B83A322F088828983A3A3A391
:103AD400A322F08A828B83123ADF22E0F50A750B67
:103AE40000780A22F088828983A3123AF222E085C0
:103AF4000882850983A3A32274EE12181174FE129E
:103B040017BA8A0A8B0BECFAEDFB7414121805E051
:103B1400F510A3E0F5117416121805E0FE741812DE
:103B24001805E0F50EA3E0F50F851882851983AC1E
:103B340082AD831207438A0C8B0DEA450D604985DB
:103B440018828519831232EA1208158A828B83E55A
:103B5400824583602FA3A3123AABE508450960248C
:103B6400780E121A247810121A24EEF9AC0CAD0D4A
:103B7400AA0AAB0B85088285098312180F740412F4
:103B840017D08006790E80027901022F8474F61210
:103B9400181174FE1217BA740C121805123AA08583
:103BA4001882851983F07401121805E9F0E4F50808
:103BB400F5097808121A247508027808121A247470
:103BC400041218058582088583097808121A2412BC
:103BD400086974061217D074021217D0806874F73B
:103BE400121811EAFEEBFF89087C197D0312088183
:103BF400EA5402600BA908EEFAEFFB1207378002C1
:103C040079010225FE74F612181174FF6A700374A8
:103C1400FF6B70168C828D83123C4FE4F08C828D86
:103C240083A3A3A3123C4FA380181208518A088BC4
:103C340009A808A909E849600D8882898374FF12DC
:103C44002700A3A3E4F07F020218E374FFF0A3F0BB
:103C54008C828D83A3A32274F61218111208518A40
:103C6400828B83E58245836006A3A3E0FA80027A0F
:103C7400007B0080D174F21218118A088B09ECFEC3
:103C8400EDFF740E121805E0F50A1208518A0C8B28
:103C94000DA80CA90DE8497026EEFCEFFD7AFF7B18
:103CA400FF1208518A0C8B0DA80CA90DE849700469
:103CB4007911801688828983E508F0A3E509F088E4
:103CC400828983A3A3E50AF079007F060218E374CE
:103CD400EE121811EAFEEBFF8C088D09890C74149E
:103CE400121805123D9D74161218051232EA750D4C
:103CF40000E8496003023D917402650C6003023DD3
:103D04008C7412121805123DA7FCA3E0F9EC2400F0
:103D1400F50EE439F50FEAF4F8EBF4F9EC58F8E5AC
:103D24000F59F9E849705CE5082406F8ED3400F908
:103D3400880A890B8882F583123DB21208818A10A1
:103D44008B11E50E65107004E50F65116042780E65
:103D5400121A24850A82850B83123DB212088774D5
:103D6400021217D0E9F50D7027780E121A2485086F
:103D740082850983A3A3123DB012089F740212170F
:103D8400D0800D750D808008750D0D8003750D0BA9
:103D9400A90D0234498E828F83123DA122E0F8A33B
:103DA400E0F922123DA188828983E022A3A3E0FCEA
:103DB400A3E0FDEEFAEFFB2274E812181174E71287
:103DC40017BA851882851983EAF0A3EBF08C168D57
:103DD40017890E7508007509007431121805E0F58D
:103DE40012A3E0F5137433121805E0F514A3E0F5FB
:103DF400157435121805E0F50FE50975F003A4F8FC
:103E0400A9F0851882851983123F26E0F47003A374
:103E1400E0F47003023F09EE2402F50CEF123F1C9C
:103E2400E07003023F0985160A85170B780A121AF7
:103E340024AC14AD15AA12AB13120809740212179C
:103E4400D08A0A8B0BEA450B7003023F09E4F51094
:103E5400F5117810121A247406121805858210853B
:103E640083117810121A247409121805858210859A
:103E740083117810121A24851282851383A3A3A3B5
:103E8400A3121A3B7914AC0AAD0B8E828F831232C3
:103E9400EA12086374081217D0E97069850A8285EA
:103EA4000B83A3A3A3A3123D9D740212180512351C
:103EB40058850C82850D83E0A2E05018A90E740287
:103EC400121805AC82AD838E828F831232EA1207F8
:103ED4005BE94208850C82850D83E0A2E15026E56A
:103EE4000FF50A780A121A28A90E7403121805ACE1
:103EF40082AD838E828F831232EA120755740112C7
:103F040017D0E942080509E509C394025003023DAC
:103F1400FDA9087419023A833400F50D850C82F565
:103F24008322E028FEA3E039FF8E828F832274F27D
:103F3400121811EAFEEBFF890B7401650B600E7415
:103F440002650B706A7901120A61E97062EEFAEF98
:103F5400FB12084B8A088B09EA45096047750A0079
:103F6400800B7C177D007900121091050A9002E6FF
:103F7400E0F8E50AC3985021E50A75F017A4F8A9FA
:103F8400F0850882850983A3A3E028FAA3E039FB1E
:103F94008A828B8312285270C985088285098374AA
:103FA400FFF0A3F07C197D03EEFAEFFB12087B020D
:103FB4003CCE74F21218118A088B09ECFEEDFF74E2
:103FC4000E121805123633900B91E0F4603D7A0915
:103FD4007B001210A3EA4B60328A828B8374B1F0A7
:103FE400A3E4123AC5A3123AC3A3E508F0A3E50972
:103FF400124012EEF0A3EF124012A3A3E50AF0A3BD
:10400400E50BF0900B91E0F91210AF023CCEF08A70
:10401400828B83A3A3A3A3A32274F012181174FAAE
:104024001217BA890BECFEEDFF750A008A088B099A
:104034007808121A68000410504260407E4098408C
:10404400B040CE40E6400941214135415F41E7415E
:10405400F8410F422A425042504275417401650BA7
:10406400600302424B8E828F83E0F8C394034003C3
:1040740002424BE8900C7D0242277402650B6003F8
:1040840002424B8E828F8312494D900C7EE8F0A33E
:10409400E90242277401650B600302424B12427825
:1040A400400302424BE89007660242277401650B05
:1040B400600302424B8E828F83E0F8C39405400371
:1040C40002424BE89007670242277401650B6003C4
:1040D40002424B124278400302424BE890076802C6
:1040E40042277410650B600302424B750810750972
:1040F400007808121A247A697B0712107974021264
:1041040017D00242717401650B600302424B1242E4
:1041140078400302424BE890077902422774016514
:104124000B600302424B8E828F83E0900C8102422B
:10413400277404650B600302424B8E828F83780CD4
:1041440012168A9090A0780C1214BC500302424BB1
:1041540090077B780C121699024271E960030242BF
:104164004B1206E3E9700512120B806090080E8072
:104174006E7407650B600302424B750806750900EF
:104184007808121A248E828F83A3AC82AD837402C2
:10419400121805AA82AB8312107F74021217D07C06
:1041A400007D00851882851983AA82AB838E828F55
:1041B40083E0F91211B1E9F508C3940A40030242FD
:1041C4006E1206E3E9700CA9081212117950121349
:1041D400DF806F740F2508F58274083400F583744A
:1041E4000180407401650B705E1242785059E8906A
:1041F400077A802F7401650B704D8E828F83E0F8EF
:10420400C3940A5042E8900C8080187401650B70C6
:10421400368E828F83E0F874F928C3940A5028E814
:10422400900C82F080477401650B701B90080DE0C0
:10423400F88E828F83E090080DF0E87030E064011E
:10424400702B1211FF8026750A188021C3EA942767
:10425400EB940050157402650B700F8E828F8312DD
:104264004D4C120581E9F50A8003750A02A90A7406
:10427400060249428E828F83E0F8C394022274F0CE
:1042840012181174CC1217BA8C0A8D0B74201218E0
:1042940005AC82AD8375839075822674061216CDA3
:1042A4007420121805AC82AD831211B1E9F50874BB
:1042B40044121805E0FEE9C3940A40030243F07572
:1042C400F006E9A4F5097426121805AC82AD837AC8
:1042D4000E74202509F91213D9E9700974321218E1
:1042E40005E0FF80027F00900C7DE064027004749E
:1042F400018001E4F50D780D121A28EEFDEFFCA9FA
:1043040008AA0AAB0B12123574011217D07C147D63
:10431400007900740C121805AA82AB8312109174F0
:104324000C121805AC82AD837A1074242509F91295
:1043340013D9E9703C7C1079FF740C121805AA8219
:10434400AB831210F7E97029741C121805AC82AD06
:10435400837A0474252509F91213D9740C121805EB
:10436400AC82AD83EFA2E0E433F9AA0AAB0B1206E8
:104374000B851882851983AC82AD837A0C74702501
:1043840008F91213D9E97053851882851983AA8212
:10439400AB831211E1750800E50875F003A4F8A9D0
:1043A400F0851882851983E58228F8E583124B5637
:1043B400124D46601D88828983A3A3E0F50E750F14
:1043C40000780E121A24AA0AAB0B12086F74021298
:1043D40017D00508E508C3940440BDEFA2E1500CD2
:1043E400900765E0F9AA0AAB0B12087574046E70A5
:1043F40027900C7DE06402701F7A00900779E060DA
:10440400010A900766E06004780480027800E84AB4
:10441400F9AA0AAB0B1206CB790074340249427430
:10442400F0121811EAFEEBFF8C088D09750A0AE9EF
:10443400600C1460091460371460790244D21211BC
:10444400F3E9F50AC3940A40030244D2E508450996
:10445400607C750E06750F00780E121A24EEFCEFC0
:10446400FDAA08AB0912107974021217D0805F7587
:104474000B00750E06750F00780E121A24EEFCEF71
:10448400FDE50B75F00EA4F8A9F0748728FA7407FB
:1044940039FB12108B74021217D0E9600C850B0AD9
:1044A400E50AC3940A50278016050BE50BC3940A4A
:1044B400501C80BE1211F9E9F50AC3940A500FE5A5
:1044C4000845096009AA08AB09A90A1211EDA90A4D
:1044D40002494574F4121811890875091574FF6AA4
:1044E400700374FF6B70277E00AC087A027B00EEC9
:1044F400F91211CFE960037509000EEEC3940A4066
:10450400E8E50860537A237B12120A73804A120A80
:10451400558A0A8B0BAE0AAF0BEE4F60387C007DD8
:1045240000EE2405FAEF3400FB8E828F83A3A3A34D
:10453400A3E0F91211B1E9C3940A500CAC087A0251
:104544007B001211CF750900E508600CEEFAEFFB51
:104554001212238003750914A9098005740E121719
:10456400D07F040218E374F2121811ECFEEDFF750B
:104574000815740E121805E0F50AA3E0F50B74FF94
:104584006A700374FF6B7021750900AC0AAD0BEE01
:10459400FAEFFBA9091211D5E960037508000509B2
:1045A400E509C3940A503F80E2120A558A828B833C
:1045B400E5824583602D7C007D00E5822405FAE5D3
:1045C400833400FBA3A3A3A3E0F91211B1E9C394BC
:1045D4000A5013AC0AAD0BEEFAEFFB1211D57508B5
:1045E400008003750814A908025388C082C0839010
:1045F400077FEAF0A3EBF0900765E0FC7D007A26E4
:104604007B00120581900765E0F91207EB0251E384
:1046140074F012181174EC1217BAEAFEEBFFEE24D0
:104624000CF50CEF3400F50DEE2405F50EEF340017
:10463400F50FEE2409F50AEF3400F50BEE2403F52B
:1046440008EF3400F5098E828F83A3A3E024FA7067
:10465400030248E624FD7003024801147003024675
:10466400ED14601024FD70030247D814700302484F
:104674003502493E1255836048E0F5838882124929
:104684004D880E890FE8450F6037850C82850D83B0
:10469400E0F50C780C121A28EE240BF582EF124B7D
:1046A4001DF9850A82850B83124D4C0A0A0AAB094F
:1046B400850E82850F8312180F74011217D00249D8
:1046C4003E850A82850B83121A3B90077B1216A83B
:1046D40012061D74021217D0E9700302493E7901D3
:1046E400850A82850B830248B18E828F83A38582DB
:1046F4000A85830BE060030247BB850E82850F8326
:10470400E0A2E040030247BB9008191255866003FB
:104714000247BB7C0E7D007900851882851983AA27
:1047240082AB83121091850C82850D831251AEEAFF
:104734004B6010750C06750D00780C121A24EA24CF
:1047440010801B1251A8120A55EA4B700302493E0D
:10475400750C06750D00780C121A24EA2405FCEB7E
:104764003400FD7402121805AA82AB831210797406
:10477400021217D0850E82850F83E0A2E25004D284
:10478400F08002C2F0A2F0E433F8740C121805E0D1
:1047940048F0EEFCEFFD851882851983AA82AB836D
:1047A4001211E7E970117A027B00900765E0F912B3
:1047B40010D37900024940125583700302493E1216
:1047C4004953700302493E850A82850B83E0FC79D4
:1047D400010248DA125583700302493E12494A899C
:1047E4000BE8450B700302493E8E828F83A3E0FCE5
:1047F40079021251A88882850B830248E17C007DEE
:1048040000EE2404FAEF3400FB850882850983E076
:10481400F91211B1E9F8C3940A400302493EEE24A7
:104824000AFCEF124D22E8A42425F91213D30249FD
:104834003E1251A890077AE06007900C80E0F9805E
:104844006F900C7DE0700479058065120A558A0C1E
:104854008B0DA80CA90DE82404F50CE93400F50D22
:104864008E828F83A3A3A3A3A3A3A3E0A2E05046B5
:10487400E849700302493E850C82850D83E0FE60A1
:1048840035850A82850B83E05410702A740E121841
:1048940005AC82AD83E82405FAE93400FBEEF91295
:1048A40011B1E9701179038508828509831251AE2B
:1048B40012061702493EAC0EAD0F850C82850D839E
:1048C400E0F91251A812122F125583606D12495348
:1048D40060687C0079001251A88E828F8312180FB1
:1048E40080581206E3E9705290080EE064017015D6
:1048F40012120B90080EE4F07C0AFDF97A0F7B0883
:10490400121091802D750A00850A08740F2508FE7F
:1049140074083400FF8E828F83E06401700BA90A4F
:104924001212118E828F83E4F0050AE50AC3940AF9
:1049340040D679501213DF1211FF79017414121743
:10494400D07F080218E3124962E0F8A3E0F92212CA
:104954004962E0F8A3E0F9E8FEE9FFEE4F22E0F552
:10496400838882A3A32274F412181174F21217BA62
:10497400EAFE8C0B75F006E9A42420F5088518825C
:10498400851983AC82AD837A0EF91213D9E9705775
:104994007C0679FF851882851983AA82AB8312105D
:1049A400F7E97043740C12180512494DE8F509E54E
:1049B4000B6005EE42098004EEF45209850982AACF
:1049C40082E86A7001E9601B740C121805EAF0A30E
:1049D400E4F0851882851983AC82AD837A0EA90828
:1049E4001213D379018002790002456074F212181F
:1049F4001174E61217BA890A8A088B09ECFEEDFFD6
:104A0400740C121805AC82AD837A0E75F006E9A415
:104A14002420F91213D9E96003024B107C0679FFB4
:104A2400740C121805AA82AB831210F7E960030212
:104A34004B107470250AF50B851882851983AC8296
:104A4400AD837A0CF91213D9E96003024B0C851873
:104A540082851983AA82AB831211E1E508450970A6
:104A64002C7C0C7900851882851983AA82AB831269
:104A740010F7E96003024B0C7C0C7D00790085186B
:104A840082851983AA82AB83121091805D85188276
:104A9400851983AC82AD83AA08AB091211DB8A0C99
:104AA4008B0DA80CA90DE8497028EE4F605E85189F
:104AB40082851983AC82AD837A007B001211DBEA14
:104AC400F8EBF9EA4B604588828983E508F0A3E5B1
:104AD40009F0124B17FAEE6A7001EF602BEEF04FFB
:104AE400700888828983E4F0A3F08518828519838D
:104AF400AA82AB831211E1851882851983AC82AD39
:104B0400837A0CA90B1213D3790180027900741AE9
:104B1400025385E82402F582E93400F583E0227427
:104B2400F71218117F00EF75F003A4F8A9F0EC2830
:104B3400F8ED124B56E06A7003A3E06B7006E8FAD6
:104B4400E9FB800B0FEFC3940440DB7A007B000287
:104B54004F0139F9888289832274F71218117E0073
:104B6400EE75F003A4F8A9F0EA28F8EB124B56E02E
:104B7400F4FCA3E0F4FD88828983ECF0A3EDF01249
:104B84004B17F4F00EEEC3940440D5024F0174F2B7
:104B940012181174F41217BAEAFEEBFF8C088D098F
:104BA4009008191255867051EE4F7003024D1BEC9C
:104BB40045097003024D1B1211F3E9900C83F0C3F5
:104BC400940A4035750B007C0679FFE50B75F00EF1
:104BD400A4FAABF074812AFA74073BFB1210F7E9CC
:104BE4006005850B0A800C050BE50BC3940A40D7BE
:104BF400750A0AE50A900C83F0900C83E0C3940ACA
:104C04004003024D1B75F006E0A4FB9008191255F1
:104C140086706FEEFCEFFD7A0E74202BF91213D31D
:104C24007C0C7D0079FF851882851983AA82AB8369
:104C3400121091851882851983AC82AD837A0C9009
:104C44000C83E02470F91213D3750C0E750D0078E3
:104C54000C121A24EEFCEFFD900C83E075F00EA408
:104C6400F8A9F0748128FA740739FB1210797402D8
:104C74001217D0900819E508F0A3E509F0790002AD
:104C84004D1DE0C82406124D3F601A7A1B74212B77
:104C9400F91213D3124D2B2406F582E83400F58360
:104CA400E4F0A380D7124D2B240A124D3F60107AF2
:104CB4001B74222BF91213D3124D2B240A80DA12FF
:104CC4004D2B240C124D3F60107A1074232BF912D3
:104CD40013D3124D2B240C80C0124D34124D3F605F
:104CE4002A7A1074242BF91213D3124D34F582E866
:104CF400124B1D2410FCA3E0124D22900C83E0A45F
:104D04002425F91213D3124D34808E90080DE060DF
:104D14000312123B1212297901740C0253853400D8
:104D2400FD7A0475F00622900819E0F8A3E0C82281
:104D3400900819E0F8A3E0C8240822F582E83400BA
:104D4400F583124D4CEC4D22E0FCA3E0FD2274F4FB
:104D540012181174F21217BAEAFEEBFFE9C3940AAF
:104D64005004EE4F70047902803E851882851983C1
:104D7400AC82AD837A0E75F006E9A42420F91213EF
:104D8400D9E9F5087020750A06750B00780A121A1D
:104D9400247402121805AC82AD83EEFAEFFB1210F4
:104DA4007974021217D0A90802456074F41218111C
:104DB400EAFEEBFF750800750A06750B00780A1207
:104DC4001A24EEFCEFFDE50875F00EA4F8A9F074C2
:104DD4008128FA740739FB12108B74021217D0E978
:104DE4006004A908800B0508E508C3940A40C87943
:104DF4000A02456574F712181174F01217BAEAFE24
:104E0400EBFF750800851882851983AC82AD837A1F
:104E14001075F006E508A42423F91213D9E9702CBF
:104E24007C1079FF851882851983AA82AB831210BE
:104E3400F7E97018EEFCEFFD851882851983AA82C4
:104E4400AB831205EDE97004A908800B0508E50899
:104E5400C3940A40B0790A74101217D0024F017437
:104E6400F7121811750800E50875F00EA4F8A9F0FA
:104E7400748128FE740739FFEEFCEFFD7A0E75F09D
:104E840006E508A42420F91213D9E9602C7C067DD8
:104E94000079FFEEFAEFFB1210917C067D0079FF9A
:104EA400EE2406FAEF3400FB121091EE240CF58286
:104EB400EF3400F583E4F0A3F00508E508C3940A91
:104EC40040A590080DE0600312123B121229802DB8
:104ED40074F71218117E007F007C0679FFEF75F0DD
:104EE4000EA4FAABF074812AFA74073BFB1210F794
:104EF400E970010E0FEFC3940A40DEEEF97F010260
:104F040018E374F71218117E00EEF91212110EEE66
:104F1400C3940A5003E960F180E374F31218117426
:104F2400CB1217BAE9FE900C83E06E701B7A017BFA
:104F340000900765E0F91210D97A027B00900765AA
:104F4400E0F91210D912124775F006EEA4FF74208E
:104F54002FF5087427121805AC82AD837A0EA908C0
:104F64001213D9E960030250587C0679FF742712A2
:104F74001805AA82AB831210F7E960030250587C2B
:104F84000E7D0079FF7427121805AA82AB831210D4
:104F9400917C1B7D0079FF740C121805AA82AB83E7
:104FA4001210917C0C7D0079FF851882851983AAE3
:104FB40082AB831210917427121805AC82AD837AE8
:104FC4000EA9081213D3E9F508740C121805AC8263
:104FD400AD837A1B74212FF91213D3E9F509740CEC
:104FE400121805AC82AD837A1B74222FF91213D3E5
:104FF400E9F50A740C121805AC82AD837A10742397
:105004002FF91213D3E9F50B740C121805AC82AD09
:10501400837A1074242FF91213D3E9F50C740C124B
:105024001805AC82AD837A0474252FF91213D3E9E1
:10503400FF851882851983AC82AD837A0C74702E37
:10504400F91213D3E9F8E509450A450B450C4F4815
:1050540042088003750800A90874351217D07F052B
:105064000218E374F7121811E9900765F01211FFA2
:10507400024F0174F4121811EAFEEBFF548070031E
:1050840002510F900765E0F91210BB8A088B09EAF8
:105094004509607078018A828B83E02450603D1456
:1050A400600624E1604F8052A3A3A3A3E0704E8A5C
:1050B400828B83A3A3A3A3A3A3A3121A3B8A828BE9
:1050C40083A3A3A3A3A3124D4C8A828B83A3A3120D
:1050D40051AE1211BD74021217D08021A3A3A3A351
:1050E400E0641E701879008A828B83A3A31251AEE8
:1050F4001211B780081211C9E9F8E86007AA08ABD1
:10510400091210A9EEFAEF64808065EE5402602360
:105114007C007D007A007B001211E7E960117A01BE
:105124007B00900765E0F91210D3EE6402803F7AA9
:10513400028046EEA2E0503F1251821251AE12128A
:1051440041E9602F125583601F12494A8808890972
:10515400E8450960137C0079011251821251AE8531
:10516400088285098312180F121247EE6401FAEFC0
:10517400FB80087A0180027A007B00024565900872
:1051840019E0F8A3124962A3227F020218E3C08245
:10519400C083900765E0F98A828B83A31251AE1213
:1051A4000875803B850882850983E0FAA3E0FB2229
:1051B400C082C08374FF1217BA121205E9C39402A5
:1051C400851882851983400474028002740AF0AC45
:1051D40082AD837A0179051206FB74011217D0D0CF
:1051E40083D08202012274F212181174E81217BAE1
:1051F400EAFEEBFF890A8C088D097C187D00790092
:10520400851882851983AA82AB831210918518822E
:10521400851983EEF0A3EFF0900767E0C0E0740215
:10522400121805D0E0F0900768E0C0E0740312188B
:1052340005D0E0F0900C82E0C0E07417121805D09D
:10524400E0F07415121805E054FEF8A3E0F9900C90
:1052540081E0A2E0E433FAE84AF874151218051262
:105264005394A2E15004D2F08002C2F0E854FDFA53
:10527400A2F0E43333F8EA48F8741512180512530F
:1052840094A2E35004D2F08002C2F0E854F7FAA2E8
:10529400F0E433F50C750D007403780C1217A712A3
:1052A400538D121805125394A2E45004D2F08002D4
:1052B400C2F0E854EFFAA2F0E433F50C7404780C6D
:1052C4001217A712538D121805125394A2E5500415
:1052D400D2F08002C2F0E854DFFAA2F0E433F50C15
:1052E4007405780C1217A712538D121805125394D3
:1052F400A2E25004D2F08002C2F0E854FBFAA2F019
:10530400E433F50C7402780C1217A712538D12189B
:1053140005E8F0A3E9F0900768E0601D750C1078CB
:105324000C121A247C697D077406121805AA82AB34
:105334008312107974021217D0900779E06011E596
:105344000A60097415121805E04402F0780180021D
:1053540078007414121805E048F0900766E06004C1
:105364007804800278007414121805E048F0AC0840
:10537400AD09851882851983AA82AB83120611743C
:10538400181217D07F060218E3EA450CF8741522A8
:10539400E8F0A3E9F0900C81E02274F31218117480
:1053A400E51217BAEAFEEBFF8C098D0A742812186D
:1053B40005E0F50C75F006E9A4F87408650A7004B4
:1053C40074228002742128F50B7C1B7D00790085F2
:1053D4001882851983AA82AB83121091851882855D
:1053E4001983AC82AD837A1BA90B1213D9E97032ED
:1053F400741A121805E024F9C3940A5025E50CF533
:105404000B780B121A287401121805AC82AD83E5CF
:1054140009A2E0E433F9EEFAEFFB12062374011259
:1054240017D0741B02505F74F71218111208ED752F
:105434000800E50875F00EA4F8A9F0748128FE743C
:105444000739FF7C0679FFEEFAEFFB1210F7E970DB
:1054540009EEFAEFFB79001208F30508E508C39496
:105464000A40CF024F0174F612181174FD1217BAD4
:10547400EAFEEBFF90081B125586703975081D75FE
:1054840009087808121A24750802750900780812A8
:105494001A247508D77509907808121A247CFF7DA0
:1054A400FF7A017B0012073D74061217D090081B87
:1054B400EAF0A3EBF090081B125586700302556DB9
:1054C400E4F508F5097808121A24740412180585FD
:1054D40082088583097808121A2474041218058531
:1054E40082088583097808121A2490081D121A3B31
:1054F400790290081B12557B12086374081217D0A6
:10550400E97034851882851983E0FA74011218054C
:10551400E0F9EA2400F508E439F509EA45096017D9
:105524007808121A2490081B125185A312557B1275
:1055340011BD74021217D0E4F508F5097808121A9F
:105544002490081D121A3B7CFF7DFF90081B12510A
:10555400AE12074974041217D090081BEAF0A3EBAB
:10556400F090081B1255867004790180027900744A
:10557400031217D002518D124D4CEEFAEFFB22901C
:10558400077FE0F8A3E0F9E84922C082C0839008CD
:105594001912558660109008191251AE1210A99074
:1055A4000819E4F0A3F0900C83740AF00251E3C0EC
:1055B40082C0839061907404F0A37448F0A3E4F073
:1055C4009061807440F09061BC7407F090618774BE
:1055D40069F09061B67416F07900120B5D790212CD
:1055E4000B639025B4E493F46006E493F9120B3949
:1055F4007905120E5D0259AEC082C083E9540FF9D9
:10560400906185E0696012E5C654804449F5C6E5B9
:105614009E547F644970F8E9F053C680E59E547F38
:1056240070FA0259AE74F7121811E5A8FE53A87E59
:10563400120B45C2BA539AFEC289759B00C2C212AC
:105644000B4B75A91175B905120B51D2BA439A01C6
:1056540074805E42A8025F45C082C083906181E489
:10566400F0A30259AB75E90075910075BF00020102
:1056740022C082C083906181E4F0A374C0F0A3E4EB
:105684000259ADC082C08374F81217BA9003A412F1
:1056940068DE70030257669003A4E05440602379E7
:1056A40008851882851983AA82AB83120C59851840
:1056B40082851983AA82AB831209119003A4E05452
:1056C400BFF0E054806010790C7A657B05120C59A8
:1056D4009003A4E0547FF0E0A2E0500F7900120B95
:1056E4005D1209179003A4E054FEF0E05402600F29
:1056F4007901120B5D1209179003A4E054FDF0E048
:105704005404600F7900120B6312091D9003A4E086
:1057140054FBF0E05408600F7901120B6312091D69
:105724009003A4E054F7F0E05410600F7902120BD8
:105734006312091D9003A4E054EFF0E05420600FBD
:105744007903120B6312091D9003A4E054DFF0A344
:10575400E05401600D120B6F1209239003A5E0546D
:10576400FEF074081217D00259AEC082C083E960FB
:105774000514602A804F90619A7433F0A37455F035
:105784009061A0743AF090053FE064017009C29101
:105794009003A67467802D9003A67461802690619F
:1057A4009A743FF0A3745AF09061A0747FF090054E
:1057B4003FE064017009D2919003A6747180059052
:1057C40003A6746AF00259AEC082C083E9600B1468
:1057D400600D14601714600C80209025B88015901B
:1057E40025B9801090053FE0640170059025BA80CA
:1057F400039025BBE493906186F00259AE74EE12D7
:10580400181174F41217BA851882851983AC82AD05
:105814008375839075825C74041216CD9025B893B9
:10582400F4600302592B907808E0C39402500302F9
:10583400590B7404121805AC82AD8375839075827C
:105844000E74081216CDFC7EFF7FFF8E0C7D008C3B
:105854008285820E800F74086D606D74096D6068B6
:10586400740A6D60638D0875090074027808121754
:10587400A712593512168AA909E50AC9F8881074BD
:105884001878081215CBE5104508FAE9FBE50EC3B4
:1058940033F8E433F97404121805E58228F582E537
:1058A4008339125E35C3E89AE99B4008E8C39AF845
:1058B400E99B8006EAC398F8EB99F9C3E89EE99F4F
:1058C4005006E8FEE9FF8D0C0DEDC3941340877478
:1058D400FF6E700374FF6F6024850C0874027808EF
:1058E4001217A712593512168A851882851983E56D
:1058F40082250EF582E5831262D4E508F00CECC330
:105904009404500302584B75080175090078081275
:105914001A247402121805AC82AD837A6E7B0912C4
:10592400128374021217D0740C1217D07F0A021853
:10593400E374482508F58274783509F583780822DC
:10594400C082C083906186E0F89025BBE4936870C0
:10595400099025BAE493906186F09061AE7468F082
:10596400A3746AF090624574FBF0A304F053F4FD51
:1059740043FE0290053F7401F09061A0E0643A7028
:1059840004790080027901120B5D0259AEC082C015
:10599400839004F1E06401700A9004F6E0600479F5
:1059A4000C800279008003F0A3F0D083D08202013E
:1059B40022C082C08375E1F19004F4E0604D14606C
:1059C40009146051146049147050120B819004EA58
:1059D400E0F97AEB7B04120DDF9090901216A81276
:1059E4000E159090841216A8120DEB9004F5E0F9B0
:1059F400120DF77901120E51125AD124161262D1E6
:105A04007499F0A3740BF07900809F120B8780BD0A
:105A1400120B8D80B8120B9380B3791280EB74F45F
:105A240012181175D90D9004D5E0A2E0E4331313D4
:105A3400F8125AC7484401F5D97800125B3440FB88
:105A44007800880874D61268347404125B3E40F2FD
:105A540075E1959004D5E0F97AD67B04120DE590B2
:105A64000BB3740FF0A3740B125B44125B88125BCC
:105A74007F125C9C9004F4E064019004E8700B12C3
:105A84005ADA12168A9090AC8009125ADA12168ADF
:105A94009090A478081216169090587808121664FC
:105AA400125AD1240E1262D17808121699125AD1C0
:105AB40024141262D17413F09003A27402F07F04D0
:105AC4000218E39004EAE0C4333354C0229004E89B
:105AD400E0F8A3E0C82212676C78082274F6121862
:105AE40011125C6D8AD97800125B3440FB78008017
:105AF40006125BE5125D22E8C39940F5125C5F1261
:105B04005B3440FB780080081268307405125D2213
:105B1400E8C39940F375E195900BB3741BF0A3743B
:105B24000B125B44125B4E7412F09003A2025F09E5
