:020000040000FA
:0600000002010A02208C3F
:03002B000224ECC0
:03003B0002250D8E
:03004300022497FD
:0300530002210285
:03006B000224BDAF
:10008300021F3BE5C754F84401F5C779012200007C
:100093000080FB120086B900030200F4E4792178A2
:1000A30008B800028004F709D8FCE479297802B87B
:1000B30000028004F709D8FCE4900281785379099F
:1000C3008002F0A3D8FCD9FA900AD3AA82AB83901A
:1000D300013A780379048015E493A3AC82AD838A53
:1000E300828B83F0A3AA82AB838C828D83D8E9D9D8
:1000F300E77582FD7583A4740312011C75829175E3
:100103008300740012011C75D00075813F7518813E
:10011300751902759F00020096C09FF59FE473D086
:100123009F22D083D082C09FE493C0E0740193C028
:10013300E0740293F59F22FF0000B400002800281A
:1001430000283075A000A000A000A000000800084F
:10015300E001F0001000100010001000100010006B
:1001630050005000500010001000D00700000000A5
:1001730000000F00010005003075070010000100AA
:1001830081FF00000000FF3A0658064006FF020206
:100193000208025000A0000000E80302C090010022
:1001A30000AF9002B8900100002A0B02C890010032
:1001B30000B30202B8900100002B0B02C6900100AD
:1001C30000C90202B8900100002C0B02C490010088
:1001D30000CB0202B8900100002D0B02BC90080076
:1001E30000CC0202B8900100002E0B02B290010075
:1001F300002F0BFF0100FF2002C090010000A3901D
:1002030002B890010000930B02B4900000000000BC
:1002130002DE9003000019036A0C6A0C6A0C6A0C74
:100223006A0C6A0C6A0C6A0C6A0C6A0C6A0C6A0C1B
:100233006A0C400F580F3A0FFFFF0202020202023C
:10024300020202010D000000100102C09001000033
:10025300A99002B890010000D60B02DA90010000C9
:100263005D0702B890010000D70B02D8900100008F
:10027300818F02B890010000D80B02D690010000D4
:10028300738F02B890010000D90B02D490010000D3
:10029300038F02B890010000DA0B02D29001000034
:1002A300BB8E02B890010000DB0B02D0900100006E
:1002B300A98E02B890010000DC0B02CE9001000071
:1002C300DF8E02B890010000DD0B02CC900100002C
:1002D300658F02B890010000DE0B02CA9001000096
:1002E300DF0B01E803053F100AFF0001307503022D
:1002F30001060000000000000000000000000000F4
:100303000000000000000000000000000000FFFFEC
:100313000600800CE803140953696D706C65424C48
:10032300455065726970686572616C0512500020F2
:1003330003020A000201060302F0FF53696D706CA9
:100343006520424C45205065726970686572616C26
:10035300F6130000FC130A436861726163746572EB
:100363006973746963203100024368617261637465
:1003730065726973746963203200080243686172AD
:100383006163746572697374696320330010436831
:100393006172616374657269737469632034000206
:1003A300436861726163746572697374696320354C
:1003B3000002C090010000AC9002B890010000F26E
:1003C3000C02EC90030000C50A02B690010000F392
:1003D3000C02B890010000040D02E890010000C671
:1003E3000A02B690010000050D02B8900100001644
:1003F3000D02E690020000170D02B69001000018EE
:100403000D02B890010000290D02E490000000C71E
:100413000A02DE90030000C80A02B6900100002A17
:100423000D02B8900100003B0D02E090040000CEE5
:100433000A02B6900100003C0D120125FD93031240
:100443000125149403120125459403120125809478
:1004530003120125AA9403120125D4940312012542
:10046300EB9403120125029503120125199503123A
:1004730001254295031201255595031201256B951C
:10048300031201257E9503120125A595031201256B
:100493000198021201250599021201253D990212C4
:1004A30001256099021201256B99021201258E998B
:1004B300021201259D9A02120125729B0212012547
:1004C300ED9B02120125759C02120125B09C0212BC
:1004D3000125E79C02120125759D021201254E9EFE
:1004E30002120125AE9E02120125B99E02120125B8
:1004F300389F021201253B9F021201253E9F0212E3
:100503000125CD9F02120125D09F0212012500A0D3
:10051300021201252AA00212012518A102120125A7
:10052300CAA102120125D9DF0212012501E002123C
:1005330001252FE00212012566E002120125C4E025
:10054300021201250FE1021201255AE102120125CF
:100553009AE102120125E0E1021201250EE20212E4
:100563000125CBE202120125D5E202120125E2E2C6
:100573000212012515E302120125E1E3021201250E
:10058300EDE30212012505E4021201250FE4021234
:1005930001253BA10312012549A10312012561A1F4
:1005A3000312012579A103120125ECB001120125E3
:1005B30098B10112012513B20112012534B30112BE
:1005C300012570B30112012519B40112012500B5EB
:1005D3000112012564B601120125BBB601120125E2
:1005E3003CB7011201252CB80112012579B801127B
:1005F3000125FFB80112012531B90112012545BBBF
:100603000112012587BB01120125A5BB011201259A
:1006130028BC01120125FCBC01120125C4BD011235
:100623000125BACD021201258DCE0212012536CF46
:100633000212012589CF0212012539D002120125A8
:10064300C5D002120125B1D102120125E0D1021257
:100653000125F3D2021201253BD30212012510D446
:10066300021201254CD40212012568D4021201257D
:100673005AA3031201258FF502120125A5F50212D3
:100683000125CBF502120125E7F602120125F1F649
:100693000212012526F8021201251EF90212012574
:1006A3009D7A00120125CD7B00120125007C0012EA
:1006B30001254A7C00120125117E00120125FDA0AF
:1006C3000112012567A101120125C6A2011201250C
:1006D300D6A20112012503A3011201255AA3011277
:1006E300012503A4011201250AA501120125D4A5A0
:1006F3000112012534A70112012577A70112012553
:100703001CA80112012569A8011201258FA8011255
:1007130001259DAA01120125A2AA01120125A7AC58
:1007230001120125F4AC0112012567AD0112012567
:100733009AAD011201253CAE01120125E5AE01126D
:1007430001251DAF0112012520AF0112012568AF5C
:1007530001120125A8AF01120125FFAF01120125E6
:10076300288A03120125408A03120125888A03126D
:1007730001259E8A03120125E58A03120125F98BBF
:1007830003120125868C03120125D18C0312012546
:100793008025001201258C2500120125C725001292
:1007A30001250C2600120125CC2600120125522713
:1007B30000120125B72700120125E32700120125A6
:1007C3001C28001201255A2A001201253E2C001272
:1007D3000125242E00120125672F00120125B531B2
:1007E30000120125C732001201251234001201251F
:1007F3002235001201253F35001201257A350012FA
:1008030001259C3500120125FF3500120125C03A50
:1008130000120125553B00120125A63B00120125BC
:10082300CD3B001201251F3C001201253D3C001267
:100833000125973C00120125803D00120125F63E5B
:10084300001201257A3F0012012596E402120125C8
:10085300A0E402120125E3E402120125FEE40212E0
:1008630001258EE502120125B6E502120125F3E505
:10087300021201252AE60212012553E6021201257E
:10088300C8E602120125DDE602120125F2E6021294
:10089300012523E70212012537E7021201255CE750
:1008A3000212012596E702120125C2E70212012571
:1008B3004EE80212012579E802120125C2E802126C
:1008C3000125ECE80212012517E9021201251C9DFE
:1008D300031201250080021201252E800212012538
:1008E3007C81021201255C82021201257B820212A5
:1008F3000125F882021201253B830212012591840E
:1009030002120125528502120125D98702120125FF
:100913007A88021201257089021201256D8A02125A
:100923000125C78B02120125528C021201258D9AD3
:1009330003120125F69A031201254A9B031201258E
:10094300719B03120125A29B031201253FE90212A9
:100953000125ACE902120125F3E9021201250BEB93
:100963000212012507EC02120125EAEC021201250D
:100973007EB502120125C0B50212012592B60212FC
:1009830001256BB70212012565B80212012547B98B
:1009930002120125B0B90212012566BA021201251D
:1009A300DABA0212012546BB021201256FBB0212FD
:1009B3000125E9BB0212012582BC02120125E7BC15
:1009C30002120125FCBC0212012542BD02120125BF
:1009D3005BBD02120125C0BD02120125C3BD021277
:1009E3000125BCFC02120125E4FC0212012522FDB3
:1009F30002120125E0FD0212012547FE0212012524
:100A030063FE021201258BFE02120125BBFE0212B8
:100A13000125CAFE0212012547FF021201256DFFBF
:100A230002120125F590011201259392011201256D
:100A3300AE9401120125EA940112012517950112C2
:100A43000125FC9501120125439601120125879684
:100A530001120125999601120125D996011201254A
:100A63000697011201255197011201259197011251
:100A73000125BF9701120125119801120125A198A3
:100A8300011201253F9B01120125559D01120125EC
:100A9300939D01120125249F01120125699F0112D3
:100AA3000125E09F011201252AA001120125D2A0F0
:100AB3000112012505AC0212012584AC02120125A5
:100AC30046B20212012555B302120125BDB402122A
:100AD300012554B502120125775500120125C05591
:100AE30000120125ED5500120125205600120125A3
:100AF3002D56001201253956001201254B560012BE
:100B03000125325700120125905700120125C557C0
:100B1300001201250859001201255559001201251B
:100B2300795900120125E65900120125A45A001231
:100B330001255D5B00120125CA5B001201257C5C67
:100B4300001201258C5C00120125135D00120125A2
:100B5300D25D00120125FF5D00120125785E0012AF
:100B63000125D55E001201251F5F00120125B55F27
:100B73000012012580600012012535610012012554
:100B8300AA61001201250B62001201257562001291
:100B93000125AE6200120125506300120125606435
:100BA30000120125A06400120125BD640012012575
:100BB300DC6400120125236500120125486500123B
:100BC3000125756500120125EF65001201253066C8
:100BD3000012012554670012012504680012012543
:100BE3005B6800120125C56800120125DE6800124A
:100BF30001253BA2021201258EA2021201259AA20F
:100C0300021201256FA30212012596A302120125E8
:100C1300D1A3021201253DA40212012579A40212D7
:100C23000125B2A402120125CAA4021201251FA59F
:100C33000212012538A50212012581A50212012500
:100C430094A502120125AEA502120125C4A5021224
:100C53000125F7A6021201253EA80212012540A98B
:100C6300021201253AAA02120125FA7F0012012578
:100C730077EA01120125A7EA011201256FEE01129D
:100C83000125C6EF011201258FF0011201250FF294
:100C930001120125E0F2011201251DF301120125C4
:100CA30040F3011201257EF30112012587F301129E
:100CB3000125D1F301120125DBF30112012585F48E
:100CC300011201255EF501120125B2F5011201257C
:100CD30014F60112012567F60112012596F6011299
:100CE3000125D3F601120125106900120125776C45
:100CF300001201257D6C00120125FF7100120125F0
:100D03007876001201254E7A00120125D686031249
:100D130001254C8703120125628703120125A3874E
:100D230003120125DD8703120125568803120125CD
:100D330091880312012504890312012542890312B4
:100D430001254B8903120125578903120125738954
:100D5300031201259E8903120125B489031201257B
:100D6300F8890312012516DB0212012529DB021281
:100D7300012543DB021201256CDB02120125AFDBE7
:100D830002120125EEDB021201252CDC02120125E1
:100D930091DC02120125A6DC02120125B1DC02124C
:100DA3000125BEDC02120125D5DC02120125E3DC9C
:100DB30002120125EEDC02120125FADC02120125E2
:100DC3000DDD0212012518DD021201253BDD0212A1
:100DD3000125E2DD02120125F2DD021201250CDEFE
:100DE3000212012529DE0212012545DE0212012528
:100DF3006ADE0212012575DE021201258ADE021265
:100E030001259EDE02120125FFDE0212012505DF08
:100E1300021201250BDF0212012511DF0212012547
:100E230029DF021201255CDF021201254ECE0112D9
:100E33000125D2CE0112012581CF01120125E0D077
:100E43000112012501D301120125EDD30112012560
:100E530022D40112012544D401120125F3D4011235
:100E63000125EBD60112012514D701120125A6D7BE
:100E730001120125D8D701120125E5D70112012559
:100E83003CD80112012562D801120125CFDA0112E3
:100E93000125D2DB011201252ADC01120125DDBF68
:100EA30001120125E7C001120125CEC1011201255E
:100EB300D8C101120125FAC10112012506C201128E
:100EC30001259FC301120125CEC301120125EAC4E6
:100ED3000112012543C501120125A9C601120125ED
:100EE30088C701120125E4C70112012551C8011267
:100EF30001258CC801120125CBC80112012584CB21
:100F0300011201259ECB011201252ACC01120125D4
:100F130038CC0112012591CC011201259FCC01127D
:100F2300012512CD0112012576CD01120125C0CD77
:100F330001120125D38C02120125F58C0212012521
:100F43001B8F0212012530920212012548930212CF
:100F53000125FB9302120125DD9402120125B795A9
:100F630003120125DC95031201254E960312012578
:100F730040C60212012549C60212012552C60212B9
:100F8300012529C702120125DAC80212012510C959
:100F9300021201254AC90212012580C90212012544
:100FA300BAC902120125EEC9021201251ACA021298
:100FB300012563CA021201259DCA02120125E6CA50
:100FC300021201253ECB0212012573CB0212012529
:100FD300CECB0212012508CC0212012559CC0212F4
:100FE30001258FCC02120125C9CC02120125F7CCB1
:100FF300021201251ACD0212012512A203120125A4
:101003003EA20312012599A203120125A3A20312F2
:101013000125B3A203120125E7BD02120125F1BD8B
:10102300021201252FBE0212012578BE02120125EC
:10103300B2BE021201250CBF021201252DBF0212FE
:10104300012505C2021201250EC2021201255BC24F
:101053000212012584C2021201258EC20212012549
:10106300FAC2021201258CC302120125D6C3021251
:1010730001250CC40212012598C402120125D9C40A
:101083000212012510C50212012522C502120125F3
:1010930041C5021201254AC50212012512C60212D8
:1010A300012544A0031201250C920312012542924B
:1010B30003120125789203120125C393031201251C
:1010C300DEA303120125F4A303120125FEA30312D9
:1010D300012548A403120125ACED02120125C1ED3F
:1010E3000212012574EE02120125B4EE021201254B
:1010F300CDEE0212012508EF0212012555EF02126F
:10110300012587EF02120125C9EF02120125D4F14F
:1011130002120125FE9803120125279903120125C6
:10112300569903120125EE9903120125069A03121B
:101133000125489A03120125FB8C03120125208DFA
:10114300031201254A8D03120125A7A403120125C9
:10115300E13F00120125464200120125E743001238
:1011630001259B44001201252E4500120125B3459C
:1011730000120125D845001201252E490012012530
:10118300B44900120125E74A00120125214B001240
:101193000125564B00120125164D00120125734DF2
:1011A30000120125BC4D00120125274E0012012516
:1011B300984E00120125CA4E00120125E24E00127C
:1011C30001252B50001201253B50001201255651D9
:1011D30000120125785100120125AE51001201259C
:1011E300625300120125EF53001201252E54001201
:1011F3000125525500120125D5A503120125B5FF7E
:1012030002120125F4FF02120125C2A503120125D2
:10121300BDA203120125CDA203120125E8A20312E8
:10122300012550A303120125409F03120125C59FE9
:10123300031201252BA003120125359E031201255C
:101243005C9E03120125B29E03120125029F031225
:1012530001256C8303120125818303120125C584B3
:1012630003120125418503120125B58503120125CA
:10127300CF8503120125E68503120125F9850312A3
:1012830001251386031201252A86031201255086A0
:1012930003120125A18603120125E1F102120125A2
:1012A300F5F1021201256FF20212012553F3021226
:1012B30001252AF5021201250080031201259080E1
:1012C300031201251C8103120125B5810312012597
:1012D3004682031201254F8203120125CD82031298
:1012E3000125E08203120125F682031201255683AC
:1012F30003120125698303120125E89B03120125CB
:10130300589C03120125639C03120125739C03124D
:1013130001257E9C031201259A9C031201255C97EB
:1013230003120125AE9703120125389803120125F4
:101333009F9803120125C78F03120125F18F031212
:101343000125BF90031201259A9103120125AEF7DF
:101353000112012575F801120125ACF801120125CE
:10136300D6F80112012536F9011201258CF9011273
:101373000125F1F90112012589FA0112012598FBD2
:10138300011201252FFD01120125BCFD01120125CA
:1013930023FE011201253AFE0112012554FF011219
:1013A300012592FF0112012578DC01120125F9DFE5
:1013B3000112012581E101120125D8E10112012564
:1013C300F7E10112012575E2011201250BE4011277
:1013D3000125F0E401120125FEE801120125D4E9FB
:1013E30001120125DDD40212012521D502120125A6
:1013F300ECD702120125E2D80212012506DA021205
:10140300012595DA0212012528F9021201256DF949
:10141300021201258AF90212012540FA021201255E
:1014230093FA0212012569FB0212012583FC0212C1
:10143300012550A503120125C47F001201257CA5B7
:1014430003120125A4A503E066701008A3E06670EB
:101453000A08A3E066700408A3E06622C3E79608BF
:1014630009E7960809E7960809E79622C3E0960874
:10147300A3E09608A3E09608A3E09622C008C3E081
:1014830096F50808A3E096420808A3E096420808E8
:10149300A3E09645087001D3D00822080808EAC0E3
:1014A300E0EBC0E086F0E7A4FA180986F0E7A42A87
:1014B300FA180986F0E7A42AFA180986F0E7A42A9D
:1014C300FA1986F0E7A4FBE5F02AFA190886F0E793
:1014D300A42BFBE5F03AFA190886F0E7A42BFBE509
:1014E300F03AFA18180986F0E7A4C5F02BFBE43AA2
:1014F300FA1908E7C5F0C6A426F6E5F03BFBE43A83
:10150300FA1886F0E7A4F6E5F00826F6E43B08F6B9
:10151300E43A08F6D0E0FBD0E0FA22E4CFC0E0E4FE
:10152300CEC0E0E4CDC0E0E4CCC0E075F020C3E67B
:1015330033F608E633F608E633F608E633F618180A
:1015430018EC33FCED33FDEE33FEEF33FFC3EC97C2
:1015530009ED9709EE9709EF97191919400FFFEC59
:1015630097FC09ED97FD09EE97FE191906D5F0BE14
:10157300ECF709EDF709EEF709EFF7191919D0E0C0
:10158300FCD0E0FDD0E0FED0E0FF226016080808A2
:10159300C6C313C618C613C618C613C618C613C6C1
:1015A300D5E0EA227009080808226016181818C640
:1015B300C333C608C633C608C633C608C633C6D542
:1015C300E0EA22E627F60809E637F60809E637F6E1
:1015D3000809E637F622E026F608A3E036F608A364
:1015E300E036F608A3E036F622E026F008A3E0365C
:1015F300F008A3E036F008A3E036F022C3E697F63E
:101603000809E697F60809E697F60809E697F62229
:10161300C3E096F008A3E096F008A3E096F008A3D1
:10162300E096F022E056F608A3E056F608A3E0564B
:10163300F608A3E056F622E056F008A3E056F008B9
:10164300A3E056F008A3E056F022E0F608A3E0F684
:1016530008A3E0F608A3E0F622E6F008A3E6F00804
:10166300A3E6F008A3E6F022E0FAA3E0FBA3E0FC84
:10167300A3E0FD22EAF0A3EBF0A3ECF0A3EDF0224C
:10168300CAC0E0E6F0A308DAFAD0E0FA22CAC0E062
:10169300E0A3C582CCC582C583CDC583F0A3C58233
:1016A300CCC582C583CDC583DAE6D0E0CA22C3E4C4
:1016B30098F8E499F91216F28026C3E49AFAE49BA7
:1016C300FBE920E7E91216F2E498F8E499F922C35A
:1016D300E498F8E499F91216F2E498F8E499F9C356
:1016E300E49AFAE49BFB22EB20E7CFE920E7E0B999
:1016F3000010BB0008E88AF084F8AAF022E4FBC8D3
:10170300FA22EB70227B10C833C8C933C9335007A0
:10171300C39AC3DBF280069A50012ADBEAC833F48A
:10172300C8C933F4C9FA2275F008E4C833C8C93309
:10173300C933C99AC99B5004C92AC93BD5F0ECFBEC
:10174300C833F4C8E4C9FA22600D08C6A2E713C679
:1017530018C613C6D5E0F322600C08C6C313C61817
:10176300C613C6D5E0F422700422600D18C6C33335
:10177300C608C633C6D5E0F41822251810AF08F5FD
:1017830018400215198008F51840021519D2AF2226
:10179300C0D0251810AF08F518500205198008F5B8
:1017A3001850020519D2AFD0D0222518F58210AFF8
:1017B30008F518400215198008F51840021519D2CA
:1017C300AF851983222518F582E43519F58322E4C0
:1017D300732518C582C0E0E51934FFC583C0E0E571
:1017E30018C3958224F810AF088583198582188061
:1017F30008858319858218D2AFCEF0A3E520F0A324
:101803007808E608F0A3DEFAEFF0A3E58124FAF8FE
:10181300E608F0A3E608F0A3E608F0A30808E60844
:10182300F0A3E608F0A315811581D0E0FED0E0F81F
:10183300158115811581E8C0E0EEC0E0222518C5A9
:1018430082C0E0E51934FFC583C0E0E518C3958283
:1018530024F910AF088583198582188008858319B8
:10186300858218D2AFCEF0A3E520F0A37808E6086E
:10187300F0A3DEFAEFF0A3E58124FBF8E608F0A37A
:10188300E608F0A30808E608F0A3E608F0A315812C
:101893001581D0E0FED0E0F815811581E8C0E0EEB7
:1018A300C0E022851983851882E0A3FEE0A3F5201A
:1018B3007808E0A3F608DFFAE0A3FFE0A3C0E0E0C6
:1018C300A3C0E0E0A3C0E0E0A3C0E0E0A3C0E01059
:1018D300AF08858218858319800885821885831946
:1018E300D2AFD083D082020122851983851882E08A
:1018F300A3FEE0A3F5207808E0A3F608DFFAE0A34F
:10190300FFE0A3C0E0E0A3C0E0E0A3C0E0E0A3C029
:10191300E010AF08858218858319800885821885B1
:101923008319D2AFD083D08222C0D02518C582C0FC
:10193300E0E51934FFC583C0E0E518C3958224F3BD
:1019430010AF0885831985821880088583198582DD
:1019530018D2AFC8F0A3E9F0A3EAF0A3EBF0A379A0
:1019630008E709F0A3D8FAECF0A3EDF0A3EEF0A397
:10197300EFF0A3D0E0F0A3D0E0F0A3D0E0F0A3E534
:1019830020F0A3E5F0F0A322851983851882E0C037
:10199300E0A3E0F9A3E0FAA3E0FBA37808E0F608EC
:1019A300A3DFFAE0FCA3E0FDA3E0FEA3E0FFA3E0D6
:1019B300C0E0A3E0C0E0A3E0F5D0A3E0F520A3E0FE
:1019C300A3F5F010AF0885831985821880088583F5
:1019D30019858218D2AFD082D083D0E0F8D0E0321C
:1019E30074048006740280027401C0E0F4041217C8
:1019F300ADD0E0121683227404800474028000CCFC
:101A0300C0E0EDC0E0E518C39CCCAD1950011D103A
:101A1300AF068C188D1980068C188D19D2AF12164B
:101A230090D0E0FDD0E0FC22D083D082E9C0E0E496
:101A330093A3C386F0C5F095F0F908E493A386F069
:101A4300C5F095F0700BE493A3C3994005E90480B6
:101A530002A3E475F002A42582F582E5F03583F54F
:101A630083D0E0F9E493A3C0E0E493C0E022D08301
:101A7300D082ECC0E0EDC0E0E493A3FCE493A3FDCB
:101A8300ED4C600D121ABDEC24FFFCED34FFFD801C
:101A9300EFE493A3FCE493A3FDED4C600D121AFC59
:101AA300EC24FFFCED34FFFD80EFD0E0FDD0E0FC43
:101AB300E493A3C0E0E493C0E022C0E0C3E49396C0
:101AC300087401939618400FE49366700808740134
:101AD30093661870007019A3A3C3E4939608740166
:101AE300939618A3A3400DD0E0D0E0D0E0021AAD46
:101AF300A3A3A3A3A3A3D0E022C0E0C0F088F0E493
:101B0300936670080874019366187000A8F0A3A385
:101B1300700BD0F0D0E0D0E0D0E0021AADA3A3D098
:041B2300F0D0E022FC
:101B280074F5121840EAFEEBFFEE2434F8EF3400A7
:101B3800F988088909EE2435121C54F8EE24371266
:101B48001C54F50AEC850AF0A4FCAAF0850AF0ED0D
:101B5800A42AFDE82CF8E43DF97A257B001216F258
:101B6800EA850882850983F074075AF87401B80079
:101B7800028004C333D8FCFBEA131313541FF8EE96
:101B880028F8EF3400F9E8245DF582E9121C575B68
:101B98006003EA801CEE2436121C54F5F0EA84A88F
:101BA800F0EE28F8EF3400F9E82438F582E9121C41
:101BB80057F97F040218EC74F5121840EAFEEBFF9F
:101BC800EE2434121C54C0E0EE2435F582EF3400C4
:101BD800F583D0E0F08E828F83A3A3A3A3A3E0FABA
:101BE800A3E0FB8E828F83A3A3A3A3A3A3A3E0FCFC
:101BF800A3E0FDECC39AF50AED9BF50BEE247FF507
:101C080008EF3400F509850882F583E06401702B3C
:101C1800EE2480F582EF3400F5831219FE121C5D64
:101C28007402121793E960137CDC7D04EEFAEFFB73
:101C3800120B92850882850983E4F0AC0AAD0BEE9D
:101C4800FAEFFB121B28122483021BBAF582EF3429
:101C580000F583E022C082C083851882851983E05D
:101C6800F8A3E0F9C3EA9CEB9D5010C3EC98ED99FA
:101C7800401BC3EA98EB995014800EC3EA98EB997D
:101C88004007C3EC98ED994004790180027900D0AF
:101C980083D08222EAC39CFAEB9DFB2274ED1218D2
:101CA800409003A2E064086005E06407702C90612E
:101CB800C8E060269003D0E0F874FF68601CE875FF
:101CC800F003A4C8AAF02AF974D228FE740339FFD5
:101CD8008E828F83A3A3A3E070057900021E44EED1
:101CE8002468F510EF3400F511906060E0851082EB
:101CF800851183F0750A45750B057508007509008F
:101D0800E5D914F50EE5D95403F50F601CEE2482CD
:101D1800F50CEF3400F50D7403650F6058E50E609F
:101D280013EE2467121C54700B793DEEFAEFFB1288
:101D38000BB680A6900540E064016026850C82857C
:101D48000D83E06004780480027800850E08E508B9
:101D5800C398FA95E0FB120A368A088B09EA450906
:101D68007006120E0E021CE2850C82850D83E0704F
:101D7800048A0A8B0B78008016E5D9C0E08812E542
:101D88000A2512F582E50B3400F583D0E0F008E867
:101D9800C3950E40E4850C82850D83E0602874FCB1
:101DA800250EF50E780A1219E7AC0EA90FEEFAEF18
:101DB800FB120C647402121793E9700AAA08AB09A3
:101DC800121324021D317403650F6058850E0C75BB
:101DD8000D00780C1219E7AC0AAD0BAA08AB091272
:101DE8000C287402121793851082851183E0F87409
:101DF80080687005750C7F8002880CE50CF50A7800
:101E08000A1219EBE50FF50A780A1219EBA90EACBC
:101E180008AD099003D0E0FA7B001208CE740212D4
:101E2800179380139003A2E06408600BAC0AAD0B13
:101E3800EEFAEFFB120CFA120E1A79017F0C021857
:101E4800EC74F312184074FC12177DEAFEEBFF895C
:101E580008A2AFE433F509C2AFEE2463F50AEF3404
:101E680000F50B8010AA0AAB0B120BE0121324909A
:101E780004E3E004F0850A82850B83E0F8A3E0F927
:101E8800E849602FE82402FAE93400FBEA2402F565
:101E98000CEB3400F50D780C1219E78A828B83E07D
:101EA800FCA3E0F9EEFAEFFB120BD47402121793BD
:101EB800E960B29004E3E060579004E4E0F890042D
:101EC800E3E0C398500C7402650870449004E5E0A0
:101ED800603E8E828F83A3A3A3A3E0851882851911
:101EE80083121F2874021217C8E8121F289004E2F0
:101EF800E028F074021217C8AC82AD838518828579
:101F08001983AA82AB8379011208DA9004E3E4F01A
:101F1800E509A2E092AF74041217937F060218EC49
:101F2800F0A3E4F09004E3E0F8220000852187851F
:101F380022C622C0E074EF12192CA2AFE433FEC20D
:101F4800AF759B00906182E0A2E05012E591A2E09B
:101F5800500C7591FE740165217003121CA4E0A257
:101F6800E55051E591A2E5504B7591DF9003A2E051
:101F780064076005E0640870237401652170357991
:101F8800019003D0E0FA75F003A4CAA8F028FB7406
:101F9800D22AFA74033BFB121E498018E0640D70C4
:101FA800139003C4E004F064287002E4F07A00E0BF
:101FB800F9120E20906182E0A2E64003022062E559
:101FC80091A2E640030220627591BF9003A2E064EB
:101FD800057008120D3C120D488003120D42752140
:101FE80000120DAEE99003A3F07900120DA2120AB7
:101FF800FC7A017B009003A1E0F912107890780335
:10200800E064427055900544E014F0704DC2AF1280
:10201800201A00782AD0E0F618D0E0F6E59F540799
:1020280070057509FF800375097FC4C0E07829E64B
:10203800F50808E65509F509740B780812175BD0FE
:10204800E02508F8906270E0A2E740F8E8C3339012
:102058006272F0906270E0D2E0F0906181E0A2E3F9
:102068005009E5E9A2E3500375E9F7A3E0A2E750B8
:1020780009E591A2E7500375917FEEA2E092AF7F48
:102088000402198BC0E0C0D0C082C083906183E095
:10209800A2E05009E5BFA2E0500375BFFEE0A2E14F
:1020A8005009E5BFA2E1500375BFFDE0A2E2500967
:1020B800E5BFA2E2500375BFFBE0A2E35009E5BF0C
:1020C800A2E3500375BFF7E0A2E45009E5BFA2E41C
:1020D800500375BFEFE0A2E55009E5BFA2E5500344
:1020E80075BFDFE0A2E65009E5BFA2E6500375BF61
:1020F800BFD083D082D0D0D0E032C0E074F21219C1
:102108002CE5A7A2E4500FE5A1A2E4500953A7EFDC
:1021180075A1EF122156E5A7A2E5500CE5A1A2E5AD
:10212800500653A7DF75A1DFE5A7A2E15009E5A195
:10213800A2E1500375A1FDE5A7A2E2500CE5A1A21A
:10214800E2500653A7FB75A1FB7F0102198B74F8B7
:102158001218407521019003A2E0640670077A0006
:102168007B00120D24A2AFE433FED2AF9003A8E0A7
:10217800640170187A207B009003A1E0F91210FC2A
:102188007A207B009003A1E0F912107E906182E032
:10219800D2E6F0900541E0602185C62280169003C2
:1021A800A7E064017008E5C654F84405F5C653BEB7
:1021B800FC121F347401652160E4EEA2E092AF7F47
:1021C800010218EC8E238F248582288583278518A1
:1021D80082851983E0CEA3E0CF852882852783EB0B
:1021E800C9EAC8EDCBECCA75F010C3E833C8E933C7
:1021F800C9EA33CAEB33CBC3EA9EF526EB9FF52534
:10220800B35004AB25AA26EC33CCED33CDD5F0DAA8
:10221800AE23AF242274F11218408A088B098C0A65
:102228008D0B90902F7808121627740F1217C87804
:102238000C12164D90902F780C1216277808790CEE
:1022480012145F90904F50107808790C1215FF788F
:102258000812147F4014800E780C79081215FF7844
:102268000C12147F50047901800279007F0802184B
:10227800EC74ED1218408A088B098C0A8D0B90902B
:102288002F780812162774131217C8780C12164DD7
:1022980090902F780C121627780C790812145F404A
:1022A800117808790C1215FFAA08AB09AC0AAD0B16
:1022B80080227510007511007512007513017810D1
:1022C800790C1215FF781079081215C6AA10AB11EF
:1022D800AC12AD137F0C0218EC90902F78081216F0
:1022E8004D8A828B83780812163A7F040218EC74A0
:1022F800F51218408C828D83780812164D8A828BCD
:1023080083780812161312234BC3E098F0A3E099C0
:1023180012233D401E909093780812164D8A828BA6
:102328008378081215EC8E828F83E02420F0A3E0D6
:10233800344EF080A4F08E828F83C3E09420A3E013
:10234800944E22EA2404F8EB3400F9E8FEE9FF8C05
:10235800828D83A3A3A3A3E0F8A3E0F98E828F83E1
:102368002274F5121840E9FE9004F7E0FAA3E0FBA6
:10237800EEC333F8E433F9742628F582748F39F5FF
:1023880083E02AF508A3E03BF50978081219E790DD
:10239800908712166B1221CC74021217938A088B3D
:1023A800098C0A8D0B7410780812158EAA08AB09CF
:1023B8007F040218EC74F11218408A0C8B0D8C0EF5
:1023C8008D0F740F1217C8E0FAA3E0FB74111217EF
:1023D800C8E0F508A3E0F50978081219E7EA24012E
:1023E800F508EB3400F509E4F50AF50B780C7908E3
:1023F80012149E909047780812164D780C7908129E
:10240800149EAA0CAB0DAC0EAD0F1221CC740212A7
:1024180017938B09EA450960047A0180027A00EC77
:102428002AFCED3400FD74131217C8E0F8A3E0F994
:10243800E8FEE9FFECF8EDF97A717B021216F288F2
:10244800088909E4F50AF50B8E828F83780812163D
:102458005CECF8EDF97A717B021216F28A088B09A6
:102468007405780812176A8E828F83A3A3A3A3E545
:1024780008F0A3E509F07F080218ECC082C083E9E0
:10248800906000F0D083D08222C2AF02000022C048
:10249800E074F212192CA2AFE433FED2AFC2C0E549
:1024A800D1A2E4500653D1EF1212F4EEA2E092AF9B
:1024B8007F0102198BC0E074F212192CA2AFE43329
:1024C800FED2AFE589A2E04006E589A2E1500312F9
:1024D800124C758900758900C2C5EEA2E092AF7FE3
:1024E8000102198BC0E0C0D0E8C0E0E9C0E0E5A86F
:1024F800D2AFC2C7A2E7A2E792AFD0E0F9D0E0F826
:10250800D0D0D0E032C0E0C0D0E8C0E0E9C0E0C040
:1025180008C009C082C083A2AFE433F9D2AF9009E2
:10252800F9E0F8A3E0687008539AFBA374018026C9
:10253800C2E99009F9E0F50874012508F0747925D5
:1025480008F58274093400F583E0F5C19009F9E0D3
:10255800C394804002E4F0E9A2E092AFD083D08235
:0F256800D009D008D0E0F9D0E0F8D0D0D0E032E0
:10257800FFFFFFFFFFFFFFFFC082C083E9900B92C0
:10258800F002280F74F71217D4E99002E1F07C19D1
:102598007D037AFF7BFF1208209002E274FFF0A30C
:1025A800F0A3E4F0A3F079051207A89002E1E0F99E
:1025B8001206CA7A3E7B081209E87F010218A6743F
:1025C800F41217D48A088B09EB548060309002E12A
:1025D800E0F91210608A0A8B0BAE0AAF0BEE4F605F
:1025E800138E828F83E064B070031207C0EEFAEF97
:1025F800FB12104EAA08E5096480FB80047A007B70
:10260800000227DE74F21217D474FC12177DEAFE5A
:10261800EBFFEE4F603874021217C8EEF0A3EF120A
:102628002A43ECF0A3ED122A43AA82AB831206C414
:10263800E9F508707374121217C81235F7E50A45E0
:102648000B60658E828F831226BAEE4F700575086F
:102658000280557A067B001210B48A0C8B0DA80CE8
:10266800A90DE8497005750813803D88828983E4BF
:102678001226C4A3A3EEF0A3EF123A90E50AF0A342
:10268800E50BF09002E712274C9002E76017E0FC98
:10269800A3E08003EAFCEBFD8C828D8312274C704B
:1026A800F38C828D8312351CA908740412179302C7
:1026B8003C92A3A3A3A3E0FEA3E0FF22F0A3F0882B
:1026C8008289832274F21217D4890AE975F017A453
:1026D800FEAFF09002E6E4F09002E412274C600AA4
:1026E8001210BA9002E4E4F0A3F0EEFAEFFB121035
:1026F800B48A088B09EA4509602FEEFCEFFD7900E2
:102708001210369002E4E508F0A3E509F07B00809A
:1027180008122736E4F0A3F00BEBC3950A40F2E564
:102728000A9002E6F0790080027913023C92EB7578
:10273800F017A4F8A9F09002E4E028FAA3E0398A97
:1027480082F583221232B2EA4B2274F41217D4753E
:102758000800750900740C1217C8123A64FEE9FFE4
:10276800800CE5082401F508E5093400F509C3E5FE
:10277800089CE5099D503285080A85090B74037881
:102788000A12176AEA250AF8EB350BF98882898359
:10279800A3A3A3A3A3A31235F7EE650A7003EF65FD
:1027A8000B70BFE8FAE9FB80047A007B008027748D
:1027B800F41217D47900EAA2E0501B7508127509C3
:1027C8009078081219E77C047D007A947B0B120735
:1027D800A274021217937F040218A6C082C08390C5
:1027E80002E7122816601C88828983A3A3E06A7016
:1027F80003A3E06B8882898370E8A3A3A3A31232A2
:10280800AE80047A007B00D083D082020122123D80
:1028180065E8492274EE1217D474FC12177DEAFE9B
:10282800EBFF851882851983E4F0A3F0EE240212E9
:102838003500EE2405122A31EE2404F50EEF122E8F
:1028480016E024FE603924FC604624FE605224FE13
:10285800605E24FE700302293624FE70030229AE4E
:1028680024FE70030229BD24FE70030229CC24FC37
:1028780070030229DB24FE70030229EA022A27904A
:1028880003007417F0A3E4122A4B120442022A2709
:10289800851882851983AC82AD831207C60229F791
:1028A800851882851983AC82AD831207CC0229F77B
:1028B800850C08850D0974021217C8AC82AD838592
:1028C80008828509831232AE1206E88A0C8B0DAC99
:1028D8000CAD0DEC4D6042E4F50CF50D780C1219B9
:1028E800E7750C00750D03780C1219E7750C017566
:1028F8000D03780C1219E774081217C81219FE791B
:10290800161232A81208087408121793E9F50C7009
:102918000B1232A412045A800F750C0185088285A7
:102928000983122A3912351C850C080229FA740207
:102938001217C8AC82AD83850C82850D831232AE26
:102948001206E88A108B11AC10AD11EC4D6043856E
:102958000C82850D83A3A31219FE7510007511034F
:1029680078101219E775100175110378101219E71C
:1029780074081217C81219FE79161232A81208081C
:102988007408121793E9F509700B1232A412046047
:10299800800F750901850C82850D83122A3912353D
:1029A8001C850908804C851882851983AC82AD8303
:1029B8001207D2803A851882851983AC82AD8312BA
:1029C80007D8802B851882851983AC82AD831207BE
:1029D800DE801C851882851983AC82AD831207E4DA
:1029E800800D851882851983AC82AD831207EAE9C8
:1029F800F508E50860298E828F83A3E06414601FC0
:102A0800850E82850F83E0900300122A43123D61F0
:102A180090030112351CE508A3122A4B12043CEE60
:102A2800FAEFFB120766023408F50CEF3400F50DD7
:102A380022123D6585188285198322F085188285C2
:102A4800198322F07C007D03850A82850B8312326C
:102A5800B22274EE1217D474FC12177D8A0A8B0BFB
:102A68008C0E8D0FEA2405F508EB3400F5097C156A
:102A78007D0079007A007B03121036E5082402F500
:102A88000CE509122A3485188285198385821085F8
:102A9800831178101219E7850882850983A3A3A3F7
:102AA800A3122F5E1219E7E5082405F510E509348D
:102AB80000F51178101219E7850C82850D83123202
:102AC800B81206E274061217938A108B11AE10AF73
:102AD80011E50A2402F50AE50B123503EE4F7003DF
:102AE800022C20801774021217C81232AE8882890D
:102AF80083EAF0A3EBF0900300E004F0900300E019
:102B0800C394054003022C20E4F510F51178101247
:102B180019E77510E975110278101219E77510EAAE
:102B280075110278101219E774061217C81219FEE7
:102B38007910EEFCEFFD1232A8120808740812177B
:102B480093E9705E850882850983A3A3A3A3A3A341
:102B5800A3E0F89002E9E0687048122F5E1219E7C6
:102B68007CEA7D02E5082408FAE5093400FB121026
:102B7800307402121793E960298E828F83A3A3A36E
:102B8800A31232AE900300E0F51074027810121709
:102B98006A74012510F58274033511F583EAF0A3F0
:102BA800EBF074021217C885821085831178101211
:102BB80019E774021217C81219FE850C82850D8355
:102BC800123D761206EE74041217938A108B11AE1A
:102BD80010AF11900300E0F5107511007402781021
:102BE80012176A74002510F874033511F988828960
:102BF80083A312274C7003022AE4E82403F8E9347B
:102C080000F9EE4F6003022AED8882898374FFF091
:102C1800A3F0900300E004F0900300E0600A123291
:102C2800A412044E7900800B850882850983123529
:102C380013790A02340874EA1217D474FE12177D45
:102C48008C128D13EA2405F50CEB123EE01226BE19
:102C5800750800750900EA2402F510EB3400F51137
:102C680085188285198385820A85830B780A12194B
:102C7800E7850C82850D83A3A3A3A3122E20121926
:102C8800E7E50C2405F50AE50D123503780A121953
:102C9800E7850C82850D83123D741206E2740612D4
:102CA80017938A0A8B0BEA450B7003022DD1EA248D
:102CB80004F50EEB122E161226BE8A828B83A3A36E
:102CC800A3E0F98510828511831232AE1206D0E98D
:102CD800F5096003022DD1E4F514F51578141219DD
:102CE800E77514E975150278141219E77514EA7571
:102CF800150278141219E774061217C81219FE790A
:102D080013AC0AAD0B8510828511831232AE1208FE
:102D1800087408121793E9F5096003022DD190028F
:102D2800E9E0F8E5087009E02402900301F0801753
:102D3800900301E0FCE82402FAE43400FBEA6C703A
:102D480001EB6003022DD5850882AA82122F5594C3
:102D580014122F4D5073850E82850F83E0C0E074E6
:102D6800022A122E0DD0E0F00508850E82850F8309
:102D7800A3E0C0E085080A7402250A122E0DD0E0EF
:102D8800F005089002E9122E201219E77CEA7D026C
:102D980085080A7402250AFA74033400FB12101E0F
:102DA80074021217939002E9E02508F50874FF6E83
:102DB800700374FF6F6012EE24010EEF3400FFE51C
:102DC80008C394145003022C68E508601312319963
:102DD8008510828511831232AE1204547900801452
:102DE800E509700375090A851282851383EEF0A33D
:102DF800EFF0A90974021217937F0E0218A685082E
:102E08000C7402250CF58274033400F58322340017
:102E1800F50F850E82F58322123AA32274EE12175B
:102E2800D474FE12177D8C0E8D0FEA2405F50CEB79
:102E3800122A34750B00900300E4F0F50AEA240224
:102E4800F508EB3400F5098049900300E0FA900298
:102E5800E9E0F8122F559417122F4D400D900300FA
:102E6800E0F87416C3989002E9F0122F5E1219E781
:102E78007CEA7D0274012AFA74033400FB12101EE6
:102E880074021217939002E9E0F8900300E028F02A
:102E9800050AE50C2416F582E50D122E11E0F8E579
:102EA8000AC3984003022F36900300E0C3941650DB
:102EB8007DE50AC333F8E433F9E50C28FEE50D395E
:102EC800FF851882851983AC82AD838E828F831229
:102ED80032AE1206E88A108B11AC10AD11EC4D70B1
:102EE80005750B018043E4F510F51178101219E708
:102EF8007510E975110278101219E77510EA751145
:102F08000278101219E774061217C81219FE7916FA
:102F18008508828509831232AE12080874081217D0
:102F280093E9F50B7003022E5112350F80107C00C7
:102F38007D038508828509831232AE120466A90BC7
:102F4800740202340AE99400C365D03322EA28F8EF
:102F5800E43400F9E822E0F51075110078102274C5
:102F6800EA1217D474FC12177D8A0C8B0D8C128D03
:102F780013EA2405F50AEB123503750800750900F4
:102F8800E50A2402F510E50B3400F5117402121756
:102F9800C885820E85830F780E1219E7850A828507
:102FA8000B83A3A3A3A3123A4F1219E7E50A24053A
:102FB800F50EE50B3400F50F780E1219E78510822F
:102FC8008511831235091232A81206E27406121707
:102FD800938A0E8B0FAE0EAF0FE50C2402F50EE5AB
:102FE8000D3400F50F80408882898374FFF005084E
:102FF800122E0674FFF005089002E9E0F50C750D35
:1030080000780C1219E77CEA7D0285080C74022509
:103018000CFA74033400FB12101E740212179390FA
:1030280002E9E02508F508EE4F60718E828F83A3D0
:10303800A3A3E0F9850E82850F831232AE1206D063
:10304800E9F509EE2404122A31E97044E4F514F58F
:103058001578141219E77514E97515027814121900
:10306800E77514EA75150278141219E7740812172F
:10307800C81219FE7911EEFCEFFD850E82850F83CB
:103088001232AE1208087408121793E9F50960277E
:10309800850C82850D8312318F12351CE50870036B
:1030A800023175123199850E82850F831232AE1264
:1030B800046C790002318A850882AA82EA9002E9C2
:1030C8007009E02404900301F08022E0F8900301E5
:1030D800E0F514E82404FCE43400FDEC6514700108
:1030E800ED70C0122F559412122F4D50B6850C82D8
:1030F800850D83E0C0E074022A122E0DD0E0F005A1
:1031080008850C82850D83A3E0C0E0122E06D0E06E
:103118001231AB85820C85830D780C1219E7740483
:103128001217C81219FE851082851183123D761276
:1031380006EE74041217938A0C8B0DAE0CAF0D8536
:10314800080C7402250CF874033400F9EE4F700370
:10315800022FEF851882851983E0888289831231CE
:10316800ABA3E0C0E0122E06D0E0022FFDE5097007
:103178000375090A850A82850B8312318F12351C63
:10318800A9097404022DFE123D65851282851383F8
:1031980022900301E0F5F0E50884900300F07C003C
:1031A8007D0322F005088518828519832274EC12A4
:1031B80017D474FE12177D8A088B098C0E8D0FEABE
:1031C8002405FEEB3400FF851882851983AC82AD97
:1031D800838E828F831232AE1206E88A0A8B0BEE38
:1031E8002418122A31EA450B700302327F1233F198
:1031F80050328518828519831232AE1207FC8A1064
:103208008B11EA4511606B7912AC0AAD0B85088207
:103218008509831232AE8510828511831217D2E98F
:10322800F50A7058E4F50AF50B780A1219E78E8248
:103238008F83A3A3E0F50A780A1219E7EE24031294
:103248003500780A1219E78E828F831232B8120875
:103258000E7406121793E9F50A7021850C82850D04
:1032680083E0701F8508828509831232AE120472CA
:103278008011750A0E8009750A018004E50A600349
:1032880012350F850C82850D83E060047900800279
:10329800A90A74021217937F0C0218A67C007D03FA
:1032A800850A82850B831232B222E0FAA3E0FB2260
:1032B800E0FCA3E0FD8508828509831232B22274FE
:1032C800EE1217D474FE12177D8A088B098C0C8DA8
:1032D8000DEA2405FEEB3400FF750E008518828583
:1032E8001983AC82AD838E828F831232AE1206E8C8
:1032F8008A0A8B0BEA450B70030233DD1233F15057
:10330800358518828519831232AE1207FC8A0E8B16
:103318000FEA450F605E7912AC0AAD0B850882850D
:1033280009831232AE850E82850F831217D2E9F512
:103338000E60030233E08508828509831235F7AAF7
:103348000AFB1207F08A108B11A810A911E849701E
:103358001E7AFF7BFF1207F08A108B11A810A911A3
:10336800E849606C88828983E50AF0A3E50BF0756B
:103378000A008007750E0E805F050A9002E6E0FAE3
:10338800E50AC39A504AE50A75F017A4FAABF08823
:10339800828983A3A3E02AFAA3E03BFB8A828B837A
:1033A800123509EC4D70D2750A17750B00780A12A0
:1033B80019E7EEFCEFFD12101E7402121793EEFCD3
:1033C800EFFD8508828509831232AE1204788014D5
:1033D800750E098003750E01123D5D850C82850D01
:1033E8008312351CA90E022F48E5082402F508E5CA
:1033F800093400F5098A828B83A3A3A3E0A2E522FE
:1034080074041217937F0A0218A674EC1217D48C4E
:10341800108D11EA2405F50CEB122A34750F00EA19
:103428002402F50AEB123503850A82F5831232AEBF
:103438001207F08A088B09EA450970030234F5750A
:103448000E008071850C82850D83E06401704F8EBB
:10345800828F83A3A31219FE8E828F83A3A3A3A3B3
:10346800E0F51275130078121219E7EE2405F5122B
:10347800EF3400F51378121219E71232A812080E69
:103488007406121793E9F50F6014850C82850D8375
:10349800E4F0123D5D85108285118312351C7C177E
:1034A8007D007900EEFAEFFB1210368E828F83E4EE
:1034B800F0A3F0050E9002E6E0F8E50EC398501E62
:1034C800E50E75F017A4F8A9F0850882850983A38D
:1034D800A3123EEA123509EC4D600302344C85080C
:1034E8008285098374FFF0A3F0E50F70061232A8F5
:1034F80012047EA90F02329FF50AEF3400F50B2261
:10350800A3E0FCA3E0FD228E828F83123D65850E29
:1035180082850F83E8F0A3E9F022C082C08390027D
:10352800E2E06A7003A3E06B70067AE27B02800433
:103538007A007B0002280FC082C08378008C828DBD
:1035480083E06A7003A3E06B7010E875F003A4F8D9
:10355800A9F0EC28FAED39FB8015088C828D83A33D
:10356800A3A3E06A7003A3E06B60DF7A007B00022C
:10357800280F74F61217D41207BA8A828B83E58251
:10358800458370067A007B008007A3A3A3A31232A9
:10359800AE023C0E74F21217D4E9FE740E1217C86C
:1035A8001235F774101217C8123A6F8C828D83E0A7
:1035B80064027036A3123D6BF50CA3E0F9A80C74F5
:1035C800026870037429697021750C02750D007802
:1035D8000C1219E778081219E7780A1219E7EEF9B8
:1035E800120832740612179380027901023C92E0A5
:1035F800F50AA3E0F50B2274E81217D474FB12172E
:103608007DE9851882851983F08A168B17ECFEED03
:10361800FF751000741D1217C8123D61741D121732
:10362800C812351C8E828F83A3A3A3E0A2E4502D79
:10363800741D1217C81232AE1207FC8A828B83E5FA
:103648008245837003023A40790AEEFCEFFDAA1620
:10365800AB171217D2E9F5106003023A43741F1230
:1036680017C8123A6F74211217C81235F77423124B
:1036780017C8E0F50EA3E0F50F8E828F83E0640291
:1036880060030239EEA3123D61850882850983A390
:10369800858212858313EE2406122A318882898353
:1036A800E0FAA3E0F9EA2400F514E439F5157814F2
:1036B800121A71010000280128E33607000228A821
:1036C80037032815370029DF3801290A390229ABC1
:1036D800380329DF3804298939EE39E50E450F60AA
:1036E800030239E9850C82850D83123A64FAE9FBF5
:1036F8008A828B83E0850A82850B83123A9A121993
:10370800E78A828B83A3E0FCA3E0023973E50E45C8
:103718000F60030239E9850A82850B837401F01270
:103728003A77850882850983F07C007D008E828F38
:1037380083A3A3A3A3E02401FAA3E03400FB1206A9
:10374800E8EA4B60418A828B83E02402F8850A828A
:10375800850B83E028F0EA2404F8EB3400F988822A
:103768008983E0851282851383123AAC123A9A1241
:1037780019E78A828B83123508E5082403FAE509DC
:103788003400FB023978850A82850B83E02404F033
:103798007C047D007900AA12AB13121036023A435A
:1037A800E50E450F60030239E9123A77FEA3E0FF00
:1037B800850A82850B837404F0EE85088285098367
:1037C800F0EF851282851383F074031217C8AC8258
:1037D800AD83EEFAEFFB1206E88A0C8B0DEA450D75
:1037E800700302388C8A828B83A3A31226BA7401D1
:1037F8001217C885820E85830F780E1219E7740593
:103808001217C81219FE7CFF7DFF1206EE7404120F
:1038180017938B0FEA450F7033850C82850D831241
:103828003A4F1219E7850C82850D83A31219FE7C85
:10383800027D007ABE7B9012051A7404121793E970
:10384800700A74011217C874FFF0A3F08E828F8378
:10385800E064027039750C02750D00780C1219E7D6
:103868008E828F83123508E5082404FAE5093400AE
:10387800FB12101E7402121793850A82850B83E0CF
:103888002402800974011217C8EEF0A3EFF0740146
:103898001217C8123A60F074011217C8A3123A58E6
:1038A8000239E3E50E450F60030239E9850C82858C
:1038B8000D83123509AA16AB17120826850A8285C8
:1038C8000B837402F0EA850882850983F0851282E9
:1038D800851383EB0239E6E50E450F60030239E9EB
:1038E800123A77F8A3E0F9850A82850B837402F00F
:1038F800E8850882850983F0E985128285138302A9
:1039080039E6850C82850D831232AE121018EAFC56
:103918008C82A882C3950EE4950F405FE8650E700F
:1039280002E50F70047C008022851882851983E0E7
:10393800FAE50E2AFAE50F3400FBC3EA98EB940087
:103948005003E08005E50ECCC39CFCEC850A82851B
:103958000B83F08C0A750B00780A1219E7850C8224
:10396800850D83E0250EFCA3E0350FFDAA08AB0901
:1039780012101E7402121793023A43751007023A86
:1039880043E50E450F705A850C82850D83123D6103
:10399800850A82850B8374071226C6123A581226A6
:1039A800C6A3E0851282851383F0E82402FAE9347D
:1039B80000FB8A828B83123A58123A87123A60A324
:1039C800123A90123A69F0E82405F8E93400F988C7
:1039D800828983123A69A3123AACA3A3A3A3F08005
:1039E8005A75100B8055741D1217C81232AE120783
:1039F800BA8A828B83E5824583603D123D61880CDB
:103A0800890DE8450D6031780E1219E7780A121908
:103A1800E778081219E774061217C8E0F9EEFCEF08
:103A2800FDAA16AB17850C82850D831217D2740672
:103A3800121793E9F510800375100EA9107405127A
:103A480017937F100218A6E0F50E750F00780E2266
:103A5800E085088285098322123AB622123D65E87C
:103A680022123AB6A3A322E0F508A3E0F5092285BD
:103A78000C82850D83E0F8A3E0F5838882E022A319
:103A8800A3F08A828B83A322F088828983A3A3A3CD
:103A9800A322F08A828B83123AA322E0F50A750BDF
:103AA80000780A22F088828983A3123AB622E08538
:103AB8000882850983A3A32274EE1217D474FE1218
:103AC800177D8A0A8B0BECFAEDFB74141217C8E009
:103AD800F510A3E0F51174161217C8E0FE74181259
:103AE80017C8E0F50EA3E0F50F851882851983AC99
:103AF80082AD831206E88A0C8B0DEA450D60498574
:103B080018828519831232AE1207BA8A828B83E52E
:103B1800824583602FA3A3123A6FE5084509602404
:103B2800780E1219E778101219E7EEF9AC0CAD0D02
:103B3800AA0AAB0B8508828509831217D27404126E
:103B480017938006790E80027901022F4874F612C5
:103B580017D474FE12177D740C1217C8123A6485B4
:103B68001882851983F074011217C8E9F0E4F50882
:103B7800F50978081219E775080278081219E77428
:103B8800041217C885820885830978081219E71274
:103B9800080E74061217937402121793806874F74C
:103BA8001217D4EAFEEBFF89087C197D0312082658
:103BB800EA5402600BA908EEFAEFFB1206DC800259
:103BC80079010225C274F61217D474FF6A7003745F
:103BD800FF6B70168C828D83123C13E4F08C828DFF
:103BE80083A3A3A3123C13A380181207F68A088B99
:103BF80009A808A909E849600D8882898374FF1219
:103C080026C4A3A3E4F07F020218A674FFF0A3F071
:103C18008C828D83A3A32274F61217D41207F68A16
:103C2800828B83E58245836006A3A3E0FA80027A4B
:103C3800007B0080D174F21217D48A088B09ECFE3D
:103C4800EDFF740E1217C8E0F50A1207F68A0C8BFE
:103C58000DA80CA90DE8497026EEFCEFFD7AFF7B54
:103C6800FF1207F68A0C8B0DA80CA90DE849700401
:103C78007911801688828983E508F0A3E509F08820
:103C8800828983A3A3E50AF079007F060218A67447
:103C9800EE1217D4EAFEEBFF8C088D09890C741418
:103CA8001217C8123D6174161217C81232AE750D7C
:103CB80000E8496003023D557402650C6003023D4B
:103CC8005074121217C8123D6BFCA3E0F9EC2400E3
:103CD800F50EE439F50FEAF4F8EBF4F9EC58F8E5E9
:103CE8000F59F9E849705CE5082406F8ED3400F945
:103CF800880A890B8882F583123D761208268A1075
:103D08008B11E50E65107004E50F65116042780EA1
:103D18001219E7850A82850B83123D7612082C74E6
:103D280002121793E9F50D7027780E1219E7850826
:103D380082850983A3A3123D7412084474021217E2
:103D480093800D750D808008750D0D8003750D0B22
:103D5800A90D02340D8E828F83123D6522E0F8A3EF
:103D6800E0F922123D6588828983E022A3A3E0FC62
:103D7800A3E0FDEEFAEFFB2274E81217D474E71201
:103D8800177D851882851983EAF0A3EBF08C168DD0
:103D980017890E75080075090074311217C8E0F507
:103DA80012A3E0F51374331217C8E0F514A3E0F575
:103DB8001574351217C8E0F50FE50975F003A4F876
:103DC800A9F0851882851983123EEAE0F47003A3EE
:103DD800E0F47003023ECDEE2402F50CEF123EE053
:103DE800E07003023ECD85160A85170B780A121972
:103DF800E7AC14AD15AA12AB131207AE7402121772
:103E0800938A0A8B0BEA450B7003023ECDE4F5104A
:103E1800F51178101219E774061217C885821085F3
:103E2800831178101219E774091217C88582108552
:103E3800831178101219E7851282851383A3A3A32F
:103E4800A31219FE7914AC0AAD0B8E828F8312323D
:103E5800AE1208087408121793E97069850A8285FA
:103E68000B83A3A3A3A3123D6174021217C81235D2
:103E78001C850C82850D83E0A2E05018A90E7402FF
:103E88001217C8AC82AD838E828F831232AE1207AE
:103E980000E94208850C82850D83E0A2E15026E501
:103EA8000FF50A780A1219EBA90E74031217C8AC99
:103EB80082AD838E828F831232AE1206FA7401129B
:103EC8001793E942080509E509C394025003023D26
:103ED800C1A9087419023A473400F50D850C82F51A
:103EE8008322E028FEA3E039FF8E828F832274F2BA
:103EF8001217D4EAFEEBFF890B7401650B600E7490
:103F080002650B706A7901120A06E97062EEFAEF2F
:103F1800FB1207F08A088B09EA45096047750A0011
:103F2800800B7C177D007900121036050A9002E696
:103F3800E0F8E50AC3985021E50A75F017A4F8A936
:103F4800F0850882850983A3A3E028FAA3E039FB5A
:103F58008A828B8312281670C98508828509837422
:103F6800FFF0A3F07C197D03EEFAEFFB12082002A4
:103F78003C9274F21217D48A088B09ECFEEDFF7498
:103F88000E1217C81235F7900B92E0F4603D7A09CB
:103F98007B00121048EA4B60328A828B8374B1F03E
:103FA800A3E4123A89A3123A87A3E508F0A3E50926
:103FB800123FD6EEF0A3EF123FD6A3A3E50AF0A373
:103FC800E50BF0900B92E0F9121054023C92F08A43
:103FD800828B83A3A3A3A3A32274F01217D474FA29
:103FE80012177D890BECFEEDFF750A008A088B0914
:103FF8007808121A2B0004101442244042405C40F6
:1040080074409240AA40CD40E540F9402341AB417D
:10401800BC41D341EE411442144239417401650B4D
:10402800600302420F8E828F83E0F8C3940340033B
:1040380002420FE8900C7E0241EB7402650B6003AC
:1040480002420F8E828F83124911900C7FE8F0A3F1
:10405800E90241EB7401650B600302420F12423C16
:10406800400302420FE89007660241EB7401650BBA
:10407800600302420F8E828F83E0F8C394054003E9
:1040880002420FE89007670241EB7401650B600379
:1040980002420F12423C400302420FE890076802B6
:1040A80041EB7410650B600302420F750810750927
:1040B8000078081219E77A697B0712101E74021239
:1040C80017930242357401650B600302420F1242D6
:1040D8003C400302420FE89007790241EB74016506
:1040E8000B600302420F8E828F83E0900C820241A4
:1040F800EB7404650B600302420F8E828F83780C89
:1041080012164D909087780C12147F500302420FBC
:1041180090077B780C12165C024235E96003024274
:104128000F120688E970051211B6806090080E809B
:104138006E7407650B600302420F75080675090067
:1041480078081219E78E828F83A3AC82AD8374023C
:104158001217C8AA82AB8312102474021217937C18
:10416800007D00851882851983AA82AB838E828F91
:1041780083E0F912115CE9F508C3940A400302428E
:1041880032120688E9700CA9081211BC7950121372
:10419800A2806F740F2508F58274083400F58374C3
:1041A8000180407401650B705E12423C5059E890E2
:1041B800077A802F7401650B704D8E828F83E0F82B
:1041C800C3940A5042E8900C8180187401650B7002
:1041D800368E828F83E0F874F928C3940A5028E851
:1041E800900C83F080477401650B701B90080DE0FC
:1041F800F88E828F83E090080DF0E87030E064015B
:10420800702B1211AA8026750A188021C3EA9427F8
:10421800EB940050157402650B700F8E828F831219
:104228004D10120526E9F50A8003750A02A90A74D9
:10423800060249068E828F83E0F8C394022274F046
:104248001217D474CC12177D8C0A8D0B7420121798
:10425800C8AC82AD83758390758206740612169079
:1042680074201217C8AC82AD8312115CE9F508748A
:10427800441217C8E0FEE9C3940A40030243B47528
:10428800F006E9A4F50974261217C8AC82AD837A42
:104298000E74202509F912139CE97009743212175B
:1042A800C8E0FF80027F00900C7EE0640270047416
:1042B800018001E4F50D780D1219EBEEFDEFFCA974
:1042C80008AA0AAB0B1211E074011217937C147D33
:1042D800007900740C1217C8AA82AB8312103674C6
:1042E8000C1217C8AC82AD837A1074242509F91210
:1042F800139CE9703C7C1079FF740C1217C8AA82D1
:10430800AB8312109CE97029741C1217C8AC82ADDB
:10431800837A0474252509F912139C740C1217C8A2
:10432800AC82AD83EFA2E0E433F9AA0AAB0B120525
:10433800B0851882851983AC82AD837A0C74702598
:1043480008F912139CE97053851882851983AA828B
:10435800AB8312118C750800E50875F003A4F8A961
:10436800F0851882851983E58228F8E583124B1AAF
:10437800124D0A601D88828983A3A3E0F50E750F8C
:1043880000780E1219E7AA0AAB0B1208147402126D
:1043980017930508E508C3940440BDEFA2E1500C4B
:1043A800900765E0F9AA0AAB0B12081A74046E703C
:1043B80027900C7EE06402701F7A00900779E06015
:1043C800010A900766E06004780480027800E84AF1
:1043D800F9AA0AAB0B120670790074340249067404
:1043E800F01217D4EAFEEBFF8C088D09750A0AE96A
:1043F800600C146009146037146079024496121135
:104408009EE9F50AC3940A4003024496E508450963
:10441800607C750E06750F00780E1219E7EEFCEF3A
:10442800FDAA08AB0912101E7402121793805F755B
:104438000B00750E06750F00780E1219E7EEFCEFEB
:10444800FDE50B75F00EA4F8A9F0748728FA740737
:1044580039FB1210307402121793E9600C850B0AAD
:10446800E50AC3940A50278016050BE50BC3940A86
:10447800501C80BE1211A4E9F50AC3940A500FE536
:104488000845096009AA08AB09A90A121198A90ADE
:1044980002490974F41217D4890875091574FF6A5A
:1044A800700374FF6B70277E00AC087A027B00EE05
:1044B800F912117AE960037509000EEEC3940A40F7
:1044C800E8E50860537ACE7B11120A18804A12096F
:1044D800FA8A0A8B0BAE0AAF0BEE4F60387C007D70
:1044E80000EE2405FAEF3400FB8E828F83A3A3A38A
:1044F800A3E0F912115CE9C3940A500CAC087A02E3
:104508007B0012117A750900E508600CEEFAEFFBE2
:104518001211CE8003750914A9098005740E1217AB
:10452800937F040218A674F21217D4ECFEEDFF75FF
:104538000815740E1217C8E0F50AA3E0F50B74FF0E
:104548006A700374FF6B7021750900AC0AAD0BEE3D
:10455800FAEFFBA909121180E96003750800050943
:10456800E509C3940A503F80E21209FA8A828B83D4
:10457800E5824583602D7C007D00E5822405FAE50F
:10458800833400FBA3A3A3A3E0F912115CE9C3944D
:104598000A5013AC0AAD0BEEFAEFFB121180750846
:1045A800008003750814A90802534CC082C0839088
:1045B800077FEAF0A3EBF0900765E0FC7D007A2620
:1045C8007B00120526900765E0F91207900251A7B3
:1045D80074F01217D474EC12177DEAFEEBFFEE2488
:1045E8000CF50CEF3400F50DEE2405F50EEF340054
:1045F800F50FEE2409F50AEF3400F50BEE2403F568
:1046080008EF3400F5098E828F83A3A3E024FA70A3
:10461800030248AA24FD70030247C514700302462A
:10462800B114601024FD700302479C147003024704
:10463800F90249021255476048E0F5838882124919
:1046480011880E890FE8450F6037850C82850D8328
:10465800E0F50C780C1219EBEE240BF582EF124AF8
:10466800E1F9850A82850B83124D100A0A0AAB0903
:10467800850E82850F831217D2740112179302498F
:1046880002850A82850B831219FE90077B12166B2E
:104698001205C27402121793E970030249027901E4
:1046A800850A82850B830248758E828F83A3858253
:1046B8000A85830BE0600302477F850E82850F839E
:1046C800E0A2E0400302477F90081912554A6003B0
:1046D80002477F7C0E7D007900851882851983AAA0
:1046E80082AB83121036850C82850D83125172EAD3
:1046F8004B6010750C06750D00780C1219E7EA244A
:1047080010801B12516C1209FAEA4B70030249021D
:10471800750C06750D00780C1219E7EA2405FCEBF8
:104728003400FD74021217C8AA82AB8312101E74DB
:1047380002121793850E82850F83E0A2E25004D2FD
:10474800F08002C2F0A2F0E433F8740C1217C8E04B
:1047580048F0EEFCEFFD851882851983AA82AB83A9
:10476800121192E970117A027B00900765E0F91244
:104778001078790002490412554770030249021261
:1047880049177003024902850A82850B83E0FC7988
:104798000102489E125547700302490212490E89C8
:1047A8000BE8450B70030249028E828F83A3E0FC5D
:1047B800790212516C8882850B830248A57C007DA2
:1047C80000EE2404FAEF3400FB850882850983E0B3
:1047D800F912115CE9F8C3940A4003024902EE2475
:1047E8000AFCEF124CE6E8A42425F91213960249B4
:1047F8000212516C90077AE06007900C81E0F98012
:104808006F900C7EE07004790580651209FA8A0CB5
:104818008B0DA80CA90DE82404F50CE93400F50D5E
:104828008E828F83A3A3A3A3A3A3A3E0A2E05046F1
:10483800E8497003024902850C82850D83E0FE6019
:1048480035850A82850B83E05410702A740E12177E
:10485800C8AC82AD83E82405FAE93400FBEEF9120E
:10486800115CE970117903850882850983125172F8
:104878001205BC024902AC0EAD0F850C82850D8372
:10488800E0F912516C1211DA125547606D1249178E
:1048980060687C00790012516C8E828F831217D267
:1048A8008058120688E9705290080EE0640170156D
:1048B8001211B690080EE4F07C0AFDF97A0F7B0815
:1048C800121036802D750A00850A08740F2508FE17
:1048D80074083400FF8E828F83E06401700BA90A8C
:1048E8001211BC8E828F83E4F0050AE50AC3940A8C
:1048F80040D679501213A21211AA79017414121712
:10490800937F080218A6124926E0F8A3E0F92212BC
:104918004926E0F8A3E0F9E8FEE9FFEE4F22E0F5CA
:10492800838882A3A32274F41217D474F212177D19
:10493800EAFE8C0B75F006E9A42420F50885188298
:10494800851983AC82AD837A0EF912139CE97057EE
:104958007C0679FF851882851983AA82AB83121099
:104968009CE97043740C1217C8124911E8F509E55F
:104978000B6005EE42098004EEF45209850982AA0B
:1049880082E86A7001E9601B740C1217C8EAF0A388
:10499800E4F0851882851983AC82AD837A0EA90864
:1049A80012139679018002790002452474F21217D5
:1049B800D474E612177D890A8A088B09ECFEEDFF8C
:1049C800740C1217C8AC82AD837A0E75F006E9A490
:1049D8002420F912139CE96003024AD47C0679FF6B
:1049E800740C1217C8AA82AB8312109CE9600302E8
:1049F8004AD47470250AF50B851882851983AC8210
:104A0800AD837A0CF912139CE96003024AD0851829
:104A180082851983AA82AB8312118CE50845097037
:104A28002C7C0C7900851882851983AA82AB8312A5
:104A3800109CE96003024AD07C0C7D00790085183F
:104A480082851983AA82AB83121036805D8518820D
:104A5800851983AC82AD83AA08AB091211868A0C2A
:104A68008B0DA80CA90DE8497028EE4F605E8518DB
:104A780082851983AC82AD837A007B00121186EAA5
:104A8800F8EBF9EA4B604588828983E508F0A3E5ED
:104A980009F0124ADBFAEE6A7001EF602BEEF04F74
:104AA800700888828983E4F0A3F0851882851983C9
:104AB800AA82AB8312118C851882851983AC82ADCA
:104AC800837A0CA90B121396790180027900741A63
:104AD800025349E82402F582E93400F583E02274A0
:104AE800F71217D47F00EF75F003A4F8A9F0EC28AB
:104AF800F8ED124B1AE06A7003A3E06B7006E8FA4F
:104B0800E9FB800B0FEFC3940440DB7A007B0002C3
:104B18004EC539F9888289832274F71217D47E002A
:104B2800EE75F003A4F8A9F0EA28F8EB124B1AE0A6
:104B3800F4FCA3E0F4FD88828983ECF0A3EDF01285
:104B48004ADBF4F00EEEC3940440D5024EC574F26D
:104B58001217D474F412177DEAFEEBFF8C088D0946
:104B680090081912554A7051EE4F7003024CDFEC51
:104B780045097003024CDF12119EE9900C84F0C3C2
:104B8800940A4035750B007C0679FFE50B75F00E2D
:104B9800A4FAABF074812AFA74073BFB12109CE963
:104BA8006005850B0A800C050BE50BC3940A40D7FA
:104BB800750A0AE50A900C84F0900C84E0C3940A04
:104BC8004003024CDF75F006E0A4FB90081912556B
:104BD8004A706FEEFCEFFD7A0E74202BF9121396D3
:104BE8007C0C7D0079FF851882851983AA82AB83A6
:104BF800121036851882851983AC82AD837A0C90A1
:104C08000C84E02470F9121396750C0E750D00785B
:104C18000C1219E7EEFCEFFD900C84E075F00EA481
:104C2800F8A9F0748128FA740739FB12101E74026F
:104C3800121793900819E508F0A3E509F079000226
:104C48004CE1E0C82406124D03601A7A1B74212B2C
:104C5800F9121396124CEF2406F582E83400F58316
:104C6800E4F0A380D7124CEF240A124D0360107AA7
:104C78001B74222BF9121396124CEF240A80DA12B5
:104C88004CEF240C124D0360107A1074232BF91288
:104C98001396124CEF240C80C0124CF8124D03608E
:104CA8002A7A1074242BF9121396124CF8F582E81C
:104CB800124AE12410FCA3E0124CE6900C84E0A414
:104CC8002425F9121396124CF8808E90080DE06096
:104CD800031211E61211D47901740C0253493400FD
:104CE800FD7A0475F00622900819E0F8A3E0C822BE
:104CF800900819E0F8A3E0C8240822F582E83400F7
:104D0800F583124D10EC4D22E0FCA3E0FD2274F473
:104D18001217D474F212177DEAFEEBFFE9C3940A66
:104D28005004EE4F70047902803E851882851983FD
:104D3800AC82AD837A0E75F006E9A42420F912132B
:104D48009CE9F5087020750A06750B00780A121997
:104D5800E774021217C8AC82AD83EEFAEFFB1210AB
:104D68001E7402121793A90802452474F41217D46A
:104D7800EAFEEBFF750800750A06750B00780A1243
:104D880019E7EEFCEFFDE50875F00EA4F8A9F0743C
:104D98008128FA740739FB1210307402121793E94C
:104DA8006004A908800B0508E508C3940A40C8797F
:104DB8000A02452974F71217D474F012177DEAFE17
:104DC800EBFF750800851882851983AC82AD837A5C
:104DD8001075F006E508A42423F912139CE9702C39
:104DE8007C1079FF851882851983AA82AB831210FB
:104DF8009CE97018EEFCEFFD851882851983AA825C
:104E0800AB83120592E97004A908800B0508E50830
:104E1800C3940A40B0790A7410121793024EC574ED
:104E2800F71217D4750800E50875F00EA4F8A9F074
:104E3800748128FE740739FFEEFCEFFD7A0E75F0D9
:104E480006E508A42420F912139CE9602C7C067D51
:104E58000079FFEEFAEFFB1210367C067D0079FF31
:104E6800EE2406FAEF3400FB121036EE240CF5821D
:104E7800EF3400F583E4F0A3F00508E508C3940ACD
:104E880040A590080DE060031211E61211D4802DA0
:104E980074F71217D47E007F007C0679FFEF75F057
:104EA8000EA4FAABF074812AFA74073BFB12109C2B
:104EB800E970010E0FEFC3940A40DEEEF97F01029C
:104EC80018A674F71217D47E00EEF91211BC0EEE74
:104ED800C3940A5003E960F180E374F31217D474A1
:104EE800CB12177DE9FE900C84E06E701B7A017B73
:104EF80000900765E0F912107E7A027B0090076542
:104F0800E0F912107E1211F275F006EEA4FF74207B
:104F18002FF50874271217C8AC82AD837A0EA9083A
:104F280012139CE9600302501C7C0679FF74271257
:104F380017C8AA82AB8312109CE9600302501C7C3C
:104F48000E7D0079FF74271217C8AA82AB8312104E
:104F5800367C1B7D0079FF740C1217C8AA82AB83BC
:104F68001210367C0C7D0079FF851882851983AA7A
:104F780082AB8312103674271217C8AC82AD837ABD
:104F88000EA908121396E9F508740C1217C8AC821A
:104F9800AD837A1B74212FF9121396E9F509740C65
:104FA8001217C8AC82AD837A1B74222FF91213969C
:104FB800E9F50A740C1217C8AC82AD837A10742311
:104FC8002FF9121396E9F50B740C1217C8AC82ADC1
:104FD800837A1074242FF9121396E9F50C740C12C5
:104FE80017C8AC82AD837A0474252FF9121396E999
:104FF800FF851882851983AC82AD837A0C74702E74
:10500800F9121396E9F8E509450A450B450C4F488E
:1050180042088003750800A90874351217937F05A4
:105028000218A674F71217D4E9900765F01211AAAE
:10503800024EC574F41217D4EAFEEBFF54807003D5
:105048000250D3900765E0F91210608A088B09EACC
:105058004509607078018A828B83E02450603D1492
:10506800600624E1604F8052A3A3A3A3E0704E8A98
:10507800828B83A3A3A3A3A3A3A31219FE8A828B63
:1050880083A3A3A3A3A3124D108A828B83A3A31285
:10509800517212116874021217938021A3A3A3A35B
:1050A800E0641E701879008A828B83A3A312517260
:1050B8001211628008121174E9F8E86007AA08ABB7
:1050C8000912104EEEFAEF64808065EE54026023F8
:1050D8007C007D007A007B00121192E960117A0150
:1050E8007B00900765E0F9121078EE6402803F7A41
:1050F800028046EEA2E0503F125146125172121140
:10510800ECE9602F125547601F12490E880889097B
:10511800E8450960137C00790112514612517285E5
:1051280008828509831217D21211F2EE6401FAEF90
:10513800FB80087A0180027A007B000245299008EA
:1051480019E0F8A3124926A3227F020218A6C082FA
:10515800C083900765E0F98A828B83A3125172128B
:10516800081A803B850882850983E0FAA3E0FB22C0
:10517800C082C08374FF12177D1211B0E9C3940274
:10518800851882851983400474028002740AF0AC81
:1051980082AD837A0179051206A07401121793D0A3
:1051A80083D08202012274F21217D474E812177D98
:1051B800EAFEEBFF890A8C088D097C187D007900CE
:1051C800851882851983AA82AB83121036851882C6
:1051D800851983EEF0A3EFF0900767E0C0E0740252
:1051E8001217C8D0E0F0900768E0C0E07403121707
:1051F800C8D0E0F0900C83E0C0E074171217C8D054
:10520800E0F074151217C8E054FEF8A3E0F9900C0A
:1052180082E0A2E0E433FAE84AF874151217C812DB
:105228005358A2E15004D2F08002C2F0E854FDFACB
:10523800A2F0E43333F8EA48F874151217C8125389
:1052480058A2E35004D2F08002C2F0E854F7FAA260
:10525800F0E433F50C750D007403780C12176A121C
:1052680053511217C8125358A2E45004D2F08002C6
:10527800C2F0E854EFFAA2F0E433F50C7404780CA9
:1052880012176A1253511217C8125358A2E5500444
:10529800D2F08002C2F0E854DFFAA2F0E433F50C51
:1052A8007405780C12176A1253511217C812535802
:1052B800A2E25004D2F08002C2F0E854FBFAA2F055
:1052C800E433F50C7402780C12176A125351121752
:1052D800C8E8F0A3E9F0900768E0601D750C107845
:1052E8000C1219E77C697D0774061217C8AA82ABED
:1052F8008312101E7402121793900779E06011E56B
:105308000A600974151217C8E04402F07801800297
:10531800780074141217C8E048F0900766E060043B
:1053280078048002780074141217C8E048F0AC08BA
:10533800AD09851882851983AA82AB831205B674D4
:10534800181217937F060218A6EA450CF87415225E
:10535800E8F0A3E9F0900C82E02274F31217D474F9
:10536800E512177DEAFEEBFF8C098D0A74281217E7
:10537800C8E0F50C75F006E9A4F87408650A70042D
:1053880074228002742128F50B7C1B7D007900852E
:105398001882851983AA82AB8312103685188285F4
:1053A8001983AC82AD837A1BA90B12139CE9703266
:1053B800741A1217C8E024F9C3940A5025E50CF5AD
:1053C8000B780B1219EB74011217C8AC82AD83E588
:1053D80009A2E0E433F9EEFAEFFB1205C8740112F2
:1053E8001793741B02502374F71217D4120892757E
:1053F8000800E50875F00EA4F8A9F0748128FE7479
:105408000739FF7C0679FFEEFAEFFB12109CE97072
:1054180009EEFAEFFB79001208980508E508C3942D
:105428000A40CF024EC574F61217D474FD12177DC8
:10543800EAFEEBFF90081B12554A703975081D7576
:10544800090878081219E775080275090078081222
:1054580019E77508DE75099078081219E77CFF7D51
:10546800FF7A017B001206E2740612179390081B5C
:10547800EAF0A3EBF090081B12554A70030255316D
:10548800E4F508F50978081219E774041217C885B5
:10549800820885830978081219E774041217C885E9
:1054A800820885830978081219E790081D1219FEE9
:1054B800790290081B12553F1208087408121793B6
:1054C800E97034851882851983E0FA74011217C8C7
:1054D800E0F9EA2400F508E439F509EA4509601716
:1054E80078081219E790081B125149A312553F1268
:1054F80011687402121793E4F508F509780812196F
:10550800E790081D1219FE7CFF7DFF90081B1251C1
:10551800721206EE740412179390081BEAF0A3EBBC
:10552800F090081B12554A700479018002790074C2
:1055380003121793025151124D10EEFAEFFB22900D
:10554800077FE0F8A3E0F9E84922C082C083900809
:105558001912554A601090081912517212104E9083
:105568000819E4F0A3F0900C84740AF00251A7C063
:1055780082C0839061907404F0A37448F0A3E4F0AF
:105588009061807440F09061BC7407F090618774FA
:1055980069F09061B67416F07900120B0279021264
:1055A8000B08902578E493F46006E493F9120ADE78
:1055B8007905120E02025972C082C083E9540FF9AC
:1055C800906185E0696012E5C654804449F5C6E5F6
:1055D8009E547F644970F8E9F053C680E59E547F75
:1055E80070FA02597274F71217D4E5A8FE53A87E10
:1055F800120AEAC2BA539AFEC289759B00C2C21245
:105608000AF075A91175B905120AF6D2BA439A01BA
:1056180074805E42A8025F09C082C083906181E401
:10562800F0A302596F75E90075910075BF0002017A
:1056380022C082C083906181E4F0A374C0F0A3E427
:10564800025971C082C08374F812177D9003A412A6
:1056580068A2700302572A9003A4E054406023799B
:1056680008851882851983AA82AB83120BFE8518D8
:1056780082851983AA82AB831208B69003A4E054EA
:10568800BFF0E054806010790C7A657B05120BFE40
:105698009003A4E0547FF0E0A2E0500F7900120BD1
:1056A800021208BC9003A4E054FEF0E05402600F1C
:1056B8007901120B021208BC9003A4E054FDF0E03B
:1056C8005404600F7900120B081208C29003A4E07A
:1056D80054FBF0E05408600F7901120B081208C25D
:1056E8009003A4E054F7F0E05410600F7902120B15
:1056F800081208C29003A4E054EFF0E05420600FB1
:105708007903120B081208C29003A4E054DFF0A337
:10571800E05401600D120B141208C89003A5E05460
:10572800FEF07408121793025972C082C083E960B0
:105738000514602A804F90619A7433F0A37455F071
:105748009061A0743AF090053FE064017009C2913D
:105758009003A67467802D9003A6746180269061DB
:105768009A743FF0A3745AF09061A0747FF090058A
:105778003FE064017009D2919003A674718005908E
:1057880003A6746AF0025972C082C083E9600B14E0
:10579800600D14601714600C802090257C80159093
:1057A800257D801090053FE06401700590257E807E
:1057B8000390257FE493906186F002597274EE128B
:1057C80017D474F412177D851882851983AC82ADBD
:1057D80083758390758243740412169090257C9388
:1057E800F460030258EF907808E0C3940250030273
:1057F80058CF74041217C8AC82AD8375838F758235
:10580800F67408121690FC7EFF7FFF8E0C7D008CCC
:105818008285820E800F74086D606D74096D6068F2
:10582800740A6D60638D0875090074027808121790
:105838006A1258F912164DA909E50AC9F8881074B0
:1058480018780812158EE5104508FAE9FBE50EC32D
:1058580033F8E433F974041217C8E58228F582E5B1
:105868008339125DF9C3E89AE99B4008E8C39AF8BE
:10587800E99B8006EAC398F8EB99F9C3E89EE99F8B
:105888005006E8FEE9FF8D0C0DEDC39413408774B4
:10589800FF6E700374FF6F6024850C08740278082B
:1058A80012176A1258F912164D851882851983E560
:1058B80082250EF582E583126298E508F00CECC3A8
:1058C8009404500302580F750801750900780812EE
:1058D80019E774021217C8AC82AD837A5F7B09128C
:1058E800122E7402121793740C1217937F0A02185F
:1058F800A674482508F58274783509F58378082256
:10590800C082C083906186E0F890257FE493687038
:105918000990257EE493906186F09061AE7468F0FA
:10592800A3746AF090624574FBF0A304F053F4FD8D
:1059380043FE0290053F7401F09061A0E0643A7064
:1059480004790080027901120B02025972C082C0E8
:10595800839004F1E06401700A9004F6E060047931
:105968000C800279008003F0A3F0D083D08202017A
:1059780022C082C08375E1F19004F4E0604D1460A8
:1059880009146051146049147050120B269004EAEF
:10599800E0F97AEB7B04120D8490904B12166B128F
:1059A8000DBA90906B12166B120D909004F5E0F9F9
:1059B800120D9C7901120DF6125A95241612629551
:1059C800743EF0A3740BF07900809F120B2C80BDFD
:1059D800120B3280B8120B3880B3791280EB74F452
:1059E8001217D475D90D9004D5E0A2E0E43313134F
:1059F800F8125A8B484401F5D97800125AF840FB3E
:105A08007800880874D61267F87404125B0240F2B2
:105A180075E1959004D5E0F97AD67B04120D8A9049
:105A28000BB474B4F0A3740A125B08125B4C125BDB
:105A380043125C609004F4E064019004E8700B1277
:105A48005A9E12164D90907F8009125A9E12164D3A
:105A580090908B78081215D990902F7808121627F5
:105A6800125A95240E126295780812165C125A95ED
:105A780024141262957413F09003A27402F07F0448
:105A88000218A69004EAE0C4333354C0229004E814
:105A9800E0F8A3E0C82212673078082274F61217DB
:105AA800D4125C318AD97800125AF840FB78008009
:105AB80006125BA9125CE6E8C39940F5125C231252
:105AC8005AF840FB780080081267F47405125CE607
:105AD800E8C39940F375E195900BB474C0F0A374D2
:105AE8000A125B08125B127412F09003A2025ECDD8
:105AF800880874EB2508F5827404125E6394062204
:105B0800125C4974BAF0A3740A22125B4C125B430C
:105B1800125C649004E8E0F8A3E0C8240E125B3B32
:105B280074FF12656D9004E8E0F8A3E0C82414122D
