:020000040000FA
:0600000002010A021FE0EC
:03002B0002224D61
:03003B0002226E30
:030043000221F89F
:0300530002205632
:03006B0002221E50
:10008300021E8FE5C754F84401F5C7790122000029
:100093000080FB120086B900030200F4E4791A78A9
:1000A30002B800028004F709D8FCE4791C7802B88E
:1000B30000028004F709D8FCE49002817879790F73
:1000C3008002F0A3D8FCD9FA9010F9AA82AB8390EE
:1000D300013A78D879018015E493A3AC82AD838A81
:1000E300828B83F0A3AA82AB838C828D83D8E9D9D8
:1000F300E77582B77583C0740312011C758291750D
:100103008300740012011C75D00075813F7518813E
:10011300751902759F00020096C09FF59FE473D086
:100123009F22D083D082C09FE493C0E0740193C028
:10013300E0740293F59F2285039703C1038B03FFAA
:100143000000B4000028002800283075A000A0009B
:10015300A000A00000080008E001F000100010005B
:10016300100010001000100050005000500010004C
:100173001000D0070000000000000F000100050080
:10018300307507001000010081FF00000000FF022E
:100193000202C090010000A59002B8900100005136
:1001A3001102AA90010000B20202B89001000052AD
:1001B3001102A890010000C802FFFF0100FF200206
:1001C300C090010000A29002B890010000801102CB
:1001D300AE90000000000002AC90030000A5036590
:1001E3000B650B650B650B650B650B650B650B658C
:1001F3000B650B650B650B650B7B0D990D750DFF82
:10020300FF01E803053F10020AFF00FEFF01120190
:10021300256FB70312012585B703120125B4B70370
:10022300120125EAB70312012501B803120125388B
:10023300B8031201258BB803120125A2B8031201DA
:1002430025E2B003120125F9B0031201252AB103F7
:1002530012012565B1031201258FB103120125B9DE
:10026300B103120125D0B103120125E7B103120135
:1002730025FEB10312012527B2031201253AB20369
:1002830012012550B2031201257AB203120125008F
:10029300800212012504810212012531810212011B
:1002A30025878102120125AA8102120125BE81023E
:1002B300120125C08102120125E38102120125F2F8
:1002C3008202120125B683021201258B84021201D8
:1002D30025FC84021201258885021201258B8502E3
:1002E3001201251386021201254E8602120125B53D
:1002F3008602120125EC86021201257A8702120179
:100303002504880212012553880212012560880200
:10031300120125638802120125C38802120125CE2A
:1003230088021201254D890212012550890212010A
:1003330025638902120125668902120125F58902C6
:100343001201250F8A021201251F8A021201254F6D
:100353008A021201255C8A021201255F8A021201B8
:1003630025E08A02120125CE8B02120125808C0220
:1003730012012514AE0212012511AF0212012593B9
:10038300AF02120125B3AF02120125FBAF02120126
:10039300254EB002120125B2B0021201253FB1026F
:1003A300120125F9B10212012508B50212012593A4
:1003B300B602120125B6B602120125E59103120118
:1003C30025829303120125E6930312012545940325
:1003D3001201255394031201257C9403120125F382
:1003E300EC021201251BED0212012549ED02120157
:1003F3002580ED02120125DEED0212012529EE0210
:1004030012012574EE02120125B4EE02120125FA3F
:10041300EE0212012528EF02120125E5EF02120177
:1004230025EFEF02120125FCEF021201252FF00246
:10043300120125FBF00212012507F1021201251F0B
:10044300F10212012529F102120125A7F10212017D
:10045300252BBE0312012539BE0312012551BE030C
:1004630012012569BE0312012581BE03120125E293
:10047300D4011201258ED50112012509D6011201DD
:10048300252AD70112012566D7011201250FD801AC
:10049300120125F6D8011201255ADA01120125B1FC
:1004A300DA0112012532DB0112012522DC011201DE
:1004B300256FDC01120125F5DC0112012527DD0181
:1004C3001201253BDF011201257DDF011201259B6E
:1004D300DF011201253DE00112012505E1011201B1
:1004E3002512E301120125909503120125A6950318
:1004F300120125CC9503120125E89603120125F27A
:1005030096031201252798031201251F990312014F
:1005130025C28403120125668503120125998503EB
:10052300120125E38503120125A687031201256A1B
:10053300A401120125E3A401120125F3A401120170
:1005430025E1A50112012506A60112012511A60127
:10055300120125FBA601120125B1A701120125985D
:10056300A90112012551AB011201252DAC01120184
:1005730025E1AC011201251EB001120125CCB00109
:100583001201253BB201120125BBB3011201256201
:10059300B401120125ABB401120125E2B401120129
:1005A300257FB5011201250AB601120125E7B6011F
:1005B3001201253CB7011201259BB801120125AB9D
:1005C300B801120125D8B8011201252FB901120172
:1005D30025D8B901120125DFBA01120125A9BB01F2
:1005E30012012509BD011201254CBD01120125F19E
:1005F300BD0112012517BE0112012525C0011201FB
:10060300252AC0011201252FC2011201257CC20136
:10061300120125EFC20112012522C301120125C4D3
:10062300C3011201256DC401120125A5C4011201E4
:1006330025A8C401120125F0C40112012532C50108
:1006430012012589C501120125A3A603120125B6AE
:10065300A603120125C4A6031201250CA703120148
:100663002522A70312012569A7031201257DA803EB
:100673001201250AA90312012555A903120125E038
:100683002200120125F0220012012553230012013A
:10069300259823001201254E240012012529250047
:1006A300120125522500120125822500120125C2BF
:1006B3002700120125A92900120125812B0012010F
:1006C30025C52C001201252C2F001201253A3000DC
:1006D3001201258C3100120125963200120125D812
:1006E30032001201251033001201253233001201AA
:1006F30025953300120125573800120125EC3800E7
:10070300120125403900120125673900120125A580
:100713003900120125C439001201251E3A001201C5
:10072300251E3B00120125A33B001201251FE702F2
:1007330012012529E702120125D1E702120125142E
:10074300E8021201252FE802120125BFE802120177
:1007530025E7E8021201251FE90212012556E902E5
:100763001201257FE902120125B9E902120125CE02
:10077300E9021201259BEA02120125BEEA021201D7
:1007830025E0EA02120125F5EA021201257BEB02BC
:10079300120125B5EB021201252DEC02120125767B
:1007A300EC02120125A0EC02120125CBEC0212018E
:1007B300250CBA031201252BE30112012559E3018C
:1007C300120125B4E40112012594E501120125B3B8
:1007D300E50112012530E60112012573E60112013C
:1007E30025EEE7011201255DE80112012588EA01E2
:1007F3001201250CED01120125BDED01120125B3F6
:10080300EE0112012553EF0112012551F0011201EE
:1008130025DCF001120125B9B80312012522B90321
:1008230012012576B903120125A5B903120125C6C4
:10083300B903120125438903120125B0890312016B
:1008430025F789031201250F8B031201250B8C0356
:10085300120125EE8C0312012592D902120125D42F
:10086300D902120125ADDA02120125A7DB0212011A
:100873002589DC02120125F2DC021201250EDE02BB
:100883001201257ADE021201257DDE02120125A660
:10089300DE0212012520DF02120125C5DF0212014B
:1008A30025DADF0212012520E00212012539E002D8
:1008B3001201253CE0021201252999031201256545
:1008C3009903120125A399031201256D9A031201BD
:1008D30025DC9A03120125179B03120125559B035F
:1008E300120125859B03120125AC9B031201251AD6
:1008F3009C031201255C9C03120125916A001201DD
:1009030025546C001201251F6E001201255B6E0039
:10091300120125886E001201254A6F0012012591EC
:100923006F00120125D56F00120125E76F00120138
:1009330025277000120125547000120125A27000B2
:10094300120125DC7000120125FF700012012551F0
:100953007100120125DF7100120125B57200120129
:10096300259F73001201256E75001201256F7A0011
:10097300120125BE7A00120125057B0012012538DC
:100983007D001201254BAC03120125BDAC031201FE
:100993002513AD0312012557AD0312012577AD03CE
:1009A300120125C4AD031201250CAE031201255F0C
:1009B300AE03120125B0AE031201250A3C00120159
:1009C30025533C00120125803C00120125B33C0055
:1009D300120125C33C00120125CF3C00120125E082
:1009E3003C00120125C73D00120125253E001201DE
:1009F300255A3E001201259D3F00120125EF3F00BD
:100A03001201253F40001201259240001201259159
:100A130041001201250C4300120125E3430012019A
:100A230025F3430012012515440012012518440043
:100A3300120125E64400120125B74500120125865F
:100A43004600120125DA46001201253A4700120139
:100A5300259E47001201254F48001201251A49001F
:100A6300120125BC4900120125314A001201259DBE
:100A73004A00120125F24A00120125234B001201FC
:100A830025BE4B00120125A24D00120125F14D0098
:100A9300120125344E00120125B64E0012012554D1
:100AA3004F001201259B4F00120125BF4F00120179
:100AB300250650001201253450001201257C5000F8
:100AC300120125F650001201253A51001201254763
:100AD3005200120125F6520012012557530012014C
:100AE30025B35300120125CC5300120125E1B702AF
:100AF30012012534B80212012540B802120125154E
:100B0300B9021201253CB90212012577B90212017B
:100B130025E3B9021201251FBA0212012558BA02B0
:100B230012012570BA02120125C5BA02120125DE8F
:100B3300BA0212012527BB021201253ABB02120198
:100B43002554BB021201256ABB021201259DBC027A
:100B5300120125E4BD02120125E6BE02120125E0C1
:100B6300BF02120125FB7F001201252FF2021201A1
:100B7300259EF502120125D7F602120125F18C02FA
:100B8300120125678F021201256D8F02120125D5EF
:100B930091021201253C940212012522F70212014F
:100BA30025B8F7021201256FF80212012599F80200
:100BB3001201258CFA02120125B4FB02120125C68B
:100BC3009001120125FA9001120125E79A01120101
:100BD300253B9C01120125469D01120125C69E015C
:100BE300120125A79F01120125E19F01120125048E
:100BF300A00112012546A00112012590A0011201B6
:100C0300259AA00112012544A1011201251DA2016B
:100C130012012571A201120125D3A2011201252679
:100C2300A30112012555A30112012592A30112016B
:100C3300257AA303120125F0A30312012506A403B9
:100C430012012547A40312012581A403120125FAE9
:100C5300A40312012535A503120125A8A50312013A
:100C630025E6A503120125EFA503120125FBA50324
:100C730012012517A60312012542A60312012573AB
:100C8300A60312012560E00212012573E00212019E
:100C9300258DE002120125B6E002120125F9E002DA
:100CA30012012538E10212012576E102120125DB4A
:100CB300E102120125F0E10212012507E20212010D
:100CC3002515E20212012524E20212012539E2026E
:100CD3001201254EE20212012559E2021201256595
:100CE300E20212012572E20212012585E2021201DB
:100CF3002590E202120125B5E2021201255CE3020E
:100D030012012571E30212012586E302120125A0D7
:100D1300E302120125BBE302120125D8E30212010B
:100D230025E3E3021201259FE4021201258BE5026C
:100D3300120125B0E502120125BBE502120125D0FF
:100D4300E502120125E4E50212012545E60212013E
:100D5300254BE60212012551E60212012557E60250
:100D63001201256FE602120125A2E602120125BE39
:100D7300A302120125E0A302120125C0A40212015D
:100D83002597A702120125C3A802120125E7A9028C
:100D930012012599AA021201253AAB02120125621A
:100DA300F101120125E6F10112012595F20112016B
:100DB30025F4F30112012515F60112012501F701AE
:100DC30012012536F70112012558F70112012507F3
:100DD300F801120125FFF90112012528FA01120178
:100DE30025BAFA01120125ECFA01120125F9FA01DB
:100DF30012012550FB0112012576FB01120125E3A7
:100E0300FD01120125E6FE011201253EFF0112013B
:100E13002576C60112012580C70112012567C80185
:100E230012012571C80112012593C8011201259FE2
:100E3300C80112012538CA0112012567CA0112012E
:100E43002583CB01120125DCCB0112012542CD0103
:100E530012012521CE011201257DCE01120125EAC1
:100E6300CE0112012525CF0112012564CF01120104
:100E7300251DD20112012537D201120125C3D2014A
:100E8300120125D1D2011201252AD30112012538DD
:100E9300D301120125ABD3011201250FD401120195
:100EA3002559D4011201258CB203120125B1B203D5
:100EB30012012523B30312012546D2021201254F45
:100EC300D20212012558D2021201252FD302120198
:100ED30025E0D40212012516D50212012550D502B0
:100EE30012012586D502120125C0D502120125F46F
:100EF300D50212012520D60212012569D60212015C
:100F030025A3D602120125ECD60212012544D702ED
:100F130012012579D702120125D4D7021201250E19
:100F2300D8021201255FD80212012595D8021201B9
:100F330025CFD802120125F2D8021201253D7F00E8
:100F4300120125697F00120125C47F00120125CEFD
:100F53007F00120125DE7F00120125ABC1021201C1
:100F630025B5C102120125F3C1021201253CC202BB
:100F730012012576C202120125D0C202120125F107
:100F8300C202120125C9C502120125D2C5021201EE
:100F9300251FC60212012548C60212012552C602A8
:100FA300120125BEC60212012550C7021201259A5D
:100FB300C702120125D0C7021201255CC802120123
:100FC300259DC802120125D4C802120125E6C802D4
:100FD30012012505C9021201250EC902120125D6E7
:100FE300C90212012534BD03120125F1AE0312011A
:100FF3002527AF031201255DAF03120125A8B00316
:101003001201254DC00312012563C0031201256D92
:10101300C003120125B08D03120125C58D031201F2
:1010230025788E03120125B88E03120125D18E0374
:101033001201250C8F03120125598F031201258BF1
:101043008F03120125CD8F03120125D891031201BD
:101053002599FF02120125D3B503120125FCB5031F
:101063001201252BB603120125C3B603120125DB9A
:10107300B6031201251DB7031201250080031201D7
:1010830025428003120125CB80031201251C810315
:10109300120125618103120125BC81031201250B75
:1010A3008203120125618203120125568303120173
:1010B300254D84031201258A84031201258CFF0127
:1010C300120125FE53001201257F56001201251936
:1010D3005800120125CD5800120125605900120154
:1010E30025E559001201250A5A001201255C5A0010
:1010F300120125115E00120125975E00120125CA17
:101103005F001201250460001201253960001201FD
:1011130025F661001201252A62001201258762006B
:10112300120125D06200120125376300120125B098
:101133006300120125DF6300120125F7630012012A
:10114300254065001201255065001201256E6600D9
:10115300120125906600120125C66600120125754D
:10116300680012012502690012012541690012017C
:10117300255A6A00120125FBC1031201250AC10386
:1011830012012549C103120125E87F001201251A26
:10119300BF031201252ABF0312012545BF03120114
:1011A30025ADBF0312012530BC03120125B5BC03D5
:1011B3001201251BBD0312012525BB031201254C7A
:1011C300BB03120125A2BB03120125F2BB031201CB
:1011D3002510A00312012525A00312012569A103EF
:1011E300120125E5A10312012559A203120125735A
:1011F300A2031201258AA2031201259DA203120153
:1012030025B7A203120125CEA203120125F4A203DE
:1012130012012545A303120125EBFB02120125FF51
:10122300FB0212012579FC021201255DFD02120168
:101233002534FF02120125A49C03120125349D03CA
:10124300120125C09D03120125599E03120125EAAF
:101253009E03120125F39E03120125719F031201C0
:1012630025849F031201259A9F03120125FA9F03E8
:101273001201250DA003120125B7BF031201252773
:10128300C00312012532C00312012542C00312011B
:101293002531B40312012583B4031201250DB503CF
:1012A30012012574B5031201257FA903120125A993
:1012B300A90312012577AA0312012552AB031201D8
:1012C30025D9AB0312012504CA02120125CBCA0298
:1012D30012012502CB021201252CCB021201258C0F
:1012E300CB02120125E2CB0212012547CC021201E7
:1012F30025DFCC02120125EECD0212012585CF0296
:1013030012012512D00212012579D0021201259073
:10131300D002120125AAD102120125E8D10212013D
:1013230025C69802120125DB9902120125E19A02D2
:10133300120125769B02120125709C02120125934E
:101343009C021201259B9F02120125ED9F021201AF
:10135300258BA002120125B4A10212012559A20274
:10136300120125DBA20212012589C10312012553B3
:10137300C103120125B5C103120125DDC103E066D6
:10138300701008A3E066700A08A3E066700408A35F
:10139300E06622C3E7960809E7960809E796080975
:1013A300E79622C3E09608A3E09608A3E09608A375
:1013B300E09622C008C3E096F50808A3E096420829
:1013C30008A3E096420808A3E09645087001D3D02D
:1013D3000822080808EAC0E0EBC0E086F0E7A4FAB8
:1013E300180986F0E7A42AFA180986F0E7A42AFA6E
:1013F300180986F0E7A42AFA1986F0E7A4FBE5F0BA
:101403002AFA190886F0E7A42BFBE5F03AFA190843
:1014130086F0E7A42BFBE5F03AFA18180986F0E703
:10142300A4C5F02BFBE43AFA1908E7C5F0C6A426D5
:10143300F6E5F03BFBE43AFA1886F0E7A4F6E5F0AC
:101443000826F6E43B08F6E43A08F6D0E0FBD0E0E1
:10145300FA22E4CFC0E0E4CEC0E0E4CDC0E0E4CCC7
:10146300C0E075F020C3E633F608E633F608E6334A
:10147300F608E633F6181818EC33FCED33FDEE33BB
:10148300FEEF33FFC3EC9709ED9709EE9709EF974A
:10149300191919400FFFEC97FC09ED97FD09EE9719
:1014A300FE191906D5F0BEECF709EDF709EEF709B9
:1014B300EFF7191919D0E0FCD0E0FDD0E0FED0E041
:1014C300FF226016080808C6C313C618C613C61839
:1014D300C613C618C613C6D5E0EA22700908080861
:1014E300226016181818C6C333C608C633C608C602
:1014F30033C608C633C6D5E0EA22E627F60809E66E
:1015030037F60809E637F60809E637F622E026F645
:1015130008A3E036F608A3E036F608A3E036F62281
:10152300E026F008A3E036F008A3E036F008A3E0D5
:1015330036F022C3E697F60809E697F60809E69718
:10154300F60809E697F622C3E096F008A3E096F0C2
:1015530008A3E096F008A3E096F022E657F6080900
:10156300E657F60809E657F60809E657F622E05665
:10157300F608A3E056F608A3E056F608A3E056F6ED
:1015830022E056F008A3E056F008A3E056F008A3C3
:10159300E056F022E066F608A3E066F608A3E066EC
:1015A300F608A3E066F622E0F608A3E0F608A3E057
:1015B300F608A3E0F622E6F008A3E6F008A3E6F0B7
:1015C30008A3E6F022E0FAA3E0FBA3E0FCA3E0FD1E
:1015D30022EAF0A3EBF0A3ECF0A3EDF022CAC0E003
:1015E300E6F0A308DAFAD0E0FA22CAC0E0E0A3C525
:1015F30082CCC582C583CDC583F0A3C582CCC58209
:10160300C583CDC583DAE6D0E0CA22C3E498F8E403
:1016130099F912164F8026C3E49AFAE49BFBE9205A
:10162300E7E912164FE498F8E499F922C3E498F82D
:10163300E499F912164FE498F8E499F9C3E49AFA95
:10164300E49BFB22EB20E7CFE920E7E0B90010BBE6
:101653000008E88AF084F8AAF022E4FBC8FA22EB37
:1016630070227B10C833C8C933C9335007C39AC328
:10167300DBF280069A50012ADBEAC833F4C8C93387
:10168300F4C9FA2275F008E4C833C8C933C933C9A9
:101693009AC99B5004C92AC93BD5F0ECFBC833F463
:1016A300C8E4C9FA22600D08C6A2E713C618C61318
:1016B300C6D5E0F322600C08C6C313C618C613C60A
:1016C300D5E0F422700422600D18C6C333C608C6E1
:1016D30033C6D5E0F41822251810AF08F5184002D8
:1016E30015198008F51840021519D2AF22C0D0256C
:1016F3001810AF08F518500205198008F5185002A4
:101703000519D2AFD0D0222518F58210AF08F518ED
:10171300400215198008F51840021519D2AF851932
:1017230083222518F582E43519F58322E4732518FD
:10173300C582C0E0E51934FFC583C0E0E518C39551
:101743008224F810AF088583198582188008858361
:1017530019858218D2AFCEF0A3E520F0A37808E66E
:1017630008F0A3DEFAEFF0A3E58124FAF8E608F027
:10177300A3E608F0A3E608F0A30808E608F0A3E64A
:1017830008F0A315811581D0E0FED0E0F81581158E
:10179300811581E8C0E0EEC0E0222518C582C0E0D3
:1017A300E51934FFC583C0E0E518C3958224F91019
:1017B300AF08858319858218800885831985821867
:1017C300D2AFCEF0A3E520F0A37808E608F0A3DEBD
:1017D300FAEFF0A3E58124FBF8E608F0A3E608F0AE
:1017E300A30808E608F0A3E608F0A315811581D045
:1017F300E0FED0E0F815811581E8C0E0EEC0E022FC
:10180300851983851882E0A3FEE0A3F5207808E01C
:10181300A3F608DFFAE0A3FFE0A3C0E0E0A3C0E083
:10182300E0A3C0E0E0A3C0E0E0A3C0E010AF088500
:1018330082188583198008858218858319D2AFD0D1
:1018430083D082020122851983851882E0A3FEE0FA
:10185300A3F5207808E0A3F608DFFAE0A3FFE0A3EE
:10186300C0E0E0A3C0E0E0A3C0E0E0A3C0E010AFAD
:10187300088582188583198008858218858319D283
:10188300AFD083D08222C0D02518C582C0E0E5192D
:1018930034FFC583C0E0E518C3958224F310AF0875
:1018A3008583198582188008858319858218D2AFAC
:1018B300C8F0A3E9F0A3EAF0A3EBF0A37908E709E2
:1018C300F0A3D8FAECF0A3EDF0A3EEF0A3EFF0A3AE
:1018D300D0E0F0A3D0E0F0A3D0E0F0A3E520F0A3A4
:1018E300E5F0F0A322851983851882E0C0E0A3E028
:1018F300F9A3E0FAA3E0FBA37808E0F608A3DFFA74
:10190300E0FCA3E0FDA3E0FEA3E0FFA3E0C0E0A3AF
:10191300E0C0E0A3E0F5D0A3E0F520A3E0A3F5F059
:1019230010AF0885831985821880088583198582FD
:1019330018D2AFD082D083D0E0F8D0E032740480E4
:1019430006740280027401C0E0F40412170AD0E0A6
:101953001215E0227404800474028000CCC0E0ED10
:10196300C0E0E518C39CCCAD1950011D10AF068C27
:10197300188D1980068C188D19D2AF1215EDD0E091
:10198300FDD0E0FC22D083D082E9C0E0E493A3C37E
:1019930086F0C5F095F0F908E493A386F0C5F095B9
:1019A300F0700BE493A3C3994005E9048002A3E418
:1019B30075F002A42582F582E5F03583F583D0E046
:1019C300F9E493A3C0E0E493C0E022D083D082EC97
:1019D300C0E0EDC0E0E493A3FCE493A3FDED4C6011
:1019E3000D121A1AEC24FFFCED34FFFD80EFE49393
:1019F300A3FCE493A3FDED4C600D121A59EC24FFF4
:101A0300FCED34FFFD80EFD0E0FDD0E0FCE493A3D8
:101A1300C0E0E493C0E022C0E0C3E49396087401FD
:101A2300939618400FE49366700808740193661840
:101A330070007019A3A3C3E49396087401939618D6
:101A4300A3A3400DD0E0D0E0D0E0021A0AA3A3A3E1
:101A5300A3A3A3D0E022C0E0C0F088F0E4936670B3
:101A6300080874019366187000A8F0A3A3700BD044
:101A7300F0D0E0D0E0D0E0021A0AA3A3D0F0D0E087
:101A83002274F512179DEAFEEBFFEE2434F8EF34CF
:101A930000F988088909EE2435121BB0F8EE2437C3
:101AA300121BB0F50AEC850AF0A4FCAAF0850AF033
:101AB300EDA42AFDE82CF8E43DF97A257B00121603
:101AC3004FEA850882850983F074075AF87401B8D0
:101AD30000028004C333D8FCFBEA131313541FF82A
:101AE300EE28F8EF3400F9E8245DF582E9121BB320
:101AF3005B6003EA801CEE2436121BB0F5F0EA8427
:101B0300A8F0EE28F8EF3400F9E82438F582E9125A
:101B13001BB3F97F0402184974F512179DEAFEEB13
:101B2300FFEE2434121BB0C0E0EE2435F582EF340F
:101B330000F583D0E0F08E828F83A3A3A3A3A3E059
:101B4300FAA3E0FB8E828F83A3A3A3A3A3A3A3E0A3
:101B5300FCA3E0FDECC39AF50AED9BF50BEE247FA5
:101B6300F508EF3400F509850882F583E064017018
:101B73002BEE2480F582EF3400F58312195B121BE0
:101B8300B974021216F0E960137CBF7D07EEFAEF19
:101B9300FB120A7B850882850983E4F0AC0AAD0B4E
:101BA300EEFAEFFB121A841221E4021B16F582EF00
:101BB3003400F583E022C082C083851882851983AF
:101BC300E0F8A3E0F9C3EA9CEB9D5010C3EC98ED59
:101BD30099401BC3EA98EB995014800EC3EA98EB23
:101BE300994007C3EC98ED9940047901800279008C
:101BF300D083D0822274ED12179D900479E064089B
:101C03006005E06407702C9061C8E060269004A72B
:101C1300E0F874FF68601CE875F005A4C8AAF02A10
:101C2300F974A928FE740439FF8E828F83A3A3A3BA
:101C3300E070057900021D98EE2468F510EF34007A
:101C4300F511906060E0851082851183F0750AFBC1
:101C5300750B07750800750900E5D914F50EE5D96C
:101C63005403F50F601CEE2482F50CEF3400F50DE0
:101C73007403650F6058E50E6013EE2467121BB002
:101C8300700B793DEEFAEFFB120AA580A69007F6DA
:101C9300E064016026850C82850D83E0600478048E
:101CA30080027800850E08E508C398FA95E0FB12D8
:101CB300090D8A088B09EA45097006120D51021CA9
:101CC30036850C82850D83E070048A0A8B0B7800BD
:101CD3008016E5D9C0E08812E50A2512F582E50BE6
:101CE3003400F583D0E0F008E8C3950E40E4850C9A
:101CF30082850D83E0602874FC250EF50E780A12A8
:101D03001944AC0EA90FEEFAEFFB120B5F7402122B
:101D130016F0E9700AAA08AB09121297021C85741F
:101D230003650F6058850E0C750D00780C1219446D
:101D3300AC0AAD0BAA08AB09120B2374021216F0FE
:101D4300851082851183E0F87480687005750C7FB7
:101D53008002880CE50CF50A780A121948E50FF59C
:101D63000A780A121948A90EAC08AD099004A7E035
:101D7300FA7B001207B174021216F08013900479F3
:101D8300E06408700BAC0AAD0BEEFAEFFB120B8F9D
:101D9300120D5D79017F0C02184974F312179D74BB
:101DA300FC1216DAEAFEEBFF8908A2AFE433F50969
:101DB300C2AFEE2463F50AEF3400F50B8010AA0AD4
:101DC300AB0B120ADB1212979007C6E004F0850AE8
:101DD30082850B83E0F8A3E0F9E849602FE8240249
:101DE300FAE93400FBEA2402F50CEB3400F50D7834
:101DF3000C1219448A828B83E0FCA3E0F9EEFAEF1C
:101E0300FB120ACF74021216F0E960B29007C6E023
:101E130060579007C7E0F89007C6E0C398500C746A
:101E230002650870449007C8E0603E8E828F83A3EA
:101E3300A3A3A3E0851882851983121E7C74021262
:101E43001725E8121E7C9007C5E028F074021217CC
:101E530025AC82AD83851882851983AA82AB8379E9
:101E6300011207BD9007C6E4F0E509A2E092AF7442
:101E7300041216F07F06021849F0A3E4F09007C697
:101E8300E0F8220000851A87851BC622C0E074EFA4
:101E9300121889A2AFE433FEC2AF759B0090618232
:101EA300E0A2E05012E591A2E0500C7591FE74019E
:101EB300651A7003121BF8E0A2E55051E591A2E503
:101EC300504B7591DF900479E064076005E0640886
:101ED30070237401651A703579019004A7E0FA75CF
:101EE300F005A4CAA8F028FB74A92AFA74043BFBE2
:101EF300121D9D8018E0640D701390049BE004F0A4
:101F030064287002E4F07A00E0F9120D63906182B4
:101F1300E0A2E64003021FB6E591A2E64003021FDA
:101F2300B67591BF900479E064057008120C6112D4
:101F33000C6D8003120C67751A00120CD3E9900420
:101F43007AF07900120CB51209DF7A017B00900454
:101F530078E0F9120FBB907803E064427055900764
:101F6300FAE014F0704DC2AF121F6E00781DD0E07E
:101F7300F618D0E0F6E59F540770057509FF800356
:101F830075097FC4C0E0781CE6F50808E65509F535
:101F930009740B78081216B8D0E02508F89062701F
:101FA300E0A2E740F8E8C333906272F0906270E019
:101FB300D2E0F0906181E0A2E35009E5E9A2E350A9
:101FC3000375E9F7A3E0A2E75009E591A2E75003FF
:101FD30075917FEEA2E092AF7F040218E8C0E0C0E3
:101FE300D0C082C083906183E0A2E05009E5BFA224
:101FF300E0500375BFFEE0A2E15009E5BFA2E15046
:102003000375BFFDE0A2E25009E5BFA2E2500375EC
:10201300BFFBE0A2E35009E5BFA2E3500375BFF79E
:10202300E0A2E45009E5BFA2E4500375BFEFE0A2CC
:10203300E55009E5BFA2E5500375BFDFE0A2E65016
:1020430009E5BFA2E6500375BFBFD083D082D0D0CD
:10205300D0E032C0E074F2121889E5A7A2E4500F71
:10206300E5A1A2E4500953A7EF75A1EF1220AAE559
:10207300A7A2E5500CE5A1A2E5500653A7DF75A181
:10208300DFE5A7A2E15009E5A1A2E1500375A1FD97
:10209300E5A7A2E2500CE5A1A2E2500653A7FB7507
:1020A300A1FB7F010218E874F812179D751A0190BD
:1020B3000479E0640670077A007B00120C49A2AF32
:1020C300E433FED2AF90047FE0640170187A207B82
:1020D30000900478E0F91210397A207B009004789C
:1020E300E0F9120FC1906182E0D2E6F09007F7E0C9
:1020F300602185C61B801690047EE064017008E5AC
:10210300C654F84405F5C653BEFC121E8874016517
:102113001A60E4EEA2E092AF7F0102184974F11253
:10212300179D8A088B098C0A8D0B909036780812BC
:102133001571740F121725780C1215AA9090367822
:102143000C1215717808790C121396909066501042
:102153007808790C12153678081213B64014800EDD
:10216300780C7908121536780C1213B650047901DD
:10217300800279007F0802184974ED12179D8A08BE
:102183008B098C0A8D0B9090367808121571741395
:10219300121725780C1215AA909036780C12157127
:1021A300780C790812139640117808790C121536B9
:1021B300AA08AB09AC0AAD0B80227510007511009B
:1021C3007512007513017810790C12153678107991
:1021D300081214FDAA10AB11AC12AD137F0C021838
:1021E30049C082C083E9906000F0D083D08222C2CC
:1021F300AF02000022C0E074F2121889A2AFE433E8
:10220300FED2AFC2C0E5D1A2E4500653D1EF121201
:1022130073EEA2E092AF7F010218E8C0E074F212FD
:102223001889A2AFE433FED2AFE589A2E04006E508
:1022330089A2E150031211CB758900758900C2C5CB
:10224300EEA2E092AF7F010218E8C0E0C0D0E8C080
:10225300E0E9C0E0E5A8D2AFC2C7A2E7A2E792AF28
:10226300D0E0F9D0E0F8D0D0D0E032C0E0C0D0E880
:10227300C0E0E9C0E0C008C009C082C083A2AFE4E7
:1022830033F9D2AF901052E0F8A3E0687008539A84
:10229300FBA374018026C2E9901052E0F508740193
:1022A3002508F074D22508F582740F3400F583E015
:1022B300F5C1901052E0C394804002E4F0E9A2E03B
:1022C30092AFD083D082D009D008D0E0F9D0E0F823
:1022D300D0D0D0E032FFFFFFFFFFFFFFFFC082C07F
:1022E30083E990117FF0D083D08202012274F61229
:1022F3001731E9900365F07CA57D037AFF7BFF121C
:1023030007097A008A08750900740278081216C74B
:1023130074662508F87403350912233FA3F00AEA0B
:10232300C3940340DF7905120697900365E0F91221
:1023330005B97A217B071208BF02393BF9888289E4
:102343008374FF12234CE4F022F0A31237E6A32296
:1023530074F41217318A088B09EB548060309003B0
:1023630065E0F9120FA38A0A8B0BAE0AAF0BEE4F8F
:1023730060138E828F83E064B070031206A9EEFAB5
:10238300EFFB120F91AA08E5096480FB80047A0031
:102393007B0002252474F212173174FC1216DAEA58
:1023A300FEEBFFEE4F60387402121725EEF0A3EF39
:1023B3001227A9ECF0A3ED1227A9AA82AB83120579
:1023C300B3E9F5087071741212172512338DE50AFB
:1023D300450B60638E828F83122444EE4F70057524
:1023E300080280537A067B00120FF78A0C8B0DA824
:1023F3000CA90DE8497005750813803B8882898311
:10240300E412234CEEF0A3EF12382EE50AF0A3E515
:102413000BF090037312251C9003736017E0FCA369
:10242300E08003EAFCEBFD8C828D8312251C70F3A4
:102433008C828D83123290A90874041216F0023A2A
:1024430019A3A3A3A3E0FEA3E0FF2274F2121731A2
:10245300890AE975F045A4FEAFF0900372E4F090A9
:10246300036812251C6028120FFD7900890875097D
:1024730000740278081216C774682508F58274037D
:102483003509F583E4F0A3F009E9C3940340DDEED5
:10249300FAEFFB120FF78A088B09EA45096075EE1C
:1024A300FCEFFD7900120F797D008D0C750D007422
:1024B30002780C1216C77468250CF87403350DF9ED
:1024C300E50AF5F0EDA475F017A4FAABF0E5082AD8
:1024D300FAE5093BFB88828983EAF0A3EBF07E00EF
:1024E300801BEE75F017A4FAABF088828983E02A8B
:1024F300FCA3E03B8C82F583E4F0A3F00EEEC395DE
:102503000A40DF0DEDC3940340A0E50A900372F087
:10251300790080027913023A19E0FAA3E0FBEA4B4F
:10252300227F0402180374F41217317900EAA2E03F
:10253300501B75080775099078081219447C047DAF
:10254300007A817B1112069174021216F080D2C0B8
:1025530082C08390037312382049601C8882898368
:10256300A3A3E06A7003A3E06B8882898370E7A367
:10257300A3A3A312303480047A007B000222E974FF
:10258300EE12173174FC1216DAEAFEEBFF8518829D
:10259300851983E4F0A3F0EE240212327BEE2405C6
:1025A300122797EE2404F50EEF122B73E024FE603E
:1025B3003924FC604624FE605224FE605E24FE70D3
:1025C3000302269C24FE700302271424FE700302D8
:1025D300272324FE700302273224FC7003022741C1
:1025E30024FE700302275002278D90038C7417F08A
:1025F300A3E41227B112024702278D851882851999
:1026030083AC82AD831206AF02275D8518828519DC
:1026130083AC82AD831206B502275D850C08850D58
:10262300097402121725AC82AD838508828509835C
:102633001230341205D78A0C8B0DAC0CAD0DEC4D5A
:102643006042E4F50CF50D780C121944750C8C7589
:102653000D03780C121944750C8D750D03780C124B
:102663001944740812172512195B791612302E12A9
:1026730006F174081216F0E9F50C700B12302A12E9
:10268300025F800F750C0185088285098312279FDD
:10269300123290850C080227607402121725AC824F
:1026A300AD83850C82850D831230341205D78A10D1
:1026B3008B11AC10AD11EC4D6043850C82850D83FD
:1026C300A3A312195B75108C7511037810121944AA
:1026D30075108D751103781012194474081217259B
:1026E30012195B791612302E1206F174081216F0C5
:1026F300E9F509700B12302A120265800F75090182
:10270300850C82850D8312279F12329085090880DC
:102713004C851882851983AC82AD831206BB803A3F
:10272300851882851983AC82AD831206C1802B85FF
:102733001882851983AC82AD831206C7801C851865
:1027430082851983AC82AD831206CD800D851882F4
:10275300851983AC82AD831206D3E9F508E50860D9
:10276300298E828F83A3E06414601F850E82850FF8
:1027730083E090038C1227A9123AE890038D12325A
:1027830090E508A31227B1120241EEFAEFFB1206FD
:1027930055023182F50CEF3400F50D22123AEC8527
:1027A300188285198322F085188285198322F07C8B
:1027B3008C7D03850A82850B83E0FAA3E0FB2274F8
:1027C300EE12173174FC1216DA8A0A8B0B8C0E8DFB
:1027D3000FEA2405F508EB3400F5097C157D007933
:1027E300007A8C7B03120F79E5082402F50CE509C6
:1027F30012279A851882851983858210858311781B
:1028030010121944850882850983A3A3A3A3122C5C
:10281300BC121944E5082405F510E5093400F51147
:102823007810121944850C82850D8312301E1230E4
:10283300341205D174061216F08A108B11AE10AF44
:1028430011E50A2402F50AE50B12327EEE4F7003FE
:1028530002298B801774021217251230348882895B
:1028630083EAF0A3EBF090038CE004F090038CE098
:10287300C39405400302298BE4F510F51178101277
:102883001944751075751103781012194475107673
:102893007511037810121944740612172512195B67
:1028A3007910EEFCEFFD12302E1206F174081216A9
:1028B300F0E9705E850882850983A3A3A3A3A3A37C
:1028C300A3E0F8900375E0687048122CBC12194419
:1028D3007C767D03E5082408FAE5093400FB120F32
:1028E3007374021216F0E960298E828F83A3A3A367
:1028F300A312303490038CE0F51074027810121692
:10290300C7748D2510F58274033511F583EAF0A39E
:10291300EBF074021217258582108583117810124B
:102923001944740212172512195B850C82850D83D5
:10293300123AFD1205DD74041216F08A108B11AEE3
:1029430010AF1190038CE0F510751100740278102C
:102953001216C7748C2510F874033511F98882890F
:1029630083A312251C700302284FE82403F8E934DB
:1029730000F9EE4F60030228588882898374FFF0C0
:10298300A3F090038CE004F090038CE0600A123013
:102993002A1202537900800B85088285098312323B
:1029A30087790A02318274EA12173174FE1216DA39
:1029B3008C128D13EA2405F50CEB123B0712244805
:1029C300750800750900EA2402F510EB3400F511CF
:1029D30085188285198385820A85830B780A1219E3
:1029E30044850C82850D83A3A3A3A3122B7D121907
:1029F30044E50C2405F50AE50D12327E780A121916
:102A030044850C82850D83123AFB1205D17406129C
:102A130016F08A0A8B0BEA450B7003022B3EEA245D
:102A230004F50EEB122B731224488A828B83A3A323
:102A3300A3E0F98510828511831230341205BFE9B2
:102A4300F5096003022B3EE4F514F5157814121909
:102A53004475147575150378141219447514767535
:102A630015037814121944740612172512195B7989
:102A730013AC0AAD0B851082851183123034120614
:102A8300F174081216F0E9F5096003022B3E900376
:102A930075E0F8E5087009E0240290038DF08017D3
:102AA30090038DE0FCE82402FAE43400FBEA6C7046
:102AB30001EB6003022B42850882AA82122CB39495
:102AC30014122CAB5075850E82850F83E0C0E01283
:102AD3002EEAD0E0F00508850E82850F83A3E0C0BF
:102AE300E085080A748E250AF58274033400F583A1
:102AF300D0E0F00508900375122B7D1219447C7603
:102B03007D0385080A748E250AFA74033400FB12C8
:102B13000F6174021216F0900375E02508F508742E
:102B2300FF6E700374FF6F6012EE24010EEF34002A
:102B3300FFE508C3941450030229D3E50860131278
:102B43002F108510828511831230341202597900B7
:102B53008014E509700375090A851282851383EED3
:102B6300F0A3EFF0A90974021216F07F0E02180306
:102B73003400F50F850E82F5832212383D2274EE60
:102B830012173174FE1216DA8C0E8D0FEA2405F536
:102B93000CEB12279A750B0090038CE4F0F50AEA0C
:102BA3002402F508EB3400F509804990038CE0FA20
:102BB300900375E0F8122CB39417122CAB400D90D0
:102BC300038CE0F87416C398900375F0122CBC12B2
:102BD30019447C767D03748D2AFA74033400FB1246
:102BE3000F6174021216F0900375E0F890038CE005
:102BF30028F0050AE50C2416F582E50D3400F5836B
:102C0300E0F8E50AC3984003022C9490038CE0C3D8
:102C13009416507DE50AC333F8E433F9E50C28FE36
:102C2300E50D39FF851882851983AC82AD838E82C9
:102C33008F831230341205D78A108B11AC10AD116B
:102C4300EC4D7005750B018043E4F510F511781018
:102C53001219447510757511037810121944751003
:102C63007675110378101219447406121725121978
:102C73005B79168508828509831230341206F17454
:102C8300081216F0E9F50B7003022BAE12328380A3
:102C9300107C8C7D038508828509831230341202EF
:102CA3006BA90B7402023184E99400C365D033220B
:102CB300EA28F8E43400F9E822E0F5107511007809
:102CC300102274EA12173174FC1216DA8A0C8B0D77
:102CD3008C128D13EA2405F50AEB12327E75080077
:102CE300750900E50A2402F510E50B3400F51174AB
:102CF3000212172585820E85830F780E12194485DB
:102D03000A82850B83A3A3A3A31237ED121944E50B
:102D13000A2405F50EE50B3400F50F780E1219445D
:102D230085108285118312317C12302E1205D174E5
:102D3300061216F08A0E8B0FAE0EAF0FE50C2402AF
:102D4300F50EE50D3400F50F80408882898374FF0A
:102D5300F00508122EF674FFF00508900375E0F5F0
:102D63000C750D00780C1219447C767D0385080CD4
:102D7300748E250CFA74033400FB120F6174021273
:102D830016F0900375E02508F508EE4F60718E820A
:102D93008F83A3A3A3E0F9850E82850F83123034BA
:102DA3001205BFE9F509EE2404122797E97044E4FC
:102DB300F514F515781412194475147575150378FF
:102DC3001412194475147675150378141219447482
:102DD3000812172512195B7911EEFCEFFD850E829F
:102DE300850F831230341206F174081216F0E9F5D8
:102DF300096027850C82850D83122F06123290E518
:102E0300087003022ED0122F10850E82850F8312B5
:102E130030341202717900022EE5850882AA82EA13
:102E23009003757009E0240490038DF08022E0F88C
:102E330090038DE0F514E82404FCE43400FDEC6514
:102E4300147001ED70C0122CB39412122CAB50B657
:102E5300850C82850D83E0C0E0122EEAD0E0F005F8
:102E630008850C82850D83A3E0C0E0122EF6D0E026
:102E7300122F2285820C85830D780C121944740459
:102E830012172512195B851082851183123AFD12E0
:102E930005DD74041216F08A0C8B0DAE0CAF0D8594
:102EA300080C748E250CF874033400F9EE4F70038C
:102EB300022D4D851882851983E088828983122F1C
:102EC30022A3E0C0E0122EF6D0E0022D5BE50970EC
:102ED3000375090A850A82850B83122F0612329025
:102EE300A9097404022B6B748E2AF58274033400CF
:102EF300F5832285080C748E250CF5827403340047
:102F0300F58322123AEC8512828513832290038D76
:102F1300E0F5F0E5088490038CF07C8C7D0322F0CF
:102F230005088518828519832274EC12173174FE03
:102F33001216DA8A088B098C0E8D0FEA2405FEEB34
:102F43003400FF851882851983AC82AD838E828F0E
:102F5300831230341205D78A0A8B0BEE24181227FA
:102F630097EA450B7003022FF9123164503285182A
:102F7300828519831230341206E58A108B11EA45D3
:102F830011606E7912AC0AAD0B8508828509831234
:102F9300303485108285118312172FE9F50A705B8F
:102FA300E4F50AF50B780A1219448E828F83A3A3E2
:102FB300E0F50A780A121944EE240312327B780AE8
:102FC3001219448E828F8312301E1230341206F788
:102FD30074061216F0E9F50A7021850C82850D83BB
:102FE300E0701F85088285098312303412027780CE
:102FF30011750A0E8009750A018004E50A6003123F
:103003003283850C82850D83E0600479008002A9F8
:103013000A74021216F07F0C021803E0FCA3E0FD11
:10302300850882850983227C8C7D03850A82850B32
:1030330083E0FAA3E0FB2274EE12173174FE12163A
:10304300DA8A088B098C0C8D0DEA2405FEEB34001B
:10305300FF750E00851882851983AC82AD838E823D
:103063008F831230341205D78A0A8B0BEA450B7013
:103073000302315012316450358518828519831249
:1030830030341206E58A0E8B0FEA450F605E791223
:10309300AC0AAD0B850882850983123034850E8214
:1030A300850F8312172FE9F50E600302315385084C
:1030B3008285098312338DAA0AFB1206D98A108BE3
:1030C30011A810A911E849701E7AFF7BFF1206D9D7
:1030D3008A108B11A810A911E849606C8882898332
:1030E300E50AF0A3E50BF0750A008007750E0E8064
:1030F3005F050A900372E0FAE50AC39A504AE50AAB
:1031030075F017A4FAABF088828983A3A3E02AFAA7
:10311300A3E03BFB8A828B8312317CEC4D70D2752A
:103123000A17750B00780A121944EEFCEFFD120F13
:103133006174021216F0EEFCEFFD850882850983A7
:1031430012303412027D8014750E098003750E014E
:10315300123AE4850C82850D83123290A90E022C5B
:10316300A6E5082402F508E5093400F5098A828BEF
:1031730083A3A3A3E0A2E522A3E0FCA3E0FD2274C2
:10318300041216F07F0A02180374EC1217318C1024
:103193008D11EA2405F50CEB12279A750F00EA242A
:1031A30002F50AEB12327E850A82F583123034125D
:1031B30006D98A088B09EA45097003023270750E35
:1031C300008071850C82850D83E06401704F8E82CF
:1031D3008F83A3A312195B8E828F83A3A3A3A3E080
:1031E300F5127513007812121944EE2405F512EF47
:1031F3003400F513781212194412302E1206F774A4
:10320300061216F0E9F50F6014850C82850D83E430
:10321300F0123AE48510828511831232907C177D77
:10322300007900EEFAEFFB120F798E828F83E4F0C0
:10323300A3F0050E900372E0F8E50EC398501FE566
:103243000E75F017A4F8A9F0850882850983A3A356
:10325300123B11FCA3E0FDEC4D60030231C685086F
:103263008285098374FFF0A3F0E50F700612302EF8
:10327300120283A90F023019F50AEF3400F50B226D
:103283008E828F83123AEC850E82850F83E8F0A33A
:10329300E9F02274F61217317C008C08750900746A
:1032A3000278081216C71232C86A7003A3E06B7063
:1032B30006E8FAE9FB800B0CECC3940340DC7A00CC
:1032C3007B0002393B74662508F874033509F988D5
:1032D300828983E02274F71217317F00EF75F003C0
:1032E300A4F8A9F0EC28F8ED39F988828983E06A1B
:1032F3007003A3E06B7006E8FAE9FB800B0FEFC3E2
:10330300940440D87A007B007F0102180374F612FC
:1033130017311206A38A828B83E582458370067A6E
:10332300007B008007A3A3A3A312303402393B74AC
:10333300F2121731E9FE740E12172512338D741031
:103343001217251238088C828D83E064027036A32D
:10335300123AF2F50CA3E0F9A80C74026870037436
:1033630029697021750C02750D00780C12194478C7
:1033730008121944780A121944EEF912071B74064D
:103383001216F080027901023A19E0F50AA3E0F57A
:103393000B2274E812173174FB1216DAE9851882CE
:1033A300851983F08A168B17ECFEEDFF75100074F8
:1033B3001D121725123AE8741D1217251232908E2A
:1033C300828F83A3A3A3E0A2E4502D741D121725BB
:1033D3001230341206E58A828B83E58245837003BB
:1033E3000237D7790AEEFCEFFDAA16AB1712172F97
:1033F300E9F51060030237DA741F12172512380833
:10340300742112172512338D7423121725E0F50E3C
:10341300A3E0F50F8E828F83E06402600302378599
:10342300A3123AE8850882850983A38582128583DE
:1034330013EE240612279788828983E0FAA3E0F922
:10344300EA2400F514E439F51578141219CE0100B5
:10345300002801287934070002283E350328AB34BD
:10346300002975360129A03602294136032975360C
:1034730004291F378537E50E450F60030237808522
:103483000C82850D83123820FAE9FB8A828B83E054
:10349300850A82850B831238341219448A828B83FE
:1034A300A3E0FCA3E0023709E50E450F60030237F2
:1034B30080850A82850B837401F012381085088297
:1034C300850983F07C007D008E828F83A3A3A3A351
:1034D300E02401FAA3E03400FB1205D7EA4B604174
:1034E3008A828B83E02402F8850A82850B83E02895
:1034F300F0EA2404F8EB3400F988828983E085122A
:10350300828513831238461238341219448A828B07
:103513008312317BE5082403FAE5093400FB023703
:103523000E850A82850B83E02404F07C047D0079F8
:1035330000AA12AB13120F790237DAE50E450F60BA
:1035430003023780123810FEA3E0FF850A82850B41
:10355300837404F0EE850882850983F0EF85128277
:10356300851383F07403121725AC82AD83EEFAEF53
:10357300FB1205D78A0C8B0DEA450D700302362228
:103583008A828B83A3A31224447401121725858294
:103593000E85830F780E121944740512172512191C
:1035A3005B7CFF7DFF1205DD74041216F08B0FEABE
:1035B300450F7033850C82850D831237ED12194444
:1035C300850C82850D83A312195B7C027D007AB280
:1035D3007B9012036774041216F0E9700A740112E7
:1035E300172574FFF0A3F08E828F83E06402703995
:1035F300750C02750D00780C1219448E828F83129C
:10360300317BE5082404FAE5093400FB120F6174E9
:10361300021216F0850A82850B83E0240280097466
:1036230001121725EEF0A3EFF074011217251237DC
:10363300FEF07401121725A31237F602377AE50E4E
:10364300450F6003023780850C82850D8312317C20
:10365300AA16AB1712070F850A82850B837402F033
:10366300EA850882850983F0851282851383EB023C
:10367300377DE50E450F6003023780123810F8A33B
:10368300E0F9850A82850B837402F0E88508828558
:103693000983F0E985128285138302377D850C82C5
:1036A300850D83123034120F5BEAFC8C82A882C32F
:1036B300950EE4950F405FE8650E7002E50F700408
:1036C3007C008022851882851983E0FAE50E2AFAA8
:1036D300E50F3400FBC3EA98EB94005003E0800548
:1036E300E50ECCC39CFCEC850A82850B83F08C0A27
:1036F300750B00780A121944850C82850D83E02529
:103703000EFCA3E0350FFDAA08AB09120F6174028A
:103713001216F00237DA7510070237DAE50E450F95
:10372300705B850C82850D83123AE8850A82850BCE
:10373300837407F0888289831237F61237E6E085AF
:103743001282851383F0E82402FAE93400FB8A82AB
:103753008B831237F61238251237FEA312382E1236
:103763003802F0E82405F8E93400F98882898312E5
:103773003802A3123846A3A3A3A3F0805A75100BF3
:103783008055741D1217251230341206A38A828BBA
:1037930083E5824583603D123AE8880C890DE8454C
:1037A3000D6031780E121944780A12194478081200
:1037B30019447406121725E0F9EEFCEFFDAA16ABC7
:1037C30017850C82850D8312172F74061216F0E9E4
:1037D300F510800375100EA91074051216F07F10F2
:1037E300021803F088828983A322E0F50E750F0087
:1037F300780E22E08508828509832212384D221231
:10380300384DA3A322E0F508A3E0F50922850C8235
:10381300850D83E0F8A3E0F5838882E022123AEC79
:10382300E822A3A3F08A828B83A32212234EA3A3AD
:1038330022F08A828B8312383D22E0F50A750B0051
:10384300780A221237E612384D22E085088285096C
:1038530083A3A32274EE12173174FE1216DA8A0AB6
:103863008B0BECFAEDFB7414121725E0F510A3E0B3
:10387300F5117416121725E0FE7418121725E0F5DA
:103883000EA3E0F50F851882851983AC82AD8312F0
:1038930005D78A0C8B0DEA450D6049851882851979
:1038A300831230341206A38A828B83E582458360B8
:1038B3002FA3A3123808E50845096024780E1219CE
:1038C300447810121944EEF9AC0CAD0DAA0AAB0BF7
:1038D30085088285098312172F74041216F0800657
:1038E300790E80027901022CA674F612173174FE48
:1038F3001216DA740C1217251238208518828519CE
:1039030083F07401121725E9F0E4F508F509780846
:103913001219447508027808121944740412172501
:1039230085820885830978081219441206F77406FC
:103933001216F074021216F07F0202180374F712C3
:103943001731EAFEEBFF89087CA57D0312070FEA16
:103953005402600BA908EEFAEFFB1205CB80027943
:103963000102330B74F612173174FF6A700374FF8C
:103973006B701B7B00EB75F003A4F8A9F0EC28F83F
:10398300ED3912233F0BEBC39404501480E7120666
:10399300DF8A088B09A808A909E8496003122340B4
:1039A300809674F61217311206DF8A828B83E582C2
:1039B30045836006A3A3E0FA80027A007B00023904
:1039C3003B74F21217318A088B09ECFEEDFF740E7B
:1039D300121725E0F50A1206DF8A0C8B0DA80CA935
:1039E3000DE8497026EEFCEFFD7AFF7BFF1206DF40
:1039F3008A0C8B0DA80CA90DE84970047911801667
:103A030088828983E508F0A3E509F088828983A386
:103A1300A3E50AF079007F0602180374EE1217314A
:103A2300EAFEEBFF8C088D09890C7414121725121A
:103A33003AE87416121725123034750D00E8496000
:103A430003023ADC7402650C6003023AD774121263
:103A53001725123AF2FCA3E0F9EC2400F50EE43941
:103A6300F50FEAF4F8EBF4F9EC58F8E50F59F9E837
:103A730049705CE5082406F8ED3400F9880A890BDF
:103A83008882F583123AFD12070F8A108B11E50E17
:103A930065107004E50F65116042780E12194485B4
:103AA3000A82850B83123AFD12071574021216F06F
:103AB300E9F50D7027780E1219448508828509836C
:103AC300A3A3123AFB12072774021216F0800D7596
:103AD3000D808008750D0D8003750D0BA90D023146
:103AE300878E828F83123AEC22E0F8A3E0F9221248
:103AF3003AEC88828983E022A3A3E0FCA3E0FDEEF5
:103B0300FAEFFB223400F50D850C82F58322E028C1
:103B1300FEA3E039FF8E828F83E02274F212173105
:103B2300EAFEEBFF890B7401650B600E7402650BF3
:103B3300706B79011208DDE97063EEFAEFFB120690
:103B4300D98A088B09EA45096048750A00800B7C0D
:103B5300177D007900120F79050A900372E0F8E5EA
:103B63000AC3985022E50A75F017A4F8A9F085084E
:103B730082850983A3A3E028FAA3E039FB8A828B19
:103B8300831238204970C885088285098374FFF041
:103B9300A3F07CA57D03EEFAEFFB120709023A19A5
:103BA30074F21217318A088B09ECFEEDFF740E12C2
:103BB300172512338D90117FE0F4603D7A097B0065
:103BC300120F8BEA4B60328A828B8374B1F0A3E4C9
:103BD300123827A3123825A3E508F0A3E509123B01
:103BE300FFEEF0A3EF123BFFA3A3E50AF0A3E50B5F
:103BF300F090117FE0F9120F97023A19F08A828B45
:103C030083A3A3A3A3A322C082C08390619074045F
:103C1300F0A37448F0A3E4F09061807440F09061E5
:103C2300BC7407F09061877469F09061B67416F004
:103C330079001209E579021209EB9022D8E493F492
:103C43006006E493F91209C17905120D4502402B70
:103C5300C082C083E9540FF9906185E0696012E581
:103C6300C654804449F5C6E59E547F644970F8E91B
:103C7300F053C680E59E547F70FA02402B74F7120E
:103C83001731E5A8FE53A87E1209CDC2BA539AFE96
:103C9300C289759B00C2C21209D375A91175B905F2
:103CA3001209D9D2BA439A0174805E42A8024F4FD7
:103CB300C082C083906181E4F0A3F0A3F002402BA3
:103CC30075E90075910075BF00020122C082C083AF
:103CD300906181E4F0A374C0F0A3E480DFC082C0EC
:103CE3008374F81216DA90047B12539E7003023D1C
:103CF300BF90047BE05440602379088518828519BE
:103D030083AA82AB83120AF9851882851983AA8252
:103D1300AB8312079990047BE054BFF0E0548060BA
:103D230010790C7A1B7B08120AF990047BE0547F0C
:103D3300F0E0A2E0500F79001209E512079F90040A
:103D43007BE054FEF0E05402600F79011209E512A2
:103D5300079F90047BE054FDF0E05404600F79006A
:103D63001209EB1207A590047BE054FBF0E0540822
:103D7300600F79011209EB1207A590047BE054F759
:103D8300F0E05410600F79021209EB1207A59004BA
:103D93007BE054EFF0E05420600F79031209EB123B
:103DA30007A590047BE054DFF0A3E05401600D12FB
:103DB30009F71207AB90047CE054FEF07408121666
:103DC300F002402BC082C083E9600514602A804F53
:103DD30090619A7433F0A37455F09061A0743AF033
:103DE3009007F5E064017009C29190047D746780C7
:103DF3002D90047D7461802690619A743FF0A374C2
:103E03005AF09061A0747FF09007F5E064017009A7
:103E1300D29190047D7471800590047D746AF002E0
:103E2300402BC082C083E9600B14600D146017142B
:103E3300600C80209022DC80159022DD801090079A
:103E4300F5E0640170059022DE80039022DFE493A5
:103E5300906186F002402B74EE12173174F412163F
:103E6300DA851882851983AC82AD83758390758258
:103E73003E74041215ED9022DC93F46003023F8438
:103E8300907808E0C394025003023F64740412174D
:103E930025AC82AD8375838F7582FF74081215ED8F
:103EA300FC7EFF7FFF8E0C7D008C8285820E800F4F
:103EB30074086D606D74096D6068740A6D60638D5C
:103EC30008750900740278081216C7123F8E12157E
:103ED300AAA909E50AC9F88810741878081214C544
:103EE300E5104508FAE9FBE50EC333F8E433F9744A
:103EF30004121725E58228F582E58339124680C32B
:103F0300E89AE99B4008E8C39AF8E99B8006EAC36C
:103F130098F8EB99F9C3E89EE99F5006E8FEE9FF9C
:103F23008D0C0DEDC39413408774FF6E700374FF03
:103F33006F6024850C08740278081216C7123F8E2E
:103F43001215AA851882851983E582250EF582E567
:103F530083124A99E508F00CECC394045003023E23
:103F6300A475080175090078081219447402121720
:103F730025AC82AD837AB77B081211AD7402121699
:103F8300F0740C1216F07F0A02180374482508F522
:103F93008274783509F583780822C082C0839061E2
:103FA30086E0F89022DFE4936870099022DEE493C0
:103FB300906186F09061AE7468F0A3746AF09062C9
:103FC3004574FBF0A304F053F4FD43FE029007F5A0
:103FD3007401F09061A0E0643A7004790080027982
:103FE300011209E502402B7F04021803C082C0833B
:103FF3009007D3E0640170139007D9E0F874016867
:104003006019E87006A3E0640160109007EAE064B9
:1040130001700C9007F0E064017004790C80027960
:10402300008005E0F91221E4D083D082020122123C
:104033004726940622E0C4333354C022C082C0838F
:104043009007DD7425F09007DB7401F0A3E4F07AA8
:1040530001FB120CC112408B2416F582E8124A9917
:10406300741BF0A3740AF09007DAE06401701690F1
:1040730007D9E070107901120D21120CF1120D1BFA
:104083007900120D2D02402B9007C912440F2274A0
:10409300F612173174FA1216DA9007D2E06401703F
:1040A30008120A039007D2E4F075E1F112408B2461
:1040B30015F582E8124A997401F09007D4E064017F
:1040C3007053909013C082851882851983AC82AD9A
:1040D30083758390D08274061215ED75D90D900700
:1040E300CB1240384403F5D97800880874CC1250B9
:1040F30028740712403240F27800880885188285B8
:104103001983E582125028E58312403240EC75E1B1
:1041130095790180027900120CC79011A112418890
:1041230074A1F0A3740BF0A31241881241881242C8
:10413300DC74A7F0A3740B1242F19007CBE0F97A79
:10414300CC7B07120CA39007DDE0F91221E479017F
:10415300120CCD90902A1215C8120CE590904612BD
:1041630015C8120CAF7900120D3912408B2414F5C7
:1041730082E8124A997416F09004797405F00412D7
:1041830016F0024790749BF0A3740BF0A32274F40F
:104193001217318908A808124E949007E2E0F97AC1
:1041A300E37B07120CA39007F0E0701A7900120D5D
:1041B300039007B8E070047900800279017AB97B33
:1041C30007120CA980057901120D0375E1F175D968
:1041D300239007E21240384405F5D97800880A7421
:1041E300E3250AF582740712403240F175D9007550
:1041F300D90075D90075D90075D90075D9007A0031
:104203001252EA242212463F40F67A001252EA245E
:1042130026F582E91247980AEAC3940340EEEE2496
:104223002B1247957A001252EA242C12464540F687
:104233007A001252EA242E12464540F67A001252B0
:10424300EA243012464540F67A001252EA2432122A
:10425300464540F67A008A0AEE250AF8EF124BB17A
:10426300124651940540EFEE2437F582EF124DE8E4
:10427300541FF8EE242AF582EF124DE8C43354E0BC
:1042830048F5D975E1959011A1746BF0A3740BF007
:10429300A37471F0A3740B1242D37477F0A3740B5D
:1042A3001242F19007EFE0F91221E490902A1215DF
:1042B300C8120CE59090461215C8120CAF90600D11
:1042C300E4F07901120D399004797406F0023FEAA3
:1042D300F0A31242DC1242DC221242E0227465F0A7
:1042E300A3740BF0A37465F0A3740BF0A322124222
:1042F300F522F09011AF124301A31243012212429F
:10430300E07465F0A3740BF02274EC12173190077C
:10431300E0124EAB78101215AA9007F1E0FAF87587
:10432300F005A4C8ACF02CF974D728F582740439CD
:10433300F583E0FEA3E0FFEEC333FEEF33FF8E0C05
:10434300F50D750E00750F0085100885110985128E
:104353000A85130B90904E780812151078081219DD
:104363004085100885110985120A85130B78087991
:104373000C1214FD7810790C121455E4F50EF50F98
:104383007808790C1215368A0C750D007403780CB5
:104393001216C77808790C1214FD9090367808121B
:1043A3001571AA08AB09AC0AAD0B12217C74041277
:1043B30016F08A088B09A808A909C3EE98EF99504B
:1043C30006E82EF8E93FF9E890600EF0E9A3F0EE75
:1043D300A3F0EFA3F090600D74C1F07F0C021803FB
:1043E300C082C0839007C91244039007DD024026B0
:1043F300C082C0839007E01244039007EF02402677
:1044030012440F2406F582E812483122E0F8A3E0B3
:10441300C82202012274F2121731124582F50AEF03
:1044230012490F6004780480027800E8240EF8EA49
:10443300C39850030244DF75080C9007FBE4F0EEC9
:104443002476F582EF124DE89007FCF07902EE2412
:1044530077FCEF3400FD7AFD7B07120AE77902EE61
:104463002479FCEF3400FD120AE77902EE247BFC89
:10447300EF3400FD120AE77902EE247DFCEF3400ED
:10448300FD120AE7EE2474124598120AE7850A82A0
:10449300850B83E0601E7508FB7509077808121900
:1044A300447C0C7903EEFAEFFB120B5974021216DB
:1044B300F075081074012508F5D975D903780080C3
:1044C30009880A74FB250A124577E8C3950840F169
:1044D30075E1957904120CEB7901800279007F066E
:1044E30002180374F2121731124582F508EF3400F3
:1044F300F509850882F583E060047804800278007A
:10450300E8240AF8EAC3984060750A089007FB7428
:1045130001F079057CBF7D077AFC7B07120AE7EE81
:104523002480124598120AE7850882850983E06092
:104533001E7508FB75090778081219447C0879036E
:10454300EEFAEFFB120B5974021216F0750A0C12F5
:10455300480E8003124571E8C3950A40F775E1954B
:104563007904120CEB7901800279000244E1880896
:1045730074FB2508F5827407124DECF5D908221255
:10458300458622EAFEEBFF9061D0E0F87480C39881
:10459300FAEE248222FCEF3400FD8E828F83A3A3E4
:1045A300A3A3A31253AD8C828D83E028F0A3E0393B
:1045B300F079022274F6121731EAFEEBFF9061D014
:1045C300E0707475D91875D90375D9037A008A0810
:1045D300EE25081252EF249B12465840F17A008AC6
:1045E30008EE25081252EF24A312464540F17A0043
:1045F3008A08EE25081252EF249312465840F17AA6
:10460300008A08EE25081252EF248712463F40F134
:1046130075E1957908EE2493FAEF3400FB120AED65
:104623007904EE2487FAEF3400FB120AED790412C1
:104633000CEB1246618002790002479012464B94BC
:10464300042212464B940222F582E9124F44E0F50C
:10465300D90AEAC32212464B94082275E195EE2447
:104663006FF582EF124F401253ADEE2471F582EFD6
:10467300124F40E8F0A3E9F07901223400F58312E8
:1046830053AD2274F6121731EAFEEBFF9007FB7469
:10469300061247301219447C017903120B59740234
:1046A3001216F075D90675D903780012471640FB28
:1046B30075E195900479E064087017EE246FF58234
:1046C300EF12467EEE2471F582EF124A99E8F0A3C9
:1046D300E9F0790102479074F6121731EAFEEBFF15
:1046E3009061D0E070299007FB740A1247301219C9
:1046F300447C017903120B5974021216F075D90622
:1047030075D903780012471640FB12465E80027982
:1047130000807A880874FB2508F5827407124726FF
:10472300940522124F44E0F5D908E8C322F0750836
:10473300FB75090778082274F6121731EAFEEBFFBE
:104743009061D0E0704279019007FB740BF0900404
:1047530079E0640770197508FB7509077808121961
:10476300447C010909120B5974021216F07905747D
:104773000129F5D975D90378008003124571E8C37F
:104783009940F812465E800279008001F07F0202B0
:104793001803F582EF124DECF5D92274F512173197
:1047A3001248396004780480027800E8240BF8EAA0
:1047B300C3984052750A099007FB7408F0F9124830
:1047C3001A120AE7850882850983E0601E7508FBD3
:1047D30075090778081219447C097903EEFAEFFB8F
:1047E300120B5974021216F0750A0D12480E80034B
:1047F300124571E8C3950A40F775E1957904120CE7
:10480300EB12466180027900024A8F7401250AF592
:10481300D975D903780022EE24E4FCEF3400FD7A45
:10482300FC7B0722EE241DF582EF12483122124F42
:1048330044E4F0A3F022124586F8EF1248422234F2
:1048430000F9880889098882F583E02274F3121736
:10485300318A088B091249A5FAE5082482F50AEB87
:1048630012490F6004780480027800E82408F8EA0B
:10487300C3985003024908750C069007FB740CF0AB
:10488300900496E09007FCF07402C0E0F97C977DF9
:10489300047AFD7B07120AE7D0E0F97C997D0412C4
:1048A3000AE7850A82850B83E0601E750AFB750B98
:1048B30007780A1219447C067903AA08AB09120B7C
:1048C3005974021216F0750C0A7401250CF5D9758A
:1048D300D90378008009880A74FB250A124577E812
:1048E300C3950C40F175E1957904120CEBE50824AE
:1048F3006FF582E50912467EE5082471F582E50924
:10490300124673800279007F050218033400F50B09
:10491300850A82F583E02274F6121731EAFEEBFF73
:104923001249A5FCEE2482F8EF124A2860047A04A7
:1049330080027A00EA2404FAECC39A40607A029077
:1049430007FBEAF0EE24F6F582EF1249AF601B7520
:1049530008FB75090778081219447C027903EEFAFB
:10496300120B5974021216F07A0674012AF5D975DE
:10497300D90378008003124571E8C39A40F875E1C2
:1049830095EE247312502DEE247F12502D124827DA
:104993007904120CEBEE240D1246648002790002B6
:1049A30047909061D0E0F87480C39822124DEC9048
:1049B30007FCF088828983E02274F61217311249CA
:1049C300A5FEEA2482F8EB124A2860047C048002E4
:1049D3007C00EC2404FCEEC39C40457C029007FB66
:1049E3007407F0EA24F7F582EB1249AF60177508F4
:1049F300FB75090778081219447903120B597402DD
:104A03001216F07C0674012CF5D975D90378008051
:104A130003124571E8C39C40F875E1957901800262
:104A230079000247903400F988828983E02274F583
:104A3300121731E9FEA2AFE433F50AC2AF7F00EAF1
:104A4300246EF8EB3400F980010F88828983E0F546
:104A530008EFC3950850188F08EA2508FCEB3400CB
:104A6300FDEC246AF582ED124DE86E70DC8017EAE6
:104A73002508FAEB3400FBEA246AF582EB124A9923
:104A8300EE1249B504F0E50AA2E092AF7F030218E3
:104A930003246AF582E9124F402274F6121731A2F9
:104AA300AFE433FFC2AFEA246EF8EB1250DCE0143C
:104AB300F07E0080198E08EA2508F8EB1252F124E3
:104AC3006B124DE5C0E0E8124A94D0E0F00E8C8200
:104AD3008D83E0F8EEC39840DCEA246DF582EB1297
:104AE3004A9974FF124B12EFA2E092AF024790C0B3
:104AF30082C083E5A8F8C2AFEA246AF582EB124AC2
:104B030099E9124B12E8A2E7A2E792AF02402BF019
:104B1300EA2469124B1A22F582EB124F44E4F02285
:104B230074F21217318C828D83A3A3A3A3E0541FC5
:104B3300F0EA24361250D28E828F83E4F0F50C858E
:104B43000C8285820AEC250AF8ED124842C0E0EA9D
:104B5300250AF8EB124BB1D0E0F0750D0085088201
:104B6300850983E0F50A750B00E50D780A1216A88E
:104B7300E50AA2E05023E50C33333354F8250DC086
:104B8300E08E828F83E0F8124D852438124A96D046
:104B9300E0F08E828F83E004F0050DE50DC39408E9
:104BA30040BB050CE50CC3940540940244E134007A
:104BB300F9E8245DF582E9124F402274F4121731AB
:104BC3009004A5E064037003024D6B7E00EEF8755C
:104BD300F005A4C8AAF02AF974AB28F58274043945
:104BE300F583E06003024D6174A928FA740439FB6C
:104BF3008A828B83A3A37401125344A3A3A3E4F077
:104C0300EA2404F8EB1252F1FCE9FDEE8C828D8369
:104C1300F0EA2462124D722467F582EB124A99740A
:104C230001124D97E4F0A3124D97A3A3124D9224C2
:104C33000F124D722435F582EB125030F508F50949
:104C4300F50AF50BEA2418124D7A1215B9EA241C59
:104C5300124D80241D124D8E247F124D8024731219
:104C63004D802468F582EB124A997480124B12EA44
:104C7300246E124D8024EC124D8024ED124D8024BD
:104C8300EE124D8024EF124D8024F0124D8E24F24B
:104C9300124D8E24F5124D802482124D8024D2129F
:104CA3004D8024D3124D8024D4124D7A1215B9EAC3
:104CB30024D8124D7A1215B9EA24DE124D8024E06D
:104CC300124D8024DC124D8024E1124D8024E21227
:104CD3004D8024F8124D8E24FA124D8E24FC124D71
:104CE3008E24FEF582EB12482DFE8E08EA2508F885
:104CF300EB1252F1124A9474FFF00EEEC394044087
:104D0300E97E008E82A88274BF28F5827407124D53
:104D1300E8C0E0124D85245D124A96D0E0F00EEE15
:104D2300C3940540DE7E008E82A882748D28F582AE
:104D33007404124DE8C0E0124D8524E4124A96D063
:104D4300E0F00EEEC3940840DE9004A5E004F064A6
:104D53000170198C828D83E09004A7F0800E0EEE13
:104D6300C394035003024BD07A007B00023FEA1244
:104D73004F3D7401F0EA22124F3D780822124B1A7C
:104D8300EA22EA28F8EB3400F9E822124F3DE4F076
:104D9300A3F0EA22F08A828B83A3A3A3A3A322C056
:104DA30082C083EA2403F582EB124DE86008E4F045
:104DB3009004A6E014F09004A5E014F070069004AB
:104DC300A774FFF08A828B83A3A3E4F09007C4E067
:104DD300700D9004A6E0640170057900120CB50211
:104DE300402BF582E9124DEC22124F44E022C0829F
:104DF300C0837B00EBF875F005A4C8AAF02AF97408
:104E0300A528F87404124FFCA3A3A3A3E4F088829B
:104E13008983A3A3A3A3A3A3F00BEBC3940340D45D
:104E23009004A5E4F0A3F0A374FFF075E1F1024050
:104E33002B74F5121731750800750900750A00A85F
:104E43000A124E948E828F83A3A3A3E0602BE508FE
:104E53004509601D850882850983124EAB121957D7
:104E6300124EA71215C812212074041216F0E9700D
:104E730008EEF8EFF988088909050AE50AC39403DF
:104E830040BD850882850983A3A3A3A3E0F9024A51
:104E93008FE875F005A4C8AAF02AF974A928FE744E
:104EA3000439FF228E828F83E0F8A3E0F5838882A2
:104EB300A3A32274F712173178FF79FF7F00EFFC69
:104EC30075F005A4CCAEF02EFD74A92CFC74043D42
:104ED300FD8C828D83A3A3A3E0603EEC2473F58253
:104EE300ED124DE8FE74FF68700374FF6970077478
:104EF300016E701C800D74016E700DEC2479124FDD
:104F0300305016EC2479800BEC242E124F305009CC
:104F1300EC242EF582ED12467E0FEFC39403409EE0
:104F2300C3EA98EB994004E8FAE9FB801FF582EDA8
:104F3300124F40C3E098A3E09922F582EB124F444D
:104F4300223400F58322A2E092AF79007F01021898
:104F53000374F6121731EAFEEBFFEE2463F508EF54
:104F63003400F5098016AA08AB09120ADB1212975E
:104F73009007C5E004F09007C6E004F08508828539
:104F8300098312539E70DFEEFAEFFB120A87EEFAE3
:104F9300EFFB120BE302479074F7121731EAFEEBB3
:104FA300FF8E828F83A3A3A3A3E0FA7B001207F3F0
:104FB300EEFAEFFB120A9F120BC58090C082C083EA
:104FC3007B00EBF875F005A4C8AAF02AF974A928A8
:104FD300F87404124FFCE06014E8246E124DE5608F
:104FE3000CE8246A124DE57004790180090BEBC3C8
:104FF300940340CE790002402B39F988828983A338
:10500300A3A32274F612173178008808748D125006
:1050130028740412503008E8C3940840ED90048DBE
:10502300740102478F2508F58222F582EF124B1D8A
:105033002274F712173174FC1216DA851882851957
:1050430083E4F0A3F0A3F0A3F0120AF3E985188236
:10505300851983F0120AF37401121725E9F0120A75
:10506300F37402121725E9F0851882851983121546
:10507300C874041216F0024F4F74F6121731EA2463
:105083000D1250D2EC2403F8ED3400F98808890995
:10509300EC2407F8ED1250DC12468285088285095C
:1050A30083E0FAA3E0FB12164F8E828F83E8F0A30E
:1050B300E91253A4850882850983E0FAA3E0FB1271
:1050C300164F8B09EA450960031250E8024790F82E
:1050D300EB3400F9E8FEE9FF223400F9E8FCE9FDCE
:1050E3008C828D83228E828F83E02401F0A3E034AF
:1050F30000F02274F6121731EA242EF582EB124DDA
:10510300E8FCA3E0FDEA246F1250D2780079FAECB0
:10511300FAEDFB12164F8E828F83E8F0A3E9F07845
:105123000079FAECFAEDFB12164F8B09EA45096098
:10513300031250E802479074F0121731EAFEEBFFB6
:10514300741012172578081215AA120C798A0C8B81
:105153000D8C0E8D0F909052780C12151090903686
:10516300780C121571780C121940124EA71215C83B
:1051730012212074041216F0E960030252228E8277
:105183008F83E02402F8A3E01252F1FAE9FB8A824A
:105193008B83780812152390903678081215AA8A03
:1051A300828B837808121584EE240BF582EF124A62
:1051B30099C082C0838E828F83A3A3A3A3A3E02479
:1051C30001F8A3E03400F9D083D082E0687003A330
:1051D300E069700479018049EE2407F8EF3400F99F
:1051E300888289831250ECEE24731252297014EED4
:1051F30024741252327003A3E06D70078A828B838A
:105203001250ECEE247F1252297014EE24801252B5
:10521300327003A3E06D70078A828B831250EC799E
:10522300007F08021803F582EF124DEC640122FAA5
:10523300EF3400FB8A828B83E0FCA3E0FD88828944
:1052430083E06C2274F3121731E9FEECFFEA246267
:10525300F582EB12522C60030252E59061D0E0F527
:1052630008EA2482F582EB124DE8F50C6004780419
:10527300800278007480C39508FC95E0FDEF28F860
:10528300E41252F12402F8E93400F9EC98ED99A202
:10529300D265D0334048740D121725E0F50AA3E018
:1052A300F50BE50C6015780A121944EFFCEEF912C0
:1052B3000B5974021216F074042FFF74012FF5D9E1
:1052C3008ED97800800C8808E50A125028E50B1265
:1052D300457BE8C39F40EF75E19579008006790728
:1052E300800279FF02490A8A0AEE250AF8EF3400A0
:1052F300F9E82274F7121731A2AFE433F508C2AF0D
:10530300EA2402F8EB3400F98A828B83E0FEA3E0FF
:10531300FFEE4F600E88828983E0FAA3E0F5838A6B
:105323008280048A828B83ECF0A3EDF088828983E8
:1053330012534AF0E508024F498C828D83E8F0A3AB
:10534300E9F08A828B8322ECF0A3EDF08C828D83CB
:10535300E4F0A32274F7121731EAFCEBFD7A007B29
:1053630000A2AFE433FEC2AF8C828D8312539E60E2
:1053730022E8FAE9FB8A828B8312468212533CE4C9
:10538300F0A31253A4E849700A8C828D83A3A3E48B
:10539300F0A3F0EEA2E092AF024F4F1253ADE849F3
:1053A30022F08C828D831253AD22E0F8A3E0F92220
:1053B300C082C08380031253E1E9F874FF28190403
:1053C30070F4ECFAEDFB02402BC082C08380031221
:1053D30053E1E9F874FF28190470F402402B8C821E
:1053E3008D83E08A828B83F08C828D83A3AC82AD24
:1053F300838A828B83A3AA82AB832274F012173130
:1054030074FA1216DA890BECFEEDFF750A008A08AE
:105413008B097808121988000410485641545F54C8
:1054230079549154AF54C754EA5402551655405514
:10543300C855D955F0550A5648562B56565574013A
:10544300650B60030256438E828F83E0F8C3940397
:105453004003025643E89011C30256407402650BA1
:1054630060030256438E828F83125E009011C4E85C
:10547300F0A3E90256407401650B60030256431220
:1054830056754003025643E8900DBF02564074011F
:10549300650B60030256438E828F83E0F8C3940545
:1054A3004003025643E8900DC00256407401650B59
:1054B30060030256431256754003025643E8900DAB
:1054C300C10256407410650B600302564375081001
:1054D30075090078081219447AC27B0D120F6174A2
:1054E300021216F00256697401650B6003025643FB
:1054F3001256754003025643E8900DD2025640748B
:1055030001650B60030256438E828F83E09011C7BF
:105513000256407404650B60030256438E828F83E8
:10552300780C1215AA90902E780C1213B650030221
:105533005643900DD4780C1215B9025669E96003ED
:105543000256431204F9E970051211358060900E7A
:1055530067806E7407650B60030256437508067512
:10556300090078081219448E828F83A3AC82AD831D
:105573007402121725AA82AB83120F6774021216E4
:10558300F07C007D00851882851983AA82AB838E07
:10559300828F83E0F91210CFE9F508C3940A400320
:1055A3000256661204F9E9700CA90812113B7950EE
:1055B30012131B806E74682508F582740E3400F58F
:1055C30083740180787401650B7075125675507081
:1055D300E8900DD380677401650B70648E828F83AE
:1055E300E0F8C3940A5059E89011C68050740165DD
:1055F3000B704D8E828F83E0F874F928C3940A50A0
:105603003FE89011C880367401650B7033900E66C5
:10561300E0F88E828F83E0900E66F0E87048E064D5
:10562300017043121129803E7401650B70128E8242
:105633008F83E0F8C394045007E89011C9F08026E3
:10564300750A188021C3EA9427EB9400501574025D
:10565300650B700F8E828F831261F01203DFE9F501
:105663000A8003750A02A90A74061216F07F08025B
:1056730018038E828F83E0F8C394022274F2121708
:105683003174DA1216DA890AECFEEDFF7420121770
:1056930025AC82AD8375839075821F74061215ED58
:1056A3007420121725AC82AD831210CFE9F508746C
:1056B30034121725E0F50BE9C3940A40030257DAC5
:1056C300121111E9F5099011C3E064027004740129
:1056D3008001E4F50C780C121948AD0BAC09A9084C
:1056E300EEFAEFFB12115F74011216F07C147D00C9
:1056F3007900740C121725AA82AB83120F7975F007
:1057030006E508A4F50B740C121725AC82AD837A59
:10571300107424250BF9121315E9703D7C1079FFE1
:10572300740C121725AA82AB83120FDFE9702A7457
:105733001C121725AC82AD837A047425250BF9124C
:105743001315740C121725AC82AD83E509A2E0E4AE
:1057530033F9EEFAEFFB120475851882851983ACD1
:1057630082AD837A0C74702508F9121315E970530E
:10577300851882851983AA82AB83121105750800E7
:10578300E50875F003A4F8A9F0851882851983E567
:105793008228F8E583125FFD1261EA601D88828921
:1057A30083A3A3E0F50C750D00780C121944EEFAEF
:1057B300EFFB1206FD74021216F00508E508C39408
:1057C3000440BDE509A2E15046900DBEE0F9EEFAB2
:1057D300EFFB12070380387408650B70329011C316
:1057E300E06402702A7C007D00A90AEEFAEFFB1246
:1057F3001159126A7F6018125E0588828983E582D7
:105803004583600B7C007900EEFAEFFB12172F79CA
:105813000074260261C674F0121731EAFEEBFF8CA6
:10582300088D09750A0AE9600C14600914603714BD
:1058330060790258C812111DE9F50AC3940A40039E
:105843000258C8E5084509607C750E06750F007897
:105853000E121944EEFCEFFDAA08AB09120F617496
:10586300021216F0805F750B00750E06750F007837
:105873000E121944EEFCEFFDE50B75F00EA4F8A92A
:10588300F074E028FA740D39FB120F7374021216C8
:10589300F0E9600C850B0AE50AC3940A50278016C9
:1058A300050BE50BC3940A501C80BE121123E9F5C6
:1058B3000AC3940A500FE50845096009AA08AB0911
:1058C300A90A121117A90A02567074F41217318922
:1058D3000875091574FF6A700374FF6B70277E00E7
:1058E300AC087A027B00EEF91210F3E96003750944
:1058F300000EEEC3940A40E8E50860537A4D7B112D
:105903001208EF804A1208D18A0A8B0BAE0AAF0B3A
:10591300EE4F60387C007D00EE2405FAEF3400FB87
:105923008E828F83A3A3A3A3E0F91210CFE9C394BC
:105933000A500CAC087A027B001210F3750900E5DB
:1059430008600CEEFAEFFB12114D8003750914A9E0
:10595300098005740E1216F07F0402180374F21204
:105963001731ECFEEDFF750815740E121725E0F5DF
:105973000AA3E0F50B74FF6A700374FF6B70217563
:105983000900AC0AAD0BEEFAEFFBA9091210F9E915
:1059930060037508000509E509C3940A503F80E2D6
:1059A3001208D18A828B83E5824583602D7C007D3A
:1059B30000E5822405FAE5833400FBA3A3A3A3E057
:1059C300F91210CFE9C3940A5013AC0AAD0BEEFAE7
:1059D300EFFB1210F97508008003750814A908027B
:1059E30061C9C082C083900DD8EAF0A3EBF0900D9B
:1059F300BEE0FC7D007A267B001203DF900DBEE043
:105A0300F912067F0266BF74EC1217318A088B09FC
:105A1300E9FE7414121725780C1215AA7F00EE7094
:105A23002E780812194490902E78101215AA780C2B
:105A33007910121455AA10AB11AC12AD13120487CE
:105A430074021216F0E9FF60097901AA08AB091282
:105A53000481EFF97F0C02180374F012173174EC10
:105A63001216DAEAFEEBFFEE240CF50EEF3400F526
:105A73000F8E828F83A385820A85830BEE2403F521
:105A830008EF3400F5098E828F83A3A3E024FA7014
:105A930003025DA124FD7003025CB8147003025B72
:105AA30034146010147003025CEC24FE7003025C77
:105AB30030025DF9EE2409F50AEF3400F50B126AA2
:105AC3007F6043E0F5838882125E00880C890DE8CD
:105AD300450D6032850E82850F83E0F50E780E1238
:105AE3001948EE240BF582EF125FC4F9850A82850B
:105AF3000B831261F00A0A0AAB09850C82850D83B8
:105B030012172F025D71850A82850B8312195B9030
:105B13000DD41215C812048774021216F0E970032B
:105B2300025DF97901850A82850B8312668A025D1B
