:020000040000FA
:0600000002010A0220C407
:03002B0002252487
:03003B0002254556
:030043000224CFC5
:0300530002213A4D
:03006B000224F577
:10008300021F73E5C754F84401F5C7790122000044
:100093000080FB120086B900030200F4E4792178A2
:1000A30008B800028004F709D8FCE479297802B87B
:1000B30000028004F709D8FCE490028178527909A0
:1000C3008002F0A3D8FCD9FA900AD2AA82AB83901B
:1000D300013A785E79048015E493A3AC82AD838AF8
:1000E300828B83F0A3AA82AB838C828D83D8E9D9D8
:1000F300E77582127583A2740312011C75829175D0
:100103008300740012011C75D00075813F7518813E
:10011300751902759F00020096C09FF59FE473D086
:100123009F22D083D082C09FE493C0E0740193C028
:10013300E0740293F59F22FF0000B400002800281A
:1001430000283075A000A000A000A000000800084F
:10015300E001F0001000100010001000100010006B
:1001630050005000500010001000D00700000000A5
:1001730000000F00010005003075070010000100AA
:1001830081FF00000000FF9506B3069B06FF0202F5
:100193000208025000A0000000E80302AF90010033
:1001A30000D58F02A990010000290B02B79001002E
:1001B30000B30202A9900100002A0B02B5900100CE
:1001C30000C90202A9900100002B0B02B3900100A9
:1001D30000CB0202A9900100002C0B02A1900800A1
:1001E30000CC0202A9900100002D0B02A390010094
:1001F300002E0BFF0100FF2002AF900100009B9037
:1002030002A990010000920B02A5900000000000DB
:1002130002CD900300001903C50CC50CC50CC50C19
:10022300C50CC50CC50CC50CC50CC50CC50CC50C43
:10023300C50C9B0FB30F950FFFFF020202020202D0
:10024300020202010D000000100102AF9001000044
:10025300989002A990010000D50B02C990010000FB
:100263005D0702A990010000D60B02C790010000B0
:10027300938F02A990010000D70B02C590010000E3
:100283005D8F02A990010000D80B02C3900100000A
:10029300DD8E02A990010000D90B02C1900100007C
:1002A300958E02A990010000DA0B02BF90010000B5
:1002B300A78E02A990010000DB0B02BD9001000094
:1002C300B98E02A990010000DC0B02BB9001000073
:1002D3006B8F02A990010000DD0B02B990010000B1
:1002E300DE0B01E803053F100AFF0001307503022E
:1002F30001060000000000000000000000000000F4
:100303000000000000000000000000000000FFFFEC
:100313000600800CE803140953696D706C65424C48
:10032300455065726970686572616C051208000852
:1003330000020A000201060302F0FF53696D706CAC
:100343006520424C45205065726970686572616C26
:10035300271400002D140A43686172616374657287
:100363006973746963203100024368617261637465
:10037300657269737469632032000843686172614E
:100383006374657269737469632033001043686131
:100393007261637465726973746963203400024324
:1003A300686172616374657269737469632035008F
:1003B3000A43686172616374657269737469632067
:1003C300360010436861726163746572697374699E
:1003D3006320370002AF900100009E9002A99001B4
:1003E3000000F10C02DB900300009F0A02A79001BA
:1003F3000000F20C02A990010000030D02DD900140
:100403000000A00A02A790010000040D02A99001B8
:100413000000150D02DF90020000A10A02A790015F
:100423000000160D02A990010000270D02D79000CD
:100433000000A20A02CD90030000A30A02A79001C4
:100443000000280D02A990010000390D02D5900487
:100453000000A90A02A7900100003A0D02A9900129
:1004630000004B0D02D390030000AE0A02A79001D7
:1004730000004C0D02A9900100005D0D02CF900019
:100483000000BD0A02CD90030000CC0A02A7900130
:1004930000005E0D120125999103120125B091030D
:1004A300120125E191031201251C92031201254635
:1004B3009203120125709203120125879203120100
:1004C300259E9203120125B59203120125DE9203A4
:1004D300120125F192031201250793031201251A34
:1004E300930312012541930312012501980212017E
:1004F300250599021201253D9902120125609902F1
:100503001201256B99021201258E99021201259D74
:100513009A02120125729B02120125ED9B02120120
:1005230025759C02120125B09C02120125E79C024D
:10053300120125759D021201254E9E02120125AE60
:100543009E02120125B99E02120125389F02120153
:10055300253B9F021201253E9F02120125CD9F02DA
:10056300120125D09F0212012500A0021201252AA3
:10057300A00212012518A102120125CAA10212012B
:100583002527E0021201254FE0021201257DE0023A
:10059300120125B4E00212012512E1021201255DC8
:1005A300E102120125A8E102120125E8E10212018C
:1005B300252EE2021201255CE20212012519E30253
:1005C30012012523E30212012530E3021201256300
:1005D300E3021201252FE4021201253BE40212017A
:1005E3002553E4021201255DE402120125A39D03B4
:1005F300120125B19D03120125C99D03120125E1B5
:100603009D03120125DFB0011201258BB1011201F7
:100613002506B20112012527B30112012563B30197
:100623001201250CB401120125F3B401120125575F
:10063300B601120125AEB6011201252FB701120131
:10064300251FB8011201256CB801120125F2B8016A
:1006530012012524B90112012538BB011201257AA3
:10066300BB0112012598BB011201251BBC0112011C
:1006730025EFBC01120125B7BD01120125A3CD024F
:1006830012012576CE021201251FCF021201257217
:10069300CF0212012522D002120125AED00212018F
:1006A300259AD102120125C9D102120125DCD202F9
:1006B30012012524D302120125F9D3021201253593
:1006C300D40212012551D4021201256FA003120195
:1006D30025D3F602120125E9F6021201250FF702CE
:1006E3001201252BF80212012535F8021201256AA1
:1006F300F90212012562FA02120125D57A001201CC
:1007030025057C00120125387C00120125827C001E
:10071300120125497E00120125F0A0011201255A7C
:10072300A101120125B9A201120125C9A2011201D9
:1007330025F6A2011201254DA301120125F6A301FD
:10074300120125FDA401120125C7A50112012527C8
:10075300A7011201256AA7011201250FA8011201A1
:10076300255CA80112012582A80112012590AA0186
:1007730012012595AA011201259AAC01120125E760
:10078300AC011201255AAD011201258DAD011201F3
:10079300252FAE01120125D8AE0112012510AF019C
:1007A30012012513AF011201255BAF011201259B35
:1007B300AF01120125F2AF01120125B58903120120
:1007C30025CD8903120125158A031201252B8A03DE
:1007D300120125728A03120125868B031201251348
:1007E3008C031201255E8C03120125B8250012012A
:1007F30025C42500120125FF2500120125442600EA
:100803001201250427001201258A2700120125EF72
:1008130027001201251B280012012554280012016C
:1008230025922A00120125762C001201255C2E0048
:100833001201259F2F00120125ED3100120125FF22
:1008430032001201254A34001201255A35001201E3
:1008530025773500120125B23500120125D4350064
:10086300120125373600120125F83A001201258DB1
:100873003B00120125DE3B00120125053C0012015D
:1008830025573C00120125753C00120125CF3C0081
:10089300120125B83D001201252E3F00120125B299
:1008A3003F0012012595E9021201259FE902120179
:1008B30025E2E902120125FDE9021201258DEA0272
:1008C300120125B5EA02120125F2EA0212012529D5
:1008D300EB0212012552EB02120125C7EB021201B2
:1008E30025DCEB02120125F1EB0212012522EC02B9
:1008F30012012536EC021201255BEC02120125954B
:10090300EC02120125C1EC021201254DED02120188
:100913002578ED02120125C1ED02120125EBED024E
:1009230012012516EE0212012584990312012500F6
:1009330080021201252E80021201257C8102120100
:10094300255C82021201257B8202120125F88202B4
:100953001201253B830212012591840212012552C3
:100963008502120125D987021201257A8802120114
:10097300257089021201256D8A02120125C78B0297
:10098300120125528C021201252998031201259286
:100993009803120125E698031201250D990312010C
:1009A300253E99031201253EEE02120125ABEE020C
:1009B300120125F2EE021201250AF00212012506A8
:1009C300F102120125E9F1021201257EB50212019D
:1009D30025C0B50212012592B6021201256BB7029A
:1009E30012012565B80212012547B902120125B08B
:1009F300B90212012566BA02120125DABA021201FE
:100A03002546BB021201256FBB02120125E9BB0279
:100A130012012582BC02120125E7BC02120125FC4A
:100A2300BC0212012542BD021201255BBD02120167
:100A330025C0BD02120125C3BD02120125BC8603D8
:100A4300120125E48603120125228703120125E002
:100A530087031201254788031201256388031201C6
:100A6300258B8803120125BB8803120125CA88033D
:100A73001201254789031201256D8903120125E817
:100A83009001120125869201120125A19401120100
:100A930025DD94011201250A9501120125EF950127
:100AA3001201253696011201257A96011201258C31
:100AB3009601120125CC9601120125F99601120126
:100AC30025449701120125849701120125B297014C
:100AD300120125049801120125949801120125326F
:100AE3009B01120125489D01120125869D011201DA
:100AF30025179F011201255C9F01120125D39F0138
:100B03001201251DA001120125C5A0011201250511
:100B1300AC0212012584AC0212012546B202120175
:100B23002555B302120125BDB40212012554B502A5
:100B3300120125AF5500120125F855001201252594
:100B43005600120125585600120125655600120160
:100B5300257156001201258356001201256A57009C
:100B6300120125C85700120125FD57001201254027
:100B730059001201258D5900120125B159001201A6
:100B8300251E5A00120125DC5A00120125955B002F
:100B9300120125025C00120125B45C00120125C478
:100BA3005C001201254B5D001201250A5E00120153
:100BB30025375E00120125B05E001201250D5F008E
:100BC300120125575F00120125ED5F00120125B8C0
:100BD30060001201256D6100120125E2610012011E
:100BE30025436200120125AD6200120125E6620071
:100BF300120125886300120125986400120125D88B
:100C03006400120125F56400120125146500120128
:100C1300255B6500120125806500120125AD650085
:100C23001201252766001201256866001201258C32
:100C330067001201253C6800120125936800120128
:100C430025FD68001201251669001201253BA20249
:100C53001201258EA2021201259AA2021201256F0A
:100C6300A30212012596A302120125D1A3021201A8
:100C7300253DA40212012579A402120125B2A40282
:100C8300120125CAA4021201251FA502120125384B
:100C9300A50212012581A50212012594A5021201C4
:100CA30025AEA502120125C4A502120125F7A6024D
:100CB3001201253EA80212012540A9021201253A7C
:100CC300AA02120125FC7F001201256AEA01120122
:100CD300259AEA0112012562EE01120125B9EF01FD
:100CE30012012582F00112012502F201120125D31E
:100CF300F20112012510F30112012533F301120150
:100D03002571F3011201257AF301120125C4F301C0
:100D1300120125CEF30112012578F40112012551A8
:100D2300F501120125A5F50112012507F6011201AE
:100D3300255AF60112012589F601120125C6F6018D
:100D4300120125486900120125AF6C00120125B577
:100D53006C00120125377200120125B076001201D2
:100D630025867A001201256A8303120125E0830395
:100D7300120125F68303120125378403120125711D
:100D83008403120125EA8403120125258503120138
:100D930025988503120125D68503120125DF8503D6
:100DA300120125EB85031201250786031201253263
:100DB30086031201254886031201258C860312013E
:100DC3002564DB0212012577DB0212012591DB0288
:100DD300120125BADB02120125FDDB021201253CBB
:100DE300DC021201257ADC02120125DFDC0212018A
:100DF30025F4DC02120125FFDC021201250CDD02C1
:100E030012012523DD0212012531DD021201253CE9
:100E1300DD0212012548DD021201255BDD0212010C
:100E23002566DD0212012589DD0212012530DE026D
:100E330012012540DE021201255ADE021201257736
:100E4300DE0212012593DE02120125B8DE02120131
:100E530025C3DE02120125D8DE02120125ECDE02D3
:100E63001201254DDF0212012553DF02120125591C
:100E7300DF021201255FDF0212012577DF02120173
:100E830025AADF0212012541CE01120125C5CE019B
:100E930012012574CF01120125D3D001120125F4CB
:100EA300D201120125E0D30112012515D40112014B
:100EB3002537D401120125E6D401120125DED6011E
:100EC30012012507D70112012599D701120125CB5C
:100ED300D701120125D8D7011201252FD8011201FC
:100EE3002555D801120125C2DA01120125C5DB01FE
:100EF3001201251DDC01120125D0BF01120125DAE3
:100F0300C001120125C1C101120125CBC10112018A
:100F130025EDC101120125F9C10112012592C30179
:100F2300120125C1C301120125DDC40112012536B9
:100F3300C5011201259CC6011201257BC7011201BF
:100F430025D7C70112012544C8011201257FC80115
:100F5300120125BEC80112012577CB01120125918B
:100F6300CB011201251DCC011201252BCC0112014D
:100F73002584CC0112012592CC0112012505CD0156
:100F830012012569CD01120125B3CD01120125D32B
:100F93008C02120125F58C021201251B8F0212010E
:100FA30025309202120125489302120125FB930278
:100FB300120125DD940212012553930312012578B2
:100FC3009303120125EA930312012529C602120194
:100FD3002532C6021201253BC60212012512C702A1
:100FE300120125C3C802120125F9C80212012533D3
:100FF300C90212012569C902120125A3C9021201FE
:1010030025D7C90212012503CA021201254CCA02BF
:1010130012012586CA02120125CFCA021201252711
:10102300CB021201255CCB02120125B7CB021201C0
:1010330025F1CB0212012542CC0212012578CC0204
:10104300120125B2CC02120125E0CC0212012503C4
:10105300CD021201252C9F03120125589F03120173
:1010630025B39F03120125BD9F03120125CD9F03C5
:10107300120125A1F701120125ABF701120125E9A0
:10108300F70112012532F8011201256CF801120152
:1010930025C6F801120125E7F801120125BFFB015E
:1010A300120125C8FB0112012515FC011201253E81
:1010B300FC0112012548FC01120125B4FC011201B7
:1010C3002546FD0112012590FD01120125C6FD01F2
:1010D30012012552FE0112012593FE01120125CAB8
:1010E300FE01120125DCFE01120125FBFE011201A6
:1010F3002504FF01120125CCFF01120125AC9C033D
:10110300120125D8FD021201250EFE02120125440B
:10111300FE021201258FFF02120125F3A003120123
:101123002509A10312012513A1031201255DA103C2
:10113300120125ABF202120125C0F202120125733E
:10114300F302120125B3F302120125CCF3021201BB
:101153002507F40212012554F40212012586F40234
:10116300120125C8F4021201259A9603120125C320
:101173009603120125F296031201258A97031201A1
:1011830025A29703120125E49703120125888C03F6
:10119300120125AD8C03120125D78C03120125BC46
:1011A300A1031201251940001201257E42001201FC
:1011B300251F4400120125D3440012012566450072
:1011C300120125EB45001201251046001201256688
:1011D3004900120125EC49001201251F4B001201A1
:1011E30025594B001201258E4B001201254E4D004F
:1011F300120125AB4D00120125F44D001201255FAC
:101203004E00120125D04E00120125024F0012019B
:10121300251A4F0012012563500012012573500057
:101223001201258E5100120125B05100120125E64D
:1012330051001201259A530012012527540012016F
:10124300256654001201258A550012012533A30394
:1012530012012565A203120125A4A2031201252070
:10126300A303120125D79F03120125E79F03120150
:1012730025FF9F0312012565A003120125A89B03E7
:101283001201252D9C03120125939C031201259D18
:101293009A03120125C49A031201251A9B03120112
:1012A300256A9B0312012500800312012515800383
:1012B300120125598103120125D581031201254904
:1012C30082031201256382031201257A820312012C
:1012D300258D8203120125A78203120125BE8203F5
:1012E300120125E4820312012535830312012544EB
:1012F300A3031201256CFA02120125FCFA02120162
:101303002588FB0212012521FC02120125B2FC02F1
:10131300120125BBFC0212012539FD021201254CE5
:10132300FD0212012562FD02120125C2FD02120116
:1013330025D5FD021201257A9E03120125EA9E039B
:10134300120125F59E03120125059F0312012510A5
:101353009F03120125F894031201254A95031201F4
:1013630025D495031201253B9603120125548F03BF
:101373001201257E8F031201254C900312012527AC
:101383009103120125E7BD02120125AEBE0212012F
:1013930025E5BE021201250FBF021201256FBF0210
:1013A300120125C5BF021201252AC002120125C25E
:1013B300C002120125D1C10212012568C302120124
:1013C30025F5C3021201255CC40212012573C40270
:1013D3001201258DC502120125CBC5021201256B11
:1013E300DC01120125ECDF0112012574E101120178
:1013F30025CBE101120125EAE10112012568E20191
:10140300120125FEE301120125E3E401120125F196
:10141300E801120125C7E901120125C6D402120110
:1014230025A2D702120125AFD802120125D3D90272
:1014330012012590DA0212012511DB02120125E4C3
:10144300E40212012534E50212012551E5021201DD
:101453002579E602120125F2E602120125CAE70206
:101463001201255CE902120125AEA203120125C96E
:10147300FF02120125DAA20312012502A303E0668B
:10148300701008A3E066700A08A3E066700408A35E
:10149300E06622C3E7960809E7960809E796080974
:1014A300E79622C3E09608A3E09608A3E09608A374
:1014B300E09622C008C3E096F50808A3E096420828
:1014C30008A3E096420808A3E09645087001D3D02C
:1014D3000822080808EAC0E0EBC0E086F0E7A4FAB7
:1014E300180986F0E7A42AFA180986F0E7A42AFA6D
:1014F300180986F0E7A42AFA1986F0E7A4FBE5F0B9
:101503002AFA190886F0E7A42BFBE5F03AFA190842
:1015130086F0E7A42BFBE5F03AFA18180986F0E702
:10152300A4C5F02BFBE43AFA1908E7C5F0C6A426D4
:10153300F6E5F03BFBE43AFA1886F0E7A4F6E5F0AB
:101543000826F6E43B08F6E43A08F6D0E0FBD0E0E0
:10155300FA22E4CFC0E0E4CEC0E0E4CDC0E0E4CCC6
:10156300C0E075F020C3E633F608E633F608E63349
:10157300F608E633F6181818EC33FCED33FDEE33BA
:10158300FEEF33FFC3EC9709ED9709EE9709EF9749
:10159300191919400FFFEC97FC09ED97FD09EE9718
:1015A300FE191906D5F0BEECF709EDF709EEF709B8
:1015B300EFF7191919D0E0FCD0E0FDD0E0FED0E040
:1015C300FF226016080808C6C313C618C613C61838
:1015D300C613C618C613C6D5E0EA22700908080860
:1015E300226016181818C6C333C608C633C608C601
:1015F30033C608C633C6D5E0EA22E627F60809E66D
:1016030037F60809E637F60809E637F622E026F644
:1016130008A3E036F608A3E036F608A3E036F62280
:10162300E026F008A3E036F008A3E036F008A3E0D4
:1016330036F022C3E697F60809E697F60809E69717
:10164300F60809E697F622C3E096F008A3E096F0C1
:1016530008A3E096F008A3E096F022E056F608A36C
:10166300E056F608A3E056F608A3E056F622E05645
:10167300F008A3E056F008A3E056F008A3E056F004
:1016830022E0F608A3E0F608A3E0F608A3E0F622BA
:10169300E6F008A3E6F008A3E6F008A3E6F022E0EC
:1016A300FAA3E0FBA3E0FCA3E0FD22EAF0A3EBF046
:1016B300A3ECF0A3EDF022CAC0E0E6F0A308DAFA47
:1016C300D0E0FA22CAC0E0E0A3C582CCC582C583BC
:1016D300CDC583F0A3C582CCC582C583CDC583DACE
:1016E300E6D0E0CA22C3E498F8E499F912172980F6
:1016F30026C3E49AFAE49BFBE920E7E9121729E4FD
:1017030098F8E499F922C3E498F8E499F9121729AF
:10171300E498F8E499F9C3E49AFAE49BFB22EB20FA
:10172300E7CFE920E7E0B90010BB0008E88AF084BE
:10173300F8AAF022E4FBC8FA22EB70227B10C8332C
:10174300C8C933C9335007C39AC3DBF280069A5022
:10175300012ADBEAC833F4C8C933F4C9FA2275F0A5
:1017630008E4C833C8C933C933C99AC99B5004C9EB
:101773002AC93BD5F0ECFBC833F4C8E4C9FA2260AC
:101783000D08C6A2E713C618C613C6D5E0F3226038
:101793000C08C6C313C618C613C6D5E0F4227004DA
:1017A30022600D18C6C333C608C633C6D5E0F41885
:1017B30022251810AF08F518400215198008F518EE
:1017C30040021519D2AF22C0D0251810AF08F51862
:1017D300500205198008F51850020519D2AFD0D070
:1017E300222518F58210AF08F51840021519800854
:1017F300F51840021519D2AF851983222518F582F1
:10180300E43519F58322E4732518C582C0E0E51990
:1018130034FFC583C0E0E518C3958224F810AF08F0
:101823008583198582188008858319858218D2AF2C
:10183300CEF0A3E520F0A37808E608F0A3DEFAEFE4
:10184300F0A3E58124FAF8E608F0A3E608F0A3E69E
:1018530008F0A30808E608F0A3E608F0A31581152D
:1018630081D0E0FED0E0F8158115811581E8C0E054
:10187300EEC0E0222518C582C0E0E51934FFC58318
:10188300C0E0E518C3958224F910AF088583198554
:1018930082188008858319858218D2AFCEF0A3E51C
:1018A30020F0A37808E608F0A3DEFAEFF0A3E581C1
:1018B30024FBF8E608F0A3E608F0A30808E608F01E
:1018C300A3E608F0A315811581D0E0FED0E0F8155A
:1018D300811581E8C0E0EEC0E02285198385188276
:1018E300E0A3FEE0A3F5207808E0A3F608DFFAE022
:1018F300A3FFE0A3C0E0E0A3C0E0E0A3C0E0E0A357
:10190300C0E0E0A3C0E010AF08858218858319808A
:1019130008858218858319D2AFD083D08202012231
:10192300851983851882E0A3FEE0A3F5207808E0FB
:10193300A3F608DFFAE0A3FFE0A3C0E0E0A3C0E062
:10194300E0A3C0E0E0A3C0E010AF08858218858360
:10195300198008858218858319D2AFD083D082225B
:10196300C0D02518C582C0E0E51934FFC583C0E0A7
:10197300E518C3958224F310AF088583198582186F
:101983008008858319858218D2AFC8F0A3E9F0A334
:10199300EAF0A3EBF0A37908E709F0A3D8FAECF097
:1019A300A3EDF0A3EEF0A3EFF0A3D0E0F0A3D0E01B
:1019B300F0A3D0E0F0A3E520F0A3E5F0F0A32285A7
:1019C3001983851882E0C0E0A3E0F9A3E0FAA3E05D
:1019D300FBA37808E0F608A3DFFAE0FCA3E0FDA38D
:1019E300E0FEA3E0FFA3E0C0E0A3E0C0E0A3E0F5D6
:1019F300D0A3E0F520A3E0A3F5F010AF0885831989
:101A03008582188008858319858218D2AFD082D049
:101A130083D0E0F8D0E0327404800674028002744C
:101A230001C0E0F4041217E4D0E01216BA227404E1
:101A3300800474028000CCC0E0EDC0E0E518C39CD4
:101A4300CCAD1950011D10AF068C188D1980068C72
:101A5300188D19D2AF1216C7D0E0FDD0E0FC22D00A
:101A630083D082E9C0E0E493A3C386F0C5F095F088
:101A7300F908E493A386F0C5F095F0700BE493A303
:101A8300C3994005E9048002A3E475F002A425820A
:101A9300F582E5F03583F583D0E0F9E493A3C0E064
:101AA300E493C0E022D083D082ECC0E0EDC0E0E458
:101AB30093A3FCE493A3FDED4C600D121AF4EC2404
:101AC300FFFCED34FFFD80EFE493A3FCE493A3FD5F
:101AD300ED4C600D121B33EC24FFFCED34FFFD8055
:101AE300EFD0E0FDD0E0FCE493A3C0E0E493C0E0DA
:101AF30022C0E0C3E49396087401939618400FE460
:101B03009366700808740193661870007019A3A394
:101B1300C3E49396087401939618A3A3400DD0E0F1
:101B2300D0E0D0E0021AE4A3A3A3A3A3A3D0E022AE
:101B3300C0E0C0F088F0E49366700808740193660F
:101B4300187000A8F0A3A3700BD0F0D0E0D0E0D0C1
:0B1B5300E0021AE4A3A3D0F0D0E022CF
:101B600074F5121877EAFEEBFFEE2434F8EF340038
:101B7000F988088909EE2435121C8CF8EE243712F6
:101B80001C8CF50AEC850AF0A4FCAAF0850AF0ED9D
:101B9000A42AFDE82CF8E43DF97A257B00121729E8
:101BA000EA850882850983F074075AF87401B80041
:101BB000028004C333D8FCFBEA131313541FF8EE5E
:101BC00028F8EF3400F9E8245DF582E9121C8F5BF8
:101BD0006003EA801CEE2436121C8CF5F0EA84A81F
:101BE000F0EE28F8EF3400F9E82438F582E9121C09
:101BF0008FF97F0402192374F5121877EAFEEBFFC0
:101C0000EE2434121C8CC0E0EE2435F582EF340053
:101C1000F583D0E0F08E828F83A3A3A3A3A3E0FA81
:101C2000A3E0FB8E828F83A3A3A3A3A3A3A3E0FCC3
:101C3000A3E0FDECC39AF50AED9BF50BEE247FF5CE
:101C400008EF3400F509850882F583E06401702B04
:101C5000EE2480F582EF3400F583121A35121C95BC
:101C600074021217CAE960137CDC7D04EEFAEFFB04
:101C7000120BED850882850983E4F0AC0AAD0BEE0A
:101C8000FAEFFB121B601224BB021BF2F582EF3449
:101C900000F583E022C082C083851882851983E025
:101CA000F8A3E0F9C3EA9CEB9D5010C3EC98ED99C2
:101CB000401BC3EA98EB995014800EC3EA98EB9945
:101CC0004007C3EC98ED994004790180027900D077
:101CD00083D08222EAC39CFAEB9DFB2274ED12189A
:101CE000779003A2E064086005E06407702C9061BF
:101CF000C8E060269003D0E0F874FF68601CE875C7
:101D0000F003A4C8AAF02AF974D228FE740339FF9C
:101D10008E828F83A3A3A3E070057900021E7CEE60
:101D20002468F510EF3400F511906060E0851082B2
:101D3000851183F0750A45750B0575080075090056
:101D4000E5D914F50EE5D95403F50F601CEE248295
:101D5000F50CEF3400F50D7403650F6058E50E6067
:101D600013EE2467121C8C700B793DEEFAEFFB1218
:101D70000C1180A6900540E064016026850C8285E8
:101D80000D83E06004780480027800850E08E50881
:101D9000C398FA95E0FB120A918A088B09EA450973
:101DA0007006120E69021D1A850C82850D83E07083
:101DB000048A0A8B0B78008016E5D9C0E08812E50A
:101DC0000A2512F582E50B3400F583D0E0F008E82F
:101DD000C3950E40E4850C82850D83E0602874FC79
:101DE000250EF50E780A121A1EAC0EA90FEEFAEFA8
:101DF000FB120CBF74021217CAE9700AAA08AB09D9
:101E000012135B021D697403650F6058850E0C7513
:101E10000D00780C121A1EAC0AAD0BAA08AB091201
:101E20000C8374021217CA851082851183E0F8743E
:101E300080687005750C7F8002880CE50CF50A78C7
:101E40000A121A22E50FF50A780A121A22A90EAC14
:101E500008AD099003D0E0FA7B0012092974021240
:101E600017CA80139003A2E06408600BAC0AAD0BA4
:101E7000EEFAEFFB120D55120E7579017F0C021967
:101E80002374F312187774FC1217B4EAFEEBFF897F
:101E900008A2AFE433F509C2AFEE2463F50AEF34CC
:101EA00000F50B8010AA0AAB0B120C3B12135B90CF
:101EB00004E3E004F0850A82850B83E0F8A3E0F9EF
:101EC000E849602FE82402FAE93400FBEA2402F52D
:101ED0000CEB3400F50D780C121A1E8A828B83E00D
:101EE000FCA3E0F9EEFAEFFB120C2F74021217CAF2
:101EF000E960B29004E3E060579004E4E0F89004F5
:101F0000E3E0C398500C7402650870449004E5E067
:101F1000603E8E828F83A3A3A3A3E08518828519D8
:101F200083121F6074021217FFE8121F609004E210
:101F3000E028F074021217FFAC82AD838518828509
:101F40001983AA82AB8379011209359004E3E4F086
:101F5000E509A2E092AF74041217CA7F06021923A2
:101F6000F0A3E4F09004E3E0F822000085218785E7
:101F700022C622C0E074EF121963A2AFE433FEC29E
:101F8000AF759B00906182E0A2E05012E591A2E063
:101F9000500C7591FE740165217003121CDCE0A2E7
:101FA000E55051E591A2E5504B7591DF9003A2E019
:101FB00064076005E0640870237401652170357959
:101FC000019003D0E0FA75F003A4CAA8F028FB74CE
:101FD000D22AFA74033BFB121E818018E0640D7054
:101FE000139003C4E004F064287002E4F07A00E087
:101FF000F9120E7B906182E0A2E6400302209AE58E
:1020000091A2E6400302209A7591BF9003A2E0647A
:10201000057008120D97120DA38003120D9D7521F6
:1020200000120E09E99003A3F07900120DFD120BC6
:10203000577A017B009003A1E0F91210D390780346
:10204000E064427055900544E014F0704DC2AF1248
:10205000205200782AD0E0F618D0E0F6E59F540729
:1020600070057509FF800375097FC4C0E07829E613
:10207000F50808E65509F509740B7808121792D08F
:10208000E02508F8906270E0A2E740F8E8C33390DA
:102090006272F0906270E0D2E0F0906181E0A2E3C1
:1020A0005009E5E9A2E3500375E9F7A3E0A2E75080
:1020B00009E591A2E7500375917FEEA2E092AF7F10
:1020C000040219C2C0E0C0D0C082C083906183E026
:1020D000A2E05009E5BFA2E0500375BFFEE0A2E117
:1020E0005009E5BFA2E1500375BFFDE0A2E250092F
:1020F000E5BFA2E2500375BFFBE0A2E35009E5BFD4
:10210000A2E3500375BFF7E0A2E45009E5BFA2E4E3
:10211000500375BFEFE0A2E55009E5BFA2E550030B
:1021200075BFDFE0A2E65009E5BFA2E6500375BF28
:10213000BFD083D082D0D0D0E032C0E074F2121988
:1021400063E5A7A2E4500FE5A1A2E4500953A7EF6D
:1021500075A1EF12218EE5A7A2E5500CE5A1A2E53D
:10216000500653A7DF75A1DFE5A7A2E15009E5A15D
:10217000A2E1500375A1FDE5A7A2E2500CE5A1A2E2
:10218000E2500653A7FB75A1FB7F010219C274F848
:102190001218777521019003A2E0640670077A0097
:1021A0007B00120D7FA2AFE433FED2AF9003A8E014
:1021B000640170187A207B009003A1E0F912115796
:1021C0007A207B009003A1E0F91210D9906182E09F
:1021D000D2E6F0900541E0602185C622801690038A
:1021E000A7E064017008E5C654F84405F5C653BE7F
:1021F000FC121F6C7401652160E4EEA2E092AF7FD7
:10220000010219238E238F24858228858327851830
:1022100082851983E0CEA3E0CF852882852783EBD2
:10222000C9EAC8EDCBECCA75F010C3E833C8E9338E
:10223000C9EA33CAEB33CBC3EA9EF526EB9FF525FB
:10224000B35004AB25AA26EC33CCED33CDD5F0DA70
:10225000AE23AF242274F11218778A088B098C0AF6
:102260008D0B909030780812165E740F1217FF785D
:102270000C121684909030780C12165E7808790C47
:1022800012149690904450107808790C12163678F3
:10229000081214B64014800E780C7908121636789D
:1022A0000C1214B650047901800279007F080219DB
:1022B0002374ED1218778A088B098C0A8D0B909085
:1022C00030780812165E74131217FF780C121684F9
:1022D000909030780C12165E780C790812149640A3
:1022E000117808790C121636AA08AB09AC0AAD0BA6
:1022F0008022751000751100751200751301781099
:10230000790C121636781079081215FDAA10AB1147
:10231000AC12AD137F0C021923909030780812167E
:10232000848A828B8378081216717F0402192374C1
:10233000F51218778C828D8378081216848A828B26
:1023400083780812164A122383C3E098F0A3E09919
:10235000122375401E90908478081216848A828B0E
:102360008378081216238E828F83E02420F0A3E066
:10237000344EF080A4F08E828F83C3E09420A3E0DB
:10238000944E22EA2404F8EB3400F9E8FEE9FF8CCD
:10239000828D83A3A3A3A3E0F8A3E0F98E828F83A9
:1023A0002274F5121877E9FE9004F7E0FAA3E0FB37
:1023B000EEC333F8E433F9740028F582748F39F5ED
:1023C00083E02AF508A3E03BF5097808121A1E906D
:1023D000907C1216A212220474021217CA8A088B69
:1023E000098C0A8D0B741078081215C5AA08AB0960
:1023F0007F0402192374F11218778A0C8B0D8C0E4E
:102400008D0F740F1217FFE0FAA3E0FB741112177F
:10241000FFE0F508A3E0F5097808121A1EEA240186
:10242000F508EB3400F509E4F50AF50B780C7908AA
:102430001214D590903C7808121684780C79081202
:1024400014D5AA0CAB0DAC0EAD0F122204740212FF
:1024500017CA8B09EA450960047A0180027A00EC08
:102460002AFCED3400FD74131217FFE0F8A3E0F925
:10247000E8FEE9FFECF8EDF97A717B021217298882
:10248000088909E4F50AF50B8E828F837808121605
:1024900093ECF8EDF97A717B021217298A088B09FF
:1024A000740578081217A18E828F83A3A3A3A3E5D6
:1024B00008F0A3E509F07F08021923C082C083E970
:1024C000906000F0D083D08222C2AF02000022C010
:1024D000E074F2121963A2AFE433FED2AFC2C0E5DA
:1024E000D1A2E4500653D1EF121331EEA2E092AF25
:1024F0007F010219C2C0E074F2121963A2AFE43383
:10250000FED2AFE589A2E04006E589A2E1500312C0
:1025100012A1758900758900C2C5EEA2E092AF7F55
:10252000010219C2C0E0C0D0E8C0E0E9C0E0E5A8FF
:10253000D2AFC2C7A2E7A2E792AFD0E0F9D0E0F8ED
:10254000D0D0D0E032C0E0C0D0E8C0E0E9C0E0C008
:1025500008C009C082C083A2AFE433F9D2AF9009AA
:10256000D3E0F8A3E0687008539AFBA374018026B7
:10257000C2E99009D3E0F50874012508F0745325E9
:1025800008F58274093400F583E0F5C19009D3E0C1
:10259000C394804002E4F0E9A2E092AFD083D082FD
:0F25A000D009D008D0E0F9D0E0F8D0D0D0E032A8
:1025B000FFFFFFFFFFFFFFFFC082C083E9900B9189
:1025C000F002284774F712180BE99002E1F07C1929
:1025D0007D037AFF7BFF12087B9002E274FFF0A379
:1025E000F0A3E4F0A3F079051208039002E1E0F90A
:1025F0001207257A997B08120A437F010218DD74BD
:10260000F412180B8A088B09EB548060309002E1B9
:10261000E0F91210BB8A0A8B0BAE0AAF0BEE4F60CB
:10262000138E828F83E064B0700312081BEEFAEF02
:10263000FB1210A9AA08E5096480FB80047A007BDC
:102640000002281674F212180B74FC1217B4EAFE7A
:10265000EBFFEE4F603874021217FFEEF0A3EF129B
:102660002A7BECF0A3ED122A7BAA82AB8312071F10
:10267000E9F508707374121217FF12362FE50A4538
:102680000B60658E828F831226F2EE4F70057508FF
:102690000280557A067B0012110F8A0C8B0DA80C54
:1026A000A90DE8497005750813803D88828983E487
:1026B0001226FCA3A3EEF0A3EF123AC8E50AF0A39A
:1026C000E50BF09002E71227849002E76017E0FC28
:1026D000A3E08003EAFCEBFD8C828D8312278470DB
:1026E000F38C828D83123554A90874041217CA0220
:1026F0003CCAA3A3A3A3E0FEA3E0FF22F0A3F088BB
:102700008289832274F212180B890AE975F017A4E2
:10271000FEAFF09002E6E4F09002E4122784600A33
:102720001211159002E4E4F0A3F0EEFAEFFB12119F
:102730000F8A088B09EA4509602FEEFCEFFD79004E
:102740001210919002E4E508F0A3E509F07B008007
:102750000812276EE4F0A3F00BEBC3950A40F2E5F4
:102760000A9002E6F0790080027913023CCAEB7508
:10277000F017A4F8A9F09002E4E028FAA3E0398A5F
:1027800082F583221232EAEA4B2274F412180B7596
:102790000800750900740C1217FF123A9CFEE9FF3D
:1027A000800CE5082401F508E5093400F509C3E5C6
:1027B000089CE5099D503285080A85090B74037849
:1027C0000A1217A1EA250AF8EB350BF988828983EA
:1027D000A3A3A3A3A3A312362FEE650A7003EF658C
:1027E0000B70BFE8FAE9FB80047A007B0080277455
:1027F000F412180B7900EAA2E0501B750802750963
:10280000907808121A1E7C047D007A937B0B1207C5
:10281000FD74021217CA7F040218DDC082C08390C3
:1028200002E712284E601C88828983A3A3E06A70A5
:1028300003A3E06B8882898370E8A3A3A3A3123269
:10284000E680047A007B00D083D082020122123D10
:102850009DE8492274EE12180B74FC1217B4EAFEBC
:10286000EBFF851882851983E4F0A3F0EE240212B1
:102870003538EE2405122A69EE2404F50EEF122EE7
:102880004EE024FE603924FC604624FE605224FEA3
:10289000605E24FE700302296E24FE70030229E6A6
:1028A00024FE70030229F524FE7003022A0424FC8E
:1028B0007003022A1324FE7003022A22022A5F9068
:1028C00003007417F0A3E4122A8312049D022A5F06
:1028D000851882851983AC82AD83120821022A2FC4
:1028E000851882851983AC82AD83120827022A2FAE
:1028F000850C08850D0974021217FFAC82AD838523
:1029000008828509831232E61207438A0C8B0DACCC
:102910000CAD0DEC4D6042E4F50CF50D780C121A7F
:102920001E750C00750D03780C121A1E750C0175BE
:102930000D03780C121A1E74081217FF121A35793B
:10294000161232E012086374081217CAE9F50C7007
:102950000B1232DC1204B5800F750C0185088285DC
:102960000983122A71123554850C08022A32740226
:102970001217FFAC82AD83850C82850D831232E67F
:102980001207438A108B11AC10AD11EC4D604385DA
:102990000C82850D83A3A3121A35751000751103DF
:1029A0007810121A1E7510017511037810121A1E74
:1029B00074081217FF121A3579161232E0120863E2
:1029C00074081217CAE9F509700B1232DC1204BB45
:1029D000800F750901850C82850D83122A711235CD
:1029E00054850908804C851882851983AC82AD8393
:1029F00012082D803A851882851983AC82AD831226
:102A00000833802B851882851983AC82AD83120828
:102A100039801C851882851983AC82AD8312083FEA
:102A2000800D851882851983AC82AD83120845E933
:102A3000F508E50860298E828F83A3E06414601F87
:102A4000850E82850F83E0900300122A7B123D9948
:102A5000900301123554E508A3122A83120497EE5D
:102A6000FAEFFB1207C1023440F50CEF3400F50D0C
:102A700022123D9D85188285198322F08518828552
:102A8000198322F07C007D03850A82850B83123234
:102A9000EA2274EE12180B74FC1217B48A0A8B0B1C
:102AA0008C0E8D0FEA2405F508EB3400F5097C1532
:102AB0007D0079007A007B03121091E5082402F56D
:102AC0000CE509122A6C8518828519838582108588
:102AD00083117810121A1E850882850983A3A3A387
:102AE000A3122F96121A1EE5082405F510E50934E5
:102AF00000F5117810121A1E850C82850D83123292
:102B0000F012073D74061217CA8A108B11AE10AF6F
:102B100011E50A2402F50AE50B12353BEE4F70036E
:102B2000022C58801774021217FF1232E68882892D
:102B300083EAF0A3EBF0900300E004F0900300E0E0
:102B4000C394054003022C58E4F510F511781012D7
:102B50001A1E7510E97511027810121A1E7510EA06
:102B60007511027810121A1E74061217FF121A3508
:102B70007910EEFCEFFD1232E012086374081217B0
:102B8000CAE9705E850882850983A3A3A3A3A3A3D2
:102B9000A3E0F89002E9E0687048122F96121A1E1E
:102BA0007CEA7D02E5082408FAE5093400FB1210EE
:102BB0008B74021217CAE960298E828F83A3A3A3A4
:102BC000A31232E6900300E0F51074027810121799
:102BD000A174012510F58274033511F583EAF0A381
:102BE000EBF074021217FF858210858311781012A2
:102BF0001A1E74021217FF121A35850C82850D8376
:102C0000123DAE12074974041217CA8A108B11AE16
:102C100010AF11900300E0F51075110074027810E8
:102C20001217A174002510F874033511F9888289F0
:102C300083A31227847003022B1CE82403F8E934D1
:102C400000F9EE4F6003022B258882898374FFF020
:102C5000A3F0900300E004F0900300E0600A123259
:102C6000DC1204A97900800B85088285098312355E
:102C70004B790A02344074EA12180B74FE1217B42E
:102C80008C128D13EA2405F50CEB123F181226F670
:102C9000750800750900EA2402F510EB3400F511FF
:102CA00085188285198385820A85830B780A121A12
:102CB0001E850C82850D83A3A3A3A3122E58121A7E
:102CC0001EE50C2405F50AE50D12353B780A121AAB
:102CD0001E850C82850D83123DAC12073D740612D1
:102CE00017CA8A0A8B0BEA450B7003022E09EA24E5
:102CF00004F50EEB122E4E1226F68A828B83A3A3C6
:102D0000A3E0F98510828511831232E612072BE9C0
:102D1000F5096003022E09E4F514F5157814121A6A
:102D20001E7514E97515027814121A1E7514EA75C9
:102D300015027814121A1E74061217FF121A35792A
:102D400013AC0AAD0B8510828511831232E612088E
:102D50006374081217CAE9F5096003022E0990028C
:102D6000E9E0F8E5087009E02402900301F080171B
:102D7000900301E0FCE82402FAE43400FBEA6C7002
:102D800001EB6003022E0D850882AA82122F8D941A
:102D900014122F855073850E82850F83E0C0E07476
:102DA000022A122E45D0E0F00508850E82850F8399
:102DB000A3E0C0E085080A7402250A122E45D0E07F
:102DC000F005089002E9122E58121A1E7CEA7D02C4
:102DD00085080A7402250AFA74033400FB1210797C
:102DE00074021217CA9002E9E02508F50874FF6E14
:102DF000700374FF6F6012EE24010EEF3400FFE5E4
:102E000008C394145003022CA0E50860131231D1BA
:102E10008510828511831232E61204AF7900801486
:102E2000E509700375090A851282851383EEF0A304
:102E3000EFF0A90974021217CA7F0E0218DD850887
:102E40000C7402250CF58274033400F583223400DF
:102E5000F50F850E82F58322123ADB2274EE1218EA
:102E60000B74FE1217B48C0E8D0FEA2405F50CEBD3
:102E7000122A6C750B00900300E4F0F50AEA2402B4
:102E8000F508EB3400F5098049900300E0FA900260
:102E9000E9E0F8122F8D9417122F85400D90030052
:102EA000E0F87416C3989002E9F0122F96121A1ED9
:102EB0007CEA7D0274012AFA74033400FB12107953
:102EC00074021217CA9002E9E0F8900300E028F0BB
:102ED000050AE50C2416F582E50D122E49E0F8E509
:102EE0000AC3984003022F6E900300E0C39416506B
:102EF0007DE50AC333F8E433F9E50C28FEE50D3926
:102F0000FF851882851983AC82AD838E828F8312F0
:102F100032E61207438A108B11AC10AD11EC4D70E4
:102F200005750B018043E4F510F5117810121A1E97
:102F30007510E97511027810121A1E7510EA7511D4
:102F4000027810121A1E74061217FF121A3579161B
:102F50008508828509831232E61208637408121705
:102F6000CAE9F50B7003022E8912354780107C00E8
:102F70007D038508828509831232E61204C1A90BFC
:102F80007402023442E99400C365D03322EA28F87F
:102F9000E43400F9E822E0F510751100781022748D
:102FA000EA12180B74FC1217B48A0C8B0D8C128D5C
:102FB00013EA2405F50AEB12353B75080075090084
:102FC000E50A2402F510E50B3400F511740212171E
:102FD000FF85820E85830F780E121A1E850A828560
:102FE0000B83A3A3A3A3123A87121A1EE50A240592
:102FF000F50EE50B3400F50F780E121A1E851082BF
:103000008511831235411232E012073D7406121702
:10301000CA8A0E8B0FAE0EAF0FE50C2402F50EE53B
:103020000D3400F50F80408882898374FFF0050815
:10303000122E3E74FFF005089002E9E0F50C750DC4
:1030400000780C121A1E7CEA7D0285080C74022599
:103050000CFA74033400FB12107974021217CA9030
:1030600002E9E02508F508EE4F60718E828F83A398
:10307000A3A3E0F9850E82850F831232E612072B97
:10308000E9F509EE2404122A69E97044E4F514F51F
:10309000157814121A1E7514E97515027814121A8F
:1030A0001E7514EA7515027814121A1E7408121788
:1030B000FF121A357911EEFCEFFD850E82850F8324
:1030C0001232E612086374081217CAE9F50960277C
:1030D000850C82850D831231C7123554E5087003C3
:1030E0000231AD1231D1850E82850F831232E61284
:1030F00004C779000231C2850882AA82EA9002E9F7
:103100007009E02404900301F08022E0F8900301AC
:10311000E0F514E82404FCE43400FDEC65147001CF
:10312000ED70C0122F8D9412122F8550B6850C822F
:10313000850D83E0C0E074022A122E45D0E0F00530
:1031400008850C82850D83A3E0C0E0122E3ED0E0FE
:103150001231E385820C85830D780C121A1E7404DB
:103160001217FF121A35851082851183123DAE1297
:10317000074974041217CA8A0C8B0DAE0CAF0D856B
:10318000080C7402250CF874033400F9EE4F700338
:10319000023027851882851983E08882898312315D
:1031A000E3A3E0C0E0122E3ED0E0023035E5097026
:1031B0000375090A850A82850B831231C7123554BB
:1031C000A9097404022E36123D9D8512828513834F
:1031D00022900301E0F5F0E50884900300F07C0004
:1031E0007D0322F005088518828519832274EC126C
:1031F000180B74FE1217B48A088B098C0E8D0FEA17
:103200002405FEEB3400FF851882851983AC82AD5E
:10321000838E828F831232E61207438A0A8B0BEE6B
:103220002418122A69EA450B70030232B7123429B6
:1032300050328518828519831232E61208578A1097
:103240008B11EA4511606B7912AC0AAD0B850882CF
:103250008509831232E6851082851183121809E9E7
:10326000F50A7058E4F50AF50B780A121A1E8E82D8
:103270008F83A3A3E0F50A780A121A1EEE24031224
:103280003538780A121A1E8E828F831232F0120895
:103290006974061217CAE9F50A7021850C82850D3A
:1032A00083E0701F8508828509831232E61204CDFF
:1032B0008011750A0E8009750A018004E50A600311
:1032C000123547850C82850D83E060047900800209
:1032D000A90A74021217CA7F0C0218DD7C007D0354
:1032E000850A82850B831232EA22E0FAA3E0FB22F0
:1032F000E0FCA3E0FD8508828509831232EA22748E
:10330000EE12180B74FE1217B48A088B098C0C8D00
:103310000DEA2405FEEB3400FF750E00851882854A
:103320001983AC82AD838E828F831232E6120743FB
:103330008A0A8B0BEA450B700302341512342950AC
:10334000358518828519831232E61208578A0E8B4A
:103350000FEA450F605E7912AC0AAD0B85088285D5
:1033600009831232E6850E82850F83121809E9F56A
:103370000E600302341885088285098312362FAA4D
:103380000AFB12084B8A108B11A810A911E849708A
:103390001E7AFF7BFF12084B8A108B11A810A9110F
:1033A000E849606C88828983E50AF0A3E50BF07533
:1033B0000A008007750E0E805F050A9002E6E0FAAB
:1033C000E50AC39A504AE50A75F017A4FAABF088EB
:1033D000828983A3A3E02AFAA3E03BFB8A828B8342
:1033E000123541EC4D70D2750A17750B00780A1230
:1033F0001A1EEEFCEFFD12107974021217CAEEFCD1
:10340000EFFD8508828509831232E61204D3801409
:10341000750E098003750E01123D95850C82850D90
:1034200083123554A90E022F80E5082402F508E521
:10343000093400F5098A828B83A3A3A3E0A2E522C5
:1034400074041217CA7F0A0218DD74EC12180B8C70
:10345000108D11EA2405F50CEB122A6C750F00EAA9
:103460002402F50AEB12353B850A82F5831232E617
:1034700012084B8A088B09EA4509700302352D753D
:103480000E008071850C82850D83E06401704F8E83
:10349000828F83A3A3121A358E828F83A3A3A3A343
:1034A000E0F5127513007812121A1EEE2405F512BB
:1034B000EF3400F5137812121A1E1232E012086966
:1034C00074061217CAE9F50F6014850C82850D8306
:1034D000E4F0123D958510828511831235547C17D6
:1034E0007D007900EEFAEFFB1210918E828F83E45B
:1034F000F0A3F0050E9002E6E0F8E50EC398501E2A
:10350000E50E75F017A4F8A9F0850882850983A354
:10351000A3123F22123541EC4D600302348485082A
:103520008285098374FFF0A3F0E50F70061232E084
:103530001204D9A90F0232D7F50AEF3400F50B2295
:10354000A3E0FCA3E0FD228E828F83123D9D850EB9
:1035500082850F83E8F0A3E9F022C082C083900245
:10356000E2E06A7003A3E06B70067AE27B028004FB
:103570007A007B00022847C082C08378008C828D4D
:1035800083E06A7003A3E06B7010E875F003A4F8A1
:10359000A9F0EC28FAED39FB8015088C828D83A305
:1035A000A3A3E06A7003A3E06B60DF7A007B0002F4
:1035B000284774F612180B1208158A828B83E5824D
:1035C000458370067A007B008007A3A3A3A3123271
:1035D000E6023C4674F212180BE9FE740E1217FF55
:1035E00012362F74101217FF123AA78C828D83E0C7
:1035F00064027036A3123DA3F50CA3E0F9A80C7485
:10360000026870037429697021750C02750D0078C9
:103610000C121A1E7808121A1E780A121A1EEEF9D7
:1036200012088D74061217CA80027901023CCAE0A2
:10363000F50AA3E0F50B2274E812180B74FB1217BD
:10364000B4E9851882851983F08A168B17ECFEED94
:10365000FF751000741D1217FF123D99741D12178B
:10366000FF1235548E828F83A3A3A3E0A2E4502DD2
:10367000741D1217FF1232E61208578A828B83E5F7
:103680008245837003023A78790AEEFCEFFDAA16B0
:10369000AB17121809E9F5106003023A7B741F1288
:1036A00017FF123AA774211217FF12362F74231234
:1036B00017FFE0F50EA3E0F50F8E828F83E0640222
:1036C0006003023A26A3123D99850882850983A3E7
:1036D000858212858313EE2406122A6988828983E3
:1036E000E0FAA3E0F9EA2400F514E439F5157814BA
:1036F000121AA80100002801281B3707000228E041
:103700003703284D3700291739012942390229E3A7
:1037100038032917390429C139263AE50E450F60C7
:1037200003023A21850C82850D83123A9CFAE9FB4B
:103730008A828B83E0850A82850B83123AD2121A21
:103740001E8A828B83A3E0FCA3E00239ABE50E4521
:103750000F6003023A21850A82850B837401F012FF
:103760003AAF850882850983F07C007D008E828FC8
:1037700083A3A3A3A3E02401FAA3E03400FB120770
:1037800043EA4B60418A828B83E02402F8850A82F7
:10379000850B83E028F0EA2404F8EB3400F98882F2
:1037A0008983E0851282851383123AE4123AD21299
:1037B0001A1E8A828B83123540E5082403FAE50934
:1037C0003400FB0239B0850A82850B83E02404F0C3
:1037D0007C047D007900AA12AB13121091023A7B8F
:1037E000E50E450F6003023A21123AAFFEA3E0FF57
:1037F000850A82850B837404F0EE8508828509832F
:10380000F0EF851282851383F074031217FFAC82E8
:10381000AD83EEFAEFFB1207438A0C8B0DEA450DE0
:1038200070030238C48A828B83A3A31226F2740128
:103830001217FF85820E85830F780E121A1E7405EB
:103840001217FF121A357CFF7DFF1207497404120C
:1038500017CA8B0FEA450F7033850C82850D8312D2
:103860003A87121A1E850C82850D83A3121A357CA5
:10387000027D007AAD7B9012057574041217CAE9B7
:10388000700A74011217FF74FFF0A3F08E828F8309
:10389000E064027039750C02750D00780C121A1E66
:1038A0008E828F83123540E5082404FAE50934003E
:1038B000FB12107974021217CA850A82850B83E005
:1038C0002402800974011217FFEEF0A3EFF07401D7
:1038D0001217FF123A98F074011217FFA3123A90D0
:1038E000023A1BE50E450F6003023A21850C8285E2
:1038F0000D83123541AA16AB17120881850A8285FD
:103900000B837402F0EA850882850983F0851282B0
:10391000851383EB023A1EE50E450F6003023A2140
:10392000123AAFF8A3E0F9850A82850B837402F09E
:10393000E8850882850983F0E98512828513830270
:103940003A1E850C82850D831232E6121073EAFC52
:103950008C82A882C3950EE4950F405FE8650E70D7
:1039600002E50F70047C008022851882851983E0AF
:10397000FAE50E2AFAE50F3400FBC3EA98EB94004F
:103980005003E08005E50ECCC39CFCEC850A8285E3
:103990000B83F08C0A750B00780A121A1E850C82B4
:1039A000850D83E0250EFCA3E0350FFDAA08AB09C9
:1039B00012107974021217CA023A7B751007023A84
:1039C0007BE50E450F705A850C82850D83123D995B
:1039D000850A82850B8374071226FE123A901226FE
:1039E000FEA3E0851282851383F0E82402FAE9340D
:1039F00000FB8A828B83123A90123ABF123A98A344
:103A0000123AC8123AA1F0E82405F8E93400F9881E
:103A1000828983123AA1A3123AE4A3A3A3A3F0805C
:103A20005A75100B8055741D1217FF1232E61208DA
:103A3000158A828B83E5824583603D123D99880C0F
:103A4000890DE8450D6031780E121A1E780A121A97
:103A50001E7808121A1E74061217FFE0F9EEFCEF2A
:103A6000FDAA16AB17850C82850D83121809740602
:103A70001217CAE9F510800375100EA9107405120B
:103A800017CA7F100218DDE0F50E750F00780E22C0
:103A9000E085088285098322123AEE22123D9DE8D4
:103AA00022123AEEA3A322E0F508A3E0F50922854D
:103AB0000C82850D83E0F8A3E0F5838882E022A3E1
:103AC000A3F08A828B83A322F088828983A3A3A395
:103AD000A322F08A828B83123ADB22E0F50A750B6F
:103AE00000780A22F088828983A3123AEE22E085C8
:103AF0000882850983A3A32274EE12180B74FE12A8
:103B000017B48A0A8B0BECFAEDFB74141217FFE062
:103B1000F510A3E0F51174161217FFE0FE741812E9
:103B200017FFE0F50EA3E0F50F851882851983AC29
:103B300082AD831207438A0C8B0DEA450D604985DF
:103B400018828519831232E61208158A828B83E562
:103B5000824583602FA3A3123AA7E5084509602494
:103B6000780E121A1E7810121A1EEEF9AC0CAD0D5A
:103B7000AA0AAB0B850882850983121809740412FE
:103B800017CA8006790E80027901022F8074F6121E
:103B9000180B74FE1217B4740C1217FF123A9C859E
:103BA0001882851983F074011217FFE9F0E4F50813
:103BB000F5097808121A1E7508027808121A1E7480
:103BC000041217FF8582088583097808121A1E12CD
:103BD000086974061217CA74021217CA806874F74B
:103BE00012180BEAFEEBFF89087C197D031208818D
:103BF000EA5402600BA908EEFAEFFB1207378002C5
:103C000079010225FA74F612180B74FF6A700374B6
:103C1000FF6B70168C828D83123C4BE4F08C828D8E
:103C200083A3A3A3123C4BA380181208518A088BCC
:103C300009A808A909E849600D8882898374FF12E0
:103C400026FCA3A3E4F07F020218DD74FFF0A3F0CA
:103C50008C828D83A3A32274F612180B1208518A4A
:103C6000828B83E58245836006A3A3E0FA80027A13
:103C7000007B0080D174F212180B8A088B09ECFECD
:103C8000EDFF740E1217FFE0F50A1208518A0C8B33
:103C90000DA80CA90DE8497026EEFCEFFD7AFF7B1C
:103CA000FF1208518A0C8B0DA80CA90DE84970046D
:103CB0007911801688828983E508F0A3E509F088E8
:103CC000828983A3A3E50AF079007F060218DD74D8
:103CD000EE12180BEAFEEBFF8C088D09890C7414A8
:103CE0001217FF123D9974161217FF1232E6750D66
:103CF00000E8496003023D8D7402650C6003023DDB
:103D00008874121217FF123DA3FCA3E0F9EC240003
:103D1000F50EE439F50FEAF4F8EBF4F9EC58F8E5B0
:103D20000F59F9E849705CE5082406F8ED3400F90C
:103D3000880A890B8882F583123DAE1208818A10A9
:103D40008B11E50E65107004E50F65116042780E69
:103D5000121A1E850A82850B83123DAE12088774E3
:103D6000021217CAE9F50D7027780E121A1E85087F
:103D700082850983A3A3123DAC12089F7402121717
:103D8000CA800D750D808008750D0D8003750D0BB3
:103D9000A90D0234458E828F83123D9D22E0F8A347
:103DA000E0F922123D9D88828983E022A3A3E0FCF2
:103DB000A3E0FDEEFAEFFB2274E812180B74E71291
:103DC00017B4851882851983EAF0A3EBF08C168D61
:103DD00017890E75080075090074311217FFE0F598
:103DE00012A3E0F51374331217FFE0F514A3E0F506
:103DF0001574351217FFE0F50FE50975F003A4F807
:103E0000A9F0851882851983123F22E0F47003A37C
:103E1000E0F47003023F05EE2402F50CEF123F18A8
:103E2000E07003023F0585160A85170B780A121AFF
:103E30001EAC14AD15AA12AB1312080974021217A6
:103E4000CA8A0A8B0BEA450B7003023F05E4F510A2
:103E5000F5117810121A1E74061217FF858210854C
:103E600083117810121A1E74091217FF85821085AB
:103E700083117810121A1E851282851383A3A3A3BF
:103E8000A3121A357914AC0AAD0B8E828F831232CD
:103E9000E612086374081217CAE97069850A8285F8
:103EA0000B83A3A3A3A3123D9974021217FF12352B
:103EB00054850C82850D83E0A2E05018A90E74028F
:103EC0001217FFAC82AD838E828F831232E6120707
:103ED0005BE94208850C82850D83E0A2E15026E56E
:103EE0000FF50A780A121A22A90E74031217FFACF2
:103EF00082AD838E828F831232E6120755740112CF
:103F000017CAE942080509E509C394025003023DB6
:103F1000F9A9087419023A7F3400F50D850C82F571
:103F20008322E028FEA3E039FF8E828F832274F281
:103F300012180BEAFEEBFF890B7401650B600E741F
:103F400002650B706A7901120A61E97062EEFAEF9C
:103F5000FB12084B8A088B09EA45096047750A007D
:103F6000800B7C177D007900121091050A9002E603
:103F7000E0F8E50AC3985021E50A75F017A4F8A9FE
:103F8000F0850882850983A3A3E028FAA3E039FB22
:103F90008A828B8312284E70C985088285098374B2
:103FA000FFF0A3F07C197D03EEFAEFFB12087B0211
:103FB0003CCA74F212180B8A088B09ECFEEDFF74F0
:103FC0000E1217FF12362F900B91E0F4603D7A0924
:103FD0007B001210A3EA4B60328A828B8374B1F0AB
:103FE000A3E4123AC1A3123ABFA3E508F0A3E5097E
:103FF00012400EEEF0A3EF12400EA3A3E50AF0A3C9
:10400000E50BF0900B91E0F91210AF023CCAF08A78
:10401000828B83A3A3A3A3A32274F012180B74FAB8
:104020001217B4890BECFEEDFF750A008A088B09A4
:104030007808121A620004104C425C407A409440A6
:10404000AC40CA40E24005411D4131415B41E34182
:10405000F4410B4226424C424C4271417401650BC3
:1040600060030242478E828F83E0F8C394034003CB
:10407000024247E8900C7D0242237402650B600304
:104080000242478E828F83124949900C7EE8F0A34A
:10409000E90242237401650B600302424712427435
:1040A0004003024247E89007660242237401650B11
:1040B00060030242478E828F83E0F8C39405400379
:1040C000024247E89007670242237401650B6003D0
:1040D0000242471242744003024247E890076802D6
:1040E00042237410650B600302424775081075097E
:1040F000007808121A1E7A697B071210797402126E
:1041000017CA02426D7401650B60030242471242F6
:10411000744003024247E890077902422374016524
:104120000B60030242478E828F83E0900C81024233
:10413000237404650B60030242478E828F83780CE0
:1041400012168490907C780C1214B65003024247E9
:1041500090077B780C12169302426DE960030242CD
:10416000471206E3E9700512120B806090080E807A
:104170006E7407650B6003024247750806750900F7
:104180007808121A1E8E828F83A3AC82AD837402CC
:104190001217FFAA82AB8312107F74021217CA7C17
:1041A000007D00851882851983AA82AB838E828F59
:1041B00083E0F91211B1E9F508C3940A4003024201
:1041C0006A1206E3E9700CA9081212117950121351
:1041D000D9806F740F2508F58274083400F5837454
:1041E0000180407401650B705E1242745059E89072
:1041F000077A802F7401650B704D8E828F83E0F8F3
:10420000C3940A5042E8900C8080187401650B70CA
:10421000368E828F83E0F874F928C3940A5028E818
:10422000900C82F080477401650B701B90080DE0C4
:10423000F88E828F83E090080DF0E87030E0640122
:10424000702B1211FF8026750A188021C3EA94276B
:10425000EB940050157402650B700F8E828F8312E1
:104260004D48120581E9F50A8003750A02A90A740E
:104270000602493E8E828F83E0F8C394022274F0D6
:1042800012180B74CC1217B48C0A8D0B74201217F1
:10429000FFAC82AD8375839075820874061216C7D1
:1042A00074201217FFAC82AD831211B1E9F50874C6
:1042B000441217FFE0FEE9C3940A40030243EC7581
:1042C000F006E9A4F50974261217FFAC82AD837AD3
:1042D0000E74202509F91213D3E9700974321217EC
:1042E000FFE0FF80027F00900C7DE06402700474A8
:1042F000018001E4F50D780D121A22EEFDEFFCA904
:1043000008AA0AAB0B12123574011217CA7C147D6D
:10431000007900740C1217FFAA82AB8312109174FB
:104320000C1217FFAC82AD837A1074242509F912A0
:1043300013D3E9703C7C1079FF740C1217FFAA822A
:10434000AB831210F7E97029741C1217FFAC82AD11
:10435000837A0474252509F91213D3740C1217FFFC
:10436000AC82AD83EFA2E0E433F9AA0AAB0B1206EC
:104370000B851882851983AC82AD837A0C74702505
:1043800008F91213D3E97053851882851983AA821C
:10439000AB831211E1750800E50875F003A4F8A9D4
:1043A000F0851882851983E58228F8E583124B523F
:1043B000124D42601D88828983A3A3E0F50E750F1C
:1043C00000780E121A1EAA0AAB0B12086F740212A2
:1043D00017CA0508E508C3940440BDEFA2E1500CDC
:1043E000900765E0F9AA0AAB0B12087574046E70A9
:1043F00027900C7DE06402701F7A00900779E060DE
:10440000010A900766E06004780480027800E84AB8
:10441000F9AA0AAB0B1206CB7900743402493E7438
:10442000F012180BEAFEEBFF8C088D09750A0AE9F9
:10443000600C1460091460371460790244CE1211C4
:10444000F3E9F50AC3940A40030244CEE50845099E
:10445000607C750E06750F00780E121A1EEEFCEFCA
:10446000FDAA08AB0912107974021217CA805F7591
:104470000B00750E06750F00780E121A1EEEFCEF7B
:10448000FDE50B75F00EA4F8A9F0748728FA7407FF
:1044900039FB12108B74021217CAE9600C850B0AE3
:1044A000E50AC3940A50278016050BE50BC3940A4E
:1044B000501C80BE1211F9E9F50AC3940A500FE5A9
:1044C0000845096009AA08AB09A90A1211EDA90A51
:1044D00002494174F412180B890875091574FF6AB2
:1044E000700374FF6B70277E00AC087A027B00EECD
:1044F000F91211CFE960037509000EEEC3940A406A
:10450000E8E50860537A237B12120A73804A120A84
:10451000558A0A8B0BAE0AAF0BEE4F60387C007DDC
:1045200000EE2405FAEF3400FB8E828F83A3A3A351
:10453000A3E0F91211B1E9C3940A500CAC087A0255
:104540007B001211CF750900E508600CEEFAEFFB55
:104550001212238003750914A9098005740E12171D
:10456000CA7F040218DD74F212180BECFEEDFF7521
:104570000815740E1217FFE0F50AA3E0F50B74FF9F
:104580006A700374FF6B7021750900AC0AAD0BEE05
:10459000FAEFFBA9091211D5E960037508000509B6
:1045A000E509C3940A503F80E2120A558A828B8340
:1045B000E5824583602D7C007D00E5822405FAE5D7
:1045C000833400FBA3A3A3A3E0F91211B1E9C394C0
:1045D0000A5013AC0AAD0BEEFAEFFB1211D57508B9
:1045E000008003750814A908025384C082C0839018
:1045F000077FEAF0A3EBF0900765E0FC7D007A26E8
:104600007B00120581900765E0F91207EB0251DF8C
:1046100074F012180B74EC1217B4EAFEEBFFEE24E0
:104620000CF50CEF3400F50DEE2405F50EEF34001B
:10463000F50FEE2409F50AEF3400F50BEE2403F52F
:1046400008EF3400F5098E828F83A3A3E024FA706B
:10465000030248E224FD70030247FD147003024682
:10466000E914601024FD70030247D414700302485B
:104670003102493A12557F6048E0F5838882124939
:1046800049880E890FE8450F6037850C82850D83B8
:10469000E0F50C780C121A22EE240BF582EF124B87
:1046A00019F9850A82850B83124D480A0A0AAB095B
:1046B000850E82850F8312180974011217CA0249E8
:1046C0003A850A82850B83121A3590077B1216A24F
:1046D00012061D74021217CAE9700302493A7901E1
:1046E000850A82850B830248AD8E828F83A38582E3
:1046F0000A85830BE060030247B7850E82850F832E
:10470000E0A2E040030247B7900819125582600307
:104710000247B77C0E7D007900851882851983AA2F
:1047200082AB83121091850C82850D831251AAEA07
:104730004B6010750C06750D00780C121A1EEA24D9
:1047400010801B1251A4120A55EA4B700302493A19
:10475000750C06750D00780C121A1EEA2405FCEB88
:104760003400FD74021217FFAA82AB831210797411
:10477000021217CA850E82850F83E0A2E25004D28E
:10478000F08002C2F0A2F0E433F8740C1217FFE0DC
:1047900048F0EEFCEFFD851882851983AA82AB8371
:1047A0001211E7E970117A027B00900765E0F912B7
:1047B00010D3790002493C12557F700302493A1226
:1047C000494F700302493A850A82850B83E0FC79E0
:1047D000010248D612557F700302493A12494689B0
:1047E0000BE8450B700302493A8E828F83A3E0FCED
:1047F00079021251A48882850B830248DD7C007DFA
:1048000000EE2404FAEF3400FB850882850983E07A
:10481000F91211B1E9F8C3940A400302493AEE24AF
:104820000AFCEF124D1EE8A42425F91213CD02490B
:104830003A1251A490077AE06007900C80E0F9806A
:104840006F900C7DE0700479058065120A558A0C22
:104850008B0DA80CA90DE82404F50CE93400F50D26
:104860008E828F83A3A3A3A3A3A3A3E0A2E05046B9
:10487000E849700302493A850C82850D83E0FE60A9
:1048800035850A82850B83E05410702A740E121746
:10489000FFAC82AD83E82405FAE93400FBEEF9129F
:1048A00011B1E9701179038508828509831251AA33
:1048B00012061702493AAC0EAD0F850C82850D83A6
:1048C000E0F91251A412122F12557F606D12494F58
:1048D00060687C0079001251A48E828F83121809BF
:1048E00080581206E3E9705290080EE064017015DA
:1048F00012120B90080EE4F07C0AFDF97A0F7B0887
:10490000121091802D750A00850A08740F2508FE83
:1049100074083400FF8E828F83E06401700BA90A53
:104920001212118E828F83E4F0050AE50AC3940AFD
:1049300040D679501213D91211FF7901741412174D
:10494000CA7F080218DD12495EE0F8A3E0F92212DE
:10495000495EE0F8A3E0F9E8FEE9FFEE4F22E0F55A
:10496000838882A3A32274F412180B74F21217B472
:10497000EAFE8C0B75F006E9A42420F50885188260
:10498000851983AC82AD837A0EF91213D3E970577F
:104990007C0679FF851882851983AA82AB83121061
:1049A000F7E97043740C1217FF124949E8F509E55D
:1049B0000B6005EE42098004EEF45209850982AAD3
:1049C00082E86A7001E9601B740C1217FFEAF0A319
:1049D000E4F0851882851983AC82AD837A0EA9082C
:1049E0001213CD79018002790002455C74F212182D
:1049F0000B74E61217B4890A8A088B09ECFEEDFFE6
:104A0000740C1217FFAC82AD837A0E75F006E9A420
:104A10002420F91213D3E96003024B0C7C0679FFC2
:104A2000740C1217FFAA82AB831210F7E96003021D
:104A30004B0C7470250AF50B851882851983AC829E
:104A4000AD837A0CF91213D3E96003024B08851881
:104A500082851983AA82AB831211E1E508450970AA
:104A60002C7C0C7900851882851983AA82AB83126D
:104A700010F7E96003024B087C0C7D007900851873
:104A800082851983AA82AB83121091805D8518827A
:104A9000851983AC82AD83AA08AB091211DB8A0C9D
:104AA0008B0DA80CA90DE8497028EE4F605E8518A3
:104AB00082851983AC82AD837A007B001211DBEA18
:104AC000F8EBF9EA4B604588828983E508F0A3E5B5
:104AD00009F0124B13FAEE6A7001EF602BEEF04F03
:104AE000700888828983E4F0A3F085188285198391
:104AF000AA82AB831211E1851882851983AC82AD3D
:104B0000837A0CA90B1213CD790180027900741AF3
:104B1000025381E82402F582E93400F583E022742F
:104B2000F712180B7F00EF75F003A4F8A9F0EC283A
:104B3000F8ED124B52E06A7003A3E06B7006E8FADE
:104B4000E9FB800B0FEFC3940440DB7A007B00028B
:104B50004EFD39F9888289832274F712180B7E0082
:104B6000EE75F003A4F8A9F0EA28F8EB124B52E036
:104B7000F4FCA3E0F4FD88828983ECF0A3EDF0124D
:104B80004B13F4F00EEEC3940440D5024EFD74F2C4
:104B900012180B74F41217B4EAFEEBFF8C088D099F
:104BA0009008191255827051EE4F7003024D17ECA8
:104BB00045097003024D171211F3E9900C83F0C3FD
:104BC000940A4035750B007C0679FFE50B75F00EF5
:104BD000A4FAABF074812AFA74073BFB1210F7E9D0
:104BE0006005850B0A800C050BE50BC3940A40D7C2
:104BF000750A0AE50A900C83F0900C83E0C3940ACE
:104C00004003024D1775F006E0A4FB9008191255F9
:104C100082706FEEFCEFFD7A0E74202BF91213CD2B
:104C20007C0C7D0079FF851882851983AA82AB836D
:104C3000121091851882851983AC82AD837A0C900D
:104C40000C83E02470F91213CD750C0E750D0078ED
:104C50000C121A1EEEFCEFFD900C83E075F00EA412
:104C6000F8A9F0748128FA740739FB1210797402DC
:104C70001217CA900819E508F0A3E509F0790002B7
:104C80004D19E0C82406124D3B601A7A1B74212B83
:104C9000F91213CD124D272406F582E83400F5836E
:104CA000E4F0A380D7124D27240A124D3B60107AFE
:104CB0001B74222BF91213CD124D27240A80DA120D
:104CC0004D27240C124D3B60107A1074232BF912DF
:104CD00013CD124D27240C80C0124D30124D3B6075
:104CE0002A7A1074242BF91213CD124D30F582E874
:104CF000124B192410FCA3E0124D1E900C83E0A46B
:104D00002425F91213CD124D30808E90080DE060ED
:104D10000312123B1212297901740C0253813400E0
:104D2000FD7A0475F00622900819E0F8A3E0C82285
:104D3000900819E0F8A3E0C8240822F582E83400BE
:104D4000F583124D48EC4D22E0FCA3E0FD2274F403
:104D500012180B74F21217B4EAFEEBFFE9C3940ABF
:104D60005004EE4F70047902803E851882851983C5
:104D7000AC82AD837A0E75F006E9A42420F91213F3
:104D8000D3E9F5087020750A06750B00780A121A27
:104D90001E74021217FFAC82AD83EEFAEFFB121005
:104DA0007974021217CAA90802455C74F412180B30
:104DB000EAFEEBFF750800750A06750B00780A120B
:104DC0001A1EEEFCEFFDE50875F00EA4F8A9F074CC
:104DD0008128FA740739FB12108B74021217CAE982
:104DE0006004A908800B0508E508C3940A40C87947
:104DF0000A02456174F712180B74F01217B4EAFE38
:104E0000EBFF750800851882851983AC82AD837A23
:104E10001075F006E508A42423F91213D3E9702CC9
:104E20007C1079FF851882851983AA82AB831210C2
:104E3000F7E97018EEFCEFFD851882851983AA82C8
:104E4000AB831205EDE97004A908800B0508E5089D
:104E5000C3940A40B0790A74101217CA024EFD7446
:104E6000F712180B750800E50875F00EA4F8A9F004
:104E7000748128FE740739FFEEFCEFFD7A0E75F0A1
:104E800006E508A42420F91213D3E9602C7C067DE2
:104E90000079FFEEFAEFFB1210917C067D0079FF9E
:104EA000EE2406FAEF3400FB121091EE240CF5828A
:104EB000EF3400F583E4F0A3F00508E508C3940A95
:104EC00040A590080DE0600312123B121229802DBC
:104ED00074F712180B7E007F007C0679FFEF75F0E7
:104EE0000EA4FAABF074812AFA74073BFB1210F798
:104EF000E970010E0FEFC3940A40DEEEF97F010264
:104F000018DD74F712180B7E00EEF91212110EEE76
:104F1000C3940A5003E960F180E374F312180B7430
:104F2000CB1217B4E9FE900C83E06E701B7A017B04
:104F300000900765E0F91210D97A027B00900765AE
:104F4000E0F91210D912124775F006EEA4FF742092
:104F50002FF50874271217FFAC82AD837A0EA908CB
:104F60001213D3E960030250547C0679FF742712B0
:104F700017FFAA82AB831210F7E960030250547C3A
:104F80000E7D0079FF74271217FFAA82AB831210DF
:104F9000917C1B7D0079FF740C1217FFAA82AB83F2
:104FA0001210917C0C7D0079FF851882851983AAE7
:104FB00082AB8312109174271217FFAC82AD837AF3
:104FC0000EA9081213CDE9F508740C1217FFAC8274
:104FD000AD837A1B74212FF91213CDE9F509740CF6
:104FE0001217FFAC82AD837A1B74222FF91213CDF6
:104FF000E9F50A740C1217FFAC82AD837A107423A2
:105000002FF91213CDE9F50B740C1217FFAC82AD1A
:10501000837A1074242FF91213CDE9F50C740C1255
:1050200017FFAC82AD837A0474252FF91213CDE9F2
:10503000FF851882851983AC82AD837A0C74702E3B
:10504000F91213CDE9F8E509450A450B450C4F481F
:1050500042088003750800A90874351217CA7F0535
:105060000218DD74F712180BE9900765F01211FFB2
:10507000024EFD74F412180BEAFEEBFF548070032D
:1050800002510B900765E0F91210BB8A088B09EA00
:105090004509607078018A828B83E02450603D145A
:1050A000600624E1604F8052A3A3A3A3E0704E8A60
:1050B000828B83A3A3A3A3A3A3A3121A358A828BF3
:1050C00083A3A3A3A3A3124D488A828B83A3A31215
:1050D00051AA1211BD74021217CA8021A3A3A3A35F
:1050E000E0641E701879008A828B83A3A31251AAF0
:1050F0001211B780081211C9E9F8E86007AA08ABD5
:10510000091210A9EEFAEF64808065EE5402602364
:105110007C007D007A007B001211E7E960117A01C2
:105120007B00900765E0F91210D3EE6402803F7AAD
:10513000028046EEA2E0503F12517E1251AA121296
:1051400041E9602F12557F601F124946880889097E
:10515000E8450960137C00790112517E1251AA853D
:105160000882850983121809121247EE6401FAEFCA
:10517000FB80087A0180027A007B0002456190087A
:1051800019E0F8A312495EA3227F020218DDC08253
:10519000C083900765E0F98A828B83A31251AA121B
:1051A0000875803B850882850983E0FAA3E0FB222D
:1051B000C082C08374FF1217B4121205E9C39402AF
:1051C000851882851983400474028002740AF0AC49
:1051D00082AD837A0179051206FB74011217CAD0D9
:1051E00083D08202012274F212180B74E81217B4F1
:1051F000EAFEEBFF890A8C088D097C187D00790096
:10520000851882851983AA82AB8312109185188232
:10521000851983EEF0A3EFF0900767E0C0E0740219
:105220001217FFD0E0F0900768E0C0E07403121797
:10523000FFD0E0F0900C82E0C0E074171217FFD0AE
:10524000E0F074151217FFE054FEF8A3E0F9900C9B
:1052500081E0A2E0E433FAE84AF874151217FF126D
:105260005390A2E15004D2F08002C2F0E854FDFA5B
:10527000A2F0E43333F8EA48F874151217FF12531A
:1052800090A2E35004D2F08002C2F0E854F7FAA2F0
:10529000F0E433F50C750D007403780C1217A112AD
:1052A00053891217FF125390A2E45004D2F08002E7
:1052B000C2F0E854EFFAA2F0E433F50C7404780C71
:1052C0001217A11253891217FF125390A2E550042E
:1052D000D2F08002C2F0E854DFFAA2F0E433F50C19
:1052E0007405780C1217A11253891217FF125390EC
:1052F000A2E25004D2F08002C2F0E854FBFAA2F01D
:10530000E433F50C7402780C1217A11253891217AA
:10531000FFE8F0A3E9F0900768E0601D750C1078D5
:105320000C121A1E7C697D0774061217FFAA82AB45
:105330008312107974021217CA900779E06011E5A0
:105340000A600974151217FFE04402F07801800228
:10535000780074141217FFE048F0900766E06004CC
:1053600078048002780074141217FFE048F0AC084B
:10537000AD09851882851983AA82AB831206117440
:10538000181217CA7F060218DDEA450CF8741522B8
:10539000E8F0A3E9F0900C81E02274F312180B748A
:1053A000E51217B4EAFEEBFF8C098D0A7428121778
:1053B000FFE0F50C75F006E9A4F87408650A7004BE
:1053C00074228002742128F50B7C1B7D00790085F6
:1053D0001882851983AA82AB831210918518828561
:1053E0001983AC82AD837A1BA90B1213D3E97032F7
:1053F000741A1217FFE024F9C3940A5025E50CF53E
:105400000B780B121A2274011217FFAC82AD83E5E0
:1054100009A2E0E433F9EEFAEFFB1206237401125D
:1054200017CA741B02505B74F712180B1208ED7543
:105430000800E50875F00EA4F8A9F0748128FE7440
:105440000739FF7C0679FFEEFAEFFB1210F7E970DF
:1054500009EEFAEFFB79001208F30508E508C3949A
:105460000A40CF024EFD74F612180B74FD1217B4E9
:10547000EAFEEBFF90081B125582703975081D7506
:1054800009087808121A1E750802750900780812B2
:105490001A1E7508CD7509907808121A1E7CFF7DBA
:1054A000FF7A017B0012073D74061217CA90081B91
:1054B000EAF0A3EBF090081B1255827003025569C5
:1054C000E4F508F5097808121A1E74041217FF850E
:1054D00082088583097808121A1E74041217FF8542
:1054E00082088583097808121A1E90081D121A3541
:1054F000790290081B12557712086374081217CAB4
:10550000E97034851882851983E0FA74011217FF57
:10551000E0F9EA2400F508E439F509EA45096017DD
:105520007808121A1E90081B125181A31255771287
:1055300011BD74021217CAE4F508F5097808121AA9
:105540001E90081D121A357CFF7DFF90081B12511A
:10555000AA12074974041217CA90081BEAF0A3EBB9
:10556000F090081B12558270047901800279007452
:10557000031217CA025189124D48EEFAEFFB22902E
:10558000077FE0F8A3E0F9E84922C082C0839008D1
:105590001912558260109008191251AA1210A99080
:1055A0000819E4F0A3F0900C83740AF00251DFC0F4
:1055B00082C0839061907404F0A37448F0A3E4F077
:1055C0009061807440F09061BC7407F090618774C2
:1055D00069F09061B67416F07900120B5D790212D1
:1055E0000B639025B0E493F46006E493F9120B3951
:1055F0007905120E5D0259AAC082C083E9540FF9E1
:10560000906185E0696012E5C654804449F5C6E5BD
:105610009E547F644970F8E9F053C680E59E547F3C
:1056200070FA0259AA74F712180BE5A8FE53A87E67
:10563000120B45C2BA539AFEC289759B00C2C212B0
:105640000B4B75A91175B905120B51D2BA439A01CA
:1056500074805E42A8025F41C082C083906181E491
:10566000F0A30259A775E90075910075BF0002010A
:1056700022C082C083906181E4F0A374C0F0A3E4EF
:105680000259A9C082C08374F81217B49003A412FF
:1056900068DA70030257629003A4E05440602379F3
:1056A00008851882851983AA82AB83120C59851844
:1056B00082851983AA82AB831209119003A4E05456
:1056C000BFF0E054806010790C7A657B05120C59AC
:1056D0009003A4E0547FF0E0A2E0500F7900120B99
:1056E0005D1209179003A4E054FEF0E05402600F2D
:1056F0007901120B5D1209179003A4E054FDF0E04C
:105700005404600F7900120B6312091D9003A4E08A
:1057100054FBF0E05408600F7901120B6312091D6D
:105720009003A4E054F7F0E05410600F7902120BDC
:105730006312091D9003A4E054EFF0E05420600FC1
:105740007903120B6312091D9003A4E054DFF0A348
:10575000E05401600D120B6F1209239003A5E05471
:10576000FEF074081217CA0259AAC082C083E96009
:105770000514602A804F90619A7433F0A37455F039
:105780009061A0743AF090053FE064017009C29105
:105790009003A67467802D9003A6746180269061A3
:1057A0009A743FF0A3745AF09061A0747FF0900552
:1057B0003FE064017009D2919003A6747180059056
:1057C00003A6746AF00259AAC082C083E9600B1470
:1057D000600D14601714600C80209025B480159023
:1057E00025B5801090053FE0640170059025B680D6
:1057F000039025B7E493906186F00259AA74EE12E3
:10580000180B74F41217B4851882851983AC82AD15
:105810008375839075826074041216C79025B493C3
:10582000F46003025927907808E0C3940250030201
:10583000590774041217FFAC82AD8375838F75828C
:10584000DE74081216C7FC7EFF7FFF8E0C7D008C75
:105850008285820E800F74086D606D74096D6068BA
:10586000740A6D60638D0875090074027808121758
:10587000A1125931121684A909E50AC9F8881074D1
:105880001878081215C5E5104508FAE9FBE50EC3BE
:1058900033F8E433F974041217FFE58228F582E542
:1058A0008339125E31C3E89AE99B4008E8C39AF84D
:1058B000E99B8006EAC398F8EB99F9C3E89EE99F53
:1058C0005006E8FEE9FF8D0C0DEDC394134087747C
:1058D000FF6E700374FF6F6024850C0874027808F3
:1058E0001217A1125931121684851882851983E581
:1058F00082250EF582E5831262D0E508F00CECC338
:10590000940450030258477508017509007808127D
:105910001A1E74021217FFAC82AD837A6D7B0912D6
:10592000128374021217CA740C1217CA7F0A021863
:10593000DD74482508F58274783509F583780822E6
:10594000C082C083906186E0F89025B7E4936870C8
:10595000099025B6E493906186F09061AE7468F08A
:10596000A3746AF090624574FBF0A304F053F4FD55
:1059700043FE0290053F7401F09061A0E0643A702C
:1059800004790080027901120B5D0259AAC082C01D
:10599000839004F1E06401700A9004F6E0600479F9
:1059A0000C800279008003F0A3F0D083D082020142
:1059B00022C082C08375E1F19004F4E0604D146070
:1059C00009146051146049147050120B819004EA5C
:1059D000E0F97AEB7B04120DDF9090801216A21290
:1059E0000E1590902C1216A2120DEB9004F5E0F912
:1059F000120DF77901120E51125ACD24161262CDF2
:105A00007499F0A3740BF07900809F120B8780BD0E
:105A1000120B8D80B8120B9380B3791280EB74F463
:105A200012180B75D90D9004D5E0A2E0E4331313DE
:105A3000F8125AC3484401F5D97800125B3040FB94
:105A40007800880874D61268307404125B3A40F209
:105A500075E1959004D5E0F97AD67B04120DE590B6
:105A60000BB3740FF0A3740B125B40125B84125BD8
:105A70007B125C989004F4E064019004E8700B12CF
:105A80005AD61216849090748009125AD61216842F
:105A90009090707808121610909030780812165E68
:105AA000125ACD240E1262CD7808121693125ACDD6
:105AB00024141262CD7413F09003A27402F07F04D8
:105AC0000218DD9004EAE0C4333354C0229004E8A5
:105AD000E0F8A3E0C82212676878082274F612186A
:105AE0000B125C698AD97800125B3040FB78008029
:105AF00006125BE1125D1EE8C39940F5125C5B1271
:105B00005B3040FB7800800812682C7405125D1E23
:105B1000E8C39940F375E195900BB3741BF0A3743F
:105B20000B125B40125B4A7412F09003A2025F05F5
