:020000040000FA
:0600000002010A021F20AC
:03002B0002218D22
:03003B000221AEF1
:030043000221385F
:03005300021F96F3
:03006B0002215E11
:10008300021DCFE5C754F84401F5C77901220000EA
:100093000080FB120086B900030200F4E4791A78A9
:1000A30002B800028004F709D8FCE4791C7802B88E
:1000B30000028004F709D8FCE49002817878790F74
:1000C3008002F0A3D8FCD9FA9010F8AA82AB8390EF
:1000D300013A78D779018015E493A3AC82AD838A82
:1000E300828B83F0A3AA82AB838C828D83D8E9D9D8
:1000F300E77582AD7583FF740112011C75829175DA
:100103008300740012011C75D00075813F7518813E
:10011300751902759F00020096C09FF59FE473D086
:100123009F22D083D082C09FE493C0E0740193C028
:10013300E0740293F59F226C037E03A2037203FF14
:100143000000B4000028002800283075A000A0009B
:10015300A000A00000080008E001F000100010005B
:10016300100010001000100050005000500010004C
:100173001000D0070000000000000F000100050080
:10018300307507001000010081FF00000000FF022E
:100193000202C390010000B39002BF90010000501F
:1001A3001102BB90010000B20202BF900100005196
:1001B3001102B990010000C802FFFF0100FF2002F5
:1001C300C390010000B69002BF900100007F1102AE
:1001D300C190000000000002BD90030000A503D4FD
:1001E3000AD40AD40AD40AD40AD40AD40AD40AD41C
:1001F3000AD40AD40AD40AD40AE40C020DDE0CFF92
:10020300FF01E803053F10020AFF00FEFF1201256C
:10021300B0A903120125C6A903120125F5A90312EA
:1002230001252BAA0312012542AA0312012579AA4B
:100233000312012590AA03120125789E03120125BA
:100243008F9E03120125C09E03120125FB9E0312FC
:100253000125259F031201254F9F03120125669F48
:10026300031201257D9F03120125949F031201258B
:10027300BD9F03120125D09F03120125E69F0312A0
:10028300012510A00312012500800212012504811B
:1002930002120125318102120125878102120125F3
:1002A300AA8102120125BE8102120125C081021218
:1002B3000125E38102120125F28202120125B68390
:1002C300021201258B8402120125FC8402120125EE
:1002D3008885021201258B850212012513860212DD
:1002E30001254E8602120125B58602120125EC86F0
:1002F300021201257A870212012553880212012571
:10030300568802120125B68802120125C1880212FD
:1003130001254089021201254389021201255689CC
:1003230002120125598902120125E88902120125C9
:10033300028A02120125128A02120125428A02123E
:1003430001254F8A02120125528A02120125D38AFE
:1003530002120125C18B02120125738C02120125A1
:10036300EBB5021201256DB6021201258DB60212FC
:100373000125D5B60212012528B7021201258CB733
:100383000212012519B802120125D3B80212012560
:10039300E2BB021201256DBD0212012590BD0212BE
:1003A3000125799A03120125DD9A031201253C9B4D
:1003B300031201254A9B03120125739B0312012596
:1003C30071FA0112012599FA01120125C7FA0112E6
:1003D3000125FEFA011201255CFB01120125A7FB91
:1003E30001120125F2FB0112012532FC0112012544
:1003F30078FC01120125A6FC0112012563FD0112FF
:1004030001256DFD011201257AFD01120125ADFDC6
:100413000112012579FE0112012585FE0112012534
:100423009DFE01120125A7FE0112012525FF0112E0
:100433000125A2AC03120125B0AC03120125C8ACFF
:1004430003120125E0AC03120125C7CF01120125D8
:1004530073D001120125EED0011201250FD2011232
:1004630001254BD201120125F4D201120125DBD360
:10047300011201253FD50112012596D5011201254F
:1004830017D60112012507D70112012554D70112EE
:100493000125DAD7011201250CD80112012520DA32
:1004A3000112012562DA0112012580DA0112012508
:1004B30022DB01120125EADB01120125F7DD01121E
:1004C3000125AE8303120125C48303120125EA83A8
:1004D3000312012506850312012510850312012548
:1004E3004586031201253D8703120125D6ED02122D
:1004F30001257AEE02120125ADEE02120125F7EE77
:1005030002120125BAF002120125D790011201252A
:100513005091011201256091011201254E920112A1
:1005230001256D92011201258B930112012572950C
:10053300011201252B9701120125079801120125AC
:10054300BB9801120125F89B01120125A69C0112FB
:100553000125159E01120125959F011201253CA03D
:100563000112012585A001120125BCA0011201255C
:1005730059A101120125E4A101120125C1A2011211
:10058300012516A30112012575A40112012585A4D5
:1005930001120125B2A40112012509A501120125A9
:1005A300B2A501120125B9A60112012583A70112E3
:1005B3000125E3A80112012526A901120125CBA9D2
:1005C30001120125F1A901120125FFAB0112012539
:1005D30004AC0112012509AE0112012556AE011228
:1005E3000125C9AE01120125FCAE011201259EAF02
:1005F3000112012547B0011201257FB00112012527
:1006030082B001120125CAB0011201250CB10112F9
:10061300012563B101120125C19403120125D4946C
:1006230003120125E294031201252A9503120125E1
:100633004095031201258795031201259B9603120A
:100643000125289703120125739703120125202200
:1006530000120125302200120125932200120125E8
:10066300D822001201258E230012012569240012CD
:100673000125922400120125C2240012012502271C
:1006830000120125E92800120125C12A00120125C3
:10069300052C001201256C2E001201257A2F001261
:1006A3000125CC3000120125D63100120125183264
:1006B3000012012550320012012572320012012569
:1006C300D532001201259737001201252C3800126C
:1006D3000125803800120125A73800120125E538CD
:1006E300001201250439001201255E39001201258B
:1006F3005E3A00120125E33A00120125127B001233
:1007030001251C7B00120125C47B00120125077CF7
:1007130000120125227C00120125B27C0012012562
:10072300DA7C00120125127D00120125497D001299
:100733000125727D00120125877D00120125AA7D06
:1007430000120125CC7D00120125E17D0012012557
:10075300677E00120125A17E00120125197F001278
:100763000125627F001201258C7F00120125B77FCE
:10077300001201257FA70312012510DE01120125B6
:100783003EDE0112012599DF0112012579E00112F4
:10079300012598E00112012515E10112012558E117
:1007A30001120125D3E20112012542E301120125C1
:1007B3006DE501120125F1E701120125A2E80112FD
:1007C300012598E90112012538EA0112012536EBCA
:1007D30001120125C1EB01120125F8A40312012521
:1007E30061A503120125B5A503120125E4A5031292
:1007F300012505A60312012557F202120125C4F2B1
:10080300021201250BF30212012523F40212012522
:100813001FF50212012502F602120125A2D60212C9
:100823000125E4D602120125BDD702120125B7D84E
:100833000212012599D90212012502DA02120125B9
:100843001EDB021201258ADB021201258DDB021257
:100853000125B6DB0212012530DC02120125D5DCAD
:1008630002120125EADC0212012530DD0212012504
:1008730049DD021201254CDD0212012547870312CF
:100883000125838703120125C187031201258B8864
:1008930003120125FA880312012535890312012564
:1008A300738903120125A38903120125CA8903123F
:1008B3000125388A031201257A8A0312012550B2D1
:1008C3000112012513B401120125DEB50112012520
:1008D3001AB60112012547B60112012509B7011203
:1008E300012550B70112012594B701120125A6B7BE
:1008F30001120125E6B70112012513B801120125E2
:1009030061B8011201259BB801120125BEB801127D
:10091300012510B9011201259EB90112012579BAE9
:100923000112012598BC01120125E7BC0112012522
:100933002EBD0112012556BF01120125DD51001202
:100943000125265200120125535200120125865219
:1009530000120125965200120125A2520012012510
:10096300B352001201259A5300120125F8530012C5
:1009730001252D5400120125705500120125C25581
:100983000012012512560012012565560012012599
:10099300645700120125DF5800120125B6590012D1
:1009A3000125C65900120125E85900120125EB590A
:1009B30000120125B95A001201258A5B0012012594
:1009C300595C00120125AD5C001201250D5D00127A
:1009D3000125715D00120125225E00120125ED5EE5
:1009E300001201258F5F001201250460001201250A
:1009F300706000120125C56000120125F660001227
:100A030001259A6100120125E961001201252C627A
:100A130000120125AE62001201254963001201256F
:100A2300906300120125BE6300120125EC630012DE
:100A33000125666400120125AA6400120125B76529
:100A430000120125666600120125C7660012012502
:100A53002367001201253C67001201250FA3021230
:100A6300012562A3021201256EA30212012543A4EC
:100A7300021201256AA402120125A5A4021201256E
:100A830011A5021201254DA50212012586A5021208
:100A930001259EA502120125F3A5021201250CA62C
:100AA3000212012555A60212012568A6021201258C
:100AB30082A60212012598A602120125CBA70212D3
:100AC300012512A90212012514AA021201250EAB57
:100AD30002120125FD7F001201251AE402120125ED
:100AE30089E702120125C2E802120125E48C0212F1
:100AF30001255A8F02120125608F02120125C89128
:100B0300021201252F94021201250DE9021201257B
:100B1300A3E9021201255AEA0212012584EA02120C
:100B2300012577EC021201259FED021201256E6764
:100B330000120125A267001201258F710012012501
:100B4300E37200120125EE73001201256E75001287
:100B530001254F7600120125897600120125AC7616
:100B630000120125EE7600120125387700120125C7
:100B7300427700120125EC7700120125C578001297
:100B830001251979001201257B7900120125CE79FF
:100B930000120125FD79001201253A7A0012012580
:100BA3009891031201250E92031201252492031238
:100BB30001256592031201259F92031201251893C3
:100BC30003120125539303120125C6930312012532
:100BD3000494031201250D940312012519940312A1
:100BE3000125359403120125609403120125919484
:100BF3000312012570DD0212012583DD0212012596
:100C03009DDD02120125C6DD0212012509DE021255
:100C1300012548DE0212012586DE02120125EBDEE4
:100C23000212012500DF0212012517DF021201253E
:100C330025DF0212012534DF0212012549DF0212EA
:100C430001255EDF0212012569DF0212012575DF2E
:100C53000212012582DF0212012595DF021201250E
:100C6300A0DF02120125C5DF021201256CE002128A
:100C7300012581E0021201259BE002120125B6E065
:100C830002120125D3E002120125DEE00212012542
:100C93009AE10212012586E202120125ABE2021259
:100CA3000125B6E202120125CBE202120125DFE2A1
:100CB3000212012540E30212012546E30212012537
:100CC3004CE30212012552E3021201256AE30212E8
:100CD30001259DE302120125B99802120125DB9833
:100CE30002120125BB9902120125929C02120125D1
:100CF300BE9D02120125E29E02120125949F02125B
:100D0300012535A00212012547EC01120125CBEC88
:100D1300011201257AED01120125D9EE01120125F7
:100D2300FAF001120125E6F1011201251BF201126D
:100D330001253DF201120125ECF201120125E4F433
:100D4300011201250DF5011201259FF5011201255F
:100D5300D1F501120125DEF50112012535F6011247
:100D630001255BF601120125C8F801120125CBF913
:100D73000112012523FA011201255BC1011201258C
:100D830065C2011201254CC30112012556C301128C
:100D9300012578C30112012584C3011201251DC554
:100DA300011201254CC50112012568C60112012556
:100DB300C1C60112012527C80112012506C9011266
:100DC300012562C901120125CFC9011201250ACAF1
:100DD3000112012549CA0112012502CD0112012583
:100DE3001CCD01120125A8CD01120125B6CD01129A
:100DF30001250FCE011201251DCE0112012590CE32
:100E030001120125F4CE011201253ECF0112012565
:100E130022A00312012547A003120125B9A0031242
:100E2300012556CF021201255FCF0212012568CF9B
:100E3300021201253FD002120125F0D10212012531
:100E430026D20212012560D20212012596D2021285
:100E53000125D0D20212012504D30212012530D379
:100E63000212012579D302120125B3D302120125FF
:100E7300FCD30212012554D40212012589D4021293
:100E83000125E4D4021201251ED5021201256FD5D6
:100E930002120125A5D502120125DFD50212012573
:100EA30002D6021201252AFF0212012556FF021261
:100EB3000125B1FF02120125BBFF02120125CBFF61
:100EC30002120125BBBE02120125C5BE0212012575
:100ED30003BF021201254CBF0212012586BF021275
:100EE3000125E0BF0212012501C002120125D9C26A
:100EF30002120125E2C2021201252FC302120125AB
:100F030058C30212012562C302120125CEC3021285
:100F1300012560C402120125AAC402120125E0C4FE
:100F2300021201256CC502120125ADC5021201256D
:100F3300E4C502120125F6C50212012515C60212E7
:100F430001251EC602120125E6C602120125ABAB1E
:100F530003120125879C03120125BD9C0312012561
:100F6300F39C031201253E9E0312012585AE031255
:100F730001259BAE03120125A5AE03120125C4F67C
:100F830002120125D9F6021201258CF7021201255E
:100F9300CCF702120125E5F70212012520F802120F
:100FA30001256DF8021201259FF802120125E1F8CF
:100FB30002120125ECFA02120125EFAE03120125FC
:100FC30069A30312012592A303120125C1A30312EE
:100FD300012559A40312012571A403120125B3A409
:100FE30003120125F9FA021201253BFB0212012526
:100FF300C9FB0212012524FC0212012573FC021213
:101003000125C9FC02120125BEFD02120125B5FE10
:1010130002120125F2FE0212012516AE031201256A
:101023004A3B00120125CB3D00120125653F00120A
:101033000125194000120125AC4000120125314160
:1010430000120125564100120125A8410012012575
:101053005D4500120125E3450012012516470012E4
:1010630001255047001201258547001201254249F9
:1010730000120125764900120125D34900120125EA
:101083001C4A00120125834A00120125FC4A001262
:1010930001252B4B00120125434B001201258C4CDB
:1010A300001201259C4C00120125BA4D00120125A6
:1010B300DC4D00120125124E00120125C14F001212
:1010C30001254E50001201258D5000120125A65115
:1010D300001201250CB0031201254EAF03120125A6
:1010E3008DAF03120125F9AF0312012579AD031268
:1010F300012589AD03120125A4AD031201250CAE10
:1011030003120125A7AA031201252CAB0312012503
:1011130092AB0312012598A803120125BFA803125D
:10112300012515A90312012565A9031201252E8E98
:1011330003120125438E03120125878F0312012514
:101143000390031201257790031201259190031256
:101153000125A89003120125BB9003120125D59008
:1011630003120125EC9003120125129103120125AC
:1011730063910312012500800312012514800312D9
:1011830001258E80031201257281031201254983F3
:1011930003120125C28A03120125528B0312012572
:1011A300DE8B03120125778C03120125088D0312B0
:1011B3000125118D031201258F8D03120125A28DA7
:1011C30003120125B88D03120125188E0312012580
:1011D3002B8E031201254BA603120125BBA6031276
:1011E3000125C6A603120125D6A603120125E1A6F1
:1011F30003120125FDA603120125C7A10312012530
:1012030019A203120125A3A2031201250AA30312A3
:1012130001259D9703120125C79703120125959870
:1012230003120125709903120125F7990312012571
:1012330014C702120125DBC70212012512C80212CC
:1012430001253CC8021201259CC802120125F2C8DF
:101253000212012557C902120125EFC90212012505
:10126300FECA0212012595CC0212012522CD0212DB
:10127300012589CD02120125A0CD02120125BACE86
:1012830002120125F8CE02120125D9AC0212012562
:101293001DAD0212012568AE021201254FAF0212E5
:1012A30001251DB00212012540B00212012578B2BA
:1012B30002120125CAB20212012568B302120125E6
:1012C300A4B40212012549B502120125CDAF0312C0
:1012D300012597AF03120125D5FF02120125DF7FF8
:1012E30000E066701008A3E066700A08A3E0667069
:1012F3000408A3E06622C3E7960809E7960809E70E
:10130300960809E79622C3E09608A3E09608A3E0AF
:101313009608A3E09622C008C3E096F50808A3E068
:1013230096420808A3E096420808A3E09645087091
:1013330001D3D00822080808EAC0E0EBC0E086F039
:10134300E7A4FA180986F0E7A42AFA180986F0E751
:10135300A42AFA180986F0E7A42AFA1986F0E7A462
:10136300FBE5F02AFA190886F0E7A42BFBE5F03A2F
:10137300FA190886F0E7A42BFBE5F03AFA181809E6
:1013830086F0E7A4C5F02BFBE43AFA1908E7C5F0A9
:10139300C6A426F6E5F03BFBE43AFA1886F0E7A488
:1013A300F6E5F00826F6E43B08F6E43A08F6D0E062
:1013B300FBD0E0FA22E4CFC0E0E4CEC0E0E4CDC04D
:1013C300E0E4CCC0E075F020C3E633F608E633F67C
:1013D30008E633F608E633F6181818EC33FCED3359
:1013E300FDEE33FEEF33FFC3EC9709ED9709EE975C
:1013F30009EF97191919400FFFEC97FC09ED97FDB9
:1014030009EE97FE191906D5F0BEECF709EDF709B9
:10141300EEF709EFF7191919D0E0FCD0E0FDD0E0A1
:10142300FED0E0FF226016080808C6C313C618C61C
:1014330013C618C613C618C613C6D5E0EA22700928
:10144300080808226016181818C6C333C608C6331E
:10145300C608C633C608C633C6D5E0EA22E627F671
:101463000809E637F60809E637F60809E637F622EB
:10147300E026F608A3E036F608A3E036F608A3E074
:1014830036F622E026F008A3E036F008A3E036F0B3
:1014930008A3E036F022C3E697F60809E697F608B4
:1014A30009E697F60809E697F622C3E096F008A343
:1014B300E096F008A3E096F008A3E096F022E05649
:1014C300F608A3E056F608A3E056F608A3E056F69E
:1014D30022E056F008A3E056F008A3E056F008A374
:1014E300E056F022E0F608A3E0F608A3E0F608A32E
:1014F300E0F622E6F008A3E6F008A3E6F008A3E688
:10150300F022E0FAA3E0FBA3E0FCA3E0FD22EAF073
:10151300A3EBF0A3ECF0A3EDF022CAC0E0E6F0A346
:1015230008DAFAD0E0FA22CAC0E0E0A3C582CCC54B
:1015330082C583CDC583F0A3C582CCC582C583CDC7
:10154300C583DAE6D0E0CA22C3E498F8E499F91235
:10155300158C8026C3E49AFAE49BFBE920E7E912A1
:10156300158CE498F8E499F922C3E498F8E499F91E
:1015730012158CE498F8E499F9C3E49AFAE49BFB16
:1015830022EB20E7CFE920E7E0B90010BB0008E831
:101593008AF084F8AAF022E4FBC8FA22EB70227BDB
:1015A30010C833C8C933C9335007C39AC3DBF280A9
:1015B300069A50012ADBEAC833F4C8C933F4C9FADE
:1015C3002275F008E4C833C8C933C933C99AC99B23
:1015D3005004C92AC93BD5F0ECFBC833F4C8E4C9AD
:1015E300FA22600D08C6A2E713C618C613C6D5E0D3
:1015F300F322600C08C6C313C618C613C6D5E0F49D
:1016030022700422600D18C6C333C608C633C6D57C
:10161300E0F41822251810AF08F5184002151980B8
:1016230008F51840021519D2AF22C0D0251810AF03
:1016330008F518500205198008F51850020519D24B
:10164300AFD0D0222518F58210AF08F51840021547
:10165300198008F51840021519D2AF851983222580
:1016630018F582E43519F58322E4732518C582C081
:10167300E0E51934FFC583C0E0E518C3958224F87B
:1016830010AF0885831985821880088583198582A0
:1016930018D2AFCEF0A3E520F0A37808E608F0A3B4
:1016A300DEFAEFF0A3E58124FAF8E608F0A3E608F2
:1016B300F0A3E608F0A30808E608F0A3E608F0A301
:1016C30015811581D0E0FED0E0F8158115811581D3
:1016D300E8C0E0EEC0E0222518C582C0E0E5193479
:1016E300FFC583C0E0E518C3958224F910AF0885D0
:1016F30083198582188008858319858218D2AFCE15
:10170300F0A3E520F0A37808E608F0A3DEFAEFF0F3
:10171300A3E58124FBF8E608F0A3E608F0A3080894
:10172300E608F0A3E608F0A315811581D0E0FED00A
:10173300E0F815811581E8C0E0EEC0E02285198349
:10174300851882E0A3FEE0A3F5207808E0A3F6085D
:10175300DFFAE0A3FFE0A3C0E0E0A3C0E0E0A3C0A2
:10176300E0E0A3C0E0E0A3C0E010AF0885821885E5
:1017730083198008858218858319D2AFD083D082DC
:10178300020122851983851882E0A3FEE0A3F520D8
:101793007808E0A3F608DFFAE0A3FFE0A3C0E0E0E7
:1017A300A3C0E0E0A3C0E0E0A3C0E010AF088582DF
:1017B300188583198008858218858319D2AFD08351
:1017C300D08222C0D02518C582C0E0E51934FFC5F8
:1017D30083C0E0E518C3958224F310AF088583190D
:1017E3008582188008858319858218D2AFC8F0A333
:1017F300E9F0A3EAF0A3EBF0A37908E709F0A3D893
:10180300FAECF0A3EDF0A3EEF0A3EFF0A3D0E0F039
:10181300A3D0E0F0A3D0E0F0A3E520F0A3E5F0F03F
:10182300A322851983851882E0C0E0A3E0F9A3E031
:10183300FAA3E0FBA37808E0F608A3DFFAE0FCA331
:10184300E0FDA3E0FEA3E0FFA3E0C0E0A3E0C0E06F
:10185300A3E0F5D0A3E0F520A3E0A3F5F010AF08D3
:101863008583198582188008858319858218D2AFEC
:10187300D082D083D0E0F8D0E032740480067402C2
:1018830080027401C0E0F404121647D0E012151D63
:10189300227404800474028000CCC0E0EDC0E0E553
:1018A30018C39CCCAD1950011D10AF068C188D19AF
:1018B30080068C188D19D2AF12152AD0E0FDD0E026
:1018C300FC22D083D082E9C0E0E493A3C386F0C5B1
:1018D300F095F0F908E493A386F0C5F095F0700B4A
:1018E300E493A3C3994005E9048002A3E475F002DD
:1018F300A42582F582E5F03583F583D0E0F9E493FE
:10190300A3C0E0E493C0E022D083D082ECC0E0ED3A
:10191300C0E0E493A3FCE493A3FDED4C600D121926
:1019230057EC24FFFCED34FFFD80EFE493A3FCE4CC
:1019330093A3FDED4C600D121996EC24FFFCED34DE
:10194300FFFD80EFD0E0FDD0E0FCE493A3C0E0E432
:1019530093C0E022C0E0C3E4939608740193961801
:10196300400FE49366700808740193661870007062
:1019730019A3A3C3E49396087401939618A3A340F1
:101983000DD0E0D0E0D0E0021947A3A3A3A3A3A303
:10199300D0E022C0E0C0F088F0E4936670080874D9
:1019A300019366187000A8F0A3A3700BD0F0D0E0E9
:0E19B300D0E0D0E0021947A3A3D0F0D0E0228C
:1019C40074F51216DAEAFEEBFFEE2434F8EF340075
:1019D400F988088909EE2435121AF0F8EE24371232
:1019E4001AF0F50AEC850AF0A4FCAAF0850AF0EDD9
:1019F400A42AFDE82CF8E43DF97A257B0012158C25
:101A0400EA850882850983F074075AF87401B800DE
:101A1400028004C333D8FCFBEA131313541FF8EEFB
:101A240028F8EF3400F9E8245DF582E9121AF35B33
:101A34006003EA801CEE2436121AF0F5F0EA84A85A
:101A4400F0EE28F8EF3400F9E82438F582E9121AA8
:101A5400F3F97F0402178674F51216DAEAFEEBFF37
:101A6400EE2434121AF0C0E0EE2435F582EF34008F
:101A7400F583D0E0F08E828F83A3A3A3A3A3E0FA1F
:101A8400A3E0FB8E828F83A3A3A3A3A3A3A3E0FC61
:101A9400A3E0FDECC39AF50AED9BF50BEE247FF56C
:101AA40008EF3400F509850882F583E06401702BA2
:101AB400EE2480F582EF3400F583121898121AF997
:101AC400740212162DE960137CBF7D07EEFAEFFB5A
:101AD4001209FC850882850983E4F0AC0AAD0BEE9B
:101AE400FAEFFB1219C4122124021A56F582EF34BC
:101AF40000F583E022C082C083851882851983E0C3
:101B0400F8A3E0F9C3EA9CEB9D5010C3EC98ED995F
:101B1400401BC3EA98EB995014800EC3EA98EB99E2
:101B24004007C3EC98ED994004790180027900D014
:101B340083D0822274ED1216DA900479E06408608E
:101B440005E06407702C9061C8E060269004A7E06B
:101B5400F874FF68601CE875F005A4C8AAF02AF9B7
:101B640074A928FE740439FF8E828F83A3A3A3E093
:101B740070057900021CD8EE2468F510EF3400F5E6
:101B840011906060E0851082851183F0750AFB7501
:101B94000B07750800750900E5D914F50EE5D9544D
:101BA40003F50F601CEE2482F50CEF3400F50D7480
:101BB40003650F6058E50E6013EE2467121AF07087
:101BC4000B793DEEFAEFFB120A2080A69007F6E0AF
:101BD40064016026850C82850D83E06004780480AE
:101BE400027800850E08E508C398FA95E0FB120810
:101BF400D08A088B09EA45097006120CBA021B76D2
:101C0400850C82850D83E070048A0A8B0B78008032
:101C140016E5D9C0E08812E50A2512F582E50B34F1
:101C240000F583D0E0F008E8C3950E40E4850C820B
:101C3400850D83E0602874FC250EF50E780A1218D1
:101C440081AC0EA90FEEFAEFFB120ACE7402121643
:101C54002DE9700AAA08AB09121200021BC574030D
:101C6400650F6058850E0C750D00780C121881AC48
:101C74000AAD0BAA08AB09120A92740212162D853A
:101C84001082851183E0F87480687005750C7F807C
:101C940002880CE50CF50A780A121885E50FF50A96
:101CA400780A121885A90EAC08AD099004A7E0FAC9
:101CB4007B00120774740212162D8013900479E0CD
:101CC4006408700BAC0AAD0BEEFAEFFB120AFE12BD
:101CD4000CC679017F0C02178674F31216DA74FCB1
:101CE400121617EAFEEBFF8908A2AFE433F509C226
:101CF400AFEE2463F50AEF3400F50B8010AA0AABAB
:101D04000B120A4A1212009007C6E004F0850A82F8
:101D1400850B83E0F8A3E0F9E849602FE82402FA90
:101D2400E93400FBEA2402F50CEB3400F50D780CE1
:101D34001218818A828B83E0FCA3E0F9EEFAEFFBB0
:101D4400120A3E740212162DE960B29007C6E060D2
:101D5400579007C7E0F89007C6E0C398500C740288
:101D6400650870449007C8E0603E8E828F83A3A309
:101D7400A3A3E0851882851983121DBC7402121670
:101D840062E8121DBC9007C5E028F07402121662C6
:101D9400AC82AD83851882851983AA82AB837901CD
:101DA4001207809007C6E4F0E509A2E092AF74043C
:101DB40012162D7F06021786F0A3E4F09007C6E002
:101DC400F8220000851A87851BC622C0E074EF1232
:101DD40017C6A2AFE433FEC2AF759B00906182E0E8
:101DE400A2E05012E591A2E0500C7591FE740165D9
:101DF4001A7003121B38E0A2E55051E591A2E55098
:101E04004B7591DF900479E064076005E064087025
:101E1400237401651A703579019004A7E0FA75F00E
:101E240005A4CAA8F028FB74A92AFA74043BFB127F
:101E34001CDD8018E0640D701390049BE004F064D2
:101E4400287002E4F07A00E0F9120CCC906182E090
:101E5400A2E64003021EF6E591A2E64003021EF646
:101E64007591BF900479E064057008120BD0120BD1
:101E7400DC8003120BD6751A00120C42E990047A26
:101E8400F07900120C241209607A017B0090047826
:101E9400E0F9120F24907803E0644270559007FA39
:101EA400E014F0704DC2AF121EAE00781DD0E0F603
:101EB40018D0E0F6E59F540770057509FF80037597
:101EC400097FC4C0E0781CE6F50808E65509F50961
:101ED400740B78081215F5D0E02508F8906270E0CC
:101EE400A2E740F8E8C333906272F0906270E0D2E7
:101EF400E0F0906181E0A2E35009E5E9A2E3500338
:101F040075E9F7A3E0A2E75009E591A2E75003754C
:101F1400917FEEA2E092AF7F04021825C0E0C0D00A
:101F2400C082C083906183E0A2E05009E5BFA2E0D3
:101F3400500375BFFEE0A2E15009E5BFA2E15003E2
:101F440075BFFDE0A2E25009E5BFA2E2500375BFF0
:101F5400FBE0A2E35009E5BFA2E3500375BFF7E03D
:101F6400A2E45009E5BFA2E4500375BFEFE0A2E587
:101F74005009E5BFA2E5500375BFDFE0A2E65009B2
:101F8400E5BFA2E6500375BFBFD083D082D0D0D0C6
:101F9400E032C0E074F21217C6E5A7A2E4500FE5E0
:101FA400A1A2E4500953A7EF75A1EF121FEAE5A718
:101FB400A2E5500CE5A1A2E5500653A7DF75A1DF09
:101FC400E5A7A2E15009E5A1A2E1500375A1FDE551
:101FD400A7A2E2500CE5A1A2E2500653A7FB75A10B
:101FE400FB7F0102182574F81216DA751A019004A1
:101FF40079E0640670077A007B00120BB8A2AFE4A4
:1020040033FED2AF90047FE0640170187A207B0025
:10201400900478E0F9120FA27A207B00900478E013
:10202400F9120F2A906182E0D2E6F09007F7E0609F
:102034002185C61B801690047EE064017008E5C605
:1020440054F84405F5C653BEFC121DC87401651A44
:1020540060E4EEA2E092AF7F0102178674F11216DB
:10206400DA8A088B098C0A8D0B9090747808121404
:10207400C1740F121662780C1214E7909074780CE5
:102084001214C17808790C1212F99090A4501078A7
:1020940008790C12149978081213194014800E78D8
:1020A4000C7908121499780C1213195004790180D0
:1020B4000279007F0802178674ED1216DA8A088BFB
:1020C400098C0A8D0B90907478081214C174131241
:1020D4001662780C1214E7909074780C1214C1787C
:1020E4000C79081212F940117808790C121499AA83
:1020F40008AB09AC0AAD0B80227510007511007590
:1021040012007513017810790C121499781079085B
:10211400121460AA10AB11AC12AD137F0C02178617
:10212400C082C083E9906000F0D083D08222C2AF25
:1021340002000022C0E074F21217C6A2AFE433FE1C
:10214400D2AFC2C0E5D1A2E4500653D1EF1211D0F0
:10215400EEA2E092AF7F01021825C0E074F21217DC
:10216400C6A2AFE433FED2AFE589A2E04006E5891A
:10217400A2E15003121128758900758900C2C5EEC9
:10218400A2E092AF7F01021825C0E0C0D0E8C0E011
:10219400E9C0E0E5A8D2AFC2C7A2E7A2E792AFD0F8
:1021A400E0F9D0E0F8D0D0D0E032C0E0C0D0E8C050
:1021B400E0E9C0E0C008C009C082C083A2AFE43334
:1021C400F9D2AF901052E0F8A3E0687008539AFB7C
:1021D400A374018026C2E9901052E0F50874012529
:1021E40008F074D22508F582740F3400F583E0F505
:1021F400C1901052E0C394804002E4F0E9A2E0925E
:10220400AFD083D082D009D008D0E0F9D0E0F8D0A4
:10221400D0D0E032FFFFFFFFFFFFFFFFC082C0838B
:10222400E990117EF0D083D08202012274F6121656
:102234006EE9900365F07CA57D037AFF7BFF1206AF
:10224400D87A008A08750900740278081216047492
:10225400662508F87403350912227FA3F00AEAC33D
:10226400940340DF7905120666900365E0F91205D0
:10227400887AF07B0612088202387BF98882898387
:1022840074FF12228CE4F022F0A3123726A32274E6
:10229400F412166E8A088B09EB5480603090036543
:1022A400E0F9120F0C8A0A8B0BAE0AAF0BEE4F60EB
:1022B400138E828F83E064B07003120678EEFAEF17
:1022C400FB120EFAAA08E5096480FB80047A007BFD
:1022D4000002246474F212166E74FC121617EAFEDD
:1022E400EBFFEE4F60387402121662EEF0A3EF12A9
:1022F40026E9ECF0A3ED1226E9AA82AB831205824B
:10230400E9F508707174121216621232CDE50A45AD
:102314000B60638E828F83122384EE4F70057508E1
:102324000280537A067B00120F608A0C8B0DA80C76
:10233400A90DE8497005750813803B88828983E4F8
:1023440012228CEEF0A3EF12376EE50AF0A3E50B30
:10235400F090037312245C9003736017E0FCA3E015
:102364008003EAFCEBFD8C828D8312245C70F38C79
:10237400828D831231D0A908740412162D023959A2
:10238400A3A3A3A3E0FEA3E0FF2274F212166E89B6
:102394000AE975F045A4FEAFF0900372E4F09003EF
:1023A4006812245C6028120F667900890875090098
:1023B4007402780812160474682508F582740335CB
:1023C40009F583E4F0A3F009E9C3940340DDEEFAD0
:1023D400EFFB120F608A088B09EA45096075EEFC71
:1023E400EFFD7900120EE27D008D0C750D00740274
:1023F400780C1216047468250CF87403350DF9E58D
:102404000AF5F0EDA475F017A4FAABF0E5082AFA82
:10241400E5093BFB88828983EAF0A3EBF07E008028
:102424001BEE75F017A4FAABF088828983E02AFCCE
:10243400A3E03B8C82F583E4F0A3F00EEEC3950A8F
:1024440040DF0DEDC3940340A0E50A900372F079D8
:102454000080027913023959E0FAA3E0FBEA4B2227
:102464007F0402174074F412166E7900EAA2E05059
:102474001B75083675099078081218817C047D0054
:102484007A807B11120660740212162D80D2C082EB
:10249400C08390037312376049601C88828983A3C8
:1024A400A3E06A7003A3E06B8882898370E7A3A327
:1024B400A3A3122F7480047A007B0002222974EEF5
:1024C40012166E74FC121617EAFEEBFF851882854D
:1024D4001983E4F0A3F0EE24021231BBEE240512BA
:1024E40026D7EE2404F50EEF122AB3E024FE603959
:1024F40024FC604624FE605224FE605E24FE7003C9
:102504000225DC24FE700302265424FE70030226F6
:102514006324FE700302267224FC700302268124C5
:10252400FE70030226900226CD90038C7417F0A34C
:10253400E41226F11202400226CD85188285198301
:10254400AC82AD8312067E02269D8518828519838E
:10255400AC82AD8312068402269D850C08850D0984
:102564007402121662AC82AD8385088285098312D7
:102574002F741205A68A0C8B0DAC0CAD0DEC4D60BE
:1025840042E4F50CF50D780C121881750C8C750D60
:1025940003780C121881750C8D750D03780C1218C4
:1025A4008174081216621218987916122F6E120688
:1025B400C0740812162DE9F50C700B122F6A120262
:1025C40058800F750C018508828509831226DF1255
:1025D40031D0850C080226A07402121662AC82ADBA
:1025E40083850C82850D83122F741205A68A108BA5
:1025F40011AC10AD11EC4D6043850C82850D83A3A5
:10260400A312189875108C7511037810121881751F
:10261400108D751103781012188174081216621245
:1026240018987916122F6E1206C0740812162DE926
:10263400F509700B122F6A12025E800F750901856D
:102644000C82850D831226DF1231D0850908804C57
:10265400851882851983AC82AD8312068A803A85F7
:102664001882851983AC82AD83120690802B85185D
:1026740082851983AC82AD83120696801C851882EC
:10268400851983AC82AD8312069C800D85188285E2
:102694001983AC82AD831206A2E9F508E508602926
:1026A4008E828F83A3E06414601F850E82850F835E
:1026B400E090038C1226E9123A2890038D1231D04F
:1026C400E508A31226F112023AEEFAEFFB120624F1
:1026D4000230C2F50CEF3400F50D22123A2C8518A5
:1026E4008285198322F085188285198322F07C8CD7
:1026F4007D03850A82850B83E0FAA3E0FB2274EE56
:1027040012166E74FC1216178A0A8B0B8C0E8D0F20
:10271400EA2405F508EB3400F5097C157D00790001
:102724007A8C7B03120EE2E5082402F50CE509120B
:1027340026DA85188285198385821085831178109D
:10274400121881850882850983A3A3A3A3122BFCF5
:10275400121881E5082405F510E5093400F511780F
:1027640010121881850C82850D83122F5E122F742E
:102774001205A0740612162D8A108B11AE10AF111B
:10278400E50A2402F50AE50B1231BEEE4F7003028E
:1027940028CB80177402121662122F7488828983E0
:1027A400EAF0A3EBF090038CE004F090038CE0C318
:1027B400940540030228CBE4F510F51178101218A3
:1027C400817510757511037810121881751076755E
:1027D400110378101218817406121662121898796F
:1027E40010EEFCEFFD122F6E1206C0740812162DA7
:1027F400E9705E850882850983A3A3A3A3A3A3A389
:10280400E0F8900375E0687048122BFC1218817C84
:10281400767D03E5082408FAE5093400FB120EDC92
:10282400740212162DE960298E828F83A3A3A3A3B9
:10283400122F7490038CE0F51074027810121604B1
:10284400748D2510F58274033511F583EAF0A3EB3A
:10285400F0740212166285821085831178101218A2
:10286400817402121662121898850C82850D8312E7
:102874003A3D1205AC740412162D8A108B11AE1059
:10288400AF1190038CE0F5107511007402781012EA
:102894001604748C2510F874033511F98882898321
:1028A400A312245C700302278FE82403F8E93400A0
:1028B400F9EE4F60030227988882898374FFF0A39E
:1028C400F090038CE004F090038CE0600A122F6A0D
:1028D40012024C7900800B8508828509831231C766
:1028E400790A0230C274EA12166E74FE1216178C3C
:1028F400128D13EA2405F50CEB123A47122388755E
:102904000800750900EA2402F510EB3400F511857E
:10291400188285198385820A85830B780A121881A7
:10292400850C82850D83A3A3A3A3122ABD1218814B
:10293400E50C2405F50AE50D1231BE780A1218815A
:10294400850C82850D83123A3B1205A0740612167B
:102954002D8A0A8B0BEA450B7003022A7EEA2404B3
:10296400F50EEB122AB31223888A828B83A3A3A3C6
:10297400E0F9851082851183122F7412058EE9F512
:10298400096003022A7EE4F514F5157814121881FF
:1029940075147575150378141218817514767515E8
:1029A4000378141218817406121662121898791397
:1029B400AC0AAD0B851082851183122F741206C0E8
:1029C400740812162DE9F5096003022A7E90037536
:1029D400E0F8E5087009E0240290038DF080179078
:1029E400038DE0FCE82402FAE43400FBEA6C700195
:1029F400EB6003022A82850882AA82122BF39414C4
:102A0400122BEB5075850E82850F83E0C0E0122EE9
:102A14002AD0E0F00508850E82850F83A3E0C0E08C
:102A240085080A748E250AF58274033400F583D070
:102A3400E0F00508900375122ABD1218817C767D9A
:102A44000385080A748E250AFA74033400FB120EF7
:102A5400CA740212162D900375E02508F50874FF58
:102A64006E700374FF6F6012EE24010EEF3400FFEA
:102A7400E508C394145003022913E5086013122EC9
:102A840050851082851183122F74120252790080AE
:102A940014E509700375090A851282851383EEF023
:102AA400A3EFF0A909740212162D7F0E0217403409
:102AB40000F50F850E82F5832212377D2274EE1203
:102AC400166E74FE1216178C0E8D0FEA2405F50C83
:102AD400EB1226DA750B0090038CE4F0F50AEA2475
:102AE40002F508EB3400F509804990038CE0FA9074
:102AF4000375E0F8122BF39417122BEB400D90039F
:102B04008CE0F87416C398900375F0122BFC12181D
:102B1400817C767D03748D2AFA74033400FB120ED3
:102B2400CA740212162D900375E0F890038CE02805
:102B3400F0050AE50C2416F582E50D3400F583E072
:102B4400F8E50AC3984003022BD490038CE0C394A5
:102B540016507DE50AC333F8E433F9E50C28FEE5A5
:102B64000D39FF851882851983AC82AD838E828FDF
:102B740083122F741205A68A108B11AC10AD11ECC0
:102B84004D7005750B018043E4F510F511781012B2
:102B940018817510757511037810121881751076E7
:102BA400751103781012188174061216621218989F
:102BB4007916850882850983122F741206C0740859
:102BC40012162DE9F50B7003022AEE1231C38010A0
:102BD4007C8C7D03850882850983122F741202641C
:102BE400A90B74020230C4E99400C365D03322EA0D
:102BF40028F8E43400F9E822E0F5107511007810A3
:102C04002274EA12166E74FC1216178A0C8B0D8C41
:102C1400128D13EA2405F50AEB1231BE750800750E
:102C24000900E50A2402F510E50B3400F5117402DD
:102C340012166285820E85830F780E121881850A1A
:102C440082850B83A3A3A3A312372D121881E50A4F
:102C54002405F50EE50B3400F50F780E1218818566
:102C640010828511831230BC122F6E1205A07406D7
:102C740012162D8A0E8B0FAE0EAF0FE50C2402F543
:102C84000EE50D3400F50F80408882898374FFF0CF
:102C94000508122E3674FFF00508900375E0F50C54
:102CA400750D00780C1218817C767D0385080C74F0
:102CB4008E250CFA74033400FB120ECA7402121629
:102CC4002D900375E02508F508EE4F60718E828F14
:102CD40083A3A3A3E0F9850E82850F83122F7412B8
:102CE400058EE9F509EE24041226D7E97044E4F5CB
:102CF40014F5157814121881751475751503781464
:102D040012188175147675150378141218817408D5
:102D14001216621218987911EEFCEFFD850E828569
:102D24000F83122F741206C0740812162DE9F509C8
:102D34006027850C82850D83122E461231D0E5085A
:102D44007003022E10122E50850E82850F83122FCF
:102D54007412026A7900022E25850882AA82EA90FA
:102D640003757009E0240490038DF08022E0F8904C
:102D7400038DE0F514E82404FCE43400FDEC651450
:102D84007001ED70C0122BF39412122BEB50B68528
:102D94000C82850D83E0C0E0122E2AD0E0F00508F5
:102DA400850C82850D83A3E0C0E0122E36D0E0129C
:102DB4002E6285820C85830D780C1218817404129E
:102DC4001662121898851082851183123A3D1205F5
:102DD400AC740412162D8A0C8B0DAE0CAF0D850845
:102DE4000C748E250CF874033400F9EE4F70030252
:102DF4002C8D851882851983E088828983122E623E
:102E0400A3E0C0E0122E36D0E0022C9BE50970034B
:102E140075090A850A82850B83122E461231D0A9C0
:102E2400097404022AAB748E2AF58274033400F503
:102E3400832285080C748E250CF58274033400F506
:102E44008322123A2C8512828513832290038DE00B
:102E5400F5F0E5088490038CF07C8C7D0322F0056A
:102E6400088518828519832274EC12166E74FE127A
:102E740016178A088B098C0E8D0FEA2405FEEB3495
:102E840000FF851882851983AC82AD838E828F837F
:102E9400122F741205A68A0A8B0BEE24181226D759
:102EA400EA450B7003022F391230A4503285188280
:102EB400851983122F741206B48A108B11EA4511F6
:102EC400606E7912AC0AAD0B850882850983122FD6
:102ED4007485108285118312166CE9F50A705BE41F
:102EE400F50AF50B780A1218818E828F83A3A3E06A
:102EF400F50A780A121881EE24031231BB780A12FB
:102F040018818E828F83122F5E122F741206C6745C
:102F14000612162DE9F50A7021850C82850D83E0D1
:102F2400701F850882850983122F74120270801124
:102F3400750A0E8009750A018004E50A60031231DE
:102F4400C3850C82850D83E0600479008002A90AA0
:102F5400740212162D7F0C021740E0FCA3E0FD85DD
:102F64000882850983227C8C7D03850A82850B83F4
:102F7400E0FAA3E0FB2274EE12166E74FE1216172A
:102F84008A088B098C0C8D0DEA2405FEEB3400FFB6
:102F9400750E00851882851983AC82AD838E828F6D
:102FA40083122F741205A68A0A8B0BEA450B700351
:102FB4000230901230A45035851882851983122F5F
:102FC400741206B48A0E8B0FEA450F605E7912AC58
:102FD4000AAD0B850882850983122F74850E8285BC
:102FE4000F8312166CE9F50E600302309385088294
:102FF4008509831232CDAA0AFB1206A88A108B1106
:10300400A810A911E849701E7AFF7BFF1206A88A4E
:10301400108B11A810A911E849606C88828983E596
:103024000AF0A3E50BF0750A008007750E0E805FA9
:10303400050A900372E0FAE50AC39A504AE50A7554
:10304400F017A4FAABF088828983A3A3E02AFAA339
:10305400E03BFB8A828B831230BCEC4D70D2750A44
:1030640017750B00780A121881EEFCEFFD120ECAD8
:10307400740212162DEEFCEFFD8508828509831279
:103084002F741202768014750E098003750E0112D6
:103094003A24850C82850D831231D0A90E022BE6C9
:1030A400E5082402F508E5093400F5098A828B83D2
:1030B400A3A3A3E0A2E522A3E0FCA3E0FD22740401
:1030C40012162D7F0A02174074EC12166E8C108DA6
:1030D40011EA2405F50CEB1226DA750F00EA240236
:1030E400F50AEB1231BE850A82F583122F7412069B
:1030F400A88A088B09EA450970030231B0750E00ED
:103104008071850C82850D83E06401704F8E828FFF
:1031140083A3A31218988E828F83A3A3A3A3E0F59D
:10312400127513007812121881EE2405F512EF348B
:1031340000F5137812121881122F6E1206C6740647
:1031440012162DE9F50F6014850C82850D83E4F0C9
:10315400123A248510828511831231D07C177D00A8
:103164007900EEFAEFFB120EE28E828F83E4F0A375
:10317400F0050E900372E0F8E50EC398501FE50EBB
:1031840075F017A4F8A9F0850882850983A3A31212
:103194003A51FCA3E0FDEC4D600302310685088240
:1031A40085098374FFF0A3F0E50F7006122F6E12E9
:1031B400027CA90F022F59F50AEF3400F50B228E79
:1031C400828F83123A2C850E82850F83E8F0A3E95F
:1031D400F02274F612166E7C008C087509007402D5
:1031E40078081216041232086A7003A3E06B7006A2
:1031F400E8FAE9FB800B0CECC3940340DC7A007B17
:103204000002387B74662508F874033509F988824E
:103214008983E02274F712166E7F00EF75F003A421
:10322400F8A9F0EC28F8ED39F988828983E06A700E
:1032340003A3E06B7006E8FAE9FB800B0FEFC3947D
:103244000440D87A007B007F0102174074F61216FE
:103254006E1206728A828B83E582458370067A0039
:103264007B008007A3A3A3A3122F7402387B74F2FC
:1032740012166EE9FE740E1216621232CD7410121A
:1032840016621237488C828D83E064027036A31272
:103294003A32F50CA3E0F9A80C740268700374299F
:1032A400697021750C02750D00780C12188178086C
:1032B400121881780A121881EEF91206EA740612BD
:1032C400162D80027901023959E0F50AA3E0F50BC5
:1032D4002274E812166E74FB121617E9851882859B
:1032E4001983F08A168B17ECFEEDFF751000741D20
:1032F400121662123A28741D1216621231D08E828E
:103304008F83A3A3A3E0A2E4502D741D12166212AE
:103314002F741206B48A828B83E58245837003027C
:103324003717790AEEFCEFFDAA16AB1712166CE9F3
:10333400F510600302371A741F12166212374874AC
:10334400211216621232CD7423121662E0F50EA316
:10335400E0F50F8E828F83E0640260030236C5A31A
:10336400123A28850882850983A3858212858313EE
:10337400EE24061226D788828983E0FAA3E0F9EACC
:103384002400F514E439F515781412190B01000022
:10339400280128B933070002287E340328EB3300C0
:1033A40029B5350129E035022981350329B53504CC
:1033B400295F36C536E50E450F60030236C0850C1D
:1033C40082850D83123760FAE9FB8A828B83E0855C
:1033D4000A82850B831237741218818A828B83A325
:1033E400E0FCA3E0023649E50E450F60030236C057
:1033F400850A82850B837401F01237508508828513
:103404000983F07C007D008E828F83A3A3A3A3E0B5
:103414002401FAA3E03400FB1205A6EA4B60418ABA
:10342400828B83E02402F8850A82850B83E028F0EE
:10343400EA2404F8EB3400F988828983E085128257
:103444008513831237861237741218818A828B830C
:103454001230BBE5082403FAE5093400FB02364EBA
:10346400850A82850B83E02404F07C047D007900C6
:10347400AA12AB13120EE202371AE50E450F6003CF
:103484000236C0123750FEA3E0FF850A82850B8303
:103494007404F0EE850882850983F0EF8512828535
:1034A4001383F07403121662AC82AD83EEFAEFFB61
:1034B4001205A68A0C8B0DEA450D70030235628A4B
:1034C400828B83A3A3122384740112166285820E55
:1034D40085830F780E1218817405121662121898DB
:1034E4007CFF7DFF1205AC740412162D8B0FEA4588
:1034F4000F7033850C82850D8312372D1218818548
:103504000C82850D83A31218987C027D007AD17BEE
:1035140090120354740412162DE9700A74011216E1
:103524006274FFF0A3F08E828F83E06402703975B9
:103534000C02750D00780C1218818E828F83123064
:10354400BBE5082404FAE5093400FB120ECA740230
:1035540012162D850A82850B83E0240280097401EA
:10356400121662EEF0A3EFF0740112166212373EE7
:10357400F07401121662A31237360236BAE50E450C
:103584000F60030236C0850C82850D831230BCAAFD
:1035940016AB171206DE850A82850B837402F0EAE5
:1035A400850882850983F0851282851383EB0236B0
:1035B400BDE50E450F60030236C0123750F8A3E094
:1035C400F9850A82850B837402F0E88508828509EF
:1035D40083F0E98512828513830236BD850C8285CA
:1035E4000D83122F74120EC4EAFC8C82A882C39538
:1035F4000EE4950F405FE8650E7002E50F70047CE1
:10360400008022851882851983E0FAE50E2AFAE5FE
:103614000F3400FBC3EA98EB94005003E08005E507
:103624000ECCC39CFCEC850A82850B83F08C0A7556
:103634000B00780A121881850C82850D83E0250E13
:10364400FCA3E0350FFDAA08AB09120ECA740212DE
:10365400162D02371A75100702371AE50E450F703A
:103664005B850C82850D83123A28850A82850B833B
:103674007407F088828983123736123726E0851260
:1036840082851383F0E82402FAE93400FB8A828BF2
:103694008312373612376512373EA312376E12374C
:1036A40042F0E82405F8E93400F988828983123766
:1036B40042A3123786A3A3A3A3F0805A75100B80EC
:1036C40055741D121662122F741206728A828B832D
:1036D400E5824583603D123A28880C890DE8450D42
:1036E4006031780E121881780A121881780812183D
:1036F400817406121662E0F9EEFCEFFDAA16AB1710
:10370400850C82850D8312166C740612162DE9F54C
:1037140010800375100EA910740512162D7F100267
:103724001740F088828983A322E0F50E750F007894
:103734000E22E08508828509832212378D221237F2
:103744008DA3A322E0F508A3E0F50922850C828568
:103754000D83E0F8A3E0F5838882E022123A2CE896
:1037640022A3A3F08A828B83A32212228EA3A322F4
:10377400F08A828B8312377D22E0F50A750B00787C
:103784000A2212372612378D22E0850882850983A2
:10379400A3A32274EE12166E74FE1216178A0A8BF5
:1037A4000BECFAEDFB7414121662E0F510A3E0F5CD
:1037B400117416121662E0FE7418121662E0F50E09
:1037C400A3E0F50F851882851983AC82AD831205B9
:1037D400A68A0C8B0DEA450D6049851882851983EC
:1037E400122F741206728A828B83E5824583602FBE
:1037F400A3A3123748E50845096024780E121881FE
:103804007810121881EEF9AC0CAD0DAA0AAB0B8539
:10381400088285098312166C740412162D800679A9
:103824000E80027901022BE674F612166E74FE12F3
:103834001617740C12166212376085188285198364
:10384400F07401121662E9F0E4F508F5097808123B
:10385400188175080278081218817404121662859A
:10386400820885830978081218811206C674061224
:10387400162D740212162D7F0202174074F71216C9
:103884006EEAFEEBFF89087CA57D031206DEEA548E
:1038940002600BA908EEFAEFFB12059A8002790187
:1038A40002324B74F612166E74FF6A700374FF6B67
:1038B400701B7B00EB75F003A4F8A9F0EC28F8ED7D
:1038C4003912227F0BEBC39404501480E71206AE26
:1038D4008A088B09A808A909E84960031222808094
:1038E4009674F612166E1206AE8A828B83E58245B2
:1038F400836006A3A3E0FA80027A007B0002387B8F
:1039040074F212166E8A088B09ECFEEDFF740E1227
:103914001662E0F50A1206AE8A0C8B0DA80CA90DEE
:10392400E8497026EEFCEFFD7AFF7BFF1206AE8AB3
:103934000C8B0DA80CA90DE8497004791180168828
:10394400828983E508F0A3E509F088828983A3A32B
:10395400E50AF079007F0602174074EE12166EEA4B
:10396400FEEBFF8C088D09890C7414121662123A4E
:10397400287416121662122F74750D00E84960033C
:10398400023A1C7402650C6003023A177412121690
:1039940062123A32FCA3E0F9EC2400F50EE439F5A6
:1039A4000FEAF4F8EBF4F9EC58F8E50F59F9E849A3
:1039B400705CE5082406F8ED3400F9880A890B8860
:1039C40082F583123A3D1206DE8A108B11E50E65EC
:1039D400107004E50F65116042780E121881850A93
:1039E40082850B83123A3D1206E4740212162DE905
:1039F400F50D7027780E121881850882850983A336
:103A0400A3123A3B1206F6740212162D800D750DA0
:103A1400808008750D0D8003750D0BA90D0230C74C
:103A24008E828F83123A2C22E0F8A3E0F922123A14
:103A34002C88828983E022A3A3E0FCA3E0FDEEFAB4
:103A4400EFFB223400F50D850C82F58322E028FE7D
:103A5400A3E039FF8E828F83E02274F212166EEA9D
:103A6400FEEBFF890B7401650B600E7402650B702D
:103A74006B79011208A0E97063EEFAEFFB1206A855
:103A84008A088B09EA45096048750A00800B7C178F
:103A94007D007900120EE2050A900372E0F8E50A4F
:103AA400C3985022E50A75F017A4F8A9F085088296
:103AB400850983A3A3E028FAA3E039FB8A828B83D8
:103AC4001237604970C885088285098374FFF0A3A2
:103AD400F07CA57D03EEFAEFFB1206D80239597487
:103AE400F212166E8A088B09ECFEEDFF740E1216A4
:103AF400621232CD90117EE0F4603D7A097B0012AF
:103B04000EF4EA4B60328A828B8374B1F0A3E41220
:103B14003767A3123765A3E508F0A3E509123B3F15
:103B2400EEF0A3EF123B3FA3A3E50AF0A3E50BF0ED
:103B340090117EE0F9120F00023959F08A828B83CA
:103B4400A3A3A3A3A32274F012166E74FA12161779
:103B5400890BECFEEDFF750A008A088B09780812C0
:103B640018C5000410943D8D3BAB3BC53BDD3BFBCE
:103B74003B133C363C4E3C623C8C3C143D253D3C66
:103B84003D563D943D773DA23C7401650B600302B4
:103B94003D8F8E828F83E0F8C394034003023D8FF0
:103BA400E89011C2023D8C7402650B6003023D8FE4
:103BB4008E828F8312454C9011C3E8F0A3E9023D35
:103BC4008C7401650B6003023D8F123DC1400302FA
:103BD4003D8FE8900DBF023D8C7401650B600302BC
:103BE4003D8F8E828F83E0F8C394054003023D8F9E
:103BF400E8900DC0023D8C7401650B6003023D8F9B
:103C0400123DC14003023D8FE8900DC1023D8C740A
:103C140010650B6003023D8F750810750900780864
:103C24001218817AC27B0D120ECA740212162D026A
:103C34003DB57401650B6003023D8F123DC1400325
:103C4400023D8FE8900DD2023D8C7401650B600338
:103C5400023D8F8E828F83E09011C6023D8C7404E6
:103C6400650B6003023D8F8E828F83780C1214E7FC
:103C740090903C780C1213195003023D8F900DD490
:103C8400780C1214F6023DB5E96003023D8F12046C
:103C9400D4E970051210928060900E67806E7407EC
:103CA400650B6003023D8F750806750900780812DC
:103CB40018818E828F83A3AC82AD83740212166244
:103CC400AA82AB83120ED0740212162D7C007D00E2
:103CD400851882851983AA82AB838E828F83E0F94B
:103CE40012102CE9F508C3940A4003023DB21204F1
:103CF400D4E9700CA9081210987950121284806EBD
:103D040074682508F582740E3400F5837401807894
:103D14007401650B7075123DC15070E8900DD3802D
:103D2400677401650B70648E828F83E0F8C3940A14
:103D34005059E89011C580507401650B704D8E8206
:103D44008F83E0F874F928C3940A503FE89011C7B0
:103D540080367401650B7033900E66E0F88E828FA6
:103D640083E0900E66F0E87048E06401704312103E
:103D740086803E7401650B70128E828F83E0F8C3D7
:103D840094045007E89011C8F08026750A18802121
:103D9400C3EA9427EB940050157402650B700F8EE0
:103DA400828F8312493C1203C0E9F50A8003750A25
:103DB40002A90A740612162D7F080217408E828FFC
:103DC40083E0F8C394022274F212166E74DA1216A7
:103DD40017890AECFEEDFF7420121662AC82AD83E3
:103DE400758390758230740612152A742012166237
:103DF400AC82AD8312102CE9F5087434121662E01B
:103E0400F50BE9C3940A4003023F2612106EE9F54C
:103E1400099011C2E06402700474018001E4F50C9D
:103E2400780C121885AD0BAC09A908EEFAEFFB1259
:103E340010BC740112162D7C147D007900740C12D0
:103E44001662AA82AB83120EE275F006E508A4F5A9
:103E54000B740C121662AC82AD837A107424250B99
:103E6400F912127EE9703D7C1079FF740C1216620F
:103E7400AA82AB83120F48E9702A741C121662AC32
:103E840082AD837A047425250BF912127E740C1208
:103E94001662AC82AD83E509A2E0E433F9EEFAEFF1
:103EA400FB120450851882851983AC82AD837A0C89
:103EB40074702508F912127EE970538518828519E9
:103EC40083AA82AB83121062750800E50875F003BB
:103ED400A4F8A9F0851882851983E58228F8E5837A
:103EE400124749124936601D88828983A3A3E0F5ED
:103EF4000C750D00780C121881EEFAEFFB1206CC4B
:103F0400740212162D0508E508C3940440BDE509A2
:103F1400A2E15046900DBEE0F9EEFAEFFB1206D294
:103F240080387408650B70329011C2E06402702A04
:103F34007C007D00A90AEEFAEFFB1210B61251CBF9
:103F4400601812455188828983E5824583600B7C21
:103F5400007900EEFAEFFB12166C79007426024920
:103F64001274F012166EEAFEEBFF8C088D09750AC6
:103F74000AE9600C14600914603714607902401473
:103F840012107AE9F50AC3940A4003024014E508C2
:103F94004509607C750E06750F00780E121881EEC7
:103FA400FCEFFDAA08AB09120ECA740212162D808A
:103FB4005F750B00750E06750F00780E121881EEF2
:103FC400FCEFFDE50B75F00EA4F8A9F074E028FAF7
:103FD400740D39FB120EDC740212162DE9600C8587
:103FE4000B0AE50AC3940A50278016050BE50BC398
:103FF400940A501C80BE121080E9F50AC3940A503A
:104004000FE50845096009AA08AB09A90A1210744A
:10401400A90A023DBC74F412166E89087509157458
:10402400FF6A700374FF6B70277E00AC087A027B12
:1040340000EEF9121050E960037509000EEEC39406
:104044000A40E8E50860537AAA7B101208B2804A55
:104054001208948A0A8B0BAE0AAF0BEE4F60387CC1
:10406400007D00EE2405FAEF3400FB8E828F83A3DB
:10407400A3A3A3E0F912102CE9C3940A500CAC08D2
:104084007A027B00121050750900E508600CEEFA04
:10409400EFFB1210AA8003750914A9098005740E98
:1040A40012162D7F0402174074F212166EECFEED08
:1040B400FF750815740E121662E0F50AA3E0F50BFD
:1040C40074FF6A700374FF6B7021750900AC0AAD4C
:1040D4000BEEFAEFFBA909121056E960037508000C
:1040E4000509E509C3940A503F80E21208948A82C4
:1040F4008B83E5824583602D7C007D00E582240569
:10410400FAE5833400FBA3A3A3A3E0F912102CE97E
:10411400C3940A5013AC0AAD0BEEFAEFFB1210561F
:104124007508008003750814A908024915C082C0E7
:1041340083900DD8EAF0A3EBF0900DBEE0FC7D0077
:104144007A267B001203C0900DBEE0F912064E02DF
:104154004E0B74EC12166E8A088B09E9FE74141265
:104164001662780C1214E77F00EE702E780812188D
:104174008190903C78101214E7780C79101213B8DF
:10418400AA10AB11AC12AD13120462740212162DF4
:10419400E9FF60097901AA08AB0912045CEFF97F11
:1041A4000C02174074F012166E74EC121617EAFE25
:1041B400EBFFEE240CF50EEF3400F50F8E828F83A7
:1041C400A385820A85830BEE2403F508EF3400F5FA
:1041D400098E828F83A3A3E024FA70030244ED24A2
:1041E400FD7003024404147003024280146010142E
:1041F400700302443824FE700302437C024545EEFA
:104204002409F50AEF3400F50B1251CB6043E0F5B5
:1042140083888212454C880C890DE8450D603285EF
:104224000E82850F83E0F50E780E121885EE240BAE
:10423400F582EF124710F9850A82850B8312493CF7
:104244000A0A0AAB09850C82850D8312166C024496
:10425400BD850A82850B83121898900DD41215051A
:10426400120462740212162DE970030245457901A5
:10427400850A82850B83124DD60244D1850A828534
:104284000B83E06003024352EE2405F50CEF340087
:10429400F50D850C82F583E0A2E0400302435290C1
:1042A4000E721251CE60030243527C0E7D007900DF
:1042B400851882851983AA82AB83120EE2850E8249
:1042C400850F83124DD6EA4B6010750E06750F00EC
:1042D400780E121881EA2410801B124DD012089413
:1042E400EA4B7003024545750E06750F00780E12F1
:1042F4001881EA2405FCEB3400FD7402121662AA4C
:1043040082AB83120ECA740212162D850C82850D9F
:1043140083E0A2E25004D2F08002C2F0A2F0E433BF
:10432400F8740C121662E048F0EEFCEFFD8518827A
:10433400851983AA82AB83121068E970117A027B13
:1043440000900DBEE0F9120F247900024547125186
:10435400CB7003024545124551E8FEE9FFEE4F706C
:1043640003024545850A82850B83E0FC7901124DE1
:10437400D08E828F830243FE850A82850B83E0649C
:10438400067051124DD01208948A0A8B0BEA450B21
:1043940060429011C8E0146008146028146018800A
:1043A400337C007D008A828B83A3A3A3A3E0F9124C
:1043B4004DD01210B6801D7C007D0079007A097BF7
:1043C400041210207C05124DD0850A82850B83E0EF
:1043D400F912044A1251CB70030245451245518922
:1043E4000BE8450B70030245458E828F83A3E0FCE6
:1043F4007902124DD08882850B8312166C024545D2
:104404007C007D00EE2404FAEF3400FB85088285ED
:104414000983E0F912102CE9F8C3940A4003024519
:1044240045EE240AFCEF12491AE8A42425F91212D5
:1044340078024545850882850983E0F508A3E0F5FF
:1044440009740E121662AC82AD8375839075822A4C
:10445400740612152AAA08AB091208948A0A8B0B4F
:10446400A80AA90BE84970030245459011C2E0640B
:10447400027003024545E82404FEE93400FF740E8B
:10448400121662AC82AD83E82405FAE93400FB8E8F
:10449400828F83E0F912102CE9F50AC3940A5021A3
:1044A400750B01780B12188512106EE9FC7408FD67
:1044B400A90AAA08AB091210BC740112162D0245F0
:1044C400459011C2E0700B7905AA08AB0912045C8F
:1044D400806F6401706B7C007D008E828F83E0F9B5
:1044E400AA08AB091210B680581204D4E97052908D
:1044F4000E67E064017015121092900E67E4F07C70
:104504000AFDF97A687B0E120EE2802D750A008589
:104514000A0874682508FE740E3400FF8E828F83A7
:10452400E06401700BA90A1210988E828F83E4F064
:10453400050AE50AC3940A40D6795012128412106F
:104544008679017414023DB91251D8F922E0F58339
:104554008882A3A31251D8F92274F412166E74F24D
:10456400121617EAFE8C0B75F006E9A42420F50850
:10457400851882851983AC82AD837A0EF912127E76
:10458400E970577C0679FF851882851983AA82AB66
:1045940083120F48E97043740C12166212454CE8FA
:1045A400F509E50B6005EE42098004EEF452098535
:1045B4000982AA82E86A7001E9601B740C1216620F
:1045C400EAF0A3E4F0851882851983AC82AD837A7E
:1045D4000EA9081212787901800279000240A274AF
:1045E400F212166E74E6121617890A8A088B09EC01
:1045F400FEEDFF740C121662AC82AD837A0E75F078
:1046040006E9A42420F912127EE960030247037C20
:104614000679FF740C121662AA82AB83120F48E962
:1046240060030247037470250AF50B851882851907
:1046340083AC82AD837A0CF912127EE960030246E0
:10464400FF851882851983AA82AB83121062E5085C
:104654004509702C7C0C7900851882851983AA82FF
:10466400AB83120F48E960030246FF7C0C7D00799E
:1046740000851882851983AA82AB83120EE2805DBD
:10468400851882851983AC82AD83AA08AB09121000
:104694005C8A0C8B0DA80CA90DE8497028EE4F60BC
:1046A4005E851882851983AC82AD837A007B001203
:1046B400105CEAF8EBF9EA4B604588828983E508E7
:1046C400F0A3E509F012470AFAEE6A7001EF602BD5
:1046D400EEF04F700888828983E4F0A3F085188295
:1046E400851983AA82AB8312106285188285198387
:1046F400AC82AD837A0CA90B12127879018002790D
:1047040000741A024912E82402F582E93400F583A0
:10471400E02274F712166E7F00EF75F003A4F8A977
:10472400F0EC28F8ED124749E06A7003A3E06B70DF
:1047340006E8FAE9FB800B0FEFC3940440DB7A0030
:104744007B00024AF739F9888289832274F71216AA
:104754006E7E00EE75F003A4F8A9F0EA28F8EB12D7
:104764004749E0F4FCA3E0F4FD88828983ECF0A3DC
:10477400EDF012470AF4F00EEEC3940440D5024A59
:10478400F774F212166E74F4121617EAFEEBFF8C2D
:10479400088D09900E721251CE7051EE4F700302C3
:1047A400490EEC4509700302490E12107AE9901182
:1047B400C9F0C3940A4035750B007C0679FFE50BFC
:1047C40075F00EA4FAABF074DA2AFA740D3BFB12FE
:1047D4000F48E96005850B0A800C050BE50BC394B3
:1047E4000A40D7750A0AE50A9011C9F09011C9E088
:1047F400C3940A400302490E75F006E0A4FB900E30
:10480400721251CE706FEEFCEFFD7A0E74202BF90C
:104814001212787C0C7D0079FF851882851983AA91
:1048240082AB83120EE2851882851983AC82AD8334
:104834007A0C9011C9E02470F9121278750C0E7577
:104844000D00780C121881EEFCEFFD9011C9E07593
:10485400F00EA4F8A9F074DA28FA740D39FB120EDC
:10486400CA740212162D900E72E508F0A3E509F041
:104874007900024910E0C8240612492F601A7A1BF5
:1048840074212BF91212781249232406F582E83494
:1048940000F583E4F0A380D7124923240A12492F98
:1048A40060107A1B74222BF9121278124923240AFD
:1048B40080DA124923240C12492F60107A107423D1
:1048C4002BF9121278124923240C80C012492812A1
:1048D400492F602A7A1074242BF91212781249286D
:1048E400F582E81247102410FCA3E012491A901133
:1048F400C9E0A42425F9121278124928808E900E5A
:1049040066E060031210C21210B07901740C121622
:104914002D7F060217403400FD7A0475F00622123A
:1049240051D5C8221251D5C8240822F582E8340092
:10493400F58312493CEC4D22E0FCA3E0FD2274F720
:1049440012166E74F2121617E9851882851983AC53
:1049540082AD837A0E75F006A42420F912127EE942
:104964007009740C121662E0F980027900740E0268
:104974004AF474F412166E74F2121617EAFEEBFF80
:10498400E9C3940A5004EE4F70047902803E8518FE
:1049940082851983AC82AD837A0E75F006E9A4246E
:1049A40020F912127EE9F5087020750A06750B00CD
:1049B400780A1218817402121662AC82AD83EEFA80
:1049C400EFFB120ECA740212162DA9080240A2743B
:1049D400F412166EEAFEEBFF750800750A06750BF5
:1049E40000780A121881EEFCEFFDE50875F00EA4BC
:1049F400F8A9F074DA28FA740D39FB120EDC74028B
:104A040012162DE96004A908800B0508E508C39473
:104A14000A40C8790A0240A774F712166E74F0129D
:104A24001617EAFEEBFF750800851882851983AC1A
:104A340082AD837A1075F006E508A42423F91212D6
:104A44007EE9702C7C1079FF851882851983AA82EF
:104A5400AB83120F48E97018EEFCEFFD85188285D0
:104A64001983AA82AB83120432E97004A908800B6B
:104A74000508E508C3940A40B0790A74108071747B
:104A8400F712166E750800E50875F00EA4F8A9F083
:104A940074DA28FE740D39FFEEFCEFFD7A0E75F022
:104AA40006E508A42420F912127EE9602C7C067D18
:104AB4000079FFEEFAEFFB120EE27C067D0079FF2F
:104AC400EE2406FAEF3400FB120EE2EE240CF5821B
:104AD400EF3400F583E4F0A3F00508E508C3940A75
:104AE40040A5900E66E060031210C21210B080035D
:104AF40012162D7F0102174074F712166E7E007F86
:104B0400007C0679FFEF75F00EA4FAABF074DA2A94
:104B1400FA740D3BFB120F48E970010E0FEFC394BA
:104B24000A40DEEEF980CC74F712166E7E00EEF9C0
:104B34001210980EEEC3940A5003E960F180B47425
:104B4400F312166E74CB121617E9FE9011C9E06EBB
:104B5400701B7A017B00900DBEE0F9120F2A7A02D5
:104B64007B00900DBEE0F9120F2A1210CE75F006EC
:104B7400EEA4FF74202FF5087427121662AC82ADE0
:104B8400837A0EA90812127EE96003024C7D7C062A
:104B940079FF7427121662AA82AB83120F48E96068
:104BA40003024C7D7C0E7D0079FF7427121662AAE5
:104BB40082AB83120EE27C1B7D0079FF740C12160B
:104BC40062AA82AB83120EE27C0C7D0079FF851809
:104BD40082851983AA82AB83120EE27427121662AD
:104BE400AC82AD837A0EA908121278E9F508740C28
:104BF400121662AC82AD837A1B74212FF9121278DB
:104C0400E9F509740C121662AC82AD837A1B742226
:104C14002FF9121278E9F50A740C121662AC82ADFF
:104C2400837A1074232FF9121278E9F50B740C129D
:104C34001662AC82AD837A1074242FF9121278E9CB
:104C4400F50C740C121662AC82AD837A0474252FB1
:104C5400F9121278E9FF851882851983AC82AD8335
:104C64007A0C74702EF9121278E9F8E509450A45B0
:104C74000B450C4F4842088003750800A908743599
:104C840012162D7F0502174074F712166EE9900D67
:104C9400BEF0121086024AF774F412166EEAFEEBA6
:104CA400FF54807003024D34900DBEE0F9120F0CD6
:104CB4008A088B09EA4509607078018A828B83E04F
:104CC4002450603D14600624E1604F8052A3A3A3E6
:104CD400A3E0704E8A828B83A3A3A3A3A3A3A312EE
:104CE40018988A828B83A3A3A3A3A312493C8A8224
:104CF4008B83A3A3124DD6121038740212162D8082
:104D040021A3A3A3A3E0641E701879008A828B8375
:104D1400A3A3124DD6121032800812104AE9F8E803
:104D24006007AA08AB09120EFAEEFAEF64808065F8
:104D3400EE540260237C007D007A007B0012106830
:104D4400E960117A017B00900DBEE0F9120F24EEA8
:104D54006402803F7A028046EEA2E0503F124DA7E3
:104D6400124DD61210C8E9602F1251CB601F1245A4
:104D74005188088909E8450960137C007901124DBE
:104D8400A7124DD685088285098312166C1210CE9F
:104D9400EE6401FAEFFB80087A0180027A007B005E
:104DA4000240A7900E721251D8F5838882A3A3A360
:104DB400227F02021740C082C083900DBEE0F98AB0
:104DC400828B83A3124DD61206D2803B850882853E
:104DD4000983E0FAA3E0FB22C082C08374FF1216A9
:104DE4001712108CE9C39402851882851983400434
:104DF40074028002740AF0AC82AD837A01790512E0
:104E040004EC740112162DD083D08202012274F2B4
:104E140012166E74E8121617EAFEEBFF890A8C0864
:104E24008D097C187D007900851882851983AA82F2
:104E3400AB83120EE2851882851983EEF0A3EFF09E
:104E4400900DC0E0C0E07402121662D0E0F0900D44
:104E5400C1E0C0E07403121662D0E0F09011C7E024
:104E6400C0E07417121662D0E0F07415121662E0F6
:104E740054FEF8A3E0F99011C6E0A2E0E433FAE8A6
:104E84004AF87415121662124FB7A2E15004D2F018
:104E94008002C2F0E854FDFAA2F0E43333F8EA48A1
:104EA400F87415121662124FB7A2E35004D2F080C0
:104EB40002C2F0E854F7FAA2F0E433F50C750D00E1
:104EC4007403780C121604124FB0121662124FB704
:104ED400A2E45004D2F08002C2F0E854EFFAA2F047
:104EE400E433F50C7404780C121604124FB0121645
:104EF40062124FB7A2E55004D2F08002C2F0E85427
:104F0400DFFAA2F0E433F50C7405780C12160412DF
:104F14004FB0121662124FB7A2E25004D2F08002D0
:104F2400C2F0E854FBFAA2F0E433F50C7402780CF6
:104F3400121604124FB0121662E8F0A3E9F0900DB5
:104F4400C1E0601D750C10780C1218817CC27D0DB7
:104F54007406121662AA82AB83120ECA7402121667
:104F64002D900DD2E06011E50A60097415121662E5
:104F7400E04402F07801800278007414121662E0B2
:104F840048F0900DBFE06004780480027800741447
:104F9400121662E048F0AC08AD09851882851983C1
:104FA400AA82AB831204567418024912EA450CF81B
:104FB400741522E8F0A3E9F09011C6E02274F3120C
:104FC400166E74E5121617EAFEEBFF8C098D0A744F
:104FD40028121662E0F50C75F006E9A4F874086569
:104FE4000A700474228002742128F50B7C1B7D0056
:104FF4007900851882851983AA82AB83120EE28513
:105004001882851983AC82AD837A1BA90B12127E98
:10501400E97032741A121662E024F9C3940A502516
:10502400E50CF50B780B1218857401121662AC822C
:10503400AD83E509A2E0E433F9EEFAEFFB1204686C
:10504400740112162D741B024C8474F712166E121E
:10505400073E750800E50875F00EA4F8A9F074DAA7
:1050640028FE740D39FF7C0679FFEEFAEFFB120F70
:1050740048E97009EEFAEFFB79001207440508E5E8
:1050840008C3940A40CF024AF774F612166E74FDF0
:10509400121617EAFEEBFF900E741251CE7039759A
:1050A400087675090E7808121881750802750900CA
:1050B40078081218817508BD75099078081218814E
:1050C4007CFF7DFF7A017B001205A0740612162D69
:1050D400900E74EAF0A3EBF0900E741251CE7003AC
:1050E400025190E4F508F509780812188174041245
:1050F400166285820885830978081218817404125F
:1051040016628582088583097808121881900E76C4
:105114001218987902900E7412519E1206C07408E7
:1051240012162DE97034851882851983E0FA74010A
:10513400121662E0F9EA2400F508E439F509EA45B3
:105144000960177808121881900E74124DAAA312E0
:10515400519E121038740212162DE4F508F50978E0
:1051640008121881900E761218987CFF7DFF900E1D
:1051740074124DD61205AC740412162D900E74EAF6
:10518400F0A3EBF0900E741251CE700479018002FA
:105194007900740312162D024DB512493CEEFAEF54
:1051A400FB22C082C083900E721251CE6010900E0A
:1051B40072124DD6120EFA900E72E4F0A3F0901112
:1051C400C9740AF0024E0B900DD81251D8F9E8496F
:1051D40022900E72E0F8A3E022C082C08390619016
:1051E4007404F0A37448F0A3E4F09061807440F078
:1051F4009061BC7407F09061877469F09061B67433
:1052040016F07900120966790212096C902218E4EA
:1052140093F46006E493F91209427905120CAE0284
:1052240055FEC082C083E9540FF9906185E069603E
:1052340012E5C654804449F5C6E59E547F6449701E
:10524400F8E9F053C680E59E547F70FA0255FE7467
:10525400F712166EE5A8FE53A87E12094EC2BA5381
:105264009AFEC289759B00C2C212095475A91175B0
:10527400B90512095AD2BA439A0174805E42A8024F
:105284006344C082C083906181E4F0A3F0A3F00280
:1052940055FE75E90075910075BF00020122C082B8
:1052A400C083906181E4F0A374C0F0A3E480DFC004
:1052B40082C08374F812161790047B12670E700371
:1052C40002539290047BE05440602379088518824D
:1052D400851983AA82AB83120A688518828519838B
:1052E400AA82AB8312075C90047BE054BFF0E054C5
:1052F400806010790C7A1B7B08120A6890047BE0AA
:10530400547FF0E0A2E0500F7900120966120762A0
:1053140090047BE054FEF0E05402600F790112091E
:105324006612076290047BE054FDF0E05404600FC1
:10533400790012096C12076890047BE054FBF0E0DA
:105344005408600F790112096C12076890047BE01D
:1053540054F7F0E05410600F790212096C120768D8
:1053640090047BE054EFF0E05420600F79031209BD
:105374006C12076890047BE054DFF0A3E0540160F2
:105384000D12097812076E90047CE054FEF0740844
:1053940012162D0255FEC082C083E9600514602AEE
:1053A400804F90619A7433F0A37455F09061A074A7
:1053B4003AF09007F5E064017009C29190047D749D
:1053C40067802D90047D7461802690619A743FF00B
:1053D400A3745AF09061A0747FF09007F5E0640123
:1053E4007009D29190047D7471800590047D746A73
:1053F400F00255FEC082C083E9600B14600D146096
:105404001714600C802090221C801590221D80109F
:105414009007F5E06401700590221E800390221F1E
:10542400E493906186F00255FE74EE12166E74F4E5
:10543400121617851882851983AC82AD8375839003
:10544400758264740412152A90221C93F46003027A
:105454005557907808E0C3940250030255377404FA
:10546400121662AC82AD8375838F7582FE74081246
:10547400152AFC7EFF7FFF8E0C7D008C8285820EB8
:10548400800F74086D606D74096D6068740A6D60D6
:10549400638D0875090074027808121604125561A8
:1054A4001214E7A909E50AC9F888107418780812D3
:1054B4001428E5104508FAE9FBE50EC333F8E43394
:1054C400F97404121662E58228F582E58339125CC8
:1054D40053C3E89AE99B4008E8C39AF8E99B80061D
:1054E400EAC398F8EB99F9C3E89EE99F5006E8FEF1
:1054F400E9FF8D0C0DEDC39413408774FF6E7003A8
:1055040074FF6F6024850C08740278081216041264
:1055140055611214E7851882851983E582250EF5F5
:1055240082E58312606CE508F00CECC3940450032C
:1055340002547775080175090078081218817402FD
:10554400121662AC82AD837A877B0812110A740248
:1055540012162D740C12162D7F0A0217407448255A
:1055640008F58274783509F583780822C082C083EF
:10557400906186E0F890221FE49368700990221EDF
:10558400E493906186F09061AE7468F0A3746AF05D
:1055940090624574FBF0A304F053F4FD43FE0290C3
:1055A40007F57401F09061A0E0643A70047900801A
:1055B4000279011209660255FE7F04021740C08277
:1055C400C0839007D3E0640170139007D9E0F874A6
:1055D40001686019E87006A3E0640160109007EAAE
:1055E400E06401700C9007F0E064017004790C80B1
:1055F4000279008005E0F9122124D083D0820201CF
:1056040022125CF9940622E0C4333354C022C082CF
:10561400C0839007DD7425F09007DB7401F0A3E4E8
:10562400F07A01FB120C3012565E2416F582E81251
:10563400606C749CF0A37409F09007DAE064017064
:10564400169007D9E070107901120C8A120C6012BE
:105654000C847900120C960255FE9007C91259E287
:105664002274F612166E74FA1216179007D2E064BA
:105674000170081209849007D2E4F075E1F1125622
:105684005E2415F582E812606C7401F09007D4E092
:1056940064017053909024C082851882851983AC6C
:1056A40082AD83758390D082740612152A75D90D44
:1056B4009007CB12560B4403F5D97800880874CCB4
:1056C4001263E0740712560540F2780088088518C2
:1056D40082851983E5821263E0E58312560540EC66
:1056E40075E195790180027900120C369011A012AF
:1056F400575B7410F0A3740BF0A312575B12575B43
:105704001258AF7416F0A3740B1258C49007CBE070
:10571400F97ACC7B07120C129007DDE0F9122124F0
:105724007901120C3C909070121505120C54909053
:105734008C121505120C1E7900120CA212565E244E
:1057440014F582E812606C7416F09004797405F014
:105754000412162D025D63740AF0A3740BF0A322E5
:1057640074F412166E8908A80812628C9007E2E09D
:10577400F97AE37B07120C129007F0E0701A7900B3
:10578400120C6C9007B8E070047900800279017AF9
:10579400B97B07120C1880057901120C6C75E1F1C4
:1057A40075D9239007E212560B4405F5D978008881
:1057B4000A74E3250AF582740712560540F175D977
:1057C4000075D90075D90075D90075D90075D9004F
:1057D4007A0012665A2422125C1240F67A0012668B
:1057E4005A2426F582E9125D6B0AEAC3940340EE5B
:1057F400EE242B125D687A0012665A242C125C186F
:1058040040F67A0012665A242E125C1840F67A008A
:1058140012665A2430125C1840F67A0012665A2432
:1058240032125C1840F67A008A0AEE250AF8EF1262
:105834006184125C24940540EFEE2437F582EF1264
:1058440061E0541FF8EE242AF582EF1261E0C433BC
:1058540054E048F5D975E1959011A074DAF0A37479
:105864000AF0A374E0F0A3740A1258A674E6F0A335
:10587400740A1258C49007EFE0F912212490907032
:10588400121505120C5490908C121505120C1E90D2
:10589400600DE4F07901120CA29004797406F00210
:1058A40055BDF0A31258AF1258AF221258B3227448
:1058B400D4F0A3740AF0A374D4F0A3740AF0A3225E
:1058C4001258C822F09011AE1258D4A31258D42200
:1058D4001258B374D4F0A3740AF02274EC12166E46
:1058E4009007E01262A378101214E79007F1E0FA2F
:1058F400F875F005A4C8ACF02CF974D728F58274B7
:105904000439F583E0FEA3E0FFEEC333FEEF33FF7B
:105914008E0CF50D750E00750F00851008851109A4
:1059240085120A85130B909058780812147378081E
:1059340012187D85100885110985120A85130B78C4
:1059440008790C1214607810790C1213B8E4F50E6F
:10595400F50F7808790C1214998A0C750D007403EC
:10596400780C1216047808790C12146090907478EC
:10597400081214C1AA08AB09AC0AAD0B1220BC74FE
:105984000412162D8A088B09A808A909C3EE98EFFA
:10599400995006E82EF8E93FF9E890600EF0E9A383
:1059A400F0EEA3F0EFA3F090600D74C1F07F0C0251
:1059B4001740C082C0839007C91259D69007DD02F0
:1059C40055F9C082C0839007E01259D69007EF02C0
:1059D40055F91259E22406F582E8125E0422E0F831
:1059E400A3E0C82202012274F212166E125B55F56E
:1059F4000AEF125EE26004780480027800E8240E64
:105A0400F8EAC3985003025AB275080C9007FBE4F5
:105A1400F0EE2476F582EF1261E09007FCF0790253
:105A2400EE2477FCEF3400FD7AFD7B07120A5679E9
:105A340002EE2479FCEF3400FD120A567902EE24BA
:105A44007BFCEF3400FD120A567902EE247DFCEF54
:105A54003400FD120A56EE2474125B6B120A56854A
:105A64000A82850B83E0601E7508FB7509077808B8
:105A74001218817C0C7903EEFAEFFB120AC8740247
:105A840012162D75081074012508F5D975D90378F7
:105A9400008009880A74FB250A125B4AE8C395084A
:105AA40040F175E1957904120C5A7901800279006C
:105AB4007F0602174074F212166E125B55F508EF5A
:105AC4003400F509850882F583E0600478048002D7
:105AD4007800E8240AF8EAC3984060750A08900739
:105AE400FB7401F079057CBF7D077AFC7B07120A01
:105AF40056EE2480125B6B120A5685088285098350
:105B0400E0601E7508FB75090778081218817C0887
:105B14007903EEFAEFFB120AC8740212162D750A05
:105B24000C125DE18003125B44E8C3950A40F775EB
