:020000040000FA
:0600000002010A02206C5F
:03002B000224CCE0
:03003B000224EDAF
:030043000224771D
:030053000220E2A6
:03006B0002249DCF
:10008300021F1BE5C754F84401F5C779012200009C
:100093000080FB120086B900030200F4E4792178A2
:1000A30008B800028004F709D8FCE479297802B87B
:1000B30000028004F709D8FCE4900281782E7909C4
:1000C3008002F0A3D8FCD9FA900AAEAA82AB83903F
:1000D300013A780279048015E493A3AC82AD838A54
:1000E300828B83F0A3AA82AB838C828D83D8E9D9D8
:1000F300E77582C57583A0740312011C758291751F
:100103008300740012011C75D00075813F7518813E
:10011300751902759F00020096C09FF59FE473D086
:100123009F22D083D082C09FE493C0E0740193C028
:10013300E0740293F59F22FF0000B400002800281A
:1001430000283075A000A000A000A000000800084F
:10015300E001F0001000100010001000100010006B
:1001630050005000500010001000D00700000000A5
:1001730000000F00010005003075070010000100AA
:1001830081FF00000000FF390657063F06FF020209
:100193000208025000A0000000E80302C090010022
:1001A30000AF9002B890010000050B02C890010057
:1001B30000B30202B890010000060B02C6900100D2
:1001C30000C90202B890010000070B02C4900100AD
:1001D30000CB0202B890010000080B02BC9008009B
:1001E30000CC0202B890010000090B02B29001009A
:1001F300000A0BFF0100FF2002C090010000A39042
:1002030002B8900100006E0B02B4900000000000E1
:1002130002DE900300001903690C690C690C690C78
:10022300690C690C690C690C690C690C690C690C23
:10023300690C3F0F570F390FFFFF02020202020240
:10024300020202010D000000100102C09001000033
:10025300A99002B890010000B10B02DA90010000EE
:100263005D0702B890010000B20B02D890010000B4
:10027300818F02B890010000B30B02D690010000F9
:10028300738F02B890010000B40B02D490010000F8
:10029300038F02B890010000B50B02D29001000059
:1002A300BB8E02B890010000B60B02D09001000093
:1002B300A98E02B890010000B70B02CE9001000096
:1002C300DF8E02B890010000B80B02CC9001000051
:1002D300658F02B890010000B90B02CA90010000BB
:1002E300BA0B01E803053F100AFF00013075030252
:1002F30001060000000000000000000000000000F4
:100303000000000000000000000000000000FFFFEC
:100313000600800CE803140953696D706C65424C48
:10032300455065726970686572616C0512500020F2
:1003330003020A000201060302F0FF53696D706CA9
:100343006520424C45205065726970686572616C26
:10035300D7130000DD130A43686172616374657229
:100363006973746963203100024368617261637465
:10037300657269737469632032000843686172614E
:100383006374657269737469632033001043686131
:100393007261637465726973746963203400024324
:1003A300686172616374657269737469632035008F
:1003B30002C090010000AC9002B890010000CD0C87
:1003C30002EC900300009F0A02B690010000CE0CDD
:1003D30002B890010000DF0C02E890010000A00ABF
:1003E30002B690010000E00C02B890010000F10C8D
:1003F30002E690020000A10A02B690010000F20C8E
:1004030002B890010000030D02E490000000A20A6C
:1004130002DE90030000A30A02B690010000040D5F
:1004230002B890010000150D02E090040000A90A33
:1004330002B690010000160D12012520900312014F
:1004430025379003120125689003120125A3900319
:10045300120125CD9003120125F790031201250EF9
:1004630091031201252591031201253C91031201E9
:10047300256591031201257891031201258E9103BD
:10048300120125A19103120125C89103120125012F
:1004930098021201250599021201253D99021201C4
:1004A300256099021201256B99021201258E99028A
:1004B3001201259D9A02120125729B02120125ED5C
:1004C3009B02120125759C02120125B09C021201A8
:1004D30025E79C02120125759D021201254E9E02FD
:1004E300120125AE9E02120125B99E021201253882
:1004F3009F021201253B9F021201253E9F0212011A
:1005030025CD9F02120125D09F0212012500A002D2
:100513001201252AA00212012518A102120125CADF
:10052300A102120125D3DF02120125FBDF02120112
:100533002529E00212012560E002120125BEE00236
:1005430012012509E10212012554E1021201259449
:10055300E102120125DAE10212012508E202120189
:1005630025C5E202120125CFE202120125DCE202D7
:100573001201250FE302120125DBE302120125E735
:10058300E302120125FFE30212012509E40212012D
:10059300255E9D031201256C9D03120125849D0395
:1005A3001201259C9D03120125ECB001120125982F
:1005B300B10112012513B20112012534B301120155
:1005C3002570B30112012519B40112012500B501EB
:1005D30012012564B601120125BBB6011201253CA7
:1005E300B7011201252CB80112012579B8011201B6
:1005F30025FFB80112012531B90112012545BB01BF
:1006030012012587BB01120125A5BB011201252873
:10061300BC01120125FCBC01120125C4BD0112015C
:1006230025BACD021201258DCE0212012536CF0245
:1006330012012589CF0212012539D002120125C5E5
:10064300D002120125B1D102120125E0D10212011B
:1006530025F3D2021201253BD30212012510D40245
:100663001201254CD40212012568D4021201257807
:100673009F03120125CEF102120125E4F1021201BA
:10068300250AF20212012526F30212012530F30294
:1006930012012565F4021201255DF5021201257D83
:1006A3007A00120125AD7B00120125E07B001201C7
:1006B300252A7C00120125F17D00120125FDA001F0
:1006C30012012567A101120125C6A201120125D637
:1006D300A20112012503A3011201255AA30112014C
:1006E3002503A4011201250AA501120125D4A501A0
:1006F30012012534A70112012577A7011201251C38
:10070300A80112012569A8011201258FA801120170
:10071300259DAA01120125A2AA01120125A7AC0158
:10072300120125F4AC0112012567AD011201259ACE
:10073300AD011201253CAE01120125E5AE01120106
:10074300251DAF0112012520AF0112012568AF015C
:10075300120125A8AF01120125FFAF011201254B9C
:100763008603120125638603120125AB860312015A
:1007730025C186031201250887031201251C88035E
:10078300120125A98803120125F4880312012560AB
:1007930025001201256C2500120125A72500120151
:1007A30025EC2500120125AC260012012532270075
:1007B300120125972700120125C32700120125FCEA
:1007C30027001201253A2A001201251E2C001201CE
:1007D30025042E00120125472F0012012595310013
:1007E300120125A73200120125F23300120125025E
:1007F30035001201251F35001201255A350012015B
:10080300257C3500120125DF3500120125A03A00B1
:10081300120125353B00120125863B00120125AD4F
:100823003B00120125FF3B001201251D3C00120174
:1008330025773C00120125603D00120125D63E00BC
:100843001201255A3F0012012590E4021201259A54
:10085300E402120125DDE402120125F8E40212018B
:100863002588E502120125B0E502120125EDE50216
:1008730012012524E6021201254DE602120125C2CA
:10088300E602120125D7E602120125ECE602120167
:10089300251DE70212012531E70212012556E70261
:1008A30012012590E702120125BCE7021201254837
:1008B300E80212012573E802120125BCE8021201C5
:1008C30025E6E80212012511E9021201253F9903E9
:1008D3001201250080021201252E80021201257CBF
:1008E30081021201255C82021201257B8202120120
:1008F30025F882021201253B83021201259184020D
:10090300120125528502120125D987021201257A87
:1009130088021201257089021201256D8A021201D3
:1009230025C78B02120125528C02120125B09603B2
:100933001201251997031201256D970312012594BE
:100943009703120125C5970312012539E902120104
:1009530025A6E902120125EDE90212012505EB02A4
:1009630012012501EC02120125E4EC021201257E9D
:10097300B502120125C0B50212012592B602120179
:10098300256BB70212012565B80212012547B9028A
:10099300120125B0B90212012566BA02120125DA45
:1009A300BA0212012546BB021201256FBB021201D6
:1009B30025E9BB0212012582BC02120125E7BC0214
:1009C300120125FCBC0212012542BD021201255B66
:1009D300BD02120125C0BD02120125C3BD021201D1
:1009E300255283031201257A8303120125B8830359
:1009F300120125768403120125DD8403120125F9F2
:100A03008403120125218503120125518503120157
:100A130025608503120125DD850312012503860365
:100A2300120125F59001120125939201120125AEC1
:100A33009401120125EA940112012517950112016F
:100A430025FC950112012543960112012587960184
:100A5300120125999601120125D996011201250645
:100A63009701120125519701120125919701120156
:100A730025BF9701120125119801120125A19801A3
:100A83001201253F9B01120125559D01120125935A
:100A93009D01120125249F01120125699F01120165
:100AA30025E09F011201252AA001120125D2A001F0
:100AB30012012505AC0212012584AC021201254660
:100AC300B20212012555B302120125BDB40212016F
:100AD3002554B502120125575500120125A05500D2
:100AE300120125CD55001201250056001201250DD6
:100AF30056001201251956001201252B560012012A
:100B030025125700120125705700120125A5570021
:100B1300120125E858001201253559001201255903
:100B23005900120125C65900120125845A001201E9
:100B3300253D5B00120125AA5B001201255C5C00C8
:100B43001201256C5C00120125F35C00120125B231
:100B53005D00120125DF5D00120125585E001201C0
:100B630025B55E00120125FF5E00120125955F0089
:100B73001201256060001201251561001201258A0A
:100B83006100120125EB610012012555620012017B
:100B9300258E620012012530630012012540640096
:100BA3001201258064001201259D6400120125BCF9
:100BB3006400120125036500120125286500120156
:100BC30025556500120125CF650012012510660029
:100BD300120125346700120125E467001201253B49
:100BE3006800120125A56800120125BE68001201E4
:100BF300253BA2021201258EA2021201259AA2020E
:100C03001201256FA30212012596A302120125D119
:100C1300A3021201253DA40212012579A4021201A7
:100C230025B2A402120125CAA4021201251FA5029E
:100C330012012538A50212012581A502120125946E
:100C4300A502120125AEA502120125C4A5021201B7
:100C530025F7A6021201253EA80212012540A9028A
:100C63001201253AAA02120125FA7F001201257703
:100C7300EA01120125A7EA011201256FEE01120113
:100C830025C6EF011201258FF0011201250FF20194
:100C9300120125E0F2011201251DF3011201254085
:100CA300F3011201257EF30112012587F3011201DD
:100CB30025D1F301120125DBF30112012585F4018E
:100CC3001201255EF501120125B2F5011201251469
:100CD300F60112012567F60112012596F6011201AC
:100CE30025D3F601120125F06800120125576C0087
:100CF3001201255D6C00120125DF710012012558D8
:100D030076001201252E7A001201250080031201BC
:100D1300257680031201258C8003120125CD8003E3
:100D2300120125078103120125808103120125BBCE
:100D330081031201252E82031201256C8203120105
:100D4300257582031201258182031201259D8203E9
:100D5300120125C88203120125DE82031201252216
:100D6300830312012510DB0212012523DB0212018A
:100D7300253DDB0212012566DB02120125A9DB02F8
:100D8300120125E8DB0212012526DC021201258B64
:100D9300DC02120125A0DC02120125ABDC021201E8
:100DA30025B8DC02120125CFDC02120125DDDC02AD
:100DB300120125E8DC02120125F4DC0212012507E9
:100DC300DD0212012512DD0212012535DD021201B9
:100DD30025DCDD02120125ECDD0212012506DE020F
:100DE30012012523DE021201253FDE0212012564D2
:100DF300DE021201256FDE0212012584DE021201DA
:100E03002598DE02120125F9DE02120125FFDE021A
:100E130012012505DF021201250BDF021201252332
:100E2300DF0212012556DF021201254ECE01120107
:100E330025D2CE0112012581CF01120125E0D00177
:100E430012012501D301120125EDD301120125223F
:100E5300D40112012544D401120125F3D401120156
:100E630025EBD60112012514D701120125A6D701BE
:100E7300120125D8D701120125E5D7011201253C1E
:100E8300D80112012562D801120125CFDA0112011E
:100E930025D2DB011201252ADC01120125DDBF0168
:100EA300120125E7C001120125CEC101120125D887
:100EB300C101120125FAC10112012506C201120165
:100EC300259FC301120125CEC301120125EAC401E6
:100ED30012012543C501120125A9C6011201258866
:100EE300C701120125E4C70112012551C8011201EE
:100EF300258CC801120125CBC80112012584CB0121
:100F03001201259ECB011201252ACC01120125389D
:100F1300CC0112012591CC011201259FCC011201B4
:100F23002512CD0112012576CD01120125C0CD0177
:100F3300120125D38C02120125F58C021201251B07
:100F43008F021201253092021201254893021201E9
:100F530025FB9302120125DD9402120125DA910388
:100F6300120125FF910312012571920312012540FD
:100F7300C60212012549C60212012552C6021201F8
:100F83002529C702120125DAC80212012510C90258
:100F93001201254AC90212012580C902120125BA8C
:100FA300C902120125EEC9021201251ACA02120151
:100FB3002563CA021201259DCA02120125E6CA024F
:100FC3001201253ECB0212012573CB02120125CE5D
:100FD300CB0212012508CC0212012559CC021201C1
:100FE300258FCC02120125C9CC02120125F7CC02B0
:100FF3001201251ACD02120125359E031201256126
:101003009E03120125BC9E03120125C69E031201F5
:1010130025D69E03120125E7BD02120125F1BD026B
:101023001201252FBE0212012578BE02120125B23C
:10103300BE021201250CBF021201252DBF021201AF
:101043002505C2021201250EC2021201255BC2024E
:1010530012012584C2021201258EC202120125FA51
:10106300C2021201258CC302120125D6C30212014A
:10107300250CC40212012598C402120125D9C40209
:1010830012012510C50212012522C50212012541B4
:10109300C5021201254AC50212012512C602120118
:1010A30025679C031201252F8E03120125658E03EC
:1010B3001201259B8E03120125E68F03120125FCE5
:1010C3009F0312012512A0031201251CA003120184
:1010D3002566A003120125A6ED02120125BBED0230
:1010E3001201256EEE02120125AEEE02120125C792
:1010F300EE0212012502EF021201254FEF02120147
:101103002581EF02120125C3EF0212012521950368
:101113001201254A95031201257995031201251120
:1011230096031201252996031201256B96031201DA
:10113300251E89031201254389031201256D8903A5
:10114300120125A47F00120125C13F0012012526AB
:101153004200120125C743001201257B44001201FE
:10116300250E4500120125934500120125B84500BF
:101173001201250E4900120125944900120125C7C9
:101183004A00120125014B00120125364B001201C2
:1011930025F64C00120125534D001201259C4D00EC
:1011A300120125074E00120125784E00120125AACF
:1011B3004E00120125C24E001201250B50001201F0
:1011C300251B5000120125365100120125585100EC
:1011D3001201258E5100120125425300120125CF21
:1011E30053001201250E540012012532550012013D
:1011F30025F0A10312012518A10312012557A1030C
:10120300120125DDA103120125E09E03120125F041
:101213009E03120125089F031201256E9F031201ED
:1012230025639B03120125E89B031201254E9C03B2
:10123300120125589A031201257F9A03120125D51D
:101243009A03120125259B0312012567FC02120153
:10125300257CFC02120125C0FD021201253CFE0281
:10126300120125B0FE02120125CAFE02120125E178
:10127300FE02120125F4FE021201250EFF021201E5
:101283002525FF021201254BFF021201259CFF02B7
:10129300120125F0FF01120125FBF8021201258B33
:1012A300F90212012517FA02120125B0FA021201FE
:1012B3002541FB021201254AFB02120125C8FB024C
:1012C300120125DBFB02120125F1FB02120125515C
:1012D300FC0212012564FC021201250B9803120182
:1012E300257B9803120125869803120125969803FE
:1012F300120125A19803120125BD98031201257F30
:101303009303120125D193031201255B9403120168
:1013130025C29403120125EA8B03120125148C03C1
:10132300120125E28C03120125BD8D03120125AEA6
:10133300F70112012575F801120125ACF80112011C
:1013430025D6F80112012536F9011201258CF90180
:10135300120125F1F90112012589FA0112012598DB
:10136300FB011201252FFD01120125BCFD01120114
:101373002523FE011201253AFE0112012554FF0126
:1013830012012592FF0112012578DC01120125F9D2
:10139300DF0112012581E101120125D8E1011201CA
:1013A30025F7E10112012575E2011201250BE40184
:1013B300120125F0E401120125FEE801120125D4F2
:1013C300E901120125DDD40212012521D502120102
:1013D30025ECD702120125F9D8021201251CDA02E5
:1013E3001201258FDA0212012567F502120125ACDD
:1013F300F502120125C9F5021201257FF602120139
:1014030025D2F602120125A8F702120125C2F8021D
:10141300120125D1FF0212012561A10312012597B3
:10142300A103120125BFA103E066701008A3E066C3
:10143300700A08A3E066700408A3E06622C3E79677
:101443000809E7960809E7960809E79622C3E09694
:1014530008A3E09608A3E09608A3E09622C008C379
:10146300E096F50808A3E096420808A3E096420830
:1014730008A3E09645087001D3D00822080808EABB
:10148300C0E0EBC0E086F0E7A4FA180986F0E7A411
:101493002AFA180986F0E7A42AFA180986F0E7A4BD
:1014A3002AFA1986F0E7A4FBE5F02AFA190886F070
:1014B300E7A42BFBE5F03AFA190886F0E7A42BFB27
:1014C300E5F03AFA18180986F0E7A4C5F02BFBE417
:1014D3003AFA1908E7C5F0C6A426F6E5F03BFBE4A3
:1014E3003AFA1886F0E7A4F6E5F00826F6E43B0896
:1014F300F6E43A08F6D0E0FBD0E0FA22E4CFC0E00D
:10150300E4CEC0E0E4CDC0E0E4CCC0E075F020C39D
:10151300E633F608E633F608E633F608E633F6185C
:101523001818EC33FCED33FDEE33FEEF33FFC3EC61
:101533009709ED9709EE9709EF97191919400FFFCE
:10154300EC97FC09ED97FD09EE97FE191906D5F006
:10155300BEECF709EDF709EEF709EFF7191919D002
:10156300E0FCD0E0FDD0E0FED0E0FF2260160808EA
:1015730008C6C313C618C613C618C613C618C6139F
:10158300C6D5E0EA22700908080822601618181860
:10159300C6C333C608C633C608C633C608C633C671
:1015A300D5E0EA22E627F60809E637F60809E63722
:1015B300F60809E637F622E026F608A3E036F60831
:1015C300A3E036F608A3E036F622E026F008A3E00F
:1015D30036F008A3E036F008A3E036F022C3E6971E
:1015E300F60809E697F60809E697F60809E697F676
:1015F30022C3E096F008A3E096F008A3E096F00873
:10160300A3E096F022E056F608A3E056F608A3E01E
:1016130056F608A3E056F622E056F008A3E056F08B
:1016230008A3E056F008A3E056F022E0F608A3E092
:10163300F608A3E0F608A3E0F622E6F008A3E6F036
:1016430008A3E6F008A3E6F022E0FAA3E0FBA3E098
:10165300FCA3E0FD22EAF0A3EBF0A3ECF0A3EDF092
:1016630022CAC0E0E6F0A308DAFAD0E0FA22CAC040
:10167300E0E0A3C582CCC582C583CDC583F0A3C5F5
:1016830082CCC582C583CDC583DAE6D0E0CA22C346
:10169300E498F8E499F91216D38026C3E49AFAE49D
:1016A3009BFBE920E7E91216D3E498F8E499F922C1
:1016B300C3E498F8E499F91216D3E498F8E499F995
:1016C300C3E49AFAE49BFB22EB20E7CFE920E7E0AF
:1016D300B90010BB0008E88AF084F8AAF022E4FB02
:1016E300C8FA22EB70227B10C833C8C933C9335000
:1016F30007C39AC3DBF280069A50012ADBEAC83398
:10170300F4C8C933F4C9FA2275F008E4C833C8C968
:1017130033C933C99AC99B5004C92AC93BD5F0ECD4
:10172300FBC833F4C8E4C9FA22600D08C6A2E71364
:10173300C618C613C6D5E0F322600C08C6C313C689
:1017430018C613C6D5E0F422700422600D18C6C370
:1017530033C608C633C6D5E0F41822251810AF08DF
:10176300F518400215198008F51840021519D2AF73
:1017730022C0D0251810AF08F518500205198008AB
:10178300F51850020519D2AFD0D0222518F58210D2
:10179300AF08F518400215198008F518400215190D
:1017A300D2AF851983222518F582E43519F58322F2
:1017B300E4732518C582C0E0E51934FFC583C0E092
:1017C300E518C3958224F810AF088583198582181C
:1017D3008008858319858218D2AFCEF0A3E520F067
:1017E300A37808E608F0A3DEFAEFF0A3E58124FA74
:1017F300F8E608F0A3E608F0A3E608F0A30808E675
:1018030008F0A3E608F0A315811581D0E0FED0E02F
:10181300F8158115811581E8C0E0EEC0E022251896
:10182300C582C0E0E51934FFC583C0E0E518C39560
:101833008224F910AF08858319858218800885836F
:1018430019858218D2AFCEF0A3E520F0A37808E67D
:1018530008F0A3DEFAEFF0A3E58124FBF8E608F035
:10186300A3E608F0A30808E608F0A3E608F0A3152A
:10187300811581D0E0FED0E0F815811581E8C0E044
:10188300EEC0E022851983851882E0A3FEE0A3F56C
:10189300207808E0A3F608DFFAE0A3FFE0A3C0E0A6
:1018A300E0A3C0E0E0A3C0E0E0A3C0E0E0A3C0E0A9
:1018B30010AF08858218858319800885821885836F
:1018C30019D2AFD083D08202012285198385188271
:1018D300E0A3FEE0A3F5207808E0A3F608DFFAE032
:1018E300A3FFE0A3C0E0E0A3C0E0E0A3C0E0E0A367
:1018F300C0E010AF08858218858319800885821897
:10190300858319D2AFD083D08222C0D02518C58257
:10191300C0E0E51934FFC583C0E0E518C395822410
:10192300F310AF088583198582188008858319858C
:101933008218D2AFC8F0A3E9F0A3EAF0A3EBF0A3B7
:101943007908E709F0A3D8FAECF0A3EDF0A3EEF0E1
:10195300A3EFF0A3D0E0F0A3D0E0F0A3D0E0F0A396
:10196300E520F0A3E5F0F0A322851983851882E032
:10197300C0E0A3E0F9A3E0FAA3E0FBA37808E0F654
:1019830008A3DFFAE0FCA3E0FDA3E0FEA3E0FFA3CE
:10199300E0C0E0A3E0C0E0A3E0F5D0A3E0F520A31E
:1019A300E0A3F5F010AF08858319858218800885B8
:1019B3008319858218D2AFD082D083D0E0F8D0E0EB
:1019C3003274048006740280027401C0E0F40412CD
:1019D300178ED0E01216642274048004740280000F
:1019E300CCC0E0EDC0E0E518C39CCCAD1950011D9F
:1019F30010AF068C188D1980068C188D19D2AF1272
:101A03001671D0E0FDD0E0FC22D083D082E9C0E0A3
:101A1300E493A3C386F0C5F095F0F908E493A38695
:101A2300F0C5F095F0700BE493A3C3994005E90466
:101A33008002A3E475F002A42582F582E5F03583E4
:101A4300F583D0E0F9E493A3C0E0E493C0E022D0AF
:101A530083D082ECC0E0EDC0E0E493A3FCE493A365
:101A6300FDED4C600D121A9EEC24FFFCED34FFFDDE
:101A730080EFE493A3FCE493A3FDED4C600D121AF5
:101A8300DDEC24FFFCED34FFFD80EFD0E0FDD0E082
:101A9300FCE493A3C0E0E493C0E022C0E0C3E4937A
:101AA30096087401939618400FE4936670080874BF
:101AB3000193661870007019A3A3C3E49396087486
:101AC30001939618A3A3400DD0E0D0E0D0E0021A12
:101AD3008EA3A3A3A3A3A3D0E022C0E0C0F088F009
:101AE300E4936670080874019366187000A8F0A365
:101AF300A3700BD0F0D0E0D0E0D0E0021A8EA3A305
:101B0300D0F0D0E02274F5121821EAFEEBFFEE24A8
:101B130034F8EF3400F988088909EE2435121C34AF
:101B2300F8EE2437121C34F50AEC850AF0A4FCAA5B
:101B3300F0850AF0EDA42AFDE82CF8E43DF97A25B6
:101B43007B001216D3EA850882850983F074075A4D
:101B5300F87401B800028004C333D8FCFBEA131302
:101B630013541FF8EE28F8EF3400F9E8245DF582EA
:101B7300E9121C375B6003EA801CEE2436121C3426
:101B8300F5F0EA84A8F0EE28F8EF3400F9E82438F9
:101B9300F582E9121C37F97F040218CD74F5121887
:101BA30021EAFEEBFFEE2434121C34C0E0EE2435B0
:101BB300F582EF3400F583D0E0F08E828F83A3A308
:101BC300A3A3A3E0FAA3E0FB8E828F83A3A3A3A323
:101BD300A3A3A3E0FCA3E0FDECC39AF50AED9BF5F8
:101BE3000BEE247FF508EF3400F509850882F583B1
:101BF300E06401702BEE2480F582EF3400F583124C
:101C030019DF121C3D7402121774E960137CDC7D2A
:101C130004EEFAEFFB120B91850882850983E4F049
:101C2300AC0AAD0BEEFAEFFB121B08122463021B86
:101C33009AF582EF3400F583E022C082C0838518D1
:101C430082851983E0F8A3E0F9C3EA9CEB9D501069
:101C5300C3EC98ED99401BC3EA98EB995014800E9E
:101C6300C3EA98EB994007C3EC98ED9940047901D6
:101C730080027900D083D08222EAC39CFAEB9DFBD9
:101C83002274ED1218219003A2E064086005E06459
:101C930007702C9061C8E060269003D0E0F874FFD1
:101CA30068601CE875F003A4C8AAF02AF974D22866
:101CB300FE740339FF8E828F83A3A3A3E07005799B
:101CC30000021E24EE2468F510EF3400F511906035
:101CD30060E0851082851183F0750A45750B0575E3
:101CE3000800750900E5D914F50EE5D95403F50F7D
:101CF300601CEE2482F50CEF3400F50D7403650FC0
:101D03006058E50E6013EE2467121C34700B793DA6
:101D1300EEFAEFFB120BB580A6900540E06401607C
:101D230026850C82850D83E06004780480027800A8
:101D3300850E08E508C398FA95E0FB120A358A0870
:101D43008B09EA45097006120E0D021CC2850C822E
:101D5300850D83E070048A0A8B0B78008016E5D921
:101D6300C0E08812E50A2512F582E50B3400F583FD
:101D7300D0E0F008E8C3950E40E4850C82850D831E
:101D8300E0602874FC250EF50E780A1219C8AC0E13
:101D9300A90FEEFAEFFB120C637402121774E970C9
:101DA3000AAA08AB09121305021D117403650F601B
:101DB30058850E0C750D00780C1219C8AC0AAD0BC2
:101DC300AA08AB09120C27740212177485108285B6
:101DD3001183E0F87480687005750C7F8002880CAD
:101DE300E50CF50A780A1219CCE50FF50A780A1200
:101DF30019CCA90EAC08AD099003D0E0FA7B001210
:101E030008CD740212177480139003A2E064086073
:101E13000BAC0AAD0BEEFAEFFB120CF9120E1979AB
:101E2300017F0C0218CD74F312182174FC12175E93
:101E3300EAFEEBFF8908A2AFE433F509C2AFEE2453
:101E430063F50AEF3400F50B8010AA0AAB0B120BF3
:101E5300DF1213059004E3E004F0850A82850B8307
:101E6300E0F8A3E0F9E849602FE82402FAE9340036
:101E7300FBEA2402F50CEB3400F50D780C1219C8BB
:101E83008A828B83E0FCA3E0F9EEFAEFFB120BD31B
:101E93007402121774E960B29004E3E0605790048F
:101EA300E4E0F89004E3E0C398500C740265087012
:101EB300449004E5E0603E8E828F83A3A3A3A3E056
:101EC300851882851983121F0874021217A9E81254
:101ED3001F089004E2E028F074021217A9AC82AD47
:101EE30083851882851983AA82AB8379011208D965
:101EF3009004E3E4F0E509A2E092AF7404121774CE
:101F03007F060218CDF0A3E4F09004E3E0F822008A
:101F1300008521878522C622C0E074EF12190DA225
:101F2300AFE433FEC2AF759B00906182E0A2E05044
:101F330012E591A2E0500C7591FE740165217003C6
:101F4300121C84E0A2E55051E591A2E5504B759136
:101F5300DF9003A2E064076005E064087023740166
:101F63006521703579019003D0E0FA75F003A4CAB6
:101F7300A8F028FB74D22AFA74033BFB121E2980B3
:101F830018E0640D70139003C4E004F06428700239
:101F9300E4F07A00E0F9120E1F906182E0A2E640BD
:101FA30003022042E591A2E640030220427591BF5D
:101FB3009003A2E064057008120D3B120D478003E5
:101FC300120D41752100120DADE99003A3F07900C4
:101FD300120DA1120AFB7A017B009003A1E0F91212
:101FE3001077907803E064427055900544E014F054
:101FF300704DC2AF121FFA00782AD0E0F618D0E075
:10200300F6E59F540770057509FF800375097FC4C2
:10201300C0E07829E6F50808E65509F509740B7858
:102023000812173CD0E02508F8906270E0A2E74060
:10203300F8E8C333906272F0906270E0D2E0F090FF
:102043006181E0A2E35009E5E9A2E3500375E9F7F2
:10205300A3E0A2E75009E591A2E7500375917FEE53
:10206300A2E092AF7F0402196CC0E0C0D0C082C06E
:1020730083906183E0A2E05009E5BFA2E0500375BD
:10208300BFFEE0A2E15009E5BFA2E1500375BFFD29
:10209300E0A2E25009E5BFA2E2500375BFFBE0A254
:1020A300E35009E5BFA2E3500375BFF7E0A2E45094
:1020B30009E5BFA2E4500375BFEFE0A2E55009E5CF
:1020C300BFA2E5500375BFDFE0A2E65009E5BFA25A
:1020D300E6500375BFBFD083D082D0D0D0E032C0EA
:1020E300E074F212190DE5A7A2E4500FE5A1A2E4F2
:1020F300500953A7EF75A1EF122136E5A7A2E550CA
:102103000CE5A1A2E5500653A7DF75A1DFE5A7A261
:10211300E15009E5A1A2E1500375A1FDE5A7A2E203
:10212300500CE5A1A2E2500653A7FB75A1FB7F016A
:1021330002196C74F81218217521019003A2E0644E
:102143000670077A007B00120D23A2AFE433FED2A0
:10215300AF9003A8E0640170187A207B009003A17C
:10216300E0F91210FB7A207B009003A1E0F9121032
:102173007D906182E0D2E6F0900541E0602185C662
:102183002280169003A7E064017008E5C654F84462
:1021930005F5C653BEFC121F147401652160E4EEFD
:1021A300A2E092AF7F010218CD8E238F248582286F
:1021B300858327851882851983E0CEA3E0CF852800
:1021C30082852783EBC9EAC8EDCBECCA75F010C34F
:1021D300E833C8E933C9EA33CAEB33CBC3EA9EF524
:1021E30026EB9FF525B35004AB25AA26EC33CCEDA3
:1021F30033CDD5F0DAAE23AF242274F11218218A3D
:10220300088B098C0A8D0B90902F7808121608748E
:102213000F1217A9780C12162E90902F780C121605
:10222300087808790C12144090904F501078087970
:102233000C1215E078081214604014800E780C79A3
:10224300081215E0780C12146050047901800279A9
:10225300007F080218CD74ED1218218A088B098CAF
:102263000A8D0B90902F780812160874131217A971
:10227300780C12162E90902F780C121608780C7981
:102283000812144040117808790C1215E0AA08AB23
:1022930009AC0AAD0B802275100075110075120090
:1022A3007513017810790C1215E07810790812155E
:1022B300A7AA10AB11AC12AD137F0C0218CD9090EE
:1022C3002F780812162E8A828B83780812161B7FAA
:1022D300040218CD74F51218218C828D83780812AC
:1022E300162E8A828B8378081215F412232BC3E0EF
:1022F30098F0A3E09912231D401E90909378081242
:10230300162E8A828B8378081215CD8E828F83E0F6
:102313002420F0A3E0344EF080A4F08E828F83C398
:10232300E09420A3E0944E22EA2404F8EB3400F96D
:10233300E8FEE9FF8C828D83A3A3A3A3E0F8A3E0C7
:10234300F98E828F832274F5121821E9FE9004F727
:10235300E0FAA3E0FBEEC333F8E433F9742628F57F
:1023630082748F39F583E02AF508A3E03BF50978F9
:10237300081219C890908712164C1221AC740212DD
:1023830017748A088B098C0A8D0B74107808121540
:102393006FAA08AB097F040218CD74F11218218AC1
:1023A3000C8B0D8C0E8D0F740F1217A9E0FAA3E09E
:1023B300FB74111217A9E0F508A3E0F509780812D8
:1023C30019C8EA2401F508EB3400F509E4F50AF528
:1023D3000B780C790812147F909047780812162E08
:1023E300780C790812147FAA0CAB0DAC0EAD0F124A
:1023F30021AC74021217748B09EA450960047A014F
:1024030080027A00EC2AFCED3400FD74131217A944
:10241300E0F8A3E0F9E8FEE9FFECF8EDF97A717B67
:10242300021216D388088909E4F50AF50B8E828F08
:1024330083780812163DECF8EDF97A717B021216D7
:10244300D38A088B097405780812174B8E828F8301
:10245300A3A3A3A3E508F0A3E509F07F080218CD21
:10246300C082C083E9906000F0D083D08222C2AFE3
:1024730002000022C0E074F212190DA2AFE433FE91
:10248300D2AFC2C0E5D1A2E4500653D1EF1212D5A8
:10249300EEA2E092AF7F0102196CC0E074F2121950
:1024A3000DA2AFE433FED2AFE589A2E04006E58991
:1024B300A2E15003121245758900758900C2C5EE69
:1024C300A2E092AF7F0102196CC0E0C0D0E8C0E087
:1024D300E9C0E0E5A8D2AFC2C7A2E7A2E792AFD0B6
:1024E300E0F9D0E0F8D0D0D0E032C0E0C0D0E8C00E
:1024F300E0E9C0E0C008C009C082C083A2AFE433F2
:10250300F9D2AF9009D3E0F8A3E0687008539AFBBF
:10251300A374018026C2E99009D3E0F5087401256C
:1025230008F074532508F58274093400F583E0F547
:10253300C19009D3E0C394804002E4F0E9A2E092A1
:10254300AFD083D082D009D008D0E0F9D0E0F8D062
:04255300D0D0E032D2
:10255800FFFFFFFFFFFFFFFFC082C083E9900B6D05
:10256800F00227EF74F71217B5E99002E1F07C1931
:102578007D037AFF7BFF12081F9002E274FFF0A32D
:10258800F0A3E4F0A3F079051207A79002E1E0F9BF
:102598001206C97A3D7B081209E77F010218877481
:1025A800F41217B58A088B09EB548060309002E169
:1025B800E0F912105F8A0A8B0BAE0AAF0BEE4F6080
:1025C800138E828F83E064B070031207BFEEFAEFB8
:1025D800FB12104DAA08E5096480FB80047A007B91
:1025E800000227BE74F21217B574FC12175EEAFED9
:1025F800EBFFEE4F603874021217A9EEF0A3EF124A
:102608002A23ECF0A3ED122A23AA82AB831206C375
:10261800E9F508707374121217A91235D7E50A453F
:102628000B60658E828F8312269AEE4F70057508AF
:102638000280557A067B001210B38A0C8B0DA80C09
:10264800A90DE8497005750813803D88828983E4DF
:102658001226A4A3A3EEF0A3EF123A70E50AF0A3A2
:10266800E50BF09002E712272C9002E76017E0FCD8
:10267800A3E08003EAFCEBFD8C828D8312272C708B
:10268800F38C828D831234FCA90874041217740227
:102698003C72A3A3A3A3E0FEA3E0FF22F0A3F0886B
:1026A8008289832274F21217B5890AE975F017A492
:1026B800FEAFF09002E6E4F09002E412272C600AE4
:1026C8001210B99002E4E4F0A3F0EEFAEFFB121056
:1026D800B38A088B09EA4509602FEEFCEFFD790003
:1026E8001210359002E4E508F0A3E509F07B0080BC
:1026F80008122716E4F0A3F00BEBC3950A40F2E5A5
:102708000A9002E6F0790080027913023C72EB75B8
:10271800F017A4F8A9F09002E4E028FAA3E0398AB7
:1027280082F58322123292EA4B2274F41217B5759D
:102738000800750900740C1217A9123A44FEE9FF43
:10274800800CE5082401F508E5093400F509C3E51E
:10275800089CE5099D503285080A85090B740378A1
:102768000A12174BEA250AF8EB350BF98882898398
:10277800A3A3A3A3A3A31235D7EE650A7003EF653D
:102788000B70BFE8FAE9FB80047A007B00802774AD
:10279800F41217B57900EAA2E0501B750812750902
:1027A8009078081219C87C047D007A6F7B0B120799
:1027B800A174021217747F04021887C082C0839024
:1027C80002E71227F6601C88828983A3A3E06A7057
:1027D80003A3E06B8882898370E8A3A3A3A31232C2
:1027E8008E80047A007B00D083D082020122123DC1
:1027F80045E8492274EE1217B574FC12175EEAFE1A
:10280800EBFF851882851983E4F0A3F0EE24021209
:1028180034E0EE2405122A11EE2404F50EEF122DF1
:10282800F6E024FE603924FC604624FE605224FE53
:10283800605E24FE700302291624FE700302298EAE
:1028480024FE700302299D24FE70030229AC24FC97
:1028580070030229BB24FE70030229CA022A0790CA
:1028680003007417F0A3E4122A2B120441022A076A
:10287800851882851983AC82AD831207C50229D7D2
:10288800851882851983AC82AD831207CB0229D7BC
:10289800850C08850D0974021217A9AC82AD8385D1
:1028A800088285098312328E1206E78A0C8B0DACDA
:1028B8000CAD0DEC4D6042E4F50CF50D780C1219D9
:1028C800C8750C00750D03780C1219C8750C0175C4
:1028D8000D03780C1219C874081217A91219DF7998
:1028E800161232881208077408121774E9F50C706A
:1028F8000B123284120459800F750C0185088285E9
:102908000983122A191234FC850C080229DA740288
:102918001217A9AC82AD83850C82850D8312328E85
:102928001206E78A108B11AC10AD11EC4D6043858F
:102938000C82850D83A3A31219DF7510007511038E
:1029480078101219C875100175110378101219C87A
:1029580074081217A91219DF79161232881208079B
:102968007408121774E9F509700B12328412045FA7
:10297800800F750901850C82850D83122A1912347E
:10298800FC850908804C851882851983AC82AD8343
:102998001207D1803A851882851983AC82AD8312DB
:1029A80007D7802B851882851983AC82AD831207DF
:1029B800DD801C851882851983AC82AD831207E3FC
:1029C800800D851882851983AC82AD831207E9E9E9
:1029D800F508E50860298E828F83A3E06414601FE0
:1029E800850E82850F83E0900300122A23123D4151
:1029F8009003011234FCE508A3122A2B12043BEEC3
:102A0800FAEFFB1207650233E8F50CEF3400F50D19
:102A180022123D4585188285198322F08518828502
:102A2800198322F07C007D03850A82850B8312328C
:102A3800922274EE1217B574FC12175E8A0A8B0B79
:102A48008C0E8D0FEA2405F508EB3400F5097C158A
:102A58007D0079007A007B03121035E5082402F521
:102A68000CE509122A148518828519838582108538
:102A7800831178101219C8850882850983A3A3A336
:102A8800A3122F3E1219C8E5082405F510E50934EC
:102A980000F51178101219C8850C82850D83123241
:102AA800981206E174061217748A108B11AE10AFD3
:102AB80011E50A2402F50AE50B1234E3EE4F700320
:102AC800022C00801774021217A912328E8882898C
:102AD80083EAF0A3EBF0900300E004F0900300E039
:102AE800C394054003022C00E4F510F51178101288
:102AF80019C87510E975110278101219C87510EA0D
:102B080075110278101219C874061217A91219DF64
:102B18007910EEFCEFFD12328812080774081217BC
:102B280074E9705E850882850983A3A3A3A3A3A380
:102B3800A3E0F89002E9E0687048122F3E1219C825
:102B48007CEA7D02E5082408FAE5093400FB121046
:102B58002F7402121774E960298E828F83A3A3A3AE
:102B6800A312328E900300E0F51074027810121749
:102B78004B74012510F58274033511F583EAF0A32F
:102B8800EBF074021217A985821085831178101250
:102B980019C874021217A91219DF850C82850D83D2
:102BA800123D561206ED74041217748A108B11AE7A
:102BB80010AF11900300E0F5107511007402781041
:102BC80012174B74002510F874033511F98882899F
:102BD80083A312272C7003022AC4E82403F8E934DB
:102BE80000F9EE4F6003022ACD8882898374FFF0D2
:102BF800A3F0900300E004F0900300E0600A1232B2
:102C08008412044D7900800B85088285098312346B
:102C1800F3790A0233E874EA1217B574FE12175EE4
:102C28008C128D13EA2405F50CEB123EC012269E79
:102C3800750800750900EA2402F510EB3400F51157
:102C480085188285198385820A85830B780A12196B
:102C5800C8850C82850D83A3A3A3A3122E00121985
:102C6800C8E50C2405F50AE50D1234E3780A1219B3
:102C7800C8850C82850D83123D541206E174061234
:102C880017748A0A8B0BEA450B7003022DB1EA24EC
:102C980004F50EEB122DF612269E8A828B83A3A3CF
:102CA800A3E0F985108285118312328E1206CFE9CE
:102CB800F5096003022DB1E4F514F515781412191D
:102CC800C87514E975150278141219C87514EA75CF
:102CD800150278141219C874061217A91219DF7987
:102CE80013AC0AAD0B85108285118312328E12083F
:102CF800077408121774E9F5096003022DB19002F0
:102D0800E9E0F8E5087009E02402900301F0801773
:102D1800900301E0FCE82402FAE43400FBEA6C705A
:102D280001EB6003022DB5850882AA82122F359423
:102D380014122F2D5073850E82850F83E0C0E07426
:102D4800022A122DEDD0E0F00508850E82850F834A
:102D5800A3E0C0E085080A7402250A122DEDD0E030
:102D6800F005089002E9122E001219C87CEA7D02CB
:102D780085080A7402250AFA74033400FB12101D30
:102D880074021217749002E9E02508F50874FF6EC2
:102D9800700374FF6F6012EE24010EEF3400FFE53C
:102DA80008C394145003022C48E5086013123179C3
:102DB80085108285118312328E1204537900801493
:102DC800E509700375090A851282851383EEF0A35D
:102DD800EFF0A90974021217747F0E02188785088C
:102DE8000C7402250CF58274033400F58322340038
:102DF800F50F850E82F58322123A832274EE12179C
:102E0800B574FE12175E8C0E8D0FEA2405F50CEBD7
:102E1800122A14750B00900300E4F0F50AEA240264
:102E2800F508EB3400F5098049900300E0FA9002B8
:102E3800E9E0F8122F359417122F2D400D9003005A
:102E4800E0F87416C3989002E9F0122F3E1219C8E0
:102E58007CEA7D0274012AFA74033400FB12101D07
:102E680074021217749002E9E0F8900300E028F069
:102E7800050AE50C2416F582E50D122DF1E0F8E5BA
:102E88000AC3984003022F16900300E0C39416501B
:102E98007DE50AC333F8E433F9E50C28FEE50D397E
:102EA800FF851882851983AC82AD838E828F831249
:102EB800328E1206E78A108B11AC10AD11EC4D70F2
:102EC80005750B018043E4F510F51178101219C847
:102ED8007510E975110278101219C87510EA751184
:102EE8000278101219C874061217A91219DF791678
:102EF80085088285098312328E1208077408121712
:102F080074E9F50B7003022E311234EF80107C0047
:102F18007D0385088285098312328E120465A90B08
:102F280074020233EAE99400C365D03322EA28F830
:102F3800E43400F9E822E0F51075110078102274E5
:102F4800EA1217B574FC12175E8A0C8B0D8C128D61
:102F580013EA2405F50AEB1234E375080075090035
:102F6800E50A2402F510E50B3400F5117402121776
:102F7800A985820E85830F780E1219C8850A828565
:102F88000B83A3A3A3A3123A2F1219C8E50A240599
:102F9800F50EE50B3400F50F780E1219C88510826E
:102FA8008511831234E91232881206E17406121769
:102FB800748A0E8B0FAE0EAF0FE50C2402F50EE5EA
:102FC8000D3400F50F80408882898374FFF005086E
:102FD800122DE674FFF005089002E9E0F50C750D76
:102FE80000780C1219C87CEA7D0285080C74022549
:102FF8000CFA74033400FB12101D7402121774903B
:1030080002E9E02508F508EE4F60718E828F83A3F0
:10301800A3A3E0F9850E82850F8312328E1206CFA4
:10302800E9F509EE2404122A11E97044E4F514F5CF
:103038001578141219C87514E9751502781412193F
:10304800C87514EA75150278141219C8740812178D
:10305800A91219DF7911EEFCEFFD850E82850F8329
:1030680012328E1208077408121774E9F5096027DE
:10307800850C82850D8312316F1234FCE5087003CC
:10308800023155123179850E82850F8312328E12E4
:10309800046B790002316A850882AA82EA9002E903
:1030A8007009E02404900301F08022E0F890030105
:1030B800E0F514E82404FCE43400FDEC6514700128
:1030C800ED70C0122F359412122F2D50B6850C8238
:1030D800850D83E0C0E074022A122DEDD0E0F005E2
:1030E80008850C82850D83A3E0C0E0122DE6D0E0B0
:1030F80012318B85820C85830D780C1219C87404E3
:103108001217A91219DF851082851183123D5612F4
:1031180006ED74041217748A0C8B0DAE0CAF0D8576
:10312800080C7402250CF874033400F9EE4F700390
:10313800022FCF851882851983E08882898312310E
:103148008BA3E0C0E0122DE6D0E0022FDDE5097088
:103158000375090A850A82850B8312316F1234FCC4
:10316800A9097404022DDE123D4585128285138358
:1031780022900301E0F5F0E50884900300F07C005C
:103188007D0322F005088518828519832274EC12C4
:1031980017B574FE12175E8A088B098C0E8D0FEA1C
:1031A8002405FEEB3400FF851882851983AC82ADB7
:1031B800838E828F8312328E1206E78A0A8B0BEE79
:1031C8002418122A11EA450B700302325F1233D118
:1031D800503285188285198312328E1207FB8A10A5
:1031E8008B11EA4511606B7912AC0AAD0B85088228
:1031F80085098312328E8510828511831217B3E9EF
:10320800F50A7058E4F50AF50B780A1219C88E8287
:103218008F83A3A3E0F50A780A1219C8EE240312D3
:1032280034E0780A1219C88E828F831232981208F5
:103238000D7406121774E9F50A7021850C82850D44
:1032480083E0701F85088285098312328E1204710B
:103258008011750A0E8009750A018004E50A600369
:103268001234EF850C82850D83E0600479008002BA
:10327800A90A74021217747F0C0218877C007D0358
:10328800850A82850B8312329222E0FAA3E0FB22A0
:10329800E0FCA3E0FD85088285098312329222743E
:1032A800EE1217B574FE12175E8A088B098C0C8D06
:1032B8000DEA2405FEEB3400FF750E0085188285A3
:1032C8001983AC82AD838E828F8312328E1206E709
:1032D8008A0A8B0BEA450B70030233BD1233D150B7
:1032E8003585188285198312328E1207FB8A0E8B58
:1032F8000FEA450F605E7912AC0AAD0B850882852E
:10330800098312328E850E82850F831217B3E9F571
:103318000E60030233C08508828509831235D7AA57
:103328000AFB1207EF8A108B11A810A911E849703F
:103338001E7AFF7BFF1207EF8A108B11A810A911C4
:10334800E849606C88828983E50AF0A3E50BF0758B
:103358000A008007750E0E805F050A9002E6E0FA03
:10336800E50AC39A504AE50A75F017A4FAABF08843
:10337800828983A3A3E02AFAA3E03BFB8A828B839A
:103388001234E9EC4D70D2750A17750B00780A12E1
:1033980019C8EEFCEFFD12101D7402121774EEFC32
:1033A800EFFD85088285098312328E120477801416
:1033B800750E098003750E01123D3D850C82850D41
:1033C800831234FCA90E022F28E5082402F508E52B
:1033D800093400F5098A828B83A3A3A3E0A2E5221E
:1033E80074041217747F0A02188774EC1217B58CCC
:1033F800108D11EA2405F50CEB122A14750F00EA5A
:103408002402F50AEB1234E3850A82F58312328E20
:103418001207EF8A088B09EA450970030234D5754B
:103428000E008071850C82850D83E06401704F8EDB
:10343800828F83A3A31219DF8E828F83A3A3A3A3F2
:10344800E0F51275130078121219C8EE2405F5126A
:10345800EF3400F51378121219C812328812080DC9
:103468007406121774E9F50F6014850C82850D83B4
:10347800E4F0123D3D8510828511831234FC7C17DF
:103488007D007900EEFAEFFB1210358E828F83E40F
:10349800F0A3F0050E9002E6E0F8E50EC398501E82
:1034A800E50E75F017A4F8A9F0850882850983A3AD
:1034B800A3123ECA1234E9EC4D600302342C85088D
:1034C8008285098374FFF0A3F0E50F700612328835
:1034D80012047DA90F02327FF50AEF3400F50B22A2
:1034E800A3E0FCA3E0FD228E828F83123D45850E6A
:1034F80082850F83E8F0A3E9F022C082C08390029E
:10350800E2E06A7003A3E06B70067AE27B02800453
:103518007A007B000227EFC082C08378008C828DFE
:1035280083E06A7003A3E06B7010E875F003A4F8F9
:10353800A9F0EC28FAED39FB8015088C828D83A35D
:10354800A3A3E06A7003A3E06B60DF7A007B00024C
:1035580027EF74F61217B51207B98A828B83E582B2
:10356800458370067A007B008007A3A3A3A31232C9
:103578008E023BEE74F21217B5E9FE740E1217A90B
:103588001235D774101217A9123A4F8C828D83E026
:1035980064027036A3123D4BF50CA3E0F9A80C7435
:1035A800026870037429697021750C02750D007822
:1035B8000C1219C878081219C8780A1219C8EEF935
:1035C800120831740612177480027901023C72E005
:1035D800F50AA3E0F50B2274E81217B574FB12176D
:1035E8005EE9851882851983F08A168B17ECFEED43
:1035F800FF751000741D1217A9123D41741D121792
:10360800A91234FC8E828F83A3A3A3E0A2E4502DD9
:10361800741D1217A912328E1207FB8A828B83E55A
:103628008245837003023A20790AEEFCEFFDAA1660
:10363800AB171217B3E9F5106003023A23741F128F
:1036480017A9123A4F74211217A91235D7742312E9
:1036580017A9E0F50EA3E0F50F8E828F83E06402D0
:1036680060030239CEA3123D41850882850983A3F0
:10367800858212858313EE2406122A118882898393
:10368800E0FAA3E0F9EA2400F514E439F515781412
:10369800121A52010000280128C3360700022888A0
:1036A800370328F5360029BF380129EA3802298B63
:1036B800380329BF3804296939CE39E50E450F602A
:1036C800030239C9850C82850D83123A44FAE9FB55
:1036D8008A828B83E0850A82850B83123A7A1219D3
:1036E800C88A828B83A3E0FCA3E0023953E50E4528
:1036F8000F60030239C9850A82850B837401F012B1
:103708003A57850882850983F07C007D008E828F78
:1037180083A3A3A3A3E02401FAA3E03400FB1206C9
:10372800E7EA4B60418A828B83E02402F8850A82AB
:10373800850B83E028F0EA2404F8EB3400F988824A
:103748008983E0851282851383123A8C123A7A12A1
:1037580019C88A828B831234E8E5082403FAE5093C
:103768003400FB023958850A82850B83E02404F073
:103778007C047D007900AA12AB13121035023A239B
:10378800E50E450F60030239C9123A57FEA3E0FF60
:10379800850A82850B837404F0EE85088285098387
:1037A800F0EF851282851383F074031217A9AC8297
:1037B800AD83EEFAEFFB1206E78A0C8B0DEA450D96
:1037C800700302386C8A828B83A3A312269A740131
:1037D8001217A985820E85830F780E1219C87405F1
:1037E8001217A91219DF7CFF7DFF1206ED7404126F
:1037F80017748B0FEA450F7033850C82850D831281
:103808003A2F1219C8850C82850D83A31219DF7C03
:10381800027D007ABE7B901205197404121774E9B0
:10382800700A74011217A974FFF0A3F08E828F83B7
:10383800E064027039750C02750D00780C1219C815
:103848008E828F831234E8E5082404FAE5093400EF
:10385800FB12101D7402121774850A82850B83E00F
:103868002402800974011217A9EEF0A3EFF0740185
:103878001217A9123A40F074011217A9A3123A3884
:103888000239C3E50E450F60030239C9850C8285EC
:103898000D831234E9AA16AB17120825850A82850A
:1038A8000B837402F0EA850882850983F085128209
:1038B800851383EB0239C6E50E450F60030239C94B
:1038C800123A57F8A3E0F9850A82850B837402F04F
:1038D800E8850882850983F0E985128285138302C9
:1038E80039C6850C82850D8312328E121017EAFCB8
:1038F8008C82A882C3950EE4950F405FE8650E7030
:1039080002E50F70047C008022851882851983E007
:10391800FAE50E2AFAE50F3400FBC3EA98EB9400A7
:103928005003E08005E50ECCC39CFCEC850A82853B
:103938000B83F08C0A750B00780A1219C8850C8263
:10394800850D83E0250EFCA3E0350FFDAA08AB0921
:1039580012101D7402121774023A23751007023AE6
:1039680023E50E450F705A850C82850D83123D4163
:10397800850A82850B8374071226A6123A38122606
:10398800A6A3E0851282851383F0E82402FAE934BD
:1039980000FB8A828B83123A38123A67123A40A3A4
:1039A800123A70123A49F0E82405F8E93400F98827
:1039B800828983123A49A3123A8CA3A3A3A3F08065
:1039C8005A75100B8055741D1217A912328E1207E2
:1039D800B98A828B83E5824583603D123D41880C1C
:1039E800890DE8450D6031780E1219C8780A121948
:1039F800C878081219C874061217A9E0F9EEFCEF86
:103A0800FDAA16AB17850C82850D831217B37406B1
:103A1800121774E9F510800375100EA910740512B9
:103A280017747F10021887E0F50E750F00780E22C4
:103A3800E085088285098322123A9622123D45E8DC
:103A480022123A96A3A322E0F508A3E0F5092285FD
:103A58000C82850D83E0F8A3E0F5838882E022A339
:103A6800A3F08A828B83A322F088828983A3A3A3ED
:103A7800A322F08A828B83123A8322E0F50A750B1F
:103A880000780A22F088828983A3123A9622E08578
:103A98000882850983A3A32274EE1217B574FE1257
:103AA800175E8A0A8B0BECFAEDFB74141217A9E067
:103AB800F510A3E0F51174161217A9E0FE74181298
:103AC80017A9E0F50EA3E0F50F851882851983ACD8
:103AD80082AD831206E78A0C8B0DEA450D60498595
:103AE800188285198312328E1207B98A828B83E570
:103AF800824583602FA3A3123A4FE5084509602445
:103B0800780E1219C878101219C8EEF9AC0CAD0D60
:103B1800AA0AAB0B8508828509831217B3740412AD
:103B280017748006790E80027901022F2874F61224
:103B380017B574FE12175E740C1217A9123A448551
:103B48001882851983F074011217A9E9F0E4F508C1
:103B5800F50978081219C875080278081219C87486
:103B6800041217A985820885830978081219C812D2
:103B7800080D74061217747402121774806874F7AB
:103B88001217B5EAFEEBFF89087C197D0312082598
:103B9800EA5402600BA908EEFAEFFB1206DB80027A
:103BA80079010225A274F61217B574FF6A700374BE
:103BB800FF6B70168C828D83123BF3E4F08C828D40
:103BC80083A3A3A3123BF3A380181207F58A088BDB
:103BD80009A808A909E849600D8882898374FF1239
:103BE80026A4A3A3E4F07F0202188774FFF0A3F0D1
:103BF8008C828D83A3A32274F61217B51207F58A57
:103C0800828B83E58245836006A3A3E0FA80027A6B
:103C1800007B0080D174F21217B58A088B09ECFE7C
:103C2800EDFF740E1217A9E0F50A1207F58A0C8B3E
:103C38000DA80CA90DE8497026EEFCEFFD7AFF7B74
:103C4800FF1207F58A0C8B0DA80CA90DE849700422
:103C58007911801688828983E508F0A3E509F08840
:103C6800828983A3A3E50AF079007F060218877486
:103C7800EE1217B5EAFEEBFF8C088D09890C741457
:103C88001217A9123D4174161217A912328E750D1A
:103C980000E8496003023D357402650C6003023D8B
:103CA8003074121217A9123D4BFCA3E0F9EC240062
:103CB800F50EE439F50FEAF4F8EBF4F9EC58F8E509
:103CC8000F59F9E849705CE5082406F8ED3400F965
:103CD800880A890B8882F583123D561208258A10B6
:103CE8008B11E50E65107004E50F65116042780EC2
:103CF8001219C8850A82850B83123D5612082B7447
:103D080002121774E9F50D7027780E1219C8850884
:103D180082850983A3A3123D541208437402121723
:103D280074800D750D808008750D0D8003750D0B61
:103D3800A90D0233ED8E828F83123D4522E0F8A350
:103D4800E0F922123D4588828983E022A3A3E0FCA2
:103D5800A3E0FDEEFAEFFB2274E81217B574E71240
:103D6800175E851882851983EAF0A3EBF08C168D0F
:103D780017890E75080075090074311217A9E0F546
:103D880012A3E0F51374331217A9E0F514A3E0F5B4
:103D98001574351217A9E0F50FE50975F003A4F8B5
:103DA800A9F0851882851983123ECAE0F47003A32E
:103DB800E0F47003023EADEE2402F50CEF123EC0B3
:103DC800E07003023EAD85160A85170B780A1219B2
:103DD800C8AC14AD15AA12AB131207AD74021217B2
:103DE800748A0A8B0BEA450B7003023EADE4F510AA
:103DF800F51178101219C874061217A98582108552
:103E0800831178101219C874091217A985821085B0
:103E1800831178101219C8851282851383A3A3A36E
:103E2800A31219DF7914AC0AAD0B8E828F8312327C
:103E38008E1208077408121774E97069850A82855A
:103E48000B83A3A3A3A3123D4174021217A9123432
:103E5800FC850C82850D83E0A2E05018A90E74023F
:103E68001217A9AC82AD838E828F8312328E12060E
:103E7800FFE94208850C82850D83E0A2E15026E522
:103E88000FF50A780A1219CCA90E74031217A9ACF7
:103E980082AD838E828F8312328E1206F9740112DC
:103EA8001774E942080509E509C394025003023D65
:103EB800A1A9087419023A273400F50D850C82F57A
:103EC8008322E028FEA3E039FF8E828F832274F2DA
:103ED8001217B5EAFEEBFF890B7401650B600E74CF
:103EE80002650B706A7901120A05E97062EEFAEF51
:103EF800FB1207EF8A088B09EA45096047750A0033
:103F0800800B7C177D007900121035050A9002E6B7
:103F1800E0F8E50AC3985021E50A75F017A4F8A956
:103F2800F0850882850983A3A3E028FAA3E039FB7A
:103F38008A828B831227F670C98508828509837463
:103F4800FFF0A3F07C197D03EEFAEFFB12081F02C5
:103F58003C7274F21217B58A088B09ECFEEDFF74F7
:103F68000E1217A91235D7900B6DE0F4603D7A094F
:103F78007B00121047EA4B60328A828B8374B1F05F
:103F8800A3E4123A69A3123A67A3E508F0A3E50986
:103F9800123FB6EEF0A3EF123FB6A3A3E50AF0A3D3
:103FA800E50BF0900B6DE0F9121053023C72F08AA9
:103FB800828B83A3A3A3A3A32274F01217B574FA68
:103FC80012175E890BECFEEDFF750A008A088B0953
:103FD8007808121A0C000410F441044022403C40B6
:103FE800544072408A40AD40C540D94003418B419E
:103FF8009C41B341CE41F441F44119417401650B30
:1040080060030241EF8E828F83E0F8C3940340037C
:104018000241EFE8900C590241CB7402650B600332
:104028000241EF8E828F831248F1900C5AE8F0A378
:10403800E90241CB7401650B60030241EF12421C97
:1040480040030241EFE89007660241CB7401650B1B
:1040580060030241EF8E828F83E0F8C3940540032A
:104068000241EFE89007670241CB7401650B6003DA
:104078000241EF12421C40030241EFE89007680238
:1040880041CB7410650B60030241EF750810750988
:104098000078081219C87A697B0712101D74021279
:1040A80017740242157401650B60030241EF124256
:1040B8001C40030241EFE89007790241CB74016587
:1040C8000B60030241EF8E828F83E0900C5D02410A
:1040D800CB7404650B60030241EF8E828F83780CEA
:1040E80012162E909087780C12146050030241EF3C
:1040F80090077B780C12163D024215E960030241D5
:10410800EF120687E970051211AF806090080E80E3
:104118006E7407650B60030241EF750806750900A8
:1041280078081219C88E828F83A3AC82AD8374027B
:104138001217A9AA82AB8312102374021217747C77
:10414800007D00851882851983AA82AB838E828FB1
:1041580083E0F9121155E9F508C3940A40030242B5
:1041680012120687E9700CA9081211B579501213BA
:1041780083806F740F2508F58274083400F5837402
:104188000180407401650B705E12421C5059E89022
:10419800077A802F7401650B704D8E828F83E0F84B
:1041A800C3940A5042E8900C5C80187401650B7047
:1041B800368E828F83E0F874F928C3940A5028E871
:1041C800900C5EF080477401650B701B90080DE041
:1041D800F88E828F83E090080DF0E87030E064017B
:1041E800702B1211A38026750A188021C3EA942720
:1041F800EB940050157402650B700F8E828F83123A
:104208004CF0120525E9F50A8003750A02A90A741B
:10421800060248E68E828F83E0F8C394022274F087
:104228001217B574CC12175E8C0A8D0B74201217F6
:10423800A9AC82AD837583907582067406121671D7
:1042480074201217A9AC82AD83121155E9F50874D0
:10425800441217A9E0FEE9C3940A40030243947587
:10426800F006E9A4F50974261217A9AC82AD837A81
:104278000E74202509F912137DE97009743212179A
:10428800A9E0FF80027F00900C59E064027004747A
:10429800018001E4F50D780D1219CCEEFDEFFCA9B3
:1042A80008AA0AAB0B1211D974011217747C147D79
:1042B800007900740C1217A9AA82AB831210357406
:1042C8000C1217A9AC82AD837A1074242509F9124F
:1042D800137DE9703C7C1079FF740C1217A9AA822F
:1042E800AB8312109BE97029741C1217A9AC82AD1C
:1042F800837A0474252509F912137D740C1217A901
:10430800AC82AD83EFA2E0E433F9AA0AAB0B120545
:10431800AF851882851983AC82AD837A0C747025B9
:1043280008F912137DE97053851882851983AA82CA
:10433800AB83121185750800E50875F003A4F8A988
:10434800F0851882851983E58228F8E583124AFAF0
:10435800124CEA601D88828983A3A3E0F50E750FCD
:1043680000780E1219C8AA0AAB0B120813740212AD
:1043780017740508E508C3940440BDEFA2E1500C8A
:10438800900765E0F9AA0AAB0B12081974046E705D
:1043980027900C59E06402701F7A00900779E0605A
:1043A800010A900766E06004780480027800E84A11
:1043B800F9AA0AAB0B12066F790074340248E67446
:1043C800F01217B5EAFEEBFF8C088D09750A0AE9A9
:1043D800600C146009146037146079024476121175
:1043E80097E9F50AC3940A4003024476E5084509AB
:1043F800607C750E06750F00780E1219C8EEFCEF7A
:10440800FDAA08AB0912101D7402121774805F759B
:104418000B00750E06750F00780E1219C8EEFCEF2A
:10442800FDE50B75F00EA4F8A9F0748728FA740757
:1044380039FB12102F7402121774E9600C850B0AED
:10444800E50AC3940A50278016050BE50BC3940AA6
:10445800501C80BE12119DE9F50AC3940A500FE55D
:104468000845096009AA08AB09A90A121191A90A05
:104478000248E974F41217B5890875091574FF6ABA
:10448800700374FF6B70277E00AC087A027B00EE25
:10449800F9121173E960037509000EEEC3940A401E
:1044A800E8E50860537AC77B11120A17804A120997
:1044B800F98A0A8B0BAE0AAF0BEE4F60387C007D91
:1044C80000EE2405FAEF3400FB8E828F83A3A3A3AA
:1044D800A3E0F9121155E9C3940A500CAC087A020A
:1044E8007B00121173750900E508600CEEFAEFFB0A
:1044F8001211C78003750914A9098005740E1217D3
:10450800747F0402188774F21217B5ECFEEDFF757C
:104518000815740E1217A9E0F50AA3E0F50B74FF4D
:104528006A700374FF6B7021750900AC0AAD0BEE5D
:10453800FAEFFBA909121179E9600375080005096A
:10454800E509C3940A503F80E21209F98A828B83F5
:10455800E5824583602D7C007D00E5822405FAE52F
:10456800833400FBA3A3A3A3E0F9121155E9C39474
:104578000A5013AC0AAD0BEEFAEFFB12117975086D
:10458800008003750814A90802532CC082C08390C8
:10459800077FEAF0A3EBF0900765E0FC7D007A2640
:1045A8007B00120525900765E0F912078F025187F5
:1045B80074F01217B574EC12175EEAFEEBFFEE24E6
:1045C8000CF50CEF3400F50DEE2405F50EEF340074
:1045D800F50FEE2409F50AEF3400F50BEE2403F588
:1045E80008EF3400F5098E828F83A3A3E024FA70C4
:1045F8000302488A24FD70030247A514700302468B
:104608009114601024FD700302477C147003024764
:10461800D90248E21255276048E0F583888212489B
:10462800F1880E890FE8450F6037850C82850D8368
:10463800E0F50C780C1219CCEE240BF582EF124A37
:10464800C1F9850A82850B83124CF00A0A0AAB0964
:10465800850E82850F831217B374011217740248EE
:10466800E2850A82850B831219DF90077B12164CAC
:104678001205C17402121774E970030248E2790145
:10468800850A82850B830248558E828F83A3858293
:104698000A85830BE0600302475F850E82850F83DE
:1046A800E0A2E0400302475F90081912552A600310
:1046B80002475F7C0E7D007900851882851983AAE0
:1046C80082AB83121035850C82850D83125152EA14
:1046D8004B6010750C06750D00780C1219C8EA2489
:1046E80010801B12514C1209F9EA4B70030248E280
:1046F800750C06750D00780C1219C8EA2405FCEB38
:104708003400FD74021217A9AA82AB8312101D741B
:1047180002121774850E82850F83E0A2E25004D23C
:10472800F08002C2F0A2F0E433F8740C1217A9E08A
:1047380048F0EEFCEFFD851882851983AA82AB83C9
:1047480012118BE970117A027B00900765E0F9126B
:10475800107779000248E412552770030248E212E4
:1047680048F770030248E2850A82850B83E0FC79EA
:104778000102487E12552770030248E21248EE896A
:104788000BE8450B70030248E28E828F83A3E0FC9E
:10479800790212514C8882850B830248857C007D02
:1047A80000EE2404FAEF3400FB850882850983E0D3
:1047B800F9121155E9F8C3940A40030248E2EE24BD
:1047C8000AFCEF124CC6E8A42425F9121377024814
:1047D800E212514C90077AE06007900C5CE0F98097
:1047E8006F900C59E07004790580651209F98A0CFC
:1047F8008B0DA80CA90DE82404F50CE93400F50D7F
:104808008E828F83A3A3A3A3A3A3A3E0A2E0504611
:10481800E84970030248E2850C82850D83E0FE605A
:1048280035850A82850B83E05410702A740E12179E
:10483800A9AC82AD83E82405FAE93400FBEEF9124D
:104848001155E9701179038508828509831251523F
:104858001205BB0248E2AC0EAD0F850C82850D83B4
:10486800E0F912514C1211D3125527606D1248F716
:1048780060687C00790012514C8E828F831217B3C6
:104888008058120687E9705290080EE0640170158E
:104898001211AF90080EE4F07C0AFDF97A0F7B083C
:1048A800121035802D750A00850A08740F2508FE38
:1048B80074083400FF8E828F83E06401700BA90AAC
:1048C8001211B58E828F83E4F0050AE50AC3940AB3
:1048D80040D679501213831211A379017414121758
:1048E800747F08021887124906E0F8A3E0F922123B
:1048F8004906E0F8A3E0F9E8FEE9FFEE4F22E0F50B
:10490800838882A3A32274F41217B574F212175E77
:10491800EAFE8C0B75F006E9A42420F508851882B8
:10492800851983AC82AD837A0EF912137DE970572D
:104938007C0679FF851882851983AA82AB831210B9
:104948009BE97043740C1217A91248F1E8F509E5C0
:104958000B6005EE42098004EEF45209850982AA2B
:1049680082E86A7001E9601B740C1217A9EAF0A3C7
:10497800E4F0851882851983AC82AD837A0EA90884
:1049880012137779018002790002450474F2121734
:10499800B574E612175E890A8A088B09ECFEEDFFEA
:1049A800740C1217A9AC82AD837A0E75F006E9A4CF
:1049B8002420F912137DE96003024AB47C0679FFCA
:1049C800740C1217A9AA82AB8312109BE960030228
:1049D8004AB47470250AF50B851882851983AC8250
:1049E800AD837A0CF912137DE96003024AB0851889
:1049F80082851983AA82AB83121185E5084509705F
:104A08002C7C0C7900851882851983AA82AB8312C5
:104A1800109BE96003024AB07C0C7D007900851880
:104A280082851983AA82AB83121035805D8518822E
:104A3800851983AC82AD83AA08AB0912117F8A0C51
:104A48008B0DA80CA90DE8497028EE4F605E8518FB
:104A580082851983AC82AD837A007B0012117FEACC
:104A6800F8EBF9EA4B604588828983E508F0A3E50D
:104A780009F0124ABBFAEE6A7001EF602BEEF04FB4
:104A8800700888828983E4F0A3F0851882851983E9
:104A9800AA82AB83121185851882851983AC82ADF1
:104AA800837A0CA90B121377790180027900741AA2
:104AB800025329E82402F582E93400F583E02274E0
:104AC800F71217B57F00EF75F003A4F8A9F0EC28EA
:104AD800F8ED124AFAE06A7003A3E06B7006E8FA90
:104AE800E9FB800B0FEFC3940440DB7A007B0002E4
:104AF8004EA539F9888289832274F71217B57E008A
:104B0800EE75F003A4F8A9F0EA28F8EB124AFAE0E7
:104B1800F4FCA3E0F4FD88828983ECF0A3EDF012A5
:104B28004ABBF4F00EEEC3940440D5024EA574F2CD
:104B38001217B574F412175EEAFEEBFF8C088D09A4
:104B480090081912552A7051EE4F7003024CBFECB1
:104B580045097003024CBF121197E9900C5FF0C32E
:104B6800940A4035750B007C0679FFE50B75F00E4D
:104B7800A4FAABF074812AFA74073BFB12109BE984
:104B88006005850B0A800C050BE50BC3940A40D71A
:104B9800750A0AE50A900C5FF0900C5FE0C3940A6E
:104BA8004003024CBF75F006E0A4FB9008191255AB
:104BB8002A706FEEFCEFFD7A0E74202BF912137732
:104BC8007C0C7D0079FF851882851983AA82AB83C6
:104BD800121035851882851983AC82AD837A0C90C2
:104BE8000C5FE02470F9121377750C0E750D0078C0
:104BF8000C1219C8EEFCEFFD900C5FE075F00EA4E6
:104C0800F8A9F0748128FA740739FB12101D740290
:104C1800121774900819E508F0A3E509F079000265
:104C28004CC1E0C82406124CE3601A7A1B74212B8D
:104C3800F9121377124CCF2406F582E83400F58375
:104C4800E4F0A380D7124CCF240A124CE360107A08
:104C58001B74222BF9121377124CCF240A80DA1214
:104C68004CCF240C124CE360107A1074232BF912E9
:104C78001377124CCF240C80C0124CD8124CE3602E
:104C88002A7A1074242BF9121377124CD8F582E87B
:104C9800124AC12410FCA3E0124CC6900C5FE0A499
:104CA8002425F9121377124CD8808E90080DE060F5
:104CB800031211DF1211CD7901740C02532934004B
:104CC800FD7A0475F00622900819E0F8A3E0C822DE
:104CD800900819E0F8A3E0C8240822F582E8340017
:104CE800F583124CF0EC4D22E0FCA3E0FD2274F4B5
:104CF8001217B574F212175EEAFEEBFFE9C3940AC5
:104D08005004EE4F70047902803E8518828519831D
:104D1800AC82AD837A0E75F006E9A42420F912134B
:104D28007DE9F5087020750A06750B00780A1219D6
:104D3800C874021217A9AC82AD83EEFAEFFB121009
:104D48001D7402121774A90802450474F41217B5E9
:104D5800EAFEEBFF750800750A06750B00780A1263
:104D680019C8EEFCEFFDE50875F00EA4F8A9F0747B
:104D78008128FA740739FB12102F7402121774E98C
:104D88006004A908800B0508E508C3940A40C8799F
:104D98000A02450974F71217B574F012175EEAFE95
:104DA800EBFF750800851882851983AC82AD837A7C
:104DB8001075F006E508A42423F912137DE9702C78
:104DC8007C1079FF851882851983AA82AB8312101B
:104DD8009BE97018EEFCEFFD851882851983AA827D
:104DE800AB83120591E97004A908800B0508E50852
:104DF800C3940A40B0790A7410121774024EA5744D
:104E0800F71217B5750800E50875F00EA4F8A9F0B3
:104E1800748128FE740739FFEEFCEFFD7A0E75F0F9
:104E280006E508A42420F912137DE9602C7C067D90
:104E38000079FFEEFAEFFB1210357C067D0079FF52
:104E4800EE2406FAEF3400FB121035EE240CF5823E
:104E5800EF3400F583E4F0A3F00508E508C3940AED
:104E680040A590080DE060031211DF1211CD802DCE
:104E780074F71217B57E007F007C0679FFEF75F096
:104E88000EA4FAABF074812AFA74073BFB12109B4C
:104E9800E970010E0FEFC3940A40DEEEF97F0102BC
:104EA800188774F71217B57E00EEF91211B50EEED9
:104EB800C3940A5003E960F180E374F31217B574E0
:104EC800CB12175EE9FE900C5FE06E701B7A017BD7
:104ED80000900765E0F912107D7A027B0090076563
:104EE800E0F912107D1211EB75F006EEA4FF7420A4
:104EF8002FF50874271217A9AC82AD837A0EA9087A
:104F080012137DE96003024FFC7C0679FF742712B7
:104F180017A9AA82AB8312109BE96003024FFC7C9D
:104F28000E7D0079FF74271217A9AA82AB8312108D
:104F3800357C1B7D0079FF740C1217A9AA82AB83FC
:104F48001210357C0C7D0079FF851882851983AA9B
:104F580082AB8312103574271217A9AC82AD837AFD
:104F68000EA908121377E9F508740C1217A9AC8278
:104F7800AD837A1B74212FF9121377E9F509740CA4
:104F88001217A9AC82AD837A1B74222FF9121377FA
:104F9800E9F50A740C1217A9AC82AD837A10742350
:104FA8002FF9121377E9F50B740C1217A9AC82AD1F
:104FB800837A1074242FF9121377E9F50C740C1204
:104FC80017A9AC82AD837A0474252FF9121377E9F7
:104FD800FF851882851983AC82AD837A0C74702E94
:104FE800F9121377E9F8E509450A450B450C4F48CE
:104FF80042088003750800A90874351217747F05E4
:1050080002188774F71217B5E9900765F01211A313
:10501800024EA574F41217B5EAFEEBFF5480700334
:105028000250B3900765E0F912105F8A088B09EA0D
:105038004509607078018A828B83E02450603D14B2
:10504800600624E1604F8052A3A3A3A3E0704E8AB8
:10505800828B83A3A3A3A3A3A3A31219DF8A828BA2
:1050680083A3A3A3A3A3124CF08A828B83A3A312C6
:10507800515212116174021217748021A3A3A3A3C1
:10508800E0641E701879008A828B83A3A3125152A0
:1050980012115B800812116DE9F8E86007AA08ABE5
:1050A8000912104DEEFAEF64808065EE5402602319
:1050B8007C007D007A007B0012118BE960117A0177
:1050C8007B00900765E0F9121077EE6402803F7A62
:1050D800028046EEA2E0503F1251261251521211A0
:1050E800E5E9602F125527601F1248EE88088909E4
:1050F800E8450960137C0079011251261251528546
:1051080008828509831217B31211EBEE6401FAEFD6
:10511800FB80087A0180027A007B0002450990082A
:1051280019E0F8A3124906A3227F02021887C08259
:10513800C083900765E0F98A828B83A312515212CB
:105148000819803B850882850983E0FAA3E0FB22E1
:10515800C082C08374FF12175E1211A9E9C39402BA
:10516800851882851983400474028002740AF0ACA1
:1051780082AD837A01790512069F7401121774D0E3
:1051880083D08202012274F21217B574E812175EF6
:10519800EAFEEBFF890A8C088D097C187D007900EE
:1051A800851882851983AA82AB83121035851882E7
:1051B800851983EEF0A3EFF0900767E0C0E0740272
:1051C8001217A9D0E0F0900768E0C0E07403121746
:1051D800A9D0E0F0900C5EE0C0E074171217A9D0D7
:1051E800E0F074151217A9E054FEF8A3E0F9900C4A
:1051F8005DE0A2E0E433FAE84AF874151217A91240
:105208005338A2E15004D2F08002C2F0E854FDFA0B
:10521800A2F0E43333F8EA48F874151217A91253C8
:1052280038A2E35004D2F08002C2F0E854F7FAA2A0
:10523800F0E433F50C750D007403780C12174B125B
:1052480053311217A9125338A2E45004D2F0800245
:10525800C2F0E854EFFAA2F0E433F50C7404780CC9
:1052680012174B1253311217A9125338A2E55004E2
:10527800D2F08002C2F0E854DFFAA2F0E433F50C71
:105288007405780C12174B1253311217A9125338A0
:10529800A2E25004D2F08002C2F0E854FBFAA2F075
:1052A800E433F50C7402780C12174B1253311217B1
:1052B800A9E8F0A3E9F0900768E0601D750C107884
:1052C8000C1219C87C697D0774061217A9AA82AB4B
:1052D8008312101D7402121774900779E06011E5AB
:1052E8000A600974151217A9E04402F078018002D7
:1052F800780074141217A9E048F0900766E060047B
:1053080078048002780074141217A9E048F0AC08F9
:10531800AD09851882851983AA82AB831205B574F5
:10532800181217747F06021887EA450CF8741522BC
:10533800E8F0A3E9F0900C5DE02274F31217B5745D
:10534800E512175EEAFEEBFF8C098D0A7428121726
:10535800A9E0F50C75F006E9A4F87408650A70046C
:1053680074228002742128F50B7C1B7D007900854E
:105378001882851983AA82AB831210358518828515
:105388001983AC82AD837A1BA90B12137DE97032A5
:10539800741A1217A9E024F9C3940A5025E50CF5EC
:1053A8000B780B1219CC74011217A9AC82AD83E5E6
:1053B80009A2E0E433F9EEFAEFFB1205C774011213
:1053C8001774741B02500374F71217B512089175FD
:1053D8000800E50875F00EA4F8A9F0748128FE7499
:1053E8000739FF7C0679FFEEFAEFFB12109BE97094
:1053F80009EEFAEFFB79001208970508E508C3944F
:105408000A40CF024EA574F61217B574FD12175E46
:10541800EAFEEBFF90081B12552A703975081D75B6
:10542800090878081219C875080275090078081261
:1054380019C87508DE75099078081219C87CFF7DAF
:10544800FF7A017B001206E1740612177490081B9C
:10545800EAF0A3EBF090081B12552A7003025511CD
:10546800E4F508F50978081219C874041217A98513
:10547800820885830978081219C874041217A98547
:10548800820885830978081219C890081D1219DF47
:10549800790290081B12551F120807740812177416
:1054A800E97034851882851983E0FA74011217A906
:1054B800E0F9EA2400F508E439F509EA4509601736
:1054C80078081219C890081B125129A312551F12E7
:1054D80011617402121774E4F508F50978081219B5
:1054E800C890081D1219DF7CFF7DFF90081B125120
:1054F800521206ED740412177490081BEAF0A3EB1D
:10550800F090081B12552A70047901800279007402
:1055180003121774025131124CF0EEFAEFFB22908D
:10552800077FE0F8A3E0F9E84922C082C083900829
:105538001912552A601090081912515212104D90E4
:105548000819E4F0A3F0900C5F740AF0025187C0C8
:1055580082C0839061907404F0A37448F0A3E4F0CF
:105568009061807440F09061BC7407F0906187741A
:1055780069F09061B67416F07900120B0179021285
:105588000B07902558E493F46006E493F9120ADDBA
:105598007905120E01025952C082C083E9540FF9ED
:1055A800906185E0696012E5C654804449F5C6E516
:1055B8009E547F644970F8E9F053C680E59E547F95
:1055C80070FA02595274F71217B5E5A8FE53A87E6F
:1055D800120AE9C2BA539AFEC289759B00C2C21266
:1055E8000AEF75A91175B905120AF5D2BA439A01DD
:1055F80074805E42A8025EE9C082C083906181E443
:10560800F0A302594F75E90075910075BF000201BA
:1056180022C082C083906181E4F0A374C0F0A3E447
:10562800025951C082C08374F812175E9003A41205
:105638006882700302570A9003A4E05440602379FB
:1056480008851882851983AA82AB83120BFD8518F9
:1056580082851983AA82AB831208B59003A4E0540B
:10566800BFF0E054806010790C7A657B05120BFD61
:105678009003A4E0547FF0E0A2E0500F7900120BF1
:10568800011208BB9003A4E054FEF0E05402600F3E
:105698007901120B011208BB9003A4E054FDF0E05D
:1056A8005404600F7900120B071208C19003A4E09C
:1056B80054FBF0E05408600F7901120B071208C17F
:1056C8009003A4E054F7F0E05410600F7902120B35
:1056D800071208C19003A4E054EFF0E05420600FD3
:1056E8007903120B071208C19003A4E054DFF0A35A
:1056F800E05401600D120B131208C79003A5E05483
:10570800FEF07408121774025952C082C083E9600F
:105718000514602A804F90619A7433F0A37455F091
:105728009061A0743AF090053FE064017009C2915D
:105738009003A67467802D9003A6746180269061FB
:105748009A743FF0A3745AF09061A0747FF09005AA
:105758003FE064017009D2919003A67471800590AE
:1057680003A6746AF0025952C082C083E9600B1420
:10577800600D14601714600C802090255C801590D3
:10578800255D801090053FE06401700590255E80DE
:105798000390255FE493906186F002595274EE12EB
:1057A80017B574F412175E851882851983AC82AD1B
:1057B80083758390758243740412167190255C93E7
:1057C800F460030258CF907808E0C39402500302B3
:1057D80058AF74041217A9AC82AD8375838F758294
:1057E800F67408121671FC7EFF7FFF8E0C7D008C0C
:1057F8008285820E800F74086D606D74096D606813
:10580800740A6D60638D08750900740278081217B0
:105818004B1258D912162EA909E50AC9F88810742E
:1058280018780812156FE5104508FAE9FBE50EC36C
:1058380033F8E433F974041217A9E58228F582E5F0
:105848008339125DD9C3E89AE99B4008E8C39AF8FE
:10585800E99B8006EAC398F8EB99F9C3E89EE99FAB
:105868005006E8FEE9FF8D0C0DEDC39413408774D4
:10587800FF6E700374FF6F6024850C08740278084B
:1058880012174B1258D912162E851882851983E5DE
:1058980082250EF582E583126278E508F00CECC3E8
:1058A800940450030257EF7508017509007808122F
:1058B80019C874021217A9AC82AD837A577B0912F2
:1058C80012277402121774740C1217747F0A0218C4
:1058D8008774482508F58274783509F58378082295
:1058E800C082C083906186E0F890255FE493687079
:1058F8000990255EE493906186F09061AE7468F03B
:10590800A3746AF090624574FBF0A304F053F4FDAD
:1059180043FE0290053F7401F09061A0E0643A7084
:1059280004790080027901120B01025952C082C029
:10593800839004F1E06401700A9004F6E060047951
:105948000C800279008003F0A3F0D083D08202019A
:1059580022C082C08375E1F19004F4E0604D1460C8
:1059680009146051146049147050120B259004EA10
:10597800E0F97AEB7B04120D8390904B12164C12CF
:105988000DB990906B12164C120D8F9004F5E0F93A
:10599800120D9B7901120DF5125A752416126275B3
:1059A800743DF0A3740BF07900809F120B2B80BD1F
:1059B800120B3180B8120B3780B3791280EB74F474
:1059C8001217B575D90D9004D5E0A2E0E43313138E
:1059D800F8125A6B484401F5D97800125AD840FB9E
:1059E8007800880874D61267D87404125AE240F214
:1059F80075E1959004D5E0F97AD67B04120D89906B
:105A08000B8F74B3F0A3740A125AE8125B2C125B62
:105A180023125C409004F4E064019004E8700B12D7
:105A28005A7E12162E90907F8009125A7E12162ED8
:105A380090908B78081215BA90902F780812160853
:105A4800125A75240E126275780812163D125A758C
:105A580024141262757413F09003A27402F07F0488
:105A68000218879004EAE0C4333354C0229004E853
:105A7800E0F8A3E0C82212671078082274F612171B
:105A8800B5125C118AD97800125AD840FB78008088
:105A980006125B89125CC6E8C39940F5125C0312D2
:105AA8005AD840FB780080081267D47405125CC687
:105AB800E8C39940F375E195900B8F74BFF0A37418
:105AC8000A125AE8125AF27412F09003A2025EAD5A
:105AD800880874EB2508F5827404125E4394062244
:105AE800125C2974B9F0A3740A22125B2C125B238E
:105AF800125C449004E8E0F8A3E0C8240E125B1B93
:105B080074FF12654D9004E8E0F8A3E0C82414126D
:105B18005B1B22F582E83400F58322F0A374D1F0F0
:105B2800A3740A22125B3022125B3422F0A3746938
